{
  "_format": "hh-sol-artifact-1",
  "contractName": "GammaPool",
  "sourceName": "contracts/GammaPool.sol",
  "abi": [
    {
      "inputs": [],
      "stateMutability": "nonpayable",
      "type": "constructor"
    },
    {
      "anonymous": false,
      "inputs": [
        {
          "indexed": true,
          "internalType": "address",
          "name": "owner",
          "type": "address"
        },
        {
          "indexed": true,
          "internalType": "address",
          "name": "spender",
          "type": "address"
        },
        {
          "indexed": false,
          "internalType": "uint256",
          "name": "value",
          "type": "uint256"
        }
      ],
      "name": "Approval",
      "type": "event"
    },
    {
      "anonymous": false,
      "inputs": [
        {
          "indexed": true,
          "internalType": "address",
          "name": "from",
          "type": "address"
        },
        {
          "indexed": true,
          "internalType": "address",
          "name": "to",
          "type": "address"
        },
        {
          "indexed": false,
          "internalType": "uint256",
          "name": "value",
          "type": "uint256"
        }
      ],
      "name": "Transfer",
      "type": "event"
    },
    {
      "inputs": [],
      "name": "accFeeIndex",
      "outputs": [
        {
          "internalType": "uint256",
          "name": "",
          "type": "uint256"
        }
      ],
      "stateMutability": "view",
      "type": "function"
    },
    {
      "inputs": [
        {
          "internalType": "address",
          "name": "owner",
          "type": "address"
        },
        {
          "internalType": "address",
          "name": "spender",
          "type": "address"
        }
      ],
      "name": "allowance",
      "outputs": [
        {
          "internalType": "uint256",
          "name": "",
          "type": "uint256"
        }
      ],
      "stateMutability": "view",
      "type": "function"
    },
    {
      "inputs": [
        {
          "internalType": "address",
          "name": "spender",
          "type": "address"
        },
        {
          "internalType": "uint256",
          "name": "value",
          "type": "uint256"
        }
      ],
      "name": "approve",
      "outputs": [
        {
          "internalType": "bool",
          "name": "",
          "type": "bool"
        }
      ],
      "stateMutability": "nonpayable",
      "type": "function"
    },
    {
      "inputs": [],
      "name": "asset",
      "outputs": [
        {
          "internalType": "address",
          "name": "",
          "type": "address"
        }
      ],
      "stateMutability": "nonpayable",
      "type": "function"
    },
    {
      "inputs": [
        {
          "internalType": "address",
          "name": "account",
          "type": "address"
        }
      ],
      "name": "balanceOf",
      "outputs": [
        {
          "internalType": "uint256",
          "name": "",
          "type": "uint256"
        }
      ],
      "stateMutability": "view",
      "type": "function"
    },
    {
      "inputs": [
        {
          "internalType": "uint256",
          "name": "tokenId",
          "type": "uint256"
        },
        {
          "internalType": "uint256",
          "name": "lpTokens",
          "type": "uint256"
        }
      ],
      "name": "borrowLiquidity",
      "outputs": [
        {
          "internalType": "uint256[]",
          "name": "amounts",
          "type": "uint256[]"
        }
      ],
      "stateMutability": "nonpayable",
      "type": "function"
    },
    {
      "inputs": [],
      "name": "borrowRate",
      "outputs": [
        {
          "internalType": "uint256",
          "name": "",
          "type": "uint256"
        }
      ],
      "stateMutability": "view",
      "type": "function"
    },
    {
      "inputs": [],
      "name": "borrowedInvariant",
      "outputs": [
        {
          "internalType": "uint256",
          "name": "",
          "type": "uint256"
        }
      ],
      "stateMutability": "view",
      "type": "function"
    },
    {
      "inputs": [],
      "name": "cfmm",
      "outputs": [
        {
          "internalType": "address",
          "name": "",
          "type": "address"
        }
      ],
      "stateMutability": "view",
      "type": "function"
    },
    {
      "inputs": [],
      "name": "cfmmReserves",
      "outputs": [
        {
          "internalType": "uint256[]",
          "name": "",
          "type": "uint256[]"
        }
      ],
      "stateMutability": "view",
      "type": "function"
    },
    {
      "inputs": [
        {
          "internalType": "uint256",
          "name": "shares",
          "type": "uint256"
        }
      ],
      "name": "convertToAssets",
      "outputs": [
        {
          "internalType": "uint256",
          "name": "",
          "type": "uint256"
        }
      ],
      "stateMutability": "view",
      "type": "function"
    },
    {
      "inputs": [
        {
          "internalType": "uint256",
          "name": "assets",
          "type": "uint256"
        }
      ],
      "name": "convertToShares",
      "outputs": [
        {
          "internalType": "uint256",
          "name": "",
          "type": "uint256"
        }
      ],
      "stateMutability": "view",
      "type": "function"
    },
    {
      "inputs": [],
      "name": "createLoan",
      "outputs": [
        {
          "internalType": "uint256",
          "name": "",
          "type": "uint256"
        }
      ],
      "stateMutability": "nonpayable",
      "type": "function"
    },
    {
      "inputs": [],
      "name": "decimals",
      "outputs": [
        {
          "internalType": "uint8",
          "name": "",
          "type": "uint8"
        }
      ],
      "stateMutability": "view",
      "type": "function"
    },
    {
      "inputs": [
        {
          "internalType": "uint256",
          "name": "tokenId",
          "type": "uint256"
        },
        {
          "internalType": "uint256[]",
          "name": "amounts",
          "type": "uint256[]"
        },
        {
          "internalType": "address",
          "name": "to",
          "type": "address"
        }
      ],
      "name": "decreaseCollateral",
      "outputs": [
        {
          "internalType": "uint256[]",
          "name": "tokensHeld",
          "type": "uint256[]"
        }
      ],
      "stateMutability": "nonpayable",
      "type": "function"
    },
    {
      "inputs": [
        {
          "internalType": "uint256",
          "name": "assets",
          "type": "uint256"
        },
        {
          "internalType": "address",
          "name": "receiver",
          "type": "address"
        }
      ],
      "name": "deposit",
      "outputs": [
        {
          "internalType": "uint256",
          "name": "shares",
          "type": "uint256"
        }
      ],
      "stateMutability": "nonpayable",
      "type": "function"
    },
    {
      "inputs": [
        {
          "internalType": "address",
          "name": "to",
          "type": "address"
        }
      ],
      "name": "depositNoPull",
      "outputs": [
        {
          "internalType": "uint256",
          "name": "shares",
          "type": "uint256"
        }
      ],
      "stateMutability": "nonpayable",
      "type": "function"
    },
    {
      "inputs": [
        {
          "internalType": "address",
          "name": "to",
          "type": "address"
        },
        {
          "internalType": "uint256[]",
          "name": "amountsDesired",
          "type": "uint256[]"
        },
        {
          "internalType": "uint256[]",
          "name": "amountsMin",
          "type": "uint256[]"
        },
        {
          "internalType": "bytes",
          "name": "data",
          "type": "bytes"
        }
      ],
      "name": "depositReserves",
      "outputs": [
        {
          "internalType": "uint256[]",
          "name": "reserves",
          "type": "uint256[]"
        },
        {
          "internalType": "uint256",
          "name": "shares",
          "type": "uint256"
        }
      ],
      "stateMutability": "nonpayable",
      "type": "function"
    },
    {
      "inputs": [],
      "name": "factory",
      "outputs": [
        {
          "internalType": "address",
          "name": "",
          "type": "address"
        }
      ],
      "stateMutability": "view",
      "type": "function"
    },
    {
      "inputs": [
        {
          "internalType": "uint256",
          "name": "tokenId",
          "type": "uint256"
        }
      ],
      "name": "increaseCollateral",
      "outputs": [
        {
          "internalType": "uint256[]",
          "name": "tokensHeld",
          "type": "uint256[]"
        }
      ],
      "stateMutability": "nonpayable",
      "type": "function"
    },
    {
      "inputs": [],
      "name": "lastBlockNumber",
      "outputs": [
        {
          "internalType": "uint256",
          "name": "",
          "type": "uint256"
        }
      ],
      "stateMutability": "view",
      "type": "function"
    },
    {
      "inputs": [],
      "name": "lastCFMMFeeIndex",
      "outputs": [
        {
          "internalType": "uint256",
          "name": "",
          "type": "uint256"
        }
      ],
      "stateMutability": "view",
      "type": "function"
    },
    {
      "inputs": [],
      "name": "lastCFMMInvariant",
      "outputs": [
        {
          "internalType": "uint256",
          "name": "",
          "type": "uint256"
        }
      ],
      "stateMutability": "view",
      "type": "function"
    },
    {
      "inputs": [],
      "name": "lastCFMMTotalSupply",
      "outputs": [
        {
          "internalType": "uint256",
          "name": "",
          "type": "uint256"
        }
      ],
      "stateMutability": "view",
      "type": "function"
    },
    {
      "inputs": [],
      "name": "lastFeeIndex",
      "outputs": [
        {
          "internalType": "uint256",
          "name": "",
          "type": "uint256"
        }
      ],
      "stateMutability": "view",
      "type": "function"
    },
    {
      "inputs": [
        {
          "internalType": "uint256",
          "name": "tokenId",
          "type": "uint256"
        }
      ],
      "name": "loan",
      "outputs": [
        {
          "internalType": "uint256",
          "name": "id",
          "type": "uint256"
        },
        {
          "internalType": "address",
          "name": "poolId",
          "type": "address"
        },
        {
          "internalType": "uint256[]",
          "name": "tokensHeld",
          "type": "uint256[]"
        },
        {
          "internalType": "uint256",
          "name": "liquidity",
          "type": "uint256"
        },
        {
          "internalType": "uint256",
          "name": "rateIndex",
          "type": "uint256"
        },
        {
          "internalType": "uint256",
          "name": "blockNum",
          "type": "uint256"
        }
      ],
      "stateMutability": "view",
      "type": "function"
    },
    {
      "inputs": [],
      "name": "longStrategy",
      "outputs": [
        {
          "internalType": "address",
          "name": "",
          "type": "address"
        }
      ],
      "stateMutability": "view",
      "type": "function"
    },
    {
      "inputs": [],
      "name": "lpInvariant",
      "outputs": [
        {
          "internalType": "uint256",
          "name": "",
          "type": "uint256"
        }
      ],
      "stateMutability": "view",
      "type": "function"
    },
    {
      "inputs": [],
      "name": "lpTokenBalance",
      "outputs": [
        {
          "internalType": "uint256",
          "name": "",
          "type": "uint256"
        }
      ],
      "stateMutability": "view",
      "type": "function"
    },
    {
      "inputs": [],
      "name": "lpTokenBorrowed",
      "outputs": [
        {
          "internalType": "uint256",
          "name": "",
          "type": "uint256"
        }
      ],
      "stateMutability": "view",
      "type": "function"
    },
    {
      "inputs": [],
      "name": "lpTokenBorrowedPlusInterest",
      "outputs": [
        {
          "internalType": "uint256",
          "name": "",
          "type": "uint256"
        }
      ],
      "stateMutability": "view",
      "type": "function"
    },
    {
      "inputs": [],
      "name": "lpTokenTotal",
      "outputs": [
        {
          "internalType": "uint256",
          "name": "",
          "type": "uint256"
        }
      ],
      "stateMutability": "view",
      "type": "function"
    },
    {
      "inputs": [
        {
          "internalType": "address",
          "name": "",
          "type": "address"
        }
      ],
      "name": "maxDeposit",
      "outputs": [
        {
          "internalType": "uint256",
          "name": "",
          "type": "uint256"
        }
      ],
      "stateMutability": "view",
      "type": "function"
    },
    {
      "inputs": [
        {
          "internalType": "address",
          "name": "",
          "type": "address"
        }
      ],
      "name": "maxMint",
      "outputs": [
        {
          "internalType": "uint256",
          "name": "",
          "type": "uint256"
        }
      ],
      "stateMutability": "view",
      "type": "function"
    },
    {
      "inputs": [
        {
          "internalType": "address",
          "name": "owner",
          "type": "address"
        }
      ],
      "name": "maxRedeem",
      "outputs": [
        {
          "internalType": "uint256",
          "name": "",
          "type": "uint256"
        }
      ],
      "stateMutability": "view",
      "type": "function"
    },
    {
      "inputs": [
        {
          "internalType": "address",
          "name": "owner",
          "type": "address"
        }
      ],
      "name": "maxWithdraw",
      "outputs": [
        {
          "internalType": "uint256",
          "name": "",
          "type": "uint256"
        }
      ],
      "stateMutability": "view",
      "type": "function"
    },
    {
      "inputs": [
        {
          "internalType": "uint256",
          "name": "shares",
          "type": "uint256"
        },
        {
          "internalType": "address",
          "name": "receiver",
          "type": "address"
        }
      ],
      "name": "mint",
      "outputs": [
        {
          "internalType": "uint256",
          "name": "assets",
          "type": "uint256"
        }
      ],
      "stateMutability": "nonpayable",
      "type": "function"
    },
    {
      "inputs": [],
      "name": "name",
      "outputs": [
        {
          "internalType": "string",
          "name": "",
          "type": "string"
        }
      ],
      "stateMutability": "view",
      "type": "function"
    },
    {
      "inputs": [
        {
          "internalType": "uint256",
          "name": "assets",
          "type": "uint256"
        }
      ],
      "name": "previewDeposit",
      "outputs": [
        {
          "internalType": "uint256",
          "name": "",
          "type": "uint256"
        }
      ],
      "stateMutability": "view",
      "type": "function"
    },
    {
      "inputs": [
        {
          "internalType": "uint256",
          "name": "shares",
          "type": "uint256"
        }
      ],
      "name": "previewMint",
      "outputs": [
        {
          "internalType": "uint256",
          "name": "",
          "type": "uint256"
        }
      ],
      "stateMutability": "view",
      "type": "function"
    },
    {
      "inputs": [
        {
          "internalType": "uint256",
          "name": "shares",
          "type": "uint256"
        }
      ],
      "name": "previewRedeem",
      "outputs": [
        {
          "internalType": "uint256",
          "name": "",
          "type": "uint256"
        }
      ],
      "stateMutability": "view",
      "type": "function"
    },
    {
      "inputs": [
        {
          "internalType": "uint256",
          "name": "assets",
          "type": "uint256"
        }
      ],
      "name": "previewWithdraw",
      "outputs": [
        {
          "internalType": "uint256",
          "name": "",
          "type": "uint256"
        }
      ],
      "stateMutability": "view",
      "type": "function"
    },
    {
      "inputs": [],
      "name": "protocol",
      "outputs": [
        {
          "internalType": "address",
          "name": "",
          "type": "address"
        }
      ],
      "stateMutability": "view",
      "type": "function"
    },
    {
      "inputs": [],
      "name": "protocolId",
      "outputs": [
        {
          "internalType": "uint24",
          "name": "",
          "type": "uint24"
        }
      ],
      "stateMutability": "view",
      "type": "function"
    },
    {
      "inputs": [
        {
          "internalType": "uint256",
          "name": "tokenId",
          "type": "uint256"
        },
        {
          "internalType": "int256[]",
          "name": "deltas",
          "type": "int256[]"
        }
      ],
      "name": "rebalanceCollateral",
      "outputs": [
        {
          "internalType": "uint256[]",
          "name": "tokensHeld",
          "type": "uint256[]"
        }
      ],
      "stateMutability": "nonpayable",
      "type": "function"
    },
    {
      "inputs": [
        {
          "internalType": "uint256",
          "name": "tokenId",
          "type": "uint256"
        },
        {
          "internalType": "uint256",
          "name": "liquidity",
          "type": "uint256"
        }
      ],
      "name": "rebalanceCollateralWithLiquidity",
      "outputs": [
        {
          "internalType": "uint256[]",
          "name": "tokensHeld",
          "type": "uint256[]"
        }
      ],
      "stateMutability": "nonpayable",
      "type": "function"
    },
    {
      "inputs": [
        {
          "internalType": "uint256",
          "name": "shares",
          "type": "uint256"
        },
        {
          "internalType": "address",
          "name": "receiver",
          "type": "address"
        },
        {
          "internalType": "address",
          "name": "owner",
          "type": "address"
        }
      ],
      "name": "redeem",
      "outputs": [
        {
          "internalType": "uint256",
          "name": "assets",
          "type": "uint256"
        }
      ],
      "stateMutability": "nonpayable",
      "type": "function"
    },
    {
      "inputs": [
        {
          "internalType": "uint256",
          "name": "tokenId",
          "type": "uint256"
        },
        {
          "internalType": "uint256",
          "name": "liquidity",
          "type": "uint256"
        }
      ],
      "name": "repayLiquidity",
      "outputs": [
        {
          "internalType": "uint256",
          "name": "liquidityPaid",
          "type": "uint256"
        },
        {
          "internalType": "uint256",
          "name": "lpTokensPaid",
          "type": "uint256"
        },
        {
          "internalType": "uint256[]",
          "name": "amounts",
          "type": "uint256[]"
        }
      ],
      "stateMutability": "nonpayable",
      "type": "function"
    },
    {
      "inputs": [],
      "name": "shortStrategy",
      "outputs": [
        {
          "internalType": "address",
          "name": "",
          "type": "address"
        }
      ],
      "stateMutability": "view",
      "type": "function"
    },
    {
      "inputs": [],
      "name": "symbol",
      "outputs": [
        {
          "internalType": "string",
          "name": "",
          "type": "string"
        }
      ],
      "stateMutability": "view",
      "type": "function"
    },
    {
      "inputs": [],
      "name": "tokenBalances",
      "outputs": [
        {
          "internalType": "uint256[]",
          "name": "",
          "type": "uint256[]"
        }
      ],
      "stateMutability": "view",
      "type": "function"
    },
    {
      "inputs": [],
      "name": "tokens",
      "outputs": [
        {
          "internalType": "address[]",
          "name": "",
          "type": "address[]"
        }
      ],
      "stateMutability": "view",
      "type": "function"
    },
    {
      "inputs": [],
      "name": "totalAssets",
      "outputs": [
        {
          "internalType": "uint256",
          "name": "",
          "type": "uint256"
        }
      ],
      "stateMutability": "view",
      "type": "function"
    },
    {
      "inputs": [],
      "name": "totalInvariant",
      "outputs": [
        {
          "internalType": "uint256",
          "name": "",
          "type": "uint256"
        }
      ],
      "stateMutability": "view",
      "type": "function"
    },
    {
      "inputs": [],
      "name": "totalSupply",
      "outputs": [
        {
          "internalType": "uint256",
          "name": "",
          "type": "uint256"
        }
      ],
      "stateMutability": "view",
      "type": "function"
    },
    {
      "inputs": [
        {
          "internalType": "address",
          "name": "to",
          "type": "address"
        },
        {
          "internalType": "uint256",
          "name": "value",
          "type": "uint256"
        }
      ],
      "name": "transfer",
      "outputs": [
        {
          "internalType": "bool",
          "name": "",
          "type": "bool"
        }
      ],
      "stateMutability": "nonpayable",
      "type": "function"
    },
    {
      "inputs": [
        {
          "internalType": "address",
          "name": "from",
          "type": "address"
        },
        {
          "internalType": "address",
          "name": "to",
          "type": "address"
        },
        {
          "internalType": "uint256",
          "name": "value",
          "type": "uint256"
        }
      ],
      "name": "transferFrom",
      "outputs": [
        {
          "internalType": "bool",
          "name": "",
          "type": "bool"
        }
      ],
      "stateMutability": "nonpayable",
      "type": "function"
    },
    {
      "inputs": [
        {
          "internalType": "uint256",
          "name": "assets",
          "type": "uint256"
        },
        {
          "internalType": "address",
          "name": "receiver",
          "type": "address"
        },
        {
          "internalType": "address",
          "name": "owner",
          "type": "address"
        }
      ],
      "name": "withdraw",
      "outputs": [
        {
          "internalType": "uint256",
          "name": "shares",
          "type": "uint256"
        }
      ],
      "stateMutability": "nonpayable",
      "type": "function"
    },
    {
      "inputs": [
        {
          "internalType": "address",
          "name": "to",
          "type": "address"
        }
      ],
      "name": "withdrawNoPull",
      "outputs": [
        {
          "internalType": "uint256",
          "name": "assets",
          "type": "uint256"
        }
      ],
      "stateMutability": "nonpayable",
      "type": "function"
    },
    {
      "inputs": [
        {
          "internalType": "address",
          "name": "to",
          "type": "address"
        }
      ],
      "name": "withdrawReserves",
      "outputs": [
        {
          "internalType": "uint256[]",
          "name": "reserves",
          "type": "uint256[]"
        },
        {
          "internalType": "uint256",
          "name": "assets",
          "type": "uint256"
        }
      ],
      "stateMutability": "nonpayable",
      "type": "function"
    }
  ],
  "bytecode": "0x60806040523480156200001157600080fd5b50620000276200028f60201b62002a5c1760201c565b600080600062000041620008f160201b620030991760201c565b60020160039054906101000a900473ffffffffffffffffffffffffffffffffffffffff1673ffffffffffffffffffffffffffffffffffffffff1663890357306040518163ffffffff1660e01b815260040160006040518083038186803b158015620000ab57600080fd5b505afa158015620000c0573d6000803e3d6000fd5b505050506040513d6000823e3d601f19601f82011682018060405250810190620000eb919062000ce5565b92509250925060008062000109620008f160201b620030991760201c565b60020160039054906101000a900473ffffffffffffffffffffffffffffffffffffffff1673ffffffffffffffffffffffffffffffffffffffff16635411b20960e01b868686604051602401620001629392919062000e65565b604051602081830303815290604052907bffffffffffffffffffffffffffffffffffffffffffffffffffffffff19166020820180517bffffffffffffffffffffffffffffffffffffffffffffffffffffffff8381831617835250505050604051620001ce919062000e4c565b600060405180830381855af49150503d80600081146200020b576040519150601f19603f3d011682016040523d82523d6000602084013e62000210565b606091505b50915091508180156200024257506000815114806200024157508080602001905181019062000240919062000cb9565b5b5b62000284576040517f08c379a00000000000000000000000000000000000000000000000000000000081526004016200027b9062000ed9565b60405180910390fd5b5050505050620011c1565b6000620002a1620008f160201b60201c565b9050600015158160170160009054906101000a900460ff16151514620002fe576040517f08c379a0000000000000000000000000000000000000000000000000000000008152600401620002f59062000eb7565b60405180910390fd5b60018160170160006101000a81548160ff0219169083151502179055506040518060400160405280600c81526020017f47616d6d6153776170205631000000000000000000000000000000000000000081525081601c0190805190602001906200036a9291906200091e565b506040518060400160405280600781526020017f47414d412d56310000000000000000000000000000000000000000000000000081525081601d019080519060200190620003ba9291906200091e565b50601281601e0160006101000a81548160ff021916908360ff160217905550338160000160006101000a81548173ffffffffffffffffffffffffffffffffffffffff021916908373ffffffffffffffffffffffffffffffffffffffff1602179055503373ffffffffffffffffffffffffffffffffffffffff1663890357306040518163ffffffff1660e01b815260040160006040518083038186803b1580156200046357600080fd5b505afa15801562000478573d6000803e3d6000fd5b505050506040513d6000823e3d601f19601f82011682018060405250810190620004a3919062000c34565b8460030160008660020160008860010160008a60020160038891906101000a81548173ffffffffffffffffffffffffffffffffffffffff021916908373ffffffffffffffffffffffffffffffffffffffff16021790555087919050908051906020019062000513929190620009af565b508691906101000a81548162ffffff021916908362ffffff1602179055508591906101000a81548173ffffffffffffffffffffffffffffffffffffffff021916908373ffffffffffffffffffffffffffffffffffffffff1602179055505050505060008160020160039054906101000a900473ffffffffffffffffffffffffffffffffffffffff1690508073ffffffffffffffffffffffffffffffffffffffff16634932ed376040518163ffffffff1660e01b815260040160206040518083038186803b158015620005e457600080fd5b505afa158015620005f9573d6000803e3d6000fd5b505050506040513d601f19601f820116820180604052508101906200061f919062000c08565b8260040160006101000a81548173ffffffffffffffffffffffffffffffffffffffff021916908373ffffffffffffffffffffffffffffffffffffffff1602179055508073ffffffffffffffffffffffffffffffffffffffff166389c4fa126040518163ffffffff1660e01b815260040160206040518083038186803b158015620006a857600080fd5b505afa158015620006bd573d6000803e3d6000fd5b505050506040513d601f19601f82011682018060405250810190620006e3919062000c08565b8260050160006101000a81548173ffffffffffffffffffffffffffffffffffffffff021916908373ffffffffffffffffffffffffffffffffffffffff160217905550816001018054905067ffffffffffffffff8111156200076d577f4e487b7100000000000000000000000000000000000000000000000000000000600052604160045260246000fd5b6040519080825280602002602001820160405280156200079c5781602001602082028036833780820191505090505b50826006019080519060200190620007b692919062000a3e565b50816001018054905067ffffffffffffffff811115620007ff577f4e487b7100000000000000000000000000000000000000000000000000000000600052604160045260246000fd5b6040519080825280602002602001820160405280156200082e5781602001602082028036833780820191505090505b5082600e0190805190602001906200084892919062000a3e565b50670de0b6b3a76400008260100181905550670de0b6b3a76400008260110181905550670de0b6b3a76400008260120181905550438260150181905550338260190160006101000a81548173ffffffffffffffffffffffffffffffffffffffff021916908373ffffffffffffffffffffffffffffffffffffffff160217905550600182601a0181905550600182601b0181905550670de0b6b3a764000082601601819055505050565b6000807f58a86ce9af3c88d86c606c50ca486aaedb655aee7dec73f917ade295c9fef44390508091505090565b8280546200092c9062001046565b90600052602060002090601f0160209004810192826200095057600085556200099c565b82601f106200096b57805160ff19168380011785556200099c565b828001600101855582156200099c579182015b828111156200099b5782518255916020019190600101906200097e565b5b509050620009ab919062000a90565b5090565b82805482825590600052602060002090810192821562000a2b579160200282015b8281111562000a2a5782518260006101000a81548173ffffffffffffffffffffffffffffffffffffffff021916908373ffffffffffffffffffffffffffffffffffffffff16021790555091602001919060010190620009d0565b5b50905062000a3a919062000a90565b5090565b82805482825590600052602060002090810192821562000a7d579160200282015b8281111562000a7c57825182559160200191906001019062000a5f565b5b50905062000a8c919062000a90565b5090565b5b8082111562000aab57600081600090555060010162000a91565b5090565b600062000ac662000ac08462000f24565b62000efb565b9050808382526020820190508285602086028201111562000ae657600080fd5b60005b8581101562000b1a578162000aff888262000b69565b84526020840193506020830192505060018101905062000ae9565b5050509392505050565b600062000b3b62000b358462000f53565b62000efb565b90508281526020810184848401111562000b5457600080fd5b62000b6184828562001010565b509392505050565b60008151905062000b7a8162001173565b92915050565b600082601f83011262000b9257600080fd5b815162000ba484826020860162000aaf565b91505092915050565b60008151905062000bbe816200118d565b92915050565b600082601f83011262000bd657600080fd5b815162000be884826020860162000b24565b91505092915050565b60008151905062000c0281620011a7565b92915050565b60006020828403121562000c1b57600080fd5b600062000c2b8482850162000b69565b91505092915050565b6000806000806080858703121562000c4b57600080fd5b600062000c5b8782880162000b69565b945050602062000c6e8782880162000bf1565b935050604085015167ffffffffffffffff81111562000c8c57600080fd5b62000c9a8782880162000b80565b925050606062000cad8782880162000b69565b91505092959194509250565b60006020828403121562000ccc57600080fd5b600062000cdc8482850162000bad565b91505092915050565b60008060006060848603121562000cfb57600080fd5b600084015167ffffffffffffffff81111562000d1657600080fd5b62000d248682870162000bc4565b935050602084015167ffffffffffffffff81111562000d4257600080fd5b62000d508682870162000bc4565b925050604084015167ffffffffffffffff81111562000d6e57600080fd5b62000d7c8682870162000bc4565b9150509250925092565b600062000d938262000f89565b62000d9f818562000f94565b935062000db181856020860162001010565b62000dbc8162001110565b840191505092915050565b600062000dd48262000f89565b62000de0818562000fa5565b935062000df281856020860162001010565b80840191505092915050565b600062000e0d60038362000fb0565b915062000e1a8262001121565b602082019050919050565b600062000e3460048362000fb0565b915062000e41826200114a565b602082019050919050565b600062000e5a828462000dc7565b915081905092915050565b6000606082019050818103600083015262000e81818662000d86565b9050818103602083015262000e97818562000d86565b9050818103604083015262000ead818462000d86565b9050949350505050565b6000602082019050818103600083015262000ed28162000dfe565b9050919050565b6000602082019050818103600083015262000ef48162000e25565b9050919050565b600062000f0762000f1a565b905062000f1582826200107c565b919050565b6000604051905090565b600067ffffffffffffffff82111562000f425762000f41620010e1565b5b602082029050602081019050919050565b600067ffffffffffffffff82111562000f715762000f70620010e1565b5b62000f7c8262001110565b9050602081019050919050565b600081519050919050565b600082825260208201905092915050565b600081905092915050565b600082825260208201905092915050565b600062000fce8262000fe1565b9050919050565b60008115159050919050565b600073ffffffffffffffffffffffffffffffffffffffff82169050919050565b600062ffffff82169050919050565b60005b838110156200103057808201518184015260208101905062001013565b8381111562001040576000848401525b50505050565b600060028204905060018216806200105f57607f821691505b60208210811415620010765762001075620010b2565b5b50919050565b620010878262001110565b810181811067ffffffffffffffff82111715620010a957620010a8620010e1565b5b80604052505050565b7f4e487b7100000000000000000000000000000000000000000000000000000000600052602260045260246000fd5b7f4e487b7100000000000000000000000000000000000000000000000000000000600052604160045260246000fd5b6000601f19601f8301169050919050565b7f5345540000000000000000000000000000000000000000000000000000000000600082015250565b7f494e495400000000000000000000000000000000000000000000000000000000600082015250565b6200117e8162000fc1565b81146200118a57600080fd5b50565b620011988162000fd5565b8114620011a457600080fd5b50565b620011b28162001001565b8114620011be57600080fd5b50565b614b8380620011d16000396000f3fe608060405234801561001057600080fd5b50600436106103a45760003560e01c806370a08231116101e9578063ba0876521161010f578063da1f12ab116100ad578063e5ca93d41161007c578063e5ca93d414610c3a578063ea940b1d14610c58578063ef8b30f714610c88578063f92f445e14610cb8576103a4565b8063da1f12ab14610b9c578063db02f9cb14610bba578063dd62ed3e14610bec578063e1159b2d14610c1c576103a4565b8063c6e6f592116100e9578063c6e6f59214610aee578063c914b43714610b1e578063ce96cb7714610b3c578063d905777e14610b6c576103a4565b8063ba08765214610a70578063c45a015514610aa0578063c63d75b614610abe576103a4565b806395d89b4111610187578063acf615d711610156578063acf615d7146109c2578063b3d7f6b9146109e0578063b460af9414610a10578063b8a8383414610a40576103a4565b806395d89b41146109385780639d63848a14610956578063a9059cbb14610974578063a94e6e57146109a4576103a4565b806389f7fc44116101c357806389f7fc44146108ae5780638ce74426146108cc57806394bf804d146108ea578063958ae6901461091a576103a4565b806370a082311461084257806387b9f4131461087257806389c4fa1214610890576103a4565b80632a9bc3f6116102ce5780634932ed371161026c57806365418ef51161023b57806365418ef5146107a657806365ec1a45146107d65780636e553f65146107f45780637007d7da14610824576103a4565b80634932ed37146107095780634cdad5061461072757806354fe2a96146107575780636223dd6c14610788576103a4565b8063365a5306116102a8578063365a53061461066857806338d52e0f1461069d578063402d267d146106bb57806344dcb671146106eb576103a4565b80632a9bc3f6146105fc5780633035aa9c1461062c578063313ce5671461064a576103a4565b80630cfba8eb116103465780631931b913116103155780631931b9131461054e57806323b872dd1461057e5780632552317c146105ae57806328cad17f146105cc576103a4565b80630cfba8eb146104b15780630e3bc974146104e257806318160ddd14610500578063192fdf101461051e576103a4565b8063095ea7b311610382578063095ea7b3146104155780630a28a477146104455780630a9b2310146104755780630ab3ee1114610493576103a4565b806301e1d114146103a957806306fdde03146103c757806307a2d13a146103e5575b600080fd5b6103b1610cd6565b6040516103be9190614419565b60405180910390f35b6103cf610dde565b6040516103dc919061439c565b60405180910390f35b6103ff60048036038101906103fa9190613c83565b610e79565b60405161040c9190614419565b60405180910390f35b61042f600480360381019061042a9190613bb2565b610ebf565b60405161043c9190614381565b60405180910390f35b61045f600480360381019061045a9190613c83565b610ed6565b60405161046c9190614419565b60405180910390f35b61047d610f1c565b60405161048a919061432f565b60405180910390f35b61049b610f7d565b6040516104a89190614419565b60405180910390f35b6104cb60048036038101906104c691906139a1565b610f90565b6040516104d9929190614351565b60405180910390f35b6104ea6110ca565b6040516104f7919061432f565b60405180910390f35b61050861112b565b6040516105159190614419565b60405180910390f35b610538600480360381019061053391906139a1565b61113e565b6040516105459190614419565b60405180910390f35b61056860048036038101906105639190613e24565b611274565b604051610575919061432f565b60405180910390f35b61059860048036038101906105939190613a2f565b6113ad565b6040516105a59190614381565b60405180910390f35b6105b6611584565b6040516105c39190614419565b60405180910390f35b6105e660048036038101906105e19190613e24565b611597565b6040516105f3919061432f565b60405180910390f35b61061660048036038101906106119190613d60565b6116d0565b604051610623919061432f565b60405180910390f35b61063461180c565b60405161064191906141ec565b60405180910390f35b61065261183f565b60405161065f91906145d5565b60405180910390f35b610682600480360381019061067d9190613c83565b61185f565b60405161069496959493929190614494565b60405180910390f35b6106a561192d565b6040516106b291906141ec565b60405180910390f35b6106d560048036038101906106d091906139a1565b611960565b6040516106e29190614419565b60405180910390f35b6106f361198a565b6040516107009190614419565b60405180910390f35b61071161199d565b60405161071e91906141ec565b60405180910390f35b610741600480360381019061073c9190613c83565b6119d0565b60405161074e9190614419565b60405180910390f35b610771600480360381019061076c9190613a7e565b6119e2565b60405161077f929190614351565b60405180910390f35b610790611b2f565b60405161079d9190614419565b60405180910390f35b6107c060048036038101906107bb91906139a1565b611b42565b6040516107cd9190614419565b60405180910390f35b6107de611c78565b6040516107eb9190614419565b60405180910390f35b61080e60048036038101906108099190613cd5565b611c97565b60405161081b9190614419565b60405180910390f35b61082c611dd0565b6040516108399190614419565b60405180910390f35b61085c600480360381019061085791906139a1565b611de3565b6040516108699190614419565b60405180910390f35b61087a611e35565b6040516108879190614419565b60405180910390f35b610898611e48565b6040516108a591906141ec565b60405180910390f35b6108b6611e7b565b6040516108c39190614419565b60405180910390f35b6108d4611e8e565b6040516108e191906141ec565b60405180910390f35b61090460048036038101906108ff9190613cd5565b611ec1565b6040516109119190614419565b60405180910390f35b610922611ffa565b60405161092f9190614419565b60405180910390f35b61094061200d565b60405161094d919061439c565b60405180910390f35b61095e6120a8565b60405161096b919061430d565b60405180910390f35b61098e60048036038101906109899190613bb2565b61213f565b60405161099b9190614381565b60405180910390f35b6109ac612163565b6040516109b99190614419565b60405180910390f35b6109ca612176565b6040516109d79190614419565b60405180910390f35b6109fa60048036038101906109f59190613c83565b612189565b604051610a079190614419565b60405180910390f35b610a2a6004803603810190610a259190613d11565b6121cf565b604051610a379190614419565b60405180910390f35b610a5a6004803603810190610a559190613c83565b61230b565b604051610a67919061432f565b60405180910390f35b610a8a6004803603810190610a859190613d11565b612441565b604051610a979190614419565b60405180910390f35b610aa861257d565b604051610ab591906141ec565b60405180910390f35b610ad86004803603810190610ad391906139a1565b6125b0565b604051610ae59190614419565b60405180910390f35b610b086004803603810190610b039190613c83565b6125da565b604051610b159190614419565b60405180910390f35b610b26612620565b604051610b339190614419565b60405180910390f35b610b566004803603810190610b5191906139a1565b612633565b604051610b639190614419565b60405180910390f35b610b866004803603810190610b8191906139a1565b61268d565b604051610b939190614419565b60405180910390f35b610ba46126df565b604051610bb191906143fe565b60405180910390f35b610bd46004803603810190610bcf9190613e24565b612701565b604051610be393929190614597565b60405180910390f35b610c066004803603810190610c0191906139f3565b612842565b604051610c139190614419565b60405180910390f35b610c246128d2565b604051610c319190614419565b60405180910390f35b610c426128e5565b604051610c4f9190614419565b60405180910390f35b610c726004803603810190610c6d9190613db8565b6128f8565b604051610c7f919061432f565b60405180910390f35b610ca26004803603810190610c9d9190613c83565b612a37565b604051610caf9190614419565b60405180910390f35b610cc0612a49565b604051610ccd9190614419565b60405180910390f35b600080610ce1613099565b90508060050160009054906101000a900473ffffffffffffffffffffffffffffffffffffffff1673ffffffffffffffffffffffffffffffffffffffff16636ee4cffd8260030160009054906101000a900473ffffffffffffffffffffffffffffffffffffffff1683600b0154846007015485600801548660130154876014015488601501546040518863ffffffff1660e01b8152600401610d88979695949392919061429e565b60206040518083038186803b158015610da057600080fd5b505afa158015610db4573d6000803e3d6000fd5b505050506040513d601f19601f82011682018060405250810190610dd89190613cac565b91505090565b6060610de8613099565b601d018054610df690614926565b80601f0160208091040260200160405190810160405280929190818152602001828054610e2290614926565b8015610e6f5780601f10610e4457610100808354040283529160200191610e6f565b820191906000526020600020905b815481529060010190602001808311610e5257829003601f168201915b5050505050905090565b600080610e84613099565b601f0154905060008114610eb55780610e9b610cd6565b84610ea691906147e8565b610eb091906147b7565b610eb7565b825b915050919050565b6000610ecc3384846130c6565b6001905092915050565b600080610ee1613099565b601f0154905060008114610f1257610ef7610cd6565b8184610f0391906147e8565b610f0d91906147b7565b610f14565b825b915050919050565b6060610f26613099565b600e01805480602002602001604051908101604052809291908181526020018280548015610f7357602002820191906000526020600020905b815481526020019060010190808311610f5f575b5050505050905090565b6000610f87613099565b60070154905090565b60606000806000610f9f613099565b60050160009054906101000a900473ffffffffffffffffffffffffffffffffffffffff1673ffffffffffffffffffffffffffffffffffffffff16634054bf2460e01b86604051602401610ff291906141ec565b604051602081830303815290604052907bffffffffffffffffffffffffffffffffffffffffffffffffffffffff19166020820180517bffffffffffffffffffffffffffffffffffffffffffffffffffffffff838183161783525050505060405161105c91906141d5565b600060405180830381855af49150503d8060008114611097576040519150601f19603f3d011682016040523d82523d6000602084013e61109c565b606091505b5091509150816110ab57600080fd5b808060200190518101906110bf9190613c2f565b935093505050915091565b60606110d4613099565b60060180548060200260200160405190810160405280929190818152602001828054801561112157602002820191906000526020600020905b81548152602001906001019080831161110d575b5050505050905090565b6000611135613099565b601f0154905090565b600080600061114b613099565b60050160009054906101000a900473ffffffffffffffffffffffffffffffffffffffff1673ffffffffffffffffffffffffffffffffffffffff1663e62d2eeb60e01b8560405160240161119e91906141ec565b604051602081830303815290604052907bffffffffffffffffffffffffffffffffffffffffffffffffffffffff19166020820180517bffffffffffffffffffffffffffffffffffffffffffffffffffffffff838183161783525050505060405161120891906141d5565b600060405180830381855af49150503d8060008114611243576040519150601f19603f3d011682016040523d82523d6000602084013e611248565b606091505b50915091508161125757600080fd5b8080602001905181019061126b9190613cac565b92505050919050565b6060600080611281613099565b60040160009054906101000a900473ffffffffffffffffffffffffffffffffffffffff1673ffffffffffffffffffffffffffffffffffffffff16636fb7ee5260e01b86866040516024016112d692919061456e565b604051602081830303815290604052907bffffffffffffffffffffffffffffffffffffffffffffffffffffffff19166020820180517bffffffffffffffffffffffffffffffffffffffffffffffffffffffff838183161783525050505060405161134091906141d5565b600060405180830381855af49150503d806000811461137b576040519150601f19603f3d011682016040523d82523d6000602084013e611380565b606091505b50915091508161138f57600080fd5b808060200190518101906113a39190613bee565b9250505092915050565b6000806113b8613099565b90507fffffffffffffffffffffffffffffffffffffffffffffffffffffffffffffffff8160210160008773ffffffffffffffffffffffffffffffffffffffff1673ffffffffffffffffffffffffffffffffffffffff16815260200190815260200160002060003373ffffffffffffffffffffffffffffffffffffffff1673ffffffffffffffffffffffffffffffffffffffff168152602001908152602001600020541461156c57828160210160008773ffffffffffffffffffffffffffffffffffffffff1673ffffffffffffffffffffffffffffffffffffffff16815260200190815260200160002060003373ffffffffffffffffffffffffffffffffffffffff1673ffffffffffffffffffffffffffffffffffffffff168152602001908152602001600020546114e99190614842565b8160210160008773ffffffffffffffffffffffffffffffffffffffff1673ffffffffffffffffffffffffffffffffffffffff16815260200190815260200160002060003373ffffffffffffffffffffffffffffffffffffffff1673ffffffffffffffffffffffffffffffffffffffff168152602001908152602001600020819055505b611578818686866131ba565b60019150509392505050565b600061158e613099565b60150154905090565b60606000806115a4613099565b60040160009054906101000a900473ffffffffffffffffffffffffffffffffffffffff1673ffffffffffffffffffffffffffffffffffffffff1663a4fa646f60e01b86866040516024016115f992919061456e565b604051602081830303815290604052907bffffffffffffffffffffffffffffffffffffffffffffffffffffffff19166020820180517bffffffffffffffffffffffffffffffffffffffffffffffffffffffff838183161783525050505060405161166391906141d5565b600060405180830381855af49150503d806000811461169e576040519150601f19603f3d011682016040523d82523d6000602084013e6116a3565b606091505b5091509150816116b257600080fd5b808060200190518101906116c69190613bee565b9250505092915050565b60606000806116dd613099565b60040160009054906101000a900473ffffffffffffffffffffffffffffffffffffffff1673ffffffffffffffffffffffffffffffffffffffff1663ab790c7860e01b878787604051602401611734939291906144fc565b604051602081830303815290604052907bffffffffffffffffffffffffffffffffffffffffffffffffffffffff19166020820180517bffffffffffffffffffffffffffffffffffffffffffffffffffffffff838183161783525050505060405161179e91906141d5565b600060405180830381855af49150503d80600081146117d9576040519150601f19603f3d011682016040523d82523d6000602084013e6117de565b606091505b5091509150816117ed57600080fd5b808060200190518101906118019190613bee565b925050509392505050565b6000611816613099565b60030160009054906101000a900473ffffffffffffffffffffffffffffffffffffffff16905090565b6000611849613099565b601e0160009054906101000a900460ff16905090565b6000806060600080600080611872613099565b6018016000898152602001908152602001600020905080600001548160010160009054906101000a900473ffffffffffffffffffffffffffffffffffffffff16826002018360040154846006015485600701548380548060200260200160405190810160405280929190818152602001828054801561191057602002820191906000526020600020905b8154815260200190600101908083116118fc575b505050505093509650965096509650965096505091939550919395565b6000611937613099565b60030160009054906101000a900473ffffffffffffffffffffffffffffffffffffffff16905090565b60007fffffffffffffffffffffffffffffffffffffffffffffffffffffffffffffffff9050919050565b6000611994613099565b600a0154905090565b60006119a7613099565b60040160009054906101000a900473ffffffffffffffffffffffffffffffffffffffff16905090565b60006119db82610e79565b9050919050565b606060008060006119f1613099565b60050160009054906101000a900473ffffffffffffffffffffffffffffffffffffffff1673ffffffffffffffffffffffffffffffffffffffff166354d86e3f60e01b8c8c8c8c8c8c8c604051602401611a50979695949392919061423e565b604051602081830303815290604052907bffffffffffffffffffffffffffffffffffffffffffffffffffffffff19166020820180517bffffffffffffffffffffffffffffffffffffffffffffffffffffffff8381831617835250505050604051611aba91906141d5565b600060405180830381855af49150503d8060008114611af5576040519150601f19603f3d011682016040523d82523d6000602084013e611afa565b606091505b509150915081611b0957600080fd5b80806020019051810190611b1d9190613c2f565b93509350505097509795505050505050565b6000611b39613099565b600d0154905090565b6000806000611b4f613099565b60050160009054906101000a900473ffffffffffffffffffffffffffffffffffffffff1673ffffffffffffffffffffffffffffffffffffffff16635b35b5b460e01b85604051602401611ba291906141ec565b604051602081830303815290604052907bffffffffffffffffffffffffffffffffffffffffffffffffffffffff19166020820180517bffffffffffffffffffffffffffffffffffffffffffffffffffffffff8381831617835250505050604051611c0c91906141d5565b600060405180830381855af49150503d8060008114611c47576040519150601f19603f3d011682016040523d82523d6000602084013e611c4c565b606091505b509150915081611c5b57600080fd5b80806020019051810190611c6f9190613cac565b92505050919050565b6000611c82613349565b611c8a6133a9565b9050611c9461358c565b90565b6000806000611ca4613099565b60050160009054906101000a900473ffffffffffffffffffffffffffffffffffffffff1673ffffffffffffffffffffffffffffffffffffffff1663463cd97060e01b8686604051602401611cf9929190614434565b604051602081830303815290604052907bffffffffffffffffffffffffffffffffffffffffffffffffffffffff19166020820180517bffffffffffffffffffffffffffffffffffffffffffffffffffffffff8381831617835250505050604051611d6391906141d5565b600060405180830381855af49150503d8060008114611d9e576040519150601f19603f3d011682016040523d82523d6000602084013e611da3565b606091505b509150915081611db257600080fd5b80806020019051810190611dc69190613cac565b9250505092915050565b6000611dda613099565b60100154905090565b6000611ded613099565b60200160008373ffffffffffffffffffffffffffffffffffffffff1673ffffffffffffffffffffffffffffffffffffffff168152602001908152602001600020549050919050565b6000611e3f613099565b60140154905090565b6000611e52613099565b60050160009054906101000a900473ffffffffffffffffffffffffffffffffffffffff16905090565b6000611e85613099565b60110154905090565b6000611e98613099565b60020160039054906101000a900473ffffffffffffffffffffffffffffffffffffffff16905090565b6000806000611ece613099565b60050160009054906101000a900473ffffffffffffffffffffffffffffffffffffffff1673ffffffffffffffffffffffffffffffffffffffff1663e855aee560e01b8686604051602401611f23929190614434565b604051602081830303815290604052907bffffffffffffffffffffffffffffffffffffffffffffffffffffffff19166020820180517bffffffffffffffffffffffffffffffffffffffffffffffffffffffff8381831617835250505050604051611f8d91906141d5565b600060405180830381855af49150503d8060008114611fc8576040519150601f19603f3d011682016040523d82523d6000602084013e611fcd565b606091505b509150915081611fdc57600080fd5b80806020019051810190611ff09190613cac565b9250505092915050565b6000612004613099565b60120154905090565b6060612017613099565b601d01805461202590614926565b80601f016020809104026020016040519081016040528092919081815260200182805461205190614926565b801561209e5780601f106120735761010080835404028352916020019161209e565b820191906000526020600020905b81548152906001019060200180831161208157829003601f168201915b5050505050905090565b60606120b2613099565b60010180548060200260200160405190810160405280929190818152602001828054801561213557602002820191906000526020600020905b8160009054906101000a900473ffffffffffffffffffffffffffffffffffffffff1673ffffffffffffffffffffffffffffffffffffffff16815260200190600101908083116120eb575b5050505050905090565b60008061214a613099565b9050612158813386866131ba565b600191505092915050565b600061216d613099565b60090154905090565b6000612180613099565b600c0154905090565b600080612194613099565b601f01549050600081146121c557806121ab610cd6565b846121b691906147e8565b6121c091906147b7565b6121c7565b825b915050919050565b60008060006121dc613099565b60050160009054906101000a900473ffffffffffffffffffffffffffffffffffffffff1673ffffffffffffffffffffffffffffffffffffffff16630ca4237960e01b8787876040516024016122339392919061445d565b604051602081830303815290604052907bffffffffffffffffffffffffffffffffffffffffffffffffffffffff19166020820180517bffffffffffffffffffffffffffffffffffffffffffffffffffffffff838183161783525050505060405161229d91906141d5565b600060405180830381855af49150503d80600081146122d8576040519150601f19603f3d011682016040523d82523d6000602084013e6122dd565b606091505b5091509150816122ec57600080fd5b808060200190518101906123009190613cac565b925050509392505050565b6060600080612318613099565b60040160009054906101000a900473ffffffffffffffffffffffffffffffffffffffff1673ffffffffffffffffffffffffffffffffffffffff1663b35dceab60e01b8560405160240161236b9190614419565b604051602081830303815290604052907bffffffffffffffffffffffffffffffffffffffffffffffffffffffff19166020820180517bffffffffffffffffffffffffffffffffffffffffffffffffffffffff83818316178352505050506040516123d591906141d5565b600060405180830381855af49150503d8060008114612410576040519150601f19603f3d011682016040523d82523d6000602084013e612415565b606091505b50915091508161242457600080fd5b808060200190518101906124389190613bee565b92505050919050565b600080600061244e613099565b60050160009054906101000a900473ffffffffffffffffffffffffffffffffffffffff1673ffffffffffffffffffffffffffffffffffffffff16633337cd8560e01b8787876040516024016124a59392919061445d565b604051602081830303815290604052907bffffffffffffffffffffffffffffffffffffffffffffffffffffffff19166020820180517bffffffffffffffffffffffffffffffffffffffffffffffffffffffff838183161783525050505060405161250f91906141d5565b600060405180830381855af49150503d806000811461254a576040519150601f19603f3d011682016040523d82523d6000602084013e61254f565b606091505b50915091508161255e57600080fd5b808060200190518101906125729190613cac565b925050509392505050565b6000612587613099565b60000160009054906101000a900473ffffffffffffffffffffffffffffffffffffffff16905090565b60007fffffffffffffffffffffffffffffffffffffffffffffffffffffffffffffffff9050919050565b6000806125e5613099565b601f0154905060008114612616576125fb610cd6565b818461260791906147e8565b61261191906147b7565b612618565b825b915050919050565b600061262a613099565b600f0154905090565b6000612686612640613099565b60200160008473ffffffffffffffffffffffffffffffffffffffff1673ffffffffffffffffffffffffffffffffffffffff16815260200190815260200160002054610e79565b9050919050565b6000612697613099565b60200160008373ffffffffffffffffffffffffffffffffffffffff1673ffffffffffffffffffffffffffffffffffffffff168152602001908152602001600020549050919050565b60006126e9613099565b60020160009054906101000a900462ffffff16905090565b6000806060600080612711613099565b60040160009054906101000a900473ffffffffffffffffffffffffffffffffffffffff1673ffffffffffffffffffffffffffffffffffffffff166337d1b3d660e01b888860405160240161276692919061456e565b604051602081830303815290604052907bffffffffffffffffffffffffffffffffffffffffffffffffffffffff19166020820180517bffffffffffffffffffffffffffffffffffffffffffffffffffffffff83818316178352505050506040516127d091906141d5565b600060405180830381855af49150503d806000811461280b576040519150601f19603f3d011682016040523d82523d6000602084013e612810565b606091505b50915091508161281f57600080fd5b808060200190518101906128339190613e60565b94509450945050509250925092565b600061284c613099565b60210160008473ffffffffffffffffffffffffffffffffffffffff1673ffffffffffffffffffffffffffffffffffffffff16815260200190815260200160002060008373ffffffffffffffffffffffffffffffffffffffff1673ffffffffffffffffffffffffffffffffffffffff16815260200190815260200160002054905092915050565b60006128dc613099565b60080154905090565b60006128ef613099565b600b0154905090565b6060600080612905613099565b60040160009054906101000a900473ffffffffffffffffffffffffffffffffffffffff1673ffffffffffffffffffffffffffffffffffffffff16630d5cf12b60e01b8888888860405160240161295e949392919061452e565b604051602081830303815290604052907bffffffffffffffffffffffffffffffffffffffffffffffffffffffff19166020820180517bffffffffffffffffffffffffffffffffffffffffffffffffffffffff83818316178352505050506040516129c891906141d5565b600060405180830381855af49150503d8060008114612a03576040519150601f19603f3d011682016040523d82523d6000602084013e612a08565b606091505b509150915081612a1757600080fd5b80806020019051810190612a2b9190613bee565b92505050949350505050565b6000612a42826125da565b9050919050565b6000612a53613099565b60130154905090565b6000612a66613099565b9050600015158160170160009054906101000a900460ff16151514612ac0576040517f08c379a0000000000000000000000000000000000000000000000000000000008152600401612ab7906143be565b60405180910390fd5b60018160170160006101000a81548160ff0219169083151502179055506040518060400160405280600c81526020017f47616d6d6153776170205631000000000000000000000000000000000000000081525081601c019080519060200190612b2a92919061359f565b506040518060400160405280600781526020017f47414d412d56310000000000000000000000000000000000000000000000000081525081601d019080519060200190612b7892919061359f565b50601281601e0160006101000a81548160ff021916908360ff160217905550338160000160006101000a81548173ffffffffffffffffffffffffffffffffffffffff021916908373ffffffffffffffffffffffffffffffffffffffff1602179055503373ffffffffffffffffffffffffffffffffffffffff1663890357306040518163ffffffff1660e01b815260040160006040518083038186803b158015612c2057600080fd5b505afa158015612c34573d6000803e3d6000fd5b505050506040513d6000823e3d601f19601f82011682018060405250810190612c5d9190613b37565b8460030160008660020160008860010160008a60020160038891906101000a81548173ffffffffffffffffffffffffffffffffffffffff021916908373ffffffffffffffffffffffffffffffffffffffff160217905550879190509080519060200190612ccb929190613625565b508691906101000a81548162ffffff021916908362ffffff1602179055508591906101000a81548173ffffffffffffffffffffffffffffffffffffffff021916908373ffffffffffffffffffffffffffffffffffffffff1602179055505050505060008160020160039054906101000a900473ffffffffffffffffffffffffffffffffffffffff1690508073ffffffffffffffffffffffffffffffffffffffff16634932ed376040518163ffffffff1660e01b815260040160206040518083038186803b158015612d9b57600080fd5b505afa158015612daf573d6000803e3d6000fd5b505050506040513d601f19601f82011682018060405250810190612dd391906139ca565b8260040160006101000a81548173ffffffffffffffffffffffffffffffffffffffff021916908373ffffffffffffffffffffffffffffffffffffffff1602179055508073ffffffffffffffffffffffffffffffffffffffff166389c4fa126040518163ffffffff1660e01b815260040160206040518083038186803b158015612e5b57600080fd5b505afa158015612e6f573d6000803e3d6000fd5b505050506040513d601f19601f82011682018060405250810190612e9391906139ca565b8260050160006101000a81548173ffffffffffffffffffffffffffffffffffffffff021916908373ffffffffffffffffffffffffffffffffffffffff160217905550816001018054905067ffffffffffffffff811115612f1c577f4e487b7100000000000000000000000000000000000000000000000000000000600052604160045260246000fd5b604051908082528060200260200182016040528015612f4a5781602001602082028036833780820191505090505b50826006019080519060200190612f629291906136af565b50816001018054905067ffffffffffffffff811115612faa577f4e487b7100000000000000000000000000000000000000000000000000000000600052604160045260246000fd5b604051908082528060200260200182016040528015612fd85781602001602082028036833780820191505090505b5082600e019080519060200190612ff09291906136af565b50670de0b6b3a76400008260100181905550670de0b6b3a76400008260110181905550670de0b6b3a76400008260120181905550438260150181905550338260190160006101000a81548173ffffffffffffffffffffffffffffffffffffffff021916908373ffffffffffffffffffffffffffffffffffffffff160217905550600182601a0181905550600182601b0181905550670de0b6b3a764000082601601819055505050565b6000807f58a86ce9af3c88d86c606c50ca486aaedb655aee7dec73f917ade295c9fef44390508091505090565b806130cf613099565b60210160008573ffffffffffffffffffffffffffffffffffffffff1673ffffffffffffffffffffffffffffffffffffffff16815260200190815260200160002060008473ffffffffffffffffffffffffffffffffffffffff1673ffffffffffffffffffffffffffffffffffffffff168152602001908152602001600020819055508173ffffffffffffffffffffffffffffffffffffffff168373ffffffffffffffffffffffffffffffffffffffff167f8c5be1e5ebec7d5bd14f71427d1e84f3dd0314c0f7b2291e5b200ac8c7c3b925836040516131ad9190614419565b60405180910390a3505050565b808460200160008573ffffffffffffffffffffffffffffffffffffffff1673ffffffffffffffffffffffffffffffffffffffff168152602001908152602001600020546132079190614842565b8460200160008573ffffffffffffffffffffffffffffffffffffffff1673ffffffffffffffffffffffffffffffffffffffff16815260200190815260200160002081905550808460200160008473ffffffffffffffffffffffffffffffffffffffff1673ffffffffffffffffffffffffffffffffffffffff168152602001908152602001600020546132999190614761565b8460200160008473ffffffffffffffffffffffffffffffffffffffff1673ffffffffffffffffffffffffffffffffffffffff168152602001908152602001600020819055508173ffffffffffffffffffffffffffffffffffffffff168373ffffffffffffffffffffffffffffffffffffffff167fddf252ad1be2c89b69c2b068fc378daa952ba7f163c4a11628f55a4df523b3ef8360405161333b9190614419565b60405180910390a350505050565b6000613353613099565b9050600181601b01541461339c576040517f08c379a0000000000000000000000000000000000000000000000000000000008152600401613393906143de565b60405180910390fd5b600081601b018190555050565b6000806133b4613099565b9050600081601a0160008154809291906133cd90614989565b9190505590503330826040516020016133e893929190614207565b6040516020818303038152906040528051906020012060001c92506040518061010001604052808281526020013073ffffffffffffffffffffffffffffffffffffffff168152602001836001018054905067ffffffffffffffff811115613478577f4e487b7100000000000000000000000000000000000000000000000000000000600052604160045260246000fd5b6040519080825280602002602001820160405280156134a65781602001602082028036833780820191505090505b50815260200160008152602001600081526020016000815260200183601001548152602001438152508260180160008581526020019081526020016000206000820151816000015560208201518160010160006101000a81548173ffffffffffffffffffffffffffffffffffffffff021916908373ffffffffffffffffffffffffffffffffffffffff16021790555060408201518160020190805190602001906135519291906136af565b50606082015181600301556080820151816004015560a0820151816005015560c0820151816006015560e08201518160070155905050505090565b6001613596613099565b601b0181905550565b8280546135ab90614926565b90600052602060002090601f0160209004810192826135cd5760008555613614565b82601f106135e657805160ff1916838001178555613614565b82800160010185558215613614579182015b828111156136135782518255916020019190600101906135f8565b5b50905061362191906136fc565b5090565b82805482825590600052602060002090810192821561369e579160200282015b8281111561369d5782518260006101000a81548173ffffffffffffffffffffffffffffffffffffffff021916908373ffffffffffffffffffffffffffffffffffffffff16021790555091602001919060010190613645565b5b5090506136ab91906136fc565b5090565b8280548282559060005260206000209081019282156136eb579160200282015b828111156136ea5782518255916020019190600101906136cf565b5b5090506136f891906136fc565b5090565b5b808211156137155760008160009055506001016136fd565b5090565b600061372c61372784614615565b6145f0565b9050808382526020820190508285602086028201111561374b57600080fd5b60005b8581101561377b57816137618882613806565b84526020840193506020830192505060018101905061374e565b5050509392505050565b600061379861379384614641565b6145f0565b905080838252602082019050828560208602820111156137b757600080fd5b60005b858110156137e757816137cd888261398c565b8452602084019350602083019250506001810190506137ba565b5050509392505050565b60008135905061380081614af1565b92915050565b60008151905061381581614af1565b92915050565b600082601f83011261382c57600080fd5b815161383c848260208601613719565b91505092915050565b60008083601f84011261385757600080fd5b8235905067ffffffffffffffff81111561387057600080fd5b60208301915083602082028301111561388857600080fd5b9250929050565b60008083601f8401126138a157600080fd5b8235905067ffffffffffffffff8111156138ba57600080fd5b6020830191508360208202830111156138d257600080fd5b9250929050565b600082601f8301126138ea57600080fd5b81516138fa848260208601613785565b91505092915050565b60008083601f84011261391557600080fd5b8235905067ffffffffffffffff81111561392e57600080fd5b60208301915083600182028301111561394657600080fd5b9250929050565b60008135905061395c81614b08565b92915050565b60008151905061397181614b1f565b92915050565b60008135905061398681614b36565b92915050565b60008151905061399b81614b36565b92915050565b6000602082840312156139b357600080fd5b60006139c1848285016137f1565b91505092915050565b6000602082840312156139dc57600080fd5b60006139ea84828501613806565b91505092915050565b60008060408385031215613a0657600080fd5b6000613a14858286016137f1565b9250506020613a25858286016137f1565b9150509250929050565b600080600060608486031215613a4457600080fd5b6000613a52868287016137f1565b9350506020613a63868287016137f1565b9250506040613a7486828701613977565b9150509250925092565b60008060008060008060006080888a031215613a9957600080fd5b6000613aa78a828b016137f1565b975050602088013567ffffffffffffffff811115613ac457600080fd5b613ad08a828b0161388f565b9650965050604088013567ffffffffffffffff811115613aef57600080fd5b613afb8a828b0161388f565b9450945050606088013567ffffffffffffffff811115613b1a57600080fd5b613b268a828b01613903565b925092505092959891949750929550565b60008060008060808587031215613b4d57600080fd5b6000613b5b87828801613806565b9450506020613b6c87828801613962565b935050604085015167ffffffffffffffff811115613b8957600080fd5b613b958782880161381b565b9250506060613ba687828801613806565b91505092959194509250565b60008060408385031215613bc557600080fd5b6000613bd3858286016137f1565b9250506020613be485828601613977565b9150509250929050565b600060208284031215613c0057600080fd5b600082015167ffffffffffffffff811115613c1a57600080fd5b613c26848285016138d9565b91505092915050565b60008060408385031215613c4257600080fd5b600083015167ffffffffffffffff811115613c5c57600080fd5b613c68858286016138d9565b9250506020613c798582860161398c565b9150509250929050565b600060208284031215613c9557600080fd5b6000613ca384828501613977565b91505092915050565b600060208284031215613cbe57600080fd5b6000613ccc8482850161398c565b91505092915050565b60008060408385031215613ce857600080fd5b6000613cf685828601613977565b9250506020613d07858286016137f1565b9150509250929050565b600080600060608486031215613d2657600080fd5b6000613d3486828701613977565b9350506020613d45868287016137f1565b9250506040613d56868287016137f1565b9150509250925092565b600080600060408486031215613d7557600080fd5b6000613d8386828701613977565b935050602084013567ffffffffffffffff811115613da057600080fd5b613dac86828701613845565b92509250509250925092565b60008060008060608587031215613dce57600080fd5b6000613ddc87828801613977565b945050602085013567ffffffffffffffff811115613df957600080fd5b613e058782880161388f565b93509350506040613e18878288016137f1565b91505092959194509250565b60008060408385031215613e3757600080fd5b6000613e4585828601613977565b9250506020613e5685828601613977565b9150509250929050565b600080600060608486031215613e7557600080fd5b6000613e838682870161398c565b9350506020613e948682870161398c565b925050604084015167ffffffffffffffff811115613eb157600080fd5b613ebd868287016138d9565b9150509250925092565b6000613ed38383613f0f565b60208301905092915050565b6000613eeb838361410b565b60208301905092915050565b6000613f0383836141a8565b60208301905092915050565b613f1881614876565b82525050565b613f2781614876565b82525050565b6000613f3882614697565b613f4281856146ea565b9350613f4d8361466d565b8060005b83811015613f7e578151613f658882613ec7565b9750613f70836146c3565b925050600181019050613f51565b5085935050505092915050565b6000613f9783856146fb565b9350613fa28261467d565b8060005b85811015613fdb57613fb8828461474a565b613fc28882613edf565b9750613fcd836146d0565b925050600181019050613fa6565b5085925050509392505050565b6000613ff4838561470c565b93507f07ffffffffffffffffffffffffffffffffffffffffffffffffffffffffffffff83111561402357600080fd5b6020830292506140348385846148e4565b82840190509392505050565b600061404b826146a2565b614055818561470c565b935061406083614687565b8060005b838110156140915781516140788882613ef7565b9750614083836146dd565b925050600181019050614064565b5085935050505092915050565b6140a781614888565b82525050565b60006140b9838561471d565b93506140c68385846148e4565b6140cf83614a8e565b840190509392505050565b60006140e5826146ad565b6140ef818561472e565b93506140ff8185602086016148f3565b80840191505092915050565b61411481614894565b82525050565b6000614125826146b8565b61412f8185614739565b935061413f8185602086016148f3565b61414881614a8e565b840191505092915050565b6000614160600383614739565b915061416b82614a9f565b602082019050919050565b6000614183600483614739565b915061418e82614ac8565b602082019050919050565b6141a2816148be565b82525050565b6141b1816148cd565b82525050565b6141c0816148cd565b82525050565b6141cf816148d7565b82525050565b60006141e182846140da565b915081905092915050565b60006020820190506142016000830184613f1e565b92915050565b600060608201905061421c6000830186613f1e565b6142296020830185613f1e565b61423660408301846141b7565b949350505050565b6000608082019050614253600083018a613f1e565b818103602083015261426681888a613fe8565b9050818103604083015261427b818688613fe8565b905081810360608301526142908184866140ad565b905098975050505050505050565b600060e0820190506142b3600083018a613f1e565b6142c060208301896141b7565b6142cd60408301886141b7565b6142da60608301876141b7565b6142e760808301866141b7565b6142f460a08301856141b7565b61430160c08301846141b7565b98975050505050505050565b600060208201905081810360008301526143278184613f2d565b905092915050565b600060208201905081810360008301526143498184614040565b905092915050565b6000604082019050818103600083015261436b8185614040565b905061437a60208301846141b7565b9392505050565b6000602082019050614396600083018461409e565b92915050565b600060208201905081810360008301526143b6818461411a565b905092915050565b600060208201905081810360008301526143d781614153565b9050919050565b600060208201905081810360008301526143f781614176565b9050919050565b60006020820190506144136000830184614199565b92915050565b600060208201905061442e60008301846141b7565b92915050565b600060408201905061444960008301856141b7565b6144566020830184613f1e565b9392505050565b600060608201905061447260008301866141b7565b61447f6020830185613f1e565b61448c6040830184613f1e565b949350505050565b600060c0820190506144a960008301896141b7565b6144b66020830188613f1e565b81810360408301526144c88187614040565b90506144d760608301866141b7565b6144e460808301856141b7565b6144f160a08301846141b7565b979650505050505050565b600060408201905061451160008301866141b7565b8181036020830152614524818486613f8b565b9050949350505050565b600060608201905061454360008301876141b7565b8181036020830152614556818587613fe8565b90506145656040830184613f1e565b95945050505050565b600060408201905061458360008301856141b7565b61459060208301846141b7565b9392505050565b60006060820190506145ac60008301866141b7565b6145b960208301856141b7565b81810360408301526145cb8184614040565b9050949350505050565b60006020820190506145ea60008301846141c6565b92915050565b60006145fa61460b565b90506146068282614958565b919050565b6000604051905090565b600067ffffffffffffffff8211156146305761462f614a5f565b5b602082029050602081019050919050565b600067ffffffffffffffff82111561465c5761465b614a5f565b5b602082029050602081019050919050565b6000819050602082019050919050565b6000819050919050565b6000819050602082019050919050565b600081519050919050565b600081519050919050565b600081519050919050565b600081519050919050565b6000602082019050919050565b6000602082019050919050565b6000602082019050919050565b600082825260208201905092915050565b600082825260208201905092915050565b600082825260208201905092915050565b600082825260208201905092915050565b600081905092915050565b600082825260208201905092915050565b6000614759602084018461394d565b905092915050565b600061476c826148cd565b9150614777836148cd565b9250827fffffffffffffffffffffffffffffffffffffffffffffffffffffffffffffffff038211156147ac576147ab6149d2565b5b828201905092915050565b60006147c2826148cd565b91506147cd836148cd565b9250826147dd576147dc614a01565b5b828204905092915050565b60006147f3826148cd565b91506147fe836148cd565b9250817fffffffffffffffffffffffffffffffffffffffffffffffffffffffffffffffff0483118215151615614837576148366149d2565b5b828202905092915050565b600061484d826148cd565b9150614858836148cd565b92508282101561486b5761486a6149d2565b5b828203905092915050565b60006148818261489e565b9050919050565b60008115159050919050565b6000819050919050565b600073ffffffffffffffffffffffffffffffffffffffff82169050919050565b600062ffffff82169050919050565b6000819050919050565b600060ff82169050919050565b82818337600083830152505050565b60005b838110156149115780820151818401526020810190506148f6565b83811115614920576000848401525b50505050565b6000600282049050600182168061493e57607f821691505b6020821081141561495257614951614a30565b5b50919050565b61496182614a8e565b810181811067ffffffffffffffff821117156149805761497f614a5f565b5b80604052505050565b6000614994826148cd565b91507fffffffffffffffffffffffffffffffffffffffffffffffffffffffffffffffff8214156149c7576149c66149d2565b5b600182019050919050565b7f4e487b7100000000000000000000000000000000000000000000000000000000600052601160045260246000fd5b7f4e487b7100000000000000000000000000000000000000000000000000000000600052601260045260246000fd5b7f4e487b7100000000000000000000000000000000000000000000000000000000600052602260045260246000fd5b7f4e487b7100000000000000000000000000000000000000000000000000000000600052604160045260246000fd5b6000601f19601f8301169050919050565b7f5345540000000000000000000000000000000000000000000000000000000000600082015250565b7f4c4f434b00000000000000000000000000000000000000000000000000000000600082015250565b614afa81614876565b8114614b0557600080fd5b50565b614b1181614894565b8114614b1c57600080fd5b50565b614b28816148be565b8114614b3357600080fd5b50565b614b3f816148cd565b8114614b4a57600080fd5b5056fea2646970667358221220b99bc7ef81c4ae45c6aa0fe3172950d0cecb34d87c34b7645ddae8c5e4d16aab64736f6c63430008040033",
  "linkReferences": {},
  "deployedLinkReferences": {}
}