{
  "_format": "hh-sol-artifact-1",
  "contractName": "CPMMLongStrategy",
  "sourceName": "contracts/strategies/cpmm/CPMMLongStrategy.sol",
  "abi": [
    {
      "inputs": [
        {
          "internalType": "bytes",
          "name": "sParams",
          "type": "bytes"
        },
        {
          "internalType": "bytes",
          "name": "rParams",
          "type": "bytes"
        }
      ],
      "stateMutability": "nonpayable",
      "type": "constructor"
    },
    {
      "anonymous": false,
      "inputs": [
        {
          "indexed": true,
          "internalType": "address",
          "name": "from",
          "type": "address"
        },
        {
          "indexed": true,
          "internalType": "address",
          "name": "to",
          "type": "address"
        },
        {
          "indexed": false,
          "internalType": "uint256",
          "name": "value",
          "type": "uint256"
        }
      ],
      "name": "Transfer",
      "type": "event"
    },
    {
      "inputs": [
        {
          "internalType": "uint256",
          "name": "tokenId",
          "type": "uint256"
        },
        {
          "internalType": "uint256",
          "name": "lpTokens",
          "type": "uint256"
        }
      ],
      "name": "_borrowLiquidity",
      "outputs": [
        {
          "internalType": "uint256[]",
          "name": "amounts",
          "type": "uint256[]"
        }
      ],
      "stateMutability": "nonpayable",
      "type": "function"
    },
    {
      "inputs": [
        {
          "internalType": "uint256",
          "name": "tokenId",
          "type": "uint256"
        },
        {
          "internalType": "uint256[]",
          "name": "amounts",
          "type": "uint256[]"
        },
        {
          "internalType": "address",
          "name": "to",
          "type": "address"
        }
      ],
      "name": "_decreaseCollateral",
      "outputs": [
        {
          "internalType": "uint256[]",
          "name": "tokensHeld",
          "type": "uint256[]"
        }
      ],
      "stateMutability": "nonpayable",
      "type": "function"
    },
    {
      "inputs": [
        {
          "internalType": "uint256",
          "name": "tokenId",
          "type": "uint256"
        }
      ],
      "name": "_increaseCollateral",
      "outputs": [
        {
          "internalType": "uint256[]",
          "name": "",
          "type": "uint256[]"
        }
      ],
      "stateMutability": "nonpayable",
      "type": "function"
    },
    {
      "inputs": [
        {
          "internalType": "uint256",
          "name": "tokenId",
          "type": "uint256"
        },
        {
          "internalType": "int256[]",
          "name": "deltas",
          "type": "int256[]"
        }
      ],
      "name": "_rebalanceCollateral",
      "outputs": [
        {
          "internalType": "uint256[]",
          "name": "tokensHeld",
          "type": "uint256[]"
        }
      ],
      "stateMutability": "nonpayable",
      "type": "function"
    },
    {
      "inputs": [
        {
          "internalType": "uint256",
          "name": "tokenId",
          "type": "uint256"
        },
        {
          "internalType": "uint256",
          "name": "liquidity",
          "type": "uint256"
        }
      ],
      "name": "_rebalanceCollateralWithLiquidity",
      "outputs": [
        {
          "internalType": "uint256[]",
          "name": "tokensHeld",
          "type": "uint256[]"
        }
      ],
      "stateMutability": "nonpayable",
      "type": "function"
    },
    {
      "inputs": [
        {
          "internalType": "uint256",
          "name": "tokenId",
          "type": "uint256"
        },
        {
          "internalType": "uint256",
          "name": "liquidity",
          "type": "uint256"
        }
      ],
      "name": "_repayLiquidity",
      "outputs": [
        {
          "internalType": "uint256",
          "name": "liquidityPaid",
          "type": "uint256"
        },
        {
          "internalType": "uint256",
          "name": "lpTokensPaid",
          "type": "uint256"
        },
        {
          "internalType": "uint256[]",
          "name": "amounts",
          "type": "uint256[]"
        }
      ],
      "stateMutability": "nonpayable",
      "type": "function"
    },
    {
      "inputs": [],
      "name": "baseRate",
      "outputs": [
        {
          "internalType": "uint256",
          "name": "",
          "type": "uint256"
        }
      ],
      "stateMutability": "view",
      "type": "function"
    },
    {
      "inputs": [],
      "name": "factory",
      "outputs": [
        {
          "internalType": "address",
          "name": "",
          "type": "address"
        }
      ],
      "stateMutability": "view",
      "type": "function"
    },
    {
      "inputs": [],
      "name": "initCodeHash",
      "outputs": [
        {
          "internalType": "bytes32",
          "name": "",
          "type": "bytes32"
        }
      ],
      "stateMutability": "view",
      "type": "function"
    },
    {
      "inputs": [],
      "name": "optimalUtilRate",
      "outputs": [
        {
          "internalType": "uint256",
          "name": "",
          "type": "uint256"
        }
      ],
      "stateMutability": "view",
      "type": "function"
    },
    {
      "inputs": [],
      "name": "slope1",
      "outputs": [
        {
          "internalType": "uint256",
          "name": "",
          "type": "uint256"
        }
      ],
      "stateMutability": "view",
      "type": "function"
    },
    {
      "inputs": [],
      "name": "slope2",
      "outputs": [
        {
          "internalType": "uint256",
          "name": "",
          "type": "uint256"
        }
      ],
      "stateMutability": "view",
      "type": "function"
    },
    {
      "inputs": [],
      "name": "tradingFee1",
      "outputs": [
        {
          "internalType": "uint16",
          "name": "",
          "type": "uint16"
        }
      ],
      "stateMutability": "view",
      "type": "function"
    },
    {
      "inputs": [],
      "name": "tradingFee2",
      "outputs": [
        {
          "internalType": "uint16",
          "name": "",
          "type": "uint16"
        }
      ],
      "stateMutability": "view",
      "type": "function"
    }
  ],
  "bytecode": "0x60806040523480156200001157600080fd5b50604051620053de380380620053de833981810160405281019062000037919062000534565b8181600082806020019051810190620000519190620005d3565b90506200007c8160000151826020015183604001518460600151620000cb60201b62000c161760201c565b600082806020019051810190620000949190620005a7565b9050620000bf8160400151826060015183608001518460a00151620001e860201b62000d281760201c565b50505050505062000871565b6000620000dd6200029f60201b60201c565b9050600015158160020160049054906101000a900460ff161515146200013a576040517f08c379a0000000000000000000000000000000000000000000000000000000008152600401620001319062000626565b60405180910390fd5b60018160020160046101000a81548160ff021916908315150217905550848160000160006101000a81548173ffffffffffffffffffffffffffffffffffffffff021916908373ffffffffffffffffffffffffffffffffffffffff160217905550838160010181905550828160020160006101000a81548161ffff021916908361ffff160217905550818160020160026101000a81548161ffff021916908361ffff1602179055505050505050565b6000620001fa620002cc60201b60201c565b9050600015158160060160009054906101000a900460ff1615151462000257576040517f08c379a00000000000000000000000000000000000000000000000000000000081526004016200024e9062000626565b60405180910390fd5b670de0b6b3a7640000816000018190555062225f1b81600101819055508481600201819055508381600301819055508281600401819055508181600401819055505050505050565b6000807f1824a6532b5d85d82567e9f940dc3b06cad7da947e0716640ca7178dbfe30d6790508091505090565b6000807f1f5edbb2e428ca6eb959239e349ecf9840113efe584c1ea9dd664eb95b39c10b90508091505090565b6000620003106200030a8462000671565b62000648565b9050828152602081018484840111156200032957600080fd5b620003368482856200071a565b509392505050565b6000815190506200034f81620007ef565b92915050565b600081519050620003668162000809565b92915050565b6000815190506200037d8162000823565b92915050565b600082601f8301126200039557600080fd5b8151620003a7848260208601620002f9565b91505092915050565b600060e08284031215620003c357600080fd5b620003cf60e062000648565b90506000620003e1848285016200051d565b6000830152506020620003f7848285016200051d565b60208301525060406200040d848285016200051d565b604083015250606062000423848285016200051d565b606083015250608062000439848285016200051d565b60808301525060a06200044f848285016200051d565b60a08301525060c0620004658482850162000355565b60c08301525092915050565b600060a082840312156200048457600080fd5b6200049060a062000648565b90506000620004a2848285016200033e565b6000830152506020620004b8848285016200036c565b6020830152506040620004ce8482850162000506565b6040830152506060620004e48482850162000506565b6060830152506080620004fa8482850162000355565b60808301525092915050565b60008151905062000517816200083d565b92915050565b6000815190506200052e8162000857565b92915050565b600080604083850312156200054857600080fd5b600083015167ffffffffffffffff8111156200056357600080fd5b620005718582860162000383565b925050602083015167ffffffffffffffff8111156200058f57600080fd5b6200059d8582860162000383565b9150509250929050565b600060e08284031215620005ba57600080fd5b6000620005ca84828501620003b0565b91505092915050565b600060a08284031215620005e657600080fd5b6000620005f68482850162000471565b91505092915050565b60006200060e600383620006a7565b91506200061b82620007c6565b602082019050919050565b600060208201905081810360008301526200064181620005ff565b9050919050565b60006200065462000667565b905062000662828262000750565b919050565b6000604051905090565b600067ffffffffffffffff8211156200068f576200068e62000786565b5b6200069a82620007b5565b9050602081019050919050565b600082825260208201905092915050565b6000620006c582620006f0565b9050919050565b60008115159050919050565b6000819050919050565b600061ffff82169050919050565b600073ffffffffffffffffffffffffffffffffffffffff82169050919050565b6000819050919050565b60005b838110156200073a5780820151818401526020810190506200071d565b838111156200074a576000848401525b50505050565b6200075b82620007b5565b810181811067ffffffffffffffff821117156200077d576200077c62000786565b5b80604052505050565b7f4e487b7100000000000000000000000000000000000000000000000000000000600052604160045260246000fd5b6000601f19601f8301169050919050565b7f5345540000000000000000000000000000000000000000000000000000000000600082015250565b620007fa81620006b8565b81146200080657600080fd5b50565b6200081481620006cc565b81146200082057600080fd5b50565b6200082e81620006d8565b81146200083a57600080fd5b50565b6200084881620006e2565b81146200085457600080fd5b50565b620008628162000710565b81146200086e57600080fd5b50565b614b5d80620008816000396000f3fe608060405234801561001057600080fd5b50600436106100ea5760003560e01c8063a4fa646f1161008c578063b35dceab11610066578063b35dceab14610277578063c45a0155146102a7578063d0134cb7146102c5578063db4c545e146102e3576100ea565b8063a4fa646f146101f9578063a62b75a814610229578063ab790c7814610247576100ea565b806349ae2075116100c857806349ae20751461016f5780634d0e849c1461018d5780636fb7ee52146101ab5780639fdaeacd146101db576100ea565b80630d5cf12b146100ef5780631f68f20a1461011f57806337d1b3d61461013d575b600080fd5b61010960048036038101906101049190613de0565b610301565b604051610116919061426b565b60405180910390f35b610127610780565b6040516101349190614483565b60405180910390f35b61015760048036038101906101529190613e4c565b610793565b604051610166939291906144ea565b60405180910390f35b610177610864565b6040516101849190614483565b60405180910390f35b610195610877565b6040516101a29190614468565b60405180910390f35b6101c560048036038101906101c09190613e4c565b610898565b6040516101d2919061426b565b60405180910390f35b6101e361090b565b6040516101f09190614468565b60405180910390f35b610213600480360381019061020e9190613e4c565b61092c565b604051610220919061426b565b60405180910390f35b610231610aa3565b60405161023e9190614483565b60405180910390f35b610261600480360381019061025c9190613d88565b610ab6565b60405161026e919061426b565b60405180910390f35b610291600480360381019061028c9190613d36565b610b2b565b60405161029e919061426b565b60405180910390f35b6102af610bbd565b6040516102bc91906141f0565b60405180910390f35b6102cd610bf0565b6040516102da9190614483565b60405180910390f35b6102eb610c03565b6040516102f8919061428d565b60405180910390f35b606061030b610dd4565b6000610315610e34565b905060006103238288610e61565b905060005b826001018054905081101561067757868682818110610370577f4e487b7100000000000000000000000000000000000000000000000000000000600052603260045260246000fd5b905060200201358260020182815481106103b3577f4e487b7100000000000000000000000000000000000000000000000000000000600052603260045260246000fd5b9060005260206000200154116103fe576040517f08c379a00000000000000000000000000000000000000000000000000000000081526004016103f5906143e8565b60405180910390fd5b6104ae83600101828154811061043d577f4e487b7100000000000000000000000000000000000000000000000000000000600052603260045260246000fd5b9060005260206000200160009054906101000a900473ffffffffffffffffffffffffffffffffffffffff16868989858181106104a2577f4e487b7100000000000000000000000000000000000000000000000000000000600052603260045260246000fd5b90506020020135610f3a565b8686828181106104e7577f4e487b7100000000000000000000000000000000000000000000000000000000600052603260045260246000fd5b9050602002013582600201828154811061052a577f4e487b7100000000000000000000000000000000000000000000000000000000600052603260045260246000fd5b906000526020600020015461053f919061467a565b82600201828154811061057b577f4e487b7100000000000000000000000000000000000000000000000000000000600052603260045260246000fd5b90600052602060002001819055508686828181106105c2577f4e487b7100000000000000000000000000000000000000000000000000000000600052603260045260246000fd5b90506020020135836006018281548110610605577f4e487b7100000000000000000000000000000000000000000000000000000000600052603260045260246000fd5b906000526020600020015461061a919061467a565b836006018281548110610656577f4e487b7100000000000000000000000000000000000000000000000000000000600052603260045260246000fd5b9060005260206000200181905550808061066f90614775565b915050610328565b5061068282826110c4565b806002018054806020026020016040519081016040528092919081815260200182805480156106d057602002820191906000526020600020905b8154815260200190600101908083116106bc575b505050505092506107058260030160009054906101000a900473ffffffffffffffffffffffffffffffffffffffff1684611109565b8160030181905550610719816103206111a9565b8060020180548060200260200160405190810160405280929190818152602001828054801561076757602002820191906000526020600020905b815481526020019060010190808311610753575b505050505092505050610778611215565b949350505050565b600061078a611228565b60020154905090565b60008060606107a0610dd4565b60006107aa610e34565b905060006107b88288610e61565b90506107c482826110c4565b6107d2828783600201611255565b8260020160008296508391905090805190602001906107f2929190613af1565b5050506108248260030160009054906101000a900473ffffffffffffffffffffffffffffffffffffffff168430611871565b9350816014015482601301548561083b9190614620565b61084591906145ef565b945061085382828787611907565b505061085d611215565b9250925092565b600061086e611228565b60030154905090565b60006108816119c3565b60020160009054906101000a900461ffff16905090565b60606108a2610dd4565b60006108ac610e34565b905060006108ba8286610e61565b90506108c682826110c4565b6108d48285836002016119f0565b92506108e2816103526111a9565b828160020190805190602001906108fa929190613af1565b505050610905611215565b92915050565b60006109156119c3565b60020160029054906101000a900461ffff16905090565b6060610936610dd4565b6000610940610e34565b905080600701548310610988576040517f08c379a000000000000000000000000000000000000000000000000000000000815260040161097f906143c8565b60405180910390fd5b60006109948286610e61565b90506109a082826110c4565b6109cf8260030160009054906101000a900473ffffffffffffffffffffffffffffffffffffffff1630866122a7565b92506109db8282612443565b610a148282610a0e8560030160009054906101000a900473ffffffffffffffffffffffffffffffffffffffff1687611109565b876126fd565b610a428260030160009054906101000a900473ffffffffffffffffffffffffffffffffffffffff163061277b565b826007015414610a87576040517f08c379a0000000000000000000000000000000000000000000000000000000008152600401610a7e90614388565b60405180910390fd5b610a93816103206111a9565b5050610a9d611215565b92915050565b6000610aad611228565b60040154905090565b6060610ac0610dd4565b6000610aca610e34565b90506000610ad88287610e61565b9050610ae482826110c4565b610af3828686846002016128ca565b9250610b01816103526111a9565b82816002019080519060200190610b19929190613af1565b505050610b24611215565b9392505050565b6060610b35610dd4565b6000610b3f610e34565b90506000610b4d8285610e61565b9050610b598282612443565b80600201805480602002602001604051908101604052809291908181526020018280548015610ba757602002820191906000526020600020905b815481526020019060010190808311610b93575b505050505092505050610bb8611215565b919050565b6000610bc76119c3565b60000160009054906101000a900473ffffffffffffffffffffffffffffffffffffffff16905090565b6000610bfa611228565b60050154905090565b6000610c0d6119c3565b60010154905090565b6000610c206119c3565b9050600015158160020160049054906101000a900460ff16151514610c7a576040517f08c379a0000000000000000000000000000000000000000000000000000000008152600401610c7190614308565b60405180910390fd5b60018160020160046101000a81548160ff021916908315150217905550848160000160006101000a81548173ffffffffffffffffffffffffffffffffffffffff021916908373ffffffffffffffffffffffffffffffffffffffff160217905550838160010181905550828160020160006101000a81548161ffff021916908361ffff160217905550818160020160026101000a81548161ffff021916908361ffff1602179055505050505050565b6000610d32611228565b9050600015158160060160009054906101000a900460ff16151514610d8c576040517f08c379a0000000000000000000000000000000000000000000000000000000008152600401610d8390614308565b60405180910390fd5b670de0b6b3a7640000816000018190555062225f1b81600101819055508481600201819055508381600301819055508281600401819055508181600401819055505050505050565b6000610dde610e34565b9050600181601b015414610e27576040517f08c379a0000000000000000000000000000000000000000000000000000000008152600401610e1e90614428565b60405180910390fd5b600081601b018190555050565b6000807f58a86ce9af3c88d86c606c50ca486aaedb655aee7dec73f917ade295c9fef44390508091505090565b600082601801600083815260200190815260200160002090506000816000015411610ec1576040517f08c379a0000000000000000000000000000000000000000000000000000000008152600401610eb8906142c8565b60405180910390fd5b33308260000154604051602001610eda9392919061420b565b6040516020818303038152906040528051906020012060001c8214610f34576040517f08c379a0000000000000000000000000000000000000000000000000000000008152600401610f2b90614328565b60405180910390fd5b92915050565b6000808473ffffffffffffffffffffffffffffffffffffffff166040518060400160405280601981526020017f7472616e7366657228616464726573732c75696e743235362900000000000000815250805190602001208585604051602401610fa4929190614242565b604051602081830303815290604052907bffffffffffffffffffffffffffffffffffffffffffffffffffffffff19166020820180517bffffffffffffffffffffffffffffffffffffffffffffffffffffffff838183161783525050505060405161100e91906141d9565b6000604051808303816000865af19150503d806000811461104b576040519150601f19603f3d011682016040523d82523d6000602084013e611050565b606091505b509150915081801561107e575060008151148061107d57508080602001905181019061107c9190613cbe565b5b5b6110bd576040517f08c379a00000000000000000000000000000000000000000000000000000000081526004016110b4906142a8565b60405180910390fd5b5050505050565b6110cd82612da6565b8060060154826010015482600401546110e69190614620565b6110f091906145ef565b8160040181905550816010015481600601819055505050565b60006111a182600181518110611148577f4e487b7100000000000000000000000000000000000000000000000000000000600052603260045260246000fd5b60200260200101518360008151811061118a577f4e487b7100000000000000000000000000000000000000000000000000000000600052603260045260246000fd5b602002602001015161119c9190614620565b6131e0565b905092915050565b81600401546103e88262ffffff1684600301546111c69190614620565b6111d091906145ef565b1015611211576040517f08c379a000000000000000000000000000000000000000000000000000000000815260040161120890614448565b60405180910390fd5b5050565b600161121f610e34565b601b0181905550565b6000807f1f5edbb2e428ca6eb959239e349ecf9840113efe584c1ea9dd664eb95b39c10b90508091505090565b606080600267ffffffffffffffff811115611299577f4e487b7100000000000000000000000000000000000000000000000000000000600052604160045260246000fd5b6040519080825280602002602001820160405280156112c75781602001602082028036833780820191505090505b5090506112d4858561325a565b8260008151811061130e577f4e487b7100000000000000000000000000000000000000000000000000000000600052603260045260246000fd5b602002602001018360018151811061134f577f4e487b7100000000000000000000000000000000000000000000000000000000600052603260045260246000fd5b60200260200101828152508281525050508060008151811061139a577f4e487b7100000000000000000000000000000000000000000000000000000000600052603260045260246000fd5b6020026020010151836000815481106113dc577f4e487b7100000000000000000000000000000000000000000000000000000000600052603260045260246000fd5b90600052602060002001541015801561147a57508060018151811061142a577f4e487b7100000000000000000000000000000000000000000000000000000000600052603260045260246000fd5b60200260200101518360018154811061146c577f4e487b7100000000000000000000000000000000000000000000000000000000600052603260045260246000fd5b906000526020600020015410155b6114b9576040517f08c379a00000000000000000000000000000000000000000000000000000000081526004016114b090614408565b60405180910390fd5b60008560030160009054906101000a900473ffffffffffffffffffffffffffffffffffffffff16905061159586600101600081548110611522577f4e487b7100000000000000000000000000000000000000000000000000000000600052603260045260246000fd5b9060005260206000200160009054906101000a900473ffffffffffffffffffffffffffffffffffffffff168284600081518110611588577f4e487b7100000000000000000000000000000000000000000000000000000000600052603260045260246000fd5b6020026020010151610f3a565b611648866001016001815481106115d5577f4e487b7100000000000000000000000000000000000000000000000000000000600052603260045260246000fd5b9060005260206000200160009054906101000a900473ffffffffffffffffffffffffffffffffffffffff16828460018151811061163b577f4e487b7100000000000000000000000000000000000000000000000000000000600052603260045260246000fd5b6020026020010151610f3a565b600267ffffffffffffffff811115611689577f4e487b7100000000000000000000000000000000000000000000000000000000600052604160045260246000fd5b6040519080825280602002602001820160405280156116b75781602001602082028036833780820191505090505b509250816000815181106116f4577f4e487b7100000000000000000000000000000000000000000000000000000000600052603260045260246000fd5b602002602001015184600081548110611736577f4e487b7100000000000000000000000000000000000000000000000000000000600052603260045260246000fd5b906000526020600020015461174b919061467a565b83600081518110611785577f4e487b7100000000000000000000000000000000000000000000000000000000600052603260045260246000fd5b602002602001018181525050816001815181106117cb577f4e487b7100000000000000000000000000000000000000000000000000000000600052603260045260246000fd5b60200260200101518460018154811061180d577f4e487b7100000000000000000000000000000000000000000000000000000000600052603260045260246000fd5b9060005260206000200154611822919061467a565b8360018151811061185c577f4e487b7100000000000000000000000000000000000000000000000000000000600052603260045260246000fd5b60200260200101818152505050935093915050565b60008373ffffffffffffffffffffffffffffffffffffffff16636a627842836040518263ffffffff1660e01b81526004016118ac91906141f0565b602060405180830381600087803b1580156118c657600080fd5b505af11580156118da573d6000803e3d6000fd5b505050506040513d601f19601f820116820180604052508101906118fe9190613d5f565b90509392505050565b6000836004015484600501548461191e9190614620565b61192891906145ef565b9050836004015483106119445783600401549250836005015490505b8285600b0154611954919061467a565b85600b018190555080856008015461196c919061467a565b85600801819055508185600701546119849190614599565b856007018190555082846004015461199c919061467a565b84600401819055508084600501546119b4919061467a565b84600501819055505050505050565b6000807f1824a6532b5d85d82567e9f940dc3b06cad7da947e0716640ca7178dbfe30d6790508091505090565b60606000806119ff868661325a565b915091506000866016015490506000806000600267ffffffffffffffff811115611a52577f4e487b7100000000000000000000000000000000000000000000000000000000600052604160045260246000fd5b604051908082528060200260200182016040528015611a805781602001602082028036833780820191505090505b5090506000808b600e01600081548110611ac3577f4e487b7100000000000000000000000000000000000000000000000000000000600052603260045260246000fd5b9060005260206000200154905060008c600e01600181548110611b0f577f4e487b7100000000000000000000000000000000000000000000000000000000600052603260045260246000fd5b906000526020600020015490506000828883611b2b9190614620565b611b3591906145ef565b905060008c600081548110611b73577f4e487b7100000000000000000000000000000000000000000000000000000000600052603260045260246000fd5b9060005260206000200154898e600181548110611bb9577f4e487b7100000000000000000000000000000000000000000000000000000000600052603260045260246000fd5b9060005260206000200154611bce9190614620565b611bd891906145ef565b905080821115611c2657611bf68982611bf19190614620565b6131e0565b611c0a8a84611c059190614620565b6131e0565b611c14919061467a565b8e611c1f9190614620565b9650611ca0565b80821015611c9f57611c428983611c3d9190614620565b6131e0565b611c6c8a838c86611c539190614620565b611c5d91906145ef565b611c679190614620565b6131e0565b8a611c77919061467a565b8f611c829190614620565b611c8c91906145ef565b9650828460018097508195508296505050505b5b611cab87858561332e565b868660ff1681518110611ce7577f4e487b7100000000000000000000000000000000000000000000000000000000600052603260045260246000fd5b6020026020010181815250505050505060018160ff161415611d185782848789809950819a50829650839750505050505b86898260ff1681548110611d55577f4e487b7100000000000000000000000000000000000000000000000000000000600052603260045260246000fd5b9060005260206000200154611d6a919061467a565b828260ff1681518110611da6577f4e487b7100000000000000000000000000000000000000000000000000000000600052603260045260246000fd5b60200260200101511115611def576040517f08c379a0000000000000000000000000000000000000000000000000000000008152600401611de6906143a8565b60405180910390fd5b60008b60030160009054906101000a900473ffffffffffffffffffffffffffffffffffffffff169050600267ffffffffffffffff811115611e59577f4e487b7100000000000000000000000000000000000000000000000000000000600052604160045260246000fd5b604051908082528060200260200182016040528015611e875781602001602082028036833780820191505090505b50985082600081518110611ec4577f4e487b7100000000000000000000000000000000000000000000000000000000600052603260045260246000fd5b6020026020010151858b600081548110611f07577f4e487b7100000000000000000000000000000000000000000000000000000000600052603260045260246000fd5b9060005260206000200154611f1c9190614599565b611f26919061467a565b89600081518110611f60577f4e487b7100000000000000000000000000000000000000000000000000000000600052603260045260246000fd5b60200260200101818152505082600181518110611fa6577f4e487b7100000000000000000000000000000000000000000000000000000000600052603260045260246000fd5b6020026020010151848b600181548110611fe9577f4e487b7100000000000000000000000000000000000000000000000000000000600052603260045260246000fd5b9060005260206000200154611ffe9190614599565b612008919061467a565b89600181518110612042577f4e487b7100000000000000000000000000000000000000000000000000000000600052603260045260246000fd5b6020026020010181815250506121018c60010160008154811061208e577f4e487b7100000000000000000000000000000000000000000000000000000000600052603260045260246000fd5b9060005260206000200160009054906101000a900473ffffffffffffffffffffffffffffffffffffffff1682856000815181106120f4577f4e487b7100000000000000000000000000000000000000000000000000000000600052603260045260246000fd5b602002602001015161340a565b6121b48c600101600181548110612141577f4e487b7100000000000000000000000000000000000000000000000000000000600052603260045260246000fd5b9060005260206000200160009054906101000a900473ffffffffffffffffffffffffffffffffffffffff1682856001815181106121a7577f4e487b7100000000000000000000000000000000000000000000000000000000600052603260045260246000fd5b602002602001015161340a565b8073ffffffffffffffffffffffffffffffffffffffff1663022c0d9f868630600067ffffffffffffffff811115612214577f4e487b7100000000000000000000000000000000000000000000000000000000600052604160045260246000fd5b6040519080825280601f01601f1916602001820160405280156122465781602001600182028036833780820191505090505b506040518563ffffffff1660e01b8152600401612266949392919061449e565b600060405180830381600087803b15801561228057600080fd5b505af1158015612294573d6000803e3d6000fd5b5050505050505050505050509392505050565b60606122b4848584610f3a565b600267ffffffffffffffff8111156122f5577f4e487b7100000000000000000000000000000000000000000000000000000000600052604160045260246000fd5b6040519080825280602002602001820160405280156123235781602001602082028036833780820191505090505b5090508373ffffffffffffffffffffffffffffffffffffffff166389afcb44846040518263ffffffff1660e01b815260040161235f91906141f0565b6040805180830381600087803b15801561237857600080fd5b505af115801561238c573d6000803e3d6000fd5b505050506040513d601f19601f820116820180604052508101906123b09190613e88565b826000815181106123ea577f4e487b7100000000000000000000000000000000000000000000000000000000600052603260045260246000fd5b602002602001018360018151811061242b577f4e487b7100000000000000000000000000000000000000000000000000000000600052603260045260246000fd5b60200260200101828152508281525050509392505050565b60005b8260010180549050811015612670576000836006018281548110612493577f4e487b7100000000000000000000000000000000000000000000000000000000600052603260045260246000fd5b906000526020600020015461250e8560010184815481106124dd577f4e487b7100000000000000000000000000000000000000000000000000000000600052603260045260246000fd5b9060005260206000200160009054906101000a900473ffffffffffffffffffffffffffffffffffffffff163061277b565b612518919061467a565b9050600081111561265c5780836002018381548110612560577f4e487b7100000000000000000000000000000000000000000000000000000000600052603260045260246000fd5b90600052602060002001546125759190614599565b8360020183815481106125b1577f4e487b7100000000000000000000000000000000000000000000000000000000600052603260045260246000fd5b9060005260206000200181905550808460060183815481106125fc577f4e487b7100000000000000000000000000000000000000000000000000000000600052603260045260246000fd5b90600052602060002001546126119190614599565b84600601838154811061264d577f4e487b7100000000000000000000000000000000000000000000000000000000600052603260045260246000fd5b90600052602060002001819055505b50808061266890614775565b915050612446565b506126f18260030160009054906101000a900473ffffffffffffffffffffffffffffffffffffffff16826002018054806020026020016040519081016040528092919081815260200182805480156126e757602002820191906000526020600020905b8154815260200190600101908083116126d3575b5050505050611109565b81600301819055505050565b8184600b015461270d9190614599565b84600b01819055508084600801546127259190614599565b846008018190555080846007015461273d919061467a565b84600701819055508183600401546127559190614599565b836004018190555080836005015461276d9190614599565b836005018190555050505050565b60008060008473ffffffffffffffffffffffffffffffffffffffff166040518060400160405280601281526020017f62616c616e63654f66286164647265737329000000000000000000000000000081525080519060200120856040516024016127e591906141f0565b604051602081830303815290604052907bffffffffffffffffffffffffffffffffffffffffffffffffffffffff19166020820180517bffffffffffffffffffffffffffffffffffffffffffffffffffffffff838183161783525050505060405161284f91906141d9565b600060405180830381855afa9150503d806000811461288a576040519150601f19603f3d011682016040523d82523d6000602084013e61288f565b606091505b50915091508180156128a357506020815110155b6128ac57600080fd5b808060200190518101906128c09190613d5f565b9250505092915050565b60606000806000806129ec89600e01600081548110612912577f4e487b7100000000000000000000000000000000000000000000000000000000600052603260045260246000fd5b90600052602060002001548a600e0160018154811061295a577f4e487b7100000000000000000000000000000000000000000000000000000000600052603260045260246000fd5b90600052602060002001548a8a600081811061299f577f4e487b7100000000000000000000000000000000000000000000000000000000600052603260045260246000fd5b905060200201358b8b60018181106129e0577f4e487b7100000000000000000000000000000000000000000000000000000000600052603260045260246000fd5b90506020020135613424565b9350935093509350600267ffffffffffffffff811115612a35577f4e487b7100000000000000000000000000000000000000000000000000000000600052604160045260246000fd5b604051908082528060200260200182016040528015612a635781602001602082028036833780820191505090505b509450818487600081548110612aa2577f4e487b7100000000000000000000000000000000000000000000000000000000600052603260045260246000fd5b9060005260206000200154612ab79190614599565b612ac1919061467a565b85600081518110612afb577f4e487b7100000000000000000000000000000000000000000000000000000000600052603260045260246000fd5b602002602001018181525050808387600181548110612b43577f4e487b7100000000000000000000000000000000000000000000000000000000600052603260045260246000fd5b9060005260206000200154612b589190614599565b612b62919061467a565b85600181518110612b9c577f4e487b7100000000000000000000000000000000000000000000000000000000600052603260045260246000fd5b60200260200101818152505060008960030160009054906101000a900473ffffffffffffffffffffffffffffffffffffffff169050612c438a600101600081548110612c11577f4e487b7100000000000000000000000000000000000000000000000000000000600052603260045260246000fd5b9060005260206000200160009054906101000a900473ffffffffffffffffffffffffffffffffffffffff16828561340a565b612cb58a600101600181548110612c83577f4e487b7100000000000000000000000000000000000000000000000000000000600052603260045260246000fd5b9060005260206000200160009054906101000a900473ffffffffffffffffffffffffffffffffffffffff16828461340a565b8073ffffffffffffffffffffffffffffffffffffffff1663022c0d9f868630600067ffffffffffffffff811115612d15577f4e487b7100000000000000000000000000000000000000000000000000000000600052604160045260246000fd5b6040519080825280601f01601f191660200182016040528015612d475781602001600182028036833780820191505090505b506040518563ffffffff1660e01b8152600401612d67949392919061449e565b600060405180830381600087803b158015612d8157600080fd5b505af1158015612d95573d6000803e3d6000fd5b505050505050505050949350505050565b600081601601549050612dc18260070154836008015461355c565b82600f0181905550612dd28261364d565b6000612e548360030160009054906101000a900473ffffffffffffffffffffffffffffffffffffffff1684600e01805480602002602001604051908101604052809291908181526020018280548015612e4a57602002820191906000526020600020905b815481526020019060010190808311612e36575b5050505050611109565b90506000612e858460030160009054906101000a900473ffffffffffffffffffffffffffffffffffffffff166137b7565b90506000811115612ed857600083828660130154612ea39190614620565b612ead91906145ef565b905080856014015484612ec09190614620565b612eca91906145ef565b856012018190555050612ee2565b8284601201819055505b81846013018190555080846014018190555050506000826015015443612f08919061467a565b9050600062225f1b84600f015483612f209190614620565b612f2a91906145ef565b9050808460120154612f3c9190614599565b8460110181905550505080826011015483600b0154612f5b9190614620565b612f6591906145ef565b82600b01819055508160130154826014015483600b0154612f869190614620565b612f9091906145ef565b8260090181905550816014015482601301548360070154612fb19190614620565b612fbb91906145ef565b82600c018190555081600901548260070154612fd79190614599565b82600a018190555081600b015482600c0154612ff39190614599565b82600d018190555080826011015483601001546130109190614620565b61301a91906145ef565b8260100181905550438260150181905550600082600b015411156131dc576000808360000160009054906101000a900473ffffffffffffffffffffffffffffffffffffffff1673ffffffffffffffffffffffffffffffffffffffff1663995b5aae6040518163ffffffff1660e01b8152600401604080518083038186803b1580156130a457600080fd5b505afa1580156130b8573d6000803e3d6000fd5b505050506040513d601f19601f820116820180604052508101906130dc9190613c82565b91509150600073ffffffffffffffffffffffffffffffffffffffff168273ffffffffffffffffffffffffffffffffffffffff161415801561311d5750600081115b156131d957600084601401548560130154866007015461313d9190614620565b61314791906145ef565b90506000856011015483868860110154613161919061467a565b61316b9190614620565b61317591906145ef565b905060008287600b01546131899190614599565b87600b0154836131999190614620565b6131a391906145ef565b90506131d5878683896131b6919061467a565b848b601f01546131c69190614620565b6131d091906145ef565b6138fa565b5050505b50505b5050565b6000600382111561324757819050600060016002846131ff91906145ef565b6132099190614599565b90505b8181101561324157809150600281828561322691906145ef565b6132309190614599565b61323a91906145ef565b905061320c565b50613255565b6000821461325457600190505b5b919050565b6000806000846014015490508085600e016000815481106132a4577f4e487b7100000000000000000000000000000000000000000000000000000000600052603260045260246000fd5b9060005260206000200154856132ba9190614620565b6132c491906145ef565b92508085600e01600181548110613304577f4e487b7100000000000000000000000000000000000000000000000000000000600052603260045260246000fd5b90600052602060002001548561331a9190614620565b61332491906145ef565b9150509250929050565b6000808311801561333f5750600082115b61337e576040517f08c379a000000000000000000000000000000000000000000000000000000000815260040161337590614348565b60405180910390fd5b60006133886119c3565b905060008160020160029054906101000a900461ffff1661ffff1686856133af919061467a565b6133b99190614620565b90506001818360020160009054906101000a900461ffff1661ffff1688886133e19190614620565b6133eb9190614620565b6133f591906145ef565b6133ff9190614599565b925050509392505050565b600081111561341f5761341e838383610f3a565b5b505050565b6000806000806000861415801561343b5750600085145b806134535750600086148015613452575060008514155b5b613492576040517f08c379a000000000000000000000000000000000000000000000000000000000815260040161348990614368565b60405180910390fd5b60008613806134a15750600085135b156134f05784935060008613156134c257858789809950819a508296505050505b6134cd84898961332e565b91508584146134eb5783838284809450819550829750839650505050505b613551565b856134fa906147be565b9150600085121561351e578461350f906147be565b8789809950819a508294505050505b613529828989613a1b565b925085613535906147be565b82146135505782848284809450819550829650839750505050505b5b945094509450949050565b600080613567611228565b9050600083856135779190614599565b8260000154856135879190614620565b61359191906145ef565b9050816003015481116135db57600082600301548360040154836135b59190614620565b6135bf91906145ef565b90508083600201546135d19190614599565b9350505050613647565b60008260030154826135ed919061467a565b9050600083600301548460000154613605919061467a565b8460050154836136159190614620565b61361f91906145ef565b905080846004015485600201546136369190614599565b6136409190614599565b9450505050505b92915050565b8060030160009054906101000a900473ffffffffffffffffffffffffffffffffffffffff1673ffffffffffffffffffffffffffffffffffffffff16630902f1ac6040518163ffffffff1660e01b815260040160606040518083038186803b1580156136b757600080fd5b505afa1580156136cb573d6000803e3d6000fd5b505050506040513d601f19601f820116820180604052508101906136ef9190613ce7565b826dffffffffffffffffffffffffffff169250816dffffffffffffffffffffffffffff1691505082600e01600081548110613753577f4e487b7100000000000000000000000000000000000000000000000000000000600052603260045260246000fd5b90600052602060002001600084600e0160018154811061379c577f4e487b7100000000000000000000000000000000000000000000000000000000600052603260045260246000fd5b90600052602060002001600084919050558391905055505050565b60008060008373ffffffffffffffffffffffffffffffffffffffff166040518060400160405280600d81526020017f746f74616c537570706c7928290000000000000000000000000000000000000081525080519060200120604051602401604051602081830303815290604052907bffffffffffffffffffffffffffffffffffffffffffffffffffffffff19166020820180517bffffffffffffffffffffffffffffffffffffffffffffffffffffffff838183161783525050505060405161388091906141d9565b600060405180830381855afa9150503d80600081146138bb576040519150601f19603f3d011682016040523d82523d6000602084013e6138c0565b606091505b50915091508180156138d457506020815110155b6138dd57600080fd5b808060200190518101906138f19190613d5f565b92505050919050565b6000811161393d576040517f08c379a0000000000000000000000000000000000000000000000000000000008152600401613934906142e8565b60405180910390fd5b8083601f0160008282546139519190614599565b92505081905550808360200160008473ffffffffffffffffffffffffffffffffffffffff1673ffffffffffffffffffffffffffffffffffffffff16815260200190815260200160002060008282546139a99190614599565b925050819055508173ffffffffffffffffffffffffffffffffffffffff16600073ffffffffffffffffffffffffffffffffffffffff167fddf252ad1be2c89b69c2b068fc378daa952ba7f163c4a11628f55a4df523b3ef83604051613a0e9190614483565b60405180910390a3505050565b60008083118015613a2c5750600082115b613a6b576040517f08c379a0000000000000000000000000000000000000000000000000000000008152600401613a6290614348565b60405180910390fd5b6000613a756119c3565b905060008160020160029054906101000a900461ffff1661ffff1686613a9b9190614620565b90506000818360020160009054906101000a900461ffff1661ffff1687613ac29190614620565b613acc9190614599565b9050808583613adb9190614620565b613ae591906145ef565b93505050509392505050565b828054828255906000526020600020908101928215613b2d579160200282015b82811115613b2c578251825591602001919060010190613b11565b5b509050613b3a9190613b3e565b5090565b5b80821115613b57576000816000905550600101613b3f565b5090565b600081359050613b6a81614ab4565b92915050565b600081519050613b7f81614ab4565b92915050565b60008083601f840112613b9757600080fd5b8235905067ffffffffffffffff811115613bb057600080fd5b602083019150836020820283011115613bc857600080fd5b9250929050565b60008083601f840112613be157600080fd5b8235905067ffffffffffffffff811115613bfa57600080fd5b602083019150836020820283011115613c1257600080fd5b9250929050565b600081519050613c2881614acb565b92915050565b600081519050613c3d81614ae2565b92915050565b600081359050613c5281614af9565b92915050565b600081519050613c6781614af9565b92915050565b600081519050613c7c81614b10565b92915050565b60008060408385031215613c9557600080fd5b6000613ca385828601613b70565b9250506020613cb485828601613c58565b9150509250929050565b600060208284031215613cd057600080fd5b6000613cde84828501613c19565b91505092915050565b600080600060608486031215613cfc57600080fd5b6000613d0a86828701613c2e565b9350506020613d1b86828701613c2e565b9250506040613d2c86828701613c6d565b9150509250925092565b600060208284031215613d4857600080fd5b6000613d5684828501613c43565b91505092915050565b600060208284031215613d7157600080fd5b6000613d7f84828501613c58565b91505092915050565b600080600060408486031215613d9d57600080fd5b6000613dab86828701613c43565b935050602084013567ffffffffffffffff811115613dc857600080fd5b613dd486828701613b85565b92509250509250925092565b60008060008060608587031215613df657600080fd5b6000613e0487828801613c43565b945050602085013567ffffffffffffffff811115613e2157600080fd5b613e2d87828801613bcf565b93509350506040613e4087828801613b5b565b91505092959194509250565b60008060408385031215613e5f57600080fd5b6000613e6d85828601613c43565b9250506020613e7e85828601613c43565b9150509250929050565b60008060408385031215613e9b57600080fd5b6000613ea985828601613c58565b9250506020613eba85828601613c58565b9150509250929050565b6000613ed083836141bb565b60208301905092915050565b613ee5816146ae565b82525050565b6000613ef682614538565b613f00818561455b565b9350613f0b83614528565b8060005b83811015613f3c578151613f238882613ec4565b9750613f2e8361454e565b925050600181019050613f0f565b5085935050505092915050565b613f52816146cc565b82525050565b6000613f6382614543565b613f6d818561456c565b9350613f7d818560208601614742565b613f8681614865565b840191505092915050565b6000613f9c82614543565b613fa6818561457d565b9350613fb6818560208601614742565b80840191505092915050565b6000613fcf600783614588565b9150613fda82614876565b602082019050919050565b6000613ff2600483614588565b9150613ffd8261489f565b602082019050919050565b6000614015600583614588565b9150614020826148c8565b602082019050919050565b6000614038600383614588565b9150614043826148f1565b602082019050919050565b600061405b600983614588565b91506140668261491a565b602082019050919050565b600061407e600983614588565b915061408982614943565b602082019050919050565b60006140a1600983614588565b91506140ac8261496c565b602082019050919050565b60006140c4600883614588565b91506140cf82614995565b602082019050919050565b60006140e7600883614588565b91506140f2826149be565b602082019050919050565b600061410a600583614588565b9150614115826149e7565b602082019050919050565b600061412d600583614588565b915061413882614a10565b602082019050919050565b6000614150600983614588565b915061415b82614a39565b602082019050919050565b6000614173600483614588565b915061417e82614a62565b602082019050919050565b6000614196600683614588565b91506141a182614a8b565b602082019050919050565b6141b5816146fa565b82525050565b6141c481614728565b82525050565b6141d381614728565b82525050565b60006141e58284613f91565b915081905092915050565b60006020820190506142056000830184613edc565b92915050565b60006060820190506142206000830186613edc565b61422d6020830185613edc565b61423a60408301846141ca565b949350505050565b60006040820190506142576000830185613edc565b61426460208301846141ca565b9392505050565b600060208201905081810360008301526142858184613eeb565b905092915050565b60006020820190506142a26000830184613f49565b92915050565b600060208201905081810360008301526142c181613fc2565b9050919050565b600060208201905081810360008301526142e181613fe5565b9050919050565b6000602082019050818103600083015261430181614008565b9050919050565b600060208201905081810360008301526143218161402b565b9050919050565b600060208201905081810360008301526143418161404e565b9050919050565b6000602082019050818103600083015261436181614071565b9050919050565b6000602082019050818103600083015261438181614094565b9050919050565b600060208201905081810360008301526143a1816140b7565b9050919050565b600060208201905081810360008301526143c1816140da565b9050919050565b600060208201905081810360008301526143e1816140fd565b9050919050565b6000602082019050818103600083015261440181614120565b9050919050565b6000602082019050818103600083015261442181614143565b9050919050565b6000602082019050818103600083015261444181614166565b9050919050565b6000602082019050818103600083015261446181614189565b9050919050565b600060208201905061447d60008301846141ac565b92915050565b600060208201905061449860008301846141ca565b92915050565b60006080820190506144b360008301876141ca565b6144c060208301866141ca565b6144cd6040830185613edc565b81810360608301526144df8184613f58565b905095945050505050565b60006060820190506144ff60008301866141ca565b61450c60208301856141ca565b818103604083015261451e8184613eeb565b9050949350505050565b6000819050602082019050919050565b600081519050919050565b600081519050919050565b6000602082019050919050565b600082825260208201905092915050565b600082825260208201905092915050565b600081905092915050565b600082825260208201905092915050565b60006145a482614728565b91506145af83614728565b9250827fffffffffffffffffffffffffffffffffffffffffffffffffffffffffffffffff038211156145e4576145e3614807565b5b828201905092915050565b60006145fa82614728565b915061460583614728565b92508261461557614614614836565b5b828204905092915050565b600061462b82614728565b915061463683614728565b9250817fffffffffffffffffffffffffffffffffffffffffffffffffffffffffffffffff048311821515161561466f5761466e614807565b5b828202905092915050565b600061468582614728565b915061469083614728565b9250828210156146a3576146a2614807565b5b828203905092915050565b60006146b982614708565b9050919050565b60008115159050919050565b6000819050919050565b6000819050919050565b60006dffffffffffffffffffffffffffff82169050919050565b600061ffff82169050919050565b600073ffffffffffffffffffffffffffffffffffffffff82169050919050565b6000819050919050565b600063ffffffff82169050919050565b60005b83811015614760578082015181840152602081019050614745565b8381111561476f576000848401525b50505050565b600061478082614728565b91507fffffffffffffffffffffffffffffffffffffffffffffffffffffffffffffffff8214156147b3576147b2614807565b5b600182019050919050565b60006147c9826146d6565b91507f80000000000000000000000000000000000000000000000000000000000000008214156147fc576147fb614807565b5b816000039050919050565b7f4e487b7100000000000000000000000000000000000000000000000000000000600052601160045260246000fd5b7f4e487b7100000000000000000000000000000000000000000000000000000000600052601260045260246000fd5b6000601f19601f8301169050919050565b7f53545f4641494c00000000000000000000000000000000000000000000000000600082015250565b7f3020696400000000000000000000000000000000000000000000000000000000600082015250565b7f3020616d74000000000000000000000000000000000000000000000000000000600082015250565b7f5345540000000000000000000000000000000000000000000000000000000000600082015250565b7f464f5242494444454e0000000000000000000000000000000000000000000000600082015250565b7f3020726573657276650000000000000000000000000000000000000000000000600082015250565b7f6261642064656c74610000000000000000000000000000000000000000000000600082015250565b7f4c50203c2042616c000000000000000000000000000000000000000000000000600082015250565b7f3e206f7574416d74000000000000000000000000000000000000000000000000600082015250565b7f3e206c6971000000000000000000000000000000000000000000000000000000600082015250565b7f3e20616d74000000000000000000000000000000000000000000000000000000600082015250565b7f3c20616d6f756e74730000000000000000000000000000000000000000000000600082015250565b7f4c4f434b00000000000000000000000000000000000000000000000000000000600082015250565b7f6d617267696e0000000000000000000000000000000000000000000000000000600082015250565b614abd816146ae565b8114614ac857600080fd5b50565b614ad4816146c0565b8114614adf57600080fd5b50565b614aeb816146e0565b8114614af657600080fd5b50565b614b0281614728565b8114614b0d57600080fd5b50565b614b1981614732565b8114614b2457600080fd5b5056fea2646970667358221220296e55d48131afa66f557636c5567587ff90f7a116a4cc85989d78ada525e4c064736f6c63430008040033",
  "linkReferences": {},
  "deployedLinkReferences": {}
}