{
  "_format": "hh-sol-artifact-1",
  "contractName": "TestPoolAddress",
  "sourceName": "contracts/test/TestPoolAddress.sol",
  "abi": [
    {
      "inputs": [
        {
          "internalType": "address",
          "name": "factory",
          "type": "address"
        },
        {
          "internalType": "bytes32",
          "name": "key",
          "type": "bytes32"
        }
      ],
      "name": "calcAddress",
      "outputs": [
        {
          "internalType": "address",
          "name": "pool",
          "type": "address"
        }
      ],
      "stateMutability": "pure",
      "type": "function"
    },
    {
      "inputs": [],
      "name": "getInitCodeHash",
      "outputs": [
        {
          "internalType": "bytes32",
          "name": "hash",
          "type": "bytes32"
        }
      ],
      "stateMutability": "pure",
      "type": "function"
    },
    {
      "inputs": [
        {
          "internalType": "address",
          "name": "factory",
          "type": "address"
        },
        {
          "internalType": "address",
          "name": "tokenA",
          "type": "address"
        },
        {
          "internalType": "address",
          "name": "tokenB",
          "type": "address"
        },
        {
          "internalType": "uint24",
          "name": "protocol",
          "type": "uint24"
        }
      ],
      "name": "getPoolAddress",
      "outputs": [
        {
          "internalType": "address",
          "name": "pool",
          "type": "address"
        }
      ],
      "stateMutability": "pure",
      "type": "function"
    }
  ],
  "bytecode": "0x608060405234801561001057600080fd5b50610468806100206000396000f3fe608060405234801561001057600080fd5b50600436106100415760003560e01c80632bc2c7a91461004657806335228264146100765780635431927d146100a6575b600080fd5b610060600480360381019061005b919061020a565b6100c4565b60405161006d91906102fd565b60405180910390f35b610090600480360381019061008b91906101a7565b6100d8565b60405161009d91906102fd565b60405180910390f35b6100ae6100e2565b6040516100bb9190610318565b60405180910390f35b60006100d0838361010d565b905092915050565b6000949350505050565b60007f792d270bcbb7e585e82fdbc9bc7913437cc922440405398bb0b293a5bc0f183960001b905090565b600082827f792d270bcbb7e585e82fdbc9bc7913437cc922440405398bb0b293a5bc0f183960001b604051602001610147939291906102b5565b6040516020818303038152906040528051906020012060001c905092915050565b600081359050610177816103ed565b92915050565b60008135905061018c81610404565b92915050565b6000813590506101a18161041b565b92915050565b600080600080608085870312156101bd57600080fd5b60006101cb87828801610168565b94505060206101dc87828801610168565b93505060406101ed87828801610168565b92505060606101fe87828801610192565b91505092959194509250565b6000806040838503121561021d57600080fd5b600061022b85828601610168565b925050602061023c8582860161017d565b9150509250929050565b61024f8161033e565b82525050565b6102666102618261033e565b610389565b82525050565b61027581610350565b82525050565b61028c61028782610350565b61039b565b82525050565b600061029f600183610333565b91506102aa826103c4565b600182019050919050565b60006102c082610292565b91506102cc8286610255565b6014820191506102dc828561027b565b6020820191506102ec828461027b565b602082019150819050949350505050565b60006020820190506103126000830184610246565b92915050565b600060208201905061032d600083018461026c565b92915050565b600081905092915050565b60006103498261035a565b9050919050565b6000819050919050565b600073ffffffffffffffffffffffffffffffffffffffff82169050919050565b600062ffffff82169050919050565b6000610394826103a5565b9050919050565b6000819050919050565b60006103b0826103b7565b9050919050565b60008160601b9050919050565b7fff00000000000000000000000000000000000000000000000000000000000000600082015250565b6103f68161033e565b811461040157600080fd5b50565b61040d81610350565b811461041857600080fd5b50565b6104248161037a565b811461042f57600080fd5b5056fea26469706673582212208d2ac0dd042b07392f6434b3ae64437623d881e5f6b48576dcc78177ff663ecb64736f6c63430008040033",
  "linkReferences": {},
  "deployedLinkReferences": {}
}