{
  "_format": "hh-sol-artifact-1",
  "contractName": "PositionManager",
  "sourceName": "contracts/PositionManager.sol",
  "abi": [
    {
      "inputs": [
        {
          "internalType": "address",
          "name": "_factory",
          "type": "address"
        },
        {
          "internalType": "address",
          "name": "_WETH",
          "type": "address"
        },
        {
          "internalType": "bytes32",
          "name": "_initCodeHash",
          "type": "bytes32"
        }
      ],
      "stateMutability": "nonpayable",
      "type": "constructor"
    },
    {
      "anonymous": false,
      "inputs": [
        {
          "indexed": true,
          "internalType": "address",
          "name": "owner",
          "type": "address"
        },
        {
          "indexed": true,
          "internalType": "address",
          "name": "approved",
          "type": "address"
        },
        {
          "indexed": true,
          "internalType": "uint256",
          "name": "tokenId",
          "type": "uint256"
        }
      ],
      "name": "Approval",
      "type": "event"
    },
    {
      "anonymous": false,
      "inputs": [
        {
          "indexed": true,
          "internalType": "address",
          "name": "owner",
          "type": "address"
        },
        {
          "indexed": true,
          "internalType": "address",
          "name": "operator",
          "type": "address"
        },
        {
          "indexed": false,
          "internalType": "bool",
          "name": "approved",
          "type": "bool"
        }
      ],
      "name": "ApprovalForAll",
      "type": "event"
    },
    {
      "anonymous": false,
      "inputs": [
        {
          "indexed": true,
          "internalType": "address",
          "name": "pool",
          "type": "address"
        },
        {
          "indexed": false,
          "internalType": "uint256",
          "name": "tokenId",
          "type": "uint256"
        },
        {
          "indexed": false,
          "internalType": "uint256",
          "name": "amountsLen",
          "type": "uint256"
        }
      ],
      "name": "BorrowLiquidity",
      "type": "event"
    },
    {
      "anonymous": false,
      "inputs": [
        {
          "indexed": true,
          "internalType": "address",
          "name": "pool",
          "type": "address"
        },
        {
          "indexed": false,
          "internalType": "uint256",
          "name": "tokenId",
          "type": "uint256"
        }
      ],
      "name": "CreateLoan",
      "type": "event"
    },
    {
      "anonymous": false,
      "inputs": [
        {
          "indexed": true,
          "internalType": "address",
          "name": "pool",
          "type": "address"
        },
        {
          "indexed": false,
          "internalType": "uint256",
          "name": "tokenId",
          "type": "uint256"
        },
        {
          "indexed": false,
          "internalType": "uint256",
          "name": "tokensHeldLen",
          "type": "uint256"
        }
      ],
      "name": "DecreaseCollateral",
      "type": "event"
    },
    {
      "anonymous": false,
      "inputs": [
        {
          "indexed": true,
          "internalType": "address",
          "name": "pool",
          "type": "address"
        },
        {
          "indexed": false,
          "internalType": "uint256",
          "name": "shares",
          "type": "uint256"
        }
      ],
      "name": "DepositNoPull",
      "type": "event"
    },
    {
      "anonymous": false,
      "inputs": [
        {
          "indexed": true,
          "internalType": "address",
          "name": "pool",
          "type": "address"
        },
        {
          "indexed": false,
          "internalType": "uint256",
          "name": "reservesLen",
          "type": "uint256"
        },
        {
          "indexed": false,
          "internalType": "uint256",
          "name": "shares",
          "type": "uint256"
        }
      ],
      "name": "DepositReserves",
      "type": "event"
    },
    {
      "anonymous": false,
      "inputs": [
        {
          "indexed": true,
          "internalType": "address",
          "name": "pool",
          "type": "address"
        },
        {
          "indexed": false,
          "internalType": "uint256",
          "name": "tokenId",
          "type": "uint256"
        },
        {
          "indexed": false,
          "internalType": "uint256",
          "name": "tokensHeldLen",
          "type": "uint256"
        }
      ],
      "name": "IncreaseCollateral",
      "type": "event"
    },
    {
      "anonymous": false,
      "inputs": [
        {
          "indexed": true,
          "internalType": "address",
          "name": "pool",
          "type": "address"
        },
        {
          "indexed": false,
          "internalType": "uint256",
          "name": "tokenId",
          "type": "uint256"
        },
        {
          "indexed": false,
          "internalType": "uint256",
          "name": "tokensHeldLen",
          "type": "uint256"
        }
      ],
      "name": "RebalanceCollateral",
      "type": "event"
    },
    {
      "anonymous": false,
      "inputs": [
        {
          "indexed": true,
          "internalType": "address",
          "name": "pool",
          "type": "address"
        },
        {
          "indexed": false,
          "internalType": "uint256",
          "name": "tokenId",
          "type": "uint256"
        },
        {
          "indexed": false,
          "internalType": "uint256",
          "name": "tokensHeldLen",
          "type": "uint256"
        }
      ],
      "name": "RebalanceCollateralWithLiquidity",
      "type": "event"
    },
    {
      "anonymous": false,
      "inputs": [
        {
          "indexed": true,
          "internalType": "address",
          "name": "pool",
          "type": "address"
        },
        {
          "indexed": false,
          "internalType": "uint256",
          "name": "tokenId",
          "type": "uint256"
        },
        {
          "indexed": false,
          "internalType": "uint256",
          "name": "liquidityPaid",
          "type": "uint256"
        },
        {
          "indexed": false,
          "internalType": "uint256",
          "name": "lpTokensPaid",
          "type": "uint256"
        },
        {
          "indexed": false,
          "internalType": "uint256",
          "name": "amountsLen",
          "type": "uint256"
        }
      ],
      "name": "RepayLiquidity",
      "type": "event"
    },
    {
      "anonymous": false,
      "inputs": [
        {
          "indexed": true,
          "internalType": "address",
          "name": "from",
          "type": "address"
        },
        {
          "indexed": true,
          "internalType": "address",
          "name": "to",
          "type": "address"
        },
        {
          "indexed": true,
          "internalType": "uint256",
          "name": "tokenId",
          "type": "uint256"
        }
      ],
      "name": "Transfer",
      "type": "event"
    },
    {
      "anonymous": false,
      "inputs": [
        {
          "indexed": true,
          "internalType": "address",
          "name": "pool",
          "type": "address"
        },
        {
          "indexed": false,
          "internalType": "uint256",
          "name": "assets",
          "type": "uint256"
        }
      ],
      "name": "WithdrawNoPull",
      "type": "event"
    },
    {
      "anonymous": false,
      "inputs": [
        {
          "indexed": true,
          "internalType": "address",
          "name": "pool",
          "type": "address"
        },
        {
          "indexed": false,
          "internalType": "uint256",
          "name": "reservesLen",
          "type": "uint256"
        },
        {
          "indexed": false,
          "internalType": "uint256",
          "name": "assets",
          "type": "uint256"
        }
      ],
      "name": "WithdrawReserves",
      "type": "event"
    },
    {
      "inputs": [],
      "name": "WETH",
      "outputs": [
        {
          "internalType": "address",
          "name": "",
          "type": "address"
        }
      ],
      "stateMutability": "view",
      "type": "function"
    },
    {
      "inputs": [
        {
          "internalType": "address",
          "name": "to",
          "type": "address"
        },
        {
          "internalType": "uint256",
          "name": "tokenId",
          "type": "uint256"
        }
      ],
      "name": "approve",
      "outputs": [],
      "stateMutability": "nonpayable",
      "type": "function"
    },
    {
      "inputs": [
        {
          "internalType": "address",
          "name": "owner",
          "type": "address"
        }
      ],
      "name": "balanceOf",
      "outputs": [
        {
          "internalType": "uint256",
          "name": "",
          "type": "uint256"
        }
      ],
      "stateMutability": "view",
      "type": "function"
    },
    {
      "inputs": [
        {
          "components": [
            {
              "internalType": "address",
              "name": "cfmm",
              "type": "address"
            },
            {
              "internalType": "uint24",
              "name": "protocol",
              "type": "uint24"
            },
            {
              "internalType": "uint256",
              "name": "tokenId",
              "type": "uint256"
            },
            {
              "internalType": "uint256",
              "name": "lpTokens",
              "type": "uint256"
            },
            {
              "internalType": "address",
              "name": "to",
              "type": "address"
            },
            {
              "internalType": "uint256",
              "name": "deadline",
              "type": "uint256"
            }
          ],
          "internalType": "struct IPositionManager.BorrowLiquidityParams",
          "name": "params",
          "type": "tuple"
        }
      ],
      "name": "borrowLiquidity",
      "outputs": [
        {
          "internalType": "uint256[]",
          "name": "amounts",
          "type": "uint256[]"
        }
      ],
      "stateMutability": "nonpayable",
      "type": "function"
    },
    {
      "inputs": [
        {
          "internalType": "address",
          "name": "token",
          "type": "address"
        },
        {
          "internalType": "uint256",
          "name": "minAmt",
          "type": "uint256"
        },
        {
          "internalType": "address",
          "name": "to",
          "type": "address"
        }
      ],
      "name": "clearToken",
      "outputs": [],
      "stateMutability": "payable",
      "type": "function"
    },
    {
      "inputs": [
        {
          "internalType": "address",
          "name": "cfmm",
          "type": "address"
        },
        {
          "internalType": "uint24",
          "name": "protocol",
          "type": "uint24"
        },
        {
          "internalType": "address",
          "name": "to",
          "type": "address"
        },
        {
          "internalType": "uint256",
          "name": "deadline",
          "type": "uint256"
        }
      ],
      "name": "createLoan",
      "outputs": [
        {
          "internalType": "uint256",
          "name": "tokenId",
          "type": "uint256"
        }
      ],
      "stateMutability": "nonpayable",
      "type": "function"
    },
    {
      "inputs": [
        {
          "components": [
            {
              "internalType": "address",
              "name": "cfmm",
              "type": "address"
            },
            {
              "internalType": "uint24",
              "name": "protocol",
              "type": "uint24"
            },
            {
              "internalType": "uint256",
              "name": "tokenId",
              "type": "uint256"
            },
            {
              "internalType": "uint256[]",
              "name": "amounts",
              "type": "uint256[]"
            },
            {
              "internalType": "address",
              "name": "to",
              "type": "address"
            },
            {
              "internalType": "uint256",
              "name": "deadline",
              "type": "uint256"
            }
          ],
          "internalType": "struct IPositionManager.AddRemoveCollateralParams",
          "name": "params",
          "type": "tuple"
        }
      ],
      "name": "decreaseCollateral",
      "outputs": [
        {
          "internalType": "uint256[]",
          "name": "tokensHeld",
          "type": "uint256[]"
        }
      ],
      "stateMutability": "nonpayable",
      "type": "function"
    },
    {
      "inputs": [
        {
          "components": [
            {
              "internalType": "address",
              "name": "cfmm",
              "type": "address"
            },
            {
              "internalType": "uint24",
              "name": "protocol",
              "type": "uint24"
            },
            {
              "internalType": "uint256",
              "name": "lpTokens",
              "type": "uint256"
            },
            {
              "internalType": "address",
              "name": "to",
              "type": "address"
            },
            {
              "internalType": "uint256",
              "name": "deadline",
              "type": "uint256"
            }
          ],
          "internalType": "struct IPositionManager.DepositWithdrawParams",
          "name": "params",
          "type": "tuple"
        }
      ],
      "name": "depositNoPull",
      "outputs": [
        {
          "internalType": "uint256",
          "name": "shares",
          "type": "uint256"
        }
      ],
      "stateMutability": "nonpayable",
      "type": "function"
    },
    {
      "inputs": [
        {
          "components": [
            {
              "internalType": "address",
              "name": "cfmm",
              "type": "address"
            },
            {
              "internalType": "uint256[]",
              "name": "amountsDesired",
              "type": "uint256[]"
            },
            {
              "internalType": "uint256[]",
              "name": "amountsMin",
              "type": "uint256[]"
            },
            {
              "internalType": "address",
              "name": "to",
              "type": "address"
            },
            {
              "internalType": "uint24",
              "name": "protocol",
              "type": "uint24"
            },
            {
              "internalType": "uint256",
              "name": "deadline",
              "type": "uint256"
            }
          ],
          "internalType": "struct IPositionManager.DepositReservesParams",
          "name": "params",
          "type": "tuple"
        }
      ],
      "name": "depositReserves",
      "outputs": [
        {
          "internalType": "uint256[]",
          "name": "reserves",
          "type": "uint256[]"
        },
        {
          "internalType": "uint256",
          "name": "shares",
          "type": "uint256"
        }
      ],
      "stateMutability": "nonpayable",
      "type": "function"
    },
    {
      "inputs": [],
      "name": "factory",
      "outputs": [
        {
          "internalType": "address",
          "name": "",
          "type": "address"
        }
      ],
      "stateMutability": "view",
      "type": "function"
    },
    {
      "inputs": [
        {
          "internalType": "uint256",
          "name": "tokenId",
          "type": "uint256"
        }
      ],
      "name": "getApproved",
      "outputs": [
        {
          "internalType": "address",
          "name": "",
          "type": "address"
        }
      ],
      "stateMutability": "view",
      "type": "function"
    },
    {
      "inputs": [
        {
          "components": [
            {
              "internalType": "address",
              "name": "cfmm",
              "type": "address"
            },
            {
              "internalType": "uint24",
              "name": "protocol",
              "type": "uint24"
            },
            {
              "internalType": "uint256",
              "name": "tokenId",
              "type": "uint256"
            },
            {
              "internalType": "uint256[]",
              "name": "amounts",
              "type": "uint256[]"
            },
            {
              "internalType": "address",
              "name": "to",
              "type": "address"
            },
            {
              "internalType": "uint256",
              "name": "deadline",
              "type": "uint256"
            }
          ],
          "internalType": "struct IPositionManager.AddRemoveCollateralParams",
          "name": "params",
          "type": "tuple"
        }
      ],
      "name": "increaseCollateral",
      "outputs": [
        {
          "internalType": "uint256[]",
          "name": "tokensHeld",
          "type": "uint256[]"
        }
      ],
      "stateMutability": "nonpayable",
      "type": "function"
    },
    {
      "inputs": [],
      "name": "initCodeHash",
      "outputs": [
        {
          "internalType": "bytes32",
          "name": "",
          "type": "bytes32"
        }
      ],
      "stateMutability": "view",
      "type": "function"
    },
    {
      "inputs": [
        {
          "internalType": "address",
          "name": "owner",
          "type": "address"
        },
        {
          "internalType": "address",
          "name": "operator",
          "type": "address"
        }
      ],
      "name": "isApprovedForAll",
      "outputs": [
        {
          "internalType": "bool",
          "name": "",
          "type": "bool"
        }
      ],
      "stateMutability": "view",
      "type": "function"
    },
    {
      "inputs": [
        {
          "internalType": "address",
          "name": "cfmm",
          "type": "address"
        },
        {
          "internalType": "uint24",
          "name": "protocol",
          "type": "uint24"
        },
        {
          "internalType": "uint256",
          "name": "tokenId",
          "type": "uint256"
        }
      ],
      "name": "loan",
      "outputs": [
        {
          "internalType": "uint256",
          "name": "id",
          "type": "uint256"
        },
        {
          "internalType": "address",
          "name": "poolId",
          "type": "address"
        },
        {
          "internalType": "uint256[]",
          "name": "tokensHeld",
          "type": "uint256[]"
        },
        {
          "internalType": "uint256",
          "name": "liquidity",
          "type": "uint256"
        },
        {
          "internalType": "uint256",
          "name": "rateIndex",
          "type": "uint256"
        },
        {
          "internalType": "uint256",
          "name": "blockNum",
          "type": "uint256"
        }
      ],
      "stateMutability": "view",
      "type": "function"
    },
    {
      "inputs": [],
      "name": "name",
      "outputs": [
        {
          "internalType": "string",
          "name": "",
          "type": "string"
        }
      ],
      "stateMutability": "view",
      "type": "function"
    },
    {
      "inputs": [],
      "name": "owner",
      "outputs": [
        {
          "internalType": "address",
          "name": "",
          "type": "address"
        }
      ],
      "stateMutability": "view",
      "type": "function"
    },
    {
      "inputs": [
        {
          "internalType": "uint256",
          "name": "tokenId",
          "type": "uint256"
        }
      ],
      "name": "ownerOf",
      "outputs": [
        {
          "internalType": "address",
          "name": "",
          "type": "address"
        }
      ],
      "stateMutability": "view",
      "type": "function"
    },
    {
      "inputs": [
        {
          "components": [
            {
              "internalType": "address",
              "name": "cfmm",
              "type": "address"
            },
            {
              "internalType": "uint24",
              "name": "protocol",
              "type": "uint24"
            },
            {
              "internalType": "uint256",
              "name": "tokenId",
              "type": "uint256"
            },
            {
              "internalType": "int256[]",
              "name": "deltas",
              "type": "int256[]"
            },
            {
              "internalType": "uint256",
              "name": "liquidity",
              "type": "uint256"
            },
            {
              "internalType": "address",
              "name": "to",
              "type": "address"
            },
            {
              "internalType": "uint256",
              "name": "deadline",
              "type": "uint256"
            }
          ],
          "internalType": "struct IPositionManager.RebalanceCollateralParams",
          "name": "params",
          "type": "tuple"
        }
      ],
      "name": "rebalanceCollateral",
      "outputs": [
        {
          "internalType": "uint256[]",
          "name": "tokensHeld",
          "type": "uint256[]"
        }
      ],
      "stateMutability": "nonpayable",
      "type": "function"
    },
    {
      "inputs": [
        {
          "components": [
            {
              "internalType": "address",
              "name": "cfmm",
              "type": "address"
            },
            {
              "internalType": "uint24",
              "name": "protocol",
              "type": "uint24"
            },
            {
              "internalType": "uint256",
              "name": "tokenId",
              "type": "uint256"
            },
            {
              "internalType": "int256[]",
              "name": "deltas",
              "type": "int256[]"
            },
            {
              "internalType": "uint256",
              "name": "liquidity",
              "type": "uint256"
            },
            {
              "internalType": "address",
              "name": "to",
              "type": "address"
            },
            {
              "internalType": "uint256",
              "name": "deadline",
              "type": "uint256"
            }
          ],
          "internalType": "struct IPositionManager.RebalanceCollateralParams",
          "name": "params",
          "type": "tuple"
        }
      ],
      "name": "rebalanceCollateralWithLiquidity",
      "outputs": [
        {
          "internalType": "uint256[]",
          "name": "tokensHeld",
          "type": "uint256[]"
        }
      ],
      "stateMutability": "nonpayable",
      "type": "function"
    },
    {
      "inputs": [],
      "name": "refundETH",
      "outputs": [],
      "stateMutability": "payable",
      "type": "function"
    },
    {
      "inputs": [
        {
          "components": [
            {
              "internalType": "address",
              "name": "cfmm",
              "type": "address"
            },
            {
              "internalType": "uint24",
              "name": "protocol",
              "type": "uint24"
            },
            {
              "internalType": "uint256",
              "name": "tokenId",
              "type": "uint256"
            },
            {
              "internalType": "uint256",
              "name": "liquidity",
              "type": "uint256"
            },
            {
              "internalType": "address",
              "name": "to",
              "type": "address"
            },
            {
              "internalType": "uint256",
              "name": "deadline",
              "type": "uint256"
            }
          ],
          "internalType": "struct IPositionManager.RepayLiquidityParams",
          "name": "params",
          "type": "tuple"
        }
      ],
      "name": "repayLiquidity",
      "outputs": [
        {
          "internalType": "uint256",
          "name": "liquidityPaid",
          "type": "uint256"
        },
        {
          "internalType": "uint256",
          "name": "lpTokensPaid",
          "type": "uint256"
        },
        {
          "internalType": "uint256[]",
          "name": "amounts",
          "type": "uint256[]"
        }
      ],
      "stateMutability": "nonpayable",
      "type": "function"
    },
    {
      "inputs": [
        {
          "internalType": "address",
          "name": "from",
          "type": "address"
        },
        {
          "internalType": "address",
          "name": "to",
          "type": "address"
        },
        {
          "internalType": "uint256",
          "name": "tokenId",
          "type": "uint256"
        }
      ],
      "name": "safeTransferFrom",
      "outputs": [],
      "stateMutability": "nonpayable",
      "type": "function"
    },
    {
      "inputs": [
        {
          "internalType": "address",
          "name": "from",
          "type": "address"
        },
        {
          "internalType": "address",
          "name": "to",
          "type": "address"
        },
        {
          "internalType": "uint256",
          "name": "tokenId",
          "type": "uint256"
        },
        {
          "internalType": "bytes",
          "name": "data",
          "type": "bytes"
        }
      ],
      "name": "safeTransferFrom",
      "outputs": [],
      "stateMutability": "nonpayable",
      "type": "function"
    },
    {
      "inputs": [
        {
          "internalType": "address[]",
          "name": "tokens",
          "type": "address[]"
        },
        {
          "internalType": "uint256[]",
          "name": "amounts",
          "type": "uint256[]"
        },
        {
          "internalType": "address",
          "name": "payee",
          "type": "address"
        },
        {
          "internalType": "bytes",
          "name": "data",
          "type": "bytes"
        }
      ],
      "name": "sendTokensCallback",
      "outputs": [],
      "stateMutability": "nonpayable",
      "type": "function"
    },
    {
      "inputs": [
        {
          "internalType": "address",
          "name": "operator",
          "type": "address"
        },
        {
          "internalType": "bool",
          "name": "approved",
          "type": "bool"
        }
      ],
      "name": "setApprovalForAll",
      "outputs": [],
      "stateMutability": "nonpayable",
      "type": "function"
    },
    {
      "inputs": [
        {
          "internalType": "bytes4",
          "name": "interfaceId",
          "type": "bytes4"
        }
      ],
      "name": "supportsInterface",
      "outputs": [
        {
          "internalType": "bool",
          "name": "",
          "type": "bool"
        }
      ],
      "stateMutability": "view",
      "type": "function"
    },
    {
      "inputs": [],
      "name": "symbol",
      "outputs": [
        {
          "internalType": "string",
          "name": "",
          "type": "string"
        }
      ],
      "stateMutability": "view",
      "type": "function"
    },
    {
      "inputs": [
        {
          "internalType": "uint256",
          "name": "tokenId",
          "type": "uint256"
        }
      ],
      "name": "tokenURI",
      "outputs": [
        {
          "internalType": "string",
          "name": "",
          "type": "string"
        }
      ],
      "stateMutability": "view",
      "type": "function"
    },
    {
      "inputs": [
        {
          "internalType": "address",
          "name": "from",
          "type": "address"
        },
        {
          "internalType": "address",
          "name": "to",
          "type": "address"
        },
        {
          "internalType": "uint256",
          "name": "tokenId",
          "type": "uint256"
        }
      ],
      "name": "transferFrom",
      "outputs": [],
      "stateMutability": "nonpayable",
      "type": "function"
    },
    {
      "inputs": [
        {
          "internalType": "uint256",
          "name": "minAmt",
          "type": "uint256"
        },
        {
          "internalType": "address",
          "name": "to",
          "type": "address"
        }
      ],
      "name": "unwrapWETH",
      "outputs": [],
      "stateMutability": "payable",
      "type": "function"
    },
    {
      "inputs": [
        {
          "components": [
            {
              "internalType": "address",
              "name": "cfmm",
              "type": "address"
            },
            {
              "internalType": "uint24",
              "name": "protocol",
              "type": "uint24"
            },
            {
              "internalType": "uint256",
              "name": "lpTokens",
              "type": "uint256"
            },
            {
              "internalType": "address",
              "name": "to",
              "type": "address"
            },
            {
              "internalType": "uint256",
              "name": "deadline",
              "type": "uint256"
            }
          ],
          "internalType": "struct IPositionManager.DepositWithdrawParams",
          "name": "params",
          "type": "tuple"
        }
      ],
      "name": "withdrawNoPull",
      "outputs": [
        {
          "internalType": "uint256",
          "name": "assets",
          "type": "uint256"
        }
      ],
      "stateMutability": "nonpayable",
      "type": "function"
    },
    {
      "inputs": [
        {
          "components": [
            {
              "internalType": "address",
              "name": "cfmm",
              "type": "address"
            },
            {
              "internalType": "uint24",
              "name": "protocol",
              "type": "uint24"
            },
            {
              "internalType": "uint256",
              "name": "amount",
              "type": "uint256"
            },
            {
              "internalType": "uint256[]",
              "name": "amountsMin",
              "type": "uint256[]"
            },
            {
              "internalType": "address",
              "name": "to",
              "type": "address"
            },
            {
              "internalType": "uint256",
              "name": "deadline",
              "type": "uint256"
            }
          ],
          "internalType": "struct IPositionManager.WithdrawReservesParams",
          "name": "params",
          "type": "tuple"
        }
      ],
      "name": "withdrawReserves",
      "outputs": [
        {
          "internalType": "uint256[]",
          "name": "reserves",
          "type": "uint256[]"
        },
        {
          "internalType": "uint256",
          "name": "assets",
          "type": "uint256"
        }
      ],
      "stateMutability": "nonpayable",
      "type": "function"
    },
    {
      "stateMutability": "payable",
      "type": "receive"
    }
  ],
  "bytecode": "0x60c06040523480156200001157600080fd5b50604051620063673803806200636783398181016040528101906200003791906200027a565b6040518060400160405280600681526020017f506f734d677200000000000000000000000000000000000000000000000000008152506040518060400160405280600581526020017f504d2d56310000000000000000000000000000000000000000000000000000008152508181858073ffffffffffffffffffffffffffffffffffffffff1660808173ffffffffffffffffffffffffffffffffffffffff1660601b81525050508160009080519060200190620000f69291906200019c565b5080600190805190602001906200010f9291906200019c565b50505050508273ffffffffffffffffffffffffffffffffffffffff1660a08173ffffffffffffffffffffffffffffffffffffffff1660601b8152505033600660006101000a81548173ffffffffffffffffffffffffffffffffffffffff021916908373ffffffffffffffffffffffffffffffffffffffff16021790555080600781905550505050620003a7565b828054620001aa906200030e565b90600052602060002090601f016020900481019282620001ce57600085556200021a565b82601f10620001e957805160ff19168380011785556200021a565b828001600101855582156200021a579182015b8281111562000219578251825591602001919060010190620001fc565b5b5090506200022991906200022d565b5090565b5b80821115620002485760008160009055506001016200022e565b5090565b6000815190506200025d8162000373565b92915050565b60008151905062000274816200038d565b92915050565b6000806000606084860312156200029057600080fd5b6000620002a0868287016200024c565b9350506020620002b3868287016200024c565b9250506040620002c68682870162000263565b9150509250925092565b6000620002dd82620002ee565b9050919050565b6000819050919050565b600073ffffffffffffffffffffffffffffffffffffffff82169050919050565b600060028204905060018216806200032757607f821691505b602082108114156200033e576200033d62000344565b5b50919050565b7f4e487b7100000000000000000000000000000000000000000000000000000000600052602260045260246000fd5b6200037e81620002d0565b81146200038a57600080fd5b50565b6200039881620002e4565b8114620003a457600080fd5b50565b60805160601c60a05160601c615f0f6200045860003960008181610c1001528181610cfd01528181610e7d0152818161113d015281816112d20152818161150c015281816116e801528181611b8d01528181611e4a01528181611ee7015281816122450152818161247a015281816125f101526127830152600081816101f901528181611b5201528181612008015281816120ff01528181612c2f01528181612c8f0152612d130152615f0f6000f3fe6080604052600436106101f25760003560e01c806370a082311161010d578063c87b56dd116100a0578063e985e9c51161006f578063e985e9c5146107e5578063eb1b69bf14610822578063ed83bfff14610860578063f164aa861461089f578063f53b4cf1146108dc57610287565b8063c87b56dd14610724578063c9e9def414610761578063db4c545e1461079e578063e16d9ce5146107c957610287565b8063ad5c4648116100dc578063ad5c464814610667578063b82019fb14610692578063b88d4fde146106d0578063c45a0155146106f957610287565b806370a08231146105ab5780638da5cb5b146105e857806395d89b4114610613578063a22cb4651461063e57610287565b806323b872dd116101855780634f202ceb116101545780634f202ceb146104cb5780636352211e146105085780636464a1eb14610545578063678004791461056e57610287565b806323b872dd146104205780632838a94f146104495780633fce4d9e1461046557806342842e0e146104a257610287565b806312210e8a116101c157806312210e8a1461035a57806315fa68d5146103645780631e7481d5146103a657806321892368146103e357610287565b806301ffc9a71461028c57806306fdde03146102c9578063081812fc146102f4578063095ea7b31461033157610287565b36610287577f000000000000000000000000000000000000000000000000000000000000000073ffffffffffffffffffffffffffffffffffffffff163373ffffffffffffffffffffffffffffffffffffffff1614610285576040517f08c379a000000000000000000000000000000000000000000000000000000000815260040161027c906150a7565b60405180910390fd5b005b600080fd5b34801561029857600080fd5b506102b360048036038101906102ae91906144a9565b610919565b6040516102c0919061504f565b60405180910390f35b3480156102d557600080fd5b506102de6109fb565b6040516102eb9190615085565b60405180910390f35b34801561030057600080fd5b5061031b600480360381019061031691906146cc565b610a8d565b6040516103289190614eaf565b60405180910390f35b34801561033d57600080fd5b5061035860048036038101906103539190614266565b610ad3565b005b610362610beb565b005b34801561037057600080fd5b5061038b60048036038101906103869190614217565b610c01565b60405161039d9695949392919061533d565b60405180910390f35b3480156103b257600080fd5b506103cd60048036038101906103c891906145a6565b610ce6565b6040516103da9190615322565b60405180910390f35b3480156103ef57600080fd5b5061040a6004803603810190610405919061453c565b610e58565b6040516104179190614ffd565b60405180910390f35b34801561042c57600080fd5b50610447600480360381019061044291906140ae565b610fcd565b005b610463600480360381019061045e91906142a2565b61102d565b005b34801561047157600080fd5b5061048c600480360381019061048791906145cf565b611118565b6040516104999190614ffd565b60405180910390f35b3480156104ae57600080fd5b506104c960048036038101906104c491906140ae565b61128d565b005b3480156104d757600080fd5b506104f260048036038101906104ed91906144fb565b6112ad565b6040516104ff9190614ffd565b60405180910390f35b34801561051457600080fd5b5061052f600480360381019061052a91906146cc565b611442565b60405161053c9190614eaf565b60405180910390f35b34801561055157600080fd5b5061056c600480360381019061056791906142f1565b6114f4565b005b34801561057a57600080fd5b50610595600480360381019061059091906144fb565b6116c3565b6040516105a29190614ffd565b60405180910390f35b3480156105b757600080fd5b506105d260048036038101906105cd9190614049565b6119ca565b6040516105df9190615322565b60405180910390f35b3480156105f457600080fd5b506105fd611a82565b60405161060a9190614eaf565b60405180910390f35b34801561061f57600080fd5b50610628611aa8565b6040516106359190615085565b60405180910390f35b34801561064a57600080fd5b5061066560048036038101906106609190614178565b611b3a565b005b34801561067357600080fd5b5061067c611b50565b6040516106899190614eaf565b60405180910390f35b34801561069e57600080fd5b506106b960048036038101906106b49190614662565b611b74565b6040516106c792919061501f565b60405180910390f35b3480156106dc57600080fd5b506106f760048036038101906106f291906140fd565b611de6565b005b34801561070557600080fd5b5061070e611e48565b60405161071b9190614eaf565b60405180910390f35b34801561073057600080fd5b5061074b600480360381019061074691906146cc565b611e6c565b6040516107589190615085565b60405180910390f35b34801561076d57600080fd5b50610788600480360381019061078391906141b4565b611ed4565b6040516107959190615322565b60405180910390f35b3480156107aa57600080fd5b506107b3611ffe565b6040516107c0919061506a565b60405180910390f35b6107e360048036038101906107de919061471e565b612004565b005b3480156107f157600080fd5b5061080c60048036038101906108079190614072565b612198565b604051610819919061504f565b60405180910390f35b34801561082e57600080fd5b5061084960048036038101906108449190614565565b61222c565b60405161085792919061501f565b60405180910390f35b34801561086c57600080fd5b5061088760048036038101906108829190614610565b612452565b60405161089693929190615440565b60405180910390f35b3480156108ab57600080fd5b506108c660048036038101906108c191906145a6565b6125da565b6040516108d39190615322565b60405180910390f35b3480156108e857600080fd5b5061090360048036038101906108fe91906145cf565b61275e565b6040516109109190614ffd565b60405180910390f35b60007f80ac58cd000000000000000000000000000000000000000000000000000000007bffffffffffffffffffffffffffffffffffffffffffffffffffffffff1916827bffffffffffffffffffffffffffffffffffffffffffffffffffffffff191614806109e457507f5b5e139f000000000000000000000000000000000000000000000000000000007bffffffffffffffffffffffffffffffffffffffffffffffffffffffff1916827bffffffffffffffffffffffffffffffffffffffffffffffffffffffff1916145b806109f457506109f3826128df565b5b9050919050565b606060008054610a0a90615879565b80601f0160208091040260200160405190810160405280929190818152602001828054610a3690615879565b8015610a835780601f10610a5857610100808354040283529160200191610a83565b820191906000526020600020905b815481529060010190602001808311610a6657829003601f168201915b5050505050905090565b6000610a9882612949565b6004600083815260200190815260200160002060009054906101000a900473ffffffffffffffffffffffffffffffffffffffff169050919050565b6000610ade82611442565b90508073ffffffffffffffffffffffffffffffffffffffff168373ffffffffffffffffffffffffffffffffffffffff161415610b4f576040517f08c379a0000000000000000000000000000000000000000000000000000000008152600401610b46906151c7565b60405180910390fd5b8073ffffffffffffffffffffffffffffffffffffffff16610b6e612994565b73ffffffffffffffffffffffffffffffffffffffff161480610b9d5750610b9c81610b97612994565b612198565b5b610bdc576040517f08c379a0000000000000000000000000000000000000000000000000000000008152600401610bd390615227565b60405180910390fd5b610be6838361299c565b505050565b6000471115610bff57610bfe3347612a55565b5b565b60008060606000806000610c417f0000000000000000000000000000000000000000000000000000000000000000610c398b8b612b7b565b600754612bae565b73ffffffffffffffffffffffffffffffffffffffff1663365a5306886040518263ffffffff1660e01b8152600401610c799190615322565b60006040518083038186803b158015610c9157600080fd5b505afa158015610ca5573d6000803e3d6000fd5b505050506040513d6000823e3d601f19601f82011682018060405250810190610cce919061475a565b95509550955095509550955093975093979195509350565b60008160800135610cf681612be7565b6000610d527f0000000000000000000000000000000000000000000000000000000000000000610d4a866000016020810190610d329190614049565b876020016020810190610d4591906146a3565b612b7b565b600754612bae565b9050610d648133838760400135612c2d565b8073ffffffffffffffffffffffffffffffffffffffff1663192fdf10856060016020810190610d939190614049565b6040518263ffffffff1660e01b8152600401610daf9190614eaf565b602060405180830381600087803b158015610dc957600080fd5b505af1158015610ddd573d6000803e3d6000fd5b505050506040513d601f19601f82011682018060405250810190610e0191906146f5565b92508073ffffffffffffffffffffffffffffffffffffffff167f62f6d78e7bcbb50bd3c10735875875bc356251f9cd9a543e413a0b583f25e66784604051610e499190615322565b60405180910390a25050919050565b60608160400135610e6881612d96565b8260a00135610e7681612be7565b6000610ed27f0000000000000000000000000000000000000000000000000000000000000000610eca876000016020810190610eb29190614049565b886020016020810190610ec591906146a3565b612b7b565b600754612bae565b90508073ffffffffffffffffffffffffffffffffffffffff166328cad17f866040013587606001356040518363ffffffff1660e01b8152600401610f17929190615417565b600060405180830381600087803b158015610f3157600080fd5b505af1158015610f45573d6000803e3d6000fd5b505050506040513d6000823e3d601f19601f82011682018060405250810190610f6e91906143eb565b93508073ffffffffffffffffffffffffffffffffffffffff167f94c818c3a5e244f9dd05c568f7aa015b84e3f48514646a5097b0bf11946dec9786604001358651604051610fbd929190615417565b60405180910390a2505050919050565b610fde610fd8612994565b82612de2565b61101d576040517f08c379a000000000000000000000000000000000000000000000000000000000815260040161101490615227565b60405180910390fd5b611028838383612e77565b505050565b60008373ffffffffffffffffffffffffffffffffffffffff166370a08231306040518263ffffffff1660e01b81526004016110689190614eaf565b60206040518083038186803b15801561108057600080fd5b505afa158015611094573d6000803e3d6000fd5b505050506040513d601f19601f820116820180604052508101906110b891906146f5565b9050828110156110fd576040517f08c379a00000000000000000000000000000000000000000000000000000000081526004016110f4906152e7565b60405180910390fd5b6000811115611112576111118483836130de565b5b50505050565b6060816040013561112881612d96565b8260c0013561113681612be7565b60006111927f000000000000000000000000000000000000000000000000000000000000000061118a8760000160208101906111729190614049565b88602001602081019061118591906146a3565b612b7b565b600754612bae565b90508073ffffffffffffffffffffffffffffffffffffffff16631931b913866040013587608001356040518363ffffffff1660e01b81526004016111d7929190615417565b600060405180830381600087803b1580156111f157600080fd5b505af1158015611205573d6000803e3d6000fd5b505050506040513d6000823e3d601f19601f8201168201806040525081019061122e91906143eb565b93508073ffffffffffffffffffffffffffffffffffffffff167feb1596d05db20c76223bbd8e39b366576fbe7cfb82f7e631e4516730f87688a58660400135865160405161127d929190615417565b60405180910390a2505050919050565b6112a883838360405180602001604052806000815250611de6565b505050565b606081604001356112bd81612d96565b8260a001356112cb81612be7565b60006113277f000000000000000000000000000000000000000000000000000000000000000061131f8760000160208101906113079190614049565b88602001602081019061131a91906146a3565b612b7b565b600754612bae565b90508073ffffffffffffffffffffffffffffffffffffffff1663ea940b1d866040013587806060019061135a919061551a565b89608001602081019061136d9190614049565b6040518563ffffffff1660e01b815260040161138c94939291906153d7565b600060405180830381600087803b1580156113a657600080fd5b505af11580156113ba573d6000803e3d6000fd5b505050506040513d6000823e3d601f19601f820116820180604052508101906113e391906143eb565b93508073ffffffffffffffffffffffffffffffffffffffff167fb6d5e283ea17fb28d716209725e4af31b3e6b02a0c083e427b87e0fe7554a2b986604001358651604051611432929190615417565b60405180910390a2505050919050565b6000806002600084815260200190815260200160002060009054906101000a900473ffffffffffffffffffffffffffffffffffffffff169050600073ffffffffffffffffffffffffffffffffffffffff168173ffffffffffffffffffffffffffffffffffffffff1614156114eb576040517f08c379a00000000000000000000000000000000000000000000000000000000081526004016114e2906152a7565b60405180910390fd5b80915050919050565b600082828101906115059190614639565b90506115457f000000000000000000000000000000000000000000000000000000000000000061153d83602001518460400151612b7b565b600754612bae565b73ffffffffffffffffffffffffffffffffffffffff163373ffffffffffffffffffffffffffffffffffffffff16146115b2576040517f08c379a00000000000000000000000000000000000000000000000000000000081526004016115a990615207565b60405180910390fd5b60005b888890508110156116b85760008787838181106115fb577f4e487b7100000000000000000000000000000000000000000000000000000000600052603260045260246000fd5b9050602002013511156116a5576116a4898983818110611644577f4e487b7100000000000000000000000000000000000000000000000000000000600052603260045260246000fd5b90506020020160208101906116599190614049565b8360000151878a8a86818110611698577f4e487b7100000000000000000000000000000000000000000000000000000000600052603260045260246000fd5b90506020020135612c2d565b5b80806116b0906158dc565b9150506115b5565b505050505050505050565b606081604001356116d381612d96565b8260a001356116e181612be7565b600061173d7f000000000000000000000000000000000000000000000000000000000000000061173587600001602081019061171d9190614049565b88602001602081019061173091906146a3565b612b7b565b600754612bae565b905060008173ffffffffffffffffffffffffffffffffffffffff16639d63848a6040518163ffffffff1660e01b815260040160006040518083038186803b15801561178757600080fd5b505afa15801561179b573d6000803e3d6000fd5b505050506040513d6000823e3d601f19601f820116820180604052508101906117c491906143aa565b905060005b81518110156118d55760008780606001906117e4919061551a565b8381811061181b577f4e487b7100000000000000000000000000000000000000000000000000000000600052603260045260246000fd5b9050602002013511156118c2576118c1828281518110611864577f4e487b7100000000000000000000000000000000000000000000000000000000600052603260045260246000fd5b602002602001015133858a806060019061187e919061551a565b868181106118b5577f4e487b7100000000000000000000000000000000000000000000000000000000600052603260045260246000fd5b90506020020135612c2d565b5b80806118cd906158dc565b9150506117c9565b508173ffffffffffffffffffffffffffffffffffffffff1663b8a8383487604001356040518263ffffffff1660e01b81526004016119139190615322565b600060405180830381600087803b15801561192d57600080fd5b505af1158015611941573d6000803e3d6000fd5b505050506040513d6000823e3d601f19601f8201168201806040525081019061196a91906143eb565b94508173ffffffffffffffffffffffffffffffffffffffff167fc266471a74a2eb6003f7af3fa89eedcefba25d07d90cc910a21136c2fab46718876040013587516040516119b9929190615417565b60405180910390a250505050919050565b60008073ffffffffffffffffffffffffffffffffffffffff168273ffffffffffffffffffffffffffffffffffffffff161415611a3b576040517f08c379a0000000000000000000000000000000000000000000000000000000008152600401611a32906151e7565b60405180910390fd5b600360008373ffffffffffffffffffffffffffffffffffffffff1673ffffffffffffffffffffffffffffffffffffffff168152602001908152602001600020549050919050565b600660009054906101000a900473ffffffffffffffffffffffffffffffffffffffff1681565b606060018054611ab790615879565b80601f0160208091040260200160405190810160405280929190818152602001828054611ae390615879565b8015611b305780601f10611b0557610100808354040283529160200191611b30565b820191906000526020600020905b815481529060010190602001808311611b1357829003601f168201915b5050505050905090565b611b4c611b45612994565b8383613268565b5050565b7f000000000000000000000000000000000000000000000000000000000000000081565b606060008260a00135611b8681612be7565b6000611be27f0000000000000000000000000000000000000000000000000000000000000000611bda876000016020810190611bc29190614049565b886020016020810190611bd591906146a3565b612b7b565b600754612bae565b9050611bf48133838860400135612c2d565b8073ffffffffffffffffffffffffffffffffffffffff16630cfba8eb866080016020810190611c239190614049565b6040518263ffffffff1660e01b8152600401611c3f9190614eaf565b600060405180830381600087803b158015611c5957600080fd5b505af1158015611c6d573d6000803e3d6000fd5b505050506040513d6000823e3d601f19601f82011682018060405250810190611c96919061442c565b809450819550505060005b8451811015611d8d57858060600190611cba919061551a565b82818110611cf1577f4e487b7100000000000000000000000000000000000000000000000000000000600052603260045260246000fd5b90506020020135858281518110611d31577f4e487b7100000000000000000000000000000000000000000000000000000000600052603260045260246000fd5b60200260200101511015611d7a576040517f08c379a0000000000000000000000000000000000000000000000000000000008152600401611d7190615187565b60405180910390fd5b8080611d85906158dc565b915050611ca1565b508073ffffffffffffffffffffffffffffffffffffffff167faf06b38c933b9743183cbbfe9d487f5412d3db4dd8439ee763c9b6e0de8ed16a855185604051611dd7929190615417565b60405180910390a25050915091565b611df7611df1612994565b83612de2565b611e36576040517f08c379a0000000000000000000000000000000000000000000000000000000008152600401611e2d90615227565b60405180910390fd5b611e42848484846133d5565b50505050565b7f000000000000000000000000000000000000000000000000000000000000000081565b6060611e7782612949565b6000611e81613431565b90506000815111611ea15760405180602001604052806000815250611ecc565b80611eab84613448565b604051602001611ebc929190614e43565b6040516020818303038152906040525b915050919050565b600081611ee081612be7565b6000611f187f0000000000000000000000000000000000000000000000000000000000000000611f108989612b7b565b600754612bae565b90508073ffffffffffffffffffffffffffffffffffffffff166365ec1a456040518163ffffffff1660e01b8152600401602060405180830381600087803b158015611f6257600080fd5b505af1158015611f76573d6000803e3d6000fd5b505050506040513d601f19601f82011682018060405250810190611f9a91906146f5565b9250611fa685846135f5565b8073ffffffffffffffffffffffffffffffffffffffff167f4de94521522d62c755d4cf054fa8bdbd5519675ea0fb02cebde40abcaf44560184604051611fec9190615322565b60405180910390a25050949350505050565b60075481565b60007f000000000000000000000000000000000000000000000000000000000000000073ffffffffffffffffffffffffffffffffffffffff166370a08231306040518263ffffffff1660e01b815260040161205f9190614eaf565b60206040518083038186803b15801561207757600080fd5b505afa15801561208b573d6000803e3d6000fd5b505050506040513d601f19601f820116820180604052508101906120af91906146f5565b9050828110156120f4576040517f08c379a00000000000000000000000000000000000000000000000000000000081526004016120eb90615127565b60405180910390fd5b6000811115612193577f000000000000000000000000000000000000000000000000000000000000000073ffffffffffffffffffffffffffffffffffffffff16632e1a7d4d826040518263ffffffff1660e01b81526004016121569190615322565b600060405180830381600087803b15801561217057600080fd5b505af1158015612184573d6000803e3d6000fd5b505050506121928282612a55565b5b505050565b6000600560008473ffffffffffffffffffffffffffffffffffffffff1673ffffffffffffffffffffffffffffffffffffffff16815260200190815260200160002060008373ffffffffffffffffffffffffffffffffffffffff1673ffffffffffffffffffffffffffffffffffffffff16815260200190815260200160002060009054906101000a900460ff16905092915050565b606060008260a0013561223e81612be7565b600061229a7f000000000000000000000000000000000000000000000000000000000000000061229287600001602081019061227a9190614049565b88608001602081019061228d91906146a3565b612b7b565b600754612bae565b90508073ffffffffffffffffffffffffffffffffffffffff166354fe2a968660000160208101906122cb9190614049565b8780602001906122db919061551a565b8980604001906122eb919061551a565b60405180606001604052803373ffffffffffffffffffffffffffffffffffffffff1681526020018d60000160208101906123259190614049565b73ffffffffffffffffffffffffffffffffffffffff1681526020018d608001602081019061235391906146a3565b62ffffff1681525060405160200161236b9190615307565b6040516020818303038152906040526040518763ffffffff1660e01b815260040161239b96959493929190614f4d565b600060405180830381600087803b1580156123b557600080fd5b505af11580156123c9573d6000803e3d6000fd5b505050506040513d6000823e3d601f19601f820116820180604052508101906123f2919061442c565b80945081955050508073ffffffffffffffffffffffffffffffffffffffff167f36432ff15f1256eb7856f69aa1c31276f952f466314ff629320db92a41fc6c96855185604051612443929190615417565b60405180910390a25050915091565b6000806060836040013561246581612d96565b8460a0013561247381612be7565b60006124cf7f00000000000000000000000000000000000000000000000000000000000000006124c78960000160208101906124af9190614049565b8a60200160208101906124c291906146a3565b612b7b565b600754612bae565b90508073ffffffffffffffffffffffffffffffffffffffff1663db02f9cb886040013589606001356040518363ffffffff1660e01b8152600401612514929190615417565b600060405180830381600087803b15801561252e57600080fd5b505af1158015612542573d6000803e3d6000fd5b505050506040513d6000823e3d601f19601f8201168201806040525081019061256b91906147fb565b8096508197508298505050508073ffffffffffffffffffffffffffffffffffffffff167fcda2310868a9efec32c16560b8774c821808605f0c40622ca53baa94dab11c8e8860400135888888516040516125c8949392919061547e565b60405180910390a25050509193909250565b600081608001356125ea81612be7565b60006126467f000000000000000000000000000000000000000000000000000000000000000061263e8660000160208101906126269190614049565b87602001602081019061263991906146a3565b612b7b565b600754612bae565b905061266a84600001602081019061265e9190614049565b33838760400135612c2d565b8073ffffffffffffffffffffffffffffffffffffffff166365418ef58560600160208101906126999190614049565b6040518263ffffffff1660e01b81526004016126b59190614eaf565b602060405180830381600087803b1580156126cf57600080fd5b505af11580156126e3573d6000803e3d6000fd5b505050506040513d601f19601f8201168201806040525081019061270791906146f5565b92508073ffffffffffffffffffffffffffffffffffffffff167fc1e9289541827020cbcec2b1510bd9aed3740c65f7082bb7b3ee6a443bcc955f8460405161274f9190615322565b60405180910390a25050919050565b6060816040013561276e81612d96565b8260c0013561277c81612be7565b60006127d87f00000000000000000000000000000000000000000000000000000000000000006127d08760000160208101906127b89190614049565b8860200160208101906127cb91906146a3565b612b7b565b600754612bae565b90508073ffffffffffffffffffffffffffffffffffffffff16632a9bc3f6866040013587806060019061280b91906154c3565b6040518463ffffffff1660e01b8152600401612829939291906153a5565b600060405180830381600087803b15801561284357600080fd5b505af1158015612857573d6000803e3d6000fd5b505050506040513d6000823e3d601f19601f8201168201806040525081019061288091906143eb565b93508073ffffffffffffffffffffffffffffffffffffffff167feb739e96034f17cb5df06b433bcd8bc7652d10e897a9a73793cd73fed9a1c476866040013586516040516128cf929190615417565b60405180910390a2505050919050565b60007f01ffc9a7000000000000000000000000000000000000000000000000000000007bffffffffffffffffffffffffffffffffffffffffffffffffffffffff1916827bffffffffffffffffffffffffffffffffffffffffffffffffffffffff1916149050919050565b61295281613613565b612991576040517f08c379a0000000000000000000000000000000000000000000000000000000008152600401612988906152a7565b60405180910390fd5b50565b600033905090565b816004600083815260200190815260200160002060006101000a81548173ffffffffffffffffffffffffffffffffffffffff021916908373ffffffffffffffffffffffffffffffffffffffff160217905550808273ffffffffffffffffffffffffffffffffffffffff16612a0f83611442565b73ffffffffffffffffffffffffffffffffffffffff167f8c5be1e5ebec7d5bd14f71427d1e84f3dd0314c0f7b2291e5b200ac8c7c3b92560405160405180910390a45050565b60008273ffffffffffffffffffffffffffffffffffffffff1682600067ffffffffffffffff811115612ab0577f4e487b7100000000000000000000000000000000000000000000000000000000600052604160045260246000fd5b6040519080825280601f01601f191660200182016040528015612ae25781602001600182028036833780820191505090505b50604051612af09190614e2c565b60006040518083038185875af1925050503d8060008114612b2d576040519150601f19603f3d011682016040523d82523d6000602084013e612b32565b606091505b5050905080612b76576040517f08c379a0000000000000000000000000000000000000000000000000000000008152600401612b6d906151a7565b60405180910390fd5b505050565b60008282604051602001612b90929190614fab565b60405160208183030381529060405280519060200120905092915050565b6000838383604051602001612bc593929190614e67565b6040516020818303038152906040528051906020012060001c90509392505050565b42811015612c2a576040517f08c379a0000000000000000000000000000000000000000000000000000000008152600401612c21906152c7565b60405180910390fd5b50565b7f000000000000000000000000000000000000000000000000000000000000000073ffffffffffffffffffffffffffffffffffffffff168473ffffffffffffffffffffffffffffffffffffffff16148015612c885750804710155b15612d3e577f000000000000000000000000000000000000000000000000000000000000000073ffffffffffffffffffffffffffffffffffffffff1663d0e30db0826040518263ffffffff1660e01b81526004016000604051808303818588803b158015612cf557600080fd5b505af1158015612d09573d6000803e3d6000fd5b5050505050612d397f000000000000000000000000000000000000000000000000000000000000000083836130de565b612d90565b3073ffffffffffffffffffffffffffffffffffffffff168373ffffffffffffffffffffffffffffffffffffffff161415612d8257612d7d8483836130de565b612d8f565b612d8e8484848461367f565b5b5b50505050565b612da03382612de2565b612ddf576040517f08c379a0000000000000000000000000000000000000000000000000000000008152600401612dd690615207565b60405180910390fd5b50565b600080612dee83611442565b90508073ffffffffffffffffffffffffffffffffffffffff168473ffffffffffffffffffffffffffffffffffffffff161480612e305750612e2f8185612198565b5b80612e6e57508373ffffffffffffffffffffffffffffffffffffffff16612e5684610a8d565b73ffffffffffffffffffffffffffffffffffffffff16145b91505092915050565b8273ffffffffffffffffffffffffffffffffffffffff16612e9782611442565b73ffffffffffffffffffffffffffffffffffffffff1614612eed576040517f08c379a0000000000000000000000000000000000000000000000000000000008152600401612ee4906150e7565b60405180910390fd5b600073ffffffffffffffffffffffffffffffffffffffff168273ffffffffffffffffffffffffffffffffffffffff161415612f5d576040517f08c379a0000000000000000000000000000000000000000000000000000000008152600401612f5490615147565b60405180910390fd5b612f688383836137ef565b612f7360008261299c565b6001600360008573ffffffffffffffffffffffffffffffffffffffff1673ffffffffffffffffffffffffffffffffffffffff1681526020019081526020016000206000828254612fc3919061576c565b925050819055506001600360008473ffffffffffffffffffffffffffffffffffffffff1673ffffffffffffffffffffffffffffffffffffffff168152602001908152602001600020600082825461301a91906156e5565b92505081905550816002600083815260200190815260200160002060006101000a81548173ffffffffffffffffffffffffffffffffffffffff021916908373ffffffffffffffffffffffffffffffffffffffff160217905550808273ffffffffffffffffffffffffffffffffffffffff168473ffffffffffffffffffffffffffffffffffffffff167fddf252ad1be2c89b69c2b068fc378daa952ba7f163c4a11628f55a4df523b3ef60405160405180910390a46130d98383836137f4565b505050565b6000808473ffffffffffffffffffffffffffffffffffffffff166040518060400160405280601981526020017f7472616e7366657228616464726573732c75696e743235362900000000000000815250805190602001208585604051602401613148929190614fd4565b604051602081830303815290604052907bffffffffffffffffffffffffffffffffffffffffffffffffffffffff19166020820180517bffffffffffffffffffffffffffffffffffffffffffffffffffffffff83818316178352505050506040516131b29190614e2c565b6000604051808303816000865af19150503d80600081146131ef576040519150601f19603f3d011682016040523d82523d6000602084013e6131f4565b606091505b509150915081801561322257506000815114806132215750808060200190518101906132209190614480565b5b5b613261576040517f08c379a000000000000000000000000000000000000000000000000000000000815260040161325890615267565b60405180910390fd5b5050505050565b8173ffffffffffffffffffffffffffffffffffffffff168373ffffffffffffffffffffffffffffffffffffffff1614156132d7576040517f08c379a00000000000000000000000000000000000000000000000000000000081526004016132ce90615167565b60405180910390fd5b80600560008573ffffffffffffffffffffffffffffffffffffffff1673ffffffffffffffffffffffffffffffffffffffff16815260200190815260200160002060008473ffffffffffffffffffffffffffffffffffffffff1673ffffffffffffffffffffffffffffffffffffffff16815260200190815260200160002060006101000a81548160ff0219169083151502179055508173ffffffffffffffffffffffffffffffffffffffff168373ffffffffffffffffffffffffffffffffffffffff167f17307eab39ab6107e8899845ad3d59bd9653f200f220920489ca2b5937696c31836040516133c8919061504f565b60405180910390a3505050565b6133e0848484612e77565b6133ec848484846137f9565b61342b576040517f08c379a0000000000000000000000000000000000000000000000000000000008152600401613422906150c7565b60405180910390fd5b50505050565b606060405180602001604052806000815250905090565b60606000821415613490576040518060400160405280600181526020017f300000000000000000000000000000000000000000000000000000000000000081525090506135f0565b600082905060005b600082146134c25780806134ab906158dc565b915050600a826134bb919061573b565b9150613498565b60008167ffffffffffffffff811115613504577f4e487b7100000000000000000000000000000000000000000000000000000000600052604160045260246000fd5b6040519080825280601f01601f1916602001820160405280156135365781602001600182028036833780820191505090505b5090505b600085146135e95760018261354f919061576c565b9150600a8561355e9190615953565b603061356a91906156e5565b60f81b8183815181106135a6577f4e487b7100000000000000000000000000000000000000000000000000000000600052603260045260246000fd5b60200101907effffffffffffffffffffffffffffffffffffffffffffffffffffffffffffff1916908160001a905350600a856135e2919061573b565b945061353a565b8093505050505b919050565b61360f828260405180602001604052806000815250613990565b5050565b60008073ffffffffffffffffffffffffffffffffffffffff166002600084815260200190815260200160002060009054906101000a900473ffffffffffffffffffffffffffffffffffffffff1673ffffffffffffffffffffffffffffffffffffffff1614159050919050565b6000808573ffffffffffffffffffffffffffffffffffffffff16604051806060016040528060258152602001615eb560259139805190602001208686866040516024016136ce93929190614eca565b604051602081830303815290604052907bffffffffffffffffffffffffffffffffffffffffffffffffffffffff19166020820180517bffffffffffffffffffffffffffffffffffffffffffffffffffffffff83818316178352505050506040516137389190614e2c565b6000604051808303816000865af19150503d8060008114613775576040519150601f19603f3d011682016040523d82523d6000602084013e61377a565b606091505b50915091508180156137a857506000815114806137a75750808060200190518101906137a69190614480565b5b5b6137e7576040517f08c379a00000000000000000000000000000000000000000000000000000000081526004016137de90615287565b60405180910390fd5b505050505050565b505050565b505050565b600061381a8473ffffffffffffffffffffffffffffffffffffffff166139eb565b15613983578373ffffffffffffffffffffffffffffffffffffffff1663150b7a02613843612994565b8786866040518563ffffffff1660e01b81526004016138659493929190614f01565b602060405180830381600087803b15801561387f57600080fd5b505af19250505080156138b057506040513d601f19601f820116820180604052508101906138ad91906144d2565b60015b613933573d80600081146138e0576040519150601f19603f3d011682016040523d82523d6000602084013e6138e5565b606091505b5060008151141561392b576040517f08c379a0000000000000000000000000000000000000000000000000000000008152600401613922906150c7565b60405180910390fd5b805181602001fd5b63150b7a0260e01b7bffffffffffffffffffffffffffffffffffffffffffffffffffffffff1916817bffffffffffffffffffffffffffffffffffffffffffffffffffffffff191614915050613988565b600190505b949350505050565b61399a8383613a0e565b6139a760008484846137f9565b6139e6576040517f08c379a00000000000000000000000000000000000000000000000000000000081526004016139dd906150c7565b60405180910390fd5b505050565b6000808273ffffffffffffffffffffffffffffffffffffffff163b119050919050565b600073ffffffffffffffffffffffffffffffffffffffff168273ffffffffffffffffffffffffffffffffffffffff161415613a7e576040517f08c379a0000000000000000000000000000000000000000000000000000000008152600401613a7590615247565b60405180910390fd5b613a8781613613565b15613ac7576040517f08c379a0000000000000000000000000000000000000000000000000000000008152600401613abe90615107565b60405180910390fd5b613ad3600083836137ef565b6001600360008473ffffffffffffffffffffffffffffffffffffffff1673ffffffffffffffffffffffffffffffffffffffff1681526020019081526020016000206000828254613b2391906156e5565b92505081905550816002600083815260200190815260200160002060006101000a81548173ffffffffffffffffffffffffffffffffffffffff021916908373ffffffffffffffffffffffffffffffffffffffff160217905550808273ffffffffffffffffffffffffffffffffffffffff16600073ffffffffffffffffffffffffffffffffffffffff167fddf252ad1be2c89b69c2b068fc378daa952ba7f163c4a11628f55a4df523b3ef60405160405180910390a4613be4600083836137f4565b5050565b6000613bfb613bf684615596565b615571565b90508083825260208201905082856020860282011115613c1a57600080fd5b60005b85811015613c4a5781613c308882613d13565b845260208401935060208301925050600181019050613c1d565b5050509392505050565b6000613c67613c62846155c2565b615571565b90508083825260208201905082856020860282011115613c8657600080fd5b60005b85811015613cb65781613c9c8882614034565b845260208401935060208301925050600181019050613c89565b5050509392505050565b6000613cd3613cce846155ee565b615571565b905082815260208101848484011115613ceb57600080fd5b613cf6848285615837565b509392505050565b600081359050613d0d81615e2a565b92915050565b600081519050613d2281615e2a565b92915050565b60008083601f840112613d3a57600080fd5b8235905067ffffffffffffffff811115613d5357600080fd5b602083019150836020820283011115613d6b57600080fd5b9250929050565b600082601f830112613d8357600080fd5b8151613d93848260208601613be8565b91505092915050565b60008083601f840112613dae57600080fd5b8235905067ffffffffffffffff811115613dc757600080fd5b602083019150836020820283011115613ddf57600080fd5b9250929050565b600082601f830112613df757600080fd5b8151613e07848260208601613c54565b91505092915050565b600081359050613e1f81615e41565b92915050565b600081519050613e3481615e41565b92915050565b600081359050613e4981615e58565b92915050565b600081519050613e5e81615e58565b92915050565b60008083601f840112613e7657600080fd5b8235905067ffffffffffffffff811115613e8f57600080fd5b602083019150836001820283011115613ea757600080fd5b9250929050565b600082601f830112613ebf57600080fd5b8135613ecf848260208601613cc0565b91505092915050565b600081359050613ee781615e6f565b92915050565b600060c08284031215613eff57600080fd5b81905092915050565b600060c08284031215613f1a57600080fd5b81905092915050565b600060c08284031215613f3557600080fd5b81905092915050565b600060a08284031215613f5057600080fd5b81905092915050565b600060e08284031215613f6b57600080fd5b81905092915050565b600060c08284031215613f8657600080fd5b81905092915050565b600060608284031215613fa157600080fd5b613fab6060615571565b90506000613fbb84828501613cfe565b6000830152506020613fcf84828501613cfe565b6020830152506040613fe38482850161400a565b60408301525092915050565b600060c0828403121561400157600080fd5b81905092915050565b60008135905061401981615e86565b92915050565b60008135905061402e81615e9d565b92915050565b60008151905061404381615e9d565b92915050565b60006020828403121561405b57600080fd5b600061406984828501613cfe565b91505092915050565b6000806040838503121561408557600080fd5b600061409385828601613cfe565b92505060206140a485828601613cfe565b9150509250929050565b6000806000606084860312156140c357600080fd5b60006140d186828701613cfe565b93505060206140e286828701613cfe565b92505060406140f38682870161401f565b9150509250925092565b6000806000806080858703121561411357600080fd5b600061412187828801613cfe565b945050602061413287828801613cfe565b93505060406141438782880161401f565b925050606085013567ffffffffffffffff81111561416057600080fd5b61416c87828801613eae565b91505092959194509250565b6000806040838503121561418b57600080fd5b600061419985828601613cfe565b92505060206141aa85828601613e10565b9150509250929050565b600080600080608085870312156141ca57600080fd5b60006141d887828801613cfe565b94505060206141e98782880161400a565b93505060406141fa87828801613cfe565b925050606061420b8782880161401f565b91505092959194509250565b60008060006060848603121561422c57600080fd5b600061423a86828701613cfe565b935050602061424b8682870161400a565b925050604061425c8682870161401f565b9150509250925092565b6000806040838503121561427957600080fd5b600061428785828601613cfe565b92505060206142988582860161401f565b9150509250929050565b6000806000606084860312156142b757600080fd5b60006142c586828701613cfe565b93505060206142d68682870161401f565b92505060406142e786828701613cfe565b9150509250925092565b60008060008060008060006080888a03121561430c57600080fd5b600088013567ffffffffffffffff81111561432657600080fd5b6143328a828b01613d28565b9750975050602088013567ffffffffffffffff81111561435157600080fd5b61435d8a828b01613d9c565b955095505060406143708a828b01613cfe565b935050606088013567ffffffffffffffff81111561438d57600080fd5b6143998a828b01613e64565b925092505092959891949750929550565b6000602082840312156143bc57600080fd5b600082015167ffffffffffffffff8111156143d657600080fd5b6143e284828501613d72565b91505092915050565b6000602082840312156143fd57600080fd5b600082015167ffffffffffffffff81111561441757600080fd5b61442384828501613de6565b91505092915050565b6000806040838503121561443f57600080fd5b600083015167ffffffffffffffff81111561445957600080fd5b61446585828601613de6565b925050602061447685828601614034565b9150509250929050565b60006020828403121561449257600080fd5b60006144a084828501613e25565b91505092915050565b6000602082840312156144bb57600080fd5b60006144c984828501613e3a565b91505092915050565b6000602082840312156144e457600080fd5b60006144f284828501613e4f565b91505092915050565b60006020828403121561450d57600080fd5b600082013567ffffffffffffffff81111561452757600080fd5b61453384828501613eed565b91505092915050565b600060c0828403121561454e57600080fd5b600061455c84828501613f08565b91505092915050565b60006020828403121561457757600080fd5b600082013567ffffffffffffffff81111561459157600080fd5b61459d84828501613f23565b91505092915050565b600060a082840312156145b857600080fd5b60006145c684828501613f3e565b91505092915050565b6000602082840312156145e157600080fd5b600082013567ffffffffffffffff8111156145fb57600080fd5b61460784828501613f59565b91505092915050565b600060c0828403121561462257600080fd5b600061463084828501613f74565b91505092915050565b60006060828403121561464b57600080fd5b600061465984828501613f8f565b91505092915050565b60006020828403121561467457600080fd5b600082013567ffffffffffffffff81111561468e57600080fd5b61469a84828501613fef565b91505092915050565b6000602082840312156146b557600080fd5b60006146c38482850161400a565b91505092915050565b6000602082840312156146de57600080fd5b60006146ec8482850161401f565b91505092915050565b60006020828403121561470757600080fd5b600061471584828501614034565b91505092915050565b6000806040838503121561473157600080fd5b600061473f8582860161401f565b925050602061475085828601613cfe565b9150509250929050565b60008060008060008060c0878903121561477357600080fd5b600061478189828a01614034565b965050602061479289828a01613d13565b955050604087015167ffffffffffffffff8111156147af57600080fd5b6147bb89828a01613de6565b94505060606147cc89828a01614034565b93505060806147dd89828a01614034565b92505060a06147ee89828a01614034565b9150509295509295509295565b60008060006060848603121561481057600080fd5b600061481e86828701614034565b935050602061482f86828701614034565b925050604084015167ffffffffffffffff81111561484c57600080fd5b61485886828701613de6565b9150509250925092565b600061486e8383614a79565b60208301905092915050565b60006148868383614e0e565b60208301905092915050565b61489b816157a0565b82525050565b6148aa816157a0565b82525050565b6148c16148bc826157a0565b615925565b82525050565b60006148d38385615674565b93506148de8261561f565b8060005b85811015614917576148f482846156ce565b6148fe8882614862565b97506149098361565a565b9250506001810190506148e2565b5085925050509392505050565b60006149308385615685565b93507f07ffffffffffffffffffffffffffffffffffffffffffffffffffffffffffffff83111561495f57600080fd5b602083029250614970838584615837565b82840190509392505050565b600061498782615639565b6149918185615685565b935061499c83615629565b8060005b838110156149cd5781516149b4888261487a565b97506149bf83615667565b9250506001810190506149a0565b5085935050505092915050565b6149e3816157b2565b82525050565b6149f2816157be565b82525050565b614a09614a04826157be565b615937565b82525050565b6000614a1a82615644565b614a248185615696565b9350614a34818560208601615846565b614a3d81615a40565b840191505092915050565b6000614a5382615644565b614a5d81856156a7565b9350614a6d818560208601615846565b80840191505092915050565b614a82816157f4565b82525050565b6000614a938261564f565b614a9d81856156b2565b9350614aad818560208601615846565b614ab681615a40565b840191505092915050565b6000614acc8261564f565b614ad681856156c3565b9350614ae6818560208601615846565b80840191505092915050565b6000614aff6008836156b2565b9150614b0a82615a5e565b602082019050919050565b6000614b226032836156b2565b9150614b2d82615a87565b604082019050919050565b6000614b456025836156b2565b9150614b5082615ad6565b604082019050919050565b6000614b68601c836156b2565b9150614b7382615b25565b602082019050919050565b6000614b8b6010836156b2565b9150614b9682615b4e565b602082019050919050565b6000614bae6024836156b2565b9150614bb982615b77565b604082019050919050565b6000614bd16019836156b2565b9150614bdc82615bc6565b602082019050919050565b6000614bf46005836156b2565b9150614bff82615bef565b602082019050919050565b6000614c176003836156b2565b9150614c2282615c18565b602082019050919050565b6000614c3a6015836156b2565b9150614c4582615c41565b602082019050919050565b6000614c5d6029836156b2565b9150614c6882615c6a565b604082019050919050565b6000614c806009836156b2565b9150614c8b82615cb9565b602082019050919050565b6000614ca36011836156b2565b9150614cae82615ce2565b602082019050919050565b6000614cc66020836156b2565b9150614cd182615d0b565b602082019050919050565b6000614ce96001836156c3565b9150614cf482615d34565b600182019050919050565b6000614d0c6002836156b2565b9150614d1782615d5d565b602082019050919050565b6000614d2f6003836156b2565b9150614d3a82615d86565b602082019050919050565b6000614d526018836156b2565b9150614d5d82615daf565b602082019050919050565b6000614d756007836156b2565b9150614d8082615dd8565b602082019050919050565b6000614d986011836156b2565b9150614da382615e01565b602082019050919050565b606082016000820151614dc46000850182614892565b506020820151614dd76020850182614892565b506040820151614dea6040850182614df0565b50505050565b614df98161581e565b82525050565b614e088161581e565b82525050565b614e178161582d565b82525050565b614e268161582d565b82525050565b6000614e388284614a48565b915081905092915050565b6000614e4f8285614ac1565b9150614e5b8284614ac1565b91508190509392505050565b6000614e7282614cdc565b9150614e7e82866148b0565b601482019150614e8e82856149f8565b602082019150614e9e82846149f8565b602082019150819050949350505050565b6000602082019050614ec460008301846148a1565b92915050565b6000606082019050614edf60008301866148a1565b614eec60208301856148a1565b614ef96040830184614e1d565b949350505050565b6000608082019050614f1660008301876148a1565b614f2360208301866148a1565b614f306040830185614e1d565b8181036060830152614f428184614a0f565b905095945050505050565b6000608082019050614f6260008301896148a1565b8181036020830152614f75818789614924565b90508181036040830152614f8a818587614924565b90508181036060830152614f9e8184614a0f565b9050979650505050505050565b6000604082019050614fc060008301856148a1565b614fcd6020830184614dff565b9392505050565b6000604082019050614fe960008301856148a1565b614ff66020830184614e1d565b9392505050565b60006020820190508181036000830152615017818461497c565b905092915050565b60006040820190508181036000830152615039818561497c565b90506150486020830184614e1d565b9392505050565b600060208201905061506460008301846149da565b92915050565b600060208201905061507f60008301846149e9565b92915050565b6000602082019050818103600083015261509f8184614a88565b905092915050565b600060208201905081810360008301526150c081614af2565b9050919050565b600060208201905081810360008301526150e081614b15565b9050919050565b6000602082019050818103600083015261510081614b38565b9050919050565b6000602082019050818103600083015261512081614b5b565b9050919050565b6000602082019050818103600083015261514081614b7e565b9050919050565b6000602082019050818103600083015261516081614ba1565b9050919050565b6000602082019050818103600083015261518081614bc4565b9050919050565b600060208201905081810360008301526151a081614be7565b9050919050565b600060208201905081810360008301526151c081614c0a565b9050919050565b600060208201905081810360008301526151e081614c2d565b9050919050565b6000602082019050818103600083015261520081614c50565b9050919050565b6000602082019050818103600083015261522081614c73565b9050919050565b6000602082019050818103600083015261524081614c96565b9050919050565b6000602082019050818103600083015261526081614cb9565b9050919050565b6000602082019050818103600083015261528081614cff565b9050919050565b600060208201905081810360008301526152a081614d22565b9050919050565b600060208201905081810360008301526152c081614d45565b9050919050565b600060208201905081810360008301526152e081614d68565b9050919050565b6000602082019050818103600083015261530081614d8b565b9050919050565b600060608201905061531c6000830184614dae565b92915050565b60006020820190506153376000830184614e1d565b92915050565b600060c0820190506153526000830189614e1d565b61535f60208301886148a1565b8181036040830152615371818761497c565b90506153806060830186614e1d565b61538d6080830185614e1d565b61539a60a0830184614e1d565b979650505050505050565b60006040820190506153ba6000830186614e1d565b81810360208301526153cd8184866148c7565b9050949350505050565b60006060820190506153ec6000830187614e1d565b81810360208301526153ff818587614924565b905061540e60408301846148a1565b95945050505050565b600060408201905061542c6000830185614e1d565b6154396020830184614e1d565b9392505050565b60006060820190506154556000830186614e1d565b6154626020830185614e1d565b8181036040830152615474818461497c565b9050949350505050565b60006080820190506154936000830187614e1d565b6154a06020830186614e1d565b6154ad6040830185614e1d565b6154ba6060830184614e1d565b95945050505050565b600080833560016020038436030381126154dc57600080fd5b80840192508235915067ffffffffffffffff8211156154fa57600080fd5b60208301925060208202360383131561551257600080fd5b509250929050565b6000808335600160200384360303811261553357600080fd5b80840192508235915067ffffffffffffffff82111561555157600080fd5b60208301925060208202360383131561556957600080fd5b509250929050565b600061557b61558c565b905061558782826158ab565b919050565b6000604051905090565b600067ffffffffffffffff8211156155b1576155b0615a11565b5b602082029050602081019050919050565b600067ffffffffffffffff8211156155dd576155dc615a11565b5b602082029050602081019050919050565b600067ffffffffffffffff82111561560957615608615a11565b5b61561282615a40565b9050602081019050919050565b6000819050919050565b6000819050602082019050919050565b600081519050919050565b600081519050919050565b600081519050919050565b6000602082019050919050565b6000602082019050919050565b600082825260208201905092915050565b600082825260208201905092915050565b600082825260208201905092915050565b600081905092915050565b600082825260208201905092915050565b600081905092915050565b60006156dd6020840184613ed8565b905092915050565b60006156f08261582d565b91506156fb8361582d565b9250827fffffffffffffffffffffffffffffffffffffffffffffffffffffffffffffffff038211156157305761572f615984565b5b828201905092915050565b60006157468261582d565b91506157518361582d565b925082615761576157606159b3565b5b828204905092915050565b60006157778261582d565b91506157828361582d565b92508282101561579557615794615984565b5b828203905092915050565b60006157ab826157fe565b9050919050565b60008115159050919050565b6000819050919050565b60007fffffffff0000000000000000000000000000000000000000000000000000000082169050919050565b6000819050919050565b600073ffffffffffffffffffffffffffffffffffffffff82169050919050565b600062ffffff82169050919050565b6000819050919050565b82818337600083830152505050565b60005b83811015615864578082015181840152602081019050615849565b83811115615873576000848401525b50505050565b6000600282049050600182168061589157607f821691505b602082108114156158a5576158a46159e2565b5b50919050565b6158b482615a40565b810181811067ffffffffffffffff821117156158d3576158d2615a11565b5b80604052505050565b60006158e78261582d565b91507fffffffffffffffffffffffffffffffffffffffffffffffffffffffffffffffff82141561591a57615919615984565b5b600182019050919050565b600061593082615941565b9050919050565b6000819050919050565b600061594c82615a51565b9050919050565b600061595e8261582d565b91506159698361582d565b925082615979576159786159b3565b5b828206905092915050565b7f4e487b7100000000000000000000000000000000000000000000000000000000600052601160045260246000fd5b7f4e487b7100000000000000000000000000000000000000000000000000000000600052601260045260246000fd5b7f4e487b7100000000000000000000000000000000000000000000000000000000600052602260045260246000fd5b7f4e487b7100000000000000000000000000000000000000000000000000000000600052604160045260246000fd5b6000601f19601f8301169050919050565b60008160601b9050919050565b7f4e4f545f57455448000000000000000000000000000000000000000000000000600082015250565b7f4552433732313a207472616e7366657220746f206e6f6e20455243373231526560008201527f63656976657220696d706c656d656e7465720000000000000000000000000000602082015250565b7f4552433732313a207472616e736665722066726f6d20696e636f72726563742060008201527f6f776e6572000000000000000000000000000000000000000000000000000000602082015250565b7f4552433732313a20746f6b656e20616c7265616479206d696e74656400000000600082015250565b7f7765746842616c203c206d696e416d7400000000000000000000000000000000600082015250565b7f4552433732313a207472616e7366657220746f20746865207a65726f2061646460008201527f7265737300000000000000000000000000000000000000000000000000000000602082015250565b7f4552433732313a20617070726f766520746f2063616c6c657200000000000000600082015250565b7f3c206d696e000000000000000000000000000000000000000000000000000000600082015250565b7f5354450000000000000000000000000000000000000000000000000000000000600082015250565b7f4552433732313a20617070726f7665206f776e65720000000000000000000000600082015250565b7f4552433732313a2061646472657373207a65726f206973206e6f74206120766160008201527f6c6964206f776e65720000000000000000000000000000000000000000000000602082015250565b7f464f5242494444454e0000000000000000000000000000000000000000000000600082015250565b7f4552433732313a20464f5242494444454e000000000000000000000000000000600082015250565b7f4552433732313a206d696e7420746f20746865207a65726f2061646472657373600082015250565b7fff00000000000000000000000000000000000000000000000000000000000000600082015250565b7f5354000000000000000000000000000000000000000000000000000000000000600082015250565b7f5354460000000000000000000000000000000000000000000000000000000000600082015250565b7f4552433732313a20696e76616c696420746f6b656e2049440000000000000000600082015250565b7f4558504952454400000000000000000000000000000000000000000000000000600082015250565b7f746f6b656e42616c203c206d696e416d74000000000000000000000000000000600082015250565b615e33816157a0565b8114615e3e57600080fd5b50565b615e4a816157b2565b8114615e5557600080fd5b50565b615e61816157c8565b8114615e6c57600080fd5b50565b615e78816157f4565b8114615e8357600080fd5b50565b615e8f8161581e565b8114615e9a57600080fd5b50565b615ea68161582d565b8114615eb157600080fd5b5056fe7472616e7366657246726f6d28616464726573732c616464726573732c75696e7432353629a26469706673582212209a61888e039013f2304e085a862b211d2a997f331f9c38467663a9a16134ff7664736f6c63430008040033",
  "linkReferences": {},
  "deployedLinkReferences": {}
}