{
  "_format": "hh-sol-artifact-1",
  "contractName": "PositionManager",
  "sourceName": "contracts/PositionManager.sol",
  "abi": [
    {
      "inputs": [
        {
          "internalType": "address",
          "name": "_factory",
          "type": "address"
        },
        {
          "internalType": "address",
          "name": "_WETH",
          "type": "address"
        },
        {
          "internalType": "bytes32",
          "name": "_initCodeHash",
          "type": "bytes32"
        }
      ],
      "stateMutability": "nonpayable",
      "type": "constructor"
    },
    {
      "anonymous": false,
      "inputs": [
        {
          "indexed": true,
          "internalType": "address",
          "name": "owner",
          "type": "address"
        },
        {
          "indexed": true,
          "internalType": "address",
          "name": "approved",
          "type": "address"
        },
        {
          "indexed": true,
          "internalType": "uint256",
          "name": "tokenId",
          "type": "uint256"
        }
      ],
      "name": "Approval",
      "type": "event"
    },
    {
      "anonymous": false,
      "inputs": [
        {
          "indexed": true,
          "internalType": "address",
          "name": "owner",
          "type": "address"
        },
        {
          "indexed": true,
          "internalType": "address",
          "name": "operator",
          "type": "address"
        },
        {
          "indexed": false,
          "internalType": "bool",
          "name": "approved",
          "type": "bool"
        }
      ],
      "name": "ApprovalForAll",
      "type": "event"
    },
    {
      "anonymous": false,
      "inputs": [
        {
          "indexed": true,
          "internalType": "address",
          "name": "from",
          "type": "address"
        },
        {
          "indexed": true,
          "internalType": "address",
          "name": "to",
          "type": "address"
        },
        {
          "indexed": true,
          "internalType": "uint256",
          "name": "tokenId",
          "type": "uint256"
        }
      ],
      "name": "Transfer",
      "type": "event"
    },
    {
      "inputs": [],
      "name": "WETH",
      "outputs": [
        {
          "internalType": "address",
          "name": "",
          "type": "address"
        }
      ],
      "stateMutability": "view",
      "type": "function"
    },
    {
      "inputs": [
        {
          "internalType": "address",
          "name": "to",
          "type": "address"
        },
        {
          "internalType": "uint256",
          "name": "tokenId",
          "type": "uint256"
        }
      ],
      "name": "approve",
      "outputs": [],
      "stateMutability": "nonpayable",
      "type": "function"
    },
    {
      "inputs": [
        {
          "internalType": "address",
          "name": "owner",
          "type": "address"
        }
      ],
      "name": "balanceOf",
      "outputs": [
        {
          "internalType": "uint256",
          "name": "",
          "type": "uint256"
        }
      ],
      "stateMutability": "view",
      "type": "function"
    },
    {
      "inputs": [
        {
          "components": [
            {
              "internalType": "address",
              "name": "cfmm",
              "type": "address"
            },
            {
              "internalType": "uint24",
              "name": "protocol",
              "type": "uint24"
            },
            {
              "internalType": "uint256",
              "name": "tokenId",
              "type": "uint256"
            },
            {
              "internalType": "uint256",
              "name": "lpTokens",
              "type": "uint256"
            },
            {
              "internalType": "address",
              "name": "to",
              "type": "address"
            },
            {
              "internalType": "uint256",
              "name": "deadline",
              "type": "uint256"
            }
          ],
          "internalType": "struct IPositionManager.BorrowLiquidityParams",
          "name": "params",
          "type": "tuple"
        }
      ],
      "name": "borrowLiquidity",
      "outputs": [
        {
          "internalType": "uint256[]",
          "name": "amounts",
          "type": "uint256[]"
        }
      ],
      "stateMutability": "nonpayable",
      "type": "function"
    },
    {
      "inputs": [
        {
          "internalType": "address",
          "name": "token",
          "type": "address"
        },
        {
          "internalType": "uint256",
          "name": "minAmt",
          "type": "uint256"
        },
        {
          "internalType": "address",
          "name": "to",
          "type": "address"
        }
      ],
      "name": "clearToken",
      "outputs": [],
      "stateMutability": "payable",
      "type": "function"
    },
    {
      "inputs": [
        {
          "internalType": "address",
          "name": "cfmm",
          "type": "address"
        },
        {
          "internalType": "uint24",
          "name": "protocol",
          "type": "uint24"
        },
        {
          "internalType": "address",
          "name": "to",
          "type": "address"
        },
        {
          "internalType": "uint256",
          "name": "deadline",
          "type": "uint256"
        }
      ],
      "name": "createLoan",
      "outputs": [
        {
          "internalType": "uint256",
          "name": "tokenId",
          "type": "uint256"
        }
      ],
      "stateMutability": "nonpayable",
      "type": "function"
    },
    {
      "inputs": [
        {
          "components": [
            {
              "internalType": "address",
              "name": "cfmm",
              "type": "address"
            },
            {
              "internalType": "uint24",
              "name": "protocol",
              "type": "uint24"
            },
            {
              "internalType": "uint256",
              "name": "tokenId",
              "type": "uint256"
            },
            {
              "internalType": "uint256[]",
              "name": "amounts",
              "type": "uint256[]"
            },
            {
              "internalType": "address",
              "name": "to",
              "type": "address"
            },
            {
              "internalType": "uint256",
              "name": "deadline",
              "type": "uint256"
            }
          ],
          "internalType": "struct IPositionManager.AddRemoveCollateralParams",
          "name": "params",
          "type": "tuple"
        }
      ],
      "name": "decreaseCollateral",
      "outputs": [
        {
          "internalType": "uint256[]",
          "name": "tokensHeld",
          "type": "uint256[]"
        }
      ],
      "stateMutability": "nonpayable",
      "type": "function"
    },
    {
      "inputs": [
        {
          "components": [
            {
              "internalType": "address",
              "name": "cfmm",
              "type": "address"
            },
            {
              "internalType": "uint24",
              "name": "protocol",
              "type": "uint24"
            },
            {
              "internalType": "uint256",
              "name": "lpTokens",
              "type": "uint256"
            },
            {
              "internalType": "address",
              "name": "to",
              "type": "address"
            },
            {
              "internalType": "uint256",
              "name": "deadline",
              "type": "uint256"
            }
          ],
          "internalType": "struct IPositionManager.DepositParams",
          "name": "params",
          "type": "tuple"
        }
      ],
      "name": "depositNoPull",
      "outputs": [
        {
          "internalType": "uint256",
          "name": "shares",
          "type": "uint256"
        }
      ],
      "stateMutability": "nonpayable",
      "type": "function"
    },
    {
      "inputs": [
        {
          "components": [
            {
              "internalType": "address",
              "name": "cfmm",
              "type": "address"
            },
            {
              "internalType": "uint256[]",
              "name": "amountsDesired",
              "type": "uint256[]"
            },
            {
              "internalType": "uint256[]",
              "name": "amountsMin",
              "type": "uint256[]"
            },
            {
              "internalType": "address",
              "name": "to",
              "type": "address"
            },
            {
              "internalType": "uint24",
              "name": "protocol",
              "type": "uint24"
            },
            {
              "internalType": "uint256",
              "name": "deadline",
              "type": "uint256"
            }
          ],
          "internalType": "struct IPositionManager.DepositReservesParams",
          "name": "params",
          "type": "tuple"
        }
      ],
      "name": "depositReserves",
      "outputs": [
        {
          "internalType": "uint256[]",
          "name": "reserves",
          "type": "uint256[]"
        },
        {
          "internalType": "uint256",
          "name": "shares",
          "type": "uint256"
        }
      ],
      "stateMutability": "nonpayable",
      "type": "function"
    },
    {
      "inputs": [],
      "name": "factory",
      "outputs": [
        {
          "internalType": "address",
          "name": "",
          "type": "address"
        }
      ],
      "stateMutability": "view",
      "type": "function"
    },
    {
      "inputs": [
        {
          "internalType": "uint256",
          "name": "tokenId",
          "type": "uint256"
        }
      ],
      "name": "getApproved",
      "outputs": [
        {
          "internalType": "address",
          "name": "",
          "type": "address"
        }
      ],
      "stateMutability": "view",
      "type": "function"
    },
    {
      "inputs": [
        {
          "components": [
            {
              "internalType": "address",
              "name": "cfmm",
              "type": "address"
            },
            {
              "internalType": "uint24",
              "name": "protocol",
              "type": "uint24"
            },
            {
              "internalType": "uint256",
              "name": "tokenId",
              "type": "uint256"
            },
            {
              "internalType": "uint256[]",
              "name": "amounts",
              "type": "uint256[]"
            },
            {
              "internalType": "address",
              "name": "to",
              "type": "address"
            },
            {
              "internalType": "uint256",
              "name": "deadline",
              "type": "uint256"
            }
          ],
          "internalType": "struct IPositionManager.AddRemoveCollateralParams",
          "name": "params",
          "type": "tuple"
        }
      ],
      "name": "increaseCollateral",
      "outputs": [
        {
          "internalType": "uint256[]",
          "name": "tokensHeld",
          "type": "uint256[]"
        }
      ],
      "stateMutability": "nonpayable",
      "type": "function"
    },
    {
      "inputs": [],
      "name": "initCodeHash",
      "outputs": [
        {
          "internalType": "bytes32",
          "name": "",
          "type": "bytes32"
        }
      ],
      "stateMutability": "view",
      "type": "function"
    },
    {
      "inputs": [
        {
          "internalType": "address",
          "name": "owner",
          "type": "address"
        },
        {
          "internalType": "address",
          "name": "operator",
          "type": "address"
        }
      ],
      "name": "isApprovedForAll",
      "outputs": [
        {
          "internalType": "bool",
          "name": "",
          "type": "bool"
        }
      ],
      "stateMutability": "view",
      "type": "function"
    },
    {
      "inputs": [
        {
          "internalType": "address",
          "name": "cfmm",
          "type": "address"
        },
        {
          "internalType": "uint24",
          "name": "protocol",
          "type": "uint24"
        },
        {
          "internalType": "uint256",
          "name": "tokenId",
          "type": "uint256"
        }
      ],
      "name": "loan",
      "outputs": [
        {
          "internalType": "uint256",
          "name": "id",
          "type": "uint256"
        },
        {
          "internalType": "address",
          "name": "poolId",
          "type": "address"
        },
        {
          "internalType": "uint256[]",
          "name": "tokensHeld",
          "type": "uint256[]"
        },
        {
          "internalType": "uint256",
          "name": "liquidity",
          "type": "uint256"
        },
        {
          "internalType": "uint256",
          "name": "rateIndex",
          "type": "uint256"
        },
        {
          "internalType": "uint256",
          "name": "blockNum",
          "type": "uint256"
        }
      ],
      "stateMutability": "view",
      "type": "function"
    },
    {
      "inputs": [],
      "name": "name",
      "outputs": [
        {
          "internalType": "string",
          "name": "",
          "type": "string"
        }
      ],
      "stateMutability": "view",
      "type": "function"
    },
    {
      "inputs": [],
      "name": "owner",
      "outputs": [
        {
          "internalType": "address",
          "name": "",
          "type": "address"
        }
      ],
      "stateMutability": "view",
      "type": "function"
    },
    {
      "inputs": [
        {
          "internalType": "uint256",
          "name": "tokenId",
          "type": "uint256"
        }
      ],
      "name": "ownerOf",
      "outputs": [
        {
          "internalType": "address",
          "name": "",
          "type": "address"
        }
      ],
      "stateMutability": "view",
      "type": "function"
    },
    {
      "inputs": [
        {
          "components": [
            {
              "internalType": "address",
              "name": "cfmm",
              "type": "address"
            },
            {
              "internalType": "uint24",
              "name": "protocol",
              "type": "uint24"
            },
            {
              "internalType": "uint256",
              "name": "tokenId",
              "type": "uint256"
            },
            {
              "internalType": "int256[]",
              "name": "deltas",
              "type": "int256[]"
            },
            {
              "internalType": "uint256",
              "name": "liquidity",
              "type": "uint256"
            },
            {
              "internalType": "address",
              "name": "to",
              "type": "address"
            },
            {
              "internalType": "uint256",
              "name": "deadline",
              "type": "uint256"
            }
          ],
          "internalType": "struct IPositionManager.RebalanceCollateralParams",
          "name": "params",
          "type": "tuple"
        }
      ],
      "name": "rebalanceCollateral",
      "outputs": [
        {
          "internalType": "uint256[]",
          "name": "tokensHeld",
          "type": "uint256[]"
        }
      ],
      "stateMutability": "nonpayable",
      "type": "function"
    },
    {
      "inputs": [
        {
          "components": [
            {
              "internalType": "address",
              "name": "cfmm",
              "type": "address"
            },
            {
              "internalType": "uint24",
              "name": "protocol",
              "type": "uint24"
            },
            {
              "internalType": "uint256",
              "name": "tokenId",
              "type": "uint256"
            },
            {
              "internalType": "int256[]",
              "name": "deltas",
              "type": "int256[]"
            },
            {
              "internalType": "uint256",
              "name": "liquidity",
              "type": "uint256"
            },
            {
              "internalType": "address",
              "name": "to",
              "type": "address"
            },
            {
              "internalType": "uint256",
              "name": "deadline",
              "type": "uint256"
            }
          ],
          "internalType": "struct IPositionManager.RebalanceCollateralParams",
          "name": "params",
          "type": "tuple"
        }
      ],
      "name": "rebalanceCollateralWithLiquidity",
      "outputs": [
        {
          "internalType": "uint256[]",
          "name": "tokensHeld",
          "type": "uint256[]"
        }
      ],
      "stateMutability": "nonpayable",
      "type": "function"
    },
    {
      "inputs": [],
      "name": "refundETH",
      "outputs": [],
      "stateMutability": "payable",
      "type": "function"
    },
    {
      "inputs": [
        {
          "components": [
            {
              "internalType": "address",
              "name": "cfmm",
              "type": "address"
            },
            {
              "internalType": "uint24",
              "name": "protocol",
              "type": "uint24"
            },
            {
              "internalType": "uint256",
              "name": "tokenId",
              "type": "uint256"
            },
            {
              "internalType": "uint256",
              "name": "liquidity",
              "type": "uint256"
            },
            {
              "internalType": "address",
              "name": "to",
              "type": "address"
            },
            {
              "internalType": "uint256",
              "name": "deadline",
              "type": "uint256"
            }
          ],
          "internalType": "struct IPositionManager.RepayLiquidityParams",
          "name": "params",
          "type": "tuple"
        }
      ],
      "name": "repayLiquidity",
      "outputs": [
        {
          "internalType": "uint256",
          "name": "liquidityPaid",
          "type": "uint256"
        },
        {
          "internalType": "uint256",
          "name": "lpTokensPaid",
          "type": "uint256"
        },
        {
          "internalType": "uint256[]",
          "name": "amounts",
          "type": "uint256[]"
        }
      ],
      "stateMutability": "nonpayable",
      "type": "function"
    },
    {
      "inputs": [
        {
          "internalType": "address",
          "name": "from",
          "type": "address"
        },
        {
          "internalType": "address",
          "name": "to",
          "type": "address"
        },
        {
          "internalType": "uint256",
          "name": "tokenId",
          "type": "uint256"
        }
      ],
      "name": "safeTransferFrom",
      "outputs": [],
      "stateMutability": "nonpayable",
      "type": "function"
    },
    {
      "inputs": [
        {
          "internalType": "address",
          "name": "from",
          "type": "address"
        },
        {
          "internalType": "address",
          "name": "to",
          "type": "address"
        },
        {
          "internalType": "uint256",
          "name": "tokenId",
          "type": "uint256"
        },
        {
          "internalType": "bytes",
          "name": "data",
          "type": "bytes"
        }
      ],
      "name": "safeTransferFrom",
      "outputs": [],
      "stateMutability": "nonpayable",
      "type": "function"
    },
    {
      "inputs": [
        {
          "internalType": "address[]",
          "name": "tokens",
          "type": "address[]"
        },
        {
          "internalType": "uint256[]",
          "name": "amounts",
          "type": "uint256[]"
        },
        {
          "internalType": "address",
          "name": "payee",
          "type": "address"
        },
        {
          "internalType": "bytes",
          "name": "data",
          "type": "bytes"
        }
      ],
      "name": "sendTokensCallback",
      "outputs": [],
      "stateMutability": "nonpayable",
      "type": "function"
    },
    {
      "inputs": [
        {
          "internalType": "address",
          "name": "operator",
          "type": "address"
        },
        {
          "internalType": "bool",
          "name": "approved",
          "type": "bool"
        }
      ],
      "name": "setApprovalForAll",
      "outputs": [],
      "stateMutability": "nonpayable",
      "type": "function"
    },
    {
      "inputs": [
        {
          "internalType": "bytes4",
          "name": "interfaceId",
          "type": "bytes4"
        }
      ],
      "name": "supportsInterface",
      "outputs": [
        {
          "internalType": "bool",
          "name": "",
          "type": "bool"
        }
      ],
      "stateMutability": "view",
      "type": "function"
    },
    {
      "inputs": [],
      "name": "symbol",
      "outputs": [
        {
          "internalType": "string",
          "name": "",
          "type": "string"
        }
      ],
      "stateMutability": "view",
      "type": "function"
    },
    {
      "inputs": [
        {
          "internalType": "uint256",
          "name": "tokenId",
          "type": "uint256"
        }
      ],
      "name": "tokenURI",
      "outputs": [
        {
          "internalType": "string",
          "name": "",
          "type": "string"
        }
      ],
      "stateMutability": "view",
      "type": "function"
    },
    {
      "inputs": [
        {
          "internalType": "address",
          "name": "from",
          "type": "address"
        },
        {
          "internalType": "address",
          "name": "to",
          "type": "address"
        },
        {
          "internalType": "uint256",
          "name": "tokenId",
          "type": "uint256"
        }
      ],
      "name": "transferFrom",
      "outputs": [],
      "stateMutability": "nonpayable",
      "type": "function"
    },
    {
      "inputs": [
        {
          "internalType": "uint256",
          "name": "minAmt",
          "type": "uint256"
        },
        {
          "internalType": "address",
          "name": "to",
          "type": "address"
        }
      ],
      "name": "unwrapWETH",
      "outputs": [],
      "stateMutability": "payable",
      "type": "function"
    },
    {
      "inputs": [
        {
          "components": [
            {
              "internalType": "address",
              "name": "cfmm",
              "type": "address"
            },
            {
              "internalType": "uint24",
              "name": "protocol",
              "type": "uint24"
            },
            {
              "internalType": "uint256",
              "name": "lpTokens",
              "type": "uint256"
            },
            {
              "internalType": "address",
              "name": "to",
              "type": "address"
            },
            {
              "internalType": "uint256",
              "name": "deadline",
              "type": "uint256"
            }
          ],
          "internalType": "struct IPositionManager.WithdrawParams",
          "name": "params",
          "type": "tuple"
        }
      ],
      "name": "withdrawNoPull",
      "outputs": [
        {
          "internalType": "uint256",
          "name": "assets",
          "type": "uint256"
        }
      ],
      "stateMutability": "nonpayable",
      "type": "function"
    },
    {
      "inputs": [
        {
          "components": [
            {
              "internalType": "address",
              "name": "cfmm",
              "type": "address"
            },
            {
              "internalType": "uint24",
              "name": "protocol",
              "type": "uint24"
            },
            {
              "internalType": "uint256",
              "name": "amount",
              "type": "uint256"
            },
            {
              "internalType": "uint256[]",
              "name": "amountsMin",
              "type": "uint256[]"
            },
            {
              "internalType": "address",
              "name": "to",
              "type": "address"
            },
            {
              "internalType": "uint256",
              "name": "deadline",
              "type": "uint256"
            }
          ],
          "internalType": "struct IPositionManager.WithdrawReservesParams",
          "name": "params",
          "type": "tuple"
        }
      ],
      "name": "withdrawReserves",
      "outputs": [
        {
          "internalType": "uint256[]",
          "name": "reserves",
          "type": "uint256[]"
        },
        {
          "internalType": "uint256",
          "name": "assets",
          "type": "uint256"
        }
      ],
      "stateMutability": "nonpayable",
      "type": "function"
    },
    {
      "stateMutability": "payable",
      "type": "receive"
    }
  ],
  "bytecode": "0x60c06040523480156200001157600080fd5b506040516200607e3803806200607e833981810160405281019062000037919062000276565b6040518060400160405280600f81526020017f506f736974696f6e4d616e6167657200000000000000000000000000000000008152506040518060400160405280600a81526020017f504f532d4d47522d563100000000000000000000000000000000000000000000815250838073ffffffffffffffffffffffffffffffffffffffff1660808173ffffffffffffffffffffffffffffffffffffffff1660601b81525050508160009080519060200190620000f492919062000198565b5080600190805190602001906200010d92919062000198565b5050508273ffffffffffffffffffffffffffffffffffffffff1660a08173ffffffffffffffffffffffffffffffffffffffff1660601b8152505033600660006101000a81548173ffffffffffffffffffffffffffffffffffffffff021916908373ffffffffffffffffffffffffffffffffffffffff16021790555080600781905550505050620003a3565b828054620001a6906200030a565b90600052602060002090601f016020900481019282620001ca576000855562000216565b82601f10620001e557805160ff191683800117855562000216565b8280016001018555821562000216579182015b8281111562000215578251825591602001919060010190620001f8565b5b50905062000225919062000229565b5090565b5b80821115620002445760008160009055506001016200022a565b5090565b60008151905062000259816200036f565b92915050565b600081519050620002708162000389565b92915050565b6000806000606084860312156200028c57600080fd5b60006200029c8682870162000248565b9350506020620002af8682870162000248565b9250506040620002c2868287016200025f565b9150509250925092565b6000620002d982620002ea565b9050919050565b6000819050919050565b600073ffffffffffffffffffffffffffffffffffffffff82169050919050565b600060028204905060018216806200032357607f821691505b602082108114156200033a576200033962000340565b5b50919050565b7f4e487b7100000000000000000000000000000000000000000000000000000000600052602260045260246000fd5b6200037a81620002cc565b81146200038657600080fd5b50565b6200039481620002e0565b8114620003a057600080fd5b50565b60805160601c60a05160601c615c2a6200045460003960008181610c1001528181610cfd01528181610e2d01528181611092015281816111cc015281816113ad01528181611589015281816119d901528181611c4501528181611ce001528181611fea015281816121c4015281816122d8015261241a0152600081816101f90152818161199e01528181611daf01528181611ea60152818161286d015281816128cd01526129510152615c2a6000f3fe6080604052600436106101f25760003560e01c806370a082311161010d578063c87b56dd116100a0578063e985e9c51161006f578063e985e9c5146107e5578063eb1b69bf14610822578063ed83bfff14610860578063f164aa861461089f578063f53b4cf1146108dc57610287565b8063c87b56dd14610724578063c9e9def414610761578063db4c545e1461079e578063e16d9ce5146107c957610287565b8063ad5c4648116100dc578063ad5c464814610667578063b82019fb14610692578063b88d4fde146106d0578063c45a0155146106f957610287565b806370a08231146105ab5780638da5cb5b146105e857806395d89b4114610613578063a22cb4651461063e57610287565b806323b872dd116101855780634f202ceb116101545780634f202ceb146104cb5780636352211e146105085780636464a1eb14610545578063678004791461056e57610287565b806323b872dd146104205780632838a94f146104495780633fce4d9e1461046557806342842e0e146104a257610287565b806312210e8a116101c157806312210e8a1461035a57806315fa68d5146103645780631e7481d5146103a657806321892368146103e357610287565b806301ffc9a71461028c57806306fdde03146102c9578063081812fc146102f4578063095ea7b31461033157610287565b36610287577f000000000000000000000000000000000000000000000000000000000000000073ffffffffffffffffffffffffffffffffffffffff163373ffffffffffffffffffffffffffffffffffffffff1614610285576040517f08c379a000000000000000000000000000000000000000000000000000000000815260040161027c90614d4c565b60405180910390fd5b005b600080fd5b34801561029857600080fd5b506102b360048036038101906102ae9190614102565b610919565b6040516102c09190614cf4565b60405180910390f35b3480156102d557600080fd5b506102de6109fb565b6040516102eb9190614d2a565b60405180910390f35b34801561030057600080fd5b5061031b6004803603810190610316919061434e565b610a8d565b6040516103289190614b54565b60405180910390f35b34801561033d57600080fd5b5061035860048036038101906103539190613ebf565b610ad3565b005b610362610beb565b005b34801561037057600080fd5b5061038b60048036038101906103869190613e70565b610c01565b60405161039d96959493929190615002565b60405180910390f35b3480156103b257600080fd5b506103cd60048036038101906103c891906142bb565b610ce6565b6040516103da9190614fe7565b60405180910390f35b3480156103ef57600080fd5b5061040a60048036038101906104059190614195565b610e0a565b6040516104179190614ca2565b60405180910390f35b34801561042c57600080fd5b5061044760048036038101906104429190613d07565b610f24565b005b610463600480360381019061045e9190613efb565b610f84565b005b34801561047157600080fd5b5061048c60048036038101906104879190614228565b61106f565b6040516104999190614ca2565b60405180910390f35b3480156104ae57600080fd5b506104c960048036038101906104c49190613d07565b611189565b005b3480156104d757600080fd5b506104f260048036038101906104ed9190614154565b6111a9565b6040516104ff9190614ca2565b60405180910390f35b34801561051457600080fd5b5061052f600480360381019061052a919061434e565b6112e3565b60405161053c9190614b54565b60405180910390f35b34801561055157600080fd5b5061056c60048036038101906105679190613f4a565b611395565b005b34801561057a57600080fd5b5061059560048036038101906105909190614154565b611564565b6040516105a29190614ca2565b60405180910390f35b3480156105b757600080fd5b506105d260048036038101906105cd9190613ca2565b611816565b6040516105df9190614fe7565b60405180910390f35b3480156105f457600080fd5b506105fd6118ce565b60405161060a9190614b54565b60405180910390f35b34801561061f57600080fd5b506106286118f4565b6040516106359190614d2a565b60405180910390f35b34801561064a57600080fd5b5061066560048036038101906106609190613dd1565b611986565b005b34801561067357600080fd5b5061067c61199c565b6040516106899190614b54565b60405180910390f35b34801561069e57600080fd5b506106b960048036038101906106b491906142e4565b6119c0565b6040516106c7929190614cc4565b60405180910390f35b3480156106dc57600080fd5b506106f760048036038101906106f29190613d56565b611be1565b005b34801561070557600080fd5b5061070e611c43565b60405161071b9190614b54565b60405180910390f35b34801561073057600080fd5b5061074b6004803603810190610746919061434e565b611c67565b6040516107589190614d2a565b60405180910390f35b34801561076d57600080fd5b5061078860048036038101906107839190613e0d565b611ccf565b6040516107959190614fe7565b60405180910390f35b3480156107aa57600080fd5b506107b3611da5565b6040516107c09190614d0f565b60405180910390f35b6107e360048036038101906107de91906143a0565b611dab565b005b3480156107f157600080fd5b5061080c60048036038101906108079190613ccb565b611f3f565b6040516108199190614cf4565b60405180910390f35b34801561082e57600080fd5b50610849600480360381019061084491906141e7565b611fd3565b604051610857929190614cc4565b60405180910390f35b34801561086c57600080fd5b5061088760048036038101906108829190614269565b61219e565b60405161089693929190615105565b60405180910390f35b3480156108ab57600080fd5b506108c660048036038101906108c191906141be565b6122c1565b6040516108d39190614fe7565b60405180910390f35b3480156108e857600080fd5b5061090360048036038101906108fe9190614228565b6123f7565b6040516109109190614ca2565b60405180910390f35b60007f80ac58cd000000000000000000000000000000000000000000000000000000007bffffffffffffffffffffffffffffffffffffffffffffffffffffffff1916827bffffffffffffffffffffffffffffffffffffffffffffffffffffffff191614806109e457507f5b5e139f000000000000000000000000000000000000000000000000000000007bffffffffffffffffffffffffffffffffffffffffffffffffffffffff1916827bffffffffffffffffffffffffffffffffffffffffffffffffffffffff1916145b806109f457506109f38261251d565b5b9050919050565b606060008054610a0a906154f9565b80601f0160208091040260200160405190810160405280929190818152602001828054610a36906154f9565b8015610a835780601f10610a5857610100808354040283529160200191610a83565b820191906000526020600020905b815481529060010190602001808311610a6657829003601f168201915b5050505050905090565b6000610a9882612587565b6004600083815260200190815260200160002060009054906101000a900473ffffffffffffffffffffffffffffffffffffffff169050919050565b6000610ade826112e3565b90508073ffffffffffffffffffffffffffffffffffffffff168373ffffffffffffffffffffffffffffffffffffffff161415610b4f576040517f08c379a0000000000000000000000000000000000000000000000000000000008152600401610b4690614f4c565b60405180910390fd5b8073ffffffffffffffffffffffffffffffffffffffff16610b6e6125d2565b73ffffffffffffffffffffffffffffffffffffffff161480610b9d5750610b9c81610b976125d2565b611f3f565b5b610bdc576040517f08c379a0000000000000000000000000000000000000000000000000000000008152600401610bd390614eac565b60405180910390fd5b610be683836125da565b505050565b6000471115610bff57610bfe3347612693565b5b565b60008060606000806000610c417f0000000000000000000000000000000000000000000000000000000000000000610c398b8b6127b9565b6007546127ec565b73ffffffffffffffffffffffffffffffffffffffff1663365a5306886040518263ffffffff1660e01b8152600401610c799190614fe7565b60006040518083038186803b158015610c9157600080fd5b505afa158015610ca5573d6000803e3d6000fd5b505050506040513d6000823e3d601f19601f82011682018060405250810190610cce91906143dc565b95509550955095509550955093975093979195509350565b60008160800135610cf681612825565b6000610d527f0000000000000000000000000000000000000000000000000000000000000000610d4a866000016020810190610d329190613ca2565b876020016020810190610d459190614325565b6127b9565b6007546127ec565b9050610d64813383876040013561286b565b8073ffffffffffffffffffffffffffffffffffffffff1663192fdf10856060016020810190610d939190613ca2565b6040518263ffffffff1660e01b8152600401610daf9190614b54565b602060405180830381600087803b158015610dc957600080fd5b505af1158015610ddd573d6000803e3d6000fd5b505050506040513d601f19601f82011682018060405250810190610e019190614377565b92505050919050565b60608160400135610e1a816129d4565b8260a00135610e2881612825565b610e827f0000000000000000000000000000000000000000000000000000000000000000610e7a866000016020810190610e629190613ca2565b876020016020810190610e759190614325565b6127b9565b6007546127ec565b73ffffffffffffffffffffffffffffffffffffffff166328cad17f856040013586606001356040518363ffffffff1660e01b8152600401610ec49291906150dc565b600060405180830381600087803b158015610ede57600080fd5b505af1158015610ef2573d6000803e3d6000fd5b505050506040513d6000823e3d601f19601f82011682018060405250810190610f1b9190614044565b92505050919050565b610f35610f2f6125d2565b82612a20565b610f74576040517f08c379a0000000000000000000000000000000000000000000000000000000008152600401610f6b90614fac565b60405180910390fd5b610f7f838383612ab5565b505050565b60008373ffffffffffffffffffffffffffffffffffffffff166370a08231306040518263ffffffff1660e01b8152600401610fbf9190614b54565b60206040518083038186803b158015610fd757600080fd5b505afa158015610feb573d6000803e3d6000fd5b505050506040513d601f19601f8201168201806040525081019061100f9190614377565b905082811015611054576040517f08c379a000000000000000000000000000000000000000000000000000000000815260040161104b90614f8c565b60405180910390fd5b600081111561106957611068848383612d1c565b5b50505050565b6060816040013561107f816129d4565b8260c0013561108d81612825565b6110e77f00000000000000000000000000000000000000000000000000000000000000006110df8660000160208101906110c79190613ca2565b8760200160208101906110da9190614325565b6127b9565b6007546127ec565b73ffffffffffffffffffffffffffffffffffffffff16631931b913856040013586608001356040518363ffffffff1660e01b81526004016111299291906150dc565b600060405180830381600087803b15801561114357600080fd5b505af1158015611157573d6000803e3d6000fd5b505050506040513d6000823e3d601f19601f820116820180604052508101906111809190614044565b92505050919050565b6111a483838360405180602001604052806000815250611be1565b505050565b606081604001356111b9816129d4565b8260a001356111c781612825565b6112217f00000000000000000000000000000000000000000000000000000000000000006112198660000160208101906112019190613ca2565b8760200160208101906112149190614325565b6127b9565b6007546127ec565b73ffffffffffffffffffffffffffffffffffffffff1663ea940b1d8560400135868060600190611251919061519a565b8860800160208101906112649190613ca2565b6040518563ffffffff1660e01b8152600401611283949392919061509c565b600060405180830381600087803b15801561129d57600080fd5b505af11580156112b1573d6000803e3d6000fd5b505050506040513d6000823e3d601f19601f820116820180604052508101906112da9190614044565b92505050919050565b6000806002600084815260200190815260200160002060009054906101000a900473ffffffffffffffffffffffffffffffffffffffff169050600073ffffffffffffffffffffffffffffffffffffffff168173ffffffffffffffffffffffffffffffffffffffff16141561138c576040517f08c379a000000000000000000000000000000000000000000000000000000000815260040161138390614f2c565b60405180910390fd5b80915050919050565b600082828101906113a69190614292565b90506113e67f00000000000000000000000000000000000000000000000000000000000000006113de836020015184604001516127b9565b6007546127ec565b73ffffffffffffffffffffffffffffffffffffffff163373ffffffffffffffffffffffffffffffffffffffff1614611453576040517f08c379a000000000000000000000000000000000000000000000000000000000815260040161144a90614e8c565b60405180910390fd5b60005b8888905081101561155957600087878381811061149c577f4e487b7100000000000000000000000000000000000000000000000000000000600052603260045260246000fd5b905060200201351115611546576115458989838181106114e5577f4e487b7100000000000000000000000000000000000000000000000000000000600052603260045260246000fd5b90506020020160208101906114fa9190613ca2565b8360000151878a8a86818110611539577f4e487b7100000000000000000000000000000000000000000000000000000000600052603260045260246000fd5b9050602002013561286b565b5b80806115519061555c565b915050611456565b505050505050505050565b60608160400135611574816129d4565b8260a0013561158281612825565b60006115de7f00000000000000000000000000000000000000000000000000000000000000006115d68760000160208101906115be9190613ca2565b8860200160208101906115d19190614325565b6127b9565b6007546127ec565b905060008173ffffffffffffffffffffffffffffffffffffffff16639d63848a6040518163ffffffff1660e01b815260040160006040518083038186803b15801561162857600080fd5b505afa15801561163c573d6000803e3d6000fd5b505050506040513d6000823e3d601f19601f820116820180604052508101906116659190614003565b905060005b8151811015611776576000878060600190611685919061519a565b838181106116bc577f4e487b7100000000000000000000000000000000000000000000000000000000600052603260045260246000fd5b90506020020135111561176357611762828281518110611705577f4e487b7100000000000000000000000000000000000000000000000000000000600052603260045260246000fd5b602002602001015133858a806060019061171f919061519a565b86818110611756577f4e487b7100000000000000000000000000000000000000000000000000000000600052603260045260246000fd5b9050602002013561286b565b5b808061176e9061555c565b91505061166a565b508173ffffffffffffffffffffffffffffffffffffffff1663b8a8383487604001356040518263ffffffff1660e01b81526004016117b49190614fe7565b600060405180830381600087803b1580156117ce57600080fd5b505af11580156117e2573d6000803e3d6000fd5b505050506040513d6000823e3d601f19601f8201168201806040525081019061180b9190614044565b945050505050919050565b60008073ffffffffffffffffffffffffffffffffffffffff168273ffffffffffffffffffffffffffffffffffffffff161415611887576040517f08c379a000000000000000000000000000000000000000000000000000000000815260040161187e90614e6c565b60405180910390fd5b600360008373ffffffffffffffffffffffffffffffffffffffff1673ffffffffffffffffffffffffffffffffffffffff168152602001908152602001600020549050919050565b600660009054906101000a900473ffffffffffffffffffffffffffffffffffffffff1681565b606060018054611903906154f9565b80601f016020809104026020016040519081016040528092919081815260200182805461192f906154f9565b801561197c5780601f106119515761010080835404028352916020019161197c565b820191906000526020600020905b81548152906001019060200180831161195f57829003601f168201915b5050505050905090565b6119986119916125d2565b8383612ea6565b5050565b7f000000000000000000000000000000000000000000000000000000000000000081565b606060008260a001356119d281612825565b6000611a2e7f0000000000000000000000000000000000000000000000000000000000000000611a26876000016020810190611a0e9190613ca2565b886020016020810190611a219190614325565b6127b9565b6007546127ec565b9050611a40813383886040013561286b565b8073ffffffffffffffffffffffffffffffffffffffff16630cfba8eb866080016020810190611a6f9190613ca2565b6040518263ffffffff1660e01b8152600401611a8b9190614b54565b600060405180830381600087803b158015611aa557600080fd5b505af1158015611ab9573d6000803e3d6000fd5b505050506040513d6000823e3d601f19601f82011682018060405250810190611ae29190614085565b809450819550505060005b8451811015611bd957858060600190611b06919061519a565b82818110611b3d577f4e487b7100000000000000000000000000000000000000000000000000000000600052603260045260246000fd5b90506020020135858281518110611b7d577f4e487b7100000000000000000000000000000000000000000000000000000000600052603260045260246000fd5b60200260200101511015611bc6576040517f08c379a0000000000000000000000000000000000000000000000000000000008152600401611bbd90614dec565b60405180910390fd5b8080611bd19061555c565b915050611aed565b505050915091565b611bf2611bec6125d2565b83612a20565b611c31576040517f08c379a0000000000000000000000000000000000000000000000000000000008152600401611c2890614fac565b60405180910390fd5b611c3d84848484613013565b50505050565b7f000000000000000000000000000000000000000000000000000000000000000081565b6060611c7282612587565b6000611c7c61306f565b90506000815111611c9c5760405180602001604052806000815250611cc7565b80611ca684613086565b604051602001611cb7929190614ae8565b6040516020818303038152906040525b915050919050565b600081611cdb81612825565b611d117f0000000000000000000000000000000000000000000000000000000000000000611d0988886127b9565b6007546127ec565b73ffffffffffffffffffffffffffffffffffffffff166365ec1a456040518163ffffffff1660e01b8152600401602060405180830381600087803b158015611d5857600080fd5b505af1158015611d6c573d6000803e3d6000fd5b505050506040513d601f19601f82011682018060405250810190611d909190614377565b9150611d9c8483613233565b50949350505050565b60075481565b60007f000000000000000000000000000000000000000000000000000000000000000073ffffffffffffffffffffffffffffffffffffffff166370a08231306040518263ffffffff1660e01b8152600401611e069190614b54565b60206040518083038186803b158015611e1e57600080fd5b505afa158015611e32573d6000803e3d6000fd5b505050506040513d601f19601f82011682018060405250810190611e569190614377565b905082811015611e9b576040517f08c379a0000000000000000000000000000000000000000000000000000000008152600401611e9290614dcc565b60405180910390fd5b6000811115611f3a577f000000000000000000000000000000000000000000000000000000000000000073ffffffffffffffffffffffffffffffffffffffff16632e1a7d4d826040518263ffffffff1660e01b8152600401611efd9190614fe7565b600060405180830381600087803b158015611f1757600080fd5b505af1158015611f2b573d6000803e3d6000fd5b50505050611f398282612693565b5b505050565b6000600560008473ffffffffffffffffffffffffffffffffffffffff1673ffffffffffffffffffffffffffffffffffffffff16815260200190815260200160002060008373ffffffffffffffffffffffffffffffffffffffff1673ffffffffffffffffffffffffffffffffffffffff16815260200190815260200160002060009054906101000a900460ff16905092915050565b606060008260a00135611fe581612825565b61203f7f000000000000000000000000000000000000000000000000000000000000000061203786600001602081019061201f9190613ca2565b8760800160208101906120329190614325565b6127b9565b6007546127ec565b73ffffffffffffffffffffffffffffffffffffffff166354fe2a9685600001602081019061206d9190613ca2565b86806020019061207d919061519a565b88806040019061208d919061519a565b60405180606001604052803373ffffffffffffffffffffffffffffffffffffffff1681526020018c60000160208101906120c79190613ca2565b73ffffffffffffffffffffffffffffffffffffffff1681526020018c60800160208101906120f59190614325565b62ffffff1681525060405160200161210d9190614fcc565b6040516020818303038152906040526040518763ffffffff1660e01b815260040161213d96959493929190614bf2565b600060405180830381600087803b15801561215757600080fd5b505af115801561216b573d6000803e3d6000fd5b505050506040513d6000823e3d601f19601f820116820180604052508101906121949190614085565b9250925050915091565b600080606083604001356121b1816129d4565b8460a001356121bf81612825565b6122197f00000000000000000000000000000000000000000000000000000000000000006122118860000160208101906121f99190613ca2565b89602001602081019061220c9190614325565b6127b9565b6007546127ec565b73ffffffffffffffffffffffffffffffffffffffff1663db02f9cb876040013588606001356040518363ffffffff1660e01b815260040161225b9291906150dc565b600060405180830381600087803b15801561227557600080fd5b505af1158015612289573d6000803e3d6000fd5b505050506040513d6000823e3d601f19601f820116820180604052508101906122b2919061447d565b94509450945050509193909250565b600081608001356122d181612825565b600061232d7f000000000000000000000000000000000000000000000000000000000000000061232586600001602081019061230d9190613ca2565b8760200160208101906123209190614325565b6127b9565b6007546127ec565b90506123518460000160208101906123459190613ca2565b3383876040013561286b565b8073ffffffffffffffffffffffffffffffffffffffff166365418ef58560600160208101906123809190613ca2565b6040518263ffffffff1660e01b815260040161239c9190614b54565b602060405180830381600087803b1580156123b657600080fd5b505af11580156123ca573d6000803e3d6000fd5b505050506040513d601f19601f820116820180604052508101906123ee9190614377565b92505050919050565b60608160400135612407816129d4565b8260c0013561241581612825565b61246f7f000000000000000000000000000000000000000000000000000000000000000061246786600001602081019061244f9190613ca2565b8760200160208101906124629190614325565b6127b9565b6007546127ec565b73ffffffffffffffffffffffffffffffffffffffff16632a9bc3f6856040013586806060019061249f9190615143565b6040518463ffffffff1660e01b81526004016124bd9392919061506a565b600060405180830381600087803b1580156124d757600080fd5b505af11580156124eb573d6000803e3d6000fd5b505050506040513d6000823e3d601f19601f820116820180604052508101906125149190614044565b92505050919050565b60007f01ffc9a7000000000000000000000000000000000000000000000000000000007bffffffffffffffffffffffffffffffffffffffffffffffffffffffff1916827bffffffffffffffffffffffffffffffffffffffffffffffffffffffff1916149050919050565b61259081613251565b6125cf576040517f08c379a00000000000000000000000000000000000000000000000000000000081526004016125c690614f2c565b60405180910390fd5b50565b600033905090565b816004600083815260200190815260200160002060006101000a81548173ffffffffffffffffffffffffffffffffffffffff021916908373ffffffffffffffffffffffffffffffffffffffff160217905550808273ffffffffffffffffffffffffffffffffffffffff1661264d836112e3565b73ffffffffffffffffffffffffffffffffffffffff167f8c5be1e5ebec7d5bd14f71427d1e84f3dd0314c0f7b2291e5b200ac8c7c3b92560405160405180910390a45050565b60008273ffffffffffffffffffffffffffffffffffffffff1682600067ffffffffffffffff8111156126ee577f4e487b7100000000000000000000000000000000000000000000000000000000600052604160045260246000fd5b6040519080825280601f01601f1916602001820160405280156127205781602001600182028036833780820191505090505b5060405161272e9190614ad1565b60006040518083038185875af1925050503d806000811461276b576040519150601f19603f3d011682016040523d82523d6000602084013e612770565b606091505b50509050806127b4576040517f08c379a00000000000000000000000000000000000000000000000000000000081526004016127ab90614e4c565b60405180910390fd5b505050565b600082826040516020016127ce929190614c50565b60405160208183030381529060405280519060200120905092915050565b600083838360405160200161280393929190614b0c565b6040516020818303038152906040528051906020012060001c90509392505050565b42811015612868576040517f08c379a000000000000000000000000000000000000000000000000000000000815260040161285f90614f6c565b60405180910390fd5b50565b7f000000000000000000000000000000000000000000000000000000000000000073ffffffffffffffffffffffffffffffffffffffff168473ffffffffffffffffffffffffffffffffffffffff161480156128c65750804710155b1561297c577f000000000000000000000000000000000000000000000000000000000000000073ffffffffffffffffffffffffffffffffffffffff1663d0e30db0826040518263ffffffff1660e01b81526004016000604051808303818588803b15801561293357600080fd5b505af1158015612947573d6000803e3d6000fd5b50505050506129777f00000000000000000000000000000000000000000000000000000000000000008383612d1c565b6129ce565b3073ffffffffffffffffffffffffffffffffffffffff168373ffffffffffffffffffffffffffffffffffffffff1614156129c0576129bb848383612d1c565b6129cd565b6129cc848484846132bd565b5b5b50505050565b6129de3382612a20565b612a1d576040517f08c379a0000000000000000000000000000000000000000000000000000000008152600401612a1490614e8c565b60405180910390fd5b50565b600080612a2c836112e3565b90508073ffffffffffffffffffffffffffffffffffffffff168473ffffffffffffffffffffffffffffffffffffffff161480612a6e5750612a6d8185611f3f565b5b80612aac57508373ffffffffffffffffffffffffffffffffffffffff16612a9484610a8d565b73ffffffffffffffffffffffffffffffffffffffff16145b91505092915050565b8273ffffffffffffffffffffffffffffffffffffffff16612ad5826112e3565b73ffffffffffffffffffffffffffffffffffffffff1614612b2b576040517f08c379a0000000000000000000000000000000000000000000000000000000008152600401612b2290614d8c565b60405180910390fd5b600073ffffffffffffffffffffffffffffffffffffffff168273ffffffffffffffffffffffffffffffffffffffff161415612b9b576040517f08c379a0000000000000000000000000000000000000000000000000000000008152600401612b9290614e0c565b60405180910390fd5b612ba683838361342d565b612bb16000826125da565b6001600360008573ffffffffffffffffffffffffffffffffffffffff1673ffffffffffffffffffffffffffffffffffffffff1681526020019081526020016000206000828254612c0191906153ec565b925050819055506001600360008473ffffffffffffffffffffffffffffffffffffffff1673ffffffffffffffffffffffffffffffffffffffff1681526020019081526020016000206000828254612c589190615365565b92505081905550816002600083815260200190815260200160002060006101000a81548173ffffffffffffffffffffffffffffffffffffffff021916908373ffffffffffffffffffffffffffffffffffffffff160217905550808273ffffffffffffffffffffffffffffffffffffffff168473ffffffffffffffffffffffffffffffffffffffff167fddf252ad1be2c89b69c2b068fc378daa952ba7f163c4a11628f55a4df523b3ef60405160405180910390a4612d17838383613432565b505050565b6000808473ffffffffffffffffffffffffffffffffffffffff166040518060400160405280601981526020017f7472616e7366657228616464726573732c75696e743235362900000000000000815250805190602001208585604051602401612d86929190614c79565b604051602081830303815290604052907bffffffffffffffffffffffffffffffffffffffffffffffffffffffff19166020820180517bffffffffffffffffffffffffffffffffffffffffffffffffffffffff8381831617835250505050604051612df09190614ad1565b6000604051808303816000865af19150503d8060008114612e2d576040519150601f19603f3d011682016040523d82523d6000602084013e612e32565b606091505b5091509150818015612e605750600081511480612e5f575080806020019051810190612e5e91906140d9565b5b5b612e9f576040517f08c379a0000000000000000000000000000000000000000000000000000000008152600401612e9690614eec565b60405180910390fd5b5050505050565b8173ffffffffffffffffffffffffffffffffffffffff168373ffffffffffffffffffffffffffffffffffffffff161415612f15576040517f08c379a0000000000000000000000000000000000000000000000000000000008152600401612f0c90614e2c565b60405180910390fd5b80600560008573ffffffffffffffffffffffffffffffffffffffff1673ffffffffffffffffffffffffffffffffffffffff16815260200190815260200160002060008473ffffffffffffffffffffffffffffffffffffffff1673ffffffffffffffffffffffffffffffffffffffff16815260200190815260200160002060006101000a81548160ff0219169083151502179055508173ffffffffffffffffffffffffffffffffffffffff168373ffffffffffffffffffffffffffffffffffffffff167f17307eab39ab6107e8899845ad3d59bd9653f200f220920489ca2b5937696c31836040516130069190614cf4565b60405180910390a3505050565b61301e848484612ab5565b61302a84848484613437565b613069576040517f08c379a000000000000000000000000000000000000000000000000000000000815260040161306090614d6c565b60405180910390fd5b50505050565b606060405180602001604052806000815250905090565b606060008214156130ce576040518060400160405280600181526020017f3000000000000000000000000000000000000000000000000000000000000000815250905061322e565b600082905060005b600082146131005780806130e99061555c565b915050600a826130f991906153bb565b91506130d6565b60008167ffffffffffffffff811115613142577f4e487b7100000000000000000000000000000000000000000000000000000000600052604160045260246000fd5b6040519080825280601f01601f1916602001820160405280156131745781602001600182028036833780820191505090505b5090505b600085146132275760018261318d91906153ec565b9150600a8561319c91906155d3565b60306131a89190615365565b60f81b8183815181106131e4577f4e487b7100000000000000000000000000000000000000000000000000000000600052603260045260246000fd5b60200101907effffffffffffffffffffffffffffffffffffffffffffffffffffffffffffff1916908160001a905350600a8561322091906153bb565b9450613178565b8093505050505b919050565b61324d8282604051806020016040528060008152506135ce565b5050565b60008073ffffffffffffffffffffffffffffffffffffffff166002600084815260200190815260200160002060009054906101000a900473ffffffffffffffffffffffffffffffffffffffff1673ffffffffffffffffffffffffffffffffffffffff1614159050919050565b6000808573ffffffffffffffffffffffffffffffffffffffff16604051806060016040528060258152602001615bd0602591398051906020012086868660405160240161330c93929190614b6f565b604051602081830303815290604052907bffffffffffffffffffffffffffffffffffffffffffffffffffffffff19166020820180517bffffffffffffffffffffffffffffffffffffffffffffffffffffffff83818316178352505050506040516133769190614ad1565b6000604051808303816000865af19150503d80600081146133b3576040519150601f19603f3d011682016040523d82523d6000602084013e6133b8565b606091505b50915091508180156133e657506000815114806133e55750808060200190518101906133e491906140d9565b5b5b613425576040517f08c379a000000000000000000000000000000000000000000000000000000000815260040161341c90614f0c565b60405180910390fd5b505050505050565b505050565b505050565b60006134588473ffffffffffffffffffffffffffffffffffffffff16613629565b156135c1578373ffffffffffffffffffffffffffffffffffffffff1663150b7a026134816125d2565b8786866040518563ffffffff1660e01b81526004016134a39493929190614ba6565b602060405180830381600087803b1580156134bd57600080fd5b505af19250505080156134ee57506040513d601f19601f820116820180604052508101906134eb919061412b565b60015b613571573d806000811461351e576040519150601f19603f3d011682016040523d82523d6000602084013e613523565b606091505b50600081511415613569576040517f08c379a000000000000000000000000000000000000000000000000000000000815260040161356090614d6c565b60405180910390fd5b805181602001fd5b63150b7a0260e01b7bffffffffffffffffffffffffffffffffffffffffffffffffffffffff1916817bffffffffffffffffffffffffffffffffffffffffffffffffffffffff1916149150506135c6565b600190505b949350505050565b6135d8838361364c565b6135e56000848484613437565b613624576040517f08c379a000000000000000000000000000000000000000000000000000000000815260040161361b90614d6c565b60405180910390fd5b505050565b6000808273ffffffffffffffffffffffffffffffffffffffff163b119050919050565b600073ffffffffffffffffffffffffffffffffffffffff168273ffffffffffffffffffffffffffffffffffffffff1614156136bc576040517f08c379a00000000000000000000000000000000000000000000000000000000081526004016136b390614ecc565b60405180910390fd5b6136c581613251565b15613705576040517f08c379a00000000000000000000000000000000000000000000000000000000081526004016136fc90614dac565b60405180910390fd5b6137116000838361342d565b6001600360008473ffffffffffffffffffffffffffffffffffffffff1673ffffffffffffffffffffffffffffffffffffffff16815260200190815260200160002060008282546137619190615365565b92505081905550816002600083815260200190815260200160002060006101000a81548173ffffffffffffffffffffffffffffffffffffffff021916908373ffffffffffffffffffffffffffffffffffffffff160217905550808273ffffffffffffffffffffffffffffffffffffffff16600073ffffffffffffffffffffffffffffffffffffffff167fddf252ad1be2c89b69c2b068fc378daa952ba7f163c4a11628f55a4df523b3ef60405160405180910390a461382260008383613432565b5050565b600061383961383484615216565b6151f1565b9050808382526020820190508285602086028201111561385857600080fd5b60005b85811015613888578161386e8882613951565b84526020840193506020830192505060018101905061385b565b5050509392505050565b60006138a56138a084615242565b6151f1565b905080838252602082019050828560208602820111156138c457600080fd5b60005b858110156138f457816138da8882613c8d565b8452602084019350602083019250506001810190506138c7565b5050509392505050565b600061391161390c8461526e565b6151f1565b90508281526020810184848401111561392957600080fd5b6139348482856154b7565b509392505050565b60008135905061394b81615b45565b92915050565b60008151905061396081615b45565b92915050565b60008083601f84011261397857600080fd5b8235905067ffffffffffffffff81111561399157600080fd5b6020830191508360208202830111156139a957600080fd5b9250929050565b600082601f8301126139c157600080fd5b81516139d1848260208601613826565b91505092915050565b60008083601f8401126139ec57600080fd5b8235905067ffffffffffffffff811115613a0557600080fd5b602083019150836020820283011115613a1d57600080fd5b9250929050565b600082601f830112613a3557600080fd5b8151613a45848260208601613892565b91505092915050565b600081359050613a5d81615b5c565b92915050565b600081519050613a7281615b5c565b92915050565b600081359050613a8781615b73565b92915050565b600081519050613a9c81615b73565b92915050565b60008083601f840112613ab457600080fd5b8235905067ffffffffffffffff811115613acd57600080fd5b602083019150836001820283011115613ae557600080fd5b9250929050565b600082601f830112613afd57600080fd5b8135613b0d8482602086016138fe565b91505092915050565b600081359050613b2581615b8a565b92915050565b600060c08284031215613b3d57600080fd5b81905092915050565b600060c08284031215613b5857600080fd5b81905092915050565b600060a08284031215613b7357600080fd5b81905092915050565b600060c08284031215613b8e57600080fd5b81905092915050565b600060e08284031215613ba957600080fd5b81905092915050565b600060c08284031215613bc457600080fd5b81905092915050565b600060608284031215613bdf57600080fd5b613be960606151f1565b90506000613bf98482850161393c565b6000830152506020613c0d8482850161393c565b6020830152506040613c2184828501613c63565b60408301525092915050565b600060a08284031215613c3f57600080fd5b81905092915050565b600060c08284031215613c5a57600080fd5b81905092915050565b600081359050613c7281615ba1565b92915050565b600081359050613c8781615bb8565b92915050565b600081519050613c9c81615bb8565b92915050565b600060208284031215613cb457600080fd5b6000613cc28482850161393c565b91505092915050565b60008060408385031215613cde57600080fd5b6000613cec8582860161393c565b9250506020613cfd8582860161393c565b9150509250929050565b600080600060608486031215613d1c57600080fd5b6000613d2a8682870161393c565b9350506020613d3b8682870161393c565b9250506040613d4c86828701613c78565b9150509250925092565b60008060008060808587031215613d6c57600080fd5b6000613d7a8782880161393c565b9450506020613d8b8782880161393c565b9350506040613d9c87828801613c78565b925050606085013567ffffffffffffffff811115613db957600080fd5b613dc587828801613aec565b91505092959194509250565b60008060408385031215613de457600080fd5b6000613df28582860161393c565b9250506020613e0385828601613a4e565b9150509250929050565b60008060008060808587031215613e2357600080fd5b6000613e318782880161393c565b9450506020613e4287828801613c63565b9350506040613e538782880161393c565b9250506060613e6487828801613c78565b91505092959194509250565b600080600060608486031215613e8557600080fd5b6000613e938682870161393c565b9350506020613ea486828701613c63565b9250506040613eb586828701613c78565b9150509250925092565b60008060408385031215613ed257600080fd5b6000613ee08582860161393c565b9250506020613ef185828601613c78565b9150509250929050565b600080600060608486031215613f1057600080fd5b6000613f1e8682870161393c565b9350506020613f2f86828701613c78565b9250506040613f408682870161393c565b9150509250925092565b60008060008060008060006080888a031215613f6557600080fd5b600088013567ffffffffffffffff811115613f7f57600080fd5b613f8b8a828b01613966565b9750975050602088013567ffffffffffffffff811115613faa57600080fd5b613fb68a828b016139da565b95509550506040613fc98a828b0161393c565b935050606088013567ffffffffffffffff811115613fe657600080fd5b613ff28a828b01613aa2565b925092505092959891949750929550565b60006020828403121561401557600080fd5b600082015167ffffffffffffffff81111561402f57600080fd5b61403b848285016139b0565b91505092915050565b60006020828403121561405657600080fd5b600082015167ffffffffffffffff81111561407057600080fd5b61407c84828501613a24565b91505092915050565b6000806040838503121561409857600080fd5b600083015167ffffffffffffffff8111156140b257600080fd5b6140be85828601613a24565b92505060206140cf85828601613c8d565b9150509250929050565b6000602082840312156140eb57600080fd5b60006140f984828501613a63565b91505092915050565b60006020828403121561411457600080fd5b600061412284828501613a78565b91505092915050565b60006020828403121561413d57600080fd5b600061414b84828501613a8d565b91505092915050565b60006020828403121561416657600080fd5b600082013567ffffffffffffffff81111561418057600080fd5b61418c84828501613b2b565b91505092915050565b600060c082840312156141a757600080fd5b60006141b584828501613b46565b91505092915050565b600060a082840312156141d057600080fd5b60006141de84828501613b61565b91505092915050565b6000602082840312156141f957600080fd5b600082013567ffffffffffffffff81111561421357600080fd5b61421f84828501613b7c565b91505092915050565b60006020828403121561423a57600080fd5b600082013567ffffffffffffffff81111561425457600080fd5b61426084828501613b97565b91505092915050565b600060c0828403121561427b57600080fd5b600061428984828501613bb2565b91505092915050565b6000606082840312156142a457600080fd5b60006142b284828501613bcd565b91505092915050565b600060a082840312156142cd57600080fd5b60006142db84828501613c2d565b91505092915050565b6000602082840312156142f657600080fd5b600082013567ffffffffffffffff81111561431057600080fd5b61431c84828501613c48565b91505092915050565b60006020828403121561433757600080fd5b600061434584828501613c63565b91505092915050565b60006020828403121561436057600080fd5b600061436e84828501613c78565b91505092915050565b60006020828403121561438957600080fd5b600061439784828501613c8d565b91505092915050565b600080604083850312156143b357600080fd5b60006143c185828601613c78565b92505060206143d28582860161393c565b9150509250929050565b60008060008060008060c087890312156143f557600080fd5b600061440389828a01613c8d565b965050602061441489828a01613951565b955050604087015167ffffffffffffffff81111561443157600080fd5b61443d89828a01613a24565b945050606061444e89828a01613c8d565b935050608061445f89828a01613c8d565b92505060a061447089828a01613c8d565b9150509295509295509295565b60008060006060848603121561449257600080fd5b60006144a086828701613c8d565b93505060206144b186828701613c8d565b925050604084015167ffffffffffffffff8111156144ce57600080fd5b6144da86828701613a24565b9150509250925092565b60006144f083836146fb565b60208301905092915050565b60006145088383614ab3565b60208301905092915050565b61451d81615420565b82525050565b61452c81615420565b82525050565b61454361453e82615420565b6155a5565b82525050565b600061455583856152f4565b93506145608261529f565b8060005b8581101561459957614576828461534e565b61458088826144e4565b975061458b836152da565b925050600181019050614564565b5085925050509392505050565b60006145b28385615305565b93507f07ffffffffffffffffffffffffffffffffffffffffffffffffffffffffffffff8311156145e157600080fd5b6020830292506145f28385846154b7565b82840190509392505050565b6000614609826152b9565b6146138185615305565b935061461e836152a9565b8060005b8381101561464f57815161463688826144fc565b9750614641836152e7565b925050600181019050614622565b5085935050505092915050565b61466581615432565b82525050565b6146748161543e565b82525050565b61468b6146868261543e565b6155b7565b82525050565b600061469c826152c4565b6146a68185615316565b93506146b68185602086016154c6565b6146bf816156c0565b840191505092915050565b60006146d5826152c4565b6146df8185615327565b93506146ef8185602086016154c6565b80840191505092915050565b61470481615474565b82525050565b6000614715826152cf565b61471f8185615332565b935061472f8185602086016154c6565b614738816156c0565b840191505092915050565b600061474e826152cf565b6147588185615343565b93506147688185602086016154c6565b80840191505092915050565b6000614781600883615332565b915061478c826156de565b602082019050919050565b60006147a4603283615332565b91506147af82615707565b604082019050919050565b60006147c7602583615332565b91506147d282615756565b604082019050919050565b60006147ea601c83615332565b91506147f5826157a5565b602082019050919050565b600061480d601083615332565b9150614818826157ce565b602082019050919050565b6000614830600983615332565b915061483b826157f7565b602082019050919050565b6000614853602483615332565b915061485e82615820565b604082019050919050565b6000614876601983615332565b91506148818261586f565b602082019050919050565b6000614899600383615332565b91506148a482615898565b602082019050919050565b60006148bc602983615332565b91506148c7826158c1565b604082019050919050565b60006148df600983615332565b91506148ea82615910565b602082019050919050565b6000614902603e83615332565b915061490d82615939565b604082019050919050565b6000614925602083615332565b915061493082615988565b602082019050919050565b6000614948600183615343565b9150614953826159b1565b600182019050919050565b600061496b600283615332565b9150614976826159da565b602082019050919050565b600061498e600383615332565b915061499982615a03565b602082019050919050565b60006149b1601883615332565b91506149bc82615a2c565b602082019050919050565b60006149d4602183615332565b91506149df82615a55565b604082019050919050565b60006149f7600783615332565b9150614a0282615aa4565b602082019050919050565b6000614a1a601183615332565b9150614a2582615acd565b602082019050919050565b6000614a3d602e83615332565b9150614a4882615af6565b604082019050919050565b606082016000820151614a696000850182614514565b506020820151614a7c6020850182614514565b506040820151614a8f6040850182614a95565b50505050565b614a9e8161549e565b82525050565b614aad8161549e565b82525050565b614abc816154ad565b82525050565b614acb816154ad565b82525050565b6000614add82846146ca565b915081905092915050565b6000614af48285614743565b9150614b008284614743565b91508190509392505050565b6000614b178261493b565b9150614b238286614532565b601482019150614b33828561467a565b602082019150614b43828461467a565b602082019150819050949350505050565b6000602082019050614b696000830184614523565b92915050565b6000606082019050614b846000830186614523565b614b916020830185614523565b614b9e6040830184614ac2565b949350505050565b6000608082019050614bbb6000830187614523565b614bc86020830186614523565b614bd56040830185614ac2565b8181036060830152614be78184614691565b905095945050505050565b6000608082019050614c076000830189614523565b8181036020830152614c1a8187896145a6565b90508181036040830152614c2f8185876145a6565b90508181036060830152614c438184614691565b9050979650505050505050565b6000604082019050614c656000830185614523565b614c726020830184614aa4565b9392505050565b6000604082019050614c8e6000830185614523565b614c9b6020830184614ac2565b9392505050565b60006020820190508181036000830152614cbc81846145fe565b905092915050565b60006040820190508181036000830152614cde81856145fe565b9050614ced6020830184614ac2565b9392505050565b6000602082019050614d09600083018461465c565b92915050565b6000602082019050614d24600083018461466b565b92915050565b60006020820190508181036000830152614d44818461470a565b905092915050565b60006020820190508181036000830152614d6581614774565b9050919050565b60006020820190508181036000830152614d8581614797565b9050919050565b60006020820190508181036000830152614da5816147ba565b9050919050565b60006020820190508181036000830152614dc5816147dd565b9050919050565b60006020820190508181036000830152614de581614800565b9050919050565b60006020820190508181036000830152614e0581614823565b9050919050565b60006020820190508181036000830152614e2581614846565b9050919050565b60006020820190508181036000830152614e4581614869565b9050919050565b60006020820190508181036000830152614e658161488c565b9050919050565b60006020820190508181036000830152614e85816148af565b9050919050565b60006020820190508181036000830152614ea5816148d2565b9050919050565b60006020820190508181036000830152614ec5816148f5565b9050919050565b60006020820190508181036000830152614ee581614918565b9050919050565b60006020820190508181036000830152614f058161495e565b9050919050565b60006020820190508181036000830152614f2581614981565b9050919050565b60006020820190508181036000830152614f45816149a4565b9050919050565b60006020820190508181036000830152614f65816149c7565b9050919050565b60006020820190508181036000830152614f85816149ea565b9050919050565b60006020820190508181036000830152614fa581614a0d565b9050919050565b60006020820190508181036000830152614fc581614a30565b9050919050565b6000606082019050614fe16000830184614a53565b92915050565b6000602082019050614ffc6000830184614ac2565b92915050565b600060c0820190506150176000830189614ac2565b6150246020830188614523565b818103604083015261503681876145fe565b90506150456060830186614ac2565b6150526080830185614ac2565b61505f60a0830184614ac2565b979650505050505050565b600060408201905061507f6000830186614ac2565b8181036020830152615092818486614549565b9050949350505050565b60006060820190506150b16000830187614ac2565b81810360208301526150c48185876145a6565b90506150d36040830184614523565b95945050505050565b60006040820190506150f16000830185614ac2565b6150fe6020830184614ac2565b9392505050565b600060608201905061511a6000830186614ac2565b6151276020830185614ac2565b818103604083015261513981846145fe565b9050949350505050565b6000808335600160200384360303811261515c57600080fd5b80840192508235915067ffffffffffffffff82111561517a57600080fd5b60208301925060208202360383131561519257600080fd5b509250929050565b600080833560016020038436030381126151b357600080fd5b80840192508235915067ffffffffffffffff8211156151d157600080fd5b6020830192506020820236038313156151e957600080fd5b509250929050565b60006151fb61520c565b9050615207828261552b565b919050565b6000604051905090565b600067ffffffffffffffff82111561523157615230615691565b5b602082029050602081019050919050565b600067ffffffffffffffff82111561525d5761525c615691565b5b602082029050602081019050919050565b600067ffffffffffffffff82111561528957615288615691565b5b615292826156c0565b9050602081019050919050565b6000819050919050565b6000819050602082019050919050565b600081519050919050565b600081519050919050565b600081519050919050565b6000602082019050919050565b6000602082019050919050565b600082825260208201905092915050565b600082825260208201905092915050565b600082825260208201905092915050565b600081905092915050565b600082825260208201905092915050565b600081905092915050565b600061535d6020840184613b16565b905092915050565b6000615370826154ad565b915061537b836154ad565b9250827fffffffffffffffffffffffffffffffffffffffffffffffffffffffffffffffff038211156153b0576153af615604565b5b828201905092915050565b60006153c6826154ad565b91506153d1836154ad565b9250826153e1576153e0615633565b5b828204905092915050565b60006153f7826154ad565b9150615402836154ad565b92508282101561541557615414615604565b5b828203905092915050565b600061542b8261547e565b9050919050565b60008115159050919050565b6000819050919050565b60007fffffffff0000000000000000000000000000000000000000000000000000000082169050919050565b6000819050919050565b600073ffffffffffffffffffffffffffffffffffffffff82169050919050565b600062ffffff82169050919050565b6000819050919050565b82818337600083830152505050565b60005b838110156154e45780820151818401526020810190506154c9565b838111156154f3576000848401525b50505050565b6000600282049050600182168061551157607f821691505b6020821081141561552557615524615662565b5b50919050565b615534826156c0565b810181811067ffffffffffffffff8211171561555357615552615691565b5b80604052505050565b6000615567826154ad565b91507fffffffffffffffffffffffffffffffffffffffffffffffffffffffffffffffff82141561559a57615599615604565b5b600182019050919050565b60006155b0826155c1565b9050919050565b6000819050919050565b60006155cc826156d1565b9050919050565b60006155de826154ad565b91506155e9836154ad565b9250826155f9576155f8615633565b5b828206905092915050565b7f4e487b7100000000000000000000000000000000000000000000000000000000600052601160045260246000fd5b7f4e487b7100000000000000000000000000000000000000000000000000000000600052601260045260246000fd5b7f4e487b7100000000000000000000000000000000000000000000000000000000600052602260045260246000fd5b7f4e487b7100000000000000000000000000000000000000000000000000000000600052604160045260246000fd5b6000601f19601f8301169050919050565b60008160601b9050919050565b7f4e4f545f57455448000000000000000000000000000000000000000000000000600082015250565b7f4552433732313a207472616e7366657220746f206e6f6e20455243373231526560008201527f63656976657220696d706c656d656e7465720000000000000000000000000000602082015250565b7f4552433732313a207472616e736665722066726f6d20696e636f72726563742060008201527f6f776e6572000000000000000000000000000000000000000000000000000000602082015250565b7f4552433732313a20746f6b656e20616c7265616479206d696e74656400000000600082015250565b7f7765746842616c203c206d696e416d7400000000000000000000000000000000600082015250565b7f616d74203c206d696e0000000000000000000000000000000000000000000000600082015250565b7f4552433732313a207472616e7366657220746f20746865207a65726f2061646460008201527f7265737300000000000000000000000000000000000000000000000000000000602082015250565b7f4552433732313a20617070726f766520746f2063616c6c657200000000000000600082015250565b7f5354450000000000000000000000000000000000000000000000000000000000600082015250565b7f4552433732313a2061646472657373207a65726f206973206e6f74206120766160008201527f6c6964206f776e65720000000000000000000000000000000000000000000000602082015250565b7f464f5242494444454e0000000000000000000000000000000000000000000000600082015250565b7f4552433732313a20617070726f76652063616c6c6572206973206e6f7420746f60008201527f6b656e206f776e6572206e6f7220617070726f76656420666f7220616c6c0000602082015250565b7f4552433732313a206d696e7420746f20746865207a65726f2061646472657373600082015250565b7fff00000000000000000000000000000000000000000000000000000000000000600082015250565b7f5354000000000000000000000000000000000000000000000000000000000000600082015250565b7f5354460000000000000000000000000000000000000000000000000000000000600082015250565b7f4552433732313a20696e76616c696420746f6b656e2049440000000000000000600082015250565b7f4552433732313a20617070726f76616c20746f2063757272656e74206f776e6560008201527f7200000000000000000000000000000000000000000000000000000000000000602082015250565b7f4558504952454400000000000000000000000000000000000000000000000000600082015250565b7f746f6b656e42616c203c206d696e416d74000000000000000000000000000000600082015250565b7f4552433732313a2063616c6c6572206973206e6f7420746f6b656e206f776e6560008201527f72206e6f7220617070726f766564000000000000000000000000000000000000602082015250565b615b4e81615420565b8114615b5957600080fd5b50565b615b6581615432565b8114615b7057600080fd5b50565b615b7c81615448565b8114615b8757600080fd5b50565b615b9381615474565b8114615b9e57600080fd5b50565b615baa8161549e565b8114615bb557600080fd5b50565b615bc1816154ad565b8114615bcc57600080fd5b5056fe7472616e7366657246726f6d28616464726573732c616464726573732c75696e7432353629a264697066735822122004893e85d22c083fd06ebb251b71689960da79bb6e50802a86ba0a0761b6243564736f6c63430008040033",
  "linkReferences": {},
  "deployedLinkReferences": {}
}