{
  "_format": "hh-sol-artifact-1",
  "contractName": "TestLinearKinkedRateModel",
  "sourceName": "contracts/test/TestLinearKinkedRateModel.sol",
  "abi": [
    {
      "inputs": [],
      "name": "baseRate",
      "outputs": [
        {
          "internalType": "uint256",
          "name": "",
          "type": "uint256"
        }
      ],
      "stateMutability": "view",
      "type": "function"
    },
    {
      "inputs": [],
      "name": "optimalUtilRate",
      "outputs": [
        {
          "internalType": "uint256",
          "name": "",
          "type": "uint256"
        }
      ],
      "stateMutability": "view",
      "type": "function"
    },
    {
      "inputs": [],
      "name": "slope1",
      "outputs": [
        {
          "internalType": "uint256",
          "name": "",
          "type": "uint256"
        }
      ],
      "stateMutability": "view",
      "type": "function"
    },
    {
      "inputs": [],
      "name": "slope2",
      "outputs": [
        {
          "internalType": "uint256",
          "name": "",
          "type": "uint256"
        }
      ],
      "stateMutability": "view",
      "type": "function"
    }
  ],
  "bytecode": "0x608060405234801561001057600080fd5b506101ac806100206000396000f3fe608060405234801561001057600080fd5b506004361061004c5760003560e01c80631f68f20a1461005157806349ae20751461006f578063a62b75a81461008d578063d0134cb7146100ab575b600080fd5b6100596100c9565b6040516100669190610151565b60405180910390f35b6100776100dc565b6040516100849190610151565b60405180910390f35b6100956100ef565b6040516100a29190610151565b60405180910390f35b6100b3610102565b6040516100c09190610151565b60405180910390f35b60006100d3610115565b60020154905090565b60006100e6610115565b60030154905090565b60006100f9610115565b60040154905090565b600061010c610115565b60050154905090565b6000807f1f5edbb2e428ca6eb959239e349ecf9840113efe584c1ea9dd664eb95b39c10b90508091505090565b61014b8161016c565b82525050565b60006020820190506101666000830184610142565b92915050565b600081905091905056fea2646970667358221220425e6189135e3b38209270c1c4e888bc35c011d170e0f2dd1f0e70a4c7fd096964736f6c63430008040033",
  "linkReferences": {},
  "deployedLinkReferences": {}
}