{
  "_format": "hh-sol-artifact-1",
  "contractName": "CPMMShortStrategy",
  "sourceName": "contracts/strategies/cpmm/CPMMShortStrategy.sol",
  "abi": [
    {
      "inputs": [
        {
          "internalType": "bytes",
          "name": "sParams",
          "type": "bytes"
        },
        {
          "internalType": "bytes",
          "name": "rParams",
          "type": "bytes"
        }
      ],
      "stateMutability": "nonpayable",
      "type": "constructor"
    },
    {
      "anonymous": false,
      "inputs": [
        {
          "indexed": true,
          "internalType": "address",
          "name": "caller",
          "type": "address"
        },
        {
          "indexed": true,
          "internalType": "address",
          "name": "from",
          "type": "address"
        },
        {
          "indexed": false,
          "internalType": "uint256",
          "name": "assets",
          "type": "uint256"
        },
        {
          "indexed": false,
          "internalType": "uint256",
          "name": "shares",
          "type": "uint256"
        }
      ],
      "name": "Deposit",
      "type": "event"
    },
    {
      "anonymous": false,
      "inputs": [
        {
          "indexed": true,
          "internalType": "address",
          "name": "from",
          "type": "address"
        },
        {
          "indexed": true,
          "internalType": "address",
          "name": "to",
          "type": "address"
        },
        {
          "indexed": false,
          "internalType": "uint256",
          "name": "value",
          "type": "uint256"
        }
      ],
      "name": "Transfer",
      "type": "event"
    },
    {
      "anonymous": false,
      "inputs": [
        {
          "indexed": true,
          "internalType": "address",
          "name": "caller",
          "type": "address"
        },
        {
          "indexed": true,
          "internalType": "address",
          "name": "to",
          "type": "address"
        },
        {
          "indexed": true,
          "internalType": "address",
          "name": "from",
          "type": "address"
        },
        {
          "indexed": false,
          "internalType": "uint256",
          "name": "assets",
          "type": "uint256"
        },
        {
          "indexed": false,
          "internalType": "uint256",
          "name": "shares",
          "type": "uint256"
        }
      ],
      "name": "Withdraw",
      "type": "event"
    },
    {
      "inputs": [
        {
          "internalType": "uint256",
          "name": "assets",
          "type": "uint256"
        },
        {
          "internalType": "address",
          "name": "to",
          "type": "address"
        }
      ],
      "name": "_deposit",
      "outputs": [
        {
          "internalType": "uint256",
          "name": "shares",
          "type": "uint256"
        }
      ],
      "stateMutability": "nonpayable",
      "type": "function"
    },
    {
      "inputs": [
        {
          "internalType": "address",
          "name": "to",
          "type": "address"
        }
      ],
      "name": "_depositNoPull",
      "outputs": [
        {
          "internalType": "uint256",
          "name": "shares",
          "type": "uint256"
        }
      ],
      "stateMutability": "nonpayable",
      "type": "function"
    },
    {
      "inputs": [
        {
          "internalType": "address",
          "name": "to",
          "type": "address"
        },
        {
          "internalType": "uint256[]",
          "name": "amountsDesired",
          "type": "uint256[]"
        },
        {
          "internalType": "uint256[]",
          "name": "amountsMin",
          "type": "uint256[]"
        },
        {
          "internalType": "bytes",
          "name": "data",
          "type": "bytes"
        }
      ],
      "name": "_depositReserves",
      "outputs": [
        {
          "internalType": "uint256[]",
          "name": "reserves",
          "type": "uint256[]"
        },
        {
          "internalType": "uint256",
          "name": "shares",
          "type": "uint256"
        }
      ],
      "stateMutability": "nonpayable",
      "type": "function"
    },
    {
      "inputs": [
        {
          "internalType": "uint256",
          "name": "shares",
          "type": "uint256"
        },
        {
          "internalType": "address",
          "name": "to",
          "type": "address"
        }
      ],
      "name": "_mint",
      "outputs": [
        {
          "internalType": "uint256",
          "name": "assets",
          "type": "uint256"
        }
      ],
      "stateMutability": "nonpayable",
      "type": "function"
    },
    {
      "inputs": [
        {
          "internalType": "uint256",
          "name": "shares",
          "type": "uint256"
        },
        {
          "internalType": "address",
          "name": "to",
          "type": "address"
        },
        {
          "internalType": "address",
          "name": "from",
          "type": "address"
        }
      ],
      "name": "_redeem",
      "outputs": [
        {
          "internalType": "uint256",
          "name": "assets",
          "type": "uint256"
        }
      ],
      "stateMutability": "nonpayable",
      "type": "function"
    },
    {
      "inputs": [
        {
          "internalType": "uint256",
          "name": "assets",
          "type": "uint256"
        },
        {
          "internalType": "address",
          "name": "to",
          "type": "address"
        },
        {
          "internalType": "address",
          "name": "from",
          "type": "address"
        }
      ],
      "name": "_withdraw",
      "outputs": [
        {
          "internalType": "uint256",
          "name": "shares",
          "type": "uint256"
        }
      ],
      "stateMutability": "nonpayable",
      "type": "function"
    },
    {
      "inputs": [
        {
          "internalType": "address",
          "name": "to",
          "type": "address"
        }
      ],
      "name": "_withdrawNoPull",
      "outputs": [
        {
          "internalType": "uint256",
          "name": "assets",
          "type": "uint256"
        }
      ],
      "stateMutability": "nonpayable",
      "type": "function"
    },
    {
      "inputs": [
        {
          "internalType": "address",
          "name": "to",
          "type": "address"
        }
      ],
      "name": "_withdrawReserves",
      "outputs": [
        {
          "internalType": "uint256[]",
          "name": "reserves",
          "type": "uint256[]"
        },
        {
          "internalType": "uint256",
          "name": "assets",
          "type": "uint256"
        }
      ],
      "stateMutability": "nonpayable",
      "type": "function"
    },
    {
      "inputs": [],
      "name": "baseRate",
      "outputs": [
        {
          "internalType": "uint256",
          "name": "",
          "type": "uint256"
        }
      ],
      "stateMutability": "view",
      "type": "function"
    },
    {
      "inputs": [
        {
          "internalType": "uint256",
          "name": "borrowedInvariant",
          "type": "uint256"
        },
        {
          "internalType": "uint256",
          "name": "lastFeeIndex",
          "type": "uint256"
        },
        {
          "internalType": "uint256",
          "name": "lastCFMMInvariant",
          "type": "uint256"
        },
        {
          "internalType": "uint256",
          "name": "lastCFMMTotalSupply",
          "type": "uint256"
        }
      ],
      "name": "calcBorrowedLPTokensPlusInterest",
      "outputs": [
        {
          "internalType": "uint256",
          "name": "",
          "type": "uint256"
        }
      ],
      "stateMutability": "pure",
      "type": "function"
    },
    {
      "inputs": [
        {
          "internalType": "address",
          "name": "cfmm",
          "type": "address"
        },
        {
          "internalType": "uint256",
          "name": "borrowRate",
          "type": "uint256"
        },
        {
          "internalType": "uint256",
          "name": "prevCFMMInvariant",
          "type": "uint256"
        },
        {
          "internalType": "uint256",
          "name": "prevCFMMTotalSupply",
          "type": "uint256"
        },
        {
          "internalType": "uint256",
          "name": "lastBlackNum",
          "type": "uint256"
        }
      ],
      "name": "calcFeeIndex",
      "outputs": [
        {
          "internalType": "uint256",
          "name": "lastFeeIndex",
          "type": "uint256"
        },
        {
          "internalType": "uint256",
          "name": "lastCFMMFeeIndex",
          "type": "uint256"
        },
        {
          "internalType": "uint256",
          "name": "lastCFMMInvariant",
          "type": "uint256"
        },
        {
          "internalType": "uint256",
          "name": "lastCFMMTotalSupply",
          "type": "uint256"
        }
      ],
      "stateMutability": "view",
      "type": "function"
    },
    {
      "inputs": [],
      "name": "factory",
      "outputs": [
        {
          "internalType": "address",
          "name": "",
          "type": "address"
        }
      ],
      "stateMutability": "view",
      "type": "function"
    },
    {
      "inputs": [
        {
          "internalType": "uint256",
          "name": "lpBalance",
          "type": "uint256"
        },
        {
          "internalType": "uint256",
          "name": "lpBorrowed",
          "type": "uint256"
        }
      ],
      "name": "getBorrowRate",
      "outputs": [
        {
          "internalType": "uint256",
          "name": "",
          "type": "uint256"
        }
      ],
      "stateMutability": "view",
      "type": "function"
    },
    {
      "inputs": [],
      "name": "initCodeHash",
      "outputs": [
        {
          "internalType": "bytes32",
          "name": "",
          "type": "bytes32"
        }
      ],
      "stateMutability": "view",
      "type": "function"
    },
    {
      "inputs": [],
      "name": "optimalUtilRate",
      "outputs": [
        {
          "internalType": "uint256",
          "name": "",
          "type": "uint256"
        }
      ],
      "stateMutability": "view",
      "type": "function"
    },
    {
      "inputs": [],
      "name": "slope1",
      "outputs": [
        {
          "internalType": "uint256",
          "name": "",
          "type": "uint256"
        }
      ],
      "stateMutability": "view",
      "type": "function"
    },
    {
      "inputs": [],
      "name": "slope2",
      "outputs": [
        {
          "internalType": "uint256",
          "name": "",
          "type": "uint256"
        }
      ],
      "stateMutability": "view",
      "type": "function"
    },
    {
      "inputs": [
        {
          "internalType": "address",
          "name": "cfmm",
          "type": "address"
        },
        {
          "internalType": "uint256",
          "name": "borrowedInvariant",
          "type": "uint256"
        },
        {
          "internalType": "uint256",
          "name": "lpBalance",
          "type": "uint256"
        },
        {
          "internalType": "uint256",
          "name": "lpBorrowed",
          "type": "uint256"
        },
        {
          "internalType": "uint256",
          "name": "prevCFMMInvariant",
          "type": "uint256"
        },
        {
          "internalType": "uint256",
          "name": "prevCFMMTotalSupply",
          "type": "uint256"
        },
        {
          "internalType": "uint256",
          "name": "lastBlackNum",
          "type": "uint256"
        }
      ],
      "name": "totalAssets",
      "outputs": [
        {
          "internalType": "uint256",
          "name": "",
          "type": "uint256"
        }
      ],
      "stateMutability": "view",
      "type": "function"
    },
    {
      "inputs": [],
      "name": "tradingFee1",
      "outputs": [
        {
          "internalType": "uint16",
          "name": "",
          "type": "uint16"
        }
      ],
      "stateMutability": "view",
      "type": "function"
    },
    {
      "inputs": [],
      "name": "tradingFee2",
      "outputs": [
        {
          "internalType": "uint16",
          "name": "",
          "type": "uint16"
        }
      ],
      "stateMutability": "view",
      "type": "function"
    }
  ],
  "bytecode": "0x60806040523480156200001157600080fd5b50604051620051b4380380620051b4833981810160405281019062000037919062000534565b8181600082806020019051810190620000519190620005d3565b90506200007c8160000151826020015183604001518460600151620000cb60201b6200168f1760201c565b600082806020019051810190620000949190620005a7565b9050620000bf8160400151826060015183608001518460a00151620001e860201b620017a11760201c565b50505050505062000871565b6000620000dd6200029f60201b60201c565b9050600015158160020160049054906101000a900460ff161515146200013a576040517f08c379a0000000000000000000000000000000000000000000000000000000008152600401620001319062000626565b60405180910390fd5b60018160020160046101000a81548160ff021916908315150217905550848160000160006101000a81548173ffffffffffffffffffffffffffffffffffffffff021916908373ffffffffffffffffffffffffffffffffffffffff160217905550838160010181905550828160020160006101000a81548161ffff021916908361ffff160217905550818160020160026101000a81548161ffff021916908361ffff1602179055505050505050565b6000620001fa620002cc60201b60201c565b9050600015158160060160009054906101000a900460ff1615151462000257576040517f08c379a00000000000000000000000000000000000000000000000000000000081526004016200024e9062000626565b60405180910390fd5b670de0b6b3a7640000816000018190555062225f1b81600101819055508481600201819055508381600301819055508281600401819055508181600401819055505050505050565b6000807f1824a6532b5d85d82567e9f940dc3b06cad7da947e0716640ca7178dbfe30d6790508091505090565b6000807f1f5edbb2e428ca6eb959239e349ecf9840113efe584c1ea9dd664eb95b39c10b90508091505090565b6000620003106200030a8462000671565b62000648565b9050828152602081018484840111156200032957600080fd5b620003368482856200071a565b509392505050565b6000815190506200034f81620007ef565b92915050565b600081519050620003668162000809565b92915050565b6000815190506200037d8162000823565b92915050565b600082601f8301126200039557600080fd5b8151620003a7848260208601620002f9565b91505092915050565b600060e08284031215620003c357600080fd5b620003cf60e062000648565b90506000620003e1848285016200051d565b6000830152506020620003f7848285016200051d565b60208301525060406200040d848285016200051d565b604083015250606062000423848285016200051d565b606083015250608062000439848285016200051d565b60808301525060a06200044f848285016200051d565b60a08301525060c0620004658482850162000355565b60c08301525092915050565b600060a082840312156200048457600080fd5b6200049060a062000648565b90506000620004a2848285016200033e565b6000830152506020620004b8848285016200036c565b6020830152506040620004ce8482850162000506565b6040830152506060620004e48482850162000506565b6060830152506080620004fa8482850162000355565b60808301525092915050565b60008151905062000517816200083d565b92915050565b6000815190506200052e8162000857565b92915050565b600080604083850312156200054857600080fd5b600083015167ffffffffffffffff8111156200056357600080fd5b620005718582860162000383565b925050602083015167ffffffffffffffff8111156200058f57600080fd5b6200059d8582860162000383565b9150509250929050565b600060e08284031215620005ba57600080fd5b6000620005ca84828501620003b0565b91505092915050565b600060a08284031215620005e657600080fd5b6000620005f68482850162000471565b91505092915050565b60006200060e600383620006a7565b91506200061b82620007c6565b602082019050919050565b600060208201905081810360008301526200064181620005ff565b9050919050565b60006200065462000667565b905062000662828262000750565b919050565b6000604051905090565b600067ffffffffffffffff8211156200068f576200068e62000786565b5b6200069a82620007b5565b9050602081019050919050565b600082825260208201905092915050565b6000620006c582620006f0565b9050919050565b60008115159050919050565b6000819050919050565b600061ffff82169050919050565b600073ffffffffffffffffffffffffffffffffffffffff82169050919050565b6000819050919050565b60005b838110156200073a5780820151818401526020810190506200071d565b838111156200074a576000848401525b50505050565b6200075b82620007b5565b810181811067ffffffffffffffff821117156200077d576200077c62000786565b5b80604052505050565b7f4e487b7100000000000000000000000000000000000000000000000000000000600052604160045260246000fd5b6000601f19601f8301169050919050565b7f5345540000000000000000000000000000000000000000000000000000000000600082015250565b620007fa81620006b8565b81146200080657600080fd5b50565b6200081481620006cc565b81146200082057600080fd5b50565b6200082e81620006d8565b81146200083a57600080fd5b50565b6200084881620006e2565b81146200085457600080fd5b50565b620008628162000710565b81146200086e57600080fd5b50565b61493380620008816000396000f3fe608060405234801561001057600080fd5b506004361061012c5760003560e01c80636ee4cffd116100ad578063c45a015511610071578063c45a0155146103ac578063d0134cb7146103ca578063db4c545e146103e8578063e62d2eeb14610406578063e855aee5146104365761012c565b80636ee4cffd146102e05780639fdaeacd14610310578063a5cdfa941461032e578063a62b75a81461035e578063b77a1e7d1461037c5761012c565b8063463cd970116100f4578063463cd9701461021357806349ae2075146102435780634d0e849c1461026157806354d86e3f1461027f5780635b35b5b4146102b05761012c565b80630ca42379146101315780631d26df15146101615780631f68f20a146101945780633337cd85146101b25780634054bf24146101e2575b600080fd5b61014b60048036038101906101469190613951565b610466565b60405161015891906141aa565b60405180910390f35b61017b6004803603810190610176919061375f565b610719565b60405161018b94939291906141ee565b60405180910390f35b61019c6107d8565b6040516101a991906141aa565b60405180910390f35b6101cc60048036038101906101c79190613951565b6107eb565b6040516101d991906141aa565b60405180910390f35b6101fc60048036038101906101f79190613641565b610ae2565b60405161020a929190613f44565b60405180910390f35b61022d60048036038101906102289190613915565b610c60565b60405161023a91906141aa565b60405180910390f35b61024b610d8b565b60405161025891906141aa565b60405180910390f35b610269610d9e565b604051610276919061418f565b60405180910390f35b6102996004803603810190610294919061366a565b610dbf565b6040516102a7929190613f44565b60405180910390f35b6102ca60048036038101906102c59190613641565b6111ae565b6040516102d791906141aa565b60405180910390f35b6102fa60048036038101906102f591906137d6565b6112f1565b60405161030791906141aa565b60405180910390f35b610318611367565b604051610325919061418f565b60405180910390f35b610348600480360381019061034391906139a0565b611388565b60405161035591906141aa565b60405180910390f35b61036661139c565b60405161037391906141aa565b60405180910390f35b61039660048036038101906103919190613a18565b6113af565b6040516103a391906141aa565b60405180910390f35b6103b46113f3565b6040516103c19190613e6d565b60405180910390f35b6103d2611426565b6040516103df91906141aa565b60405180910390f35b6103f0611439565b6040516103fd9190613f74565b60405180910390f35b610420600480360381019061041b9190613641565b61144c565b60405161042d91906141aa565b60405180910390f35b610450600480360381019061044b9190613915565b6115a8565b60405161045d91906141aa565b60405180910390f35b600061047061184d565b600061047a6118ad565b9050610485816118da565b80600701548511156104cc576040517f08c379a00000000000000000000000000000000000000000000000000000000081526004016104c39061414f565b60405180910390fd5b6104d68186611d14565b91508273ffffffffffffffffffffffffffffffffffffffff163373ffffffffffffffffffffffffffffffffffffffff16146106465760008160210160008573ffffffffffffffffffffffffffffffffffffffff1673ffffffffffffffffffffffffffffffffffffffff16815260200190815260200160002060003373ffffffffffffffffffffffffffffffffffffffff1673ffffffffffffffffffffffffffffffffffffffff1681526020019081526020016000205490507fffffffffffffffffffffffffffffffffffffffffffffffffffffffffffffffff81146106445782816105c191906143c3565b8260210160008673ffffffffffffffffffffffffffffffffffffffff1673ffffffffffffffffffffffffffffffffffffffff16815260200190815260200160002060003373ffffffffffffffffffffffffffffffffffffffff1673ffffffffffffffffffffffffffffffffffffffff168152602001908152602001600020819055505b505b610651818684611d57565b61065c818484611d5c565b8273ffffffffffffffffffffffffffffffffffffffff168473ffffffffffffffffffffffffffffffffffffffff163373ffffffffffffffffffffffffffffffffffffffff167ffbde797d201c681b91056529119e0b02407c7bb96a4a2c75c01fc9667232c8db88866040516106d29291906141c5565b60405180910390a46107098160030160009054906101000a900473ffffffffffffffffffffffffffffffffffffffff168587611f24565b506107126120ae565b9392505050565b6000806000806000670de0b6b3a764000090508093506107418a61073c8c6120c1565b61226b565b925061074c8a61230b565b9150600082111561078d57600081838a6107669190614369565b6107709190614338565b905080888561077f9190614369565b6107899190614338565b9450505b6000864361079b91906143c3565b9050600062225f1b8b836107af9190614369565b6107b99190614338565b905080866107c791906142e2565b965050505095509550955095915050565b60006107e261244e565b60020154905090565b60006107f561184d565b60006107ff6118ad565b905061080a816118da565b8273ffffffffffffffffffffffffffffffffffffffff163373ffffffffffffffffffffffffffffffffffffffff16146109785760008160210160008573ffffffffffffffffffffffffffffffffffffffff1673ffffffffffffffffffffffffffffffffffffffff16815260200190815260200160002060003373ffffffffffffffffffffffffffffffffffffffff1673ffffffffffffffffffffffffffffffffffffffff1681526020019081526020016000205490507fffffffffffffffffffffffffffffffffffffffffffffffffffffffffffffffff81146109765785816108f391906143c3565b8260210160008673ffffffffffffffffffffffffffffffffffffffff1673ffffffffffffffffffffffffffffffffffffffff16815260200190815260200160002060003373ffffffffffffffffffffffffffffffffffffffff1673ffffffffffffffffffffffffffffffffffffffff168152602001908152602001600020819055505b505b6000610984828761247b565b92508214156109c8576040517f08c379a00000000000000000000000000000000000000000000000000000000081526004016109bf9061410f565b60405180910390fd5b8060070154821115610a0f576040517f08c379a0000000000000000000000000000000000000000000000000000000008152600401610a069061414f565b60405180910390fd5b610a1a818387611d57565b610a25818487611d5c565b8273ffffffffffffffffffffffffffffffffffffffff168473ffffffffffffffffffffffffffffffffffffffff163373ffffffffffffffffffffffffffffffffffffffff167ffbde797d201c681b91056529119e0b02407c7bb96a4a2c75c01fc9667232c8db8589604051610a9b9291906141c5565b60405180910390a4610ad28160030160009054906101000a900473ffffffffffffffffffffffffffffffffffffffff168584611f24565b50610adb6120ae565b9392505050565b60606000610aee61184d565b6000610af86118ad565b905060008160200160003073ffffffffffffffffffffffffffffffffffffffff1673ffffffffffffffffffffffffffffffffffffffff16815260200190815260200160002054905060008111610b83576040517f08c379a0000000000000000000000000000000000000000000000000000000008152600401610b7a9061406f565b60405180910390fd5b610b8c826118da565b8160070154610b9b838361247b565b9350831115610bdf576040517f08c379a0000000000000000000000000000000000000000000000000000000008152600401610bd69061414f565b60405180910390fd5b610c0e8260030160009054906101000a900473ffffffffffffffffffffffffffffffffffffffff1686856124be565b9350610c1b823083611d5c565b610c498260030160009054906101000a900473ffffffffffffffffffffffffffffffffffffffff163061265a565b82600701819055505050610c5b6120ae565b915091565b6000610c6a61184d565b6000610c746118ad565b9050610c7f816118da565b6000610c8b82866127a9565b9250821415610ccf576040517f08c379a0000000000000000000000000000000000000000000000000000000008152600401610cc690613faf565b60405180910390fd5b610cff8160030160009054906101000a900473ffffffffffffffffffffffffffffffffffffffff163330876127ec565b610d0a81848461295c565b8273ffffffffffffffffffffffffffffffffffffffff163373ffffffffffffffffffffffffffffffffffffffff167fdcbc1c05240f31ff3ad067ef1ee35ce4997762752e3a095284754544f4c709d78685604051610d699291906141c5565b60405180910390a3610d7c818584612a7d565b50610d856120ae565b92915050565b6000610d9561244e565b60030154905090565b6000610da8612a82565b60020160009054906101000a900461ffff16905090565b60606000610dcb61184d565b6000610dd56118ad565b90506000610de6828b8b8b8b612aaf565b809250819550505060008260010190506000818054905067ffffffffffffffff811115610e3c577f4e487b7100000000000000000000000000000000000000000000000000000000600052604160045260246000fd5b604051908082528060200260200182016040528015610e6a5781602001602082028036833780820191505090505b50905060005b8280549050811015610f4157610ee9838281548110610eb8577f4e487b7100000000000000000000000000000000000000000000000000000000600052603260045260246000fd5b9060005260206000200160009054906101000a900473ffffffffffffffffffffffffffffffffffffffff163061265a565b828281518110610f22577f4e487b7100000000000000000000000000000000000000000000000000000000600052603260045260246000fd5b6020026020010181815250508080610f39906144fd565b915050610e70565b503373ffffffffffffffffffffffffffffffffffffffff16636464a1eb8388868c8c6040518663ffffffff1660e01b8152600401610f83959493929190613ee8565b600060405180830381600087803b158015610f9d57600080fd5b505af1158015610fb1573d6000803e3d6000fd5b5050505060005b828054905081101561115a576000878281518110610fff577f4e487b7100000000000000000000000000000000000000000000000000000000600052603260045260246000fd5b602002602001015111156111475761107a838281548110611049577f4e487b7100000000000000000000000000000000000000000000000000000000600052603260045260246000fd5b9060005260206000200160009054906101000a900473ffffffffffffffffffffffffffffffffffffffff163061265a565b8782815181106110b3577f4e487b7100000000000000000000000000000000000000000000000000000000600052603260045260246000fd5b60200260200101518383815181106110f4577f4e487b7100000000000000000000000000000000000000000000000000000000600052603260045260246000fd5b602002602001015161110691906142e2565b14611146576040517f08c379a000000000000000000000000000000000000000000000000000000000815260040161113d9061408f565b60405180910390fd5b5b8080611152906144fd565b915050610fb8565b5061118a8460030160009054906101000a900473ffffffffffffffffffffffffffffffffffffffff168730613125565b506111948d6111ae565b9450505050506111a26120ae565b97509795505050505050565b60006111b861184d565b60006111c26118ad565b9050600081600701546111f98360030160009054906101000a900473ffffffffffffffffffffffffffffffffffffffff163061265a565b61120391906143c3565b905060008111611248576040517f08c379a000000000000000000000000000000000000000000000000000000000815260040161123f9061412f565b60405180910390fd5b611251826118da565b600061125d83836127a9565b93508314156112a1576040517f08c379a000000000000000000000000000000000000000000000000000000000815260040161129890613faf565b60405180910390fd5b6112ac82858561295c565b6112da8260030160009054906101000a900473ffffffffffffffffffffffffffffffffffffffff163061265a565b826007018190555050506112ec6120ae565b919050565b60008060008061130d8b6113058b8b611388565b898989610719565b93509350509250670de0b6b3a7640000838b6113299190614369565b6113339190614338565b995081818b6113429190614369565b61134c9190614338565b8961135791906142e2565b9350505050979650505050505050565b6000611371612a82565b60020160029054906101000a900461ffff16905090565b600061139483836131bb565b905092915050565b60006113a661244e565b60040154905090565b6000670de0b6b3a764000084866113c69190614369565b6113d09190614338565b94508282866113df9190614369565b6113e99190614338565b9050949350505050565b60006113fd612a82565b60000160009054906101000a900473ffffffffffffffffffffffffffffffffffffffff16905090565b600061143061244e565b60050154905090565b6000611443612a82565b60010154905090565b600061145661184d565b60006114606118ad565b905060008160200160003073ffffffffffffffffffffffffffffffffffffffff1673ffffffffffffffffffffffffffffffffffffffff168152602001908152602001600020549050600081116114eb576040517f08c379a00000000000000000000000000000000000000000000000000000000081526004016114e29061406f565b60405180910390fd5b6114f4826118da565b8160070154611503838361247b565b9350831115611547576040517f08c379a000000000000000000000000000000000000000000000000000000000815260040161153e9061414f565b60405180910390fd5b60008260030160009054906101000a900473ffffffffffffffffffffffffffffffffffffffff16905061157b818686611f24565b611586833084611d5c565b611590813061265a565b83600701819055505050506115a36120ae565b919050565b60006115b261184d565b60006115bc6118ad565b90506115c7816118da565b6115d181856132ac565b91506116038160030160009054906101000a900473ffffffffffffffffffffffffffffffffffffffff163330856127ec565b61160e81848661295c565b8273ffffffffffffffffffffffffffffffffffffffff163373ffffffffffffffffffffffffffffffffffffffff167fdcbc1c05240f31ff3ad067ef1ee35ce4997762752e3a095284754544f4c709d7848760405161166d9291906141c5565b60405180910390a3611680818386612a7d565b506116896120ae565b92915050565b6000611699612a82565b9050600015158160020160049054906101000a900460ff161515146116f3576040517f08c379a00000000000000000000000000000000000000000000000000000000081526004016116ea9061402f565b60405180910390fd5b60018160020160046101000a81548160ff021916908315150217905550848160000160006101000a81548173ffffffffffffffffffffffffffffffffffffffff021916908373ffffffffffffffffffffffffffffffffffffffff160217905550838160010181905550828160020160006101000a81548161ffff021916908361ffff160217905550818160020160026101000a81548161ffff021916908361ffff1602179055505050505050565b60006117ab61244e565b9050600015158160060160009054906101000a900460ff16151514611805576040517f08c379a00000000000000000000000000000000000000000000000000000000081526004016117fc9061402f565b60405180910390fd5b670de0b6b3a7640000816000018190555062225f1b81600101819055508481600201819055508381600301819055508281600401819055508181600401819055505050505050565b60006118576118ad565b9050600181601b0154146118a0576040517f08c379a00000000000000000000000000000000000000000000000000000000081526004016118979061416f565b60405180910390fd5b600081601b018190555050565b6000807f58a86ce9af3c88d86c606c50ca486aaedb655aee7dec73f917ade295c9fef44390508091505090565b6000816016015490506118f5826007015483600801546131bb565b82600f0181905550611906826132ef565b60006119888360030160009054906101000a900473ffffffffffffffffffffffffffffffffffffffff1684600e0180548060200260200160405190810160405280929190818152602001828054801561197e57602002820191906000526020600020905b81548152602001906001019080831161196a575b505050505061226b565b905060006119b98460030160009054906101000a900473ffffffffffffffffffffffffffffffffffffffff1661230b565b90506000811115611a0c576000838286601301546119d79190614369565b6119e19190614338565b9050808560140154846119f49190614369565b6119fe9190614338565b856012018190555050611a16565b8284601201819055505b81846013018190555080846014018190555050506000826015015443611a3c91906143c3565b9050600062225f1b84600f015483611a549190614369565b611a5e9190614338565b9050808460120154611a7091906142e2565b8460110181905550505080826011015483600b0154611a8f9190614369565b611a999190614338565b82600b01819055508160130154826014015483600b0154611aba9190614369565b611ac49190614338565b8260090181905550816014015482601301548360070154611ae59190614369565b611aef9190614338565b82600c018190555081600901548260070154611b0b91906142e2565b82600a018190555081600b015482600c0154611b2791906142e2565b82600d01819055508082601101548360100154611b449190614369565b611b4e9190614338565b8260100181905550438260150181905550600082600b01541115611d10576000808360000160009054906101000a900473ffffffffffffffffffffffffffffffffffffffff1673ffffffffffffffffffffffffffffffffffffffff1663995b5aae6040518163ffffffff1660e01b8152600401604080518083038186803b158015611bd857600080fd5b505afa158015611bec573d6000803e3d6000fd5b505050506040513d601f19601f82011682018060405250810190611c109190613723565b91509150600073ffffffffffffffffffffffffffffffffffffffff168273ffffffffffffffffffffffffffffffffffffffff1614158015611c515750600081115b15611d0d576000846014015485601301548660070154611c719190614369565b611c7b9190614338565b90506000856011015483868860110154611c9591906143c3565b611c9f9190614369565b611ca99190614338565b905060008287600b0154611cbd91906142e2565b87600b015483611ccd9190614369565b611cd79190614338565b9050611d0987868389611cea91906143c3565b848b601f0154611cfa9190614369565b611d049190614338565b61295c565b5050505b50505b5050565b60008083601f01549050600084600a0154905060008214611d4b57808285611d3c9190614369565b611d469190614338565b611d4d565b835b9250505092915050565b505050565b600073ffffffffffffffffffffffffffffffffffffffff168273ffffffffffffffffffffffffffffffffffffffff161415611dcc576040517f08c379a0000000000000000000000000000000000000000000000000000000008152600401611dc39061404f565b60405180910390fd5b60008360200160008473ffffffffffffffffffffffffffffffffffffffff1673ffffffffffffffffffffffffffffffffffffffff16815260200190815260200160002054905081811015611e55576040517f08c379a0000000000000000000000000000000000000000000000000000000008152600401611e4c90613fef565b60405180910390fd5b8181038460200160008573ffffffffffffffffffffffffffffffffffffffff1673ffffffffffffffffffffffffffffffffffffffff168152602001908152602001600020819055508184601f016000828254611eb191906143c3565b92505081905550600073ffffffffffffffffffffffffffffffffffffffff168373ffffffffffffffffffffffffffffffffffffffff167fddf252ad1be2c89b69c2b068fc378daa952ba7f163c4a11628f55a4df523b3ef84604051611f1691906141aa565b60405180910390a350505050565b6000808473ffffffffffffffffffffffffffffffffffffffff166040518060400160405280601981526020017f7472616e7366657228616464726573732c75696e743235362900000000000000815250805190602001208585604051602401611f8e929190613ebf565b604051602081830303815290604052907bffffffffffffffffffffffffffffffffffffffffffffffffffffffff19166020820180517bffffffffffffffffffffffffffffffffffffffffffffffffffffffff8381831617835250505050604051611ff89190613e56565b6000604051808303816000865af19150503d8060008114612035576040519150601f19603f3d011682016040523d82523d6000602084013e61203a565b606091505b509150915081801561206857506000815114806120675750808060200190518101906120669190613874565b5b5b6120a7576040517f08c379a000000000000000000000000000000000000000000000000000000000815260040161209e90613f8f565b60405180910390fd5b5050505050565b60016120b86118ad565b601b0181905550565b6060600267ffffffffffffffff811115612104577f4e487b7100000000000000000000000000000000000000000000000000000000600052604160045260246000fd5b6040519080825280602002602001820160405280156121325781602001602082028036833780820191505090505b5090508173ffffffffffffffffffffffffffffffffffffffff16630902f1ac6040518163ffffffff1660e01b815260040160606040518083038186803b15801561217b57600080fd5b505afa15801561218f573d6000803e3d6000fd5b505050506040513d601f19601f820116820180604052508101906121b3919061389d565b826dffffffffffffffffffffffffffff169250816dffffffffffffffffffffffffffff1691505082600081518110612214577f4e487b7100000000000000000000000000000000000000000000000000000000600052603260045260246000fd5b6020026020010183600181518110612255577f4e487b7100000000000000000000000000000000000000000000000000000000600052603260045260246000fd5b6020026020010182815250828152505050919050565b6000612303826001815181106122aa577f4e487b7100000000000000000000000000000000000000000000000000000000600052603260045260246000fd5b6020026020010151836000815181106122ec577f4e487b7100000000000000000000000000000000000000000000000000000000600052603260045260246000fd5b60200260200101516122fe9190614369565b613459565b905092915050565b60008060008373ffffffffffffffffffffffffffffffffffffffff166040518060400160405280600d81526020017f746f74616c537570706c7928290000000000000000000000000000000000000081525080519060200120604051602401604051602081830303815290604052907bffffffffffffffffffffffffffffffffffffffffffffffffffffffff19166020820180517bffffffffffffffffffffffffffffffffffffffffffffffffffffffff83818316178352505050506040516123d49190613e56565b600060405180830381855afa9150503d806000811461240f576040519150601f19603f3d011682016040523d82523d6000602084013e612414565b606091505b509150915081801561242857506020815110155b61243157600080fd5b8080602001905181019061244591906138ec565b92505050919050565b6000807f1f5edbb2e428ca6eb959239e349ecf9840113efe584c1ea9dd664eb95b39c10b90508091505090565b60008083601f01549050600084600a01549050600082146124b2578181856124a39190614369565b6124ad9190614338565b6124b4565b835b9250505092915050565b60606124cb848584611f24565b600267ffffffffffffffff81111561250c577f4e487b7100000000000000000000000000000000000000000000000000000000600052604160045260246000fd5b60405190808252806020026020018201604052801561253a5781602001602082028036833780820191505090505b5090508373ffffffffffffffffffffffffffffffffffffffff166389afcb44846040518263ffffffff1660e01b81526004016125769190613e6d565b6040805180830381600087803b15801561258f57600080fd5b505af11580156125a3573d6000803e3d6000fd5b505050506040513d601f19601f820116820180604052508101906125c791906139dc565b82600081518110612601577f4e487b7100000000000000000000000000000000000000000000000000000000600052603260045260246000fd5b6020026020010183600181518110612642577f4e487b7100000000000000000000000000000000000000000000000000000000600052603260045260246000fd5b60200260200101828152508281525050509392505050565b60008060008473ffffffffffffffffffffffffffffffffffffffff166040518060400160405280601281526020017f62616c616e63654f66286164647265737329000000000000000000000000000081525080519060200120856040516024016126c49190613e6d565b604051602081830303815290604052907bffffffffffffffffffffffffffffffffffffffffffffffffffffffff19166020820180517bffffffffffffffffffffffffffffffffffffffffffffffffffffffff838183161783525050505060405161272e9190613e56565b600060405180830381855afa9150503d8060008114612769576040519150601f19603f3d011682016040523d82523d6000602084013e61276e565b606091505b509150915081801561278257506020815110155b61278b57600080fd5b8080602001905181019061279f91906138ec565b9250505092915050565b60008083601f01549050600084600a01549050600082146127e0578082856127d19190614369565b6127db9190614338565b6127e2565b835b9250505092915050565b6000808573ffffffffffffffffffffffffffffffffffffffff166040518060600160405280602581526020016148d9602591398051906020012086868660405160240161283b93929190613e88565b604051602081830303815290604052907bffffffffffffffffffffffffffffffffffffffffffffffffffffffff19166020820180517bffffffffffffffffffffffffffffffffffffffffffffffffffffffff83818316178352505050506040516128a59190613e56565b6000604051808303816000865af19150503d80600081146128e2576040519150601f19603f3d011682016040523d82523d6000602084013e6128e7565b606091505b509150915081801561291557506000815114806129145750808060200190518101906129139190613874565b5b5b612954576040517f08c379a000000000000000000000000000000000000000000000000000000000815260040161294b906140cf565b60405180910390fd5b505050505050565b6000811161299f576040517f08c379a00000000000000000000000000000000000000000000000000000000081526004016129969061400f565b60405180910390fd5b8083601f0160008282546129b391906142e2565b92505081905550808360200160008473ffffffffffffffffffffffffffffffffffffffff1673ffffffffffffffffffffffffffffffffffffffff1681526020019081526020016000206000828254612a0b91906142e2565b925050819055508173ffffffffffffffffffffffffffffffffffffffff16600073ffffffffffffffffffffffffffffffffffffffff167fddf252ad1be2c89b69c2b068fc378daa952ba7f163c4a11628f55a4df523b3ef83604051612a7091906141aa565b60405180910390a3505050565b505050565b6000807f1824a6532b5d85d82567e9f940dc3b06cad7da947e0716640ca7178dbfe30d6790508091505090565b606060008086866000818110612aee577f4e487b7100000000000000000000000000000000000000000000000000000000600052603260045260246000fd5b90506020020135118015612b425750600086866001818110612b39577f4e487b7100000000000000000000000000000000000000000000000000000000600052603260045260246000fd5b90506020020135115b612b81576040517f08c379a0000000000000000000000000000000000000000000000000000000008152600401612b78906140ef565b60405180910390fd5b60008088600e01600081548110612bc1577f4e487b7100000000000000000000000000000000000000000000000000000000600052603260045260246000fd5b906000526020600020015489600e01600181548110612c09577f4e487b7100000000000000000000000000000000000000000000000000000000600052603260045260246000fd5b906000526020600020015491509150600082118015612c285750600081115b612c67576040517f08c379a0000000000000000000000000000000000000000000000000000000008152600401612c5e906140af565b60405180910390fd5b8860030160009054906101000a900473ffffffffffffffffffffffffffffffffffffffff169250600082148015612c9e5750600081145b15612cf857878784828280806020026020016040519081016040528093929190818152602001838360200280828437600081840152601f19601f82011690508083019250505050505050915090915093509350505061311b565b600267ffffffffffffffff811115612d39577f4e487b7100000000000000000000000000000000000000000000000000000000600052604160045260246000fd5b604051908082528060200260200182016040528015612d675781602001602082028036833780820191505090505b509350600082828a8a6000818110612da8577f4e487b7100000000000000000000000000000000000000000000000000000000600052603260045260246000fd5b90506020020135612db99190614369565b612dc39190614338565b905088886001818110612dff577f4e487b7100000000000000000000000000000000000000000000000000000000600052603260045260246000fd5b905060200201358111612f2c57612e568188886001818110612e4a577f4e487b7100000000000000000000000000000000000000000000000000000000600052603260045260246000fd5b905060200201356134d3565b88886000818110612e90577f4e487b7100000000000000000000000000000000000000000000000000000000600052603260045260246000fd5b905060200201358186600081518110612ed2577f4e487b7100000000000000000000000000000000000000000000000000000000600052603260045260246000fd5b6020026020010187600181518110612f13577f4e487b7100000000000000000000000000000000000000000000000000000000600052603260045260246000fd5b602002602001018281525082815250505050505061311b565b600082848b8b6001818110612f6a577f4e487b7100000000000000000000000000000000000000000000000000000000600052603260045260246000fd5b90506020020135612f7b9190614369565b612f859190614338565b905089896000818110612fc1577f4e487b7100000000000000000000000000000000000000000000000000000000600052603260045260246000fd5b90506020020135811115612ffe577f4e487b7100000000000000000000000000000000000000000000000000000000600052600160045260246000fd5b613048818989600081811061303c577f4e487b7100000000000000000000000000000000000000000000000000000000600052603260045260246000fd5b905060200201356134d3565b808a8a6001818110613083577f4e487b7100000000000000000000000000000000000000000000000000000000600052603260045260246000fd5b90506020020135876000815181106130c4577f4e487b7100000000000000000000000000000000000000000000000000000000600052603260045260246000fd5b6020026020010188600181518110613105577f4e487b7100000000000000000000000000000000000000000000000000000000600052603260045260246000fd5b6020026020010182815250828152505050505050505b9550959350505050565b60008373ffffffffffffffffffffffffffffffffffffffff16636a627842836040518263ffffffff1660e01b81526004016131609190613e6d565b602060405180830381600087803b15801561317a57600080fd5b505af115801561318e573d6000803e3d6000fd5b505050506040513d601f19601f820116820180604052508101906131b291906138ec565b90509392505050565b6000806131c661244e565b9050600083856131d691906142e2565b8260000154856131e69190614369565b6131f09190614338565b90508160030154811161323a57600082600301548360040154836132149190614369565b61321e9190614338565b905080836002015461323091906142e2565b93505050506132a6565b600082600301548261324c91906143c3565b905060008360030154846000015461326491906143c3565b8460050154836132749190614369565b61327e9190614338565b9050808460040154856002015461329591906142e2565b61329f91906142e2565b9450505050505b92915050565b60008083601f01549050600084600a01549050600082146132e3578181856132d49190614369565b6132de9190614338565b6132e5565b835b9250505092915050565b8060030160009054906101000a900473ffffffffffffffffffffffffffffffffffffffff1673ffffffffffffffffffffffffffffffffffffffff16630902f1ac6040518163ffffffff1660e01b815260040160606040518083038186803b15801561335957600080fd5b505afa15801561336d573d6000803e3d6000fd5b505050506040513d601f19601f82011682018060405250810190613391919061389d565b826dffffffffffffffffffffffffffff169250816dffffffffffffffffffffffffffff1691505082600e016000815481106133f5577f4e487b7100000000000000000000000000000000000000000000000000000000600052603260045260246000fd5b90600052602060002001600084600e0160018154811061343e577f4e487b7100000000000000000000000000000000000000000000000000000000600052603260045260246000fd5b90600052602060002001600084919050558391905055505050565b600060038211156134c057819050600060016002846134789190614338565b61348291906142e2565b90505b818110156134ba57809150600281828561349f9190614338565b6134a991906142e2565b6134b39190614338565b9050613485565b506134ce565b600082146134cd57600190505b5b919050565b80821015613516576040517f08c379a000000000000000000000000000000000000000000000000000000000815260040161350d90613fcf565b60405180910390fd5b5050565b60008135905061352981614865565b92915050565b60008151905061353e81614865565b92915050565b60008083601f84011261355657600080fd5b8235905067ffffffffffffffff81111561356f57600080fd5b60208301915083602082028301111561358757600080fd5b9250929050565b60008151905061359d8161487c565b92915050565b60008083601f8401126135b557600080fd5b8235905067ffffffffffffffff8111156135ce57600080fd5b6020830191508360018202830111156135e657600080fd5b9250929050565b6000815190506135fc81614893565b92915050565b600081359050613611816148aa565b92915050565b600081519050613626816148aa565b92915050565b60008151905061363b816148c1565b92915050565b60006020828403121561365357600080fd5b60006136618482850161351a565b91505092915050565b60008060008060008060006080888a03121561368557600080fd5b60006136938a828b0161351a565b975050602088013567ffffffffffffffff8111156136b057600080fd5b6136bc8a828b01613544565b9650965050604088013567ffffffffffffffff8111156136db57600080fd5b6136e78a828b01613544565b9450945050606088013567ffffffffffffffff81111561370657600080fd5b6137128a828b016135a3565b925092505092959891949750929550565b6000806040838503121561373657600080fd5b60006137448582860161352f565b925050602061375585828601613617565b9150509250929050565b600080600080600060a0868803121561377757600080fd5b60006137858882890161351a565b955050602061379688828901613602565b94505060406137a788828901613602565b93505060606137b888828901613602565b92505060806137c988828901613602565b9150509295509295909350565b600080600080600080600060e0888a0312156137f157600080fd5b60006137ff8a828b0161351a565b97505060206138108a828b01613602565b96505060406138218a828b01613602565b95505060606138328a828b01613602565b94505060806138438a828b01613602565b93505060a06138548a828b01613602565b92505060c06138658a828b01613602565b91505092959891949750929550565b60006020828403121561388657600080fd5b60006138948482850161358e565b91505092915050565b6000806000606084860312156138b257600080fd5b60006138c0868287016135ed565b93505060206138d1868287016135ed565b92505060406138e28682870161362c565b9150509250925092565b6000602082840312156138fe57600080fd5b600061390c84828501613617565b91505092915050565b6000806040838503121561392857600080fd5b600061393685828601613602565b92505060206139478582860161351a565b9150509250929050565b60008060006060848603121561396657600080fd5b600061397486828701613602565b93505060206139858682870161351a565b92505060406139968682870161351a565b9150509250925092565b600080604083850312156139b357600080fd5b60006139c185828601613602565b92505060206139d285828601613602565b9150509250929050565b600080604083850312156139ef57600080fd5b60006139fd85828601613617565b9250506020613a0e85828601613617565b9150509250929050565b60008060008060808587031215613a2e57600080fd5b6000613a3c87828801613602565b9450506020613a4d87828801613602565b9350506040613a5e87828801613602565b9250506060613a6f87828801613602565b91505092959194509250565b6000613a878383613aab565b60208301905092915050565b6000613a9f8383613e38565b60208301905092915050565b613ab481614417565b82525050565b613ac381614417565b82525050565b6000613ad482614258565b613ade8185614293565b9350613ae983614233565b8060005b83811015613b2157613afe826145a4565b613b088882613a7b565b9750613b1383614279565b925050600181019050613aed565b5085935050505092915050565b6000613b3982614263565b613b4381856142a4565b9350613b4e83614248565b8060005b83811015613b7f578151613b668882613a93565b9750613b7183614286565b925050600181019050613b52565b5085935050505092915050565b613b9581614435565b82525050565b6000613ba783856142b5565b9350613bb48385846144a1565b613bbd836145b7565b840190509392505050565b6000613bd38261426e565b613bdd81856142c6565b9350613bed8185602086016144b0565b80840191505092915050565b6000613c066007836142d1565b9150613c11826145d5565b602082019050919050565b6000613c29600b836142d1565b9150613c34826145fe565b602082019050919050565b6000613c4c6008836142d1565b9150613c5782614627565b602082019050919050565b6000613c6f6009836142d1565b9150613c7a82614650565b602082019050919050565b6000613c926005836142d1565b9150613c9d82614679565b602082019050919050565b6000613cb56003836142d1565b9150613cc0826146a2565b602082019050919050565b6000613cd86009836142d1565b9150613ce3826146cb565b602082019050919050565b6000613cfb6008836142d1565b9150613d06826146f4565b602082019050919050565b6000613d1e6002836142d1565b9150613d298261471d565b602082019050919050565b6000613d416009836142d1565b9150613d4c82614746565b602082019050919050565b6000613d646008836142d1565b9150613d6f8261476f565b602082019050919050565b6000613d876008836142d1565b9150613d9282614798565b602082019050919050565b6000613daa600b836142d1565b9150613db5826147c1565b602082019050919050565b6000613dcd6005836142d1565b9150613dd8826147ea565b602082019050919050565b6000613df06005836142d1565b9150613dfb82614813565b602082019050919050565b6000613e136004836142d1565b9150613e1e8261483c565b602082019050919050565b613e3281614459565b82525050565b613e4181614487565b82525050565b613e5081614487565b82525050565b6000613e628284613bc8565b915081905092915050565b6000602082019050613e826000830184613aba565b92915050565b6000606082019050613e9d6000830186613aba565b613eaa6020830185613aba565b613eb76040830184613e47565b949350505050565b6000604082019050613ed46000830185613aba565b613ee16020830184613e47565b9392505050565b60006080820190508181036000830152613f028188613ac9565b90508181036020830152613f168187613b2e565b9050613f256040830186613aba565b8181036060830152613f38818486613b9b565b90509695505050505050565b60006040820190508181036000830152613f5e8185613b2e565b9050613f6d6020830184613e47565b9392505050565b6000602082019050613f896000830184613b8c565b92915050565b60006020820190508181036000830152613fa881613bf9565b9050919050565b60006020820190508181036000830152613fc881613c1c565b9050919050565b60006020820190508181036000830152613fe881613c3f565b9050919050565b6000602082019050818103600083015261400881613c62565b9050919050565b6000602082019050818103600083015261402881613c85565b9050919050565b6000602082019050818103600083015261404881613ca8565b9050919050565b6000602082019050818103600083015261406881613ccb565b9050919050565b6000602082019050818103600083015261408881613cee565b9050919050565b600060208201905081810360008301526140a881613d11565b9050919050565b600060208201905081810360008301526140c881613d34565b9050919050565b600060208201905081810360008301526140e881613d57565b9050919050565b6000602082019050818103600083015261410881613d7a565b9050919050565b6000602082019050818103600083015261412881613d9d565b9050919050565b6000602082019050818103600083015261414881613dc0565b9050919050565b6000602082019050818103600083015261416881613de3565b9050919050565b6000602082019050818103600083015261418881613e06565b9050919050565b60006020820190506141a46000830184613e29565b92915050565b60006020820190506141bf6000830184613e47565b92915050565b60006040820190506141da6000830185613e47565b6141e76020830184613e47565b9392505050565b60006080820190506142036000830187613e47565b6142106020830186613e47565b61421d6040830185613e47565b61422a6060830184613e47565b95945050505050565b60008190508160005260206000209050919050565b6000819050602082019050919050565b600081549050919050565b600081519050919050565b600081519050919050565b6000600182019050919050565b6000602082019050919050565b600082825260208201905092915050565b600082825260208201905092915050565b600082825260208201905092915050565b600081905092915050565b600082825260208201905092915050565b60006142ed82614487565b91506142f883614487565b9250827fffffffffffffffffffffffffffffffffffffffffffffffffffffffffffffffff0382111561432d5761432c614546565b5b828201905092915050565b600061434382614487565b915061434e83614487565b92508261435e5761435d614575565b5b828204905092915050565b600061437482614487565b915061437f83614487565b9250817fffffffffffffffffffffffffffffffffffffffffffffffffffffffffffffffff04831182151516156143b8576143b7614546565b5b828202905092915050565b60006143ce82614487565b91506143d983614487565b9250828210156143ec576143eb614546565b5b828203905092915050565b600073ffffffffffffffffffffffffffffffffffffffff82169050919050565b600061442282614467565b9050919050565b60008115159050919050565b6000819050919050565b60006dffffffffffffffffffffffffffff82169050919050565b600061ffff82169050919050565b600073ffffffffffffffffffffffffffffffffffffffff82169050919050565b6000819050919050565b600063ffffffff82169050919050565b82818337600083830152505050565b60005b838110156144ce5780820151818401526020810190506144b3565b838111156144dd576000848401525b50505050565b60006144f66144f1836145c8565b6143f7565b9050919050565b600061450882614487565b91507fffffffffffffffffffffffffffffffffffffffffffffffffffffffffffffffff82141561453b5761453a614546565b5b600182019050919050565b7f4e487b7100000000000000000000000000000000000000000000000000000000600052601160045260246000fd5b7f4e487b7100000000000000000000000000000000000000000000000000000000600052601260045260246000fd5b60006145b082546144e3565b9050919050565b6000601f19601f8301169050919050565b60008160001c9050919050565b7f53545f4641494c00000000000000000000000000000000000000000000000000600082015250565b7f5a45524f5f534841524553000000000000000000000000000000000000000000600082015250565b7f3c206d696e416d74000000000000000000000000000000000000000000000000600082015250565b7f3e2062616c616e63650000000000000000000000000000000000000000000000600082015250565b7f3020616d74000000000000000000000000000000000000000000000000000000600082015250565b7f5345540000000000000000000000000000000000000000000000000000000000600082015250565b7f3020616464726573730000000000000000000000000000000000000000000000600082015250565b7f3020736861726573000000000000000000000000000000000000000000000000600082015250565b7f574c000000000000000000000000000000000000000000000000000000000000600082015250565b7f3020726573657276650000000000000000000000000000000000000000000000600082015250565b7f5354465f4641494c000000000000000000000000000000000000000000000000600082015250565b7f3020616d6f756e74000000000000000000000000000000000000000000000000600082015250565b7f5a45524f5f415353455453000000000000000000000000000000000000000000600082015250565b7f3020646570000000000000000000000000000000000000000000000000000000600082015250565b7f3e206c6971000000000000000000000000000000000000000000000000000000600082015250565b7f4c4f434b00000000000000000000000000000000000000000000000000000000600082015250565b61486e81614417565b811461487957600080fd5b50565b61488581614429565b811461489057600080fd5b50565b61489c8161443f565b81146148a757600080fd5b50565b6148b381614487565b81146148be57600080fd5b50565b6148ca81614491565b81146148d557600080fd5b5056fe7472616e7366657246726f6d28616464726573732c616464726573732c75696e7432353629a2646970667358221220fa7ec046fc28161b10c066976da5c5d1b16e0ddf9276fe04e0c85d37354dbeb264736f6c63430008040033",
  "linkReferences": {},
  "deployedLinkReferences": {}
}