{
  "contractName": "DepositPool",
  "abi": [
    {
      "inputs": [
        {
          "internalType": "address",
          "name": "_uniRouter",
          "type": "address"
        },
        {
          "internalType": "address",
          "name": "_uniPair",
          "type": "address"
        },
        {
          "internalType": "address",
          "name": "_token0",
          "type": "address"
        },
        {
          "internalType": "address",
          "name": "_token1",
          "type": "address"
        },
        {
          "internalType": "address",
          "name": "_positionManager",
          "type": "address"
        }
      ],
      "stateMutability": "nonpayable",
      "type": "constructor"
    },
    {
      "anonymous": false,
      "inputs": [
        {
          "indexed": true,
          "internalType": "address",
          "name": "owner",
          "type": "address"
        },
        {
          "indexed": true,
          "internalType": "address",
          "name": "spender",
          "type": "address"
        },
        {
          "indexed": false,
          "internalType": "uint256",
          "name": "value",
          "type": "uint256"
        }
      ],
      "name": "Approval",
      "type": "event"
    },
    {
      "anonymous": false,
      "inputs": [
        {
          "indexed": false,
          "internalType": "uint256",
          "name": "tokensOwed0",
          "type": "uint256"
        },
        {
          "indexed": false,
          "internalType": "uint256",
          "name": "tokensOwed1",
          "type": "uint256"
        }
      ],
      "name": "OpenPosition",
      "type": "event"
    },
    {
      "anonymous": false,
      "inputs": [
        {
          "indexed": true,
          "internalType": "address",
          "name": "from",
          "type": "address"
        },
        {
          "indexed": true,
          "internalType": "address",
          "name": "to",
          "type": "address"
        },
        {
          "indexed": false,
          "internalType": "uint256",
          "name": "value",
          "type": "uint256"
        }
      ],
      "name": "Transfer",
      "type": "event"
    },
    {
      "inputs": [],
      "name": "BASE_RATE",
      "outputs": [
        {
          "internalType": "uint256",
          "name": "",
          "type": "uint256"
        }
      ],
      "stateMutability": "view",
      "type": "function",
      "constant": true
    },
    {
      "inputs": [],
      "name": "BORROWED_INVARIANT",
      "outputs": [
        {
          "internalType": "uint256",
          "name": "",
          "type": "uint256"
        }
      ],
      "stateMutability": "view",
      "type": "function",
      "constant": true
    },
    {
      "inputs": [],
      "name": "LAST_BLOCK_NUMBER",
      "outputs": [
        {
          "internalType": "uint256",
          "name": "",
          "type": "uint256"
        }
      ],
      "stateMutability": "view",
      "type": "function",
      "constant": true
    },
    {
      "inputs": [],
      "name": "MINIMUM_LIQUIDITY",
      "outputs": [
        {
          "internalType": "uint256",
          "name": "",
          "type": "uint256"
        }
      ],
      "stateMutability": "view",
      "type": "function",
      "constant": true
    },
    {
      "inputs": [],
      "name": "ONE",
      "outputs": [
        {
          "internalType": "uint256",
          "name": "",
          "type": "uint256"
        }
      ],
      "stateMutability": "view",
      "type": "function",
      "constant": true
    },
    {
      "inputs": [],
      "name": "OPTIMAL_UTILIZATION_RATE",
      "outputs": [
        {
          "internalType": "uint256",
          "name": "",
          "type": "uint256"
        }
      ],
      "stateMutability": "view",
      "type": "function",
      "constant": true
    },
    {
      "inputs": [],
      "name": "SLOPE1",
      "outputs": [
        {
          "internalType": "uint256",
          "name": "",
          "type": "uint256"
        }
      ],
      "stateMutability": "view",
      "type": "function",
      "constant": true
    },
    {
      "inputs": [],
      "name": "SLOPE2",
      "outputs": [
        {
          "internalType": "uint256",
          "name": "",
          "type": "uint256"
        }
      ],
      "stateMutability": "view",
      "type": "function",
      "constant": true
    },
    {
      "inputs": [],
      "name": "UNI_LP_BORROWED",
      "outputs": [
        {
          "internalType": "uint256",
          "name": "",
          "type": "uint256"
        }
      ],
      "stateMutability": "view",
      "type": "function",
      "constant": true
    },
    {
      "inputs": [],
      "name": "YEAR_BLOCK_COUNT",
      "outputs": [
        {
          "internalType": "uint256",
          "name": "",
          "type": "uint256"
        }
      ],
      "stateMutability": "view",
      "type": "function",
      "constant": true
    },
    {
      "inputs": [],
      "name": "accFeeIndex",
      "outputs": [
        {
          "internalType": "uint256",
          "name": "",
          "type": "uint256"
        }
      ],
      "stateMutability": "view",
      "type": "function",
      "constant": true
    },
    {
      "inputs": [],
      "name": "decimals",
      "outputs": [
        {
          "internalType": "uint8",
          "name": "",
          "type": "uint8"
        }
      ],
      "stateMutability": "view",
      "type": "function",
      "constant": true
    },
    {
      "inputs": [],
      "name": "fee",
      "outputs": [
        {
          "internalType": "uint256",
          "name": "",
          "type": "uint256"
        }
      ],
      "stateMutability": "view",
      "type": "function",
      "constant": true
    },
    {
      "inputs": [],
      "name": "feeTo",
      "outputs": [
        {
          "internalType": "address",
          "name": "",
          "type": "address"
        }
      ],
      "stateMutability": "view",
      "type": "function",
      "constant": true
    },
    {
      "inputs": [],
      "name": "lastUniInvariant",
      "outputs": [
        {
          "internalType": "uint256",
          "name": "",
          "type": "uint256"
        }
      ],
      "stateMutability": "view",
      "type": "function",
      "constant": true
    },
    {
      "inputs": [],
      "name": "lastUniTotalSupply",
      "outputs": [
        {
          "internalType": "uint256",
          "name": "",
          "type": "uint256"
        }
      ],
      "stateMutability": "view",
      "type": "function",
      "constant": true
    },
    {
      "inputs": [],
      "name": "name",
      "outputs": [
        {
          "internalType": "string",
          "name": "",
          "type": "string"
        }
      ],
      "stateMutability": "view",
      "type": "function",
      "constant": true
    },
    {
      "inputs": [],
      "name": "owner",
      "outputs": [
        {
          "internalType": "address",
          "name": "",
          "type": "address"
        }
      ],
      "stateMutability": "view",
      "type": "function",
      "constant": true
    },
    {
      "inputs": [],
      "name": "positionManager",
      "outputs": [
        {
          "internalType": "address",
          "name": "",
          "type": "address"
        }
      ],
      "stateMutability": "view",
      "type": "function",
      "constant": true
    },
    {
      "inputs": [],
      "name": "prevLastUniFeeIndex",
      "outputs": [
        {
          "internalType": "uint256",
          "name": "",
          "type": "uint256"
        }
      ],
      "stateMutability": "view",
      "type": "function",
      "constant": true
    },
    {
      "inputs": [],
      "name": "symbol",
      "outputs": [
        {
          "internalType": "string",
          "name": "",
          "type": "string"
        }
      ],
      "stateMutability": "view",
      "type": "function",
      "constant": true
    },
    {
      "inputs": [],
      "name": "token0",
      "outputs": [
        {
          "internalType": "address",
          "name": "",
          "type": "address"
        }
      ],
      "stateMutability": "view",
      "type": "function",
      "constant": true
    },
    {
      "inputs": [],
      "name": "token1",
      "outputs": [
        {
          "internalType": "address",
          "name": "",
          "type": "address"
        }
      ],
      "stateMutability": "view",
      "type": "function",
      "constant": true
    },
    {
      "inputs": [],
      "name": "totalSupply",
      "outputs": [
        {
          "internalType": "uint256",
          "name": "",
          "type": "uint256"
        }
      ],
      "stateMutability": "view",
      "type": "function",
      "constant": true
    },
    {
      "inputs": [],
      "name": "totalUniLiquidity",
      "outputs": [
        {
          "internalType": "uint256",
          "name": "",
          "type": "uint256"
        }
      ],
      "stateMutability": "view",
      "type": "function",
      "constant": true
    },
    {
      "inputs": [],
      "name": "uniPair",
      "outputs": [
        {
          "internalType": "address",
          "name": "",
          "type": "address"
        }
      ],
      "stateMutability": "view",
      "type": "function",
      "constant": true
    },
    {
      "inputs": [],
      "name": "uniRouter",
      "outputs": [
        {
          "internalType": "address",
          "name": "",
          "type": "address"
        }
      ],
      "stateMutability": "view",
      "type": "function",
      "constant": true
    },
    {
      "inputs": [
        {
          "internalType": "address",
          "name": "_feeTo",
          "type": "address"
        }
      ],
      "name": "setFeeTo",
      "outputs": [],
      "stateMutability": "nonpayable",
      "type": "function"
    },
    {
      "inputs": [
        {
          "internalType": "uint256",
          "name": "_fee",
          "type": "uint256"
        }
      ],
      "name": "setFee",
      "outputs": [],
      "stateMutability": "nonpayable",
      "type": "function"
    },
    {
      "inputs": [
        {
          "internalType": "address",
          "name": "account",
          "type": "address"
        }
      ],
      "name": "balanceOf",
      "outputs": [
        {
          "internalType": "uint256",
          "name": "bal",
          "type": "uint256"
        }
      ],
      "stateMutability": "view",
      "type": "function",
      "constant": true
    },
    {
      "inputs": [
        {
          "internalType": "address",
          "name": "owner",
          "type": "address"
        },
        {
          "internalType": "address",
          "name": "spender",
          "type": "address"
        }
      ],
      "name": "allowance",
      "outputs": [
        {
          "internalType": "uint256",
          "name": "bal",
          "type": "uint256"
        }
      ],
      "stateMutability": "view",
      "type": "function",
      "constant": true
    },
    {
      "inputs": [],
      "name": "getUniPair",
      "outputs": [
        {
          "internalType": "address",
          "name": "_uniPair",
          "type": "address"
        }
      ],
      "stateMutability": "view",
      "type": "function",
      "constant": true
    },
    {
      "inputs": [],
      "name": "getUtilizationRate",
      "outputs": [
        {
          "internalType": "uint256",
          "name": "_utilizationRate",
          "type": "uint256"
        }
      ],
      "stateMutability": "view",
      "type": "function",
      "constant": true
    },
    {
      "inputs": [],
      "name": "getBorrowRate",
      "outputs": [
        {
          "internalType": "uint256",
          "name": "_borrowRate",
          "type": "uint256"
        }
      ],
      "stateMutability": "view",
      "type": "function",
      "constant": true
    },
    {
      "inputs": [],
      "name": "getLastFeeIndex",
      "outputs": [
        {
          "internalType": "uint256",
          "name": "_accFeeIndex",
          "type": "uint256"
        },
        {
          "internalType": "uint256",
          "name": "_lastUniInvariant",
          "type": "uint256"
        },
        {
          "internalType": "uint256",
          "name": "_lastUniTotalSupply",
          "type": "uint256"
        },
        {
          "internalType": "uint256",
          "name": "_lastFeeIndex",
          "type": "uint256"
        }
      ],
      "stateMutability": "view",
      "type": "function",
      "constant": true
    },
    {
      "inputs": [],
      "name": "getAndUpdateLastFeeIndex",
      "outputs": [
        {
          "internalType": "uint256",
          "name": "_accFeeIndex",
          "type": "uint256"
        }
      ],
      "stateMutability": "nonpayable",
      "type": "function"
    },
    {
      "inputs": [],
      "name": "getBorrowedReserves",
      "outputs": [
        {
          "internalType": "uint256",
          "name": "_reserve0",
          "type": "uint256"
        },
        {
          "internalType": "uint256",
          "name": "_reserve1",
          "type": "uint256"
        }
      ],
      "stateMutability": "view",
      "type": "function",
      "constant": true
    },
    {
      "inputs": [
        {
          "internalType": "uint256",
          "name": "amountADesired",
          "type": "uint256"
        },
        {
          "internalType": "uint256",
          "name": "amountBDesired",
          "type": "uint256"
        },
        {
          "internalType": "uint256",
          "name": "amountAMin",
          "type": "uint256"
        },
        {
          "internalType": "uint256",
          "name": "amountBMin",
          "type": "uint256"
        },
        {
          "internalType": "address",
          "name": "to",
          "type": "address"
        }
      ],
      "name": "addLiquidity",
      "outputs": [
        {
          "internalType": "uint256",
          "name": "amountA",
          "type": "uint256"
        },
        {
          "internalType": "uint256",
          "name": "amountB",
          "type": "uint256"
        },
        {
          "internalType": "uint256",
          "name": "liquidity",
          "type": "uint256"
        }
      ],
      "stateMutability": "nonpayable",
      "type": "function"
    },
    {
      "inputs": [
        {
          "internalType": "uint256",
          "name": "liquidity",
          "type": "uint256"
        },
        {
          "internalType": "uint256",
          "name": "amountAMin",
          "type": "uint256"
        },
        {
          "internalType": "uint256",
          "name": "amountBMin",
          "type": "uint256"
        },
        {
          "internalType": "address",
          "name": "to",
          "type": "address"
        }
      ],
      "name": "removeLiquidity",
      "outputs": [
        {
          "internalType": "uint256",
          "name": "amountA",
          "type": "uint256"
        },
        {
          "internalType": "uint256",
          "name": "amountB",
          "type": "uint256"
        }
      ],
      "stateMutability": "nonpayable",
      "type": "function"
    },
    {
      "inputs": [
        {
          "internalType": "uint256",
          "name": "liquidity",
          "type": "uint256"
        }
      ],
      "name": "openPosition",
      "outputs": [
        {
          "internalType": "uint256",
          "name": "tokensOwed0",
          "type": "uint256"
        },
        {
          "internalType": "uint256",
          "name": "tokensOwed1",
          "type": "uint256"
        }
      ],
      "stateMutability": "nonpayable",
      "type": "function"
    },
    {
      "inputs": [
        {
          "internalType": "uint256",
          "name": "liquidity",
          "type": "uint256"
        }
      ],
      "name": "closePosition",
      "outputs": [
        {
          "internalType": "uint256",
          "name": "leftAmount0",
          "type": "uint256"
        },
        {
          "internalType": "uint256",
          "name": "leftAmount1",
          "type": "uint256"
        }
      ],
      "stateMutability": "nonpayable",
      "type": "function"
    },
    {
      "inputs": [
        {
          "internalType": "address",
          "name": "spender",
          "type": "address"
        },
        {
          "internalType": "uint256",
          "name": "value",
          "type": "uint256"
        }
      ],
      "name": "approve",
      "outputs": [
        {
          "internalType": "bool",
          "name": "",
          "type": "bool"
        }
      ],
      "stateMutability": "nonpayable",
      "type": "function"
    },
    {
      "inputs": [
        {
          "internalType": "address",
          "name": "to",
          "type": "address"
        },
        {
          "internalType": "uint256",
          "name": "value",
          "type": "uint256"
        }
      ],
      "name": "transfer",
      "outputs": [
        {
          "internalType": "bool",
          "name": "",
          "type": "bool"
        }
      ],
      "stateMutability": "nonpayable",
      "type": "function"
    },
    {
      "inputs": [
        {
          "internalType": "address",
          "name": "from",
          "type": "address"
        },
        {
          "internalType": "address",
          "name": "to",
          "type": "address"
        },
        {
          "internalType": "uint256",
          "name": "value",
          "type": "uint256"
        }
      ],
      "name": "transferFrom",
      "outputs": [
        {
          "internalType": "bool",
          "name": "",
          "type": "bool"
        }
      ],
      "stateMutability": "nonpayable",
      "type": "function"
    }
  ],
  "bytecode": "0x60806040526040518060400160405280600c81526020017f47616d6d61737761702056300000000000000000000000000000000000000000815250600090805190602001906200005192919062000459565b506040518060400160405280600781526020017f47414d412d563000000000000000000000000000000000000000000000000000815250600190805190602001906200009f92919062000459565b506012600260006101000a81548160ff021916908360ff16021790555062225f1b601355662386f26fc10000601455670b1a2bc2ec500000601555670de0b6b3a7640000601655670de0b6b3a76400006017556000601960006101000a81548173ffffffffffffffffffffffffffffffffffffffff021916908373ffffffffffffffffffffffffffffffffffffffff16021790555066b1a2bc2ec50000601a556001601b553480156200015157600080fd5b506040516200592838038062005928833981810160405281019062000177919062000573565b84600660006101000a81548173ffffffffffffffffffffffffffffffffffffffff021916908373ffffffffffffffffffffffffffffffffffffffff16021790555083600760006101000a81548173ffffffffffffffffffffffffffffffffffffffff021916908373ffffffffffffffffffffffffffffffffffffffff1602179055506200021083836200032560201b62001c9e1760201c565b60086000600960008491906101000a81548173ffffffffffffffffffffffffffffffffffffffff021916908373ffffffffffffffffffffffffffffffffffffffff1602179055508391906101000a81548173ffffffffffffffffffffffffffffffffffffffff021916908373ffffffffffffffffffffffffffffffffffffffff160217905550505080600a60006101000a81548173ffffffffffffffffffffffffffffffffffffffff021916908373ffffffffffffffffffffffffffffffffffffffff16021790555033601860006101000a81548173ffffffffffffffffffffffffffffffffffffffff021916908373ffffffffffffffffffffffffffffffffffffffff16021790555050505050506200077a565b6000808273ffffffffffffffffffffffffffffffffffffffff168473ffffffffffffffffffffffffffffffffffffffff160362000399576040517f08c379a0000000000000000000000000000000000000000000000000000000008152600401620003909062000682565b60405180910390fd5b8273ffffffffffffffffffffffffffffffffffffffff168473ffffffffffffffffffffffffffffffffffffffff1610620003d5578284620003d8565b83835b8092508193505050600073ffffffffffffffffffffffffffffffffffffffff168273ffffffffffffffffffffffffffffffffffffffff160362000452576040517f08c379a00000000000000000000000000000000000000000000000000000000081526004016200044990620006f4565b60405180910390fd5b9250929050565b828054620004679062000745565b90600052602060002090601f0160209004810192826200048b5760008555620004d7565b82601f10620004a657805160ff1916838001178555620004d7565b82800160010185558215620004d7579182015b82811115620004d6578251825591602001919060010190620004b9565b5b509050620004e69190620004ea565b5090565b5b8082111562000505576000816000905550600101620004eb565b5090565b600080fd5b600073ffffffffffffffffffffffffffffffffffffffff82169050919050565b60006200053b826200050e565b9050919050565b6200054d816200052e565b81146200055957600080fd5b50565b6000815190506200056d8162000542565b92915050565b600080600080600060a0868803121562000592576200059162000509565b5b6000620005a2888289016200055c565b9550506020620005b5888289016200055c565b9450506040620005c8888289016200055c565b9350506060620005db888289016200055c565b9250506080620005ee888289016200055c565b9150509295509295909350565b600082825260208201905092915050565b7f47616d6d61737761704c6962726172793a204944454e544943414c5f4144445260008201527f4553534553000000000000000000000000000000000000000000000000000000602082015250565b60006200066a602583620005fb565b915062000677826200060c565b604082019050919050565b600060208201905081810360008301526200069d816200065b565b9050919050565b7f47616d6d61737761704c6962726172793a205a45524f5f414444524553530000600082015250565b6000620006dc601e83620005fb565b9150620006e982620006a4565b602082019050919050565b600060208201905081810360008301526200070f81620006cd565b9050919050565b7f4e487b7100000000000000000000000000000000000000000000000000000000600052602260045260246000fd5b600060028204905060018216806200075e57607f821691505b60208210810362000774576200077362000716565b5b50919050565b61519e806200078a6000396000f3fe608060405234801561001057600080fd5b50600436106102745760003560e01c80638da5cb5b11610151578063ba9a7a56116100c3578063e0ab077211610087578063e0ab07721461076f578063e1af1ca4146107a1578063e39b0eb5146107bf578063f46901ed146107f0578063f93c66951461080c578063fb2eb8b81461082a57610274565b8063ba9a7a56146106c7578063c2ee3a08146106e5578063d21220a714610703578063dd62ed3e14610721578063ddca3f431461075157610274565b8063a126d60111610115578063a126d601146105ee578063a15f30ac1461061f578063a45662821461063d578063a86e49ae1461065b578063a9059cbb14610679578063ba1c5e80146106a957610274565b80638da5cb5b1461054557806395d89b411461056357806399ff8203146105815780639d0a2030146105b2578063a0e47bf6146105d057610274565b8063412ba55f116101ea57806369fe0e2d116101ae57806369fe0e2d146104815780636f4d8ada1461049d5780637007d7da146104bb57806370a08231146104d9578063771506cd14610509578063791b98bc1461052757610274565b8063412ba55f146103e757806341910f901461040857806348c8ec72146104265780634a417a5314610444578063573297d31461046257610274565b806318160ddd1161023c57806318160ddd14610321578063181c92e01461033f5780631d6f0ce21461035d57806323b872dd1461037b578063313ce567146103ab57806332972e46146103c957610274565b8063017e7e581461027957806306fdde0314610297578063095ea7b3146102b55780630dfe1681146102e55780630f5325fe14610303575b600080fd5b610281610848565b60405161028e9190613df9565b60405180910390f35b61029f61086e565b6040516102ac9190613ead565b60405180910390f35b6102cf60048036038101906102ca9190613f36565b6108fc565b6040516102dc9190613f91565b60405180910390f35b6102ed610913565b6040516102fa9190613df9565b60405180910390f35b61030b610939565b6040516103189190613fbb565b60405180910390f35b61032961093f565b6040516103369190613fbb565b60405180910390f35b610347610945565b6040516103549190613fbb565b60405180910390f35b61036561094b565b6040516103729190613fbb565b60405180910390f35b61039560048036038101906103909190613fd6565b610a24565b6040516103a29190613f91565b60405180910390f35b6103b3610be8565b6040516103c09190614045565b60405180910390f35b6103d1610bfb565b6040516103de9190613df9565b60405180910390f35b6103ef610c21565b6040516103ff9493929190614060565b60405180910390f35b610410610eee565b60405161041d9190613fbb565b60405180910390f35b61042e610ef4565b60405161043b9190613df9565b60405180910390f35b61044c610f1e565b6040516104599190613fbb565b60405180910390f35b61046a610f5a565b6040516104789291906140a5565b60405180910390f35b61049b600480360381019061049691906140ce565b611016565b005b6104a56110b0565b6040516104b29190613fbb565b60405180910390f35b6104c36110b6565b6040516104d09190613fbb565b60405180910390f35b6104f360048036038101906104ee91906140fb565b6110bc565b6040516105009190613fbb565b60405180910390f35b610511611105565b60405161051e9190613fbb565b60405180910390f35b61052f61110b565b60405161053c9190613df9565b60405180910390f35b61054d611131565b60405161055a9190613df9565b60405180910390f35b61056b611157565b6040516105789190613ead565b60405180910390f35b61059b600480360381019061059691906140ce565b6111e5565b6040516105a99291906140a5565b60405180910390f35b6105ba6114db565b6040516105c79190613fbb565b60405180910390f35b6105d86114e1565b6040516105e59190613df9565b60405180910390f35b610608600480360381019061060391906140ce565b611507565b6040516106169291906140a5565b60405180910390f35b6106276117fa565b6040516106349190613fbb565b60405180910390f35b610645611800565b6040516106529190613fbb565b60405180910390f35b610663611806565b6040516106709190613fbb565b60405180910390f35b610693600480360381019061068e9190613f36565b61180c565b6040516106a09190613f91565b60405180910390f35b6106b1611823565b6040516106be9190613fbb565b60405180910390f35b6106cf611943565b6040516106dc9190613fbb565b60405180910390f35b6106ed611949565b6040516106fa9190613fbb565b60405180910390f35b61070b611955565b6040516107189190613df9565b60405180910390f35b61073b60048036038101906107369190614128565b61197b565b6040516107489190613fbb565b60405180910390f35b610759611a02565b6040516107669190613fbb565b60405180910390f35b61078960048036038101906107849190614168565b611a08565b604051610798939291906141e3565b60405180910390f35b6107a9611a93565b6040516107b69190613fbb565b60405180910390f35b6107d960048036038101906107d4919061421a565b611a99565b6040516107e79291906140a5565b60405180910390f35b61080a600480360381019061080591906140fb565b611bbe565b005b610814611c92565b6040516108219190613fbb565b60405180910390f35b610832611c98565b60405161083f9190613fbb565b60405180910390f35b601960009054906101000a900473ffffffffffffffffffffffffffffffffffffffff1681565b6000805461087b906142b0565b80601f01602080910402602001604051908101604052809291908181526020018280546108a7906142b0565b80156108f45780601f106108c9576101008083540402835291602001916108f4565b820191906000526020600020905b8154815290600101906020018083116108d757829003601f168201915b505050505081565b6000610909338484611dca565b6001905092915050565b600860009054906101000a900473ffffffffffffffffffffffffffffffffffffffff1681565b600c5481565b60035481565b600f5481565b6000803073ffffffffffffffffffffffffffffffffffffffff1663412ba55f6040518163ffffffff1660e01b8152600401608060405180830381865afa158015610999573d6000803e3d6000fd5b505050506040513d601f19601f820116820180604052508101906109bd91906142f6565b600b6000600c6000849850859190505584919050558395505050505060006010541115610a12576000670de0b6b3a7640000826010546109fd919061438c565b610a079190614415565b905080601081905550505b81600d81905550436012819055505090565b60007fffffffffffffffffffffffffffffffffffffffffffffffffffffffffffffffff600560008673ffffffffffffffffffffffffffffffffffffffff1673ffffffffffffffffffffffffffffffffffffffff16815260200190815260200160002060003373ffffffffffffffffffffffffffffffffffffffff1673ffffffffffffffffffffffffffffffffffffffff1681526020019081526020016000205414610bd25781600560008673ffffffffffffffffffffffffffffffffffffffff1673ffffffffffffffffffffffffffffffffffffffff16815260200190815260200160002060003373ffffffffffffffffffffffffffffffffffffffff1673ffffffffffffffffffffffffffffffffffffffff16815260200190815260200160002054610b519190614446565b600560008673ffffffffffffffffffffffffffffffffffffffff1673ffffffffffffffffffffffffffffffffffffffff16815260200190815260200160002060003373ffffffffffffffffffffffffffffffffffffffff1673ffffffffffffffffffffffffffffffffffffffff168152602001908152602001600020819055505b610bdd848484611eb5565b600190509392505050565b600260009054906101000a900460ff1681565b600760009054906101000a900473ffffffffffffffffffffffffffffffffffffffff1681565b600080600080600080610c9b600760009054906101000a900473ffffffffffffffffffffffffffffffffffffffff16600860009054906101000a900473ffffffffffffffffffffffffffffffffffffffff16600960009054906101000a900473ffffffffffffffffffffffffffffffffffffffff1661203b565b91509150600082118015610caf5750600081115b15610d6957670de0b6b3a76400008183610cc9919061438c565b610cd39190614415565b9450600760009054906101000a900473ffffffffffffffffffffffffffffffffffffffff1673ffffffffffffffffffffffffffffffffffffffff166318160ddd6040518163ffffffff1660e01b8152600401602060405180830381865afa158015610d42573d6000803e3d6000fd5b505050506040513d601f19601f82011682018060405250810190610d66919061447a565b93505b6000600b54118015610d7b5750600085115b8015610d875750600084115b8015610d9557506000600c54115b15610ecf576000600c54610da887612134565b610db2919061438c565b9050600085610dc2600b54612134565b610dcc919061438c565b9050600081670de0b6b3a764000084610de5919061438c565b610def9190614415565b905060003073ffffffffffffffffffffffffffffffffffffffff1663ba1c5e806040518163ffffffff1660e01b8152600401602060405180830381865afa158015610e3e573d6000803e3d6000fd5b505050506040513d601f19601f82011682018060405250810190610e62919061447a565b9050600060125443610e749190614446565b905060006013548383610e87919061438c565b610e919190614415565b90508084610e9f91906144a7565b9850670de0b6b3a764000089600d54610eb8919061438c565b610ec29190614415565b9b50505050505050610ee6565b670de0b6b3a76400009550670de0b6b3a764000092505b505090919293565b60145481565b6000600760009054906101000a900473ffffffffffffffffffffffffffffffffffffffff16905090565b600080601154600f54610f3191906144a7565b905080670de0b6b3a7640000601154610f4a919061438c565b610f549190614415565b91505090565b600080600080610fd1600760009054906101000a900473ffffffffffffffffffffffffffffffffffffffff16600860009054906101000a900473ffffffffffffffffffffffffffffffffffffffff16600960009054906101000a900473ffffffffffffffffffffffffffffffffffffffff1661203b565b91509150611008600760009054906101000a900473ffffffffffffffffffffffffffffffffffffffff168383600f54601054612159565b809450819550505050509091565b601860009054906101000a900473ffffffffffffffffffffffffffffffffffffffff1673ffffffffffffffffffffffffffffffffffffffff163373ffffffffffffffffffffffffffffffffffffffff16146110a6576040517f08c379a000000000000000000000000000000000000000000000000000000000815260040161109d9061456f565b60405180910390fd5b80601a8190555050565b60175481565b600d5481565b6000600460008373ffffffffffffffffffffffffffffffffffffffff1673ffffffffffffffffffffffffffffffffffffffff168152602001908152602001600020549050919050565b60115481565b600a60009054906101000a900473ffffffffffffffffffffffffffffffffffffffff1681565b601860009054906101000a900473ffffffffffffffffffffffffffffffffffffffff1681565b60018054611164906142b0565b80601f0160208091040260200160405190810160405280929190818152602001828054611190906142b0565b80156111dd5780601f106111b2576101008083540402835291602001916111dd565b820191906000526020600020905b8154815290600101906020018083116111c057829003601f168201915b505050505081565b6000806001601b541461122d576040517f08c379a0000000000000000000000000000000000000000000000000000000008152600401611224906145db565b60405180910390fd5b6000601b81905550600a60009054906101000a900473ffffffffffffffffffffffffffffffffffffffff1673ffffffffffffffffffffffffffffffffffffffff163373ffffffffffffffffffffffffffffffffffffffff16146112c5576040517f08c379a00000000000000000000000000000000000000000000000000000000081526004016112bc90614647565b60405180910390fd5b600f5483111561130a576040517f08c379a0000000000000000000000000000000000000000000000000000000008152600401611301906146d9565b60405180910390fd5b3073ffffffffffffffffffffffffffffffffffffffff16631d6f0ce26040518163ffffffff1660e01b81526004016020604051808303816000875af1158015611357573d6000803e3d6000fd5b505050506040513d601f19601f8201168201806040525081019061137b919061447a565b506113868330612286565b8092508193505050600760009054906101000a900473ffffffffffffffffffffffffffffffffffffffff1673ffffffffffffffffffffffffffffffffffffffff166370a08231306040518263ffffffff1660e01b81526004016113e99190613df9565b602060405180830381865afa158015611406573d6000803e3d6000fd5b505050506040513d601f19601f8201168201806040525081019061142a919061447a565b600f8190555061143b828285612551565b611468600860009054906101000a900473ffffffffffffffffffffffffffffffffffffffff1633846125a5565b611495600960009054906101000a900473ffffffffffffffffffffffffffffffffffffffff1633836125a5565b7f93e4e55d4b6936c200e4cd9584bdf8ac1262c3e8b769aa5c0c4574dac1b2f7db82826040516114c69291906140a5565b60405180910390a16001601b81905550915091565b600b5481565b600660009054906101000a900473ffffffffffffffffffffffffffffffffffffffff1681565b600080600a60009054906101000a900473ffffffffffffffffffffffffffffffffffffffff1673ffffffffffffffffffffffffffffffffffffffff163373ffffffffffffffffffffffffffffffffffffffff161461159a576040517f08c379a000000000000000000000000000000000000000000000000000000000815260040161159190614647565b60405180910390fd5b600083116115dd576040517f08c379a00000000000000000000000000000000000000000000000000000000081526004016115d490614745565b60405180910390fd5b3073ffffffffffffffffffffffffffffffffffffffff16631d6f0ce26040518163ffffffff1660e01b81526004016020604051808303816000875af115801561162a573d6000803e3d6000fd5b505050506040513d601f19601f8201168201806040525081019061164e919061447a565b5060008061167e600760009054906101000a900473ffffffffffffffffffffffffffffffffffffffff168661272f565b9150915060006116918383600080612759565b92505050600760009054906101000a900473ffffffffffffffffffffffffffffffffffffffff1673ffffffffffffffffffffffffffffffffffffffff166370a08231306040518263ffffffff1660e01b81526004016116f09190613df9565b602060405180830381865afa15801561170d573d6000803e3d6000fd5b505050506040513d601f19601f82011682018060405250810190611731919061447a565b600f819055506117418682612bda565b611790600860009054906101000a900473ffffffffffffffffffffffffffffffffffffffff16600960009054906101000a900473ffffffffffffffffffffffffffffffffffffffff1630612c24565b80955081965050506117c5600860009054906101000a900473ffffffffffffffffffffffffffffffffffffffff1633876125a5565b6117f2600960009054906101000a900473ffffffffffffffffffffffffffffffffffffffff1633866125a5565b505050915091565b60155481565b60135481565b600e5481565b6000611819338484611eb5565b6001905092915050565b6000803073ffffffffffffffffffffffffffffffffffffffff16634a417a536040518163ffffffff1660e01b8152600401602060405180830381865afa158015611871573d6000803e3d6000fd5b505050506040513d601f19601f82011682018060405250810190611895919061447a565b905060155481116118d5576000601554601654836118b3919061438c565b6118bd9190614415565b9050806014546118cd91906144a7565b92505061193f565b6000601554826118e59190614446565b90506000601554670de0b6b3a76400006118ff9190614446565b905060008160175484611912919061438c565b61191c9190614415565b90508060165460145461192f91906144a7565b61193991906144a7565b94505050505b5090565b6103e881565b670de0b6b3a764000081565b600960009054906101000a900473ffffffffffffffffffffffffffffffffffffffff1681565b6000600560008473ffffffffffffffffffffffffffffffffffffffff1673ffffffffffffffffffffffffffffffffffffffff16815260200190815260200160002060008373ffffffffffffffffffffffffffffffffffffffff1673ffffffffffffffffffffffffffffffffffffffff16815260200190815260200160002054905092915050565b601a5481565b6000806000611a1988888888612d27565b8093508194505050611a4f600860009054906101000a900473ffffffffffffffffffffffffffffffffffffffff16333086612eaa565b611a7d600960009054906101000a900473ffffffffffffffffffffffffffffffffffffffff16333085612eaa565b611a8684612fe3565b9050955095509592505050565b60105481565b6000803073ffffffffffffffffffffffffffffffffffffffff166323b872dd3330896040518463ffffffff1660e01b8152600401611ad993929190614765565b6020604051808303816000875af1158015611af8573d6000803e3d6000fd5b505050506040513d601f19601f82011682018060405250810190611b1c91906147c8565b50600080611b2985613364565b9150915086841015611b70576040517f08c379a0000000000000000000000000000000000000000000000000000000008152600401611b6790614867565b60405180910390fd5b85831015611bb3576040517f08c379a0000000000000000000000000000000000000000000000000000000008152600401611baa906148f9565b60405180910390fd5b505094509492505050565b601860009054906101000a900473ffffffffffffffffffffffffffffffffffffffff1673ffffffffffffffffffffffffffffffffffffffff163373ffffffffffffffffffffffffffffffffffffffff1614611c4e576040517f08c379a0000000000000000000000000000000000000000000000000000000008152600401611c459061456f565b60405180910390fd5b80601960006101000a81548173ffffffffffffffffffffffffffffffffffffffff021916908373ffffffffffffffffffffffffffffffffffffffff16021790555050565b60165481565b60125481565b6000808273ffffffffffffffffffffffffffffffffffffffff168473ffffffffffffffffffffffffffffffffffffffff1603611d0f576040517f08c379a0000000000000000000000000000000000000000000000000000000008152600401611d069061498b565b60405180910390fd5b8273ffffffffffffffffffffffffffffffffffffffff168473ffffffffffffffffffffffffffffffffffffffff1610611d49578284611d4c565b83835b8092508193505050600073ffffffffffffffffffffffffffffffffffffffff168273ffffffffffffffffffffffffffffffffffffffff1603611dc3576040517f08c379a0000000000000000000000000000000000000000000000000000000008152600401611dba906149f7565b60405180910390fd5b9250929050565b80600560008573ffffffffffffffffffffffffffffffffffffffff1673ffffffffffffffffffffffffffffffffffffffff16815260200190815260200160002060008473ffffffffffffffffffffffffffffffffffffffff1673ffffffffffffffffffffffffffffffffffffffff168152602001908152602001600020819055508173ffffffffffffffffffffffffffffffffffffffff168373ffffffffffffffffffffffffffffffffffffffff167f8c5be1e5ebec7d5bd14f71427d1e84f3dd0314c0f7b2291e5b200ac8c7c3b92583604051611ea89190613fbb565b60405180910390a3505050565b80600460008573ffffffffffffffffffffffffffffffffffffffff1673ffffffffffffffffffffffffffffffffffffffff16815260200190815260200160002054611f009190614446565b600460008573ffffffffffffffffffffffffffffffffffffffff1673ffffffffffffffffffffffffffffffffffffffff1681526020019081526020016000208190555080600460008473ffffffffffffffffffffffffffffffffffffffff1673ffffffffffffffffffffffffffffffffffffffff16815260200190815260200160002054611f8e91906144a7565b600460008473ffffffffffffffffffffffffffffffffffffffff1673ffffffffffffffffffffffffffffffffffffffff168152602001908152602001600020819055508173ffffffffffffffffffffffffffffffffffffffff168373ffffffffffffffffffffffffffffffffffffffff167fddf252ad1be2c89b69c2b068fc378daa952ba7f163c4a11628f55a4df523b3ef8360405161202e9190613fbb565b60405180910390a3505050565b600080600061204a8585611c9e565b5090506000808773ffffffffffffffffffffffffffffffffffffffff16630902f1ac6040518163ffffffff1660e01b8152600401606060405180830381865afa15801561209b573d6000803e3d6000fd5b505050506040513d601f19601f820116820180604052508101906120bf9190614a99565b506dffffffffffffffffffffffffffff1691506dffffffffffffffffffffffffffff1691508273ffffffffffffffffffffffffffffffffffffffff168773ffffffffffffffffffffffffffffffffffffffff161461211e578082612121565b81815b8095508196505050505050935093915050565b6000612152670de0b6b3a76400008361214d919061438c565b613684565b9050919050565b60008060008773ffffffffffffffffffffffffffffffffffffffff166318160ddd6040518163ffffffff1660e01b8152600401602060405180830381865afa1580156121a9573d6000803e3d6000fd5b505050506040513d601f19601f820116820180604052508101906121cd919061447a565b90508085886121dc919061438c565b6121e69190614415565b92508085876121f5919061438c565b6121ff9190614415565b9150600084111561227b57600061221587612134565b9050600061222289612134565b90506000818388612233919061438c565b61223d9190614415565b9050600083838961224e919061438c565b6122589190614415565b9050808761226691906144a7565b9650818661227491906144a7565b9550505050505b509550959350505050565b600080600760009054906101000a900473ffffffffffffffffffffffffffffffffffffffff1673ffffffffffffffffffffffffffffffffffffffff1663dd62ed3e30600660009054906101000a900473ffffffffffffffffffffffffffffffffffffffff166040518363ffffffff1660e01b8152600401612308929190614aec565b602060405180830381865afa158015612325573d6000803e3d6000fd5b505050506040513d601f19601f82011682018060405250810190612349919061447a565b84111561243457600760009054906101000a900473ffffffffffffffffffffffffffffffffffffffff1673ffffffffffffffffffffffffffffffffffffffff1663095ea7b3600660009054906101000a900473ffffffffffffffffffffffffffffffffffffffff167fffffffffffffffffffffffffffffffffffffffffffffffffffffffffffffffff6040518363ffffffff1660e01b81526004016123ef929190614b15565b6020604051808303816000875af115801561240e573d6000803e3d6000fd5b505050506040513d601f19601f8201168201806040525081019061243291906147c8565b505b600660009054906101000a900473ffffffffffffffffffffffffffffffffffffffff1673ffffffffffffffffffffffffffffffffffffffff1663baa2abde600860009054906101000a900473ffffffffffffffffffffffffffffffffffffffff16600960009054906101000a900473ffffffffffffffffffffffffffffffffffffffff1687600080897fffffffffffffffffffffffffffffffffffffffffffffffffffffffffffffffff6040518863ffffffff1660e01b81526004016125009796959493929190614b83565b60408051808303816000875af115801561251e573d6000803e3d6000fd5b505050506040513d601f19601f820116820180604052508101906125429190614bf2565b80925081935050509250929050565b8060115461255f91906144a7565b601181905550600061257184846136fe565b905060006010541115612597578060105461258c91906144a7565b60108190555061259f565b806010819055505b50505050565b6000808473ffffffffffffffffffffffffffffffffffffffff166040518060400160405280601981526020017f7472616e7366657228616464726573732c75696e74323536290000000000000081525080519060200120858560405160240161260f929190614b15565b604051602081830303815290604052907bffffffffffffffffffffffffffffffffffffffffffffffffffffffff19166020820180517bffffffffffffffffffffffffffffffffffffffffffffffffffffffff83818316178352505050506040516126799190614c79565b6000604051808303816000865af19150503d80600081146126b6576040519150601f19603f3d011682016040523d82523d6000602084013e6126bb565b606091505b50915091508180156126e957506000815114806126e85750808060200190518101906126e791906147c8565b5b5b612728576040517f08c379a000000000000000000000000000000000000000000000000000000000815260040161271f90614cdc565b60405180910390fd5b5050505050565b600080600061273d8561371c565b905061274984826137dd565b8093508194505050509250929050565b6000806000600860009054906101000a900473ffffffffffffffffffffffffffffffffffffffff1673ffffffffffffffffffffffffffffffffffffffff1663dd62ed3e30600660009054906101000a900473ffffffffffffffffffffffffffffffffffffffff166040518363ffffffff1660e01b81526004016127dd929190614aec565b602060405180830381865afa1580156127fa573d6000803e3d6000fd5b505050506040513d601f19601f8201168201806040525081019061281e919061447a565b87111561290957600860009054906101000a900473ffffffffffffffffffffffffffffffffffffffff1673ffffffffffffffffffffffffffffffffffffffff1663095ea7b3600660009054906101000a900473ffffffffffffffffffffffffffffffffffffffff167fffffffffffffffffffffffffffffffffffffffffffffffffffffffffffffffff6040518363ffffffff1660e01b81526004016128c4929190614b15565b6020604051808303816000875af11580156128e3573d6000803e3d6000fd5b505050506040513d601f19601f8201168201806040525081019061290791906147c8565b505b600960009054906101000a900473ffffffffffffffffffffffffffffffffffffffff1673ffffffffffffffffffffffffffffffffffffffff1663dd62ed3e30600660009054906101000a900473ffffffffffffffffffffffffffffffffffffffff166040518363ffffffff1660e01b8152600401612988929190614aec565b602060405180830381865afa1580156129a5573d6000803e3d6000fd5b505050506040513d601f19601f820116820180604052508101906129c9919061447a565b861115612ab457600960009054906101000a900473ffffffffffffffffffffffffffffffffffffffff1673ffffffffffffffffffffffffffffffffffffffff1663095ea7b3600660009054906101000a900473ffffffffffffffffffffffffffffffffffffffff167fffffffffffffffffffffffffffffffffffffffffffffffffffffffffffffffff6040518363ffffffff1660e01b8152600401612a6f929190614b15565b6020604051808303816000875af1158015612a8e573d6000803e3d6000fd5b505050506040513d601f19601f82011682018060405250810190612ab291906147c8565b505b600660009054906101000a900473ffffffffffffffffffffffffffffffffffffffff1673ffffffffffffffffffffffffffffffffffffffff1663e8e33700600860009054906101000a900473ffffffffffffffffffffffffffffffffffffffff16600960009054906101000a900473ffffffffffffffffffffffffffffffffffffffff168a8a8a8a307fffffffffffffffffffffffffffffffffffffffffffffffffffffffffffffffff6040518963ffffffff1660e01b8152600401612b81989796959493929190614cfc565b6060604051808303816000875af1158015612ba0573d6000803e3d6000fd5b505050506040513d601f19601f82011682018060405250810190612bc49190614d7a565b8093508194508295505050509450945094915050565b601154811115612beb576000612bfa565b80601154612bf99190614446565b5b60118190555060006010541115612c205781601054612c199190614446565b6010819055505b5050565b6000808473ffffffffffffffffffffffffffffffffffffffff166370a08231846040518263ffffffff1660e01b8152600401612c609190613df9565b602060405180830381865afa158015612c7d573d6000803e3d6000fd5b505050506040513d601f19601f82011682018060405250810190612ca1919061447a565b91508373ffffffffffffffffffffffffffffffffffffffff166370a08231846040518263ffffffff1660e01b8152600401612cdc9190613df9565b602060405180830381865afa158015612cf9573d6000803e3d6000fd5b505050506040513d601f19601f82011682018060405250810190612d1d919061447a565b9050935093915050565b600080600080612d9e600760009054906101000a900473ffffffffffffffffffffffffffffffffffffffff16600860009054906101000a900473ffffffffffffffffffffffffffffffffffffffff16600960009054906101000a900473ffffffffffffffffffffffffffffffffffffffff1661203b565b91509150600082148015612db25750600081145b15612dc65787878094508195505050612e9f565b6000612dd3898484613835565b9050878111612e2e5785811015612e1f576040517f08c379a0000000000000000000000000000000000000000000000000000000008152600401612e16906148f9565b60405180910390fd5b88818095508196505050612e9d565b6000612e3b898486613835565b905089811115612e4e57612e4d614dcd565b5b87811015612e91576040517f08c379a0000000000000000000000000000000000000000000000000000000008152600401612e8890614867565b60405180910390fd5b80898096508197505050505b505b505094509492505050565b6000808573ffffffffffffffffffffffffffffffffffffffff166323b872dd868686604051602401612ede93929190614765565b6040516020818303038152906040529060e01b6020820180517bffffffffffffffffffffffffffffffffffffffffffffffffffffffff8381831617835250505050604051612f2c9190614c79565b6000604051808303816000865af19150503d8060008114612f69576040519150601f19603f3d011682016040523d82523d6000602084013e612f6e565b606091505b5091509150818015612f9c5750600081511480612f9b575080806020019051810190612f9a91906147c8565b5b5b612fdb576040517f08c379a0000000000000000000000000000000000000000000000000000000008152600401612fd290614e6e565b60405180910390fd5b505050505050565b60006001601b541461302a576040517f08c379a0000000000000000000000000000000000000000000000000000000008152600401613021906145db565b60405180910390fd5b6000601b81905550600080613084600860009054906101000a900473ffffffffffffffffffffffffffffffffffffffff16600960009054906101000a900473ffffffffffffffffffffffffffffffffffffffff1630612c24565b915091503073ffffffffffffffffffffffffffffffffffffffff16631d6f0ce26040518163ffffffff1660e01b81526004016020604051808303816000875af11580156130d5573d6000803e3d6000fd5b505050506040513d601f19601f820116820180604052508101906130f9919061447a565b50600080600080613171600760009054906101000a900473ffffffffffffffffffffffffffffffffffffffff16600860009054906101000a900473ffffffffffffffffffffffffffffffffffffffff16600960009054906101000a900473ffffffffffffffffffffffffffffffffffffffff1661203b565b915091506000600354905060008111156131c1576131b8600760009054906101000a900473ffffffffffffffffffffffffffffffffffffffff168484600f54601054612159565b80955081965050505b6000806000891180156131d45750600088115b156131f3576131e68989600080612759565b809c508193508294505050505b600760009054906101000a900473ffffffffffffffffffffffffffffffffffffffff1673ffffffffffffffffffffffffffffffffffffffff166370a08231306040518263ffffffff1660e01b815260040161324e9190613df9565b602060405180830381865afa15801561326b573d6000803e3d6000fd5b505050506040513d601f19601f8201168201806040525081019061328f919061447a565b600f81905550600083036132c8576103e86132aa83836136fe565b6132b49190614446565b99506132c360006103e86138e8565b613301565b6132fe8784846132d8919061438c565b6132e29190614415565b8785846132ef919061438c565b6132f99190614415565b6139f4565b99505b60008a11613344576040517f08c379a000000000000000000000000000000000000000000000000000000000815260040161333b90614f00565b60405180910390fd5b61334e8b8b6138e8565b5050505050505050506001601b81905550919050565b6000806001601b54146133ac576040517f08c379a00000000000000000000000000000000000000000000000000000000081526004016133a3906145db565b60405180910390fd5b6000601b819055503073ffffffffffffffffffffffffffffffffffffffff16631d6f0ce26040518163ffffffff1660e01b81526004016020604051808303816000875af1158015613401573d6000803e3d6000fd5b505050506040513d601f19601f82011682018060405250810190613425919061447a565b506000600460003073ffffffffffffffffffffffffffffffffffffffff1673ffffffffffffffffffffffffffffffffffffffff16815260200190815260200160002054905060008061347683613a08565b9150915060008211801561348a5750600081115b6134c9576040517f08c379a00000000000000000000000000000000000000000000000000000000081526004016134c090614f92565b60405180910390fd5b60006134d58383613b43565b9050600760009054906101000a900473ffffffffffffffffffffffffffffffffffffffff1673ffffffffffffffffffffffffffffffffffffffff166370a08231306040518263ffffffff1660e01b81526004016135329190613df9565b602060405180830381865afa15801561354f573d6000803e3d6000fd5b505050506040513d601f19601f82011682018060405250810190613573919061447a565b8111156135b5576040517f08c379a00000000000000000000000000000000000000000000000000000000081526004016135ac90615024565b60405180910390fd5b6135bf8188612286565b8096508197505050600760009054906101000a900473ffffffffffffffffffffffffffffffffffffffff1673ffffffffffffffffffffffffffffffffffffffff166370a08231306040518263ffffffff1660e01b81526004016136229190613df9565b602060405180830381865afa15801561363f573d6000803e3d6000fd5b505050506040513d601f19601f82011682018060405250810190613663919061447a565b600f819055506136733085613c93565b505050506001601b81905550915091565b600060038211156136eb57819050600060016002846136a39190614415565b6136ad91906144a7565b90505b818110156136e55780915060028182856136ca9190614415565b6136d491906144a7565b6136de9190614415565b90506136b0565b506136f9565b600082146136f857600190505b5b919050565b6000613714828461370f919061438c565b613684565b905092915050565b60008060008373ffffffffffffffffffffffffffffffffffffffff16630902f1ac6040518163ffffffff1660e01b8152600401606060405180830381865afa15801561376c573d6000803e3d6000fd5b505050506040513d601f19601f820116820180604052508101906137909190614a99565b506dffffffffffffffffffffffffffff1691506dffffffffffffffffffffffffffff16915081670de0b6b3a7640000826137ca919061438c565b6137d49190614415565b92505050919050565b60008060006137eb84612134565b90506000670de0b6b3a76400009050818187613807919061438c565b6138119190614415565b9350808287613820919061438c565b61382a9190614415565b925050509250929050565b6000808411613879576040517f08c379a0000000000000000000000000000000000000000000000000000000008152600401613870906150b6565b60405180910390fd5b6000831180156138895750600082115b6138c8576040517f08c379a00000000000000000000000000000000000000000000000000000000081526004016138bf90615148565b60405180910390fd5b8282856138d5919061438c565b6138df9190614415565b90509392505050565b806003546138f691906144a7565b60038190555080600460008473ffffffffffffffffffffffffffffffffffffffff1673ffffffffffffffffffffffffffffffffffffffff1681526020019081526020016000205461394791906144a7565b600460008473ffffffffffffffffffffffffffffffffffffffff1673ffffffffffffffffffffffffffffffffffffffff168152602001908152602001600020819055508173ffffffffffffffffffffffffffffffffffffffff16600073ffffffffffffffffffffffffffffffffffffffff167fddf252ad1be2c89b69c2b068fc378daa952ba7f163c4a11628f55a4df523b3ef836040516139e89190613fbb565b60405180910390a35050565b6000613a008383613d9f565b905092915050565b600080600080613a7f600860009054906101000a900473ffffffffffffffffffffffffffffffffffffffff16600960009054906101000a900473ffffffffffffffffffffffffffffffffffffffff16600760009054906101000a900473ffffffffffffffffffffffffffffffffffffffff16612c24565b91509150600080613ab9600760009054906101000a900473ffffffffffffffffffffffffffffffffffffffff168585600f54601054612159565b915091506000600354905060008111613b07576040517f08c379a0000000000000000000000000000000000000000000000000000000008152600401613afe90615024565b60405180910390fd5b808389613b14919061438c565b613b1e9190614415565b9650808289613b2d919061438c565b613b379190614415565b95505050505050915091565b6000806000613bb9600760009054906101000a900473ffffffffffffffffffffffffffffffffffffffff16600860009054906101000a900473ffffffffffffffffffffffffffffffffffffffff16600960009054906101000a900473ffffffffffffffffffffffffffffffffffffffff1661203b565b915091506000600760009054906101000a900473ffffffffffffffffffffffffffffffffffffffff1673ffffffffffffffffffffffffffffffffffffffff166318160ddd6040518163ffffffff1660e01b8152600401602060405180830381865afa158015613c2c573d6000803e3d6000fd5b505050506040513d601f19601f82011682018060405250810190613c50919061447a565b9050613c88838288613c62919061438c565b613c6c9190614415565b838388613c79919061438c565b613c839190614415565b6139f4565b935050505092915050565b80600460008473ffffffffffffffffffffffffffffffffffffffff1673ffffffffffffffffffffffffffffffffffffffff16815260200190815260200160002054613cde9190614446565b600460008473ffffffffffffffffffffffffffffffffffffffff1673ffffffffffffffffffffffffffffffffffffffff1681526020019081526020016000208190555080600354613d2f9190614446565b600381905550600073ffffffffffffffffffffffffffffffffffffffff168273ffffffffffffffffffffffffffffffffffffffff167fddf252ad1be2c89b69c2b068fc378daa952ba7f163c4a11628f55a4df523b3ef83604051613d939190613fbb565b60405180910390a35050565b6000818310613dae5781613db0565b825b905092915050565b600073ffffffffffffffffffffffffffffffffffffffff82169050919050565b6000613de382613db8565b9050919050565b613df381613dd8565b82525050565b6000602082019050613e0e6000830184613dea565b92915050565b600081519050919050565b600082825260208201905092915050565b60005b83811015613e4e578082015181840152602081019050613e33565b83811115613e5d576000848401525b50505050565b6000601f19601f8301169050919050565b6000613e7f82613e14565b613e898185613e1f565b9350613e99818560208601613e30565b613ea281613e63565b840191505092915050565b60006020820190508181036000830152613ec78184613e74565b905092915050565b600080fd5b613edd81613dd8565b8114613ee857600080fd5b50565b600081359050613efa81613ed4565b92915050565b6000819050919050565b613f1381613f00565b8114613f1e57600080fd5b50565b600081359050613f3081613f0a565b92915050565b60008060408385031215613f4d57613f4c613ecf565b5b6000613f5b85828601613eeb565b9250506020613f6c85828601613f21565b9150509250929050565b60008115159050919050565b613f8b81613f76565b82525050565b6000602082019050613fa66000830184613f82565b92915050565b613fb581613f00565b82525050565b6000602082019050613fd06000830184613fac565b92915050565b600080600060608486031215613fef57613fee613ecf565b5b6000613ffd86828701613eeb565b935050602061400e86828701613eeb565b925050604061401f86828701613f21565b9150509250925092565b600060ff82169050919050565b61403f81614029565b82525050565b600060208201905061405a6000830184614036565b92915050565b60006080820190506140756000830187613fac565b6140826020830186613fac565b61408f6040830185613fac565b61409c6060830184613fac565b95945050505050565b60006040820190506140ba6000830185613fac565b6140c76020830184613fac565b9392505050565b6000602082840312156140e4576140e3613ecf565b5b60006140f284828501613f21565b91505092915050565b60006020828403121561411157614110613ecf565b5b600061411f84828501613eeb565b91505092915050565b6000806040838503121561413f5761413e613ecf565b5b600061414d85828601613eeb565b925050602061415e85828601613eeb565b9150509250929050565b600080600080600060a0868803121561418457614183613ecf565b5b600061419288828901613f21565b95505060206141a388828901613f21565b94505060406141b488828901613f21565b93505060606141c588828901613f21565b92505060806141d688828901613eeb565b9150509295509295909350565b60006060820190506141f86000830186613fac565b6142056020830185613fac565b6142126040830184613fac565b949350505050565b6000806000806080858703121561423457614233613ecf565b5b600061424287828801613f21565b945050602061425387828801613f21565b935050604061426487828801613f21565b925050606061427587828801613eeb565b91505092959194509250565b7f4e487b7100000000000000000000000000000000000000000000000000000000600052602260045260246000fd5b600060028204905060018216806142c857607f821691505b6020821081036142db576142da614281565b5b50919050565b6000815190506142f081613f0a565b92915050565b600080600080608085870312156143105761430f613ecf565b5b600061431e878288016142e1565b945050602061432f878288016142e1565b9350506040614340878288016142e1565b9250506060614351878288016142e1565b91505092959194509250565b7f4e487b7100000000000000000000000000000000000000000000000000000000600052601160045260246000fd5b600061439782613f00565b91506143a283613f00565b9250817fffffffffffffffffffffffffffffffffffffffffffffffffffffffffffffffff04831182151516156143db576143da61435d565b5b828202905092915050565b7f4e487b7100000000000000000000000000000000000000000000000000000000600052601260045260246000fd5b600061442082613f00565b915061442b83613f00565b92508261443b5761443a6143e6565b5b828204905092915050565b600061445182613f00565b915061445c83613f00565b92508282101561446f5761446e61435d565b5b828203905092915050565b6000602082840312156144905761448f613ecf565b5b600061449e848285016142e1565b91505092915050565b60006144b282613f00565b91506144bd83613f00565b9250827fffffffffffffffffffffffffffffffffffffffffffffffffffffffffffffffff038211156144f2576144f161435d565b5b828201905092915050565b7f4465706f736974506f6f6c3a205345545f4645455f544f5f464f52424944444560008201527f4e00000000000000000000000000000000000000000000000000000000000000602082015250565b6000614559602183613e1f565b9150614564826144fd565b604082019050919050565b600060208201905081810360008301526145888161454c565b9050919050565b7f4465706f736974506f6f6c3a204c4f434b454400000000000000000000000000600082015250565b60006145c5601383613e1f565b91506145d08261458f565b602082019050919050565b600060208201905081810360008301526145f4816145b8565b9050919050565b7f4465706f736974506f6f6c3a20464f5242494444454e00000000000000000000600082015250565b6000614631601683613e1f565b915061463c826145fb565b602082019050919050565b6000602082019050818103600083015261466081614624565b9050919050565b7f4465706f736974506f6f6c3a20494e53554646494349454e545f4c495155494460008201527f4954595f494e5f43504d00000000000000000000000000000000000000000000602082015250565b60006146c3602a83613e1f565b91506146ce82614667565b604082019050919050565b600060208201905081810360008301526146f2816146b6565b9050919050565b7f566567617377617056313a204c49515549444954595f49535f5a45524f000000600082015250565b600061472f601d83613e1f565b915061473a826146f9565b602082019050919050565b6000602082019050818103600083015261475e81614722565b9050919050565b600060608201905061477a6000830186613dea565b6147876020830185613dea565b6147946040830184613fac565b949350505050565b6147a581613f76565b81146147b057600080fd5b50565b6000815190506147c28161479c565b92915050565b6000602082840312156147de576147dd613ecf565b5b60006147ec848285016147b3565b91505092915050565b7f4465706f736974506f6f6c3a20494e53554646494349454e545f415f414d4f5560008201527f4e54000000000000000000000000000000000000000000000000000000000000602082015250565b6000614851602283613e1f565b915061485c826147f5565b604082019050919050565b6000602082019050818103600083015261488081614844565b9050919050565b7f4465706f736974506f6f6c3a20494e53554646494349454e545f425f414d4f5560008201527f4e54000000000000000000000000000000000000000000000000000000000000602082015250565b60006148e3602283613e1f565b91506148ee82614887565b604082019050919050565b60006020820190508181036000830152614912816148d6565b9050919050565b7f47616d6d61737761704c6962726172793a204944454e544943414c5f4144445260008201527f4553534553000000000000000000000000000000000000000000000000000000602082015250565b6000614975602583613e1f565b915061498082614919565b604082019050919050565b600060208201905081810360008301526149a481614968565b9050919050565b7f47616d6d61737761704c6962726172793a205a45524f5f414444524553530000600082015250565b60006149e1601e83613e1f565b91506149ec826149ab565b602082019050919050565b60006020820190508181036000830152614a10816149d4565b9050919050565b60006dffffffffffffffffffffffffffff82169050919050565b614a3a81614a17565b8114614a4557600080fd5b50565b600081519050614a5781614a31565b92915050565b600063ffffffff82169050919050565b614a7681614a5d565b8114614a8157600080fd5b50565b600081519050614a9381614a6d565b92915050565b600080600060608486031215614ab257614ab1613ecf565b5b6000614ac086828701614a48565b9350506020614ad186828701614a48565b9250506040614ae286828701614a84565b9150509250925092565b6000604082019050614b016000830185613dea565b614b0e6020830184613dea565b9392505050565b6000604082019050614b2a6000830185613dea565b614b376020830184613fac565b9392505050565b6000819050919050565b6000819050919050565b6000614b6d614b68614b6384614b3e565b614b48565b613f00565b9050919050565b614b7d81614b52565b82525050565b600060e082019050614b98600083018a613dea565b614ba56020830189613dea565b614bb26040830188613fac565b614bbf6060830187614b74565b614bcc6080830186614b74565b614bd960a0830185613dea565b614be660c0830184613fac565b98975050505050505050565b60008060408385031215614c0957614c08613ecf565b5b6000614c17858286016142e1565b9250506020614c28858286016142e1565b9150509250929050565b600081519050919050565b600081905092915050565b6000614c5382614c32565b614c5d8185614c3d565b9350614c6d818560208601613e30565b80840191505092915050565b6000614c858284614c48565b915081905092915050565b7f4465706f736974506f6f6c3a205452414e534645525f4641494c454400000000600082015250565b6000614cc6601c83613e1f565b9150614cd182614c90565b602082019050919050565b60006020820190508181036000830152614cf581614cb9565b9050919050565b600061010082019050614d12600083018b613dea565b614d1f602083018a613dea565b614d2c6040830189613fac565b614d396060830188613fac565b614d466080830187613fac565b614d5360a0830186613fac565b614d6060c0830185613dea565b614d6d60e0830184613fac565b9998505050505050505050565b600080600060608486031215614d9357614d92613ecf565b5b6000614da1868287016142e1565b9350506020614db2868287016142e1565b9250506040614dc3868287016142e1565b9150509250925092565b7f4e487b7100000000000000000000000000000000000000000000000000000000600052600160045260246000fd5b7f5472616e7366657248656c7065723a205452414e534645525f46524f4d5f464160008201527f494c454400000000000000000000000000000000000000000000000000000000602082015250565b6000614e58602483613e1f565b9150614e6382614dfc565b604082019050919050565b60006020820190508181036000830152614e8781614e4b565b9050919050565b7f4465706f736974506f6f6c3a20494e53554646494349454e545f4c495155494460008201527f4954595f4d494e54454400000000000000000000000000000000000000000000602082015250565b6000614eea602a83613e1f565b9150614ef582614e8e565b604082019050919050565b60006020820190508181036000830152614f1981614edd565b9050919050565b7f4465706f736974506f6f6c3a20494e53554646494349454e545f4c495155494460008201527f4954595f4255524e454400000000000000000000000000000000000000000000602082015250565b6000614f7c602a83613e1f565b9150614f8782614f20565b604082019050919050565b60006020820190508181036000830152614fab81614f6f565b9050919050565b7f4465706f736974506f6f6c3a20494e53554646494349454e545f554e495f4c4960008201527f515549444954595f415641494c41424c45000000000000000000000000000000602082015250565b600061500e603183613e1f565b915061501982614fb2565b604082019050919050565b6000602082019050818103600083015261503d81615001565b9050919050565b7f47616d6d61737761704c6962726172793a20494e53554646494349454e545f4160008201527f4d4f554e54000000000000000000000000000000000000000000000000000000602082015250565b60006150a0602583613e1f565b91506150ab82615044565b604082019050919050565b600060208201905081810360008301526150cf81615093565b9050919050565b7f47616d6d617377617056314c6962726172793a20494e53554646494349454e5460008201527f5f4c495155494449545900000000000000000000000000000000000000000000602082015250565b6000615132602a83613e1f565b915061513d826150d6565b604082019050919050565b6000602082019050818103600083015261516181615125565b905091905056fea26469706673582212208604ec88488c2a2d3c5420e57f30295b1c7fb4af397883ecaa037023c75a496964736f6c634300080e0033",
  "immutableReferences": {},
  "source": "// SPDX-License-Identifier: GNU GPL v3\npragma solidity ^0.8.0;\n\nimport '@openzeppelin/contracts/token/ERC20/IERC20.sol';\n//import '@openzeppelin/contracts/token/ERC20/ERC20.sol';\nimport '@uniswap/v2-periphery/contracts/interfaces/IUniswapV2Router02.sol';\nimport '@uniswap/v2-core/contracts/interfaces/IUniswapV2Pair.sol';\nimport '@uniswap/lib/contracts/libraries/TransferHelper.sol';\n\nimport './libraries/GammaswapLibrary.sol';\nimport \"./interfaces/IDepositPool.sol\";\n\ncontract DepositPool is IDepositPool, IERC20 {\n\n    string public name = 'Gammaswap V0';\n    string public symbol = 'GAMA-V0';\n    uint8 public decimals = 18;\n    uint  public totalSupply;\n    mapping(address => uint) private _balanceOf;\n    mapping(address => mapping(address => uint)) private _allowance;\n\n\n    uint public constant ONE = 10**18;\n    uint public constant MINIMUM_LIQUIDITY = 10**3;\n\n    address public uniRouter;\n    address public uniPair;\n    address public token0;\n    address public token1;\n    address public positionManager;\n\n    uint public lastUniInvariant;\n    uint public lastUniTotalSupply;\n    uint public accFeeIndex;\n    uint public prevLastUniFeeIndex;\n    uint public totalUniLiquidity;\n\n    uint public BORROWED_INVARIANT;\n    uint public UNI_LP_BORROWED;\n    uint public LAST_BLOCK_NUMBER;\n    uint public YEAR_BLOCK_COUNT = 2252571;\n\n    uint public BASE_RATE = 10**16;\n    uint public OPTIMAL_UTILIZATION_RATE = 8*(10**17);\n    uint public SLOPE1 = 10**18;\n    uint public SLOPE2 = 10**18;\n\n    bytes4 private constant SELECTOR = bytes4(keccak256(bytes('transfer(address,uint256)')));\n\n    address public owner;\n    address public feeTo = address(0);\n    uint256 public fee = 5 * (10**16); //5% of borrowed interest gains by default (dev fee)\n\n    uint private unlocked = 1;\n\n    modifier lock() {\n        require(unlocked == 1, 'DepositPool: LOCKED');\n        unlocked = 0;\n        _;\n        unlocked = 1;\n    }\n\n    constructor(address _uniRouter, address _uniPair, address _token0, address _token1, address _positionManager) {\n        uniRouter = _uniRouter;\n        uniPair = _uniPair;\n        (token0, token1) = GammaswapLibrary.sortTokens(_token0, _token1);\n        positionManager = _positionManager;\n        owner = msg.sender;\n    }\n\n    function setFeeTo(address _feeTo) external {\n        require(msg.sender == owner, \"DepositPool: SET_FEE_TO_FORBIDDEN\");\n        feeTo = _feeTo;\n    }\n\n    function setFee(uint256 _fee) external {\n        require(msg.sender == owner, \"DepositPool: SET_FEE_TO_FORBIDDEN\");\n        fee = _fee;\n    }\n\n    function balanceOf(address account) external override view returns (uint256 bal) {\n        bal = _balanceOf[account];\n    }\n\n    function allowance(address owner, address spender) external override view returns (uint256 bal) {\n        bal = _allowance[owner][spender];\n    }\n\n    function getUniPair() external virtual override view returns(address _uniPair) {\n        _uniPair = uniPair;\n    }\n\n    // **** ADD LIQUIDITY ****\n    function _addLiquidity(\n        uint amountADesired,\n        uint amountBDesired,\n        uint amountAMin,\n        uint amountBMin\n    ) internal virtual returns (uint amountA, uint amountB) {\n        // create the pair if it doesn't exist ye\n        (uint reserveA, uint reserveB) = GammaswapLibrary.getUniReserves(uniPair, token0, token1);\n        if (reserveA == 0 && reserveB == 0) {\n            (amountA, amountB) = (amountADesired, amountBDesired);\n        } else {\n            uint amountBOptimal = GammaswapLibrary.quote(amountADesired, reserveA, reserveB);\n            if (amountBOptimal <= amountBDesired) {\n                require(amountBOptimal >= amountBMin, 'DepositPool: INSUFFICIENT_B_AMOUNT');\n                (amountA, amountB) = (amountADesired, amountBOptimal);\n            } else {\n                uint amountAOptimal = GammaswapLibrary.quote(amountBDesired, reserveB, reserveA);\n                assert(amountAOptimal <= amountADesired);\n                require(amountAOptimal >= amountAMin, 'DepositPool: INSUFFICIENT_A_AMOUNT');\n                (amountA, amountB) = (amountAOptimal, amountBDesired);\n            }\n        }\n    }/**/\n\n    //TODO: add liquidity =>\n    /*\n        -takes amounts from user\n        -calls mint\n            -sends amounts to uni\n            -stores liquidity from uni\n            -mints tokens to user\n    */\n\n    function addLiquidity(\n        uint amountADesired,\n        uint amountBDesired,\n        uint amountAMin,\n        uint amountBMin,\n        address to\n    ) external virtual returns (uint amountA, uint amountB, uint liquidity) {\n        (amountA, amountB) = _addLiquidity(amountADesired, amountBDesired, amountAMin, amountBMin);\n        TransferHelper.safeTransferFrom(token0, msg.sender, address(this), amountA);\n        TransferHelper.safeTransferFrom(token1, msg.sender, address(this), amountB);\n        liquidity = mint(to);\n    }\n\n    // **** REMOVE LIQUIDITY ****\n    function removeLiquidity(\n        uint liquidity,\n        uint amountAMin,\n        uint amountBMin,\n        address to\n    ) public virtual returns (uint amountA, uint amountB) {\n        this.transferFrom(msg.sender, address(this), liquidity); // send liquidity to pair\n        (uint amount0, uint amount1) = burn(to);\n        require(amountA >= amountAMin, 'DepositPool: INSUFFICIENT_A_AMOUNT');\n        require(amountB >= amountBMin, 'DepositPool: INSUFFICIENT_B_AMOUNT');\n    }\n\n    function addBorrowedTokens(uint256 tokensOwed0, uint256 tokensOwed1, uint256 liquidity) internal {\n        UNI_LP_BORROWED = UNI_LP_BORROWED + liquidity;\n        uint256 borrowedLiquidity = GammaswapLibrary.convertAmountsToLiquidity(tokensOwed0, tokensOwed1);\n        if(BORROWED_INVARIANT > 0) {\n            BORROWED_INVARIANT = BORROWED_INVARIANT + borrowedLiquidity;\n        } else {\n            BORROWED_INVARIANT = borrowedLiquidity;\n        }\n    }\n\n    function decBorrowedTokens(uint256 liquidity, uint256 uniLiquidity) internal {\n        UNI_LP_BORROWED = uniLiquidity <= UNI_LP_BORROWED ? (UNI_LP_BORROWED - uniLiquidity) : 0;\n        if(BORROWED_INVARIANT > 0) {\n            BORROWED_INVARIANT = BORROWED_INVARIANT - liquidity;\n        }\n    }\n\n    function getUtilizationRate() external view returns(uint256 _utilizationRate) {\n        uint256 totalLPShares = totalUniLiquidity + UNI_LP_BORROWED;\n        _utilizationRate = (UNI_LP_BORROWED * ONE) / totalLPShares;\n    }\n\n    function getBorrowRate() external view returns(uint256 _borrowRate) {\n        uint256 utilizationRate = this.getUtilizationRate();\n        if(utilizationRate <= OPTIMAL_UTILIZATION_RATE) {\n            uint256 variableRate = (utilizationRate * SLOPE1) / OPTIMAL_UTILIZATION_RATE;\n            _borrowRate = BASE_RATE + variableRate;\n        } else {\n            uint256 utilizationRateDiff = utilizationRate - OPTIMAL_UTILIZATION_RATE;\n            uint256 optimalUtilComplement = ONE - OPTIMAL_UTILIZATION_RATE;\n            uint256 variableRate = (utilizationRateDiff * SLOPE2) / optimalUtilComplement;\n            _borrowRate = (BASE_RATE + SLOPE1) + variableRate;\n        }\n    }\n\n    function mintDevFee(uint256 nextBorrowedInvariant, uint256 _lastFeeIndex) private {\n        //address feeTo = owner;//IVegaswapV1Factory(factory).feeTo();\n        if(feeTo != address(0)) {\n            //uint256 devFee = IVegaswapV1Factory(factory).fee();\n            //(uint256 reserve0, uint256 reserve1) = getCPMReserves(uniPair);\n            (uint256 reserve0, uint256 reserve1) = GammaswapLibrary.getUniReserves(uniPair, token0, token1);\n            uint256 rootK = GammaswapLibrary.convertAmountsToLiquidity(reserve0, reserve1);\n            uint256 uniLPBalance = IERC20(uniPair).balanceOf(address(this));\n            uint256 uniTotalSupply = IERC20(uniPair).totalSupply();\n            uint256 uniShareRootK = (uniLPBalance * rootK) / uniTotalSupply;\n            uint256 factor = ((_lastFeeIndex - ONE) * fee) / _lastFeeIndex;\n            uint256 accGrowth = (factor * nextBorrowedInvariant) / (nextBorrowedInvariant + uniShareRootK);\n            uint256 newDevShares = (totalSupply * accGrowth) / (ONE - accGrowth);\n            _mint(feeTo, newDevShares);\n        }/**/\n    }\n\n    //TODO: What happens if the pool becomes empty? lastFeeIndex becomes 1 but accFeeIndex shouldn't become 1. Will the uniInvariants and/or uniSupply become 0?\n    function getLastFeeIndex() external override view returns(uint _accFeeIndex, uint _lastUniInvariant, uint _lastUniTotalSupply, uint _lastFeeIndex) {\n        (uint256 reserve0, uint256 reserve1) = GammaswapLibrary.getUniReserves(uniPair, token0, token1);\n        if(reserve0 > 0 && reserve1 > 0) {\n            _lastUniInvariant = (reserve0 * reserve1) / (10**18);\n            _lastUniTotalSupply = IERC20(uniPair).totalSupply();\n        }\n        if(lastUniInvariant > 0 && _lastUniInvariant > 0 && _lastUniTotalSupply > 0 && lastUniTotalSupply > 0) {\n            uint256 numerator =  GammaswapLibrary.rootNumber(_lastUniInvariant) * lastUniTotalSupply;\n            uint256 denominator =  GammaswapLibrary.rootNumber(lastUniInvariant) * _lastUniTotalSupply;\n            uint256 lastUniFeeIndex = (numerator * (10**18)) / denominator;//TODO: The invariant can't get too big or it will overflow\n            uint256 borrowRate = this.getBorrowRate();\n            uint blockDiff = block.number - LAST_BLOCK_NUMBER;\n            uint256 adjBorrowRate = (blockDiff * borrowRate) / YEAR_BLOCK_COUNT;\n            _lastFeeIndex = lastUniFeeIndex + adjBorrowRate;\n            _accFeeIndex = (accFeeIndex * _lastFeeIndex) / (10**18);\n        } else {\n            _accFeeIndex = 10**18;\n            _lastFeeIndex = 10**18;\n        }\n    }\n\n    function getAndUpdateLastFeeIndex() external override returns(uint256 _accFeeIndex) {\n        uint256 _lastFeeIndex;\n        (_accFeeIndex, lastUniInvariant, lastUniTotalSupply, _lastFeeIndex) = this.getLastFeeIndex();\n        if(BORROWED_INVARIANT > 0) {\n            uint256 nextBorrowedInvariant = (BORROWED_INVARIANT * _lastFeeIndex) / (10**18);\n            //mintDevFee(nextBorrowedInvariant, _lastFeeIndex);\n            BORROWED_INVARIANT = nextBorrowedInvariant;\n        }\n        accFeeIndex = _accFeeIndex;\n        LAST_BLOCK_NUMBER = block.number;\n    }\n\n    function getBorrowedReserves() external view returns(uint256 _reserve0, uint256 _reserve1) {\n        (uint256 _uniReserve0, uint256 _uniReserve1) = GammaswapLibrary.getUniReserves(uniPair, token0, token1);\n        (_reserve0, _reserve1) = GammaswapLibrary.getBorrowedReserves(uniPair, _uniReserve0, _uniReserve1, totalUniLiquidity, BORROWED_INVARIANT);\n    }\n\n    //This is depositing coins into the pool\n    /*\n     *  This should be like depositing into uniswap. We are mapped 1 to 1 with uniswap\n     */\n    // this low-level function should be called from a contract which performs important safety checks\n    function mint(address to) internal lock returns (uint256 liquidity) {\n    //function mint(address to) external lock returns (uint256 liquidity) {\n        (uint amount0, uint amount1) = GammaswapLibrary.getTokenBalances(token0, token1, address(this));\n\n        this.getAndUpdateLastFeeIndex();\n\n        uint256 _reserve0;\n        uint256 _reserve1;\n        (uint256 _uniReserve0, uint256 _uniReserve1) = GammaswapLibrary.getUniReserves(uniPair, token0, token1);\n\n        uint256 _totalSupply = totalSupply;\n        if(_totalSupply > 0) {\n            //get reserves from uni\n            (_reserve0, _reserve1) = GammaswapLibrary.getBorrowedReserves(uniPair, _uniReserve0, _uniReserve1, totalUniLiquidity, BORROWED_INVARIANT);//This is right because the liquidity has to\n        }\n\n        uint256 amountA;\n        uint256 amountB;\n        //TODO: Change all of this so that it is init to the invariant when there is no liquidity.\n        if(amount0 > 0 && amount1 > 0) {\n            (amountA, amountB, liquidity) = addLiquidity(amount0, amount1, 0, 0);\n        }\n\n        totalUniLiquidity = IERC20(uniPair).balanceOf(address(this));\n\n        if (_totalSupply == 0) {\n            liquidity = GammaswapLibrary.convertAmountsToLiquidity(amountA, amountB) - MINIMUM_LIQUIDITY;\n            _mint(address(0), MINIMUM_LIQUIDITY); // permanently lock the first MINIMUM_LIQUIDITY tokens\n        } else {\n            liquidity = GammaswapLibrary.min2((amountA * _totalSupply) / _reserve0, (amountB * _totalSupply) / _reserve1);//match everything that is in uniswap\n        }\n        require(liquidity > 0, 'DepositPool: INSUFFICIENT_LIQUIDITY_MINTED');\n        _mint(to, liquidity);\n\n        //We do not update the reserves because in theory reserves should not change due to this\n        //emit Mint(msg.sender, amountA, amountB);/**/\n    }\n\n    //Uniswap.\n    function addLiquidity(uint amount0, uint amount1, uint amountAMin, uint amountBMin) internal returns(uint amountA, uint amountB, uint liquidity) {\n        //(uint reserveA, uint reserveB) = getCPMReserves(IVegaswapV1Pool(IVegaswapV1Factory(factory).getPool(_token0, _token1)).uniPair());\n\n        if(amount0 > IERC20(token0).allowance(address(this), uniRouter)) {\n            IERC20(token0).approve(uniRouter, type(uint).max);\n        }\n        if(amount1 > IERC20(token1).allowance(address(this), uniRouter)) {\n            IERC20(token1).approve(uniRouter, type(uint).max);\n        }\n        (amountA, amountB, liquidity) = IUniswapV2Router02(uniRouter)\n        .addLiquidity(token0, token1, amount0, amount1, amountAMin, amountBMin, address(this), type(uint).max);//TODO: Should we use a lower deadline\n        /**/\n    }\n\n    function calculateLiquidityAmounts(uint liquidity) internal returns(uint256 amount0, uint256 amount1) {\n        (uint balance0, uint balance1) = GammaswapLibrary.getTokenBalances(token0, token1, uniPair);\n\n        (uint256 _reserve0, uint256 _reserve1) = GammaswapLibrary.getBorrowedReserves(uniPair, balance0, balance1, totalUniLiquidity, BORROWED_INVARIANT);\n\n        uint _totalSupply = totalSupply; // gas savings, must be defined here since totalSupply can update in _mintFee\n        require(_totalSupply > 0, 'DepositPool: INSUFFICIENT_UNI_LIQUIDITY_AVAILABLE');\n\n        amount0 = (liquidity * _reserve0) / _totalSupply; // using balances ensures pro-rata distribution\n        amount1 = (liquidity * _reserve1) / _totalSupply; // using balances ensures pro-rata distribution\n    }\n\n    function calculateUniLiquidity(uint amount0, uint amount1) internal returns(uint256 uniLiquidity) {\n        //remove from uni LPs only\n        (uint256 _uniReserve0, uint256 _uniReserve1) = GammaswapLibrary.getUniReserves(uniPair, token0, token1);\n        uint256 uniTotalSupply = IERC20(uniPair).totalSupply();\n        uniLiquidity = GammaswapLibrary.min2((amount0 * uniTotalSupply) / _uniReserve0, (amount1 * uniTotalSupply) / _uniReserve1);\n    }\n\n    //TODO: remove liquidity\n    // this low-level function should be called from a contract which performs important safety checks\n    function burn(address to) internal lock returns (uint _amount0, uint _amount1) {\n\n        this.getAndUpdateLastFeeIndex();\n\n        uint256 liquidity = _balanceOf[address(this)];\n        (uint amount0, uint amount1) = calculateLiquidityAmounts(liquidity);\n        require(amount0 > 0 && amount1 > 0, 'DepositPool: INSUFFICIENT_LIQUIDITY_BURNED');\n\n        //remove from uni LPs only\n        uint256 uniLiquidity = calculateUniLiquidity(amount0, amount1);\n        require(uniLiquidity <= IERC20(uniPair).balanceOf(address(this)), 'DepositPool: INSUFFICIENT_UNI_LIQUIDITY_AVAILABLE');\n\n        (_amount0, _amount1) = removeLiquidity(uniLiquidity, to);\n\n        totalUniLiquidity = IERC20(uniPair).balanceOf(address(this));\n        _burn(address(this), liquidity);\n\n        //emit Burn(msg.sender, _amount0, _amount1, uniLiquidity, to);\n    }\n\n    //Uniswap.\n    function removeLiquidity(uint liquidity, address to) internal returns(uint amount0, uint amount1) {\n        if(liquidity > IERC20(uniPair).allowance(address(this), uniRouter)) {\n            IERC20(uniPair).approve(uniRouter, type(uint).max);\n        }\n        (amount0, amount1) = IUniswapV2Router02(uniRouter).removeLiquidity(token0, token1, liquidity, 0, 0, to, type(uint).max);\n    }/**/\n\n    //TODO: openPosition\n    /**\n         * TODO: The attack is borrow large sum, depress the price of token0, then deposit token1 to use up all the pool liquidity\n         * then trade back up to recover loaned out funds and make a profit in the IL\n         * Come up with an equation to show that this can't be gamed with a flash loan. It can be gamed but the issue only affects the less steep\n         * part of the uniswap curve. Issue could be resolved with a small fee. But the same issue could affect suppliers.\n         * If that's the case the other solution is using a fee based on a TWAP. Say deposits are measured based on an UNI TWAP rather than the spot price.\n         * Same for opening positions.\n         * Come up with a math formula to explain this attack\n         */\n    //function openPosition(uint256 liquidity, uint256 swapAmt, bool isBuy) external onlyPositionManager lock override\n    function openPosition(uint256 liquidity) external lock override returns (uint256 tokensOwed0, uint256 tokensOwed1) {\n        require(msg.sender == positionManager, 'DepositPool: FORBIDDEN');\n        require(liquidity <= totalUniLiquidity, 'DepositPool: INSUFFICIENT_LIQUIDITY_IN_CPM');\n\n        this.getAndUpdateLastFeeIndex();\n\n        //remove that liquidity\n        (tokensOwed0, tokensOwed1) = removeLiquidity(liquidity, address(this));\n\n        totalUniLiquidity = IERC20(uniPair).balanceOf(address(this));\n\n        addBorrowedTokens(tokensOwed0, tokensOwed1, liquidity);\n\n        //All amounts are transferred to positionManager\n        _safeTransferFn(token0, msg.sender, tokensOwed0);\n        _safeTransferFn(token1, msg.sender, tokensOwed1);\n\n        emit OpenPosition(tokensOwed0, tokensOwed1);/**/\n    }\n\n    function _safeTransferFn(address token, address to, uint value) internal {//changed from private\n        (bool success, bytes memory data) = token.call(abi.encodeWithSelector(SELECTOR, to, value));\n        require(success && (data.length == 0 || abi.decode(data, (bool))), 'DepositPool: TRANSFER_FAILED');\n    }\n\n    //TODO: closePosition\n    function closePosition(uint256 liquidity) external override returns(uint256 leftAmount0, uint256 leftAmount1) {\n        require(msg.sender == positionManager, 'DepositPool: FORBIDDEN');\n        require(liquidity > 0, \"VegaswapV1: LIQUIDITY_IS_ZERO\");\n        this.getAndUpdateLastFeeIndex();\n\n        (uint256 amount0, uint256 amount1) = GammaswapLibrary.convertPoolLiquidityToAmounts(uniPair, liquidity);\n\n        (,, uint uniLiquidity) = addLiquidity(amount0, amount1, 0, 0);\n\n        totalUniLiquidity = IERC20(uniPair).balanceOf(address(this));\n\n        decBorrowedTokens(liquidity, uniLiquidity);\n\n        //All amounts are transferred to positionManager\n        (leftAmount0, leftAmount1) = GammaswapLibrary.getTokenBalances(token0, token1, address(this));\n\n        //Whatever is left we send back to Position, that will be the profit\n        _safeTransferFn(token0, msg.sender, leftAmount0);\n        _safeTransferFn(token1, msg.sender, leftAmount1);\n    }\n\n    //TODO: updateYield (based on utilization ratio)\n\n\n    function _mint(address to, uint value) internal {\n        totalSupply = totalSupply + value;\n        _balanceOf[to] = _balanceOf[to] + value;\n        emit Transfer(address(0), to, value);\n    }\n\n    function _burn(address from, uint value) internal {\n        _balanceOf[from] = _balanceOf[from] - value;\n        totalSupply = totalSupply - value;\n        emit Transfer(from, address(0), value);\n    }\n\n    function _approve(address owner, address spender, uint value) private {\n        _allowance[owner][spender] = value;\n        emit Approval(owner, spender, value);\n    }\n\n    function _transfer(address from, address to, uint value) private {\n        _balanceOf[from] = _balanceOf[from] - value;\n        _balanceOf[to] = _balanceOf[to] + value;\n        emit Transfer(from, to, value);\n    }\n\n    function approve(address spender, uint value) external override returns (bool) {\n        _approve(msg.sender, spender, value);\n        return true;\n    }\n\n    function transfer(address to, uint value) external override returns (bool) {\n        _transfer(msg.sender, to, value);\n        return true;\n    }\n\n    function transferFrom(address from, address to, uint value) external override returns (bool) {\n        if (_allowance[from][msg.sender] != type(uint).max) {\n            _allowance[from][msg.sender] = _allowance[from][msg.sender] - value;\n        }\n        _transfer(from, to, value);\n        return true;\n    }\n\n    function getUniswapPath(address _token0, address _token1, address _uniRouter, address _to, uint256 amount) private returns(address[] memory path) {\n        path = new address[](2);\n        path[0] = _token0;\n        path[1] = _token1;\n\n        if(amount > IERC20(path[0]).allowance(_to, _uniRouter)) {\n            IERC20(path[0]).approve(_uniRouter, type(uint).max);\n        }\n    }\n\n    //Uniswap.\n    function swapExactTokensForTokens(address _token0, address _token1, uint256 amountOutMin, uint256 amount, address _to) internal {\n        //address _uniRouter = IVegaswapV1Factory(factory).uniRouter();\n        address[] memory path = getUniswapPath(_token0, _token1, uniRouter, _to, amount);\n        IUniswapV2Router02(uniRouter).swapExactTokensForTokens(amount, amountOutMin, path, _to, type(uint).max);\n    }\n    /*function DepositPool(){\n\n    }/**/\n}\n",
  "sourcePath": "/Users/danielalcarraz/Documents/workspace/gammaswap/src/contracts/DepositPool.sol",
  "compiler": {
    "name": "solc",
    "version": "0.8.14+commit.80d49f37.Emscripten.clang"
  },
  "schemaVersion": "3.3.3",
  "updatedAt": "2022-05-22T08:46:07.568Z",
  "networkType": "ethereum",
  "devdoc": {
    "kind": "dev",
    "methods": {
      "allowance(address,address)": {
        "details": "Returns the remaining number of tokens that `spender` will be allowed to spend on behalf of `owner` through {transferFrom}. This is zero by default. This value changes when {approve} or {transferFrom} are called."
      },
      "balanceOf(address)": {
        "details": "Returns the amount of tokens owned by `account`."
      }
    },
    "stateVariables": {
      "totalSupply": {
        "details": "Returns the amount of tokens in existence."
      }
    },
    "version": 1
  },
  "userdoc": {
    "kind": "user",
    "methods": {
      "openPosition(uint256)": {
        "notice": "TODO: The attack is borrow large sum, depress the price of token0, then deposit token1 to use up all the pool liquidity then trade back up to recover loaned out funds and make a profit in the IL Come up with an equation to show that this can't be gamed with a flash loan. It can be gamed but the issue only affects the less steep part of the uniswap curve. Issue could be resolved with a small fee. But the same issue could affect suppliers. If that's the case the other solution is using a fee based on a TWAP. Say deposits are measured based on an UNI TWAP rather than the spot price. Same for opening positions. Come up with a math formula to explain this attack"
      }
    },
    "version": 1
  }
}