{
  "contractName": "PositionManager",
  "abi": [
    {
      "inputs": [
        {
          "internalType": "address",
          "name": "_uniRouter",
          "type": "address"
        },
        {
          "internalType": "string",
          "name": "name_",
          "type": "string"
        },
        {
          "internalType": "string",
          "name": "symbol_",
          "type": "string"
        }
      ],
      "stateMutability": "nonpayable",
      "type": "constructor"
    },
    {
      "anonymous": false,
      "inputs": [
        {
          "indexed": true,
          "internalType": "address",
          "name": "owner",
          "type": "address"
        },
        {
          "indexed": true,
          "internalType": "address",
          "name": "approved",
          "type": "address"
        },
        {
          "indexed": true,
          "internalType": "uint256",
          "name": "tokenId",
          "type": "uint256"
        }
      ],
      "name": "Approval",
      "type": "event"
    },
    {
      "anonymous": false,
      "inputs": [
        {
          "indexed": true,
          "internalType": "address",
          "name": "owner",
          "type": "address"
        },
        {
          "indexed": true,
          "internalType": "address",
          "name": "operator",
          "type": "address"
        },
        {
          "indexed": false,
          "internalType": "bool",
          "name": "approved",
          "type": "bool"
        }
      ],
      "name": "ApprovalForAll",
      "type": "event"
    },
    {
      "anonymous": false,
      "inputs": [
        {
          "indexed": true,
          "internalType": "address",
          "name": "from",
          "type": "address"
        },
        {
          "indexed": true,
          "internalType": "address",
          "name": "to",
          "type": "address"
        },
        {
          "indexed": true,
          "internalType": "uint256",
          "name": "tokenId",
          "type": "uint256"
        }
      ],
      "name": "Transfer",
      "type": "event"
    },
    {
      "inputs": [
        {
          "internalType": "uint256",
          "name": "",
          "type": "uint256"
        }
      ],
      "name": "allPools",
      "outputs": [
        {
          "internalType": "address",
          "name": "",
          "type": "address"
        }
      ],
      "stateMutability": "view",
      "type": "function",
      "constant": true
    },
    {
      "inputs": [
        {
          "internalType": "address",
          "name": "to",
          "type": "address"
        },
        {
          "internalType": "uint256",
          "name": "tokenId",
          "type": "uint256"
        }
      ],
      "name": "approve",
      "outputs": [],
      "stateMutability": "nonpayable",
      "type": "function"
    },
    {
      "inputs": [
        {
          "internalType": "address",
          "name": "owner",
          "type": "address"
        }
      ],
      "name": "balanceOf",
      "outputs": [
        {
          "internalType": "uint256",
          "name": "",
          "type": "uint256"
        }
      ],
      "stateMutability": "view",
      "type": "function",
      "constant": true
    },
    {
      "inputs": [
        {
          "internalType": "address",
          "name": "",
          "type": "address"
        },
        {
          "internalType": "address",
          "name": "",
          "type": "address"
        }
      ],
      "name": "getPool",
      "outputs": [
        {
          "internalType": "address",
          "name": "",
          "type": "address"
        }
      ],
      "stateMutability": "view",
      "type": "function",
      "constant": true
    },
    {
      "inputs": [
        {
          "internalType": "address",
          "name": "owner",
          "type": "address"
        },
        {
          "internalType": "address",
          "name": "operator",
          "type": "address"
        }
      ],
      "name": "isApprovedForAll",
      "outputs": [
        {
          "internalType": "bool",
          "name": "",
          "type": "bool"
        }
      ],
      "stateMutability": "view",
      "type": "function",
      "constant": true
    },
    {
      "inputs": [],
      "name": "name",
      "outputs": [
        {
          "internalType": "string",
          "name": "",
          "type": "string"
        }
      ],
      "stateMutability": "view",
      "type": "function",
      "constant": true
    },
    {
      "inputs": [],
      "name": "owner",
      "outputs": [
        {
          "internalType": "address",
          "name": "",
          "type": "address"
        }
      ],
      "stateMutability": "view",
      "type": "function",
      "constant": true
    },
    {
      "inputs": [
        {
          "internalType": "uint256",
          "name": "tokenId",
          "type": "uint256"
        }
      ],
      "name": "ownerOf",
      "outputs": [
        {
          "internalType": "address",
          "name": "",
          "type": "address"
        }
      ],
      "stateMutability": "view",
      "type": "function",
      "constant": true
    },
    {
      "inputs": [
        {
          "internalType": "address",
          "name": "",
          "type": "address"
        }
      ],
      "name": "positionCountByOwner",
      "outputs": [
        {
          "internalType": "uint256",
          "name": "",
          "type": "uint256"
        }
      ],
      "stateMutability": "view",
      "type": "function",
      "constant": true
    },
    {
      "inputs": [
        {
          "internalType": "address",
          "name": "",
          "type": "address"
        },
        {
          "internalType": "uint256",
          "name": "",
          "type": "uint256"
        }
      ],
      "name": "positionsByOwner",
      "outputs": [
        {
          "internalType": "uint256",
          "name": "",
          "type": "uint256"
        }
      ],
      "stateMutability": "view",
      "type": "function",
      "constant": true
    },
    {
      "inputs": [
        {
          "internalType": "address",
          "name": "from",
          "type": "address"
        },
        {
          "internalType": "address",
          "name": "to",
          "type": "address"
        },
        {
          "internalType": "uint256",
          "name": "tokenId",
          "type": "uint256"
        }
      ],
      "name": "safeTransferFrom",
      "outputs": [],
      "stateMutability": "nonpayable",
      "type": "function"
    },
    {
      "inputs": [
        {
          "internalType": "address",
          "name": "from",
          "type": "address"
        },
        {
          "internalType": "address",
          "name": "to",
          "type": "address"
        },
        {
          "internalType": "uint256",
          "name": "tokenId",
          "type": "uint256"
        },
        {
          "internalType": "bytes",
          "name": "_data",
          "type": "bytes"
        }
      ],
      "name": "safeTransferFrom",
      "outputs": [],
      "stateMutability": "nonpayable",
      "type": "function"
    },
    {
      "inputs": [
        {
          "internalType": "address",
          "name": "operator",
          "type": "address"
        },
        {
          "internalType": "bool",
          "name": "approved",
          "type": "bool"
        }
      ],
      "name": "setApprovalForAll",
      "outputs": [],
      "stateMutability": "nonpayable",
      "type": "function"
    },
    {
      "inputs": [
        {
          "internalType": "bytes4",
          "name": "interfaceId",
          "type": "bytes4"
        }
      ],
      "name": "supportsInterface",
      "outputs": [
        {
          "internalType": "bool",
          "name": "",
          "type": "bool"
        }
      ],
      "stateMutability": "view",
      "type": "function",
      "constant": true
    },
    {
      "inputs": [],
      "name": "symbol",
      "outputs": [
        {
          "internalType": "string",
          "name": "",
          "type": "string"
        }
      ],
      "stateMutability": "view",
      "type": "function",
      "constant": true
    },
    {
      "inputs": [
        {
          "internalType": "uint256",
          "name": "tokenId",
          "type": "uint256"
        }
      ],
      "name": "tokenURI",
      "outputs": [
        {
          "internalType": "string",
          "name": "",
          "type": "string"
        }
      ],
      "stateMutability": "view",
      "type": "function",
      "constant": true
    },
    {
      "inputs": [
        {
          "internalType": "address",
          "name": "from",
          "type": "address"
        },
        {
          "internalType": "address",
          "name": "to",
          "type": "address"
        },
        {
          "internalType": "uint256",
          "name": "tokenId",
          "type": "uint256"
        }
      ],
      "name": "transferFrom",
      "outputs": [],
      "stateMutability": "nonpayable",
      "type": "function"
    },
    {
      "inputs": [],
      "name": "uniRouter",
      "outputs": [
        {
          "internalType": "address",
          "name": "",
          "type": "address"
        }
      ],
      "stateMutability": "view",
      "type": "function",
      "constant": true
    },
    {
      "inputs": [
        {
          "internalType": "address",
          "name": "user",
          "type": "address"
        }
      ],
      "name": "getPositionsByOwner",
      "outputs": [
        {
          "internalType": "uint256[]",
          "name": "tokenIds",
          "type": "uint256[]"
        }
      ],
      "stateMutability": "view",
      "type": "function",
      "constant": true
    },
    {
      "inputs": [
        {
          "internalType": "uint256",
          "name": "tokenId",
          "type": "uint256"
        }
      ],
      "name": "positions",
      "outputs": [
        {
          "internalType": "uint96",
          "name": "nonce",
          "type": "uint96"
        },
        {
          "internalType": "address",
          "name": "operator",
          "type": "address"
        },
        {
          "internalType": "address",
          "name": "poolId",
          "type": "address"
        },
        {
          "internalType": "address",
          "name": "token0",
          "type": "address"
        },
        {
          "internalType": "address",
          "name": "token1",
          "type": "address"
        },
        {
          "internalType": "uint256",
          "name": "tokensHeld0",
          "type": "uint256"
        },
        {
          "internalType": "uint256",
          "name": "tokensHeld1",
          "type": "uint256"
        },
        {
          "internalType": "address",
          "name": "uniPair",
          "type": "address"
        },
        {
          "internalType": "uint256",
          "name": "liquidity",
          "type": "uint256"
        },
        {
          "internalType": "uint256",
          "name": "rateIndex",
          "type": "uint256"
        },
        {
          "internalType": "uint256",
          "name": "blockNum",
          "type": "uint256"
        }
      ],
      "stateMutability": "view",
      "type": "function",
      "constant": true
    },
    {
      "inputs": [
        {
          "internalType": "address",
          "name": "token",
          "type": "address"
        }
      ],
      "name": "tokenBalances",
      "outputs": [
        {
          "internalType": "uint256",
          "name": "balance",
          "type": "uint256"
        }
      ],
      "stateMutability": "view",
      "type": "function",
      "constant": true
    },
    {
      "inputs": [
        {
          "internalType": "address",
          "name": "token0",
          "type": "address"
        },
        {
          "internalType": "address",
          "name": "token1",
          "type": "address"
        },
        {
          "internalType": "address",
          "name": "pool",
          "type": "address"
        }
      ],
      "name": "registerPool",
      "outputs": [],
      "stateMutability": "nonpayable",
      "type": "function"
    },
    {
      "inputs": [],
      "name": "getOwner",
      "outputs": [
        {
          "internalType": "address",
          "name": "_owner",
          "type": "address"
        }
      ],
      "stateMutability": "view",
      "type": "function",
      "constant": true
    },
    {
      "inputs": [],
      "name": "allPoolsLength",
      "outputs": [
        {
          "internalType": "uint256",
          "name": "_len",
          "type": "uint256"
        }
      ],
      "stateMutability": "view",
      "type": "function",
      "constant": true
    },
    {
      "inputs": [
        {
          "internalType": "address",
          "name": "token0",
          "type": "address"
        },
        {
          "internalType": "address",
          "name": "token1",
          "type": "address"
        },
        {
          "internalType": "uint256",
          "name": "amount0",
          "type": "uint256"
        },
        {
          "internalType": "uint256",
          "name": "amount1",
          "type": "uint256"
        },
        {
          "internalType": "uint256",
          "name": "liquidity",
          "type": "uint256"
        },
        {
          "internalType": "address",
          "name": "to",
          "type": "address"
        }
      ],
      "name": "openPosition",
      "outputs": [
        {
          "internalType": "uint256",
          "name": "tokenId",
          "type": "uint256"
        }
      ],
      "stateMutability": "nonpayable",
      "type": "function"
    },
    {
      "inputs": [
        {
          "internalType": "uint256",
          "name": "tokenId",
          "type": "uint256"
        },
        {
          "internalType": "uint256",
          "name": "amount0",
          "type": "uint256"
        },
        {
          "internalType": "uint256",
          "name": "amount1",
          "type": "uint256"
        }
      ],
      "name": "increaseCollateral",
      "outputs": [
        {
          "internalType": "uint256",
          "name": "token0Amt",
          "type": "uint256"
        },
        {
          "internalType": "uint256",
          "name": "token1Amt",
          "type": "uint256"
        }
      ],
      "stateMutability": "nonpayable",
      "type": "function"
    },
    {
      "inputs": [
        {
          "internalType": "uint256",
          "name": "tokenId",
          "type": "uint256"
        },
        {
          "internalType": "uint256",
          "name": "amount0",
          "type": "uint256"
        },
        {
          "internalType": "uint256",
          "name": "amount1",
          "type": "uint256"
        },
        {
          "internalType": "address",
          "name": "to",
          "type": "address"
        }
      ],
      "name": "decreaseCollateral",
      "outputs": [
        {
          "internalType": "uint256",
          "name": "tokensHeld0",
          "type": "uint256"
        },
        {
          "internalType": "uint256",
          "name": "tokensHeld1",
          "type": "uint256"
        }
      ],
      "stateMutability": "nonpayable",
      "type": "function"
    },
    {
      "inputs": [
        {
          "internalType": "uint256",
          "name": "tokenId",
          "type": "uint256"
        },
        {
          "internalType": "uint256",
          "name": "liquidity",
          "type": "uint256"
        }
      ],
      "name": "decreasePosition",
      "outputs": [],
      "stateMutability": "nonpayable",
      "type": "function"
    },
    {
      "inputs": [
        {
          "internalType": "uint256",
          "name": "tokenId",
          "type": "uint256"
        }
      ],
      "name": "getApproved",
      "outputs": [
        {
          "internalType": "address",
          "name": "",
          "type": "address"
        }
      ],
      "stateMutability": "view",
      "type": "function",
      "constant": true
    },
    {
      "inputs": [
        {
          "internalType": "uint256",
          "name": "tokenId",
          "type": "uint256"
        }
      ],
      "name": "burn",
      "outputs": [],
      "stateMutability": "nonpayable",
      "type": "function"
    }
  ],
  "bytecode": "0x608060405267016345785d8a00006006556001600760006101000a81548175ffffffffffffffffffffffffffffffffffffffffffff021916908375ffffffffffffffffffffffffffffffffffffffffffff1602179055506001600760166101000a81548169ffffffffffffffffffff021916908369ffffffffffffffffffff160217905550670de0b6b3a7640000600e553480156200009d57600080fd5b506040516200629f3803806200629f8339818101604052810190620000c3919062000436565b81818160009080519060200190620000dd92919062000184565b508060019080519060200190620000f692919062000184565b50505033600d60006101000a81548173ffffffffffffffffffffffffffffffffffffffff021916908373ffffffffffffffffffffffffffffffffffffffff16021790555082600b60006101000a81548173ffffffffffffffffffffffffffffffffffffffff021916908373ffffffffffffffffffffffffffffffffffffffff16021790555050505062000534565b8280546200019290620004ff565b90600052602060002090601f016020900481019282620001b6576000855562000202565b82601f10620001d157805160ff191683800117855562000202565b8280016001018555821562000202579182015b8281111562000201578251825591602001919060010190620001e4565b5b50905062000211919062000215565b5090565b5b808211156200023057600081600090555060010162000216565b5090565b6000604051905090565b600080fd5b600080fd5b600073ffffffffffffffffffffffffffffffffffffffff82169050919050565b6000620002758262000248565b9050919050565b620002878162000268565b81146200029357600080fd5b50565b600081519050620002a7816200027c565b92915050565b600080fd5b600080fd5b6000601f19601f8301169050919050565b7f4e487b7100000000000000000000000000000000000000000000000000000000600052604160045260246000fd5b6200030282620002b7565b810181811067ffffffffffffffff82111715620003245762000323620002c8565b5b80604052505050565b60006200033962000234565b9050620003478282620002f7565b919050565b600067ffffffffffffffff8211156200036a5762000369620002c8565b5b6200037582620002b7565b9050602081019050919050565b60005b83811015620003a257808201518184015260208101905062000385565b83811115620003b2576000848401525b50505050565b6000620003cf620003c9846200034c565b6200032d565b905082815260208101848484011115620003ee57620003ed620002b2565b5b620003fb84828562000382565b509392505050565b600082601f8301126200041b576200041a620002ad565b5b81516200042d848260208601620003b8565b91505092915050565b6000806000606084860312156200045257620004516200023e565b5b6000620004628682870162000296565b935050602084015167ffffffffffffffff81111562000486576200048562000243565b5b620004948682870162000403565b925050604084015167ffffffffffffffff811115620004b857620004b762000243565b5b620004c68682870162000403565b9150509250925092565b7f4e487b7100000000000000000000000000000000000000000000000000000000600052602260045260246000fd5b600060028204905060018216806200051857607f821691505b6020821081036200052e576200052d620004d0565b5b50919050565b615d5b80620005446000396000f3fe608060405234801561001057600080fd5b50600436106101da5760003560e01c80635c2d07ff1161010457806395d89b41116100a2578063b88d4fde11610071578063b88d4fde146105e5578063c87b56dd14610601578063e985e9c514610631578063efde4e6414610661576101da565b806395d89b411461055357806399fbab8814610571578063a0e47bf6146105ab578063a22cb465146105c9576101da565b806370a08231116100de57806370a08231146104b7578063893d20e8146104e75780638da5cb5b146105055780639322d5cf14610523576101da565b80635c2d07ff146104275780636352211e146104575780636a5d8e8f14610487576101da565b806331bfa3591161017c57806342966c681161014b57806342966c681461037a578063523fba7f14610396578063531aa03e146103c65780635498e0a1146103f6576101da565b806331bfa359146102e25780633bacfca91461031257806341d1de971461032e57806342842e0e1461035e576101da565b8063095ea7b3116101b8578063095ea7b31461025d5780631aed84361461027957806323b872dd146102aa5780632c23003d146102c6576101da565b806301ffc9a7146101df57806306fdde031461020f578063081812fc1461022d575b600080fd5b6101f960048036038101906101f49190613ef6565b61067f565b6040516102069190613f3e565b60405180910390f35b610217610761565b6040516102249190613ff2565b60405180910390f35b6102476004803603810190610242919061404a565b6107f3565b60405161025491906140b8565b60405180910390f35b610277600480360381019061027291906140ff565b61087b565b005b610293600480360381019061028e919061413f565b610992565b6040516102a19291906141b5565b60405180910390f35b6102c460048036038101906102bf91906141de565b610b45565b005b6102e060048036038101906102db9190614231565b610ba5565b005b6102fc60048036038101906102f79190614284565b610e13565b60405161030991906142b1565b60405180910390f35b61032c600480360381019061032791906142cc565b610e2b565b005b6103486004803603810190610343919061404a565b6111aa565b60405161035591906140b8565b60405180910390f35b610378600480360381019061037391906141de565b6111e9565b005b610394600480360381019061038f919061404a565b611209565b005b6103b060048036038101906103ab9190614284565b6113ff565b6040516103bd91906142b1565b60405180910390f35b6103e060048036038101906103db919061430c565b611448565b6040516103ed91906140b8565b60405180910390f35b610410600480360381019061040b919061434c565b61148a565b60405161041e9291906141b5565b60405180910390f35b610441600480360381019061043c91906140ff565b6115a0565b60405161044e91906142b1565b60405180910390f35b610471600480360381019061046c919061404a565b6115d1565b60405161047e91906140b8565b60405180910390f35b6104a1600480360381019061049c9190614284565b611682565b6040516104ae919061445d565b60405180910390f35b6104d160048036038101906104cc9190614284565b611719565b6040516104de91906142b1565b60405180910390f35b6104ef6117d0565b6040516104fc91906140b8565b60405180910390f35b61050d6117fa565b60405161051a91906140b8565b60405180910390f35b61053d6004803603810190610538919061447f565b611820565b60405161054a91906142b1565b60405180910390f35b61055b611852565b6040516105689190613ff2565b60405180910390f35b61058b6004803603810190610586919061404a565b6118e4565b6040516105a29b9a99989796959493929190614533565b60405180910390f35b6105b3611c08565b6040516105c091906140b8565b60405180910390f35b6105e360048036038101906105de919061460a565b611c2e565b005b6105ff60048036038101906105fa919061477f565b611c44565b005b61061b6004803603810190610616919061404a565b611ca6565b6040516106289190613ff2565b60405180910390f35b61064b6004803603810190610646919061430c565b611d4d565b6040516106589190613f3e565b60405180910390f35b610669611de1565b60405161067691906142b1565b60405180910390f35b60007f80ac58cd000000000000000000000000000000000000000000000000000000007bffffffffffffffffffffffffffffffffffffffffffffffffffffffff1916827bffffffffffffffffffffffffffffffffffffffffffffffffffffffff1916148061074a57507f5b5e139f000000000000000000000000000000000000000000000000000000007bffffffffffffffffffffffffffffffffffffffffffffffffffffffff1916827bffffffffffffffffffffffffffffffffffffffffffffffffffffffff1916145b8061075a575061075982611dee565b5b9050919050565b60606000805461077090614831565b80601f016020809104026020016040519081016040528092919081815260200182805461079c90614831565b80156107e95780601f106107be576101008083540402835291602001916107e9565b820191906000526020600020905b8154815290600101906020018083116107cc57829003601f168201915b5050505050905090565b60006107fe82611e58565b61083d576040517f08c379a0000000000000000000000000000000000000000000000000000000008152600401610834906148d4565b60405180910390fd5b600f6000838152602001908152602001600020600001600c9054906101000a900473ffffffffffffffffffffffffffffffffffffffff169050919050565b6000610886826115d1565b90508073ffffffffffffffffffffffffffffffffffffffff168373ffffffffffffffffffffffffffffffffffffffff16036108f6576040517f08c379a00000000000000000000000000000000000000000000000000000000081526004016108ed90614966565b60405180910390fd5b8073ffffffffffffffffffffffffffffffffffffffff16610915611ec4565b73ffffffffffffffffffffffffffffffffffffffff16148061094457506109438161093e611ec4565b611d4d565b5b610983576040517f08c379a000000000000000000000000000000000000000000000000000000000815260040161097a906149f8565b60405180910390fd5b61098d8383611ecc565b505050565b600080856109a03382611f88565b6109df576040517f08c379a00000000000000000000000000000000000000000000000000000000081526004016109d690614a64565b60405180910390fd5b6000600f60008981526020019081526020016000209050868160050154610a069190614ab3565b8160050181905550858160060154610a1e9190614ab3565b81600601819055506000610a3182612066565b915050600080610a6f8460040160009054906101000a900473ffffffffffffffffffffffffffffffffffffffff1684866005015487600601546120d0565b91509150816103e86102ee83610a859190614ae7565b610a8f9190614b70565b1015610ad0576040517f08c379a0000000000000000000000000000000000000000000000000000000008152600401610ac790614c13565b60405180910390fd5b610aff8460020160009054906101000a900473ffffffffffffffffffffffffffffffffffffffff16898c6121c9565b610b2e8460030160009054906101000a900473ffffffffffffffffffffffffffffffffffffffff16898b6121c9565b610b3784612353565b505050505094509492505050565b610b56610b50611ec4565b82611f88565b610b95576040517f08c379a0000000000000000000000000000000000000000000000000000000008152600401610b8c90614ca5565b60405180910390fd5b610ba0838383612584565b505050565b600d60009054906101000a900473ffffffffffffffffffffffffffffffffffffffff1673ffffffffffffffffffffffffffffffffffffffff163373ffffffffffffffffffffffffffffffffffffffff1614610c35576040517f08c379a0000000000000000000000000000000000000000000000000000000008152600401610c2c90614d11565b60405180910390fd5b80600860008573ffffffffffffffffffffffffffffffffffffffff1673ffffffffffffffffffffffffffffffffffffffff16815260200190815260200160002060008473ffffffffffffffffffffffffffffffffffffffff1673ffffffffffffffffffffffffffffffffffffffff16815260200190815260200160002060006101000a81548173ffffffffffffffffffffffffffffffffffffffff021916908373ffffffffffffffffffffffffffffffffffffffff16021790555080600860008473ffffffffffffffffffffffffffffffffffffffff1673ffffffffffffffffffffffffffffffffffffffff16815260200190815260200160002060008573ffffffffffffffffffffffffffffffffffffffff1673ffffffffffffffffffffffffffffffffffffffff16815260200190815260200160002060006101000a81548173ffffffffffffffffffffffffffffffffffffffff021916908373ffffffffffffffffffffffffffffffffffffffff160217905550600c819080600181540180825580915050600190039060005260206000200160009091909190916101000a81548173ffffffffffffffffffffffffffffffffffffffff021916908373ffffffffffffffffffffffffffffffffffffffff160217905550505050565b600a6020528060005260406000206000915090505481565b81610e363382611f88565b610e75576040517f08c379a0000000000000000000000000000000000000000000000000000000008152600401610e6c90614a64565b60405180910390fd5b6000600f60008581526020019081526020016000209050600080610ee18360020160009054906101000a900473ffffffffffffffffffffffffffffffffffffffff168460030160009054906101000a900473ffffffffffffffffffffffffffffffffffffffff166127ea565b91509150818360050154610ef59190614d31565b8360050181905550808360060154610f0d9190614d31565b83600601819055506000610f2984600501548560060154612980565b905080861115610f6e576040517f08c379a0000000000000000000000000000000000000000000000000000000008152600401610f6590614df9565b60405180910390fd5b610f778461299e565b600080610fb68660040160009054906101000a900473ffffffffffffffffffffffffffffffffffffffff168760070154886005015489600601546120d0565b9150915081811015610ffd576040517f08c379a0000000000000000000000000000000000000000000000000000000008152600401610ff490614e65565b60405180910390fd5b6000888760070154106110105788611016565b86600701545b905061106f8760020160009054906101000a900473ffffffffffffffffffffffffffffffffffffffff168860010160009054906101000a900473ffffffffffffffffffffffffffffffffffffffff1689600501546121c9565b6110c68760030160009054906101000a900473ffffffffffffffffffffffffffffffffffffffff168860010160009054906101000a900473ffffffffffffffffffffffffffffffffffffffff1689600601546121c9565b8660010160009054906101000a900473ffffffffffffffffffffffffffffffffffffffff1673ffffffffffffffffffffffffffffffffffffffff1663a126d601826040518263ffffffff1660e01b815260040161112391906142b1565b60408051808303816000875af1158015611141573d6000803e3d6000fd5b505050506040513d601f19601f820116820180604052508101906111659190614e9a565b8860050160008a600601600084919050558391905055505080876007015461118d9190614ab3565b876007018190555061119e87612353565b50505050505050505050565b600c81815481106111ba57600080fd5b906000526020600020016000915054906101000a900473ffffffffffffffffffffffffffffffffffffffff1681565b61120483838360405180602001604052806000815250611c44565b505050565b806112143382611f88565b611253576040517f08c379a000000000000000000000000000000000000000000000000000000000815260040161124a90614a64565b60405180910390fd5b6000600f6000848152602001908152602001600020905060008160050154148015611282575060008160060154145b8015611292575060008160070154145b6112d1576040517f08c379a00000000000000000000000000000000000000000000000000000000081526004016112c890614f26565b60405180910390fd5b600f6000848152602001908152602001600020600080820160006101000a8154906bffffffffffffffffffffffff021916905560008201600c6101000a81549073ffffffffffffffffffffffffffffffffffffffff02191690556001820160006101000a81549073ffffffffffffffffffffffffffffffffffffffff02191690556002820160006101000a81549073ffffffffffffffffffffffffffffffffffffffff02191690556003820160006101000a81549073ffffffffffffffffffffffffffffffffffffffff02191690556004820160006101000a81549073ffffffffffffffffffffffffffffffffffffffff02191690556005820160009055600682016000905560078201600090556008820160009055600982016000905550506113fa836129c2565b505050565b6000601060008373ffffffffffffffffffffffffffffffffffffffff1673ffffffffffffffffffffffffffffffffffffffff168152602001908152602001600020549050919050565b60086020528160005260406000206020528060005260406000206000915091509054906101000a900473ffffffffffffffffffffffffffffffffffffffff1681565b6000806000600f600087815260200190815260200160002090506114d48160020160009054906101000a900473ffffffffffffffffffffffffffffffffffffffff16333088612adf565b6115048160030160009054906101000a900473ffffffffffffffffffffffffffffffffffffffff16333087612adf565b6115568160020160009054906101000a900473ffffffffffffffffffffffffffffffffffffffff168260030160009054906101000a900473ffffffffffffffffffffffffffffffffffffffff166127ea565b809350819450505082816005015461156e9190614d31565b81600501819055508181600601546115869190614d31565b816006018190555061159781612353565b50935093915050565b600960205281600052604060002081815481106115bc57600080fd5b90600052602060002001600091509150505481565b6000806002600084815260200190815260200160002060009054906101000a900473ffffffffffffffffffffffffffffffffffffffff169050600073ffffffffffffffffffffffffffffffffffffffff168173ffffffffffffffffffffffffffffffffffffffff1603611679576040517f08c379a000000000000000000000000000000000000000000000000000000000815260040161167090614fb8565b60405180910390fd5b80915050919050565b6060600960008373ffffffffffffffffffffffffffffffffffffffff1673ffffffffffffffffffffffffffffffffffffffff16815260200190815260200160002080548060200260200160405190810160405280929190818152602001828054801561170d57602002820191906000526020600020905b8154815260200190600101908083116116f9575b50505050509050919050565b60008073ffffffffffffffffffffffffffffffffffffffff168273ffffffffffffffffffffffffffffffffffffffff1603611789576040517f08c379a00000000000000000000000000000000000000000000000000000000081526004016117809061504a565b60405180910390fd5b600360008373ffffffffffffffffffffffffffffffffffffffff1673ffffffffffffffffffffffffffffffffffffffff168152602001908152602001600020549050919050565b6000600d60009054906101000a900473ffffffffffffffffffffffffffffffffffffffff16905090565b600d60009054906101000a900473ffffffffffffffffffffffffffffffffffffffff1681565b600061182e87333088612adf565b61183a86333087612adf565b61184687878585612c18565b90509695505050505050565b60606001805461186190614831565b80601f016020809104026020016040519081016040528092919081815260200182805461188d90614831565b80156118da5780601f106118af576101008083540402835291602001916118da565b820191906000526020600020905b8154815290600101906020018083116118bd57829003601f168201915b5050505050905090565b600080600080600080600080600080600080600f60008e8152602001908152602001600020604051806101600160405290816000820160009054906101000a90046bffffffffffffffffffffffff166bffffffffffffffffffffffff166bffffffffffffffffffffffff16815260200160008201600c9054906101000a900473ffffffffffffffffffffffffffffffffffffffff1673ffffffffffffffffffffffffffffffffffffffff1673ffffffffffffffffffffffffffffffffffffffff1681526020016001820160009054906101000a900473ffffffffffffffffffffffffffffffffffffffff1673ffffffffffffffffffffffffffffffffffffffff1673ffffffffffffffffffffffffffffffffffffffff1681526020016002820160009054906101000a900473ffffffffffffffffffffffffffffffffffffffff1673ffffffffffffffffffffffffffffffffffffffff1673ffffffffffffffffffffffffffffffffffffffff1681526020016003820160009054906101000a900473ffffffffffffffffffffffffffffffffffffffff1673ffffffffffffffffffffffffffffffffffffffff1673ffffffffffffffffffffffffffffffffffffffff1681526020016004820160009054906101000a900473ffffffffffffffffffffffffffffffffffffffff1673ffffffffffffffffffffffffffffffffffffffff1673ffffffffffffffffffffffffffffffffffffffff168152602001600582015481526020016006820154815260200160078201548152602001600882015481526020016009820154815250509050600073ffffffffffffffffffffffffffffffffffffffff168160a0015173ffffffffffffffffffffffffffffffffffffffff1603611ba8576040517f08c379a0000000000000000000000000000000000000000000000000000000008152600401611b9f906150dc565b60405180910390fd5b806000015181602001518260400151836060015184608001518560c001518660e001518760a001518861010001518961012001518a61014001519b509b509b509b509b509b509b509b509b509b509b505091939597999b90929496989a50565b600b60009054906101000a900473ffffffffffffffffffffffffffffffffffffffff1681565b611c40611c39611ec4565b838361326c565b5050565b611c55611c4f611ec4565b83611f88565b611c94576040517f08c379a0000000000000000000000000000000000000000000000000000000008152600401611c8b90614ca5565b60405180910390fd5b611ca0848484846133d8565b50505050565b6060611cb182611e58565b611cf0576040517f08c379a0000000000000000000000000000000000000000000000000000000008152600401611ce79061516e565b60405180910390fd5b6000611cfa613434565b90506000815111611d1a5760405180602001604052806000815250611d45565b80611d248461344b565b604051602001611d359291906151ca565b6040516020818303038152906040525b915050919050565b6000600560008473ffffffffffffffffffffffffffffffffffffffff1673ffffffffffffffffffffffffffffffffffffffff16815260200190815260200160002060008373ffffffffffffffffffffffffffffffffffffffff1673ffffffffffffffffffffffffffffffffffffffff16815260200190815260200160002060009054906101000a900460ff16905092915050565b6000600c80549050905090565b60007f01ffc9a7000000000000000000000000000000000000000000000000000000007bffffffffffffffffffffffffffffffffffffffffffffffffffffffff1916827bffffffffffffffffffffffffffffffffffffffffffffffffffffffff1916149050919050565b60008073ffffffffffffffffffffffffffffffffffffffff166002600084815260200190815260200160002060009054906101000a900473ffffffffffffffffffffffffffffffffffffffff1673ffffffffffffffffffffffffffffffffffffffff1614159050919050565b600033905090565b81600f6000838152602001908152602001600020600001600c6101000a81548173ffffffffffffffffffffffffffffffffffffffff021916908373ffffffffffffffffffffffffffffffffffffffff160217905550808273ffffffffffffffffffffffffffffffffffffffff16611f42836115d1565b73ffffffffffffffffffffffffffffffffffffffff167f8c5be1e5ebec7d5bd14f71427d1e84f3dd0314c0f7b2291e5b200ac8c7c3b92560405160405180910390a45050565b6000611f9382611e58565b611fd2576040517f08c379a0000000000000000000000000000000000000000000000000000000008152600401611fc990615260565b60405180910390fd5b6000611fdd836115d1565b90508073ffffffffffffffffffffffffffffffffffffffff168473ffffffffffffffffffffffffffffffffffffffff16148061201f575061201e8185611d4d565b5b8061205d57508373ffffffffffffffffffffffffffffffffffffffff16612045846107f3565b73ffffffffffffffffffffffffffffffffffffffff16145b91505092915050565b600080600061209d8460010160009054906101000a900473ffffffffffffffffffffffffffffffffffffffff1685600801546135ab565b8092508194505050670de0b6b3a76400008185600701546120be9190614ae7565b6120c89190614b70565b915050915091565b6000806000808773ffffffffffffffffffffffffffffffffffffffff16630902f1ac6040518163ffffffff1660e01b8152600401606060405180830381865afa158015612121573d6000803e3d6000fd5b505050506040513d601f19601f820116820180604052508101906121459190615302565b506dffffffffffffffffffffffffffff1691506dffffffffffffffffffffffffffff169150600082670de0b6b3a7640000836121819190614ae7565b61218b9190614b70565b9050612197888261364f565b94508282886121a69190614ae7565b6121b09190614b70565b866121bb9190614d31565b935050505094509492505050565b6000808473ffffffffffffffffffffffffffffffffffffffff166040518060400160405280601981526020017f7472616e7366657228616464726573732c75696e743235362900000000000000815250805190602001208585604051602401612233929190615355565b604051602081830303815290604052907bffffffffffffffffffffffffffffffffffffffffffffffffffffffff19166020820180517bffffffffffffffffffffffffffffffffffffffffffffffffffffffff838183161783525050505060405161229d91906153c5565b6000604051808303816000865af19150503d80600081146122da576040519150601f19603f3d011682016040523d82523d6000602084013e6122df565b606091505b509150915081801561230d575060008151148061230c57508080602001905181019061230b91906153f1565b5b5b61234c576040517f08c379a00000000000000000000000000000000000000000000000000000000081526004016123439061546a565b60405180910390fd5b5050505050565b6123a68160020160009054906101000a900473ffffffffffffffffffffffffffffffffffffffff168260030160009054906101000a900473ffffffffffffffffffffffffffffffffffffffff163061368c565b601060008460020160009054906101000a900473ffffffffffffffffffffffffffffffffffffffff1673ffffffffffffffffffffffffffffffffffffffff1673ffffffffffffffffffffffffffffffffffffffff1681526020019081526020016000206000601060008660030160009054906101000a900473ffffffffffffffffffffffffffffffffffffffff1673ffffffffffffffffffffffffffffffffffffffff1673ffffffffffffffffffffffffffffffffffffffff16815260200190815260200160002060008491905055839190505550508060040160009054906101000a900473ffffffffffffffffffffffffffffffffffffffff1673ffffffffffffffffffffffffffffffffffffffff166370a08231306040518263ffffffff1660e01b81526004016124d991906140b8565b602060405180830381865afa1580156124f6573d6000803e3d6000fd5b505050506040513d601f19601f8201168201806040525081019061251a919061548a565b601060008360040160009054906101000a900473ffffffffffffffffffffffffffffffffffffffff1673ffffffffffffffffffffffffffffffffffffffff1673ffffffffffffffffffffffffffffffffffffffff1681526020019081526020016000208190555050565b8273ffffffffffffffffffffffffffffffffffffffff166125a4826115d1565b73ffffffffffffffffffffffffffffffffffffffff16146125fa576040517f08c379a00000000000000000000000000000000000000000000000000000000081526004016125f190615529565b60405180910390fd5b600073ffffffffffffffffffffffffffffffffffffffff168273ffffffffffffffffffffffffffffffffffffffff1603612669576040517f08c379a0000000000000000000000000000000000000000000000000000000008152600401612660906155bb565b60405180910390fd5b61267483838361378f565b61267f600082611ecc565b6001600360008573ffffffffffffffffffffffffffffffffffffffff1673ffffffffffffffffffffffffffffffffffffffff16815260200190815260200160002060008282546126cf9190614ab3565b925050819055506001600360008473ffffffffffffffffffffffffffffffffffffffff1673ffffffffffffffffffffffffffffffffffffffff16815260200190815260200160002060008282546127269190614d31565b92505081905550816002600083815260200190815260200160002060006101000a81548173ffffffffffffffffffffffffffffffffffffffff021916908373ffffffffffffffffffffffffffffffffffffffff160217905550808273ffffffffffffffffffffffffffffffffffffffff168473ffffffffffffffffffffffffffffffffffffffff167fddf252ad1be2c89b69c2b068fc378daa952ba7f163c4a11628f55a4df523b3ef60405160405180910390a46127e5838383613794565b505050565b600080601060008573ffffffffffffffffffffffffffffffffffffffff1673ffffffffffffffffffffffffffffffffffffffff168152602001908152602001600020548473ffffffffffffffffffffffffffffffffffffffff166370a08231306040518263ffffffff1660e01b815260040161286691906140b8565b602060405180830381865afa158015612883573d6000803e3d6000fd5b505050506040513d601f19601f820116820180604052508101906128a7919061548a565b6128b19190614ab3565b9150601060008473ffffffffffffffffffffffffffffffffffffffff1673ffffffffffffffffffffffffffffffffffffffff168152602001908152602001600020548373ffffffffffffffffffffffffffffffffffffffff166370a08231306040518263ffffffff1660e01b815260040161292c91906140b8565b602060405180830381865afa158015612949573d6000803e3d6000fd5b505050506040513d601f19601f8201168201806040525081019061296d919061548a565b6129779190614ab3565b90509250929050565b600061299682846129919190614ae7565b613799565b905092915050565b6129a781612066565b82600801600084600701600084919050558391905055505050565b60006129cd826115d1565b90506129db8160008461378f565b6129e6600083611ecc565b6001600360008373ffffffffffffffffffffffffffffffffffffffff1673ffffffffffffffffffffffffffffffffffffffff1681526020019081526020016000206000828254612a369190614ab3565b925050819055506002600083815260200190815260200160002060006101000a81549073ffffffffffffffffffffffffffffffffffffffff021916905581600073ffffffffffffffffffffffffffffffffffffffff168273ffffffffffffffffffffffffffffffffffffffff167fddf252ad1be2c89b69c2b068fc378daa952ba7f163c4a11628f55a4df523b3ef60405160405180910390a4612adb81600084613794565b5050565b6000808573ffffffffffffffffffffffffffffffffffffffff166323b872dd868686604051602401612b13939291906155db565b6040516020818303038152906040529060e01b6020820180517bffffffffffffffffffffffffffffffffffffffffffffffffffffffff8381831617835250505050604051612b6191906153c5565b6000604051808303816000865af19150503d8060008114612b9e576040519150601f19603f3d011682016040523d82523d6000602084013e612ba3565b606091505b5091509150818015612bd15750600081511480612bd0575080806020019051810190612bcf91906153f1565b5b5b612c10576040517f08c379a0000000000000000000000000000000000000000000000000000000008152600401612c0790615684565b60405180910390fd5b505050505050565b6000806000612c278787613813565b915091506000600860008473ffffffffffffffffffffffffffffffffffffffff1673ffffffffffffffffffffffffffffffffffffffff16815260200190815260200160002060008373ffffffffffffffffffffffffffffffffffffffff1673ffffffffffffffffffffffffffffffffffffffff16815260200190815260200160002060009054906101000a900473ffffffffffffffffffffffffffffffffffffffff169050600073ffffffffffffffffffffffffffffffffffffffff168173ffffffffffffffffffffffffffffffffffffffff1603612d3b576040517f08c379a0000000000000000000000000000000000000000000000000000000008152600401612d32906156f0565b60405180910390fd5b60008173ffffffffffffffffffffffffffffffffffffffff166348c8ec726040518163ffffffff1660e01b8152600401602060405180830381865afa158015612d88573d6000803e3d6000fd5b505050506040513d601f19601f82011682018060405250810190612dac9190615725565b9050600080612dbb86866127ea565b9150915060008473ffffffffffffffffffffffffffffffffffffffff16631d6f0ce26040518163ffffffff1660e01b81526004016020604051808303816000875af1158015612e0e573d6000803e3d6000fd5b505050506040513d601f19601f82011682018060405250810190612e32919061548a565b90506000808673ffffffffffffffffffffffffffffffffffffffff166399ff82038d6040518263ffffffff1660e01b8152600401612e7091906142b1565b60408051808303816000875af1158015612e8e573d6000803e3d6000fd5b505050506040513d601f19601f82011682018060405250810190612eb29190614e9a565b915091506000612ec28383612980565b9050612f5e8c6007600081819054906101000a900475ffffffffffffffffffffffffffffffffffffffffffff1680929190612efc90615774565b91906101000a81548175ffffffffffffffffffffffffffffffffffffffffffff021916908375ffffffffffffffffffffffffffffffffffffffffffff16021790555075ffffffffffffffffffffffffffffffffffffffffffff169c508c61393f565b60405180610160016040528060006bffffffffffffffffffffffff168152602001600073ffffffffffffffffffffffffffffffffffffffff1681526020018973ffffffffffffffffffffffffffffffffffffffff1681526020018b73ffffffffffffffffffffffffffffffffffffffff1681526020018a73ffffffffffffffffffffffffffffffffffffffff1681526020018873ffffffffffffffffffffffffffffffffffffffff16815260200187856130189190614d31565b815260200186846130299190614d31565b815260200182815260200185815260200143815250600f60008d815260200190815260200160002060008201518160000160006101000a8154816bffffffffffffffffffffffff02191690836bffffffffffffffffffffffff160217905550602082015181600001600c6101000a81548173ffffffffffffffffffffffffffffffffffffffff021916908373ffffffffffffffffffffffffffffffffffffffff16021790555060408201518160010160006101000a81548173ffffffffffffffffffffffffffffffffffffffff021916908373ffffffffffffffffffffffffffffffffffffffff16021790555060608201518160020160006101000a81548173ffffffffffffffffffffffffffffffffffffffff021916908373ffffffffffffffffffffffffffffffffffffffff16021790555060808201518160030160006101000a81548173ffffffffffffffffffffffffffffffffffffffff021916908373ffffffffffffffffffffffffffffffffffffffff16021790555060a08201518160040160006101000a81548173ffffffffffffffffffffffffffffffffffffffff021916908373ffffffffffffffffffffffffffffffffffffffff16021790555060c0820151816005015560e082015181600601556101008201518160070155610120820151816008015561014082015181600901559050506000600f60008d81526020019081526020016000209050613246816102ee613b18565b61324f81612353565b6132598d8d613bcb565b5050505050505050505050949350505050565b8173ffffffffffffffffffffffffffffffffffffffff168373ffffffffffffffffffffffffffffffffffffffff16036132da576040517f08c379a00000000000000000000000000000000000000000000000000000000081526004016132d1906157fe565b60405180910390fd5b80600560008573ffffffffffffffffffffffffffffffffffffffff1673ffffffffffffffffffffffffffffffffffffffff16815260200190815260200160002060008473ffffffffffffffffffffffffffffffffffffffff1673ffffffffffffffffffffffffffffffffffffffff16815260200190815260200160002060006101000a81548160ff0219169083151502179055508173ffffffffffffffffffffffffffffffffffffffff168373ffffffffffffffffffffffffffffffffffffffff167f17307eab39ab6107e8899845ad3d59bd9653f200f220920489ca2b5937696c31836040516133cb9190613f3e565b60405180910390a3505050565b6133e3848484612584565b6133ef84848484613cbb565b61342e576040517f08c379a000000000000000000000000000000000000000000000000000000000815260040161342590615890565b60405180910390fd5b50505050565b606060405180602001604052806000815250905090565b606060008203613492576040518060400160405280600181526020017f300000000000000000000000000000000000000000000000000000000000000081525090506135a6565b600082905060005b600082146134c45780806134ad906158b0565b915050600a826134bd9190614b70565b915061349a565b60008167ffffffffffffffff8111156134e0576134df614654565b5b6040519080825280601f01601f1916602001820160405280156135125781602001600182028036833780820191505090505b5090505b6000851461359f5760018261352b9190614ab3565b9150600a8561353a91906158f8565b60306135469190614d31565b60f81b81838151811061355c5761355b615929565b5b60200101907effffffffffffffffffffffffffffffffffffffffffffffffffffffffffffff1916908160001a905350600a856135989190614b70565b9450613516565b8093505050505b919050565b6000808373ffffffffffffffffffffffffffffffffffffffff1663412ba55f6040518163ffffffff1660e01b8152600401608060405180830381865afa1580156135f9573d6000803e3d6000fd5b505050506040513d601f19601f8201168201806040525081019061361d9190615958565b9091509050508092505082670de0b6b3a76400008361363c9190614ae7565b6136469190614b70565b90509250929050565b60006002670de0b6b3a764000061366584613e42565b856136709190614ae7565b61367a9190614b70565b6136849190614ae7565b905092915050565b6000808473ffffffffffffffffffffffffffffffffffffffff166370a08231846040518263ffffffff1660e01b81526004016136c891906140b8565b602060405180830381865afa1580156136e5573d6000803e3d6000fd5b505050506040513d601f19601f82011682018060405250810190613709919061548a565b91508373ffffffffffffffffffffffffffffffffffffffff166370a08231846040518263ffffffff1660e01b815260040161374491906140b8565b602060405180830381865afa158015613761573d6000803e3d6000fd5b505050506040513d601f19601f82011682018060405250810190613785919061548a565b9050935093915050565b505050565b505050565b6000600382111561380057819050600060016002846137b89190614b70565b6137c29190614d31565b90505b818110156137fa5780915060028182856137df9190614b70565b6137e99190614d31565b6137f39190614b70565b90506137c5565b5061380e565b6000821461380d57600190505b5b919050565b6000808273ffffffffffffffffffffffffffffffffffffffff168473ffffffffffffffffffffffffffffffffffffffff1603613884576040517f08c379a000000000000000000000000000000000000000000000000000000000815260040161387b90615a31565b60405180910390fd5b8273ffffffffffffffffffffffffffffffffffffffff168473ffffffffffffffffffffffffffffffffffffffff16106138be5782846138c1565b83835b8092508193505050600073ffffffffffffffffffffffffffffffffffffffff168273ffffffffffffffffffffffffffffffffffffffff1603613938576040517f08c379a000000000000000000000000000000000000000000000000000000000815260040161392f90615ac3565b60405180910390fd5b9250929050565b600073ffffffffffffffffffffffffffffffffffffffff168273ffffffffffffffffffffffffffffffffffffffff16036139ae576040517f08c379a00000000000000000000000000000000000000000000000000000000081526004016139a590615b2f565b60405180910390fd5b6139b781611e58565b156139f7576040517f08c379a00000000000000000000000000000000000000000000000000000000081526004016139ee90615b9b565b60405180910390fd5b613a036000838361378f565b6001600360008473ffffffffffffffffffffffffffffffffffffffff1673ffffffffffffffffffffffffffffffffffffffff1681526020019081526020016000206000828254613a539190614d31565b92505081905550816002600083815260200190815260200160002060006101000a81548173ffffffffffffffffffffffffffffffffffffffff021916908373ffffffffffffffffffffffffffffffffffffffff160217905550808273ffffffffffffffffffffffffffffffffffffffff16600073ffffffffffffffffffffffffffffffffffffffff167fddf252ad1be2c89b69c2b068fc378daa952ba7f163c4a11628f55a4df523b3ef60405160405180910390a4613b1460008383613794565b5050565b6000613b2383612066565b915050600080613b618560040160009054906101000a900473ffffffffffffffffffffffffffffffffffffffff1684876005015488600601546120d0565b91509150816103e88561ffff1683613b799190614ae7565b613b839190614b70565b1015613bc4576040517f08c379a0000000000000000000000000000000000000000000000000000000008152600401613bbb90615c2d565b60405180910390fd5b5050505050565b600960008373ffffffffffffffffffffffffffffffffffffffff1673ffffffffffffffffffffffffffffffffffffffff168152602001908152602001600020819080600181540180825580915050600190039060005260206000200160009091909190915055600960008373ffffffffffffffffffffffffffffffffffffffff1673ffffffffffffffffffffffffffffffffffffffff16815260200190815260200160002080549050600a60008473ffffffffffffffffffffffffffffffffffffffff1673ffffffffffffffffffffffffffffffffffffffff168152602001908152602001600020819055505050565b6000613cdc8473ffffffffffffffffffffffffffffffffffffffff16613e67565b15613e35578373ffffffffffffffffffffffffffffffffffffffff1663150b7a02613d05611ec4565b8786866040518563ffffffff1660e01b8152600401613d279493929190615c97565b6020604051808303816000875af1925050508015613d6357506040513d601f19601f82011682018060405250810190613d609190615cf8565b60015b613de5573d8060008114613d93576040519150601f19603f3d011682016040523d82523d6000602084013e613d98565b606091505b506000815103613ddd576040517f08c379a0000000000000000000000000000000000000000000000000000000008152600401613dd490615890565b60405180910390fd5b805181602001fd5b63150b7a0260e01b7bffffffffffffffffffffffffffffffffffffffffffffffffffffffff1916817bffffffffffffffffffffffffffffffffffffffffffffffffffffffff191614915050613e3a565b600190505b949350505050565b6000613e60670de0b6b3a764000083613e5b9190614ae7565b613799565b9050919050565b6000808273ffffffffffffffffffffffffffffffffffffffff163b119050919050565b6000604051905090565b600080fd5b600080fd5b60007fffffffff0000000000000000000000000000000000000000000000000000000082169050919050565b613ed381613e9e565b8114613ede57600080fd5b50565b600081359050613ef081613eca565b92915050565b600060208284031215613f0c57613f0b613e94565b5b6000613f1a84828501613ee1565b91505092915050565b60008115159050919050565b613f3881613f23565b82525050565b6000602082019050613f536000830184613f2f565b92915050565b600081519050919050565b600082825260208201905092915050565b60005b83811015613f93578082015181840152602081019050613f78565b83811115613fa2576000848401525b50505050565b6000601f19601f8301169050919050565b6000613fc482613f59565b613fce8185613f64565b9350613fde818560208601613f75565b613fe781613fa8565b840191505092915050565b6000602082019050818103600083015261400c8184613fb9565b905092915050565b6000819050919050565b61402781614014565b811461403257600080fd5b50565b6000813590506140448161401e565b92915050565b6000602082840312156140605761405f613e94565b5b600061406e84828501614035565b91505092915050565b600073ffffffffffffffffffffffffffffffffffffffff82169050919050565b60006140a282614077565b9050919050565b6140b281614097565b82525050565b60006020820190506140cd60008301846140a9565b92915050565b6140dc81614097565b81146140e757600080fd5b50565b6000813590506140f9816140d3565b92915050565b6000806040838503121561411657614115613e94565b5b6000614124858286016140ea565b925050602061413585828601614035565b9150509250929050565b6000806000806080858703121561415957614158613e94565b5b600061416787828801614035565b945050602061417887828801614035565b935050604061418987828801614035565b925050606061419a878288016140ea565b91505092959194509250565b6141af81614014565b82525050565b60006040820190506141ca60008301856141a6565b6141d760208301846141a6565b9392505050565b6000806000606084860312156141f7576141f6613e94565b5b6000614205868287016140ea565b9350506020614216868287016140ea565b925050604061422786828701614035565b9150509250925092565b60008060006060848603121561424a57614249613e94565b5b6000614258868287016140ea565b9350506020614269868287016140ea565b925050604061427a868287016140ea565b9150509250925092565b60006020828403121561429a57614299613e94565b5b60006142a8848285016140ea565b91505092915050565b60006020820190506142c660008301846141a6565b92915050565b600080604083850312156142e3576142e2613e94565b5b60006142f185828601614035565b925050602061430285828601614035565b9150509250929050565b6000806040838503121561432357614322613e94565b5b6000614331858286016140ea565b9250506020614342858286016140ea565b9150509250929050565b60008060006060848603121561436557614364613e94565b5b600061437386828701614035565b935050602061438486828701614035565b925050604061439586828701614035565b9150509250925092565b600081519050919050565b600082825260208201905092915050565b6000819050602082019050919050565b6143d481614014565b82525050565b60006143e683836143cb565b60208301905092915050565b6000602082019050919050565b600061440a8261439f565b61441481856143aa565b935061441f836143bb565b8060005b8381101561445057815161443788826143da565b9750614442836143f2565b925050600181019050614423565b5085935050505092915050565b6000602082019050818103600083015261447781846143ff565b905092915050565b60008060008060008060c0878903121561449c5761449b613e94565b5b60006144aa89828a016140ea565b96505060206144bb89828a016140ea565b95505060406144cc89828a01614035565b94505060606144dd89828a01614035565b93505060806144ee89828a01614035565b92505060a06144ff89828a016140ea565b9150509295509295509295565b60006bffffffffffffffffffffffff82169050919050565b61452d8161450c565b82525050565b600061016082019050614549600083018e614524565b614556602083018d6140a9565b614563604083018c6140a9565b614570606083018b6140a9565b61457d608083018a6140a9565b61458a60a08301896141a6565b61459760c08301886141a6565b6145a460e08301876140a9565b6145b26101008301866141a6565b6145c06101208301856141a6565b6145ce6101408301846141a6565b9c9b505050505050505050505050565b6145e781613f23565b81146145f257600080fd5b50565b600081359050614604816145de565b92915050565b6000806040838503121561462157614620613e94565b5b600061462f858286016140ea565b9250506020614640858286016145f5565b9150509250929050565b600080fd5b600080fd5b7f4e487b7100000000000000000000000000000000000000000000000000000000600052604160045260246000fd5b61468c82613fa8565b810181811067ffffffffffffffff821117156146ab576146aa614654565b5b80604052505050565b60006146be613e8a565b90506146ca8282614683565b919050565b600067ffffffffffffffff8211156146ea576146e9614654565b5b6146f382613fa8565b9050602081019050919050565b82818337600083830152505050565b600061472261471d846146cf565b6146b4565b90508281526020810184848401111561473e5761473d61464f565b5b614749848285614700565b509392505050565b600082601f8301126147665761476561464a565b5b813561477684826020860161470f565b91505092915050565b6000806000806080858703121561479957614798613e94565b5b60006147a7878288016140ea565b94505060206147b8878288016140ea565b93505060406147c987828801614035565b925050606085013567ffffffffffffffff8111156147ea576147e9613e99565b5b6147f687828801614751565b91505092959194509250565b7f4e487b7100000000000000000000000000000000000000000000000000000000600052602260045260246000fd5b6000600282049050600182168061484957607f821691505b60208210810361485c5761485b614802565b5b50919050565b7f4552433732313a20617070726f76656420717565727920666f72206e6f6e657860008201527f697374656e7420746f6b656e0000000000000000000000000000000000000000602082015250565b60006148be602c83613f64565b91506148c982614862565b604082019050919050565b600060208201905081810360008301526148ed816148b1565b9050919050565b7f4552433732313a20617070726f76616c20746f2063757272656e74206f776e6560008201527f7200000000000000000000000000000000000000000000000000000000000000602082015250565b6000614950602183613f64565b915061495b826148f4565b604082019050919050565b6000602082019050818103600083015261497f81614943565b9050919050565b7f4552433732313a20617070726f76652063616c6c6572206973206e6f74206f7760008201527f6e6572206e6f7220617070726f76656420666f7220616c6c0000000000000000602082015250565b60006149e2603883613f64565b91506149ed82614986565b604082019050919050565b60006020820190508181036000830152614a11816149d5565b9050919050565b7f506f736974696f6e4d616e616765723a204e4f545f415554484f52495a454400600082015250565b6000614a4e601f83613f64565b9150614a5982614a18565b602082019050919050565b60006020820190508181036000830152614a7d81614a41565b9050919050565b7f4e487b7100000000000000000000000000000000000000000000000000000000600052601160045260246000fd5b6000614abe82614014565b9150614ac983614014565b925082821015614adc57614adb614a84565b5b828203905092915050565b6000614af282614014565b9150614afd83614014565b9250817fffffffffffffffffffffffffffffffffffffffffffffffffffffffffffffffff0483118215151615614b3657614b35614a84565b5b828202905092915050565b7f4e487b7100000000000000000000000000000000000000000000000000000000600052601260045260246000fd5b6000614b7b82614014565b9150614b8683614014565b925082614b9657614b95614b41565b5b828204905092915050565b7f506f736974696f6e4d616e616765723a204558434553534956455f434f4c4c4160008201527f544552414c5f52454d4f56414c00000000000000000000000000000000000000602082015250565b6000614bfd602d83613f64565b9150614c0882614ba1565b604082019050919050565b60006020820190508181036000830152614c2c81614bf0565b9050919050565b7f4552433732313a207472616e736665722063616c6c6572206973206e6f74206f60008201527f776e6572206e6f7220617070726f766564000000000000000000000000000000602082015250565b6000614c8f603183613f64565b9150614c9a82614c33565b604082019050919050565b60006020820190508181036000830152614cbe81614c82565b9050919050565b7f506f736974696f6e4d616e616765723a20464f5242494444454e000000000000600082015250565b6000614cfb601a83613f64565b9150614d0682614cc5565b602082019050919050565b60006020820190508181036000830152614d2a81614cee565b9050919050565b6000614d3c82614014565b9150614d4783614014565b9250827fffffffffffffffffffffffffffffffffffffffffffffffffffffffffffffffff03821115614d7c57614d7b614a84565b5b828201905092915050565b7f506f736974696f6e4d616e616765723a204e4f545f454e4f5547485f4c49515560008201527f49444954595f50524f5649444544000000000000000000000000000000000000602082015250565b6000614de3602e83613f64565b9150614dee82614d87565b604082019050919050565b60006020820190508181036000830152614e1281614dd6565b9050919050565b7f506f736974696f6e4d616e616765723a2049535f554e44455257415445520000600082015250565b6000614e4f601e83613f64565b9150614e5a82614e19565b602082019050919050565b60006020820190508181036000830152614e7e81614e42565b9050919050565b600081519050614e948161401e565b92915050565b60008060408385031215614eb157614eb0613e94565b5b6000614ebf85828601614e85565b9250506020614ed085828601614e85565b9150509250929050565b7f506f736974696f6e4d616e616765723a204e4f545f434c454152454400000000600082015250565b6000614f10601c83613f64565b9150614f1b82614eda565b602082019050919050565b60006020820190508181036000830152614f3f81614f03565b9050919050565b7f4552433732313a206f776e657220717565727920666f72206e6f6e657869737460008201527f656e7420746f6b656e0000000000000000000000000000000000000000000000602082015250565b6000614fa2602983613f64565b9150614fad82614f46565b604082019050919050565b60006020820190508181036000830152614fd181614f95565b9050919050565b7f4552433732313a2062616c616e636520717565727920666f7220746865207a6560008201527f726f206164647265737300000000000000000000000000000000000000000000602082015250565b6000615034602a83613f64565b915061503f82614fd8565b604082019050919050565b6000602082019050818103600083015261506381615027565b9050919050565b7f506f736974696f6e4d616e616765723a20494e56414c49445f544f4b454e5f4960008201527f4400000000000000000000000000000000000000000000000000000000000000602082015250565b60006150c6602183613f64565b91506150d18261506a565b604082019050919050565b600060208201905081810360008301526150f5816150b9565b9050919050565b7f4552433732314d657461646174613a2055524920717565727920666f72206e6f60008201527f6e6578697374656e7420746f6b656e0000000000000000000000000000000000602082015250565b6000615158602f83613f64565b9150615163826150fc565b604082019050919050565b600060208201905081810360008301526151878161514b565b9050919050565b600081905092915050565b60006151a482613f59565b6151ae818561518e565b93506151be818560208601613f75565b80840191505092915050565b60006151d68285615199565b91506151e28284615199565b91508190509392505050565b7f4552433732313a206f70657261746f7220717565727920666f72206e6f6e657860008201527f697374656e7420746f6b656e0000000000000000000000000000000000000000602082015250565b600061524a602c83613f64565b9150615255826151ee565b604082019050919050565b600060208201905081810360008301526152798161523d565b9050919050565b60006dffffffffffffffffffffffffffff82169050919050565b6152a381615280565b81146152ae57600080fd5b50565b6000815190506152c08161529a565b92915050565b600063ffffffff82169050919050565b6152df816152c6565b81146152ea57600080fd5b50565b6000815190506152fc816152d6565b92915050565b60008060006060848603121561531b5761531a613e94565b5b6000615329868287016152b1565b935050602061533a868287016152b1565b925050604061534b868287016152ed565b9150509250925092565b600060408201905061536a60008301856140a9565b61537760208301846141a6565b9392505050565b600081519050919050565b600081905092915050565b600061539f8261537e565b6153a98185615389565b93506153b9818560208601613f75565b80840191505092915050565b60006153d18284615394565b915081905092915050565b6000815190506153eb816145de565b92915050565b60006020828403121561540757615406613e94565b5b6000615415848285016153dc565b91505092915050565b7f4465706f736974506f6f6c3a205452414e534645525f4641494c454400000000600082015250565b6000615454601c83613f64565b915061545f8261541e565b602082019050919050565b6000602082019050818103600083015261548381615447565b9050919050565b6000602082840312156154a05761549f613e94565b5b60006154ae84828501614e85565b91505092915050565b7f4552433732313a207472616e736665722066726f6d20696e636f72726563742060008201527f6f776e6572000000000000000000000000000000000000000000000000000000602082015250565b6000615513602583613f64565b915061551e826154b7565b604082019050919050565b6000602082019050818103600083015261554281615506565b9050919050565b7f4552433732313a207472616e7366657220746f20746865207a65726f2061646460008201527f7265737300000000000000000000000000000000000000000000000000000000602082015250565b60006155a5602483613f64565b91506155b082615549565b604082019050919050565b600060208201905081810360008301526155d481615598565b9050919050565b60006060820190506155f060008301866140a9565b6155fd60208301856140a9565b61560a60408301846141a6565b949350505050565b7f5472616e7366657248656c7065723a205452414e534645525f46524f4d5f464160008201527f494c454400000000000000000000000000000000000000000000000000000000602082015250565b600061566e602483613f64565b915061567982615612565b604082019050919050565b6000602082019050818103600083015261569d81615661565b9050919050565b7f506f736974696f6e4d616e616765723a20504f4f4c5f4e4f545f464f554e4400600082015250565b60006156da601f83613f64565b91506156e5826156a4565b602082019050919050565b60006020820190508181036000830152615709816156cd565b9050919050565b60008151905061571f816140d3565b92915050565b60006020828403121561573b5761573a613e94565b5b600061574984828501615710565b91505092915050565b600075ffffffffffffffffffffffffffffffffffffffffffff82169050919050565b600061577f82615752565b915075ffffffffffffffffffffffffffffffffffffffffffff82036157a7576157a6614a84565b5b600182019050919050565b7f4552433732313a20617070726f766520746f2063616c6c657200000000000000600082015250565b60006157e8601983613f64565b91506157f3826157b2565b602082019050919050565b60006020820190508181036000830152615817816157db565b9050919050565b7f4552433732313a207472616e7366657220746f206e6f6e20455243373231526560008201527f63656976657220696d706c656d656e7465720000000000000000000000000000602082015250565b600061587a603283613f64565b91506158858261581e565b604082019050919050565b600060208201905081810360008301526158a98161586d565b9050919050565b60006158bb82614014565b91507fffffffffffffffffffffffffffffffffffffffffffffffffffffffffffffffff82036158ed576158ec614a84565b5b600182019050919050565b600061590382614014565b915061590e83614014565b92508261591e5761591d614b41565b5b828206905092915050565b7f4e487b7100000000000000000000000000000000000000000000000000000000600052603260045260246000fd5b6000806000806080858703121561597257615971613e94565b5b600061598087828801614e85565b945050602061599187828801614e85565b93505060406159a287828801614e85565b92505060606159b387828801614e85565b91505092959194509250565b7f47616d6d6173776170506f734c6962726172793a204944454e544943414c5f4160008201527f4444524553534553000000000000000000000000000000000000000000000000602082015250565b6000615a1b602883613f64565b9150615a26826159bf565b604082019050919050565b60006020820190508181036000830152615a4a81615a0e565b9050919050565b7f47616d6d6173776170506f734c6962726172793a205a45524f5f41444452455360008201527f5300000000000000000000000000000000000000000000000000000000000000602082015250565b6000615aad602183613f64565b9150615ab882615a51565b604082019050919050565b60006020820190508181036000830152615adc81615aa0565b9050919050565b7f4552433732313a206d696e7420746f20746865207a65726f2061646472657373600082015250565b6000615b19602083613f64565b9150615b2482615ae3565b602082019050919050565b60006020820190508181036000830152615b4881615b0c565b9050919050565b7f4552433732313a20746f6b656e20616c7265616479206d696e74656400000000600082015250565b6000615b85601c83613f64565b9150615b9082615b4f565b602082019050919050565b60006020820190508181036000830152615bb481615b78565b9050919050565b7f47616d6d6173776170506f734c6962726172793a20494e53554646494349454e60008201527f545f434f4c4c41544552414c5f4445504f534954454400000000000000000000602082015250565b6000615c17603683613f64565b9150615c2282615bbb565b604082019050919050565b60006020820190508181036000830152615c4681615c0a565b9050919050565b600082825260208201905092915050565b6000615c698261537e565b615c738185615c4d565b9350615c83818560208601613f75565b615c8c81613fa8565b840191505092915050565b6000608082019050615cac60008301876140a9565b615cb960208301866140a9565b615cc660408301856141a6565b8181036060830152615cd88184615c5e565b905095945050505050565b600081519050615cf281613eca565b92915050565b600060208284031215615d0e57615d0d613e94565b5b6000615d1c84828501615ce3565b9150509291505056fea26469706673582212208a5540fffff3b825fe6c839e360d6d3733d25ece52cda11d6d58dc249dfd53a564736f6c634300080e0033",
  "immutableReferences": {},
  "source": "// SPDX-License-Identifier: GNU GPL v3\npragma solidity ^0.8.0;\n\nimport '@openzeppelin/contracts/token/ERC721/ERC721.sol';\nimport '@uniswap/lib/contracts/libraries/TransferHelper.sol';\nimport '@uniswap/v2-periphery/contracts/interfaces/IUniswapV2Router02.sol';\n\nimport './libraries/GammaswapPosLibrary.sol';\nimport './interfaces/IPositionManager.sol';\n\ncontract PositionManager is IPositionManager, ERC721 {\n\n    uint256 MAX_SLIPPAGE = 10**17;//10%\n\n    bytes4 private constant SELECTOR = bytes4(keccak256(bytes('transfer(address,uint256)')));\n    /// @dev IDs of pools assigned by this contract\n    //mapping(address => uint80) private _poolIds;\n\n    /// @dev Pool keys by pool ID, to save on SSTOREs for position data\n    //mapping(uint80 => PoolAddress.PoolKey) private _poolIdToPoolKey;\n\n    /// @dev The ID of the next token that will be minted. Skips 0\n    uint176 private _nextId = 1;\n    /// @dev The ID of the next pool that is used for the first time. Skips 0\n    uint80 private _nextPoolId = 1;\n\n    mapping(address => mapping(address => address)) public getPool;\n    mapping(address => uint256[]) public positionsByOwner;\n    mapping(address => uint256) public positionCountByOwner;\n\n    address public uniRouter;\n    address[] public  allPools;\n    address public owner;\n\n    uint256 ONE = 10**18;//1\n\n    /// @dev The token ID position data\n    mapping(uint256 => Position) internal _positions;\n\n    /// @dev The token ID position data\n    mapping(address => uint256) internal _tokenBalances;\n\n    /// @dev The ID of the next token that will be minted. Skips 0\n    //uint176 private _nextId = 1;\n    /// @dev The ID of the next pool that is used for the first time. Skips 0\n    //uint80 private _nextPoolId = 1;\n\n    modifier isAuthorizedForToken(uint256 tokenId) {\n        require(_isApprovedOrOwner(msg.sender, tokenId), 'PositionManager: NOT_AUTHORIZED');\n        _;\n    }\n\n    constructor(address _uniRouter, string memory name_, string memory symbol_) ERC721(name_, symbol_) {\n        owner = msg.sender;\n        uniRouter = _uniRouter;\n    }\n\n    function getPositionsByOwner(address user) external view returns(uint256[] memory tokenIds) {\n        tokenIds = positionsByOwner[user];\n    }\n\n    /// inheritdoc IVegaswapV1Position\n    function positions(uint256 tokenId) external view returns (uint96 nonce, address operator, address poolId, address token0, address token1,\n        uint256 tokensHeld0, uint256 tokensHeld1, address uniPair, uint256 liquidity, uint256 rateIndex, uint256 blockNum) {\n        Position memory position = _positions[tokenId];\n        require(position.uniPair != address(0), 'PositionManager: INVALID_TOKEN_ID');\n        //require(position.tokensHeld0 != 0 && position.tokensHeld1 != 0 && position.tokensHeld0 != 0, 'VegaswapV1: Invalid token ID');\n        //PoolAddress.PoolKey memory poolKey = _poolIdToPoolKey[position.poolId];\n        return (position.nonce, position.operator, position.poolId, position.token0, position.token1, position.tokensHeld0, position.tokensHeld1,\n        position.uniPair, position.liquidity, position.rateIndex, position.blockNum);\n    }\n\n    function tokenBalances(address token) external view returns (uint256 balance) {\n        return _tokenBalances[token];\n    }\n\n    function registerPool(address token0, address token1, address pool) external {\n        require(msg.sender == owner, \"PositionManager: FORBIDDEN\");\n        //if(getPool[token0][token1] == address(0) || getPool[token1][token0] == address(0)) {\n            getPool[token0][token1] = pool;\n            getPool[token1][token0] = pool; // populate mapping in the reverse direction\n            allPools.push(pool);\n        //}\n    }\n\n    function getOwner() external view returns(address _owner) {\n        _owner = owner;\n    }\n\n    function allPoolsLength() external view returns (uint256 _len) {\n        _len = allPools.length;\n    }\n\n    function getDepositedAmounts(address token0, address token1) internal view returns(uint256 token0Amt, uint256 token1Amt) {\n        token0Amt = IERC20(token0).balanceOf(address(this)) - _tokenBalances[token0];\n        token1Amt = IERC20(token1).balanceOf(address(this)) - _tokenBalances[token1];\n    }\n\n    function updateTokenBalances(Position storage position) internal {\n        (_tokenBalances[position.token0], _tokenBalances[position.token1]) = GammaswapPosLibrary.getTokenBalances(position.token0, position.token1, address(this));\n        _tokenBalances[position.uniPair] = IERC20(position.uniPair).balanceOf(address(this));\n    }\n\n    function openPosition(address token0, address token1, uint256 amount0, uint256 amount1, uint256 liquidity, address to) external returns (uint256 tokenId) {\n        TransferHelper.safeTransferFrom(token0, msg.sender, address(this), amount0);\n        TransferHelper.safeTransferFrom(token1, msg.sender, address(this), amount1);\n        tokenId = mint(token0, token1, liquidity, to);\n    }\n\n    function addPositionToOwnerList(address to, uint256 tokenId) internal {\n        positionsByOwner[to].push(tokenId);\n        positionCountByOwner[to] = positionsByOwner[to].length;\n    }\n\n    /*\n     * TODO: Instead of portfolio value use invariant to measure liquidity. This will enable to also increase the position size based on liquidity\n     * Also the liquidity desired should probably be measured in terms of an invariant.\n     */\n    //TODO: When we mint and increase positions we have to track the funds that we're holding for the pool\n    /// inheritdoc IVegaswapV1Position\n    //function mint(MintParams calldata params) internal returns (uint256 tokenId) {\n    function mint(address token0, address token1, uint256 liquidity, address to) internal returns (uint256 tokenId) {\n        //function mint(MintParams calldata params) external payable override checkDeadline(params.deadline) returns (uint256 tokenId) {\n        //We transfer token0Amt and token1Amt at the same time\n        //params.liquidity is the liquidity as LP shares of uni pool. In the GUI it will look like quantites of A and B. and a sum total in terms of B/A collateral\n        //PositionParams memory posParams = getPositionParams(params);//your position will be in terms of A*B\n\n        //(address _token0, address _token1) = GammaswapPosLibrary.sortTokens(params.token0, params.token1);\n        (address _token0, address _token1) = GammaswapPosLibrary.sortTokens(token0, token1);\n        address _poolId = getPool[_token0][_token1];\n        require(_poolId != address(0), 'PositionManager: POOL_NOT_FOUND');\n\n        address _uniPair = IDepositPool(_poolId).getUniPair();\n        (uint256 _token0Amt, uint256 _token1Amt) = getDepositedAmounts(_token0, _token1);\n\n        uint256 _accFeeIndex = IDepositPool(_poolId).getAndUpdateLastFeeIndex();\n\n        //(uint256 _tokensOwed0, uint256 _tokensOwed1) = IDepositPool(_poolId).openPosition(params.liquidity);\n        (uint256 _tokensOwed0, uint256 _tokensOwed1) = IDepositPool(_poolId).openPosition(liquidity);\n\n        uint256 _liquidity = GammaswapPosLibrary.convertAmountsToLiquidity(_tokensOwed0,_tokensOwed1);//this liquidity\n\n        //_mint(params.recipient, (tokenId = _nextId++));\n        _mint(to, (tokenId = _nextId++));\n\n        _positions[tokenId] = Position({\n            nonce: 0,\n            operator: address(0),\n            poolId: _poolId,\n            token0: _token0,\n            token1: _token1,\n            tokensHeld0: (_tokensOwed0 + _token0Amt),\n            tokensHeld1: (_tokensOwed1 + _token1Amt),\n            uniPair: _uniPair,\n            //uniPairHeld: _uniPairAmt,\n            liquidity: _liquidity,\n            rateIndex: _accFeeIndex,\n            blockNum: block.number\n        });\n\n        Position storage position = _positions[tokenId];\n\n        GammaswapPosLibrary.checkCollateral(position, 750);\n\n        updateTokenBalances(position);\n\n        addPositionToOwnerList(to, tokenId);\n\n        /**/\n\n\n        /*\n         * We don't have to do that whole thing up there with the token balances in saveTokenBalances.\n         * We just update tokenBalances[params.token0] to whatever the current token balance is. There should never be any leftovers\n         */\n        /*\n         * Reason why balancer is better for OTM options is because for the delta to approach 1 the price has to move much more. Which is\n         * what happens with OTM options. With ATM options delta is 50 at the start. with ITM options delta is > 50 at the start.\n         */\n        //emit MintPosition(tokenId, _liquidity, position.tokensHeld0, position.tokensHeld1, position.uniPairHeld, _accFeeIndex);\n    }\n\n\n    /// inheritdoc IVegaswapV1Position\n    function increaseCollateral(uint256 tokenId, uint256 amount0, uint256 amount1) external returns (uint256 token0Amt, uint256 token1Amt)\n    {\n        Position storage position = _positions[tokenId];\n\n        TransferHelper.safeTransferFrom(position.token0, msg.sender, address(this), amount0);\n        TransferHelper.safeTransferFrom(position.token1, msg.sender, address(this), amount1);\n\n        (token0Amt, token1Amt) = getDepositedAmounts(position.token0, position.token1);\n\n        position.tokensHeld0 = position.tokensHeld0 + token0Amt;\n        position.tokensHeld1 = position.tokensHeld1 + token1Amt;\n\n        updateTokenBalances(position);\n\n        //emit IncreaseCollateral(tokenId, position.tokensHeld0, position.tokensHeld1, position.uniPairHeld);\n    }\n\n    /// inheritdoc IVegaswapV1Position\n    function decreaseCollateral(uint256 tokenId, uint256 amount0, uint256 amount1, address to) external isAuthorizedForToken(tokenId) returns (uint256 tokensHeld0, uint256 tokensHeld1)\n    {\n        Position storage position = _positions[tokenId];\n\n        position.tokensHeld0 = position.tokensHeld0 - amount0;\n        position.tokensHeld1 = position.tokensHeld1 - amount1;\n\n        (, uint256 liquidity) = GammaswapPosLibrary.getPositionLiquidity(position);//We store the interest charged as added liquidity. To do that we have to square the cumRate\n        (uint256 owedBalance, uint256 heldBalance) = GammaswapPosLibrary.getPositionBalances(position.uniPair, liquidity, position.tokensHeld0, position.tokensHeld1);//, position.uniPairHeld);\n        require((heldBalance * 750) / 1000 >= owedBalance, 'PositionManager: EXCESSIVE_COLLATERAL_REMOVAL');\n\n        _safeTransferFn(position.token0, to, amount0);\n        _safeTransferFn(position.token1, to, amount1);\n\n        updateTokenBalances(position);\n\n        //emit DecreaseCollateral(tokenId, position.tokensHeld0, position.tokensHeld1, position.uniPairHeld);\n    }\n\n\n    function _safeTransferFn(address token, address to, uint value) internal {//changed from private\n        (bool success, bytes memory data) = token.call(abi.encodeWithSelector(SELECTOR, to, value));\n        require(success && (data.length == 0 || abi.decode(data, (bool))), 'DepositPool: TRANSFER_FAILED');\n    }\n\n\n    function updatePositionLiquidity(Position storage position) internal {\n        (position.rateIndex, position.liquidity) = GammaswapPosLibrary.getPositionLiquidity(position);\n    }\n\n    /*\n        Sent amounts necessary to close the position.\n     */\n    /// inheritdoc INonfungiblePositionManager\n    function decreasePosition(uint256 tokenId, uint256 liquidity) external isAuthorizedForToken(tokenId) {\n        Position storage position = _positions[tokenId];\n\n        (uint256 token0Amt, uint256 token1Amt) = getDepositedAmounts(position.token0, position.token1);\n\n        position.tokensHeld0 = position.tokensHeld0 + token0Amt;\n        position.tokensHeld1 = position.tokensHeld1 + token1Amt;\n\n        //TODO: (Urgent) Think need to fix this. This might not make sense. Because the tokensHeld might be enough to\n        //pay the liquidity we want to pay but the geometric mean of them might be lower than the liquidity we want to pay\n        uint256 totalLiquidityProvided = GammaswapPosLibrary.convertAmountsToLiquidity(position.tokensHeld0, position.tokensHeld1);\n        require(liquidity <= totalLiquidityProvided, \"PositionManager: NOT_ENOUGH_LIQUIDITY_PROVIDED\");//In the UI we pass\n\n        updatePositionLiquidity(position);\n        (uint256 owedBalance, uint256 heldBalance) = GammaswapPosLibrary.getPositionBalances(position.uniPair, position.liquidity, position.tokensHeld0, position.tokensHeld1);//, position.uniPairHeld);\n        require(heldBalance >= owedBalance, 'PositionManager: IS_UNDERWATER');\n        //require(liquidity <= position.liquidity, \"VegaswapV1: EXCESSIVE_LIQUIDITY_BURNED\");//In the UI we pass\n\n        uint256 _liquidity = position.liquidity < liquidity ? position.liquidity : liquidity;\n\n        //Transfer tokens held and all collateral available\n        _safeTransferFn(position.token0, position.poolId, position.tokensHeld0);\n        _safeTransferFn(position.token1, position.poolId, position.tokensHeld1);\n\n        (position.tokensHeld0, position.tokensHeld1) = IDepositPool(position.poolId).closePosition(_liquidity);\n\n        position.liquidity = position.liquidity - _liquidity;\n\n        updateTokenBalances(position);\n        //No need to check collateral because decreasing position always improves collateralization\n\n        //emit DecreasePosition(tokenId, liquidity, position.tokensHeld0, position.tokensHeld1);\n    }\n\n\n    //function _getAndIncrementNonce(uint256 tokenId) internal override returns (uint256) {\n    //    return uint256(_positions[tokenId].nonce++);\n    //}\n\n    /// @dev Overrides _approve to use the operator in the position, which is packed with the position permit nonce\n    //function _approve(address to, uint256 tokenId) internal override(ERC721) {\n    function _approve(address to, uint256 tokenId) internal override {\n        _positions[tokenId].operator = to;\n        emit Approval(ownerOf(tokenId), to, tokenId);\n    }\n\n    /// inheritdoc IERC721\n    function getApproved(uint256 tokenId) public view override returns (address) {\n    //function getApproved(uint256 tokenId) public view override(ERC721, IERC721) returns (address) {\n        require(_exists(tokenId), 'ERC721: approved query for nonexistent token');\n        return _positions[tokenId].operator;\n    }\n\n    /// inheritdoc IVegaswapV1Position\n    function burn(uint256 tokenId) external isAuthorizedForToken(tokenId) {\n        Position storage position = _positions[tokenId];\n        require(position.tokensHeld0 == 0 && position.tokensHeld1 == 0 && position.liquidity == 0, 'PositionManager: NOT_CLEARED');\n        delete _positions[tokenId];\n        _burn(tokenId);\n    }/**/\n\n    /*function swapPositionExactTokensForTokens(RebalanceParams calldata params) external isAuthorizedForToken(params.tokenId) {\n        Position storage position = _positions[params.tokenId];\n\n        uint256 origAmt = 0;\n\n        if(params.side) {\n            position.tokensHeld0 = IERC20(position.token0).balanceOf(address(this)) - origAmt + position.tokensHeld0;\n        } else {\n            position.tokensHeld1 = IERC20(position.token1).balanceOf(address(this)) - origAmt + position.tokensHeld1;\n        }\n\n        GammaswapPosLibrary.checkCollateral(position, 850);\n\n        (_tokenBalances[position.token0], _tokenBalances[position.token1]) = GammaswapPosLibrary.getTokenBalances(position.token0, position.token1, address(this));\n    }\n\n    function swapPositionTokensForExactTokens(RebalanceParams calldata params) external isAuthorizedForToken(params.tokenId) {\n        Position storage position = _positions[params.tokenId];\n\n        uint256 origAmt = 0;\n\n        if(params.side) {\n            position.tokensHeld1 = position.tokensHeld1 - origAmt - IERC20(position.token1).balanceOf(address(this));\n        } else {\n            position.tokensHeld0 = position.tokensHeld0 - origAmt - IERC20(position.token0).balanceOf(address(this));\n        }\n\n        GammaswapPosLibrary.checkCollateral(position, 850);\n\n        (_tokenBalances[position.token0], _tokenBalances[position.token1]) = GammaswapPosLibrary.getTokenBalances(position.token0, position.token1, address(this));\n    }/**/\n\n    function getUniswapPath(address _token0, address _token1, address _to, uint256 amount) private returns(address[] memory path) {\n        path = new address[](2);\n        path[0] = _token0;\n        path[1] = _token1;\n\n        if(amount > IERC20(path[0]).allowance(_to, uniRouter)) {\n            IERC20(path[0]).approve(uniRouter, type(uint).max);\n        }\n    }\n\n    //Uniswap.\n    function swapExactTokensForTokens(address _token0, address _token1, uint256 amountOutMin, uint256 amount, address _to) internal {\n        //address _uniRouter = IVegaswapV1Factory(factory).uniRouter();\n        address[] memory path = getUniswapPath(_token0, _token1, _to, amount);\n        IUniswapV2Router02(uniRouter).swapExactTokensForTokens(amount, amountOutMin, path, _to, type(uint).max);\n    }\n\n    //Uniswap.\n    function swapTokensForExactTokens(address _token0, address _token1, uint256 amountInMax, uint256 amount, address _to) internal {\n        //address _uniRouter = IVegaswapV1Factory(factory).uniRouter();\n        address[] memory path = getUniswapPath(_token0, _token1, _to, amount);\n        IUniswapV2Router02(uniRouter).swapTokensForExactTokens(amount, amountInMax, path, _to, type(uint).max);\n    }/**/\n\n    /*function PositionManager(){\n\n    }/**/\n}\n",
  "sourcePath": "/Users/danielalcarraz/Documents/workspace/gammaswap/src/contracts/PositionManager.sol",
  "compiler": {
    "name": "solc",
    "version": "0.8.14+commit.80d49f37.Emscripten.clang"
  },
  "schemaVersion": "3.3.3",
  "updatedAt": "2022-05-22T08:46:07.636Z",
  "networkType": "ethereum",
  "devdoc": {
    "kind": "dev",
    "methods": {
      "approve(address,uint256)": {
        "details": "See {IERC721-approve}."
      },
      "balanceOf(address)": {
        "details": "See {IERC721-balanceOf}."
      },
      "isApprovedForAll(address,address)": {
        "details": "See {IERC721-isApprovedForAll}."
      },
      "name()": {
        "details": "See {IERC721Metadata-name}."
      },
      "ownerOf(uint256)": {
        "details": "See {IERC721-ownerOf}."
      },
      "safeTransferFrom(address,address,uint256)": {
        "details": "See {IERC721-safeTransferFrom}."
      },
      "safeTransferFrom(address,address,uint256,bytes)": {
        "details": "See {IERC721-safeTransferFrom}."
      },
      "setApprovalForAll(address,bool)": {
        "details": "See {IERC721-setApprovalForAll}."
      },
      "supportsInterface(bytes4)": {
        "details": "See {IERC165-supportsInterface}."
      },
      "symbol()": {
        "details": "See {IERC721Metadata-symbol}."
      },
      "tokenURI(uint256)": {
        "details": "See {IERC721Metadata-tokenURI}."
      },
      "transferFrom(address,address,uint256)": {
        "details": "See {IERC721-transferFrom}."
      }
    },
    "stateVariables": {
      "_nextId": {
        "details": "The ID of the next token that will be minted. Skips 0"
      },
      "_nextPoolId": {
        "details": "The ID of the next pool that is used for the first time. Skips 0"
      },
      "_positions": {
        "details": "The token ID position data"
      },
      "_tokenBalances": {
        "details": "The token ID position data"
      }
    },
    "version": 1
  },
  "userdoc": {
    "kind": "user",
    "methods": {
      "burn(uint256)": {
        "notice": "inheritdoc IVegaswapV1Position"
      },
      "decreaseCollateral(uint256,uint256,uint256,address)": {
        "notice": "inheritdoc IVegaswapV1Position"
      },
      "decreasePosition(uint256,uint256)": {
        "notice": "inheritdoc INonfungiblePositionManager"
      },
      "getApproved(uint256)": {
        "notice": "inheritdoc IERC721"
      },
      "increaseCollateral(uint256,uint256,uint256)": {
        "notice": "inheritdoc IVegaswapV1Position"
      },
      "positions(uint256)": {
        "notice": "inheritdoc IVegaswapV1Position"
      }
    },
    "version": 1
  }
}