{
  "contractName": "TestDepositPool",
  "abi": [
    {
      "inputs": [
        {
          "internalType": "address",
          "name": "_uniRouter",
          "type": "address"
        },
        {
          "internalType": "address",
          "name": "_uniPair",
          "type": "address"
        },
        {
          "internalType": "address",
          "name": "_token0",
          "type": "address"
        },
        {
          "internalType": "address",
          "name": "_token1",
          "type": "address"
        },
        {
          "internalType": "address",
          "name": "_positionManager",
          "type": "address"
        }
      ],
      "stateMutability": "nonpayable",
      "type": "constructor"
    },
    {
      "anonymous": false,
      "inputs": [
        {
          "indexed": true,
          "internalType": "address",
          "name": "owner",
          "type": "address"
        },
        {
          "indexed": true,
          "internalType": "address",
          "name": "spender",
          "type": "address"
        },
        {
          "indexed": false,
          "internalType": "uint256",
          "name": "value",
          "type": "uint256"
        }
      ],
      "name": "Approval",
      "type": "event"
    },
    {
      "anonymous": false,
      "inputs": [
        {
          "indexed": false,
          "internalType": "uint256",
          "name": "tokensOwed0",
          "type": "uint256"
        },
        {
          "indexed": false,
          "internalType": "uint256",
          "name": "tokensOwed1",
          "type": "uint256"
        }
      ],
      "name": "OpenPosition",
      "type": "event"
    },
    {
      "anonymous": false,
      "inputs": [
        {
          "indexed": true,
          "internalType": "address",
          "name": "from",
          "type": "address"
        },
        {
          "indexed": true,
          "internalType": "address",
          "name": "to",
          "type": "address"
        },
        {
          "indexed": false,
          "internalType": "uint256",
          "name": "value",
          "type": "uint256"
        }
      ],
      "name": "Transfer",
      "type": "event"
    },
    {
      "inputs": [],
      "name": "BASE_RATE",
      "outputs": [
        {
          "internalType": "uint256",
          "name": "",
          "type": "uint256"
        }
      ],
      "stateMutability": "view",
      "type": "function",
      "constant": true
    },
    {
      "inputs": [],
      "name": "BORROWED_INVARIANT",
      "outputs": [
        {
          "internalType": "uint256",
          "name": "",
          "type": "uint256"
        }
      ],
      "stateMutability": "view",
      "type": "function",
      "constant": true
    },
    {
      "inputs": [],
      "name": "LAST_BLOCK_NUMBER",
      "outputs": [
        {
          "internalType": "uint256",
          "name": "",
          "type": "uint256"
        }
      ],
      "stateMutability": "view",
      "type": "function",
      "constant": true
    },
    {
      "inputs": [],
      "name": "MINIMUM_LIQUIDITY",
      "outputs": [
        {
          "internalType": "uint256",
          "name": "",
          "type": "uint256"
        }
      ],
      "stateMutability": "view",
      "type": "function",
      "constant": true
    },
    {
      "inputs": [],
      "name": "ONE",
      "outputs": [
        {
          "internalType": "uint256",
          "name": "",
          "type": "uint256"
        }
      ],
      "stateMutability": "view",
      "type": "function",
      "constant": true
    },
    {
      "inputs": [],
      "name": "OPTIMAL_UTILIZATION_RATE",
      "outputs": [
        {
          "internalType": "uint256",
          "name": "",
          "type": "uint256"
        }
      ],
      "stateMutability": "view",
      "type": "function",
      "constant": true
    },
    {
      "inputs": [],
      "name": "SLOPE1",
      "outputs": [
        {
          "internalType": "uint256",
          "name": "",
          "type": "uint256"
        }
      ],
      "stateMutability": "view",
      "type": "function",
      "constant": true
    },
    {
      "inputs": [],
      "name": "SLOPE2",
      "outputs": [
        {
          "internalType": "uint256",
          "name": "",
          "type": "uint256"
        }
      ],
      "stateMutability": "view",
      "type": "function",
      "constant": true
    },
    {
      "inputs": [],
      "name": "UNI_LP_BORROWED",
      "outputs": [
        {
          "internalType": "uint256",
          "name": "",
          "type": "uint256"
        }
      ],
      "stateMutability": "view",
      "type": "function",
      "constant": true
    },
    {
      "inputs": [],
      "name": "YEAR_BLOCK_COUNT",
      "outputs": [
        {
          "internalType": "uint256",
          "name": "",
          "type": "uint256"
        }
      ],
      "stateMutability": "view",
      "type": "function",
      "constant": true
    },
    {
      "inputs": [],
      "name": "accFeeIndex",
      "outputs": [
        {
          "internalType": "uint256",
          "name": "",
          "type": "uint256"
        }
      ],
      "stateMutability": "view",
      "type": "function",
      "constant": true
    },
    {
      "inputs": [
        {
          "internalType": "uint256",
          "name": "amountADesired",
          "type": "uint256"
        },
        {
          "internalType": "uint256",
          "name": "amountBDesired",
          "type": "uint256"
        },
        {
          "internalType": "uint256",
          "name": "amountAMin",
          "type": "uint256"
        },
        {
          "internalType": "uint256",
          "name": "amountBMin",
          "type": "uint256"
        },
        {
          "internalType": "address",
          "name": "to",
          "type": "address"
        }
      ],
      "name": "addLiquidity",
      "outputs": [
        {
          "internalType": "uint256",
          "name": "amountA",
          "type": "uint256"
        },
        {
          "internalType": "uint256",
          "name": "amountB",
          "type": "uint256"
        },
        {
          "internalType": "uint256",
          "name": "liquidity",
          "type": "uint256"
        }
      ],
      "stateMutability": "nonpayable",
      "type": "function"
    },
    {
      "inputs": [
        {
          "internalType": "address",
          "name": "owner",
          "type": "address"
        },
        {
          "internalType": "address",
          "name": "spender",
          "type": "address"
        }
      ],
      "name": "allowance",
      "outputs": [
        {
          "internalType": "uint256",
          "name": "bal",
          "type": "uint256"
        }
      ],
      "stateMutability": "view",
      "type": "function",
      "constant": true
    },
    {
      "inputs": [
        {
          "internalType": "address",
          "name": "spender",
          "type": "address"
        },
        {
          "internalType": "uint256",
          "name": "value",
          "type": "uint256"
        }
      ],
      "name": "approve",
      "outputs": [
        {
          "internalType": "bool",
          "name": "",
          "type": "bool"
        }
      ],
      "stateMutability": "nonpayable",
      "type": "function"
    },
    {
      "inputs": [
        {
          "internalType": "address",
          "name": "account",
          "type": "address"
        }
      ],
      "name": "balanceOf",
      "outputs": [
        {
          "internalType": "uint256",
          "name": "bal",
          "type": "uint256"
        }
      ],
      "stateMutability": "view",
      "type": "function",
      "constant": true
    },
    {
      "inputs": [
        {
          "internalType": "uint256",
          "name": "liquidity",
          "type": "uint256"
        }
      ],
      "name": "closePosition",
      "outputs": [
        {
          "internalType": "uint256",
          "name": "leftAmount0",
          "type": "uint256"
        },
        {
          "internalType": "uint256",
          "name": "leftAmount1",
          "type": "uint256"
        }
      ],
      "stateMutability": "nonpayable",
      "type": "function"
    },
    {
      "inputs": [],
      "name": "decimals",
      "outputs": [
        {
          "internalType": "uint8",
          "name": "",
          "type": "uint8"
        }
      ],
      "stateMutability": "view",
      "type": "function",
      "constant": true
    },
    {
      "inputs": [],
      "name": "fee",
      "outputs": [
        {
          "internalType": "uint256",
          "name": "",
          "type": "uint256"
        }
      ],
      "stateMutability": "view",
      "type": "function",
      "constant": true
    },
    {
      "inputs": [],
      "name": "feeTo",
      "outputs": [
        {
          "internalType": "address",
          "name": "",
          "type": "address"
        }
      ],
      "stateMutability": "view",
      "type": "function",
      "constant": true
    },
    {
      "inputs": [],
      "name": "getAndUpdateLastFeeIndex",
      "outputs": [
        {
          "internalType": "uint256",
          "name": "_accFeeIndex",
          "type": "uint256"
        }
      ],
      "stateMutability": "nonpayable",
      "type": "function"
    },
    {
      "inputs": [],
      "name": "getBorrowRate",
      "outputs": [
        {
          "internalType": "uint256",
          "name": "_borrowRate",
          "type": "uint256"
        }
      ],
      "stateMutability": "view",
      "type": "function",
      "constant": true
    },
    {
      "inputs": [],
      "name": "getBorrowedReserves",
      "outputs": [
        {
          "internalType": "uint256",
          "name": "_reserve0",
          "type": "uint256"
        },
        {
          "internalType": "uint256",
          "name": "_reserve1",
          "type": "uint256"
        }
      ],
      "stateMutability": "view",
      "type": "function",
      "constant": true
    },
    {
      "inputs": [],
      "name": "getLastFeeIndex",
      "outputs": [
        {
          "internalType": "uint256",
          "name": "_accFeeIndex",
          "type": "uint256"
        },
        {
          "internalType": "uint256",
          "name": "_lastUniInvariant",
          "type": "uint256"
        },
        {
          "internalType": "uint256",
          "name": "_lastUniTotalSupply",
          "type": "uint256"
        },
        {
          "internalType": "uint256",
          "name": "_lastFeeIndex",
          "type": "uint256"
        }
      ],
      "stateMutability": "view",
      "type": "function",
      "constant": true
    },
    {
      "inputs": [],
      "name": "getUniPair",
      "outputs": [
        {
          "internalType": "address",
          "name": "_uniPair",
          "type": "address"
        }
      ],
      "stateMutability": "view",
      "type": "function",
      "constant": true
    },
    {
      "inputs": [],
      "name": "getUtilizationRate",
      "outputs": [
        {
          "internalType": "uint256",
          "name": "_utilizationRate",
          "type": "uint256"
        }
      ],
      "stateMutability": "view",
      "type": "function",
      "constant": true
    },
    {
      "inputs": [],
      "name": "lastUniInvariant",
      "outputs": [
        {
          "internalType": "uint256",
          "name": "",
          "type": "uint256"
        }
      ],
      "stateMutability": "view",
      "type": "function",
      "constant": true
    },
    {
      "inputs": [],
      "name": "lastUniTotalSupply",
      "outputs": [
        {
          "internalType": "uint256",
          "name": "",
          "type": "uint256"
        }
      ],
      "stateMutability": "view",
      "type": "function",
      "constant": true
    },
    {
      "inputs": [],
      "name": "name",
      "outputs": [
        {
          "internalType": "string",
          "name": "",
          "type": "string"
        }
      ],
      "stateMutability": "view",
      "type": "function",
      "constant": true
    },
    {
      "inputs": [
        {
          "internalType": "uint256",
          "name": "liquidity",
          "type": "uint256"
        }
      ],
      "name": "openPosition",
      "outputs": [
        {
          "internalType": "uint256",
          "name": "tokensOwed0",
          "type": "uint256"
        },
        {
          "internalType": "uint256",
          "name": "tokensOwed1",
          "type": "uint256"
        }
      ],
      "stateMutability": "nonpayable",
      "type": "function"
    },
    {
      "inputs": [],
      "name": "owner",
      "outputs": [
        {
          "internalType": "address",
          "name": "",
          "type": "address"
        }
      ],
      "stateMutability": "view",
      "type": "function",
      "constant": true
    },
    {
      "inputs": [],
      "name": "positionManager",
      "outputs": [
        {
          "internalType": "address",
          "name": "",
          "type": "address"
        }
      ],
      "stateMutability": "view",
      "type": "function",
      "constant": true
    },
    {
      "inputs": [],
      "name": "prevLastUniFeeIndex",
      "outputs": [
        {
          "internalType": "uint256",
          "name": "",
          "type": "uint256"
        }
      ],
      "stateMutability": "view",
      "type": "function",
      "constant": true
    },
    {
      "inputs": [
        {
          "internalType": "uint256",
          "name": "liquidity",
          "type": "uint256"
        },
        {
          "internalType": "uint256",
          "name": "amountAMin",
          "type": "uint256"
        },
        {
          "internalType": "uint256",
          "name": "amountBMin",
          "type": "uint256"
        },
        {
          "internalType": "address",
          "name": "to",
          "type": "address"
        }
      ],
      "name": "removeLiquidity",
      "outputs": [
        {
          "internalType": "uint256",
          "name": "amountA",
          "type": "uint256"
        },
        {
          "internalType": "uint256",
          "name": "amountB",
          "type": "uint256"
        }
      ],
      "stateMutability": "nonpayable",
      "type": "function"
    },
    {
      "inputs": [
        {
          "internalType": "uint256",
          "name": "_fee",
          "type": "uint256"
        }
      ],
      "name": "setFee",
      "outputs": [],
      "stateMutability": "nonpayable",
      "type": "function"
    },
    {
      "inputs": [
        {
          "internalType": "address",
          "name": "_feeTo",
          "type": "address"
        }
      ],
      "name": "setFeeTo",
      "outputs": [],
      "stateMutability": "nonpayable",
      "type": "function"
    },
    {
      "inputs": [],
      "name": "symbol",
      "outputs": [
        {
          "internalType": "string",
          "name": "",
          "type": "string"
        }
      ],
      "stateMutability": "view",
      "type": "function",
      "constant": true
    },
    {
      "inputs": [],
      "name": "token0",
      "outputs": [
        {
          "internalType": "address",
          "name": "",
          "type": "address"
        }
      ],
      "stateMutability": "view",
      "type": "function",
      "constant": true
    },
    {
      "inputs": [],
      "name": "token1",
      "outputs": [
        {
          "internalType": "address",
          "name": "",
          "type": "address"
        }
      ],
      "stateMutability": "view",
      "type": "function",
      "constant": true
    },
    {
      "inputs": [],
      "name": "totalSupply",
      "outputs": [
        {
          "internalType": "uint256",
          "name": "",
          "type": "uint256"
        }
      ],
      "stateMutability": "view",
      "type": "function",
      "constant": true
    },
    {
      "inputs": [],
      "name": "totalUniLiquidity",
      "outputs": [
        {
          "internalType": "uint256",
          "name": "",
          "type": "uint256"
        }
      ],
      "stateMutability": "view",
      "type": "function",
      "constant": true
    },
    {
      "inputs": [
        {
          "internalType": "address",
          "name": "to",
          "type": "address"
        },
        {
          "internalType": "uint256",
          "name": "value",
          "type": "uint256"
        }
      ],
      "name": "transfer",
      "outputs": [
        {
          "internalType": "bool",
          "name": "",
          "type": "bool"
        }
      ],
      "stateMutability": "nonpayable",
      "type": "function"
    },
    {
      "inputs": [
        {
          "internalType": "address",
          "name": "from",
          "type": "address"
        },
        {
          "internalType": "address",
          "name": "to",
          "type": "address"
        },
        {
          "internalType": "uint256",
          "name": "value",
          "type": "uint256"
        }
      ],
      "name": "transferFrom",
      "outputs": [
        {
          "internalType": "bool",
          "name": "",
          "type": "bool"
        }
      ],
      "stateMutability": "nonpayable",
      "type": "function"
    },
    {
      "inputs": [],
      "name": "uniPair",
      "outputs": [
        {
          "internalType": "address",
          "name": "",
          "type": "address"
        }
      ],
      "stateMutability": "view",
      "type": "function",
      "constant": true
    },
    {
      "inputs": [],
      "name": "uniRouter",
      "outputs": [
        {
          "internalType": "address",
          "name": "",
          "type": "address"
        }
      ],
      "stateMutability": "view",
      "type": "function",
      "constant": true
    },
    {
      "inputs": [
        {
          "internalType": "uint256",
          "name": "baseRate",
          "type": "uint256"
        }
      ],
      "name": "setBaseRate",
      "outputs": [],
      "stateMutability": "nonpayable",
      "type": "function"
    },
    {
      "inputs": [
        {
          "internalType": "uint256",
          "name": "optimalUtilizationRate",
          "type": "uint256"
        }
      ],
      "name": "setOptimalUtilizationRate",
      "outputs": [],
      "stateMutability": "nonpayable",
      "type": "function"
    },
    {
      "inputs": [
        {
          "internalType": "uint256",
          "name": "slope1",
          "type": "uint256"
        }
      ],
      "name": "setSlope1",
      "outputs": [],
      "stateMutability": "nonpayable",
      "type": "function"
    },
    {
      "inputs": [
        {
          "internalType": "uint256",
          "name": "slope2",
          "type": "uint256"
        }
      ],
      "name": "setSlope2",
      "outputs": [],
      "stateMutability": "nonpayable",
      "type": "function"
    },
    {
      "inputs": [
        {
          "internalType": "address",
          "name": "_token0",
          "type": "address"
        },
        {
          "internalType": "address",
          "name": "_token1",
          "type": "address"
        },
        {
          "internalType": "uint256",
          "name": "amount",
          "type": "uint256"
        },
        {
          "internalType": "uint256",
          "name": "amountOutMin",
          "type": "uint256"
        },
        {
          "internalType": "address",
          "name": "recipient",
          "type": "address"
        }
      ],
      "name": "swapExactTokens4Tokens",
      "outputs": [],
      "stateMutability": "nonpayable",
      "type": "function"
    }
  ],
  "bytecode": "0x60806040526040518060400160405280600c81526020017f47616d6d61737761702056300000000000000000000000000000000000000000815250600090805190602001906200005192919062000463565b506040518060400160405280600781526020017f47414d412d563000000000000000000000000000000000000000000000000000815250600190805190602001906200009f92919062000463565b506012600260006101000a81548160ff021916908360ff16021790555062225f1b601355662386f26fc10000601455670b1a2bc2ec500000601555670de0b6b3a7640000601655670de0b6b3a76400006017556000601960006101000a81548173ffffffffffffffffffffffffffffffffffffffff021916908373ffffffffffffffffffffffffffffffffffffffff16021790555066b1a2bc2ec50000601a556001601b553480156200015157600080fd5b506040516200625f3803806200625f83398181016040528101906200017791906200057d565b848484848484600660006101000a81548173ffffffffffffffffffffffffffffffffffffffff021916908373ffffffffffffffffffffffffffffffffffffffff16021790555083600760006101000a81548173ffffffffffffffffffffffffffffffffffffffff021916908373ffffffffffffffffffffffffffffffffffffffff1602179055506200021583836200032f60201b62001f141760201c565b60086000600960008491906101000a81548173ffffffffffffffffffffffffffffffffffffffff021916908373ffffffffffffffffffffffffffffffffffffffff1602179055508391906101000a81548173ffffffffffffffffffffffffffffffffffffffff021916908373ffffffffffffffffffffffffffffffffffffffff160217905550505080600a60006101000a81548173ffffffffffffffffffffffffffffffffffffffff021916908373ffffffffffffffffffffffffffffffffffffffff16021790555033601860006101000a81548173ffffffffffffffffffffffffffffffffffffffff021916908373ffffffffffffffffffffffffffffffffffffffff1602179055505050505050505050505062000784565b6000808273ffffffffffffffffffffffffffffffffffffffff168473ffffffffffffffffffffffffffffffffffffffff1603620003a3576040517f08c379a00000000000000000000000000000000000000000000000000000000081526004016200039a906200068c565b60405180910390fd5b8273ffffffffffffffffffffffffffffffffffffffff168473ffffffffffffffffffffffffffffffffffffffff1610620003df578284620003e2565b83835b8092508193505050600073ffffffffffffffffffffffffffffffffffffffff168273ffffffffffffffffffffffffffffffffffffffff16036200045c576040517f08c379a00000000000000000000000000000000000000000000000000000000081526004016200045390620006fe565b60405180910390fd5b9250929050565b82805462000471906200074f565b90600052602060002090601f016020900481019282620004955760008555620004e1565b82601f10620004b057805160ff1916838001178555620004e1565b82800160010185558215620004e1579182015b82811115620004e0578251825591602001919060010190620004c3565b5b509050620004f09190620004f4565b5090565b5b808211156200050f576000816000905550600101620004f5565b5090565b600080fd5b600073ffffffffffffffffffffffffffffffffffffffff82169050919050565b6000620005458262000518565b9050919050565b620005578162000538565b81146200056357600080fd5b50565b60008151905062000577816200054c565b92915050565b600080600080600060a086880312156200059c576200059b62000513565b5b6000620005ac8882890162000566565b9550506020620005bf8882890162000566565b9450506040620005d28882890162000566565b9350506060620005e58882890162000566565b9250506080620005f88882890162000566565b9150509295509295909350565b600082825260208201905092915050565b7f47616d6d61737761704c6962726172793a204944454e544943414c5f4144445260008201527f4553534553000000000000000000000000000000000000000000000000000000602082015250565b60006200067460258362000605565b9150620006818262000616565b604082019050919050565b60006020820190508181036000830152620006a78162000665565b9050919050565b7f47616d6d61737761704c6962726172793a205a45524f5f414444524553530000600082015250565b6000620006e6601e8362000605565b9150620006f382620006ae565b602082019050919050565b600060208201905081810360008301526200071981620006d7565b9050919050565b7f4e487b7100000000000000000000000000000000000000000000000000000000600052602260045260246000fd5b600060028204905060018216806200076857607f821691505b6020821081036200077e576200077d62000720565b5b50919050565b615acb80620007946000396000f3fe608060405234801561001057600080fd5b50600436106102bb5760003560e01c806377fc4b7511610182578063ba1c5e80116100e9578063e0ab0772116100a2578063e653f87d1161007c578063e653f87d146108a7578063f46901ed146108c3578063f93c6695146108df578063fb2eb8b8146108fd576102bb565b8063e0ab077214610826578063e1af1ca414610858578063e39b0eb514610876576102bb565b8063ba1c5e8014610760578063ba9a7a561461077e578063c2ee3a081461079c578063d21220a7146107ba578063dd62ed3e146107d8578063ddca3f4314610808576102bb565b8063a0e47bf61161013b578063a0e47bf614610687578063a126d601146106a5578063a15f30ac146106d6578063a4566282146106f4578063a86e49ae14610712578063a9059cbb14610730576102bb565b806377fc4b75146105c2578063791b98bc146105de5780638da5cb5b146105fc57806395d89b411461061a57806399ff8203146106385780639d0a203014610669576102bb565b806332972e4611610226578063573297d3116101df578063573297d3146104fd57806369fe0e2d1461051c5780636f4d8ada146105385780637007d7da1461055657806370a0823114610574578063771506cd146105a4576102bb565b806332972e461461044857806338c532d614610466578063412ba55f1461048257806341910f90146104a357806348c8ec72146104c15780634a417a53146104df576102bb565b8063181c92e011610278578063181c92e0146103865780631d08837b146103a45780631d6f0ce2146103c057806323b872dd146103de578063313ce5671461040e578063327252191461042c576102bb565b8063017e7e58146102c057806306fdde03146102de578063095ea7b3146102fc5780630dfe16811461032c5780630f5325fe1461034a57806318160ddd14610368575b600080fd5b6102c861091b565b6040516102d591906143c4565b60405180910390f35b6102e6610941565b6040516102f39190614478565b60405180910390f35b61031660048036038101906103119190614510565b6109cf565b604051610323919061456b565b60405180910390f35b6103346109e6565b60405161034191906143c4565b60405180910390f35b610352610a0c565b60405161035f9190614595565b60405180910390f35b610370610a12565b60405161037d9190614595565b60405180910390f35b61038e610a18565b60405161039b9190614595565b60405180910390f35b6103be60048036038101906103b991906145b0565b610a1e565b005b6103c8610a28565b6040516103d59190614595565b60405180910390f35b6103f860048036038101906103f391906145dd565b610b01565b604051610405919061456b565b60405180910390f35b610416610cc5565b604051610423919061464c565b60405180910390f35b610446600480360381019061044191906145b0565b610cd8565b005b610450610ce2565b60405161045d91906143c4565b60405180910390f35b610480600480360381019061047b91906145b0565b610d08565b005b61048a610d12565b60405161049a9493929190614667565b60405180910390f35b6104ab610fdf565b6040516104b89190614595565b60405180910390f35b6104c9610fe5565b6040516104d691906143c4565b60405180910390f35b6104e761100f565b6040516104f49190614595565b60405180910390f35b61050561104b565b6040516105139291906146ac565b60405180910390f35b610536600480360381019061053191906145b0565b611107565b005b6105406111a1565b60405161054d9190614595565b60405180910390f35b61055e6111a7565b60405161056b9190614595565b60405180910390f35b61058e600480360381019061058991906146d5565b6111ad565b60405161059b9190614595565b60405180910390f35b6105ac6111f6565b6040516105b99190614595565b60405180910390f35b6105dc60048036038101906105d79190614702565b6111fc565b005b6105e6611377565b6040516105f391906143c4565b60405180910390f35b61060461139d565b60405161061191906143c4565b60405180910390f35b6106226113c3565b60405161062f9190614478565b60405180910390f35b610652600480360381019061064d91906145b0565b611451565b6040516106609291906146ac565b60405180910390f35b610671611747565b60405161067e9190614595565b60405180910390f35b61068f61174d565b60405161069c91906143c4565b60405180910390f35b6106bf60048036038101906106ba91906145b0565b611773565b6040516106cd9291906146ac565b60405180910390f35b6106de611a66565b6040516106eb9190614595565b60405180910390f35b6106fc611a6c565b6040516107099190614595565b60405180910390f35b61071a611a72565b6040516107279190614595565b60405180910390f35b61074a60048036038101906107459190614510565b611a78565b604051610757919061456b565b60405180910390f35b610768611a8f565b6040516107759190614595565b60405180910390f35b610786611baf565b6040516107939190614595565b60405180910390f35b6107a4611bb5565b6040516107b19190614595565b60405180910390f35b6107c2611bc1565b6040516107cf91906143c4565b60405180910390f35b6107f260048036038101906107ed919061477d565b611be7565b6040516107ff9190614595565b60405180910390f35b610810611c6e565b60405161081d9190614595565b60405180910390f35b610840600480360381019061083b91906147bd565b611c74565b60405161084f93929190614838565b60405180910390f35b610860611cff565b60405161086d9190614595565b60405180910390f35b610890600480360381019061088b919061486f565b611d05565b60405161089e9291906146ac565b60405180910390f35b6108c160048036038101906108bc91906145b0565b611e2a565b005b6108dd60048036038101906108d891906146d5565b611e34565b005b6108e7611f08565b6040516108f49190614595565b60405180910390f35b610905611f0e565b6040516109129190614595565b60405180910390f35b601960009054906101000a900473ffffffffffffffffffffffffffffffffffffffff1681565b6000805461094e90614905565b80601f016020809104026020016040519081016040528092919081815260200182805461097a90614905565b80156109c75780601f1061099c576101008083540402835291602001916109c7565b820191906000526020600020905b8154815290600101906020018083116109aa57829003601f168201915b505050505081565b60006109dc338484612040565b6001905092915050565b600860009054906101000a900473ffffffffffffffffffffffffffffffffffffffff1681565b600c5481565b60035481565b600f5481565b8060148190555050565b6000803073ffffffffffffffffffffffffffffffffffffffff1663412ba55f6040518163ffffffff1660e01b8152600401608060405180830381865afa158015610a76573d6000803e3d6000fd5b505050506040513d601f19601f82011682018060405250810190610a9a919061494b565b600b6000600c6000849850859190505584919050558395505050505060006010541115610aef576000670de0b6b3a764000082601054610ada91906149e1565b610ae49190614a6a565b905080601081905550505b81600d81905550436012819055505090565b60007fffffffffffffffffffffffffffffffffffffffffffffffffffffffffffffffff600560008673ffffffffffffffffffffffffffffffffffffffff1673ffffffffffffffffffffffffffffffffffffffff16815260200190815260200160002060003373ffffffffffffffffffffffffffffffffffffffff1673ffffffffffffffffffffffffffffffffffffffff1681526020019081526020016000205414610caf5781600560008673ffffffffffffffffffffffffffffffffffffffff1673ffffffffffffffffffffffffffffffffffffffff16815260200190815260200160002060003373ffffffffffffffffffffffffffffffffffffffff1673ffffffffffffffffffffffffffffffffffffffff16815260200190815260200160002054610c2e9190614a9b565b600560008673ffffffffffffffffffffffffffffffffffffffff1673ffffffffffffffffffffffffffffffffffffffff16815260200190815260200160002060003373ffffffffffffffffffffffffffffffffffffffff1673ffffffffffffffffffffffffffffffffffffffff168152602001908152602001600020819055505b610cba84848461212b565b600190509392505050565b600260009054906101000a900460ff1681565b8060158190555050565b600760009054906101000a900473ffffffffffffffffffffffffffffffffffffffff1681565b8060168190555050565b600080600080600080610d8c600760009054906101000a900473ffffffffffffffffffffffffffffffffffffffff16600860009054906101000a900473ffffffffffffffffffffffffffffffffffffffff16600960009054906101000a900473ffffffffffffffffffffffffffffffffffffffff166122b1565b91509150600082118015610da05750600081115b15610e5a57670de0b6b3a76400008183610dba91906149e1565b610dc49190614a6a565b9450600760009054906101000a900473ffffffffffffffffffffffffffffffffffffffff1673ffffffffffffffffffffffffffffffffffffffff166318160ddd6040518163ffffffff1660e01b8152600401602060405180830381865afa158015610e33573d6000803e3d6000fd5b505050506040513d601f19601f82011682018060405250810190610e579190614acf565b93505b6000600b54118015610e6c5750600085115b8015610e785750600084115b8015610e8657506000600c54115b15610fc0576000600c54610e99876123aa565b610ea391906149e1565b9050600085610eb3600b546123aa565b610ebd91906149e1565b9050600081670de0b6b3a764000084610ed691906149e1565b610ee09190614a6a565b905060003073ffffffffffffffffffffffffffffffffffffffff1663ba1c5e806040518163ffffffff1660e01b8152600401602060405180830381865afa158015610f2f573d6000803e3d6000fd5b505050506040513d601f19601f82011682018060405250810190610f539190614acf565b9050600060125443610f659190614a9b565b905060006013548383610f7891906149e1565b610f829190614a6a565b90508084610f909190614afc565b9850670de0b6b3a764000089600d54610fa991906149e1565b610fb39190614a6a565b9b50505050505050610fd7565b670de0b6b3a76400009550670de0b6b3a764000092505b505090919293565b60145481565b6000600760009054906101000a900473ffffffffffffffffffffffffffffffffffffffff16905090565b600080601154600f546110229190614afc565b905080670de0b6b3a764000060115461103b91906149e1565b6110459190614a6a565b91505090565b6000806000806110c2600760009054906101000a900473ffffffffffffffffffffffffffffffffffffffff16600860009054906101000a900473ffffffffffffffffffffffffffffffffffffffff16600960009054906101000a900473ffffffffffffffffffffffffffffffffffffffff166122b1565b915091506110f9600760009054906101000a900473ffffffffffffffffffffffffffffffffffffffff168383600f546010546123cf565b809450819550505050509091565b601860009054906101000a900473ffffffffffffffffffffffffffffffffffffffff1673ffffffffffffffffffffffffffffffffffffffff163373ffffffffffffffffffffffffffffffffffffffff1614611197576040517f08c379a000000000000000000000000000000000000000000000000000000000815260040161118e90614bc4565b60405180910390fd5b80601a8190555050565b60175481565b600d5481565b6000600460008373ffffffffffffffffffffffffffffffffffffffff1673ffffffffffffffffffffffffffffffffffffffff168152602001908152602001600020549050919050565b60115481565b8473ffffffffffffffffffffffffffffffffffffffff1663dd62ed3e30600660009054906101000a900473ffffffffffffffffffffffffffffffffffffffff166040518363ffffffff1660e01b8152600401611259929190614be4565b602060405180830381865afa158015611276573d6000803e3d6000fd5b505050506040513d601f19601f8201168201806040525081019061129a9190614acf565b831115611363578473ffffffffffffffffffffffffffffffffffffffff1663095ea7b3600660009054906101000a900473ffffffffffffffffffffffffffffffffffffffff167fffffffffffffffffffffffffffffffffffffffffffffffffffffffffffffffff6040518363ffffffff1660e01b815260040161131e929190614c0d565b6020604051808303816000875af115801561133d573d6000803e3d6000fd5b505050506040513d601f19601f820116820180604052508101906113619190614c62565b505b61137085858486856124fc565b5050505050565b600a60009054906101000a900473ffffffffffffffffffffffffffffffffffffffff1681565b601860009054906101000a900473ffffffffffffffffffffffffffffffffffffffff1681565b600180546113d090614905565b80601f01602080910402602001604051908101604052809291908181526020018280546113fc90614905565b80156114495780601f1061141e57610100808354040283529160200191611449565b820191906000526020600020905b81548152906001019060200180831161142c57829003601f168201915b505050505081565b6000806001601b5414611499576040517f08c379a000000000000000000000000000000000000000000000000000000000815260040161149090614cdb565b60405180910390fd5b6000601b81905550600a60009054906101000a900473ffffffffffffffffffffffffffffffffffffffff1673ffffffffffffffffffffffffffffffffffffffff163373ffffffffffffffffffffffffffffffffffffffff1614611531576040517f08c379a000000000000000000000000000000000000000000000000000000000815260040161152890614d47565b60405180910390fd5b600f54831115611576576040517f08c379a000000000000000000000000000000000000000000000000000000000815260040161156d90614dd9565b60405180910390fd5b3073ffffffffffffffffffffffffffffffffffffffff16631d6f0ce26040518163ffffffff1660e01b81526004016020604051808303816000875af11580156115c3573d6000803e3d6000fd5b505050506040513d601f19601f820116820180604052508101906115e79190614acf565b506115f28330612603565b8092508193505050600760009054906101000a900473ffffffffffffffffffffffffffffffffffffffff1673ffffffffffffffffffffffffffffffffffffffff166370a08231306040518263ffffffff1660e01b815260040161165591906143c4565b602060405180830381865afa158015611672573d6000803e3d6000fd5b505050506040513d601f19601f820116820180604052508101906116969190614acf565b600f819055506116a78282856128ce565b6116d4600860009054906101000a900473ffffffffffffffffffffffffffffffffffffffff163384612922565b611701600960009054906101000a900473ffffffffffffffffffffffffffffffffffffffff163383612922565b7f93e4e55d4b6936c200e4cd9584bdf8ac1262c3e8b769aa5c0c4574dac1b2f7db82826040516117329291906146ac565b60405180910390a16001601b81905550915091565b600b5481565b600660009054906101000a900473ffffffffffffffffffffffffffffffffffffffff1681565b600080600a60009054906101000a900473ffffffffffffffffffffffffffffffffffffffff1673ffffffffffffffffffffffffffffffffffffffff163373ffffffffffffffffffffffffffffffffffffffff1614611806576040517f08c379a00000000000000000000000000000000000000000000000000000000081526004016117fd90614d47565b60405180910390fd5b60008311611849576040517f08c379a000000000000000000000000000000000000000000000000000000000815260040161184090614e45565b60405180910390fd5b3073ffffffffffffffffffffffffffffffffffffffff16631d6f0ce26040518163ffffffff1660e01b81526004016020604051808303816000875af1158015611896573d6000803e3d6000fd5b505050506040513d601f19601f820116820180604052508101906118ba9190614acf565b506000806118ea600760009054906101000a900473ffffffffffffffffffffffffffffffffffffffff1686612aac565b9150915060006118fd8383600080612ad6565b92505050600760009054906101000a900473ffffffffffffffffffffffffffffffffffffffff1673ffffffffffffffffffffffffffffffffffffffff166370a08231306040518263ffffffff1660e01b815260040161195c91906143c4565b602060405180830381865afa158015611979573d6000803e3d6000fd5b505050506040513d601f19601f8201168201806040525081019061199d9190614acf565b600f819055506119ad8682612f57565b6119fc600860009054906101000a900473ffffffffffffffffffffffffffffffffffffffff16600960009054906101000a900473ffffffffffffffffffffffffffffffffffffffff1630612fa1565b8095508196505050611a31600860009054906101000a900473ffffffffffffffffffffffffffffffffffffffff163387612922565b611a5e600960009054906101000a900473ffffffffffffffffffffffffffffffffffffffff163386612922565b505050915091565b60155481565b60135481565b600e5481565b6000611a8533848461212b565b6001905092915050565b6000803073ffffffffffffffffffffffffffffffffffffffff16634a417a536040518163ffffffff1660e01b8152600401602060405180830381865afa158015611add573d6000803e3d6000fd5b505050506040513d601f19601f82011682018060405250810190611b019190614acf565b90506015548111611b4157600060155460165483611b1f91906149e1565b611b299190614a6a565b905080601454611b399190614afc565b925050611bab565b600060155482611b519190614a9b565b90506000601554670de0b6b3a7640000611b6b9190614a9b565b905060008160175484611b7e91906149e1565b611b889190614a6a565b905080601654601454611b9b9190614afc565b611ba59190614afc565b94505050505b5090565b6103e881565b670de0b6b3a764000081565b600960009054906101000a900473ffffffffffffffffffffffffffffffffffffffff1681565b6000600560008473ffffffffffffffffffffffffffffffffffffffff1673ffffffffffffffffffffffffffffffffffffffff16815260200190815260200160002060008373ffffffffffffffffffffffffffffffffffffffff1673ffffffffffffffffffffffffffffffffffffffff16815260200190815260200160002054905092915050565b601a5481565b6000806000611c85888888886130a4565b8093508194505050611cbb600860009054906101000a900473ffffffffffffffffffffffffffffffffffffffff16333086613227565b611ce9600960009054906101000a900473ffffffffffffffffffffffffffffffffffffffff16333085613227565b611cf284613360565b9050955095509592505050565b60105481565b6000803073ffffffffffffffffffffffffffffffffffffffff166323b872dd3330896040518463ffffffff1660e01b8152600401611d4593929190614e65565b6020604051808303816000875af1158015611d64573d6000803e3d6000fd5b505050506040513d601f19601f82011682018060405250810190611d889190614c62565b50600080611d95856136e1565b9150915086841015611ddc576040517f08c379a0000000000000000000000000000000000000000000000000000000008152600401611dd390614f0e565b60405180910390fd5b85831015611e1f576040517f08c379a0000000000000000000000000000000000000000000000000000000008152600401611e1690614fa0565b60405180910390fd5b505094509492505050565b8060178190555050565b601860009054906101000a900473ffffffffffffffffffffffffffffffffffffffff1673ffffffffffffffffffffffffffffffffffffffff163373ffffffffffffffffffffffffffffffffffffffff1614611ec4576040517f08c379a0000000000000000000000000000000000000000000000000000000008152600401611ebb90614bc4565b60405180910390fd5b80601960006101000a81548173ffffffffffffffffffffffffffffffffffffffff021916908373ffffffffffffffffffffffffffffffffffffffff16021790555050565b60165481565b60125481565b6000808273ffffffffffffffffffffffffffffffffffffffff168473ffffffffffffffffffffffffffffffffffffffff1603611f85576040517f08c379a0000000000000000000000000000000000000000000000000000000008152600401611f7c90615032565b60405180910390fd5b8273ffffffffffffffffffffffffffffffffffffffff168473ffffffffffffffffffffffffffffffffffffffff1610611fbf578284611fc2565b83835b8092508193505050600073ffffffffffffffffffffffffffffffffffffffff168273ffffffffffffffffffffffffffffffffffffffff1603612039576040517f08c379a00000000000000000000000000000000000000000000000000000000081526004016120309061509e565b60405180910390fd5b9250929050565b80600560008573ffffffffffffffffffffffffffffffffffffffff1673ffffffffffffffffffffffffffffffffffffffff16815260200190815260200160002060008473ffffffffffffffffffffffffffffffffffffffff1673ffffffffffffffffffffffffffffffffffffffff168152602001908152602001600020819055508173ffffffffffffffffffffffffffffffffffffffff168373ffffffffffffffffffffffffffffffffffffffff167f8c5be1e5ebec7d5bd14f71427d1e84f3dd0314c0f7b2291e5b200ac8c7c3b9258360405161211e9190614595565b60405180910390a3505050565b80600460008573ffffffffffffffffffffffffffffffffffffffff1673ffffffffffffffffffffffffffffffffffffffff168152602001908152602001600020546121769190614a9b565b600460008573ffffffffffffffffffffffffffffffffffffffff1673ffffffffffffffffffffffffffffffffffffffff1681526020019081526020016000208190555080600460008473ffffffffffffffffffffffffffffffffffffffff1673ffffffffffffffffffffffffffffffffffffffff168152602001908152602001600020546122049190614afc565b600460008473ffffffffffffffffffffffffffffffffffffffff1673ffffffffffffffffffffffffffffffffffffffff168152602001908152602001600020819055508173ffffffffffffffffffffffffffffffffffffffff168373ffffffffffffffffffffffffffffffffffffffff167fddf252ad1be2c89b69c2b068fc378daa952ba7f163c4a11628f55a4df523b3ef836040516122a49190614595565b60405180910390a3505050565b60008060006122c08585611f14565b5090506000808773ffffffffffffffffffffffffffffffffffffffff16630902f1ac6040518163ffffffff1660e01b8152600401606060405180830381865afa158015612311573d6000803e3d6000fd5b505050506040513d601f19601f820116820180604052508101906123359190615140565b506dffffffffffffffffffffffffffff1691506dffffffffffffffffffffffffffff1691508273ffffffffffffffffffffffffffffffffffffffff168773ffffffffffffffffffffffffffffffffffffffff1614612394578082612397565b81815b8095508196505050505050935093915050565b60006123c8670de0b6b3a7640000836123c391906149e1565b613a01565b9050919050565b60008060008773ffffffffffffffffffffffffffffffffffffffff166318160ddd6040518163ffffffff1660e01b8152600401602060405180830381865afa15801561241f573d6000803e3d6000fd5b505050506040513d601f19601f820116820180604052508101906124439190614acf565b905080858861245291906149e1565b61245c9190614a6a565b925080858761246b91906149e1565b6124759190614a6a565b915060008411156124f157600061248b876123aa565b90506000612498896123aa565b905060008183886124a991906149e1565b6124b39190614a6a565b905060008383896124c491906149e1565b6124ce9190614a6a565b905080876124dc9190614afc565b965081866124ea9190614afc565b9550505050505b509550959350505050565b600061252d8686600660009054906101000a900473ffffffffffffffffffffffffffffffffffffffff168587613a7b565b9050600660009054906101000a900473ffffffffffffffffffffffffffffffffffffffff1673ffffffffffffffffffffffffffffffffffffffff166338ed1739848684867fffffffffffffffffffffffffffffffffffffffffffffffffffffffffffffffff6040518663ffffffff1660e01b81526004016125b2959493929190615251565b6000604051808303816000875af11580156125d1573d6000803e3d6000fd5b505050506040513d6000823e3d601f19601f820116820180604052508101906125fa91906153f3565b50505050505050565b600080600760009054906101000a900473ffffffffffffffffffffffffffffffffffffffff1673ffffffffffffffffffffffffffffffffffffffff1663dd62ed3e30600660009054906101000a900473ffffffffffffffffffffffffffffffffffffffff166040518363ffffffff1660e01b8152600401612685929190614be4565b602060405180830381865afa1580156126a2573d6000803e3d6000fd5b505050506040513d601f19601f820116820180604052508101906126c69190614acf565b8411156127b157600760009054906101000a900473ffffffffffffffffffffffffffffffffffffffff1673ffffffffffffffffffffffffffffffffffffffff1663095ea7b3600660009054906101000a900473ffffffffffffffffffffffffffffffffffffffff167fffffffffffffffffffffffffffffffffffffffffffffffffffffffffffffffff6040518363ffffffff1660e01b815260040161276c929190614c0d565b6020604051808303816000875af115801561278b573d6000803e3d6000fd5b505050506040513d601f19601f820116820180604052508101906127af9190614c62565b505b600660009054906101000a900473ffffffffffffffffffffffffffffffffffffffff1673ffffffffffffffffffffffffffffffffffffffff1663baa2abde600860009054906101000a900473ffffffffffffffffffffffffffffffffffffffff16600960009054906101000a900473ffffffffffffffffffffffffffffffffffffffff1687600080897fffffffffffffffffffffffffffffffffffffffffffffffffffffffffffffffff6040518863ffffffff1660e01b815260040161287d9796959493929190615481565b60408051808303816000875af115801561289b573d6000803e3d6000fd5b505050506040513d601f19601f820116820180604052508101906128bf91906154f0565b80925081935050509250929050565b806011546128dc9190614afc565b60118190555060006128ee8484613cc9565b90506000601054111561291457806010546129099190614afc565b60108190555061291c565b806010819055505b50505050565b6000808473ffffffffffffffffffffffffffffffffffffffff166040518060400160405280601981526020017f7472616e7366657228616464726573732c75696e74323536290000000000000081525080519060200120858560405160240161298c929190614c0d565b604051602081830303815290604052907bffffffffffffffffffffffffffffffffffffffffffffffffffffffff19166020820180517bffffffffffffffffffffffffffffffffffffffffffffffffffffffff83818316178352505050506040516129f69190615577565b6000604051808303816000865af19150503d8060008114612a33576040519150601f19603f3d011682016040523d82523d6000602084013e612a38565b606091505b5091509150818015612a665750600081511480612a65575080806020019051810190612a649190614c62565b5b5b612aa5576040517f08c379a0000000000000000000000000000000000000000000000000000000008152600401612a9c906155da565b60405180910390fd5b5050505050565b6000806000612aba85613ce7565b9050612ac68482613da8565b8093508194505050509250929050565b6000806000600860009054906101000a900473ffffffffffffffffffffffffffffffffffffffff1673ffffffffffffffffffffffffffffffffffffffff1663dd62ed3e30600660009054906101000a900473ffffffffffffffffffffffffffffffffffffffff166040518363ffffffff1660e01b8152600401612b5a929190614be4565b602060405180830381865afa158015612b77573d6000803e3d6000fd5b505050506040513d601f19601f82011682018060405250810190612b9b9190614acf565b871115612c8657600860009054906101000a900473ffffffffffffffffffffffffffffffffffffffff1673ffffffffffffffffffffffffffffffffffffffff1663095ea7b3600660009054906101000a900473ffffffffffffffffffffffffffffffffffffffff167fffffffffffffffffffffffffffffffffffffffffffffffffffffffffffffffff6040518363ffffffff1660e01b8152600401612c41929190614c0d565b6020604051808303816000875af1158015612c60573d6000803e3d6000fd5b505050506040513d601f19601f82011682018060405250810190612c849190614c62565b505b600960009054906101000a900473ffffffffffffffffffffffffffffffffffffffff1673ffffffffffffffffffffffffffffffffffffffff1663dd62ed3e30600660009054906101000a900473ffffffffffffffffffffffffffffffffffffffff166040518363ffffffff1660e01b8152600401612d05929190614be4565b602060405180830381865afa158015612d22573d6000803e3d6000fd5b505050506040513d601f19601f82011682018060405250810190612d469190614acf565b861115612e3157600960009054906101000a900473ffffffffffffffffffffffffffffffffffffffff1673ffffffffffffffffffffffffffffffffffffffff1663095ea7b3600660009054906101000a900473ffffffffffffffffffffffffffffffffffffffff167fffffffffffffffffffffffffffffffffffffffffffffffffffffffffffffffff6040518363ffffffff1660e01b8152600401612dec929190614c0d565b6020604051808303816000875af1158015612e0b573d6000803e3d6000fd5b505050506040513d601f19601f82011682018060405250810190612e2f9190614c62565b505b600660009054906101000a900473ffffffffffffffffffffffffffffffffffffffff1673ffffffffffffffffffffffffffffffffffffffff1663e8e33700600860009054906101000a900473ffffffffffffffffffffffffffffffffffffffff16600960009054906101000a900473ffffffffffffffffffffffffffffffffffffffff168a8a8a8a307fffffffffffffffffffffffffffffffffffffffffffffffffffffffffffffffff6040518963ffffffff1660e01b8152600401612efe9897969594939291906155fa565b6060604051808303816000875af1158015612f1d573d6000803e3d6000fd5b505050506040513d601f19601f82011682018060405250810190612f419190615678565b8093508194508295505050509450945094915050565b601154811115612f68576000612f77565b80601154612f769190614a9b565b5b60118190555060006010541115612f9d5781601054612f969190614a9b565b6010819055505b5050565b6000808473ffffffffffffffffffffffffffffffffffffffff166370a08231846040518263ffffffff1660e01b8152600401612fdd91906143c4565b602060405180830381865afa158015612ffa573d6000803e3d6000fd5b505050506040513d601f19601f8201168201806040525081019061301e9190614acf565b91508373ffffffffffffffffffffffffffffffffffffffff166370a08231846040518263ffffffff1660e01b815260040161305991906143c4565b602060405180830381865afa158015613076573d6000803e3d6000fd5b505050506040513d601f19601f8201168201806040525081019061309a9190614acf565b9050935093915050565b60008060008061311b600760009054906101000a900473ffffffffffffffffffffffffffffffffffffffff16600860009054906101000a900473ffffffffffffffffffffffffffffffffffffffff16600960009054906101000a900473ffffffffffffffffffffffffffffffffffffffff166122b1565b9150915060008214801561312f5750600081145b15613143578787809450819550505061321c565b6000613150898484613e00565b90508781116131ab578581101561319c576040517f08c379a000000000000000000000000000000000000000000000000000000000815260040161319390614fa0565b60405180910390fd5b8881809550819650505061321a565b60006131b8898486613e00565b9050898111156131cb576131ca6156cb565b5b8781101561320e576040517f08c379a000000000000000000000000000000000000000000000000000000000815260040161320590614f0e565b60405180910390fd5b80898096508197505050505b505b505094509492505050565b6000808573ffffffffffffffffffffffffffffffffffffffff166323b872dd86868660405160240161325b93929190614e65565b6040516020818303038152906040529060e01b6020820180517bffffffffffffffffffffffffffffffffffffffffffffffffffffffff83818316178352505050506040516132a99190615577565b6000604051808303816000865af19150503d80600081146132e6576040519150601f19603f3d011682016040523d82523d6000602084013e6132eb565b606091505b509150915081801561331957506000815114806133185750808060200190518101906133179190614c62565b5b5b613358576040517f08c379a000000000000000000000000000000000000000000000000000000000815260040161334f9061576c565b60405180910390fd5b505050505050565b60006001601b54146133a7576040517f08c379a000000000000000000000000000000000000000000000000000000000815260040161339e90614cdb565b60405180910390fd5b6000601b81905550600080613401600860009054906101000a900473ffffffffffffffffffffffffffffffffffffffff16600960009054906101000a900473ffffffffffffffffffffffffffffffffffffffff1630612fa1565b915091503073ffffffffffffffffffffffffffffffffffffffff16631d6f0ce26040518163ffffffff1660e01b81526004016020604051808303816000875af1158015613452573d6000803e3d6000fd5b505050506040513d601f19601f820116820180604052508101906134769190614acf565b506000806000806134ee600760009054906101000a900473ffffffffffffffffffffffffffffffffffffffff16600860009054906101000a900473ffffffffffffffffffffffffffffffffffffffff16600960009054906101000a900473ffffffffffffffffffffffffffffffffffffffff166122b1565b9150915060006003549050600081111561353e57613535600760009054906101000a900473ffffffffffffffffffffffffffffffffffffffff168484600f546010546123cf565b80955081965050505b6000806000891180156135515750600088115b15613570576135638989600080612ad6565b809c508193508294505050505b600760009054906101000a900473ffffffffffffffffffffffffffffffffffffffff1673ffffffffffffffffffffffffffffffffffffffff166370a08231306040518263ffffffff1660e01b81526004016135cb91906143c4565b602060405180830381865afa1580156135e8573d6000803e3d6000fd5b505050506040513d601f19601f8201168201806040525081019061360c9190614acf565b600f8190555060008303613645576103e86136278383613cc9565b6136319190614a9b565b995061364060006103e8613eb3565b61367e565b61367b87848461365591906149e1565b61365f9190614a6a565b87858461366c91906149e1565b6136769190614a6a565b613fbf565b99505b60008a116136c1576040517f08c379a00000000000000000000000000000000000000000000000000000000081526004016136b8906157fe565b60405180910390fd5b6136cb8b8b613eb3565b5050505050505050506001601b81905550919050565b6000806001601b5414613729576040517f08c379a000000000000000000000000000000000000000000000000000000000815260040161372090614cdb565b60405180910390fd5b6000601b819055503073ffffffffffffffffffffffffffffffffffffffff16631d6f0ce26040518163ffffffff1660e01b81526004016020604051808303816000875af115801561377e573d6000803e3d6000fd5b505050506040513d601f19601f820116820180604052508101906137a29190614acf565b506000600460003073ffffffffffffffffffffffffffffffffffffffff1673ffffffffffffffffffffffffffffffffffffffff1681526020019081526020016000205490506000806137f383613fd3565b915091506000821180156138075750600081115b613846576040517f08c379a000000000000000000000000000000000000000000000000000000000815260040161383d90615890565b60405180910390fd5b6000613852838361410e565b9050600760009054906101000a900473ffffffffffffffffffffffffffffffffffffffff1673ffffffffffffffffffffffffffffffffffffffff166370a08231306040518263ffffffff1660e01b81526004016138af91906143c4565b602060405180830381865afa1580156138cc573d6000803e3d6000fd5b505050506040513d601f19601f820116820180604052508101906138f09190614acf565b811115613932576040517f08c379a000000000000000000000000000000000000000000000000000000000815260040161392990615922565b60405180910390fd5b61393c8188612603565b8096508197505050600760009054906101000a900473ffffffffffffffffffffffffffffffffffffffff1673ffffffffffffffffffffffffffffffffffffffff166370a08231306040518263ffffffff1660e01b815260040161399f91906143c4565b602060405180830381865afa1580156139bc573d6000803e3d6000fd5b505050506040513d601f19601f820116820180604052508101906139e09190614acf565b600f819055506139f0308561425e565b505050506001601b81905550915091565b60006003821115613a685781905060006001600284613a209190614a6a565b613a2a9190614afc565b90505b81811015613a62578091506002818285613a479190614a6a565b613a519190614afc565b613a5b9190614a6a565b9050613a2d565b50613a76565b60008214613a7557600190505b5b919050565b6060600267ffffffffffffffff811115613a9857613a976152b0565b5b604051908082528060200260200182016040528015613ac65781602001602082028036833780820191505090505b5090508581600081518110613ade57613add615942565b5b602002602001019073ffffffffffffffffffffffffffffffffffffffff16908173ffffffffffffffffffffffffffffffffffffffff16815250508481600181518110613b2d57613b2c615942565b5b602002602001019073ffffffffffffffffffffffffffffffffffffffff16908173ffffffffffffffffffffffffffffffffffffffff168152505080600081518110613b7b57613b7a615942565b5b602002602001015173ffffffffffffffffffffffffffffffffffffffff1663dd62ed3e84866040518363ffffffff1660e01b8152600401613bbd929190614be4565b602060405180830381865afa158015613bda573d6000803e3d6000fd5b505050506040513d601f19601f82011682018060405250810190613bfe9190614acf565b821115613cc05780600081518110613c1957613c18615942565b5b602002602001015173ffffffffffffffffffffffffffffffffffffffff1663095ea7b3857fffffffffffffffffffffffffffffffffffffffffffffffffffffffffffffffff6040518363ffffffff1660e01b8152600401613c7b929190614c0d565b6020604051808303816000875af1158015613c9a573d6000803e3d6000fd5b505050506040513d601f19601f82011682018060405250810190613cbe9190614c62565b505b95945050505050565b6000613cdf8284613cda91906149e1565b613a01565b905092915050565b60008060008373ffffffffffffffffffffffffffffffffffffffff16630902f1ac6040518163ffffffff1660e01b8152600401606060405180830381865afa158015613d37573d6000803e3d6000fd5b505050506040513d601f19601f82011682018060405250810190613d5b9190615140565b506dffffffffffffffffffffffffffff1691506dffffffffffffffffffffffffffff16915081670de0b6b3a764000082613d9591906149e1565b613d9f9190614a6a565b92505050919050565b6000806000613db6846123aa565b90506000670de0b6b3a76400009050818187613dd291906149e1565b613ddc9190614a6a565b9350808287613deb91906149e1565b613df59190614a6a565b925050509250929050565b6000808411613e44576040517f08c379a0000000000000000000000000000000000000000000000000000000008152600401613e3b906159e3565b60405180910390fd5b600083118015613e545750600082115b613e93576040517f08c379a0000000000000000000000000000000000000000000000000000000008152600401613e8a90615a75565b60405180910390fd5b828285613ea091906149e1565b613eaa9190614a6a565b90509392505050565b80600354613ec19190614afc565b60038190555080600460008473ffffffffffffffffffffffffffffffffffffffff1673ffffffffffffffffffffffffffffffffffffffff16815260200190815260200160002054613f129190614afc565b600460008473ffffffffffffffffffffffffffffffffffffffff1673ffffffffffffffffffffffffffffffffffffffff168152602001908152602001600020819055508173ffffffffffffffffffffffffffffffffffffffff16600073ffffffffffffffffffffffffffffffffffffffff167fddf252ad1be2c89b69c2b068fc378daa952ba7f163c4a11628f55a4df523b3ef83604051613fb39190614595565b60405180910390a35050565b6000613fcb838361436a565b905092915050565b60008060008061404a600860009054906101000a900473ffffffffffffffffffffffffffffffffffffffff16600960009054906101000a900473ffffffffffffffffffffffffffffffffffffffff16600760009054906101000a900473ffffffffffffffffffffffffffffffffffffffff16612fa1565b91509150600080614084600760009054906101000a900473ffffffffffffffffffffffffffffffffffffffff168585600f546010546123cf565b9150915060006003549050600081116140d2576040517f08c379a00000000000000000000000000000000000000000000000000000000081526004016140c990615922565b60405180910390fd5b8083896140df91906149e1565b6140e99190614a6a565b96508082896140f891906149e1565b6141029190614a6a565b95505050505050915091565b6000806000614184600760009054906101000a900473ffffffffffffffffffffffffffffffffffffffff16600860009054906101000a900473ffffffffffffffffffffffffffffffffffffffff16600960009054906101000a900473ffffffffffffffffffffffffffffffffffffffff166122b1565b915091506000600760009054906101000a900473ffffffffffffffffffffffffffffffffffffffff1673ffffffffffffffffffffffffffffffffffffffff166318160ddd6040518163ffffffff1660e01b8152600401602060405180830381865afa1580156141f7573d6000803e3d6000fd5b505050506040513d601f19601f8201168201806040525081019061421b9190614acf565b905061425383828861422d91906149e1565b6142379190614a6a565b83838861424491906149e1565b61424e9190614a6a565b613fbf565b935050505092915050565b80600460008473ffffffffffffffffffffffffffffffffffffffff1673ffffffffffffffffffffffffffffffffffffffff168152602001908152602001600020546142a99190614a9b565b600460008473ffffffffffffffffffffffffffffffffffffffff1673ffffffffffffffffffffffffffffffffffffffff16815260200190815260200160002081905550806003546142fa9190614a9b565b600381905550600073ffffffffffffffffffffffffffffffffffffffff168273ffffffffffffffffffffffffffffffffffffffff167fddf252ad1be2c89b69c2b068fc378daa952ba7f163c4a11628f55a4df523b3ef8360405161435e9190614595565b60405180910390a35050565b6000818310614379578161437b565b825b905092915050565b600073ffffffffffffffffffffffffffffffffffffffff82169050919050565b60006143ae82614383565b9050919050565b6143be816143a3565b82525050565b60006020820190506143d960008301846143b5565b92915050565b600081519050919050565b600082825260208201905092915050565b60005b838110156144195780820151818401526020810190506143fe565b83811115614428576000848401525b50505050565b6000601f19601f8301169050919050565b600061444a826143df565b61445481856143ea565b93506144648185602086016143fb565b61446d8161442e565b840191505092915050565b60006020820190508181036000830152614492818461443f565b905092915050565b6000604051905090565b600080fd5b600080fd5b6144b7816143a3565b81146144c257600080fd5b50565b6000813590506144d4816144ae565b92915050565b6000819050919050565b6144ed816144da565b81146144f857600080fd5b50565b60008135905061450a816144e4565b92915050565b60008060408385031215614527576145266144a4565b5b6000614535858286016144c5565b9250506020614546858286016144fb565b9150509250929050565b60008115159050919050565b61456581614550565b82525050565b6000602082019050614580600083018461455c565b92915050565b61458f816144da565b82525050565b60006020820190506145aa6000830184614586565b92915050565b6000602082840312156145c6576145c56144a4565b5b60006145d4848285016144fb565b91505092915050565b6000806000606084860312156145f6576145f56144a4565b5b6000614604868287016144c5565b9350506020614615868287016144c5565b9250506040614626868287016144fb565b9150509250925092565b600060ff82169050919050565b61464681614630565b82525050565b6000602082019050614661600083018461463d565b92915050565b600060808201905061467c6000830187614586565b6146896020830186614586565b6146966040830185614586565b6146a36060830184614586565b95945050505050565b60006040820190506146c16000830185614586565b6146ce6020830184614586565b9392505050565b6000602082840312156146eb576146ea6144a4565b5b60006146f9848285016144c5565b91505092915050565b600080600080600060a0868803121561471e5761471d6144a4565b5b600061472c888289016144c5565b955050602061473d888289016144c5565b945050604061474e888289016144fb565b935050606061475f888289016144fb565b9250506080614770888289016144c5565b9150509295509295909350565b60008060408385031215614794576147936144a4565b5b60006147a2858286016144c5565b92505060206147b3858286016144c5565b9150509250929050565b600080600080600060a086880312156147d9576147d86144a4565b5b60006147e7888289016144fb565b95505060206147f8888289016144fb565b9450506040614809888289016144fb565b935050606061481a888289016144fb565b925050608061482b888289016144c5565b9150509295509295909350565b600060608201905061484d6000830186614586565b61485a6020830185614586565b6148676040830184614586565b949350505050565b60008060008060808587031215614889576148886144a4565b5b6000614897878288016144fb565b94505060206148a8878288016144fb565b93505060406148b9878288016144fb565b92505060606148ca878288016144c5565b91505092959194509250565b7f4e487b7100000000000000000000000000000000000000000000000000000000600052602260045260246000fd5b6000600282049050600182168061491d57607f821691505b6020821081036149305761492f6148d6565b5b50919050565b600081519050614945816144e4565b92915050565b60008060008060808587031215614965576149646144a4565b5b600061497387828801614936565b945050602061498487828801614936565b935050604061499587828801614936565b92505060606149a687828801614936565b91505092959194509250565b7f4e487b7100000000000000000000000000000000000000000000000000000000600052601160045260246000fd5b60006149ec826144da565b91506149f7836144da565b9250817fffffffffffffffffffffffffffffffffffffffffffffffffffffffffffffffff0483118215151615614a3057614a2f6149b2565b5b828202905092915050565b7f4e487b7100000000000000000000000000000000000000000000000000000000600052601260045260246000fd5b6000614a75826144da565b9150614a80836144da565b925082614a9057614a8f614a3b565b5b828204905092915050565b6000614aa6826144da565b9150614ab1836144da565b925082821015614ac457614ac36149b2565b5b828203905092915050565b600060208284031215614ae557614ae46144a4565b5b6000614af384828501614936565b91505092915050565b6000614b07826144da565b9150614b12836144da565b9250827fffffffffffffffffffffffffffffffffffffffffffffffffffffffffffffffff03821115614b4757614b466149b2565b5b828201905092915050565b7f4465706f736974506f6f6c3a205345545f4645455f544f5f464f52424944444560008201527f4e00000000000000000000000000000000000000000000000000000000000000602082015250565b6000614bae6021836143ea565b9150614bb982614b52565b604082019050919050565b60006020820190508181036000830152614bdd81614ba1565b9050919050565b6000604082019050614bf960008301856143b5565b614c0660208301846143b5565b9392505050565b6000604082019050614c2260008301856143b5565b614c2f6020830184614586565b9392505050565b614c3f81614550565b8114614c4a57600080fd5b50565b600081519050614c5c81614c36565b92915050565b600060208284031215614c7857614c776144a4565b5b6000614c8684828501614c4d565b91505092915050565b7f4465706f736974506f6f6c3a204c4f434b454400000000000000000000000000600082015250565b6000614cc56013836143ea565b9150614cd082614c8f565b602082019050919050565b60006020820190508181036000830152614cf481614cb8565b9050919050565b7f4465706f736974506f6f6c3a20464f5242494444454e00000000000000000000600082015250565b6000614d316016836143ea565b9150614d3c82614cfb565b602082019050919050565b60006020820190508181036000830152614d6081614d24565b9050919050565b7f4465706f736974506f6f6c3a20494e53554646494349454e545f4c495155494460008201527f4954595f494e5f43504d00000000000000000000000000000000000000000000602082015250565b6000614dc3602a836143ea565b9150614dce82614d67565b604082019050919050565b60006020820190508181036000830152614df281614db6565b9050919050565b7f566567617377617056313a204c49515549444954595f49535f5a45524f000000600082015250565b6000614e2f601d836143ea565b9150614e3a82614df9565b602082019050919050565b60006020820190508181036000830152614e5e81614e22565b9050919050565b6000606082019050614e7a60008301866143b5565b614e8760208301856143b5565b614e946040830184614586565b949350505050565b7f4465706f736974506f6f6c3a20494e53554646494349454e545f415f414d4f5560008201527f4e54000000000000000000000000000000000000000000000000000000000000602082015250565b6000614ef86022836143ea565b9150614f0382614e9c565b604082019050919050565b60006020820190508181036000830152614f2781614eeb565b9050919050565b7f4465706f736974506f6f6c3a20494e53554646494349454e545f425f414d4f5560008201527f4e54000000000000000000000000000000000000000000000000000000000000602082015250565b6000614f8a6022836143ea565b9150614f9582614f2e565b604082019050919050565b60006020820190508181036000830152614fb981614f7d565b9050919050565b7f47616d6d61737761704c6962726172793a204944454e544943414c5f4144445260008201527f4553534553000000000000000000000000000000000000000000000000000000602082015250565b600061501c6025836143ea565b915061502782614fc0565b604082019050919050565b6000602082019050818103600083015261504b8161500f565b9050919050565b7f47616d6d61737761704c6962726172793a205a45524f5f414444524553530000600082015250565b6000615088601e836143ea565b915061509382615052565b602082019050919050565b600060208201905081810360008301526150b78161507b565b9050919050565b60006dffffffffffffffffffffffffffff82169050919050565b6150e1816150be565b81146150ec57600080fd5b50565b6000815190506150fe816150d8565b92915050565b600063ffffffff82169050919050565b61511d81615104565b811461512857600080fd5b50565b60008151905061513a81615114565b92915050565b600080600060608486031215615159576151586144a4565b5b6000615167868287016150ef565b9350506020615178868287016150ef565b92505060406151898682870161512b565b9150509250925092565b600081519050919050565b600082825260208201905092915050565b6000819050602082019050919050565b6151c8816143a3565b82525050565b60006151da83836151bf565b60208301905092915050565b6000602082019050919050565b60006151fe82615193565b615208818561519e565b9350615213836151af565b8060005b8381101561524457815161522b88826151ce565b9750615236836151e6565b925050600181019050615217565b5085935050505092915050565b600060a0820190506152666000830188614586565b6152736020830187614586565b818103604083015261528581866151f3565b905061529460608301856143b5565b6152a16080830184614586565b9695505050505050565b600080fd5b7f4e487b7100000000000000000000000000000000000000000000000000000000600052604160045260246000fd5b6152e88261442e565b810181811067ffffffffffffffff82111715615307576153066152b0565b5b80604052505050565b600061531a61449a565b905061532682826152df565b919050565b600067ffffffffffffffff821115615346576153456152b0565b5b602082029050602081019050919050565b600080fd5b600061536f61536a8461532b565b615310565b9050808382526020820190506020840283018581111561539257615391615357565b5b835b818110156153bb57806153a78882614936565b845260208401935050602081019050615394565b5050509392505050565b600082601f8301126153da576153d96152ab565b5b81516153ea84826020860161535c565b91505092915050565b600060208284031215615409576154086144a4565b5b600082015167ffffffffffffffff811115615427576154266144a9565b5b615433848285016153c5565b91505092915050565b6000819050919050565b6000819050919050565b600061546b6154666154618461543c565b615446565b6144da565b9050919050565b61547b81615450565b82525050565b600060e082019050615496600083018a6143b5565b6154a360208301896143b5565b6154b06040830188614586565b6154bd6060830187615472565b6154ca6080830186615472565b6154d760a08301856143b5565b6154e460c0830184614586565b98975050505050505050565b60008060408385031215615507576155066144a4565b5b600061551585828601614936565b925050602061552685828601614936565b9150509250929050565b600081519050919050565b600081905092915050565b600061555182615530565b61555b818561553b565b935061556b8185602086016143fb565b80840191505092915050565b60006155838284615546565b915081905092915050565b7f4465706f736974506f6f6c3a205452414e534645525f4641494c454400000000600082015250565b60006155c4601c836143ea565b91506155cf8261558e565b602082019050919050565b600060208201905081810360008301526155f3816155b7565b9050919050565b600061010082019050615610600083018b6143b5565b61561d602083018a6143b5565b61562a6040830189614586565b6156376060830188614586565b6156446080830187614586565b61565160a0830186614586565b61565e60c08301856143b5565b61566b60e0830184614586565b9998505050505050505050565b600080600060608486031215615691576156906144a4565b5b600061569f86828701614936565b93505060206156b086828701614936565b92505060406156c186828701614936565b9150509250925092565b7f4e487b7100000000000000000000000000000000000000000000000000000000600052600160045260246000fd5b7f5472616e7366657248656c7065723a205452414e534645525f46524f4d5f464160008201527f494c454400000000000000000000000000000000000000000000000000000000602082015250565b60006157566024836143ea565b9150615761826156fa565b604082019050919050565b6000602082019050818103600083015261578581615749565b9050919050565b7f4465706f736974506f6f6c3a20494e53554646494349454e545f4c495155494460008201527f4954595f4d494e54454400000000000000000000000000000000000000000000602082015250565b60006157e8602a836143ea565b91506157f38261578c565b604082019050919050565b60006020820190508181036000830152615817816157db565b9050919050565b7f4465706f736974506f6f6c3a20494e53554646494349454e545f4c495155494460008201527f4954595f4255524e454400000000000000000000000000000000000000000000602082015250565b600061587a602a836143ea565b91506158858261581e565b604082019050919050565b600060208201905081810360008301526158a98161586d565b9050919050565b7f4465706f736974506f6f6c3a20494e53554646494349454e545f554e495f4c4960008201527f515549444954595f415641494c41424c45000000000000000000000000000000602082015250565b600061590c6031836143ea565b9150615917826158b0565b604082019050919050565b6000602082019050818103600083015261593b816158ff565b9050919050565b7f4e487b7100000000000000000000000000000000000000000000000000000000600052603260045260246000fd5b7f47616d6d61737761704c6962726172793a20494e53554646494349454e545f4160008201527f4d4f554e54000000000000000000000000000000000000000000000000000000602082015250565b60006159cd6025836143ea565b91506159d882615971565b604082019050919050565b600060208201905081810360008301526159fc816159c0565b9050919050565b7f47616d6d617377617056314c6962726172793a20494e53554646494349454e5460008201527f5f4c495155494449545900000000000000000000000000000000000000000000602082015250565b6000615a5f602a836143ea565b9150615a6a82615a03565b604082019050919050565b60006020820190508181036000830152615a8e81615a52565b905091905056fea26469706673582212202ee7d0e4568e7d8f3f96c71519716fe38d33cde698341111fd01b85d90ae596364736f6c634300080e0033",
  "immutableReferences": {},
  "source": "// SPDX-License-Identifier: GPL-2.0-or-later\npragma solidity ^0.8.0;\n\nimport \"../DepositPool.sol\";\n\ncontract TestDepositPool is DepositPool {\n\n    constructor(address _uniRouter, address _uniPair, address _token0, address _token1, address _positionManager)\n        DepositPool(_uniRouter, _uniPair, _token0, _token1, _positionManager) {\n    }\n\n    function setBaseRate(uint256 baseRate) public {\n        BASE_RATE = baseRate;\n    }\n\n    function setOptimalUtilizationRate(uint256 optimalUtilizationRate) public {\n        OPTIMAL_UTILIZATION_RATE = optimalUtilizationRate;\n    }\n\n    function setSlope1(uint256 slope1) public {\n        SLOPE1 = slope1;\n    }\n\n    function setSlope2(uint256 slope2) public {\n        SLOPE2 = slope2;\n    }\n\n    function swapExactTokens4Tokens(address _token0, address _token1, uint256 amount, uint256 amountOutMin, address recipient) public {\n        //address _uniRouter = IVegaswapV1Factory(factory).uniRouter();\n        if(amount > IERC20(_token0).allowance(address(this), uniRouter)) {\n            IERC20(_token0).approve(uniRouter, type(uint).max);\n        }\n        swapExactTokensForTokens(_token0, _token1, amountOutMin, amount, recipient);/**/\n    }\n}\n",
  "sourcePath": "/Users/danielalcarraz/Documents/workspace/gammaswap/src/contracts/test/TestDepositPool.sol",
  "compiler": {
    "name": "solc",
    "version": "0.8.14+commit.80d49f37.Emscripten.clang"
  },
  "schemaVersion": "3.3.3",
  "updatedAt": "2022-05-22T08:46:07.676Z",
  "networkType": "ethereum",
  "devdoc": {
    "kind": "dev",
    "methods": {
      "allowance(address,address)": {
        "details": "Returns the remaining number of tokens that `spender` will be allowed to spend on behalf of `owner` through {transferFrom}. This is zero by default. This value changes when {approve} or {transferFrom} are called."
      },
      "balanceOf(address)": {
        "details": "Returns the amount of tokens owned by `account`."
      }
    },
    "version": 1
  },
  "userdoc": {
    "kind": "user",
    "methods": {
      "openPosition(uint256)": {
        "notice": "TODO: The attack is borrow large sum, depress the price of token0, then deposit token1 to use up all the pool liquidity then trade back up to recover loaned out funds and make a profit in the IL Come up with an equation to show that this can't be gamed with a flash loan. It can be gamed but the issue only affects the less steep part of the uniswap curve. Issue could be resolved with a small fee. But the same issue could affect suppliers. If that's the case the other solution is using a fee based on a TWAP. Say deposits are measured based on an UNI TWAP rather than the spot price. Same for opening positions. Come up with a math formula to explain this attack"
      }
    },
    "version": 1
  }
}