{
  "_format": "hh-sol-artifact-1",
  "contractName": "CPMMProtocol",
  "sourceName": "contracts/protocols/CPMMProtocol.sol",
  "abi": [
    {
      "inputs": [
        {
          "internalType": "address",
          "name": "gsFactory",
          "type": "address"
        },
        {
          "internalType": "address",
          "name": "_factory",
          "type": "address"
        },
        {
          "internalType": "uint24",
          "name": "_protocol",
          "type": "uint24"
        },
        {
          "internalType": "bytes32",
          "name": "_initCodeHash",
          "type": "bytes32"
        },
        {
          "internalType": "uint16",
          "name": "_tradingFee1",
          "type": "uint16"
        },
        {
          "internalType": "uint16",
          "name": "_tradingFee2",
          "type": "uint16"
        },
        {
          "internalType": "uint256",
          "name": "_baseRate",
          "type": "uint256"
        },
        {
          "internalType": "uint256",
          "name": "_optimalUtilRate",
          "type": "uint256"
        },
        {
          "internalType": "uint256",
          "name": "_slope1",
          "type": "uint256"
        },
        {
          "internalType": "uint256",
          "name": "_slope2",
          "type": "uint256"
        }
      ],
      "stateMutability": "nonpayable",
      "type": "constructor"
    },
    {
      "inputs": [],
      "name": "baseRate",
      "outputs": [
        {
          "internalType": "uint256",
          "name": "",
          "type": "uint256"
        }
      ],
      "stateMutability": "view",
      "type": "function"
    },
    {
      "inputs": [],
      "name": "factory",
      "outputs": [
        {
          "internalType": "address",
          "name": "",
          "type": "address"
        }
      ],
      "stateMutability": "view",
      "type": "function"
    },
    {
      "inputs": [],
      "name": "initCodeHash",
      "outputs": [
        {
          "internalType": "bytes32",
          "name": "",
          "type": "bytes32"
        }
      ],
      "stateMutability": "view",
      "type": "function"
    },
    {
      "inputs": [
        {
          "internalType": "bytes",
          "name": "pData",
          "type": "bytes"
        },
        {
          "internalType": "bytes",
          "name": "sData",
          "type": "bytes"
        },
        {
          "internalType": "bytes",
          "name": "rData",
          "type": "bytes"
        }
      ],
      "name": "initialize",
      "outputs": [
        {
          "internalType": "bool",
          "name": "",
          "type": "bool"
        }
      ],
      "stateMutability": "nonpayable",
      "type": "function"
    },
    {
      "inputs": [],
      "name": "longStrategy",
      "outputs": [
        {
          "internalType": "address",
          "name": "",
          "type": "address"
        }
      ],
      "stateMutability": "view",
      "type": "function"
    },
    {
      "inputs": [],
      "name": "optimalUtilRate",
      "outputs": [
        {
          "internalType": "uint256",
          "name": "",
          "type": "uint256"
        }
      ],
      "stateMutability": "view",
      "type": "function"
    },
    {
      "inputs": [],
      "name": "owner",
      "outputs": [
        {
          "internalType": "address",
          "name": "",
          "type": "address"
        }
      ],
      "stateMutability": "view",
      "type": "function"
    },
    {
      "inputs": [],
      "name": "parameters",
      "outputs": [
        {
          "internalType": "bytes",
          "name": "pParams",
          "type": "bytes"
        },
        {
          "internalType": "bytes",
          "name": "sParams",
          "type": "bytes"
        },
        {
          "internalType": "bytes",
          "name": "rParams",
          "type": "bytes"
        }
      ],
      "stateMutability": "view",
      "type": "function"
    },
    {
      "inputs": [],
      "name": "protocol",
      "outputs": [
        {
          "internalType": "uint24",
          "name": "",
          "type": "uint24"
        }
      ],
      "stateMutability": "view",
      "type": "function"
    },
    {
      "inputs": [],
      "name": "shortStrategy",
      "outputs": [
        {
          "internalType": "address",
          "name": "",
          "type": "address"
        }
      ],
      "stateMutability": "view",
      "type": "function"
    },
    {
      "inputs": [],
      "name": "slope1",
      "outputs": [
        {
          "internalType": "uint256",
          "name": "",
          "type": "uint256"
        }
      ],
      "stateMutability": "view",
      "type": "function"
    },
    {
      "inputs": [],
      "name": "slope2",
      "outputs": [
        {
          "internalType": "uint256",
          "name": "",
          "type": "uint256"
        }
      ],
      "stateMutability": "view",
      "type": "function"
    },
    {
      "inputs": [],
      "name": "tradingFee1",
      "outputs": [
        {
          "internalType": "uint16",
          "name": "",
          "type": "uint16"
        }
      ],
      "stateMutability": "view",
      "type": "function"
    },
    {
      "inputs": [],
      "name": "tradingFee2",
      "outputs": [
        {
          "internalType": "uint16",
          "name": "",
          "type": "uint16"
        }
      ],
      "stateMutability": "view",
      "type": "function"
    },
    {
      "inputs": [
        {
          "internalType": "address[]",
          "name": "_tokens",
          "type": "address[]"
        },
        {
          "internalType": "address",
          "name": "_cfmm",
          "type": "address"
        }
      ],
      "name": "validateCFMM",
      "outputs": [
        {
          "internalType": "address[]",
          "name": "tokens",
          "type": "address[]"
        },
        {
          "internalType": "bytes32",
          "name": "key",
          "type": "bytes32"
        }
      ],
      "stateMutability": "view",
      "type": "function"
    }
  ],
  "bytecode": "0x60a06040523480156200001157600080fd5b506040516200d0e33803806200d0e3833981810160405281019062000037919062000737565b8973ffffffffffffffffffffffffffffffffffffffff1660808173ffffffffffffffffffffffffffffffffffffffff1660601b8152505062000087898888886200016760201b62000d031760201c565b620000a0848484846200028460201b62000e151760201c565b6000620000b26200033b60201b60201c565b90506000620000c66200041160201b60201c565b9050620001558a8383604051620000dd90620006a8565b620000ea929190620009f2565b604051809103906000f08015801562000107573d6000803e3d6000fd5b5084846040516200011890620006b6565b62000125929190620009f2565b604051809103906000f08015801562000142573d6000803e3d6000fd5b5033620004a460201b62000ec11760201c565b50505050505050505050505062000c19565b6000620001796200062160201b60201c565b9050600015158160020160049054906101000a900460ff16151514620001d6576040517f08c379a0000000000000000000000000000000000000000000000000000000008152600401620001cd9062000a2d565b60405180910390fd5b60018160020160046101000a81548160ff021916908315150217905550848160000160006101000a81548173ffffffffffffffffffffffffffffffffffffffff021916908373ffffffffffffffffffffffffffffffffffffffff160217905550838160010181905550828160020160006101000a81548161ffff021916908361ffff160217905550818160020160026101000a81548161ffff021916908361ffff1602179055505050505050565b6000620002966200064e60201b60201c565b9050600015158160060160009054906101000a900460ff16151514620002f3576040517f08c379a0000000000000000000000000000000000000000000000000000000008152600401620002ea9062000a2d565b60405180910390fd5b670de0b6b3a7640000816000018190555062225f1b81600101819055508481600201819055508381600301819055508281600401819055508181600401819055505050505050565b60606000620003546200062160201b620010331760201c565b90506040518060a001604052808260000160009054906101000a900473ffffffffffffffffffffffffffffffffffffffff1673ffffffffffffffffffffffffffffffffffffffff168152602001826001015481526020018260020160009054906101000a900461ffff1661ffff1681526020018260020160029054906101000a900461ffff1661ffff16815260200160001515815250604051602001620003fc919062000a6c565b60405160208183030381529060405291505090565b606060006200042a6200064e60201b620010601760201c565b90506040518060e00160405280670de0b6b3a7640000815260200162225f1b815260200182600201548152602001826003015481526020018260040154815260200182600501548152602001600015158152506040516020016200048f919062000a4f565b60405160208183030381529060405291505090565b6000620004b66200067b60201b60201c565b9050600015158160020160149054906101000a900460ff1615151462000513576040517f08c379a00000000000000000000000000000000000000000000000000000000081526004016200050a9062000a2d565b60405180910390fd5b60018160020160146101000a81548160ff021916908315150217905550848160000160006101000a81548162ffffff021916908362ffffff160217905550838160010160006101000a81548173ffffffffffffffffffffffffffffffffffffffff021916908373ffffffffffffffffffffffffffffffffffffffff160217905550828160020160006101000a81548173ffffffffffffffffffffffffffffffffffffffff021916908373ffffffffffffffffffffffffffffffffffffffff160217905550818160000160036101000a81548173ffffffffffffffffffffffffffffffffffffffff021916908373ffffffffffffffffffffffffffffffffffffffff1602179055505050505050565b6000807f1824a6532b5d85d82567e9f940dc3b06cad7da947e0716640ca7178dbfe30d6790508091505090565b6000807f1f5edbb2e428ca6eb959239e349ecf9840113efe584c1ea9dd664eb95b39c10b90508091505090565b6000807f2c59ba2292030859ee5b20bae61c0477068bc838c2601437ce455039911f548f90508091505090565b6153de8062002b5183390190565b6151b48062007f2f83390190565b600081519050620006d58162000b97565b92915050565b600081519050620006ec8162000bb1565b92915050565b600081519050620007038162000bcb565b92915050565b6000815190506200071a8162000be5565b92915050565b600081519050620007318162000bff565b92915050565b6000806000806000806000806000806101408b8d0312156200075857600080fd5b6000620007688d828e01620006c4565b9a505060206200077b8d828e01620006c4565b99505060406200078e8d828e0162000709565b9850506060620007a18d828e01620006db565b9750506080620007b48d828e01620006f2565b96505060a0620007c78d828e01620006f2565b95505060c0620007da8d828e0162000720565b94505060e0620007ed8d828e0162000720565b935050610100620008018d828e0162000720565b925050610120620008158d828e0162000720565b9150509295989b9194979a5092959850565b620008328162000ab6565b82525050565b620008438162000aca565b82525050565b620008548162000ad6565b82525050565b6000620008678262000a89565b62000873818562000a94565b93506200088581856020860162000b27565b620008908162000b5d565b840191505092915050565b6000620008aa60038362000aa5565b9150620008b78262000b6e565b602082019050919050565b60e082016000820151620008da6000850182620009e1565b506020820151620008ef6020850182620009e1565b506040820151620009046040850182620009e1565b506060820151620009196060850182620009e1565b5060808201516200092e6080850182620009e1565b5060a08201516200094360a0850182620009e1565b5060c08201516200095860c085018262000838565b50505050565b60a08201600082015162000976600085018262000827565b5060208201516200098b602085018262000849565b506040820151620009a06040850182620009d0565b506060820151620009b56060850182620009d0565b506080820151620009ca608085018262000838565b50505050565b620009db8162000ae0565b82525050565b620009ec8162000b1d565b82525050565b6000604082019050818103600083015262000a0e81856200085a565b9050818103602083015262000a2481846200085a565b90509392505050565b6000602082019050818103600083015262000a48816200089b565b9050919050565b600060e08201905062000a666000830184620008c2565b92915050565b600060a08201905062000a8360008301846200095e565b92915050565b600081519050919050565b600082825260208201905092915050565b600082825260208201905092915050565b600062000ac38262000aee565b9050919050565b60008115159050919050565b6000819050919050565b600061ffff82169050919050565b600073ffffffffffffffffffffffffffffffffffffffff82169050919050565b600062ffffff82169050919050565b6000819050919050565b60005b8381101562000b4757808201518184015260208101905062000b2a565b8381111562000b57576000848401525b50505050565b6000601f19601f8301169050919050565b7f5345540000000000000000000000000000000000000000000000000000000000600082015250565b62000ba28162000ab6565b811462000bae57600080fd5b50565b62000bbc8162000ad6565b811462000bc857600080fd5b50565b62000bd68162000ae0565b811462000be257600080fd5b50565b62000bf08162000b0e565b811462000bfc57600080fd5b50565b62000c0a8162000b1d565b811462000c1657600080fd5b50565b60805160601c611f1262000c3f600039600081816103610152610c540152611f126000f3fe608060405234801561001057600080fd5b50600436106100f55760003560e01c806389c4fa1211610097578063a62b75a811610066578063a62b75a81461026b578063c45a015514610289578063d0134cb7146102a7578063db4c545e146102c5576100f5565b806389c4fa12146101f35780638ce74426146102115780638da5cb5b1461022f5780639fdaeacd1461024d576100f5565b80634d0e849c116100d35780634d0e849c146101545780635411b20914610172578063762f324f146101a257806389035730146101d3576100f5565b80631f68f20a146100fa5780634932ed371461011857806349ae207514610136575b600080fd5b6101026102e3565b60405161010f9190611baf565b60405180910390f35b6101206102f6565b60405161012d91906119d2565b60405180910390f35b61013e610329565b60405161014b9190611baf565b60405180910390f35b61015c61033c565b6040516101699190611b79565b60405180910390f35b61018c600480360381019061018791906114c4565b61035d565b6040516101999190611a46565b60405180910390f35b6101bc60048036038101906101b7919061146c565b610455565b6040516101ca929190611a16565b60405180910390f35b6101db610994565b6040516101ea93929190611a7c565b60405180910390f35b6101fb610bfd565b60405161020891906119d2565b60405180910390f35b610219610c30565b6040516102269190611b94565b60405180910390f35b610237610c52565b60405161024491906119d2565b60405180910390f35b610255610c76565b6040516102629190611b79565b60405180910390f35b610273610c97565b6040516102809190611baf565b60405180910390f35b610291610caa565b60405161029e91906119d2565b60405180910390f35b6102af610cdd565b6040516102bc9190611baf565b60405180910390f35b6102cd610cf0565b6040516102da9190611a61565b60405180910390f35b60006102ed611060565b60020154905090565b600061030061108d565b60010160009054906101000a900473ffffffffffffffffffffffffffffffffffffffff16905090565b6000610333611060565b60030154905090565b6000610346611033565b60020160009054906101000a900461ffff16905090565b60007f000000000000000000000000000000000000000000000000000000000000000073ffffffffffffffffffffffffffffffffffffffff163373ffffffffffffffffffffffffffffffffffffffff16146103b757600080fd5b600087878101906103c89190611568565b90506103e68160000151826040015183606001518460200151610ec1565b600086868101906103f791906115ba565b90506104158160000151826020015183604001518460600151610d03565b600085858101906104269190611591565b90506104448160400151826060015183608001518460a00151610e15565b600193505050509695505050505050565b6060600060011515610466846110ba565b1515146104a8576040517f08c379a000000000000000000000000000000000000000000000000000000000815260040161049f90611b08565b60405180910390fd5b600267ffffffffffffffff8111156104e9577f4e487b7100000000000000000000000000000000000000000000000000000000600052604160045260246000fd5b6040519080825280602002602001820160405280156105175781602001602082028036833780820191505090505b50915084846001818110610554577f4e487b7100000000000000000000000000000000000000000000000000000000600052603260045260246000fd5b90506020020160208101906105699190611443565b73ffffffffffffffffffffffffffffffffffffffff16858560008181106105b9577f4e487b7100000000000000000000000000000000000000000000000000000000600052603260045260246000fd5b90506020020160208101906105ce9190611443565b73ffffffffffffffffffffffffffffffffffffffff161061068c5784846001818110610623577f4e487b7100000000000000000000000000000000000000000000000000000000600052603260045260246000fd5b90506020020160208101906106389190611443565b85856000818110610672577f4e487b7100000000000000000000000000000000000000000000000000000000600052603260045260246000fd5b90506020020160208101906106879190611443565b61072b565b848460008181106106c6577f4e487b7100000000000000000000000000000000000000000000000000000000600052603260045260246000fd5b90506020020160208101906106db9190611443565b85856001818110610715577f4e487b7100000000000000000000000000000000000000000000000000000000600052603260045260246000fd5b905060200201602081019061072a9190611443565b5b83600081518110610765577f4e487b7100000000000000000000000000000000000000000000000000000000600052603260045260246000fd5b60200260200101846001815181106107a6577f4e487b7100000000000000000000000000000000000000000000000000000000600052603260045260246000fd5b602002602001018273ffffffffffffffffffffffffffffffffffffffff1673ffffffffffffffffffffffffffffffffffffffff168152508273ffffffffffffffffffffffffffffffffffffffff1673ffffffffffffffffffffffffffffffffffffffff1681525050506000610819611033565b90506108f88160000160009054906101000a900473ffffffffffffffffffffffffffffffffffffffff168460008151811061087d577f4e487b7100000000000000000000000000000000000000000000000000000000600052603260045260246000fd5b6020026020010151856001815181106108bf577f4e487b7100000000000000000000000000000000000000000000000000000000600052603260045260246000fd5b60200260200101516040516020016108d892919061195e565b604051602081830303815290604052805190602001208360010154611105565b73ffffffffffffffffffffffffffffffffffffffff168473ffffffffffffffffffffffffffffffffffffffff1614610965576040517f08c379a000000000000000000000000000000000000000000000000000000000815260040161095c90611ae8565b60405180910390fd5b6109898461097161108d565b60000160009054906101000a900462ffffff1661113e565b915050935093915050565b606080606060006109a361108d565b90506040518060a001604052808260000160009054906101000a900462ffffff1662ffffff1681526020018260000160039054906101000a900473ffffffffffffffffffffffffffffffffffffffff1673ffffffffffffffffffffffffffffffffffffffff1681526020018260010160009054906101000a900473ffffffffffffffffffffffffffffffffffffffff1673ffffffffffffffffffffffffffffffffffffffff1681526020018260020160009054906101000a900473ffffffffffffffffffffffffffffffffffffffff1673ffffffffffffffffffffffffffffffffffffffff16815260200160001515815250604051602001610aa59190611b28565b60405160208183030381529060405293506000610ac0611033565b90506040518060a001604052808260000160009054906101000a900473ffffffffffffffffffffffffffffffffffffffff1673ffffffffffffffffffffffffffffffffffffffff168152602001826001015481526020018260020160009054906101000a900461ffff1661ffff1681526020018260020160029054906101000a900461ffff1661ffff16815260200160001515815250604051602001610b669190611b5e565b60405160208183030381529060405293506000610b81611060565b90506040518060e00160405280670de0b6b3a7640000815260200162225f1b81526020018260020154815260200182600301548152602001826004015481526020018260050154815260200160001515815250604051602001610be49190611b43565b6040516020818303038152906040529350505050909192565b6000610c0761108d565b60020160009054906101000a900473ffffffffffffffffffffffffffffffffffffffff16905090565b6000610c3a61108d565b60000160009054906101000a900462ffffff16905090565b7f000000000000000000000000000000000000000000000000000000000000000081565b6000610c80611033565b60020160029054906101000a900461ffff16905090565b6000610ca1611060565b60040154905090565b6000610cb4611033565b60000160009054906101000a900473ffffffffffffffffffffffffffffffffffffffff16905090565b6000610ce7611060565b60050154905090565b6000610cfa611033565b60010154905090565b6000610d0d611033565b9050600015158160020160049054906101000a900460ff16151514610d67576040517f08c379a0000000000000000000000000000000000000000000000000000000008152600401610d5e90611ac8565b60405180910390fd5b60018160020160046101000a81548160ff021916908315150217905550848160000160006101000a81548173ffffffffffffffffffffffffffffffffffffffff021916908373ffffffffffffffffffffffffffffffffffffffff160217905550838160010181905550828160020160006101000a81548161ffff021916908361ffff160217905550818160020160026101000a81548161ffff021916908361ffff1602179055505050505050565b6000610e1f611060565b9050600015158160060160009054906101000a900460ff16151514610e79576040517f08c379a0000000000000000000000000000000000000000000000000000000008152600401610e7090611ac8565b60405180910390fd5b670de0b6b3a7640000816000018190555062225f1b81600101819055508481600201819055508381600301819055508281600401819055508181600401819055505050505050565b6000610ecb61108d565b9050600015158160020160149054906101000a900460ff16151514610f25576040517f08c379a0000000000000000000000000000000000000000000000000000000008152600401610f1c90611ac8565b60405180910390fd5b60018160020160146101000a81548160ff021916908315150217905550848160000160006101000a81548162ffffff021916908362ffffff160217905550838160010160006101000a81548173ffffffffffffffffffffffffffffffffffffffff021916908373ffffffffffffffffffffffffffffffffffffffff160217905550828160020160006101000a81548173ffffffffffffffffffffffffffffffffffffffff021916908373ffffffffffffffffffffffffffffffffffffffff160217905550818160000160036101000a81548173ffffffffffffffffffffffffffffffffffffffff021916908373ffffffffffffffffffffffffffffffffffffffff1602179055505050505050565b6000807f1824a6532b5d85d82567e9f940dc3b06cad7da947e0716640ca7178dbfe30d6790508091505090565b6000807f1f5edbb2e428ca6eb959239e349ecf9840113efe584c1ea9dd664eb95b39c10b90508091505090565b6000807f2c59ba2292030859ee5b20bae61c0477068bc838c2601437ce455039911f548f90508091505090565b60008060007fc5d2460186f7233c927e7db2dcc703c0e500b653ca82273b7bfad8045d85a47060001b9050833f91508082141580156110fc57506000801b8214155b92505050919050565b600083838360405160200161111c9392919061198a565b6040516020818303038152906040528051906020012060001c90509392505050565b600082826040516020016111539291906119ed565b60405160208183030381529060405280519060200120905092915050565b60008135905061118081611e52565b92915050565b60008083601f84011261119857600080fd5b8235905067ffffffffffffffff8111156111b157600080fd5b6020830191508360208202830111156111c957600080fd5b9250929050565b6000813590506111df81611e69565b92915050565b6000813590506111f481611e80565b92915050565b60008083601f84011261120c57600080fd5b8235905067ffffffffffffffff81111561122557600080fd5b60208301915083600182028301111561123d57600080fd5b9250929050565b600060a0828403121561125657600080fd5b61126060a0611bca565b9050600061127084828501611419565b600083015250602061128484828501611171565b602083015250604061129884828501611171565b60408301525060606112ac84828501611171565b60608301525060806112c0848285016111d0565b60808301525092915050565b600060e082840312156112de57600080fd5b6112e860e0611bca565b905060006112f88482850161142e565b600083015250602061130c8482850161142e565b60208301525060406113208482850161142e565b60408301525060606113348482850161142e565b60608301525060806113488482850161142e565b60808301525060a061135c8482850161142e565b60a08301525060c0611370848285016111d0565b60c08301525092915050565b600060a0828403121561138e57600080fd5b61139860a0611bca565b905060006113a884828501611171565b60008301525060206113bc848285016111e5565b60208301525060406113d084828501611404565b60408301525060606113e484828501611404565b60608301525060806113f8848285016111d0565b60808301525092915050565b60008135905061141381611e97565b92915050565b60008135905061142881611eae565b92915050565b60008135905061143d81611ec5565b92915050565b60006020828403121561145557600080fd5b600061146384828501611171565b91505092915050565b60008060006040848603121561148157600080fd5b600084013567ffffffffffffffff81111561149b57600080fd5b6114a786828701611186565b935093505060206114ba86828701611171565b9150509250925092565b600080600080600080606087890312156114dd57600080fd5b600087013567ffffffffffffffff8111156114f757600080fd5b61150389828a016111fa565b9650965050602087013567ffffffffffffffff81111561152257600080fd5b61152e89828a016111fa565b9450945050604087013567ffffffffffffffff81111561154d57600080fd5b61155989828a016111fa565b92509250509295509295509295565b600060a0828403121561157a57600080fd5b600061158884828501611244565b91505092915050565b600060e082840312156115a357600080fd5b60006115b1848285016112cc565b91505092915050565b600060a082840312156115cc57600080fd5b60006115da8482850161137c565b91505092915050565b60006115ef83836115fb565b60208301905092915050565b61160481611c60565b82525050565b61161381611c60565b82525050565b61162a61162582611c60565b611d33565b82525050565b600061163b82611bff565b6116458185611c22565b935061165083611bef565b8060005b8381101561168157815161166888826115e3565b975061167383611c15565b925050600181019050611654565b5085935050505092915050565b61169781611c72565b82525050565b6116a681611c72565b82525050565b6116b581611c7e565b82525050565b6116c481611c7e565b82525050565b6116db6116d682611c7e565b611d45565b82525050565b60006116ec82611c0a565b6116f68185611c33565b9350611706818560208601611ccf565b61170f81611d90565b840191505092915050565b6000611727600383611c44565b915061173282611dae565b602082019050919050565b600061174a600183611c55565b915061175582611dd7565b600182019050919050565b600061176d600c83611c44565b915061177882611e00565b602082019050919050565b6000611790600c83611c44565b915061179b82611e29565b602082019050919050565b60a0820160008201516117bc6000850182611922565b5060208201516117cf60208501826115fb565b5060408201516117e260408501826115fb565b5060608201516117f560608501826115fb565b506080820151611808608085018261168e565b50505050565b60e0820160008201516118246000850182611940565b5060208201516118376020850182611940565b50604082015161184a6040850182611940565b50606082015161185d6060850182611940565b5060808201516118706080850182611940565b5060a082015161188360a0850182611940565b5060c082015161189660c085018261168e565b50505050565b60a0820160008201516118b260008501826115fb565b5060208201516118c560208501826116ac565b5060408201516118d86040850182611904565b5060608201516118eb6060850182611904565b5060808201516118fe608085018261168e565b50505050565b61190d81611c88565b82525050565b61191c81611c88565b82525050565b61192b81611cb6565b82525050565b61193a81611cb6565b82525050565b61194981611cc5565b82525050565b61195881611cc5565b82525050565b600061196a8285611619565b60148201915061197a8284611619565b6014820191508190509392505050565b60006119958261173d565b91506119a18286611619565b6014820191506119b182856116ca565b6020820191506119c182846116ca565b602082019150819050949350505050565b60006020820190506119e7600083018461160a565b92915050565b6000604082019050611a02600083018561160a565b611a0f6020830184611931565b9392505050565b60006040820190508181036000830152611a308185611630565b9050611a3f60208301846116bb565b9392505050565b6000602082019050611a5b600083018461169d565b92915050565b6000602082019050611a7660008301846116bb565b92915050565b60006060820190508181036000830152611a9681866116e1565b90508181036020830152611aaa81856116e1565b90508181036040830152611abe81846116e1565b9050949350505050565b60006020820190508181036000830152611ae18161171a565b9050919050565b60006020820190508181036000830152611b0181611760565b9050919050565b60006020820190508181036000830152611b2181611783565b9050919050565b600060a082019050611b3d60008301846117a6565b92915050565b600060e082019050611b58600083018461180e565b92915050565b600060a082019050611b73600083018461189c565b92915050565b6000602082019050611b8e6000830184611913565b92915050565b6000602082019050611ba96000830184611931565b92915050565b6000602082019050611bc4600083018461194f565b92915050565b6000611bd4611be5565b9050611be08282611d02565b919050565b6000604051905090565b6000819050602082019050919050565b600081519050919050565b600081519050919050565b6000602082019050919050565b600082825260208201905092915050565b600082825260208201905092915050565b600082825260208201905092915050565b600081905092915050565b6000611c6b82611c96565b9050919050565b60008115159050919050565b6000819050919050565b600061ffff82169050919050565b600073ffffffffffffffffffffffffffffffffffffffff82169050919050565b600062ffffff82169050919050565b6000819050919050565b60005b83811015611ced578082015181840152602081019050611cd2565b83811115611cfc576000848401525b50505050565b611d0b82611d90565b810181811067ffffffffffffffff82111715611d2a57611d29611d61565b5b80604052505050565b6000611d3e82611d4f565b9050919050565b6000819050919050565b6000611d5a82611da1565b9050919050565b7f4e487b7100000000000000000000000000000000000000000000000000000000600052604160045260246000fd5b6000601f19601f8301169050919050565b60008160601b9050919050565b7f5345540000000000000000000000000000000000000000000000000000000000600082015250565b7fff00000000000000000000000000000000000000000000000000000000000000600082015250565b7f6261642070726f746f636f6c0000000000000000000000000000000000000000600082015250565b7f6e6f7420636f6e74726163740000000000000000000000000000000000000000600082015250565b611e5b81611c60565b8114611e6657600080fd5b50565b611e7281611c72565b8114611e7d57600080fd5b50565b611e8981611c7e565b8114611e9457600080fd5b50565b611ea081611c88565b8114611eab57600080fd5b50565b611eb781611cb6565b8114611ec257600080fd5b50565b611ece81611cc5565b8114611ed957600080fd5b5056fea26469706673582212209aa2efd77d120227d075973bbf3559ba12f7a1a7ca536b48470c361eec63100364736f6c6343000804003360806040523480156200001157600080fd5b50604051620053de380380620053de833981810160405281019062000037919062000534565b8181600082806020019051810190620000519190620005d3565b90506200007c8160000151826020015183604001518460600151620000cb60201b62000c161760201c565b600082806020019051810190620000949190620005a7565b9050620000bf8160400151826060015183608001518460a00151620001e860201b62000d281760201c565b50505050505062000871565b6000620000dd6200029f60201b60201c565b9050600015158160020160049054906101000a900460ff161515146200013a576040517f08c379a0000000000000000000000000000000000000000000000000000000008152600401620001319062000626565b60405180910390fd5b60018160020160046101000a81548160ff021916908315150217905550848160000160006101000a81548173ffffffffffffffffffffffffffffffffffffffff021916908373ffffffffffffffffffffffffffffffffffffffff160217905550838160010181905550828160020160006101000a81548161ffff021916908361ffff160217905550818160020160026101000a81548161ffff021916908361ffff1602179055505050505050565b6000620001fa620002cc60201b60201c565b9050600015158160060160009054906101000a900460ff1615151462000257576040517f08c379a00000000000000000000000000000000000000000000000000000000081526004016200024e9062000626565b60405180910390fd5b670de0b6b3a7640000816000018190555062225f1b81600101819055508481600201819055508381600301819055508281600401819055508181600401819055505050505050565b6000807f1824a6532b5d85d82567e9f940dc3b06cad7da947e0716640ca7178dbfe30d6790508091505090565b6000807f1f5edbb2e428ca6eb959239e349ecf9840113efe584c1ea9dd664eb95b39c10b90508091505090565b6000620003106200030a8462000671565b62000648565b9050828152602081018484840111156200032957600080fd5b620003368482856200071a565b509392505050565b6000815190506200034f81620007ef565b92915050565b600081519050620003668162000809565b92915050565b6000815190506200037d8162000823565b92915050565b600082601f8301126200039557600080fd5b8151620003a7848260208601620002f9565b91505092915050565b600060e08284031215620003c357600080fd5b620003cf60e062000648565b90506000620003e1848285016200051d565b6000830152506020620003f7848285016200051d565b60208301525060406200040d848285016200051d565b604083015250606062000423848285016200051d565b606083015250608062000439848285016200051d565b60808301525060a06200044f848285016200051d565b60a08301525060c0620004658482850162000355565b60c08301525092915050565b600060a082840312156200048457600080fd5b6200049060a062000648565b90506000620004a2848285016200033e565b6000830152506020620004b8848285016200036c565b6020830152506040620004ce8482850162000506565b6040830152506060620004e48482850162000506565b6060830152506080620004fa8482850162000355565b60808301525092915050565b60008151905062000517816200083d565b92915050565b6000815190506200052e8162000857565b92915050565b600080604083850312156200054857600080fd5b600083015167ffffffffffffffff8111156200056357600080fd5b620005718582860162000383565b925050602083015167ffffffffffffffff8111156200058f57600080fd5b6200059d8582860162000383565b9150509250929050565b600060e08284031215620005ba57600080fd5b6000620005ca84828501620003b0565b91505092915050565b600060a08284031215620005e657600080fd5b6000620005f68482850162000471565b91505092915050565b60006200060e600383620006a7565b91506200061b82620007c6565b602082019050919050565b600060208201905081810360008301526200064181620005ff565b9050919050565b60006200065462000667565b905062000662828262000750565b919050565b6000604051905090565b600067ffffffffffffffff8211156200068f576200068e62000786565b5b6200069a82620007b5565b9050602081019050919050565b600082825260208201905092915050565b6000620006c582620006f0565b9050919050565b60008115159050919050565b6000819050919050565b600061ffff82169050919050565b600073ffffffffffffffffffffffffffffffffffffffff82169050919050565b6000819050919050565b60005b838110156200073a5780820151818401526020810190506200071d565b838111156200074a576000848401525b50505050565b6200075b82620007b5565b810181811067ffffffffffffffff821117156200077d576200077c62000786565b5b80604052505050565b7f4e487b7100000000000000000000000000000000000000000000000000000000600052604160045260246000fd5b6000601f19601f8301169050919050565b7f5345540000000000000000000000000000000000000000000000000000000000600082015250565b620007fa81620006b8565b81146200080657600080fd5b50565b6200081481620006cc565b81146200082057600080fd5b50565b6200082e81620006d8565b81146200083a57600080fd5b50565b6200084881620006e2565b81146200085457600080fd5b50565b620008628162000710565b81146200086e57600080fd5b50565b614b5d80620008816000396000f3fe608060405234801561001057600080fd5b50600436106100ea5760003560e01c8063a4fa646f1161008c578063b35dceab11610066578063b35dceab14610277578063c45a0155146102a7578063d0134cb7146102c5578063db4c545e146102e3576100ea565b8063a4fa646f146101f9578063a62b75a814610229578063ab790c7814610247576100ea565b806349ae2075116100c857806349ae20751461016f5780634d0e849c1461018d5780636fb7ee52146101ab5780639fdaeacd146101db576100ea565b80630d5cf12b146100ef5780631f68f20a1461011f57806337d1b3d61461013d575b600080fd5b61010960048036038101906101049190613de0565b610301565b604051610116919061426b565b60405180910390f35b610127610780565b6040516101349190614483565b60405180910390f35b61015760048036038101906101529190613e4c565b610793565b604051610166939291906144ea565b60405180910390f35b610177610864565b6040516101849190614483565b60405180910390f35b610195610877565b6040516101a29190614468565b60405180910390f35b6101c560048036038101906101c09190613e4c565b610898565b6040516101d2919061426b565b60405180910390f35b6101e361090b565b6040516101f09190614468565b60405180910390f35b610213600480360381019061020e9190613e4c565b61092c565b604051610220919061426b565b60405180910390f35b610231610aa3565b60405161023e9190614483565b60405180910390f35b610261600480360381019061025c9190613d88565b610ab6565b60405161026e919061426b565b60405180910390f35b610291600480360381019061028c9190613d36565b610b2b565b60405161029e919061426b565b60405180910390f35b6102af610bbd565b6040516102bc91906141f0565b60405180910390f35b6102cd610bf0565b6040516102da9190614483565b60405180910390f35b6102eb610c03565b6040516102f8919061428d565b60405180910390f35b606061030b610dd4565b6000610315610e34565b905060006103238288610e61565b905060005b826001018054905081101561067757868682818110610370577f4e487b7100000000000000000000000000000000000000000000000000000000600052603260045260246000fd5b905060200201358260020182815481106103b3577f4e487b7100000000000000000000000000000000000000000000000000000000600052603260045260246000fd5b9060005260206000200154116103fe576040517f08c379a00000000000000000000000000000000000000000000000000000000081526004016103f5906143e8565b60405180910390fd5b6104ae83600101828154811061043d577f4e487b7100000000000000000000000000000000000000000000000000000000600052603260045260246000fd5b9060005260206000200160009054906101000a900473ffffffffffffffffffffffffffffffffffffffff16868989858181106104a2577f4e487b7100000000000000000000000000000000000000000000000000000000600052603260045260246000fd5b90506020020135610f3a565b8686828181106104e7577f4e487b7100000000000000000000000000000000000000000000000000000000600052603260045260246000fd5b9050602002013582600201828154811061052a577f4e487b7100000000000000000000000000000000000000000000000000000000600052603260045260246000fd5b906000526020600020015461053f919061467a565b82600201828154811061057b577f4e487b7100000000000000000000000000000000000000000000000000000000600052603260045260246000fd5b90600052602060002001819055508686828181106105c2577f4e487b7100000000000000000000000000000000000000000000000000000000600052603260045260246000fd5b90506020020135836006018281548110610605577f4e487b7100000000000000000000000000000000000000000000000000000000600052603260045260246000fd5b906000526020600020015461061a919061467a565b836006018281548110610656577f4e487b7100000000000000000000000000000000000000000000000000000000600052603260045260246000fd5b9060005260206000200181905550808061066f90614775565b915050610328565b5061068282826110c4565b806002018054806020026020016040519081016040528092919081815260200182805480156106d057602002820191906000526020600020905b8154815260200190600101908083116106bc575b505050505092506107058260030160009054906101000a900473ffffffffffffffffffffffffffffffffffffffff1684611109565b8160030181905550610719816103206111a9565b8060020180548060200260200160405190810160405280929190818152602001828054801561076757602002820191906000526020600020905b815481526020019060010190808311610753575b505050505092505050610778611215565b949350505050565b600061078a611228565b60020154905090565b60008060606107a0610dd4565b60006107aa610e34565b905060006107b88288610e61565b90506107c482826110c4565b6107d2828783600201611255565b8260020160008296508391905090805190602001906107f2929190613af1565b5050506108248260030160009054906101000a900473ffffffffffffffffffffffffffffffffffffffff168430611871565b9350816014015482601301548561083b9190614620565b61084591906145ef565b945061085382828787611907565b505061085d611215565b9250925092565b600061086e611228565b60030154905090565b60006108816119c3565b60020160009054906101000a900461ffff16905090565b60606108a2610dd4565b60006108ac610e34565b905060006108ba8286610e61565b90506108c682826110c4565b6108d48285836002016119f0565b92506108e2816103526111a9565b828160020190805190602001906108fa929190613af1565b505050610905611215565b92915050565b60006109156119c3565b60020160029054906101000a900461ffff16905090565b6060610936610dd4565b6000610940610e34565b905080600701548310610988576040517f08c379a000000000000000000000000000000000000000000000000000000000815260040161097f906143c8565b60405180910390fd5b60006109948286610e61565b90506109a082826110c4565b6109cf8260030160009054906101000a900473ffffffffffffffffffffffffffffffffffffffff1630866122a7565b92506109db8282612443565b610a148282610a0e8560030160009054906101000a900473ffffffffffffffffffffffffffffffffffffffff1687611109565b876126fd565b610a428260030160009054906101000a900473ffffffffffffffffffffffffffffffffffffffff163061277b565b826007015414610a87576040517f08c379a0000000000000000000000000000000000000000000000000000000008152600401610a7e90614388565b60405180910390fd5b610a93816103206111a9565b5050610a9d611215565b92915050565b6000610aad611228565b60040154905090565b6060610ac0610dd4565b6000610aca610e34565b90506000610ad88287610e61565b9050610ae482826110c4565b610af3828686846002016128ca565b9250610b01816103526111a9565b82816002019080519060200190610b19929190613af1565b505050610b24611215565b9392505050565b6060610b35610dd4565b6000610b3f610e34565b90506000610b4d8285610e61565b9050610b598282612443565b80600201805480602002602001604051908101604052809291908181526020018280548015610ba757602002820191906000526020600020905b815481526020019060010190808311610b93575b505050505092505050610bb8611215565b919050565b6000610bc76119c3565b60000160009054906101000a900473ffffffffffffffffffffffffffffffffffffffff16905090565b6000610bfa611228565b60050154905090565b6000610c0d6119c3565b60010154905090565b6000610c206119c3565b9050600015158160020160049054906101000a900460ff16151514610c7a576040517f08c379a0000000000000000000000000000000000000000000000000000000008152600401610c7190614308565b60405180910390fd5b60018160020160046101000a81548160ff021916908315150217905550848160000160006101000a81548173ffffffffffffffffffffffffffffffffffffffff021916908373ffffffffffffffffffffffffffffffffffffffff160217905550838160010181905550828160020160006101000a81548161ffff021916908361ffff160217905550818160020160026101000a81548161ffff021916908361ffff1602179055505050505050565b6000610d32611228565b9050600015158160060160009054906101000a900460ff16151514610d8c576040517f08c379a0000000000000000000000000000000000000000000000000000000008152600401610d8390614308565b60405180910390fd5b670de0b6b3a7640000816000018190555062225f1b81600101819055508481600201819055508381600301819055508281600401819055508181600401819055505050505050565b6000610dde610e34565b9050600181601b015414610e27576040517f08c379a0000000000000000000000000000000000000000000000000000000008152600401610e1e90614428565b60405180910390fd5b600081601b018190555050565b6000807f58a86ce9af3c88d86c606c50ca486aaedb655aee7dec73f917ade295c9fef44390508091505090565b600082601801600083815260200190815260200160002090506000816000015411610ec1576040517f08c379a0000000000000000000000000000000000000000000000000000000008152600401610eb8906142c8565b60405180910390fd5b33308260000154604051602001610eda9392919061420b565b6040516020818303038152906040528051906020012060001c8214610f34576040517f08c379a0000000000000000000000000000000000000000000000000000000008152600401610f2b90614328565b60405180910390fd5b92915050565b6000808473ffffffffffffffffffffffffffffffffffffffff166040518060400160405280601981526020017f7472616e7366657228616464726573732c75696e743235362900000000000000815250805190602001208585604051602401610fa4929190614242565b604051602081830303815290604052907bffffffffffffffffffffffffffffffffffffffffffffffffffffffff19166020820180517bffffffffffffffffffffffffffffffffffffffffffffffffffffffff838183161783525050505060405161100e91906141d9565b6000604051808303816000865af19150503d806000811461104b576040519150601f19603f3d011682016040523d82523d6000602084013e611050565b606091505b509150915081801561107e575060008151148061107d57508080602001905181019061107c9190613cbe565b5b5b6110bd576040517f08c379a00000000000000000000000000000000000000000000000000000000081526004016110b4906142a8565b60405180910390fd5b5050505050565b6110cd82612da6565b8060060154826010015482600401546110e69190614620565b6110f091906145ef565b8160040181905550816010015481600601819055505050565b60006111a182600181518110611148577f4e487b7100000000000000000000000000000000000000000000000000000000600052603260045260246000fd5b60200260200101518360008151811061118a577f4e487b7100000000000000000000000000000000000000000000000000000000600052603260045260246000fd5b602002602001015161119c9190614620565b6131e0565b905092915050565b81600401546103e88262ffffff1684600301546111c69190614620565b6111d091906145ef565b1015611211576040517f08c379a000000000000000000000000000000000000000000000000000000000815260040161120890614448565b60405180910390fd5b5050565b600161121f610e34565b601b0181905550565b6000807f1f5edbb2e428ca6eb959239e349ecf9840113efe584c1ea9dd664eb95b39c10b90508091505090565b606080600267ffffffffffffffff811115611299577f4e487b7100000000000000000000000000000000000000000000000000000000600052604160045260246000fd5b6040519080825280602002602001820160405280156112c75781602001602082028036833780820191505090505b5090506112d4858561325a565b8260008151811061130e577f4e487b7100000000000000000000000000000000000000000000000000000000600052603260045260246000fd5b602002602001018360018151811061134f577f4e487b7100000000000000000000000000000000000000000000000000000000600052603260045260246000fd5b60200260200101828152508281525050508060008151811061139a577f4e487b7100000000000000000000000000000000000000000000000000000000600052603260045260246000fd5b6020026020010151836000815481106113dc577f4e487b7100000000000000000000000000000000000000000000000000000000600052603260045260246000fd5b90600052602060002001541015801561147a57508060018151811061142a577f4e487b7100000000000000000000000000000000000000000000000000000000600052603260045260246000fd5b60200260200101518360018154811061146c577f4e487b7100000000000000000000000000000000000000000000000000000000600052603260045260246000fd5b906000526020600020015410155b6114b9576040517f08c379a00000000000000000000000000000000000000000000000000000000081526004016114b090614408565b60405180910390fd5b60008560030160009054906101000a900473ffffffffffffffffffffffffffffffffffffffff16905061159586600101600081548110611522577f4e487b7100000000000000000000000000000000000000000000000000000000600052603260045260246000fd5b9060005260206000200160009054906101000a900473ffffffffffffffffffffffffffffffffffffffff168284600081518110611588577f4e487b7100000000000000000000000000000000000000000000000000000000600052603260045260246000fd5b6020026020010151610f3a565b611648866001016001815481106115d5577f4e487b7100000000000000000000000000000000000000000000000000000000600052603260045260246000fd5b9060005260206000200160009054906101000a900473ffffffffffffffffffffffffffffffffffffffff16828460018151811061163b577f4e487b7100000000000000000000000000000000000000000000000000000000600052603260045260246000fd5b6020026020010151610f3a565b600267ffffffffffffffff811115611689577f4e487b7100000000000000000000000000000000000000000000000000000000600052604160045260246000fd5b6040519080825280602002602001820160405280156116b75781602001602082028036833780820191505090505b509250816000815181106116f4577f4e487b7100000000000000000000000000000000000000000000000000000000600052603260045260246000fd5b602002602001015184600081548110611736577f4e487b7100000000000000000000000000000000000000000000000000000000600052603260045260246000fd5b906000526020600020015461174b919061467a565b83600081518110611785577f4e487b7100000000000000000000000000000000000000000000000000000000600052603260045260246000fd5b602002602001018181525050816001815181106117cb577f4e487b7100000000000000000000000000000000000000000000000000000000600052603260045260246000fd5b60200260200101518460018154811061180d577f4e487b7100000000000000000000000000000000000000000000000000000000600052603260045260246000fd5b9060005260206000200154611822919061467a565b8360018151811061185c577f4e487b7100000000000000000000000000000000000000000000000000000000600052603260045260246000fd5b60200260200101818152505050935093915050565b60008373ffffffffffffffffffffffffffffffffffffffff16636a627842836040518263ffffffff1660e01b81526004016118ac91906141f0565b602060405180830381600087803b1580156118c657600080fd5b505af11580156118da573d6000803e3d6000fd5b505050506040513d601f19601f820116820180604052508101906118fe9190613d5f565b90509392505050565b6000836004015484600501548461191e9190614620565b61192891906145ef565b9050836004015483106119445783600401549250836005015490505b8285600b0154611954919061467a565b85600b018190555080856008015461196c919061467a565b85600801819055508185600701546119849190614599565b856007018190555082846004015461199c919061467a565b84600401819055508084600501546119b4919061467a565b84600501819055505050505050565b6000807f1824a6532b5d85d82567e9f940dc3b06cad7da947e0716640ca7178dbfe30d6790508091505090565b60606000806119ff868661325a565b915091506000866016015490506000806000600267ffffffffffffffff811115611a52577f4e487b7100000000000000000000000000000000000000000000000000000000600052604160045260246000fd5b604051908082528060200260200182016040528015611a805781602001602082028036833780820191505090505b5090506000808b600e01600081548110611ac3577f4e487b7100000000000000000000000000000000000000000000000000000000600052603260045260246000fd5b9060005260206000200154905060008c600e01600181548110611b0f577f4e487b7100000000000000000000000000000000000000000000000000000000600052603260045260246000fd5b906000526020600020015490506000828883611b2b9190614620565b611b3591906145ef565b905060008c600081548110611b73577f4e487b7100000000000000000000000000000000000000000000000000000000600052603260045260246000fd5b9060005260206000200154898e600181548110611bb9577f4e487b7100000000000000000000000000000000000000000000000000000000600052603260045260246000fd5b9060005260206000200154611bce9190614620565b611bd891906145ef565b905080821115611c2657611bf68982611bf19190614620565b6131e0565b611c0a8a84611c059190614620565b6131e0565b611c14919061467a565b8e611c1f9190614620565b9650611ca0565b80821015611c9f57611c428983611c3d9190614620565b6131e0565b611c6c8a838c86611c539190614620565b611c5d91906145ef565b611c679190614620565b6131e0565b8a611c77919061467a565b8f611c829190614620565b611c8c91906145ef565b9650828460018097508195508296505050505b5b611cab87858561332e565b868660ff1681518110611ce7577f4e487b7100000000000000000000000000000000000000000000000000000000600052603260045260246000fd5b6020026020010181815250505050505060018160ff161415611d185782848789809950819a50829650839750505050505b86898260ff1681548110611d55577f4e487b7100000000000000000000000000000000000000000000000000000000600052603260045260246000fd5b9060005260206000200154611d6a919061467a565b828260ff1681518110611da6577f4e487b7100000000000000000000000000000000000000000000000000000000600052603260045260246000fd5b60200260200101511115611def576040517f08c379a0000000000000000000000000000000000000000000000000000000008152600401611de6906143a8565b60405180910390fd5b60008b60030160009054906101000a900473ffffffffffffffffffffffffffffffffffffffff169050600267ffffffffffffffff811115611e59577f4e487b7100000000000000000000000000000000000000000000000000000000600052604160045260246000fd5b604051908082528060200260200182016040528015611e875781602001602082028036833780820191505090505b50985082600081518110611ec4577f4e487b7100000000000000000000000000000000000000000000000000000000600052603260045260246000fd5b6020026020010151858b600081548110611f07577f4e487b7100000000000000000000000000000000000000000000000000000000600052603260045260246000fd5b9060005260206000200154611f1c9190614599565b611f26919061467a565b89600081518110611f60577f4e487b7100000000000000000000000000000000000000000000000000000000600052603260045260246000fd5b60200260200101818152505082600181518110611fa6577f4e487b7100000000000000000000000000000000000000000000000000000000600052603260045260246000fd5b6020026020010151848b600181548110611fe9577f4e487b7100000000000000000000000000000000000000000000000000000000600052603260045260246000fd5b9060005260206000200154611ffe9190614599565b612008919061467a565b89600181518110612042577f4e487b7100000000000000000000000000000000000000000000000000000000600052603260045260246000fd5b6020026020010181815250506121018c60010160008154811061208e577f4e487b7100000000000000000000000000000000000000000000000000000000600052603260045260246000fd5b9060005260206000200160009054906101000a900473ffffffffffffffffffffffffffffffffffffffff1682856000815181106120f4577f4e487b7100000000000000000000000000000000000000000000000000000000600052603260045260246000fd5b602002602001015161340a565b6121b48c600101600181548110612141577f4e487b7100000000000000000000000000000000000000000000000000000000600052603260045260246000fd5b9060005260206000200160009054906101000a900473ffffffffffffffffffffffffffffffffffffffff1682856001815181106121a7577f4e487b7100000000000000000000000000000000000000000000000000000000600052603260045260246000fd5b602002602001015161340a565b8073ffffffffffffffffffffffffffffffffffffffff1663022c0d9f868630600067ffffffffffffffff811115612214577f4e487b7100000000000000000000000000000000000000000000000000000000600052604160045260246000fd5b6040519080825280601f01601f1916602001820160405280156122465781602001600182028036833780820191505090505b506040518563ffffffff1660e01b8152600401612266949392919061449e565b600060405180830381600087803b15801561228057600080fd5b505af1158015612294573d6000803e3d6000fd5b5050505050505050505050509392505050565b60606122b4848584610f3a565b600267ffffffffffffffff8111156122f5577f4e487b7100000000000000000000000000000000000000000000000000000000600052604160045260246000fd5b6040519080825280602002602001820160405280156123235781602001602082028036833780820191505090505b5090508373ffffffffffffffffffffffffffffffffffffffff166389afcb44846040518263ffffffff1660e01b815260040161235f91906141f0565b6040805180830381600087803b15801561237857600080fd5b505af115801561238c573d6000803e3d6000fd5b505050506040513d601f19601f820116820180604052508101906123b09190613e88565b826000815181106123ea577f4e487b7100000000000000000000000000000000000000000000000000000000600052603260045260246000fd5b602002602001018360018151811061242b577f4e487b7100000000000000000000000000000000000000000000000000000000600052603260045260246000fd5b60200260200101828152508281525050509392505050565b60005b8260010180549050811015612670576000836006018281548110612493577f4e487b7100000000000000000000000000000000000000000000000000000000600052603260045260246000fd5b906000526020600020015461250e8560010184815481106124dd577f4e487b7100000000000000000000000000000000000000000000000000000000600052603260045260246000fd5b9060005260206000200160009054906101000a900473ffffffffffffffffffffffffffffffffffffffff163061277b565b612518919061467a565b9050600081111561265c5780836002018381548110612560577f4e487b7100000000000000000000000000000000000000000000000000000000600052603260045260246000fd5b90600052602060002001546125759190614599565b8360020183815481106125b1577f4e487b7100000000000000000000000000000000000000000000000000000000600052603260045260246000fd5b9060005260206000200181905550808460060183815481106125fc577f4e487b7100000000000000000000000000000000000000000000000000000000600052603260045260246000fd5b90600052602060002001546126119190614599565b84600601838154811061264d577f4e487b7100000000000000000000000000000000000000000000000000000000600052603260045260246000fd5b90600052602060002001819055505b50808061266890614775565b915050612446565b506126f18260030160009054906101000a900473ffffffffffffffffffffffffffffffffffffffff16826002018054806020026020016040519081016040528092919081815260200182805480156126e757602002820191906000526020600020905b8154815260200190600101908083116126d3575b5050505050611109565b81600301819055505050565b8184600b015461270d9190614599565b84600b01819055508084600801546127259190614599565b846008018190555080846007015461273d919061467a565b84600701819055508183600401546127559190614599565b836004018190555080836005015461276d9190614599565b836005018190555050505050565b60008060008473ffffffffffffffffffffffffffffffffffffffff166040518060400160405280601281526020017f62616c616e63654f66286164647265737329000000000000000000000000000081525080519060200120856040516024016127e591906141f0565b604051602081830303815290604052907bffffffffffffffffffffffffffffffffffffffffffffffffffffffff19166020820180517bffffffffffffffffffffffffffffffffffffffffffffffffffffffff838183161783525050505060405161284f91906141d9565b600060405180830381855afa9150503d806000811461288a576040519150601f19603f3d011682016040523d82523d6000602084013e61288f565b606091505b50915091508180156128a357506020815110155b6128ac57600080fd5b808060200190518101906128c09190613d5f565b9250505092915050565b60606000806000806129ec89600e01600081548110612912577f4e487b7100000000000000000000000000000000000000000000000000000000600052603260045260246000fd5b90600052602060002001548a600e0160018154811061295a577f4e487b7100000000000000000000000000000000000000000000000000000000600052603260045260246000fd5b90600052602060002001548a8a600081811061299f577f4e487b7100000000000000000000000000000000000000000000000000000000600052603260045260246000fd5b905060200201358b8b60018181106129e0577f4e487b7100000000000000000000000000000000000000000000000000000000600052603260045260246000fd5b90506020020135613424565b9350935093509350600267ffffffffffffffff811115612a35577f4e487b7100000000000000000000000000000000000000000000000000000000600052604160045260246000fd5b604051908082528060200260200182016040528015612a635781602001602082028036833780820191505090505b509450818487600081548110612aa2577f4e487b7100000000000000000000000000000000000000000000000000000000600052603260045260246000fd5b9060005260206000200154612ab79190614599565b612ac1919061467a565b85600081518110612afb577f4e487b7100000000000000000000000000000000000000000000000000000000600052603260045260246000fd5b602002602001018181525050808387600181548110612b43577f4e487b7100000000000000000000000000000000000000000000000000000000600052603260045260246000fd5b9060005260206000200154612b589190614599565b612b62919061467a565b85600181518110612b9c577f4e487b7100000000000000000000000000000000000000000000000000000000600052603260045260246000fd5b60200260200101818152505060008960030160009054906101000a900473ffffffffffffffffffffffffffffffffffffffff169050612c438a600101600081548110612c11577f4e487b7100000000000000000000000000000000000000000000000000000000600052603260045260246000fd5b9060005260206000200160009054906101000a900473ffffffffffffffffffffffffffffffffffffffff16828561340a565b612cb58a600101600181548110612c83577f4e487b7100000000000000000000000000000000000000000000000000000000600052603260045260246000fd5b9060005260206000200160009054906101000a900473ffffffffffffffffffffffffffffffffffffffff16828461340a565b8073ffffffffffffffffffffffffffffffffffffffff1663022c0d9f868630600067ffffffffffffffff811115612d15577f4e487b7100000000000000000000000000000000000000000000000000000000600052604160045260246000fd5b6040519080825280601f01601f191660200182016040528015612d475781602001600182028036833780820191505090505b506040518563ffffffff1660e01b8152600401612d67949392919061449e565b600060405180830381600087803b158015612d8157600080fd5b505af1158015612d95573d6000803e3d6000fd5b505050505050505050949350505050565b600081601601549050612dc18260070154836008015461355c565b82600f0181905550612dd28261364d565b6000612e548360030160009054906101000a900473ffffffffffffffffffffffffffffffffffffffff1684600e01805480602002602001604051908101604052809291908181526020018280548015612e4a57602002820191906000526020600020905b815481526020019060010190808311612e36575b5050505050611109565b90506000612e858460030160009054906101000a900473ffffffffffffffffffffffffffffffffffffffff166137b7565b90506000811115612ed857600083828660130154612ea39190614620565b612ead91906145ef565b905080856014015484612ec09190614620565b612eca91906145ef565b856012018190555050612ee2565b8284601201819055505b81846013018190555080846014018190555050506000826015015443612f08919061467a565b9050600062225f1b84600f015483612f209190614620565b612f2a91906145ef565b9050808460120154612f3c9190614599565b8460110181905550505080826011015483600b0154612f5b9190614620565b612f6591906145ef565b82600b01819055508160130154826014015483600b0154612f869190614620565b612f9091906145ef565b8260090181905550816014015482601301548360070154612fb19190614620565b612fbb91906145ef565b82600c018190555081600901548260070154612fd79190614599565b82600a018190555081600b015482600c0154612ff39190614599565b82600d018190555080826011015483601001546130109190614620565b61301a91906145ef565b8260100181905550438260150181905550600082600b015411156131dc576000808360000160009054906101000a900473ffffffffffffffffffffffffffffffffffffffff1673ffffffffffffffffffffffffffffffffffffffff1663995b5aae6040518163ffffffff1660e01b8152600401604080518083038186803b1580156130a457600080fd5b505afa1580156130b8573d6000803e3d6000fd5b505050506040513d601f19601f820116820180604052508101906130dc9190613c82565b91509150600073ffffffffffffffffffffffffffffffffffffffff168273ffffffffffffffffffffffffffffffffffffffff161415801561311d5750600081115b156131d957600084601401548560130154866007015461313d9190614620565b61314791906145ef565b90506000856011015483868860110154613161919061467a565b61316b9190614620565b61317591906145ef565b905060008287600b01546131899190614599565b87600b0154836131999190614620565b6131a391906145ef565b90506131d5878683896131b6919061467a565b848b601f01546131c69190614620565b6131d091906145ef565b6138fa565b5050505b50505b5050565b6000600382111561324757819050600060016002846131ff91906145ef565b6132099190614599565b90505b8181101561324157809150600281828561322691906145ef565b6132309190614599565b61323a91906145ef565b905061320c565b50613255565b6000821461325457600190505b5b919050565b6000806000846014015490508085600e016000815481106132a4577f4e487b7100000000000000000000000000000000000000000000000000000000600052603260045260246000fd5b9060005260206000200154856132ba9190614620565b6132c491906145ef565b92508085600e01600181548110613304577f4e487b7100000000000000000000000000000000000000000000000000000000600052603260045260246000fd5b90600052602060002001548561331a9190614620565b61332491906145ef565b9150509250929050565b6000808311801561333f5750600082115b61337e576040517f08c379a000000000000000000000000000000000000000000000000000000000815260040161337590614348565b60405180910390fd5b60006133886119c3565b905060008160020160029054906101000a900461ffff1661ffff1686856133af919061467a565b6133b99190614620565b90506001818360020160009054906101000a900461ffff1661ffff1688886133e19190614620565b6133eb9190614620565b6133f591906145ef565b6133ff9190614599565b925050509392505050565b600081111561341f5761341e838383610f3a565b5b505050565b6000806000806000861415801561343b5750600085145b806134535750600086148015613452575060008514155b5b613492576040517f08c379a000000000000000000000000000000000000000000000000000000000815260040161348990614368565b60405180910390fd5b60008613806134a15750600085135b156134f05784935060008613156134c257858789809950819a508296505050505b6134cd84898961332e565b91508584146134eb5783838284809450819550829750839650505050505b613551565b856134fa906147be565b9150600085121561351e578461350f906147be565b8789809950819a508294505050505b613529828989613a1b565b925085613535906147be565b82146135505782848284809450819550829650839750505050505b5b945094509450949050565b600080613567611228565b9050600083856135779190614599565b8260000154856135879190614620565b61359191906145ef565b9050816003015481116135db57600082600301548360040154836135b59190614620565b6135bf91906145ef565b90508083600201546135d19190614599565b9350505050613647565b60008260030154826135ed919061467a565b9050600083600301548460000154613605919061467a565b8460050154836136159190614620565b61361f91906145ef565b905080846004015485600201546136369190614599565b6136409190614599565b9450505050505b92915050565b8060030160009054906101000a900473ffffffffffffffffffffffffffffffffffffffff1673ffffffffffffffffffffffffffffffffffffffff16630902f1ac6040518163ffffffff1660e01b815260040160606040518083038186803b1580156136b757600080fd5b505afa1580156136cb573d6000803e3d6000fd5b505050506040513d601f19601f820116820180604052508101906136ef9190613ce7565b826dffffffffffffffffffffffffffff169250816dffffffffffffffffffffffffffff1691505082600e01600081548110613753577f4e487b7100000000000000000000000000000000000000000000000000000000600052603260045260246000fd5b90600052602060002001600084600e0160018154811061379c577f4e487b7100000000000000000000000000000000000000000000000000000000600052603260045260246000fd5b90600052602060002001600084919050558391905055505050565b60008060008373ffffffffffffffffffffffffffffffffffffffff166040518060400160405280600d81526020017f746f74616c537570706c7928290000000000000000000000000000000000000081525080519060200120604051602401604051602081830303815290604052907bffffffffffffffffffffffffffffffffffffffffffffffffffffffff19166020820180517bffffffffffffffffffffffffffffffffffffffffffffffffffffffff838183161783525050505060405161388091906141d9565b600060405180830381855afa9150503d80600081146138bb576040519150601f19603f3d011682016040523d82523d6000602084013e6138c0565b606091505b50915091508180156138d457506020815110155b6138dd57600080fd5b808060200190518101906138f19190613d5f565b92505050919050565b6000811161393d576040517f08c379a0000000000000000000000000000000000000000000000000000000008152600401613934906142e8565b60405180910390fd5b8083601f0160008282546139519190614599565b92505081905550808360200160008473ffffffffffffffffffffffffffffffffffffffff1673ffffffffffffffffffffffffffffffffffffffff16815260200190815260200160002060008282546139a99190614599565b925050819055508173ffffffffffffffffffffffffffffffffffffffff16600073ffffffffffffffffffffffffffffffffffffffff167fddf252ad1be2c89b69c2b068fc378daa952ba7f163c4a11628f55a4df523b3ef83604051613a0e9190614483565b60405180910390a3505050565b60008083118015613a2c5750600082115b613a6b576040517f08c379a0000000000000000000000000000000000000000000000000000000008152600401613a6290614348565b60405180910390fd5b6000613a756119c3565b905060008160020160029054906101000a900461ffff1661ffff1686613a9b9190614620565b90506000818360020160009054906101000a900461ffff1661ffff1687613ac29190614620565b613acc9190614599565b9050808583613adb9190614620565b613ae591906145ef565b93505050509392505050565b828054828255906000526020600020908101928215613b2d579160200282015b82811115613b2c578251825591602001919060010190613b11565b5b509050613b3a9190613b3e565b5090565b5b80821115613b57576000816000905550600101613b3f565b5090565b600081359050613b6a81614ab4565b92915050565b600081519050613b7f81614ab4565b92915050565b60008083601f840112613b9757600080fd5b8235905067ffffffffffffffff811115613bb057600080fd5b602083019150836020820283011115613bc857600080fd5b9250929050565b60008083601f840112613be157600080fd5b8235905067ffffffffffffffff811115613bfa57600080fd5b602083019150836020820283011115613c1257600080fd5b9250929050565b600081519050613c2881614acb565b92915050565b600081519050613c3d81614ae2565b92915050565b600081359050613c5281614af9565b92915050565b600081519050613c6781614af9565b92915050565b600081519050613c7c81614b10565b92915050565b60008060408385031215613c9557600080fd5b6000613ca385828601613b70565b9250506020613cb485828601613c58565b9150509250929050565b600060208284031215613cd057600080fd5b6000613cde84828501613c19565b91505092915050565b600080600060608486031215613cfc57600080fd5b6000613d0a86828701613c2e565b9350506020613d1b86828701613c2e565b9250506040613d2c86828701613c6d565b9150509250925092565b600060208284031215613d4857600080fd5b6000613d5684828501613c43565b91505092915050565b600060208284031215613d7157600080fd5b6000613d7f84828501613c58565b91505092915050565b600080600060408486031215613d9d57600080fd5b6000613dab86828701613c43565b935050602084013567ffffffffffffffff811115613dc857600080fd5b613dd486828701613b85565b92509250509250925092565b60008060008060608587031215613df657600080fd5b6000613e0487828801613c43565b945050602085013567ffffffffffffffff811115613e2157600080fd5b613e2d87828801613bcf565b93509350506040613e4087828801613b5b565b91505092959194509250565b60008060408385031215613e5f57600080fd5b6000613e6d85828601613c43565b9250506020613e7e85828601613c43565b9150509250929050565b60008060408385031215613e9b57600080fd5b6000613ea985828601613c58565b9250506020613eba85828601613c58565b9150509250929050565b6000613ed083836141bb565b60208301905092915050565b613ee5816146ae565b82525050565b6000613ef682614538565b613f00818561455b565b9350613f0b83614528565b8060005b83811015613f3c578151613f238882613ec4565b9750613f2e8361454e565b925050600181019050613f0f565b5085935050505092915050565b613f52816146cc565b82525050565b6000613f6382614543565b613f6d818561456c565b9350613f7d818560208601614742565b613f8681614865565b840191505092915050565b6000613f9c82614543565b613fa6818561457d565b9350613fb6818560208601614742565b80840191505092915050565b6000613fcf600783614588565b9150613fda82614876565b602082019050919050565b6000613ff2600483614588565b9150613ffd8261489f565b602082019050919050565b6000614015600583614588565b9150614020826148c8565b602082019050919050565b6000614038600383614588565b9150614043826148f1565b602082019050919050565b600061405b600983614588565b91506140668261491a565b602082019050919050565b600061407e600983614588565b915061408982614943565b602082019050919050565b60006140a1600983614588565b91506140ac8261496c565b602082019050919050565b60006140c4600883614588565b91506140cf82614995565b602082019050919050565b60006140e7600883614588565b91506140f2826149be565b602082019050919050565b600061410a600583614588565b9150614115826149e7565b602082019050919050565b600061412d600583614588565b915061413882614a10565b602082019050919050565b6000614150600983614588565b915061415b82614a39565b602082019050919050565b6000614173600483614588565b915061417e82614a62565b602082019050919050565b6000614196600683614588565b91506141a182614a8b565b602082019050919050565b6141b5816146fa565b82525050565b6141c481614728565b82525050565b6141d381614728565b82525050565b60006141e58284613f91565b915081905092915050565b60006020820190506142056000830184613edc565b92915050565b60006060820190506142206000830186613edc565b61422d6020830185613edc565b61423a60408301846141ca565b949350505050565b60006040820190506142576000830185613edc565b61426460208301846141ca565b9392505050565b600060208201905081810360008301526142858184613eeb565b905092915050565b60006020820190506142a26000830184613f49565b92915050565b600060208201905081810360008301526142c181613fc2565b9050919050565b600060208201905081810360008301526142e181613fe5565b9050919050565b6000602082019050818103600083015261430181614008565b9050919050565b600060208201905081810360008301526143218161402b565b9050919050565b600060208201905081810360008301526143418161404e565b9050919050565b6000602082019050818103600083015261436181614071565b9050919050565b6000602082019050818103600083015261438181614094565b9050919050565b600060208201905081810360008301526143a1816140b7565b9050919050565b600060208201905081810360008301526143c1816140da565b9050919050565b600060208201905081810360008301526143e1816140fd565b9050919050565b6000602082019050818103600083015261440181614120565b9050919050565b6000602082019050818103600083015261442181614143565b9050919050565b6000602082019050818103600083015261444181614166565b9050919050565b6000602082019050818103600083015261446181614189565b9050919050565b600060208201905061447d60008301846141ac565b92915050565b600060208201905061449860008301846141ca565b92915050565b60006080820190506144b360008301876141ca565b6144c060208301866141ca565b6144cd6040830185613edc565b81810360608301526144df8184613f58565b905095945050505050565b60006060820190506144ff60008301866141ca565b61450c60208301856141ca565b818103604083015261451e8184613eeb565b9050949350505050565b6000819050602082019050919050565b600081519050919050565b600081519050919050565b6000602082019050919050565b600082825260208201905092915050565b600082825260208201905092915050565b600081905092915050565b600082825260208201905092915050565b60006145a482614728565b91506145af83614728565b9250827fffffffffffffffffffffffffffffffffffffffffffffffffffffffffffffffff038211156145e4576145e3614807565b5b828201905092915050565b60006145fa82614728565b915061460583614728565b92508261461557614614614836565b5b828204905092915050565b600061462b82614728565b915061463683614728565b9250817fffffffffffffffffffffffffffffffffffffffffffffffffffffffffffffffff048311821515161561466f5761466e614807565b5b828202905092915050565b600061468582614728565b915061469083614728565b9250828210156146a3576146a2614807565b5b828203905092915050565b60006146b982614708565b9050919050565b60008115159050919050565b6000819050919050565b6000819050919050565b60006dffffffffffffffffffffffffffff82169050919050565b600061ffff82169050919050565b600073ffffffffffffffffffffffffffffffffffffffff82169050919050565b6000819050919050565b600063ffffffff82169050919050565b60005b83811015614760578082015181840152602081019050614745565b8381111561476f576000848401525b50505050565b600061478082614728565b91507fffffffffffffffffffffffffffffffffffffffffffffffffffffffffffffffff8214156147b3576147b2614807565b5b600182019050919050565b60006147c9826146d6565b91507f80000000000000000000000000000000000000000000000000000000000000008214156147fc576147fb614807565b5b816000039050919050565b7f4e487b7100000000000000000000000000000000000000000000000000000000600052601160045260246000fd5b7f4e487b7100000000000000000000000000000000000000000000000000000000600052601260045260246000fd5b6000601f19601f8301169050919050565b7f53545f4641494c00000000000000000000000000000000000000000000000000600082015250565b7f3020696400000000000000000000000000000000000000000000000000000000600082015250565b7f3020616d74000000000000000000000000000000000000000000000000000000600082015250565b7f5345540000000000000000000000000000000000000000000000000000000000600082015250565b7f464f5242494444454e0000000000000000000000000000000000000000000000600082015250565b7f3020726573657276650000000000000000000000000000000000000000000000600082015250565b7f6261642064656c74610000000000000000000000000000000000000000000000600082015250565b7f4c50203c2042616c000000000000000000000000000000000000000000000000600082015250565b7f3e206f7574416d74000000000000000000000000000000000000000000000000600082015250565b7f3e206c6971000000000000000000000000000000000000000000000000000000600082015250565b7f3e20616d74000000000000000000000000000000000000000000000000000000600082015250565b7f3c20616d6f756e74730000000000000000000000000000000000000000000000600082015250565b7f4c4f434b00000000000000000000000000000000000000000000000000000000600082015250565b7f6d617267696e0000000000000000000000000000000000000000000000000000600082015250565b614abd816146ae565b8114614ac857600080fd5b50565b614ad4816146c0565b8114614adf57600080fd5b50565b614aeb816146e0565b8114614af657600080fd5b50565b614b0281614728565b8114614b0d57600080fd5b50565b614b1981614732565b8114614b2457600080fd5b5056fea2646970667358221220296e55d48131afa66f557636c5567587ff90f7a116a4cc85989d78ada525e4c064736f6c6343000804003360806040523480156200001157600080fd5b50604051620051b4380380620051b4833981810160405281019062000037919062000534565b8181600082806020019051810190620000519190620005d3565b90506200007c8160000151826020015183604001518460600151620000cb60201b6200168f1760201c565b600082806020019051810190620000949190620005a7565b9050620000bf8160400151826060015183608001518460a00151620001e860201b620017a11760201c565b50505050505062000871565b6000620000dd6200029f60201b60201c565b9050600015158160020160049054906101000a900460ff161515146200013a576040517f08c379a0000000000000000000000000000000000000000000000000000000008152600401620001319062000626565b60405180910390fd5b60018160020160046101000a81548160ff021916908315150217905550848160000160006101000a81548173ffffffffffffffffffffffffffffffffffffffff021916908373ffffffffffffffffffffffffffffffffffffffff160217905550838160010181905550828160020160006101000a81548161ffff021916908361ffff160217905550818160020160026101000a81548161ffff021916908361ffff1602179055505050505050565b6000620001fa620002cc60201b60201c565b9050600015158160060160009054906101000a900460ff1615151462000257576040517f08c379a00000000000000000000000000000000000000000000000000000000081526004016200024e9062000626565b60405180910390fd5b670de0b6b3a7640000816000018190555062225f1b81600101819055508481600201819055508381600301819055508281600401819055508181600401819055505050505050565b6000807f1824a6532b5d85d82567e9f940dc3b06cad7da947e0716640ca7178dbfe30d6790508091505090565b6000807f1f5edbb2e428ca6eb959239e349ecf9840113efe584c1ea9dd664eb95b39c10b90508091505090565b6000620003106200030a8462000671565b62000648565b9050828152602081018484840111156200032957600080fd5b620003368482856200071a565b509392505050565b6000815190506200034f81620007ef565b92915050565b600081519050620003668162000809565b92915050565b6000815190506200037d8162000823565b92915050565b600082601f8301126200039557600080fd5b8151620003a7848260208601620002f9565b91505092915050565b600060e08284031215620003c357600080fd5b620003cf60e062000648565b90506000620003e1848285016200051d565b6000830152506020620003f7848285016200051d565b60208301525060406200040d848285016200051d565b604083015250606062000423848285016200051d565b606083015250608062000439848285016200051d565b60808301525060a06200044f848285016200051d565b60a08301525060c0620004658482850162000355565b60c08301525092915050565b600060a082840312156200048457600080fd5b6200049060a062000648565b90506000620004a2848285016200033e565b6000830152506020620004b8848285016200036c565b6020830152506040620004ce8482850162000506565b6040830152506060620004e48482850162000506565b6060830152506080620004fa8482850162000355565b60808301525092915050565b60008151905062000517816200083d565b92915050565b6000815190506200052e8162000857565b92915050565b600080604083850312156200054857600080fd5b600083015167ffffffffffffffff8111156200056357600080fd5b620005718582860162000383565b925050602083015167ffffffffffffffff8111156200058f57600080fd5b6200059d8582860162000383565b9150509250929050565b600060e08284031215620005ba57600080fd5b6000620005ca84828501620003b0565b91505092915050565b600060a08284031215620005e657600080fd5b6000620005f68482850162000471565b91505092915050565b60006200060e600383620006a7565b91506200061b82620007c6565b602082019050919050565b600060208201905081810360008301526200064181620005ff565b9050919050565b60006200065462000667565b905062000662828262000750565b919050565b6000604051905090565b600067ffffffffffffffff8211156200068f576200068e62000786565b5b6200069a82620007b5565b9050602081019050919050565b600082825260208201905092915050565b6000620006c582620006f0565b9050919050565b60008115159050919050565b6000819050919050565b600061ffff82169050919050565b600073ffffffffffffffffffffffffffffffffffffffff82169050919050565b6000819050919050565b60005b838110156200073a5780820151818401526020810190506200071d565b838111156200074a576000848401525b50505050565b6200075b82620007b5565b810181811067ffffffffffffffff821117156200077d576200077c62000786565b5b80604052505050565b7f4e487b7100000000000000000000000000000000000000000000000000000000600052604160045260246000fd5b6000601f19601f8301169050919050565b7f5345540000000000000000000000000000000000000000000000000000000000600082015250565b620007fa81620006b8565b81146200080657600080fd5b50565b6200081481620006cc565b81146200082057600080fd5b50565b6200082e81620006d8565b81146200083a57600080fd5b50565b6200084881620006e2565b81146200085457600080fd5b50565b620008628162000710565b81146200086e57600080fd5b50565b61493380620008816000396000f3fe608060405234801561001057600080fd5b506004361061012c5760003560e01c80636ee4cffd116100ad578063c45a015511610071578063c45a0155146103ac578063d0134cb7146103ca578063db4c545e146103e8578063e62d2eeb14610406578063e855aee5146104365761012c565b80636ee4cffd146102e05780639fdaeacd14610310578063a5cdfa941461032e578063a62b75a81461035e578063b77a1e7d1461037c5761012c565b8063463cd970116100f4578063463cd9701461021357806349ae2075146102435780634d0e849c1461026157806354d86e3f1461027f5780635b35b5b4146102b05761012c565b80630ca42379146101315780631d26df15146101615780631f68f20a146101945780633337cd85146101b25780634054bf24146101e2575b600080fd5b61014b60048036038101906101469190613951565b610466565b60405161015891906141aa565b60405180910390f35b61017b6004803603810190610176919061375f565b610719565b60405161018b94939291906141ee565b60405180910390f35b61019c6107d8565b6040516101a991906141aa565b60405180910390f35b6101cc60048036038101906101c79190613951565b6107eb565b6040516101d991906141aa565b60405180910390f35b6101fc60048036038101906101f79190613641565b610ae2565b60405161020a929190613f44565b60405180910390f35b61022d60048036038101906102289190613915565b610c60565b60405161023a91906141aa565b60405180910390f35b61024b610d8b565b60405161025891906141aa565b60405180910390f35b610269610d9e565b604051610276919061418f565b60405180910390f35b6102996004803603810190610294919061366a565b610dbf565b6040516102a7929190613f44565b60405180910390f35b6102ca60048036038101906102c59190613641565b6111ae565b6040516102d791906141aa565b60405180910390f35b6102fa60048036038101906102f591906137d6565b6112f1565b60405161030791906141aa565b60405180910390f35b610318611367565b604051610325919061418f565b60405180910390f35b610348600480360381019061034391906139a0565b611388565b60405161035591906141aa565b60405180910390f35b61036661139c565b60405161037391906141aa565b60405180910390f35b61039660048036038101906103919190613a18565b6113af565b6040516103a391906141aa565b60405180910390f35b6103b46113f3565b6040516103c19190613e6d565b60405180910390f35b6103d2611426565b6040516103df91906141aa565b60405180910390f35b6103f0611439565b6040516103fd9190613f74565b60405180910390f35b610420600480360381019061041b9190613641565b61144c565b60405161042d91906141aa565b60405180910390f35b610450600480360381019061044b9190613915565b6115a8565b60405161045d91906141aa565b60405180910390f35b600061047061184d565b600061047a6118ad565b9050610485816118da565b80600701548511156104cc576040517f08c379a00000000000000000000000000000000000000000000000000000000081526004016104c39061414f565b60405180910390fd5b6104d68186611d14565b91508273ffffffffffffffffffffffffffffffffffffffff163373ffffffffffffffffffffffffffffffffffffffff16146106465760008160210160008573ffffffffffffffffffffffffffffffffffffffff1673ffffffffffffffffffffffffffffffffffffffff16815260200190815260200160002060003373ffffffffffffffffffffffffffffffffffffffff1673ffffffffffffffffffffffffffffffffffffffff1681526020019081526020016000205490507fffffffffffffffffffffffffffffffffffffffffffffffffffffffffffffffff81146106445782816105c191906143c3565b8260210160008673ffffffffffffffffffffffffffffffffffffffff1673ffffffffffffffffffffffffffffffffffffffff16815260200190815260200160002060003373ffffffffffffffffffffffffffffffffffffffff1673ffffffffffffffffffffffffffffffffffffffff168152602001908152602001600020819055505b505b610651818684611d57565b61065c818484611d5c565b8273ffffffffffffffffffffffffffffffffffffffff168473ffffffffffffffffffffffffffffffffffffffff163373ffffffffffffffffffffffffffffffffffffffff167ffbde797d201c681b91056529119e0b02407c7bb96a4a2c75c01fc9667232c8db88866040516106d29291906141c5565b60405180910390a46107098160030160009054906101000a900473ffffffffffffffffffffffffffffffffffffffff168587611f24565b506107126120ae565b9392505050565b6000806000806000670de0b6b3a764000090508093506107418a61073c8c6120c1565b61226b565b925061074c8a61230b565b9150600082111561078d57600081838a6107669190614369565b6107709190614338565b905080888561077f9190614369565b6107899190614338565b9450505b6000864361079b91906143c3565b9050600062225f1b8b836107af9190614369565b6107b99190614338565b905080866107c791906142e2565b965050505095509550955095915050565b60006107e261244e565b60020154905090565b60006107f561184d565b60006107ff6118ad565b905061080a816118da565b8273ffffffffffffffffffffffffffffffffffffffff163373ffffffffffffffffffffffffffffffffffffffff16146109785760008160210160008573ffffffffffffffffffffffffffffffffffffffff1673ffffffffffffffffffffffffffffffffffffffff16815260200190815260200160002060003373ffffffffffffffffffffffffffffffffffffffff1673ffffffffffffffffffffffffffffffffffffffff1681526020019081526020016000205490507fffffffffffffffffffffffffffffffffffffffffffffffffffffffffffffffff81146109765785816108f391906143c3565b8260210160008673ffffffffffffffffffffffffffffffffffffffff1673ffffffffffffffffffffffffffffffffffffffff16815260200190815260200160002060003373ffffffffffffffffffffffffffffffffffffffff1673ffffffffffffffffffffffffffffffffffffffff168152602001908152602001600020819055505b505b6000610984828761247b565b92508214156109c8576040517f08c379a00000000000000000000000000000000000000000000000000000000081526004016109bf9061410f565b60405180910390fd5b8060070154821115610a0f576040517f08c379a0000000000000000000000000000000000000000000000000000000008152600401610a069061414f565b60405180910390fd5b610a1a818387611d57565b610a25818487611d5c565b8273ffffffffffffffffffffffffffffffffffffffff168473ffffffffffffffffffffffffffffffffffffffff163373ffffffffffffffffffffffffffffffffffffffff167ffbde797d201c681b91056529119e0b02407c7bb96a4a2c75c01fc9667232c8db8589604051610a9b9291906141c5565b60405180910390a4610ad28160030160009054906101000a900473ffffffffffffffffffffffffffffffffffffffff168584611f24565b50610adb6120ae565b9392505050565b60606000610aee61184d565b6000610af86118ad565b905060008160200160003073ffffffffffffffffffffffffffffffffffffffff1673ffffffffffffffffffffffffffffffffffffffff16815260200190815260200160002054905060008111610b83576040517f08c379a0000000000000000000000000000000000000000000000000000000008152600401610b7a9061406f565b60405180910390fd5b610b8c826118da565b8160070154610b9b838361247b565b9350831115610bdf576040517f08c379a0000000000000000000000000000000000000000000000000000000008152600401610bd69061414f565b60405180910390fd5b610c0e8260030160009054906101000a900473ffffffffffffffffffffffffffffffffffffffff1686856124be565b9350610c1b823083611d5c565b610c498260030160009054906101000a900473ffffffffffffffffffffffffffffffffffffffff163061265a565b82600701819055505050610c5b6120ae565b915091565b6000610c6a61184d565b6000610c746118ad565b9050610c7f816118da565b6000610c8b82866127a9565b9250821415610ccf576040517f08c379a0000000000000000000000000000000000000000000000000000000008152600401610cc690613faf565b60405180910390fd5b610cff8160030160009054906101000a900473ffffffffffffffffffffffffffffffffffffffff163330876127ec565b610d0a81848461295c565b8273ffffffffffffffffffffffffffffffffffffffff163373ffffffffffffffffffffffffffffffffffffffff167fdcbc1c05240f31ff3ad067ef1ee35ce4997762752e3a095284754544f4c709d78685604051610d699291906141c5565b60405180910390a3610d7c818584612a7d565b50610d856120ae565b92915050565b6000610d9561244e565b60030154905090565b6000610da8612a82565b60020160009054906101000a900461ffff16905090565b60606000610dcb61184d565b6000610dd56118ad565b90506000610de6828b8b8b8b612aaf565b809250819550505060008260010190506000818054905067ffffffffffffffff811115610e3c577f4e487b7100000000000000000000000000000000000000000000000000000000600052604160045260246000fd5b604051908082528060200260200182016040528015610e6a5781602001602082028036833780820191505090505b50905060005b8280549050811015610f4157610ee9838281548110610eb8577f4e487b7100000000000000000000000000000000000000000000000000000000600052603260045260246000fd5b9060005260206000200160009054906101000a900473ffffffffffffffffffffffffffffffffffffffff163061265a565b828281518110610f22577f4e487b7100000000000000000000000000000000000000000000000000000000600052603260045260246000fd5b6020026020010181815250508080610f39906144fd565b915050610e70565b503373ffffffffffffffffffffffffffffffffffffffff16636464a1eb8388868c8c6040518663ffffffff1660e01b8152600401610f83959493929190613ee8565b600060405180830381600087803b158015610f9d57600080fd5b505af1158015610fb1573d6000803e3d6000fd5b5050505060005b828054905081101561115a576000878281518110610fff577f4e487b7100000000000000000000000000000000000000000000000000000000600052603260045260246000fd5b602002602001015111156111475761107a838281548110611049577f4e487b7100000000000000000000000000000000000000000000000000000000600052603260045260246000fd5b9060005260206000200160009054906101000a900473ffffffffffffffffffffffffffffffffffffffff163061265a565b8782815181106110b3577f4e487b7100000000000000000000000000000000000000000000000000000000600052603260045260246000fd5b60200260200101518383815181106110f4577f4e487b7100000000000000000000000000000000000000000000000000000000600052603260045260246000fd5b602002602001015161110691906142e2565b14611146576040517f08c379a000000000000000000000000000000000000000000000000000000000815260040161113d9061408f565b60405180910390fd5b5b8080611152906144fd565b915050610fb8565b5061118a8460030160009054906101000a900473ffffffffffffffffffffffffffffffffffffffff168730613125565b506111948d6111ae565b9450505050506111a26120ae565b97509795505050505050565b60006111b861184d565b60006111c26118ad565b9050600081600701546111f98360030160009054906101000a900473ffffffffffffffffffffffffffffffffffffffff163061265a565b61120391906143c3565b905060008111611248576040517f08c379a000000000000000000000000000000000000000000000000000000000815260040161123f9061412f565b60405180910390fd5b611251826118da565b600061125d83836127a9565b93508314156112a1576040517f08c379a000000000000000000000000000000000000000000000000000000000815260040161129890613faf565b60405180910390fd5b6112ac82858561295c565b6112da8260030160009054906101000a900473ffffffffffffffffffffffffffffffffffffffff163061265a565b826007018190555050506112ec6120ae565b919050565b60008060008061130d8b6113058b8b611388565b898989610719565b93509350509250670de0b6b3a7640000838b6113299190614369565b6113339190614338565b995081818b6113429190614369565b61134c9190614338565b8961135791906142e2565b9350505050979650505050505050565b6000611371612a82565b60020160029054906101000a900461ffff16905090565b600061139483836131bb565b905092915050565b60006113a661244e565b60040154905090565b6000670de0b6b3a764000084866113c69190614369565b6113d09190614338565b94508282866113df9190614369565b6113e99190614338565b9050949350505050565b60006113fd612a82565b60000160009054906101000a900473ffffffffffffffffffffffffffffffffffffffff16905090565b600061143061244e565b60050154905090565b6000611443612a82565b60010154905090565b600061145661184d565b60006114606118ad565b905060008160200160003073ffffffffffffffffffffffffffffffffffffffff1673ffffffffffffffffffffffffffffffffffffffff168152602001908152602001600020549050600081116114eb576040517f08c379a00000000000000000000000000000000000000000000000000000000081526004016114e29061406f565b60405180910390fd5b6114f4826118da565b8160070154611503838361247b565b9350831115611547576040517f08c379a000000000000000000000000000000000000000000000000000000000815260040161153e9061414f565b60405180910390fd5b60008260030160009054906101000a900473ffffffffffffffffffffffffffffffffffffffff16905061157b818686611f24565b611586833084611d5c565b611590813061265a565b83600701819055505050506115a36120ae565b919050565b60006115b261184d565b60006115bc6118ad565b90506115c7816118da565b6115d181856132ac565b91506116038160030160009054906101000a900473ffffffffffffffffffffffffffffffffffffffff163330856127ec565b61160e81848661295c565b8273ffffffffffffffffffffffffffffffffffffffff163373ffffffffffffffffffffffffffffffffffffffff167fdcbc1c05240f31ff3ad067ef1ee35ce4997762752e3a095284754544f4c709d7848760405161166d9291906141c5565b60405180910390a3611680818386612a7d565b506116896120ae565b92915050565b6000611699612a82565b9050600015158160020160049054906101000a900460ff161515146116f3576040517f08c379a00000000000000000000000000000000000000000000000000000000081526004016116ea9061402f565b60405180910390fd5b60018160020160046101000a81548160ff021916908315150217905550848160000160006101000a81548173ffffffffffffffffffffffffffffffffffffffff021916908373ffffffffffffffffffffffffffffffffffffffff160217905550838160010181905550828160020160006101000a81548161ffff021916908361ffff160217905550818160020160026101000a81548161ffff021916908361ffff1602179055505050505050565b60006117ab61244e565b9050600015158160060160009054906101000a900460ff16151514611805576040517f08c379a00000000000000000000000000000000000000000000000000000000081526004016117fc9061402f565b60405180910390fd5b670de0b6b3a7640000816000018190555062225f1b81600101819055508481600201819055508381600301819055508281600401819055508181600401819055505050505050565b60006118576118ad565b9050600181601b0154146118a0576040517f08c379a00000000000000000000000000000000000000000000000000000000081526004016118979061416f565b60405180910390fd5b600081601b018190555050565b6000807f58a86ce9af3c88d86c606c50ca486aaedb655aee7dec73f917ade295c9fef44390508091505090565b6000816016015490506118f5826007015483600801546131bb565b82600f0181905550611906826132ef565b60006119888360030160009054906101000a900473ffffffffffffffffffffffffffffffffffffffff1684600e0180548060200260200160405190810160405280929190818152602001828054801561197e57602002820191906000526020600020905b81548152602001906001019080831161196a575b505050505061226b565b905060006119b98460030160009054906101000a900473ffffffffffffffffffffffffffffffffffffffff1661230b565b90506000811115611a0c576000838286601301546119d79190614369565b6119e19190614338565b9050808560140154846119f49190614369565b6119fe9190614338565b856012018190555050611a16565b8284601201819055505b81846013018190555080846014018190555050506000826015015443611a3c91906143c3565b9050600062225f1b84600f015483611a549190614369565b611a5e9190614338565b9050808460120154611a7091906142e2565b8460110181905550505080826011015483600b0154611a8f9190614369565b611a999190614338565b82600b01819055508160130154826014015483600b0154611aba9190614369565b611ac49190614338565b8260090181905550816014015482601301548360070154611ae59190614369565b611aef9190614338565b82600c018190555081600901548260070154611b0b91906142e2565b82600a018190555081600b015482600c0154611b2791906142e2565b82600d01819055508082601101548360100154611b449190614369565b611b4e9190614338565b8260100181905550438260150181905550600082600b01541115611d10576000808360000160009054906101000a900473ffffffffffffffffffffffffffffffffffffffff1673ffffffffffffffffffffffffffffffffffffffff1663995b5aae6040518163ffffffff1660e01b8152600401604080518083038186803b158015611bd857600080fd5b505afa158015611bec573d6000803e3d6000fd5b505050506040513d601f19601f82011682018060405250810190611c109190613723565b91509150600073ffffffffffffffffffffffffffffffffffffffff168273ffffffffffffffffffffffffffffffffffffffff1614158015611c515750600081115b15611d0d576000846014015485601301548660070154611c719190614369565b611c7b9190614338565b90506000856011015483868860110154611c9591906143c3565b611c9f9190614369565b611ca99190614338565b905060008287600b0154611cbd91906142e2565b87600b015483611ccd9190614369565b611cd79190614338565b9050611d0987868389611cea91906143c3565b848b601f0154611cfa9190614369565b611d049190614338565b61295c565b5050505b50505b5050565b60008083601f01549050600084600a0154905060008214611d4b57808285611d3c9190614369565b611d469190614338565b611d4d565b835b9250505092915050565b505050565b600073ffffffffffffffffffffffffffffffffffffffff168273ffffffffffffffffffffffffffffffffffffffff161415611dcc576040517f08c379a0000000000000000000000000000000000000000000000000000000008152600401611dc39061404f565b60405180910390fd5b60008360200160008473ffffffffffffffffffffffffffffffffffffffff1673ffffffffffffffffffffffffffffffffffffffff16815260200190815260200160002054905081811015611e55576040517f08c379a0000000000000000000000000000000000000000000000000000000008152600401611e4c90613fef565b60405180910390fd5b8181038460200160008573ffffffffffffffffffffffffffffffffffffffff1673ffffffffffffffffffffffffffffffffffffffff168152602001908152602001600020819055508184601f016000828254611eb191906143c3565b92505081905550600073ffffffffffffffffffffffffffffffffffffffff168373ffffffffffffffffffffffffffffffffffffffff167fddf252ad1be2c89b69c2b068fc378daa952ba7f163c4a11628f55a4df523b3ef84604051611f1691906141aa565b60405180910390a350505050565b6000808473ffffffffffffffffffffffffffffffffffffffff166040518060400160405280601981526020017f7472616e7366657228616464726573732c75696e743235362900000000000000815250805190602001208585604051602401611f8e929190613ebf565b604051602081830303815290604052907bffffffffffffffffffffffffffffffffffffffffffffffffffffffff19166020820180517bffffffffffffffffffffffffffffffffffffffffffffffffffffffff8381831617835250505050604051611ff89190613e56565b6000604051808303816000865af19150503d8060008114612035576040519150601f19603f3d011682016040523d82523d6000602084013e61203a565b606091505b509150915081801561206857506000815114806120675750808060200190518101906120669190613874565b5b5b6120a7576040517f08c379a000000000000000000000000000000000000000000000000000000000815260040161209e90613f8f565b60405180910390fd5b5050505050565b60016120b86118ad565b601b0181905550565b6060600267ffffffffffffffff811115612104577f4e487b7100000000000000000000000000000000000000000000000000000000600052604160045260246000fd5b6040519080825280602002602001820160405280156121325781602001602082028036833780820191505090505b5090508173ffffffffffffffffffffffffffffffffffffffff16630902f1ac6040518163ffffffff1660e01b815260040160606040518083038186803b15801561217b57600080fd5b505afa15801561218f573d6000803e3d6000fd5b505050506040513d601f19601f820116820180604052508101906121b3919061389d565b826dffffffffffffffffffffffffffff169250816dffffffffffffffffffffffffffff1691505082600081518110612214577f4e487b7100000000000000000000000000000000000000000000000000000000600052603260045260246000fd5b6020026020010183600181518110612255577f4e487b7100000000000000000000000000000000000000000000000000000000600052603260045260246000fd5b6020026020010182815250828152505050919050565b6000612303826001815181106122aa577f4e487b7100000000000000000000000000000000000000000000000000000000600052603260045260246000fd5b6020026020010151836000815181106122ec577f4e487b7100000000000000000000000000000000000000000000000000000000600052603260045260246000fd5b60200260200101516122fe9190614369565b613459565b905092915050565b60008060008373ffffffffffffffffffffffffffffffffffffffff166040518060400160405280600d81526020017f746f74616c537570706c7928290000000000000000000000000000000000000081525080519060200120604051602401604051602081830303815290604052907bffffffffffffffffffffffffffffffffffffffffffffffffffffffff19166020820180517bffffffffffffffffffffffffffffffffffffffffffffffffffffffff83818316178352505050506040516123d49190613e56565b600060405180830381855afa9150503d806000811461240f576040519150601f19603f3d011682016040523d82523d6000602084013e612414565b606091505b509150915081801561242857506020815110155b61243157600080fd5b8080602001905181019061244591906138ec565b92505050919050565b6000807f1f5edbb2e428ca6eb959239e349ecf9840113efe584c1ea9dd664eb95b39c10b90508091505090565b60008083601f01549050600084600a01549050600082146124b2578181856124a39190614369565b6124ad9190614338565b6124b4565b835b9250505092915050565b60606124cb848584611f24565b600267ffffffffffffffff81111561250c577f4e487b7100000000000000000000000000000000000000000000000000000000600052604160045260246000fd5b60405190808252806020026020018201604052801561253a5781602001602082028036833780820191505090505b5090508373ffffffffffffffffffffffffffffffffffffffff166389afcb44846040518263ffffffff1660e01b81526004016125769190613e6d565b6040805180830381600087803b15801561258f57600080fd5b505af11580156125a3573d6000803e3d6000fd5b505050506040513d601f19601f820116820180604052508101906125c791906139dc565b82600081518110612601577f4e487b7100000000000000000000000000000000000000000000000000000000600052603260045260246000fd5b6020026020010183600181518110612642577f4e487b7100000000000000000000000000000000000000000000000000000000600052603260045260246000fd5b60200260200101828152508281525050509392505050565b60008060008473ffffffffffffffffffffffffffffffffffffffff166040518060400160405280601281526020017f62616c616e63654f66286164647265737329000000000000000000000000000081525080519060200120856040516024016126c49190613e6d565b604051602081830303815290604052907bffffffffffffffffffffffffffffffffffffffffffffffffffffffff19166020820180517bffffffffffffffffffffffffffffffffffffffffffffffffffffffff838183161783525050505060405161272e9190613e56565b600060405180830381855afa9150503d8060008114612769576040519150601f19603f3d011682016040523d82523d6000602084013e61276e565b606091505b509150915081801561278257506020815110155b61278b57600080fd5b8080602001905181019061279f91906138ec565b9250505092915050565b60008083601f01549050600084600a01549050600082146127e0578082856127d19190614369565b6127db9190614338565b6127e2565b835b9250505092915050565b6000808573ffffffffffffffffffffffffffffffffffffffff166040518060600160405280602581526020016148d9602591398051906020012086868660405160240161283b93929190613e88565b604051602081830303815290604052907bffffffffffffffffffffffffffffffffffffffffffffffffffffffff19166020820180517bffffffffffffffffffffffffffffffffffffffffffffffffffffffff83818316178352505050506040516128a59190613e56565b6000604051808303816000865af19150503d80600081146128e2576040519150601f19603f3d011682016040523d82523d6000602084013e6128e7565b606091505b509150915081801561291557506000815114806129145750808060200190518101906129139190613874565b5b5b612954576040517f08c379a000000000000000000000000000000000000000000000000000000000815260040161294b906140cf565b60405180910390fd5b505050505050565b6000811161299f576040517f08c379a00000000000000000000000000000000000000000000000000000000081526004016129969061400f565b60405180910390fd5b8083601f0160008282546129b391906142e2565b92505081905550808360200160008473ffffffffffffffffffffffffffffffffffffffff1673ffffffffffffffffffffffffffffffffffffffff1681526020019081526020016000206000828254612a0b91906142e2565b925050819055508173ffffffffffffffffffffffffffffffffffffffff16600073ffffffffffffffffffffffffffffffffffffffff167fddf252ad1be2c89b69c2b068fc378daa952ba7f163c4a11628f55a4df523b3ef83604051612a7091906141aa565b60405180910390a3505050565b505050565b6000807f1824a6532b5d85d82567e9f940dc3b06cad7da947e0716640ca7178dbfe30d6790508091505090565b606060008086866000818110612aee577f4e487b7100000000000000000000000000000000000000000000000000000000600052603260045260246000fd5b90506020020135118015612b425750600086866001818110612b39577f4e487b7100000000000000000000000000000000000000000000000000000000600052603260045260246000fd5b90506020020135115b612b81576040517f08c379a0000000000000000000000000000000000000000000000000000000008152600401612b78906140ef565b60405180910390fd5b60008088600e01600081548110612bc1577f4e487b7100000000000000000000000000000000000000000000000000000000600052603260045260246000fd5b906000526020600020015489600e01600181548110612c09577f4e487b7100000000000000000000000000000000000000000000000000000000600052603260045260246000fd5b906000526020600020015491509150600082118015612c285750600081115b612c67576040517f08c379a0000000000000000000000000000000000000000000000000000000008152600401612c5e906140af565b60405180910390fd5b8860030160009054906101000a900473ffffffffffffffffffffffffffffffffffffffff169250600082148015612c9e5750600081145b15612cf857878784828280806020026020016040519081016040528093929190818152602001838360200280828437600081840152601f19601f82011690508083019250505050505050915090915093509350505061311b565b600267ffffffffffffffff811115612d39577f4e487b7100000000000000000000000000000000000000000000000000000000600052604160045260246000fd5b604051908082528060200260200182016040528015612d675781602001602082028036833780820191505090505b509350600082828a8a6000818110612da8577f4e487b7100000000000000000000000000000000000000000000000000000000600052603260045260246000fd5b90506020020135612db99190614369565b612dc39190614338565b905088886001818110612dff577f4e487b7100000000000000000000000000000000000000000000000000000000600052603260045260246000fd5b905060200201358111612f2c57612e568188886001818110612e4a577f4e487b7100000000000000000000000000000000000000000000000000000000600052603260045260246000fd5b905060200201356134d3565b88886000818110612e90577f4e487b7100000000000000000000000000000000000000000000000000000000600052603260045260246000fd5b905060200201358186600081518110612ed2577f4e487b7100000000000000000000000000000000000000000000000000000000600052603260045260246000fd5b6020026020010187600181518110612f13577f4e487b7100000000000000000000000000000000000000000000000000000000600052603260045260246000fd5b602002602001018281525082815250505050505061311b565b600082848b8b6001818110612f6a577f4e487b7100000000000000000000000000000000000000000000000000000000600052603260045260246000fd5b90506020020135612f7b9190614369565b612f859190614338565b905089896000818110612fc1577f4e487b7100000000000000000000000000000000000000000000000000000000600052603260045260246000fd5b90506020020135811115612ffe577f4e487b7100000000000000000000000000000000000000000000000000000000600052600160045260246000fd5b613048818989600081811061303c577f4e487b7100000000000000000000000000000000000000000000000000000000600052603260045260246000fd5b905060200201356134d3565b808a8a6001818110613083577f4e487b7100000000000000000000000000000000000000000000000000000000600052603260045260246000fd5b90506020020135876000815181106130c4577f4e487b7100000000000000000000000000000000000000000000000000000000600052603260045260246000fd5b6020026020010188600181518110613105577f4e487b7100000000000000000000000000000000000000000000000000000000600052603260045260246000fd5b6020026020010182815250828152505050505050505b9550959350505050565b60008373ffffffffffffffffffffffffffffffffffffffff16636a627842836040518263ffffffff1660e01b81526004016131609190613e6d565b602060405180830381600087803b15801561317a57600080fd5b505af115801561318e573d6000803e3d6000fd5b505050506040513d601f19601f820116820180604052508101906131b291906138ec565b90509392505050565b6000806131c661244e565b9050600083856131d691906142e2565b8260000154856131e69190614369565b6131f09190614338565b90508160030154811161323a57600082600301548360040154836132149190614369565b61321e9190614338565b905080836002015461323091906142e2565b93505050506132a6565b600082600301548261324c91906143c3565b905060008360030154846000015461326491906143c3565b8460050154836132749190614369565b61327e9190614338565b9050808460040154856002015461329591906142e2565b61329f91906142e2565b9450505050505b92915050565b60008083601f01549050600084600a01549050600082146132e3578181856132d49190614369565b6132de9190614338565b6132e5565b835b9250505092915050565b8060030160009054906101000a900473ffffffffffffffffffffffffffffffffffffffff1673ffffffffffffffffffffffffffffffffffffffff16630902f1ac6040518163ffffffff1660e01b815260040160606040518083038186803b15801561335957600080fd5b505afa15801561336d573d6000803e3d6000fd5b505050506040513d601f19601f82011682018060405250810190613391919061389d565b826dffffffffffffffffffffffffffff169250816dffffffffffffffffffffffffffff1691505082600e016000815481106133f5577f4e487b7100000000000000000000000000000000000000000000000000000000600052603260045260246000fd5b90600052602060002001600084600e0160018154811061343e577f4e487b7100000000000000000000000000000000000000000000000000000000600052603260045260246000fd5b90600052602060002001600084919050558391905055505050565b600060038211156134c057819050600060016002846134789190614338565b61348291906142e2565b90505b818110156134ba57809150600281828561349f9190614338565b6134a991906142e2565b6134b39190614338565b9050613485565b506134ce565b600082146134cd57600190505b5b919050565b80821015613516576040517f08c379a000000000000000000000000000000000000000000000000000000000815260040161350d90613fcf565b60405180910390fd5b5050565b60008135905061352981614865565b92915050565b60008151905061353e81614865565b92915050565b60008083601f84011261355657600080fd5b8235905067ffffffffffffffff81111561356f57600080fd5b60208301915083602082028301111561358757600080fd5b9250929050565b60008151905061359d8161487c565b92915050565b60008083601f8401126135b557600080fd5b8235905067ffffffffffffffff8111156135ce57600080fd5b6020830191508360018202830111156135e657600080fd5b9250929050565b6000815190506135fc81614893565b92915050565b600081359050613611816148aa565b92915050565b600081519050613626816148aa565b92915050565b60008151905061363b816148c1565b92915050565b60006020828403121561365357600080fd5b60006136618482850161351a565b91505092915050565b60008060008060008060006080888a03121561368557600080fd5b60006136938a828b0161351a565b975050602088013567ffffffffffffffff8111156136b057600080fd5b6136bc8a828b01613544565b9650965050604088013567ffffffffffffffff8111156136db57600080fd5b6136e78a828b01613544565b9450945050606088013567ffffffffffffffff81111561370657600080fd5b6137128a828b016135a3565b925092505092959891949750929550565b6000806040838503121561373657600080fd5b60006137448582860161352f565b925050602061375585828601613617565b9150509250929050565b600080600080600060a0868803121561377757600080fd5b60006137858882890161351a565b955050602061379688828901613602565b94505060406137a788828901613602565b93505060606137b888828901613602565b92505060806137c988828901613602565b9150509295509295909350565b600080600080600080600060e0888a0312156137f157600080fd5b60006137ff8a828b0161351a565b97505060206138108a828b01613602565b96505060406138218a828b01613602565b95505060606138328a828b01613602565b94505060806138438a828b01613602565b93505060a06138548a828b01613602565b92505060c06138658a828b01613602565b91505092959891949750929550565b60006020828403121561388657600080fd5b60006138948482850161358e565b91505092915050565b6000806000606084860312156138b257600080fd5b60006138c0868287016135ed565b93505060206138d1868287016135ed565b92505060406138e28682870161362c565b9150509250925092565b6000602082840312156138fe57600080fd5b600061390c84828501613617565b91505092915050565b6000806040838503121561392857600080fd5b600061393685828601613602565b92505060206139478582860161351a565b9150509250929050565b60008060006060848603121561396657600080fd5b600061397486828701613602565b93505060206139858682870161351a565b92505060406139968682870161351a565b9150509250925092565b600080604083850312156139b357600080fd5b60006139c185828601613602565b92505060206139d285828601613602565b9150509250929050565b600080604083850312156139ef57600080fd5b60006139fd85828601613617565b9250506020613a0e85828601613617565b9150509250929050565b60008060008060808587031215613a2e57600080fd5b6000613a3c87828801613602565b9450506020613a4d87828801613602565b9350506040613a5e87828801613602565b9250506060613a6f87828801613602565b91505092959194509250565b6000613a878383613aab565b60208301905092915050565b6000613a9f8383613e38565b60208301905092915050565b613ab481614417565b82525050565b613ac381614417565b82525050565b6000613ad482614258565b613ade8185614293565b9350613ae983614233565b8060005b83811015613b2157613afe826145a4565b613b088882613a7b565b9750613b1383614279565b925050600181019050613aed565b5085935050505092915050565b6000613b3982614263565b613b4381856142a4565b9350613b4e83614248565b8060005b83811015613b7f578151613b668882613a93565b9750613b7183614286565b925050600181019050613b52565b5085935050505092915050565b613b9581614435565b82525050565b6000613ba783856142b5565b9350613bb48385846144a1565b613bbd836145b7565b840190509392505050565b6000613bd38261426e565b613bdd81856142c6565b9350613bed8185602086016144b0565b80840191505092915050565b6000613c066007836142d1565b9150613c11826145d5565b602082019050919050565b6000613c29600b836142d1565b9150613c34826145fe565b602082019050919050565b6000613c4c6008836142d1565b9150613c5782614627565b602082019050919050565b6000613c6f6009836142d1565b9150613c7a82614650565b602082019050919050565b6000613c926005836142d1565b9150613c9d82614679565b602082019050919050565b6000613cb56003836142d1565b9150613cc0826146a2565b602082019050919050565b6000613cd86009836142d1565b9150613ce3826146cb565b602082019050919050565b6000613cfb6008836142d1565b9150613d06826146f4565b602082019050919050565b6000613d1e6002836142d1565b9150613d298261471d565b602082019050919050565b6000613d416009836142d1565b9150613d4c82614746565b602082019050919050565b6000613d646008836142d1565b9150613d6f8261476f565b602082019050919050565b6000613d876008836142d1565b9150613d9282614798565b602082019050919050565b6000613daa600b836142d1565b9150613db5826147c1565b602082019050919050565b6000613dcd6005836142d1565b9150613dd8826147ea565b602082019050919050565b6000613df06005836142d1565b9150613dfb82614813565b602082019050919050565b6000613e136004836142d1565b9150613e1e8261483c565b602082019050919050565b613e3281614459565b82525050565b613e4181614487565b82525050565b613e5081614487565b82525050565b6000613e628284613bc8565b915081905092915050565b6000602082019050613e826000830184613aba565b92915050565b6000606082019050613e9d6000830186613aba565b613eaa6020830185613aba565b613eb76040830184613e47565b949350505050565b6000604082019050613ed46000830185613aba565b613ee16020830184613e47565b9392505050565b60006080820190508181036000830152613f028188613ac9565b90508181036020830152613f168187613b2e565b9050613f256040830186613aba565b8181036060830152613f38818486613b9b565b90509695505050505050565b60006040820190508181036000830152613f5e8185613b2e565b9050613f6d6020830184613e47565b9392505050565b6000602082019050613f896000830184613b8c565b92915050565b60006020820190508181036000830152613fa881613bf9565b9050919050565b60006020820190508181036000830152613fc881613c1c565b9050919050565b60006020820190508181036000830152613fe881613c3f565b9050919050565b6000602082019050818103600083015261400881613c62565b9050919050565b6000602082019050818103600083015261402881613c85565b9050919050565b6000602082019050818103600083015261404881613ca8565b9050919050565b6000602082019050818103600083015261406881613ccb565b9050919050565b6000602082019050818103600083015261408881613cee565b9050919050565b600060208201905081810360008301526140a881613d11565b9050919050565b600060208201905081810360008301526140c881613d34565b9050919050565b600060208201905081810360008301526140e881613d57565b9050919050565b6000602082019050818103600083015261410881613d7a565b9050919050565b6000602082019050818103600083015261412881613d9d565b9050919050565b6000602082019050818103600083015261414881613dc0565b9050919050565b6000602082019050818103600083015261416881613de3565b9050919050565b6000602082019050818103600083015261418881613e06565b9050919050565b60006020820190506141a46000830184613e29565b92915050565b60006020820190506141bf6000830184613e47565b92915050565b60006040820190506141da6000830185613e47565b6141e76020830184613e47565b9392505050565b60006080820190506142036000830187613e47565b6142106020830186613e47565b61421d6040830185613e47565b61422a6060830184613e47565b95945050505050565b60008190508160005260206000209050919050565b6000819050602082019050919050565b600081549050919050565b600081519050919050565b600081519050919050565b6000600182019050919050565b6000602082019050919050565b600082825260208201905092915050565b600082825260208201905092915050565b600082825260208201905092915050565b600081905092915050565b600082825260208201905092915050565b60006142ed82614487565b91506142f883614487565b9250827fffffffffffffffffffffffffffffffffffffffffffffffffffffffffffffffff0382111561432d5761432c614546565b5b828201905092915050565b600061434382614487565b915061434e83614487565b92508261435e5761435d614575565b5b828204905092915050565b600061437482614487565b915061437f83614487565b9250817fffffffffffffffffffffffffffffffffffffffffffffffffffffffffffffffff04831182151516156143b8576143b7614546565b5b828202905092915050565b60006143ce82614487565b91506143d983614487565b9250828210156143ec576143eb614546565b5b828203905092915050565b600073ffffffffffffffffffffffffffffffffffffffff82169050919050565b600061442282614467565b9050919050565b60008115159050919050565b6000819050919050565b60006dffffffffffffffffffffffffffff82169050919050565b600061ffff82169050919050565b600073ffffffffffffffffffffffffffffffffffffffff82169050919050565b6000819050919050565b600063ffffffff82169050919050565b82818337600083830152505050565b60005b838110156144ce5780820151818401526020810190506144b3565b838111156144dd576000848401525b50505050565b60006144f66144f1836145c8565b6143f7565b9050919050565b600061450882614487565b91507fffffffffffffffffffffffffffffffffffffffffffffffffffffffffffffffff82141561453b5761453a614546565b5b600182019050919050565b7f4e487b7100000000000000000000000000000000000000000000000000000000600052601160045260246000fd5b7f4e487b7100000000000000000000000000000000000000000000000000000000600052601260045260246000fd5b60006145b082546144e3565b9050919050565b6000601f19601f8301169050919050565b60008160001c9050919050565b7f53545f4641494c00000000000000000000000000000000000000000000000000600082015250565b7f5a45524f5f534841524553000000000000000000000000000000000000000000600082015250565b7f3c206d696e416d74000000000000000000000000000000000000000000000000600082015250565b7f3e2062616c616e63650000000000000000000000000000000000000000000000600082015250565b7f3020616d74000000000000000000000000000000000000000000000000000000600082015250565b7f5345540000000000000000000000000000000000000000000000000000000000600082015250565b7f3020616464726573730000000000000000000000000000000000000000000000600082015250565b7f3020736861726573000000000000000000000000000000000000000000000000600082015250565b7f574c000000000000000000000000000000000000000000000000000000000000600082015250565b7f3020726573657276650000000000000000000000000000000000000000000000600082015250565b7f5354465f4641494c000000000000000000000000000000000000000000000000600082015250565b7f3020616d6f756e74000000000000000000000000000000000000000000000000600082015250565b7f5a45524f5f415353455453000000000000000000000000000000000000000000600082015250565b7f3020646570000000000000000000000000000000000000000000000000000000600082015250565b7f3e206c6971000000000000000000000000000000000000000000000000000000600082015250565b7f4c4f434b00000000000000000000000000000000000000000000000000000000600082015250565b61486e81614417565b811461487957600080fd5b50565b61488581614429565b811461489057600080fd5b50565b61489c8161443f565b81146148a757600080fd5b50565b6148b381614487565b81146148be57600080fd5b50565b6148ca81614491565b81146148d557600080fd5b5056fe7472616e7366657246726f6d28616464726573732c616464726573732c75696e7432353629a2646970667358221220fa7ec046fc28161b10c066976da5c5d1b16e0ddf9276fe04e0c85d37354dbeb264736f6c63430008040033",
  "linkReferences": {},
  "deployedLinkReferences": {}
}