{
  "_format": "hh-sol-artifact-1",
  "contractName": "TestGammaPoolFactory",
  "sourceName": "contracts/test/TestGammaPoolFactory.sol",
  "abi": [
    {
      "inputs": [
        {
          "internalType": "address",
          "name": "_feeToSetter",
          "type": "address"
        },
        {
          "internalType": "address",
          "name": "_longStrategy",
          "type": "address"
        },
        {
          "internalType": "address",
          "name": "_shortStrategy",
          "type": "address"
        },
        {
          "internalType": "address",
          "name": "_protocol",
          "type": "address"
        }
      ],
      "stateMutability": "nonpayable",
      "type": "constructor"
    },
    {
      "anonymous": false,
      "inputs": [
        {
          "indexed": true,
          "internalType": "address",
          "name": "pool",
          "type": "address"
        },
        {
          "indexed": true,
          "internalType": "address",
          "name": "cfmm",
          "type": "address"
        },
        {
          "indexed": true,
          "internalType": "uint24",
          "name": "protocolId",
          "type": "uint24"
        },
        {
          "indexed": false,
          "internalType": "address",
          "name": "protocol",
          "type": "address"
        },
        {
          "indexed": false,
          "internalType": "uint256",
          "name": "count",
          "type": "uint256"
        }
      ],
      "name": "PoolCreated",
      "type": "event"
    },
    {
      "inputs": [
        {
          "internalType": "address",
          "name": "_protocol",
          "type": "address"
        }
      ],
      "name": "addProtocol",
      "outputs": [],
      "stateMutability": "nonpayable",
      "type": "function"
    },
    {
      "inputs": [
        {
          "internalType": "uint256",
          "name": "",
          "type": "uint256"
        }
      ],
      "name": "allPools",
      "outputs": [
        {
          "internalType": "address",
          "name": "",
          "type": "address"
        }
      ],
      "stateMutability": "view",
      "type": "function"
    },
    {
      "inputs": [],
      "name": "allPoolsLength",
      "outputs": [
        {
          "internalType": "uint256",
          "name": "",
          "type": "uint256"
        }
      ],
      "stateMutability": "view",
      "type": "function"
    },
    {
      "inputs": [
        {
          "components": [
            {
              "internalType": "address",
              "name": "cfmm",
              "type": "address"
            },
            {
              "internalType": "uint24",
              "name": "protocol",
              "type": "uint24"
            },
            {
              "internalType": "address[]",
              "name": "tokens",
              "type": "address[]"
            }
          ],
          "internalType": "struct IGammaPoolFactory.CreatePoolParams",
          "name": "params",
          "type": "tuple"
        }
      ],
      "name": "createPool",
      "outputs": [
        {
          "internalType": "address",
          "name": "pool",
          "type": "address"
        }
      ],
      "stateMutability": "nonpayable",
      "type": "function"
    },
    {
      "inputs": [],
      "name": "fee",
      "outputs": [
        {
          "internalType": "uint256",
          "name": "",
          "type": "uint256"
        }
      ],
      "stateMutability": "view",
      "type": "function"
    },
    {
      "inputs": [],
      "name": "feeInfo",
      "outputs": [
        {
          "internalType": "address",
          "name": "",
          "type": "address"
        },
        {
          "internalType": "uint256",
          "name": "",
          "type": "uint256"
        }
      ],
      "stateMutability": "view",
      "type": "function"
    },
    {
      "inputs": [],
      "name": "feeTo",
      "outputs": [
        {
          "internalType": "address",
          "name": "",
          "type": "address"
        }
      ],
      "stateMutability": "view",
      "type": "function"
    },
    {
      "inputs": [],
      "name": "feeToSetter",
      "outputs": [
        {
          "internalType": "address",
          "name": "",
          "type": "address"
        }
      ],
      "stateMutability": "view",
      "type": "function"
    },
    {
      "inputs": [
        {
          "internalType": "bytes32",
          "name": "",
          "type": "bytes32"
        }
      ],
      "name": "getPool",
      "outputs": [
        {
          "internalType": "address",
          "name": "",
          "type": "address"
        }
      ],
      "stateMutability": "view",
      "type": "function"
    },
    {
      "inputs": [
        {
          "internalType": "uint24",
          "name": "protocolId",
          "type": "uint24"
        }
      ],
      "name": "getProtocol",
      "outputs": [
        {
          "internalType": "address",
          "name": "",
          "type": "address"
        }
      ],
      "stateMutability": "view",
      "type": "function"
    },
    {
      "inputs": [
        {
          "internalType": "uint24",
          "name": "protocolId",
          "type": "uint24"
        }
      ],
      "name": "isProtocolRestricted",
      "outputs": [
        {
          "internalType": "bool",
          "name": "",
          "type": "bool"
        }
      ],
      "stateMutability": "view",
      "type": "function"
    },
    {
      "inputs": [],
      "name": "longStrategy",
      "outputs": [
        {
          "internalType": "address",
          "name": "",
          "type": "address"
        }
      ],
      "stateMutability": "view",
      "type": "function"
    },
    {
      "inputs": [],
      "name": "owner",
      "outputs": [
        {
          "internalType": "address",
          "name": "",
          "type": "address"
        }
      ],
      "stateMutability": "view",
      "type": "function"
    },
    {
      "inputs": [],
      "name": "parameters",
      "outputs": [
        {
          "internalType": "address",
          "name": "cfmm",
          "type": "address"
        },
        {
          "internalType": "uint24",
          "name": "protocolId",
          "type": "uint24"
        },
        {
          "internalType": "address[]",
          "name": "tokens",
          "type": "address[]"
        },
        {
          "internalType": "address",
          "name": "_protocol",
          "type": "address"
        }
      ],
      "stateMutability": "view",
      "type": "function"
    },
    {
      "inputs": [
        {
          "internalType": "uint24",
          "name": "protocolId",
          "type": "uint24"
        }
      ],
      "name": "removeProtocol",
      "outputs": [],
      "stateMutability": "nonpayable",
      "type": "function"
    },
    {
      "inputs": [
        {
          "internalType": "uint24",
          "name": "protocolId",
          "type": "uint24"
        },
        {
          "internalType": "bool",
          "name": "isRestricted",
          "type": "bool"
        }
      ],
      "name": "setIsProtocolRestricted",
      "outputs": [],
      "stateMutability": "nonpayable",
      "type": "function"
    },
    {
      "inputs": [],
      "name": "shortStrategy",
      "outputs": [
        {
          "internalType": "address",
          "name": "",
          "type": "address"
        }
      ],
      "stateMutability": "view",
      "type": "function"
    },
    {
      "inputs": [],
      "name": "tester",
      "outputs": [
        {
          "internalType": "address",
          "name": "",
          "type": "address"
        }
      ],
      "stateMutability": "view",
      "type": "function"
    }
  ],
  "bytecode": "0x608060405266b1a2bc2ec500006003553480156200001c57600080fd5b5060405162004c7e38038062004c7e833981810160405281019062000042919062000229565b836000806101000a81548173ffffffffffffffffffffffffffffffffffffffff021916908373ffffffffffffffffffffffffffffffffffffffff16021790555083600260006101000a81548173ffffffffffffffffffffffffffffffffffffffff021916908373ffffffffffffffffffffffffffffffffffffffff16021790555033600160006101000a81548173ffffffffffffffffffffffffffffffffffffffff021916908373ffffffffffffffffffffffffffffffffffffffff16021790555082600960006101000a81548173ffffffffffffffffffffffffffffffffffffffff021916908373ffffffffffffffffffffffffffffffffffffffff16021790555081600a60006101000a81548173ffffffffffffffffffffffffffffffffffffffff021916908373ffffffffffffffffffffffffffffffffffffffff16021790555033600b60006101000a81548173ffffffffffffffffffffffffffffffffffffffff021916908373ffffffffffffffffffffffffffffffffffffffff16021790555080600c60006101000a81548173ffffffffffffffffffffffffffffffffffffffff021916908373ffffffffffffffffffffffffffffffffffffffff16021790555050505050620002e3565b6000815190506200022381620002c9565b92915050565b600080600080608085870312156200024057600080fd5b6000620002508782880162000212565b9450506020620002638782880162000212565b9350506040620002768782880162000212565b9250506060620002898782880162000212565b91505092959194509250565b6000620002a282620002a9565b9050919050565b600073ffffffffffffffffffffffffffffffffffffffff82169050919050565b620002d48162000295565b8114620002e057600080fd5b50565b61498b80620002f36000396000f3fe60806040523480156200001157600080fd5b5060043610620001305760003560e01c80638da5cb5b11620000b1578063cde586e2116200007b578063cde586e21462000315578063ddca3f43146200034b578063efde4e64146200036d578063f4d7707a146200038f578063f6c0092714620003c55762000130565b80638da5cb5b146200027a578063995b5aae146200029c5780639ca19f3414620002bf578063c06b3b5414620002df5762000130565b8063771d4c2811620000ff578063771d4c2814620001d15780637cb1e55314620001f15780638308abd4146200021157806389035730146200023357806389c4fa1214620002585762000130565b8063017e7e581462000135578063094b7415146200015757806341d1de9714620001795780634932ed3714620001af575b600080fd5b6200013f620003fb565b6040516200014e919062000ebb565b60405180910390f35b6200016162000421565b60405162000170919062000ebb565b60405180910390f35b62000197600480360381019062000191919062000db6565b62000445565b604051620001a6919062000ebb565b60405180910390f35b620001b962000485565b604051620001c8919062000ebb565b60405180910390f35b620001ef6004803603810190620001e9919062000cac565b620004ab565b005b6200020f600480360381019062000209919062000d49565b620004ae565b005b6200021b620004b1565b6040516200022a919062000ebb565b60405180910390f35b6200023d620004d7565b6040516200024f949392919062000f05565b60405180910390f35b62000262620005d9565b60405162000271919062000ebb565b60405180910390f35b62000284620005ff565b60405162000293919062000ebb565b60405180910390f35b620002a662000625565b604051620002b692919062000f59565b60405180910390f35b620002dd6004803603810190620002d7919062000d75565b62000656565b005b620002fd6004803603810190620002f7919062000d49565b6200065a565b6040516200030c919062000ebb565b60405180910390f35b6200033360048036038101906200032d919062000d49565b62000686565b60405162000342919062000f86565b60405180910390f35b620003556200068d565b60405162000364919062000fa3565b60405180910390f35b6200037762000693565b60405162000386919062000fa3565b60405180910390f35b620003ad6004803603810190620003a7919062000d04565b620006a0565b604051620003bc919062000ebb565b60405180910390f35b620003e36004803603810190620003dd919062000cd8565b62000ad6565b604051620003f2919062000ebb565b60405180910390f35b600260009054906101000a900473ffffffffffffffffffffffffffffffffffffffff1681565b60008054906101000a900473ffffffffffffffffffffffffffffffffffffffff1681565b600581815481106200045657600080fd5b906000526020600020016000915054906101000a900473ffffffffffffffffffffffffffffffffffffffff1681565b600960009054906101000a900473ffffffffffffffffffffffffffffffffffffffff1681565b50565b50565b600b60009054906101000a900473ffffffffffffffffffffffffffffffffffffffff1681565b60008060606000600660000160009054906101000a900473ffffffffffffffffffffffffffffffffffffffff169350600660000160149054906101000a900462ffffff1692506006600101805480602002602001604051908101604052809291908181526020018280548015620005a457602002820191906000526020600020905b8160009054906101000a900473ffffffffffffffffffffffffffffffffffffffff1673ffffffffffffffffffffffffffffffffffffffff168152602001906001019080831162000559575b50505050509150600660020160009054906101000a900473ffffffffffffffffffffffffffffffffffffffff16905090919293565b600a60009054906101000a900473ffffffffffffffffffffffffffffffffffffffff1681565b600160009054906101000a900473ffffffffffffffffffffffffffffffffffffffff1681565b600080600260009054906101000a900473ffffffffffffffffffffffffffffffffffffffff16600354915091509091565b5050565b6000600c60009054906101000a900473ffffffffffffffffffffffffffffffffffffffff169050919050565b6000919050565b60035481565b6000600580549050905090565b60006040518060800160405280836000016020810190620006c2919062000cac565b73ffffffffffffffffffffffffffffffffffffffff168152602001836020016020810190620006f2919062000d49565b62ffffff1681526020018380604001906200070e919062000fc0565b80806020026020016040519081016040528093929190818152602001838360200280828437600081840152601f19601f820116905080830192505050505050508152602001600c60009054906101000a900473ffffffffffffffffffffffffffffffffffffffff1673ffffffffffffffffffffffffffffffffffffffff16815250600660008201518160000160006101000a81548173ffffffffffffffffffffffffffffffffffffffff021916908373ffffffffffffffffffffffffffffffffffffffff16021790555060208201518160000160146101000a81548162ffffff021916908362ffffff16021790555060408201518160010190805190602001906200081b92919062000b3e565b5060608201518160020160006101000a81548173ffffffffffffffffffffffffffffffffffffffff021916908373ffffffffffffffffffffffffffffffffffffffff1602179055509050506000620008ad600660000160009054906101000a900473ffffffffffffffffffffffffffffffffffffffff16600660000160149054906101000a900462ffffff1662000b09565b905080604051620008be9062000bcd565b8190604051809103906000f5905080158015620008df573d6000803e3d6000fd5b5091506006600080820160006101000a81549073ffffffffffffffffffffffffffffffffffffffff02191690556000820160146101000a81549062ffffff021916905560018201600062000934919062000bdb565b6002820160006101000a81549073ffffffffffffffffffffffffffffffffffffffff02191690555050816004600083815260200190815260200160002060006101000a81548173ffffffffffffffffffffffffffffffffffffffff021916908373ffffffffffffffffffffffffffffffffffffffff1602179055506005829080600181540180825580915050600190039060005260206000200160009091909190916101000a81548173ffffffffffffffffffffffffffffffffffffffff021916908373ffffffffffffffffffffffffffffffffffffffff16021790555082602001602081019062000a27919062000d49565b62ffffff1683600001602081019062000a41919062000cac565b73ffffffffffffffffffffffffffffffffffffffff168373ffffffffffffffffffffffffffffffffffffffff167f6b0bd0d931644137e75247d249fc244cf0391bdde8bce70175de4427f978dd35600c60009054906101000a900473ffffffffffffffffffffffffffffffffffffffff1660058054905060405162000ac892919062000f59565b60405180910390a450919050565b60046020528060005260406000206000915054906101000a900473ffffffffffffffffffffffffffffffffffffffff1681565b6000828260405160200162000b2092919062000ed8565b60405160208183030381529060405280519060200120905092915050565b82805482825590600052602060002090810192821562000bba579160200282015b8281111562000bb95782518260006101000a81548173ffffffffffffffffffffffffffffffffffffffff021916908373ffffffffffffffffffffffffffffffffffffffff1602179055509160200191906001019062000b5f565b5b50905062000bc9919062000bfe565b5090565b61381d806200113983390190565b508054600082559060005260206000209081019062000bfb919062000bfe565b50565b5b8082111562000c1957600081600090555060010162000bff565b5090565b60008135905062000c2e81620010b6565b92915050565b60008135905062000c4581620010d0565b92915050565b60008135905062000c5c81620010ea565b92915050565b60006060828403121562000c7557600080fd5b81905092915050565b60008135905062000c8f8162001104565b92915050565b60008135905062000ca6816200111e565b92915050565b60006020828403121562000cbf57600080fd5b600062000ccf8482850162000c1d565b91505092915050565b60006020828403121562000ceb57600080fd5b600062000cfb8482850162000c4b565b91505092915050565b60006020828403121562000d1757600080fd5b600082013567ffffffffffffffff81111562000d3257600080fd5b62000d408482850162000c62565b91505092915050565b60006020828403121562000d5c57600080fd5b600062000d6c8482850162000c7e565b91505092915050565b6000806040838503121562000d8957600080fd5b600062000d998582860162000c7e565b925050602062000dac8582860162000c34565b9150509250929050565b60006020828403121562000dc957600080fd5b600062000dd98482850162000c95565b91505092915050565b600062000df0838362000dfc565b60208301905092915050565b62000e078162001053565b82525050565b62000e188162001053565b82525050565b600062000e2b826200102a565b62000e37818562001042565b935062000e44836200101a565b8060005b8381101562000e7b57815162000e5f888262000de2565b975062000e6c8362001035565b92505060018101905062000e48565b5085935050505092915050565b62000e938162001067565b82525050565b62000ea4816200109d565b82525050565b62000eb581620010ac565b82525050565b600060208201905062000ed2600083018462000e0d565b92915050565b600060408201905062000eef600083018562000e0d565b62000efe602083018462000e99565b9392505050565b600060808201905062000f1c600083018762000e0d565b62000f2b602083018662000e99565b818103604083015262000f3f818562000e1e565b905062000f50606083018462000e0d565b95945050505050565b600060408201905062000f70600083018562000e0d565b62000f7f602083018462000eaa565b9392505050565b600060208201905062000f9d600083018462000e88565b92915050565b600060208201905062000fba600083018462000eaa565b92915050565b6000808335600160200384360303811262000fda57600080fd5b80840192508235915067ffffffffffffffff82111562000ff957600080fd5b6020830192506020820236038313156200101257600080fd5b509250929050565b6000819050602082019050919050565b600081519050919050565b6000602082019050919050565b600082825260208201905092915050565b600062001060826200107d565b9050919050565b60008115159050919050565b6000819050919050565b600073ffffffffffffffffffffffffffffffffffffffff82169050919050565b600062ffffff82169050919050565b6000819050919050565b620010c18162001053565b8114620010cd57600080fd5b50565b620010db8162001067565b8114620010e757600080fd5b50565b620010f58162001073565b81146200110157600080fd5b50565b6200110f816200109d565b81146200111b57600080fd5b50565b6200112981620010ac565b81146200113557600080fd5b5056fe60806040523480156200001157600080fd5b506040518060400160405280600d81526020017f5465737447616d6d61506f6f6c000000000000000000000000000000000000008152506040518060400160405280600681526020017f5447502d5631000000000000000000000000000000000000000000000000000081525081600390805190602001906200009692919062000691565b508060049080519060200190620000af92919062000691565b50505033600860006101000a81548173ffffffffffffffffffffffffffffffffffffffff021916908373ffffffffffffffffffffffffffffffffffffffff1602179055503373ffffffffffffffffffffffffffffffffffffffff1663890357306040518163ffffffff1660e01b815260040160006040518083038186803b1580156200013a57600080fd5b505afa1580156200014f573d6000803e3d6000fd5b505050506040513d6000823e3d601f19601f820116820180604052508101906200017a9190620008cc565b600560006005601460076000600660008891906101000a81548173ffffffffffffffffffffffffffffffffffffffff021916908373ffffffffffffffffffffffffffffffffffffffff160217905550879190509080519060200190620001e292919062000722565b508691906101000a81548162ffffff021916908362ffffff1602179055508591906101000a81548173ffffffffffffffffffffffffffffffffffffffff021916908373ffffffffffffffffffffffffffffffffffffffff160217905550505050503373ffffffffffffffffffffffffffffffffffffffff16634932ed376040518163ffffffff1660e01b815260040160206040518083038186803b1580156200028a57600080fd5b505afa1580156200029f573d6000803e3d6000fd5b505050506040513d601f19601f82011682018060405250810190620002c59190620008a0565b600960006101000a81548173ffffffffffffffffffffffffffffffffffffffff021916908373ffffffffffffffffffffffffffffffffffffffff1602179055503373ffffffffffffffffffffffffffffffffffffffff166389c4fa126040518163ffffffff1660e01b815260040160206040518083038186803b1580156200034c57600080fd5b505afa15801562000361573d6000803e3d6000fd5b505050506040513d601f19601f82011682018060405250810190620003879190620008a0565b600a60006101000a81548173ffffffffffffffffffffffffffffffffffffffff021916908373ffffffffffffffffffffffffffffffffffffffff1602179055503373ffffffffffffffffffffffffffffffffffffffff16638308abd46040518163ffffffff1660e01b815260040160206040518083038186803b1580156200040e57600080fd5b505afa15801562000423573d6000803e3d6000fd5b505050506040513d601f19601f82011682018060405250810190620004499190620008a0565b600b60006101000a81548173ffffffffffffffffffffffffffffffffffffffff021916908373ffffffffffffffffffffffffffffffffffffffff16021790555033600c60006101000a81548173ffffffffffffffffffffffffffffffffffffffff021916908373ffffffffffffffffffffffffffffffffffffffff16021790555062000508600b60009054906101000a900473ffffffffffffffffffffffffffffffffffffffff1669152d02c7e14af68000006200050e60201b60201c565b62000c42565b600073ffffffffffffffffffffffffffffffffffffffff168273ffffffffffffffffffffffffffffffffffffffff16141562000581576040517f08c379a0000000000000000000000000000000000000000000000000000000008152600401620005789062000989565b60405180910390fd5b62000595600083836200068760201b60201c565b8060026000828254620005a9919062000a31565b92505081905550806000808473ffffffffffffffffffffffffffffffffffffffff1673ffffffffffffffffffffffffffffffffffffffff168152602001908152602001600020600082825462000600919062000a31565b925050819055508173ffffffffffffffffffffffffffffffffffffffff16600073ffffffffffffffffffffffffffffffffffffffff167fddf252ad1be2c89b69c2b068fc378daa952ba7f163c4a11628f55a4df523b3ef83604051620006679190620009ab565b60405180910390a362000683600083836200068c60201b60201c565b5050565b505050565b505050565b8280546200069f9062000adb565b90600052602060002090601f016020900481019282620006c357600085556200070f565b82601f10620006de57805160ff19168380011785556200070f565b828001600101855582156200070f579182015b828111156200070e578251825591602001919060010190620006f1565b5b5090506200071e9190620007b1565b5090565b8280548282559060005260206000209081019282156200079e579160200282015b828111156200079d5782518260006101000a81548173ffffffffffffffffffffffffffffffffffffffff021916908373ffffffffffffffffffffffffffffffffffffffff1602179055509160200191906001019062000743565b5b509050620007ad9190620007b1565b5090565b5b80821115620007cc576000816000905550600101620007b2565b5090565b6000620007e7620007e184620009f1565b620009c8565b905080838252602082019050828560208602820111156200080757600080fd5b60005b858110156200083b578162000820888262000845565b8452602084019350602083019250506001810190506200080a565b5050509392505050565b600081519050620008568162000c0e565b92915050565b600082601f8301126200086e57600080fd5b815162000880848260208601620007d0565b91505092915050565b6000815190506200089a8162000c28565b92915050565b600060208284031215620008b357600080fd5b6000620008c38482850162000845565b91505092915050565b60008060008060808587031215620008e357600080fd5b6000620008f38782880162000845565b9450506020620009068782880162000889565b935050604085015167ffffffffffffffff8111156200092457600080fd5b62000932878288016200085c565b9250506060620009458782880162000845565b91505092959194509250565b600062000960601f8362000a20565b91506200096d8262000be5565b602082019050919050565b620009838162000ad1565b82525050565b60006020820190508181036000830152620009a48162000951565b9050919050565b6000602082019050620009c2600083018462000978565b92915050565b6000620009d4620009e7565b9050620009e2828262000b11565b919050565b6000604051905090565b600067ffffffffffffffff82111562000a0f5762000a0e62000ba5565b5b602082029050602081019050919050565b600082825260208201905092915050565b600062000a3e8262000ad1565b915062000a4b8362000ad1565b9250827fffffffffffffffffffffffffffffffffffffffffffffffffffffffffffffffff0382111562000a835762000a8262000b47565b5b828201905092915050565b600062000a9b8262000aa2565b9050919050565b600073ffffffffffffffffffffffffffffffffffffffff82169050919050565b600062ffffff82169050919050565b6000819050919050565b6000600282049050600182168062000af457607f821691505b6020821081141562000b0b5762000b0a62000b76565b5b50919050565b62000b1c8262000bd4565b810181811067ffffffffffffffff8211171562000b3e5762000b3d62000ba5565b5b80604052505050565b7f4e487b7100000000000000000000000000000000000000000000000000000000600052601160045260246000fd5b7f4e487b7100000000000000000000000000000000000000000000000000000000600052602260045260246000fd5b7f4e487b7100000000000000000000000000000000000000000000000000000000600052604160045260246000fd5b6000601f19601f8301169050919050565b7f45524332303a206d696e7420746f20746865207a65726f206164647265737300600082015250565b62000c198162000a8e565b811462000c2557600080fd5b50565b62000c338162000ac2565b811462000c3f57600080fd5b50565b612bcb8062000c526000396000f3fe608060405234801561001057600080fd5b50600436106102d65760003560e01c80638308abd411610182578063acf615d7116100e9578063dd62ed3e116100a2578063e5ca93d41161007c578063e5ca93d414610978578063ea940b1d14610996578063f92f445e146109c6578063f9b5533e146109e4576102d6565b8063dd62ed3e1461090e578063df3489e01461093e578063e1159b2d1461095a576102d6565b8063acf615d714610834578063b8a8383414610852578063c45a015514610882578063c914b437146108a0578063da1f12ab146108be578063db02f9cb146108dc576102d6565b8063958ae6901161013b578063958ae6901461075c57806395d89b411461077a5780639d63848a14610798578063a457c2d7146107b6578063a9059cbb146107e6578063a94e6e5714610816576102d6565b80638308abd4146106a857806387b9f413146106c657806389c4fa12146106e457806389f7fc44146107025780638ce74426146107205780638da5cb5b1461073e576102d6565b80632a9bc3f6116102415780634932ed37116101fa57806365418ef5116101d457806365418ef51461060c57806365ec1a451461063c5780637007d7da1461065a57806370a0823114610678576102d6565b80634932ed371461059f57806354fe2a96146105bd5780636223dd6c146105ee576102d6565b80632a9bc3f6146104b05780633035aa9c146104e0578063313ce567146104fe578063365a53061461051c578063395093511461055157806344dcb67114610581576102d6565b806318160ddd1161029357806318160ddd146103b4578063192fdf10146103d25780631931b9131461040257806323b872dd146104325780632552317c1461046257806328cad17f14610480576102d6565b806306fdde03146102db578063095ea7b3146102f95780630a9b2310146103295780630ab3ee11146103475780630cfba8eb146103655780630e3bc97414610396575b600080fd5b6102e3610a14565b6040516102f09190612501565b60405180910390f35b610313600480360381019061030e9190611f2d565b610aa6565b60405161032091906124e6565b60405180910390f35b610331610ac9565b60405161033e9190612494565b60405180910390f35b61034f610b40565b60405161035c919061261e565b60405180910390f35b61037f600480360381019061037a9190611cf4565b610b49565b60405161038d9291906124b6565b60405180910390f35b61039e610ca2565b6040516103ab9190612494565b60405180910390f35b6103bc610d19565b6040516103c9919061261e565b60405180910390f35b6103ec60048036038101906103e79190611cf4565b610d23565b6040516103f9919061261e565b60405180910390f35b61041c60048036038101906104179190612056565b610d2e565b6040516104299190612494565b60405180910390f35b61044c60048036038101906104479190611d59565b610da8565b60405161045991906124e6565b60405180910390f35b61046a610dd7565b604051610477919061261e565b60405180910390f35b61049a60048036038101906104959190612056565b610de0565b6040516104a79190612494565b60405180910390f35b6104ca60048036038101906104c59190611f92565b610e5a565b6040516104d79190612494565b60405180910390f35b6104e8610ed5565b6040516104f591906123f7565b60405180910390f35b610506610efb565b60405161051391906126df565b60405180910390f35b61053660048036038101906105319190611f69565b610f04565b60405161054896959493929190612639565b60405180910390f35b61056b60048036038101906105669190611f2d565b610fbe565b60405161057891906124e6565b60405180910390f35b610589610ff5565b604051610596919061261e565b60405180910390f35b6105a7610ffe565b6040516105b491906123f7565b60405180910390f35b6105d760048036038101906105d29190611e74565b611024565b6040516105e59291906124b6565b60405180910390f35b6105f66110aa565b604051610603919061261e565b60405180910390f35b61062660048036038101906106219190611cf4565b6110b3565b604051610633919061261e565b60405180910390f35b6106446110be565b604051610651919061261e565b60405180910390f35b6106626110c7565b60405161066f919061261e565b60405180910390f35b610692600480360381019061068d9190611cf4565b6110d0565b60405161069f919061261e565b60405180910390f35b6106b0611118565b6040516106bd91906123f7565b60405180910390f35b6106ce61113e565b6040516106db919061261e565b60405180910390f35b6106ec611147565b6040516106f991906123f7565b60405180910390f35b61070a61116d565b604051610717919061261e565b60405180910390f35b610728611176565b60405161073591906123f7565b60405180910390f35b61074661119c565b60405161075391906123f7565b60405180910390f35b6107646111c2565b604051610771919061261e565b60405180910390f35b6107826111cb565b60405161078f9190612501565b60405180910390f35b6107a061125d565b6040516107ad9190612472565b60405180910390f35b6107d060048036038101906107cb9190611f2d565b6112eb565b6040516107dd91906124e6565b60405180910390f35b61080060048036038101906107fb9190611f2d565b611362565b60405161080d91906124e6565b60405180910390f35b61081e611385565b60405161082b919061261e565b60405180910390f35b61083c61138e565b604051610849919061261e565b60405180910390f35b61086c60048036038101906108679190611f69565b611397565b6040516108799190612494565b60405180910390f35b61088a611410565b60405161089791906123f7565b60405180910390f35b6108a8611436565b6040516108b5919061261e565b60405180910390f35b6108c661143f565b6040516108d39190612603565b60405180910390f35b6108f660048036038101906108f19190612056565b611454565b604051610905939291906126a1565b60405180910390f35b61092860048036038101906109239190611d1d565b6114da565b604051610935919061261e565b60405180910390f35b61095860048036038101906109539190611da8565b611561565b005b6109626115e2565b60405161096f919061261e565b60405180910390f35b6109806115eb565b60405161098d919061261e565b60405180910390f35b6109b060048036038101906109ab9190611fea565b6115f4565b6040516109bd9190612494565b60405180910390f35b6109ce611670565b6040516109db919061261e565b60405180910390f35b6109fe60048036038101906109f99190611f69565b611679565b604051610a0b91906123f7565b60405180910390f35b606060038054610a23906128c3565b80601f0160208091040260200160405190810160405280929190818152602001828054610a4f906128c3565b8015610a9c5780601f10610a7157610100808354040283529160200191610a9c565b820191906000526020600020905b815481529060010190602001808311610a7f57829003601f168201915b5050505050905090565b600080610ab16116b8565b9050610abe8185856116c0565b600191505092915050565b6060600267ffffffffffffffff811115610b0c577f4e487b7100000000000000000000000000000000000000000000000000000000600052604160045260246000fd5b604051908082528060200260200182016040528015610b3a5781602001602082028036833780820191505090505b50905090565b60006001905090565b60606000600367ffffffffffffffff811115610b8e577f4e487b7100000000000000000000000000000000000000000000000000000000600052604160045260246000fd5b604051908082528060200260200182016040528015610bbc5781602001602082028036833780820191505090505b50915060c882600081518110610bfb577f4e487b7100000000000000000000000000000000000000000000000000000000600052603260045260246000fd5b60200260200101818152505061012c82600181518110610c44577f4e487b7100000000000000000000000000000000000000000000000000000000600052603260045260246000fd5b60200260200101818152505061019082600281518110610c8d577f4e487b7100000000000000000000000000000000000000000000000000000000600052603260045260246000fd5b60200260200101818152505060119050915091565b6060600167ffffffffffffffff811115610ce5577f4e487b7100000000000000000000000000000000000000000000000000000000600052604160045260246000fd5b604051908082528060200260200182016040528015610d135781602001602082028036833780820191505090505b50905090565b6000600254905090565b600060109050919050565b6060600b67ffffffffffffffff811115610d71577f4e487b7100000000000000000000000000000000000000000000000000000000600052604160045260246000fd5b604051908082528060200260200182016040528015610d9f5781602001602082028036833780820191505090505b50905092915050565b600080610db36116b8565b9050610dc085828561188b565b610dcb858585611917565b60019150509392505050565b6000600e905090565b6060600867ffffffffffffffff811115610e23577f4e487b7100000000000000000000000000000000000000000000000000000000600052604160045260246000fd5b604051908082528060200260200182016040528015610e515781602001602082028036833780820191505090505b50905092915050565b6060600a67ffffffffffffffff811115610e9d577f4e487b7100000000000000000000000000000000000000000000000000000000600052604160045260246000fd5b604051908082528060200260200182016040528015610ecb5781602001602082028036833780820191505090505b5090509392505050565b600560009054906101000a900473ffffffffffffffffffffffffffffffffffffffff1681565b60006012905090565b6000806060600080600060149550600560009054906101000a900473ffffffffffffffffffffffffffffffffffffffff169450600567ffffffffffffffff811115610f78577f4e487b7100000000000000000000000000000000000000000000000000000000600052604160045260246000fd5b604051908082528060200260200182016040528015610fa65781602001602082028036833780820191505090505b50935060159250601691506017905091939550919395565b600080610fc96116b8565b9050610fea818585610fdb85896114da565b610fe591906127c7565b6116c0565b600191505092915050565b60006004905090565b600960009054906101000a900473ffffffffffffffffffffffffffffffffffffffff1681565b60606000600467ffffffffffffffff811115611069577f4e487b7100000000000000000000000000000000000000000000000000000000600052604160045260246000fd5b6040519080825280602002602001820160405280156110975781602001602082028036833780820191505090505b5091506012905097509795505050505050565b60006007905090565b6000600f9050919050565b60006013905090565b60006009905090565b60008060008373ffffffffffffffffffffffffffffffffffffffff1673ffffffffffffffffffffffffffffffffffffffff168152602001908152602001600020549050919050565b600b60009054906101000a900473ffffffffffffffffffffffffffffffffffffffff1681565b6000600d905090565b600a60009054906101000a900473ffffffffffffffffffffffffffffffffffffffff1681565b6000600a905090565b600660009054906101000a900473ffffffffffffffffffffffffffffffffffffffff1681565b600c60009054906101000a900473ffffffffffffffffffffffffffffffffffffffff1681565b6000600b905090565b6060600480546111da906128c3565b80601f0160208091040260200160405190810160405280929190818152602001828054611206906128c3565b80156112535780601f1061122857610100808354040283529160200191611253565b820191906000526020600020905b81548152906001019060200180831161123657829003601f168201915b5050505050905090565b606060078054806020026020016040519081016040528092919081815260200182805480156112e157602002820191906000526020600020905b8160009054906101000a900473ffffffffffffffffffffffffffffffffffffffff1673ffffffffffffffffffffffffffffffffffffffff1681526020019060010190808311611297575b5050505050905090565b6000806112f66116b8565b9050600061130482866114da565b905083811015611349576040517f08c379a0000000000000000000000000000000000000000000000000000000008152600401611340906125e3565b60405180910390fd5b61135682868684036116c0565b60019250505092915050565b60008061136d6116b8565b905061137a818585611917565b600191505092915050565b60006003905090565b60006006905090565b6060600667ffffffffffffffff8111156113da577f4e487b7100000000000000000000000000000000000000000000000000000000600052604160045260246000fd5b6040519080825280602002602001820160405280156114085781602001602082028036833780820191505090505b509050919050565b600860009054906101000a900473ffffffffffffffffffffffffffffffffffffffff1681565b60006008905090565b600560149054906101000a900462ffffff1681565b60008060606018925060199150600967ffffffffffffffff8111156114a2577f4e487b7100000000000000000000000000000000000000000000000000000000600052604160045260246000fd5b6040519080825280602002602001820160405280156114d05781602001602082028036833780820191505090505b5090509250925092565b6000600160008473ffffffffffffffffffffffffffffffffffffffff1673ffffffffffffffffffffffffffffffffffffffff16815260200190815260200160002060008373ffffffffffffffffffffffffffffffffffffffff1673ffffffffffffffffffffffffffffffffffffffff16815260200190815260200160002054905092915050565b8773ffffffffffffffffffffffffffffffffffffffff16636464a1eb888888888888886040518863ffffffff1660e01b81526004016115a69796959493929190612412565b600060405180830381600087803b1580156115c057600080fd5b505af11580156115d4573d6000803e3d6000fd5b505050505050505050505050565b60006002905090565b60006005905090565b6060600767ffffffffffffffff811115611637577f4e487b7100000000000000000000000000000000000000000000000000000000600052604160045260246000fd5b6040519080825280602002602001820160405280156116655781602001602082028036833780820191505090505b509050949350505050565b6000600c905090565b6007818154811061168957600080fd5b906000526020600020016000915054906101000a900473ffffffffffffffffffffffffffffffffffffffff1681565b600033905090565b600073ffffffffffffffffffffffffffffffffffffffff168373ffffffffffffffffffffffffffffffffffffffff161415611730576040517f08c379a0000000000000000000000000000000000000000000000000000000008152600401611727906125c3565b60405180910390fd5b600073ffffffffffffffffffffffffffffffffffffffff168273ffffffffffffffffffffffffffffffffffffffff1614156117a0576040517f08c379a000000000000000000000000000000000000000000000000000000000815260040161179790612543565b60405180910390fd5b80600160008573ffffffffffffffffffffffffffffffffffffffff1673ffffffffffffffffffffffffffffffffffffffff16815260200190815260200160002060008473ffffffffffffffffffffffffffffffffffffffff1673ffffffffffffffffffffffffffffffffffffffff168152602001908152602001600020819055508173ffffffffffffffffffffffffffffffffffffffff168373ffffffffffffffffffffffffffffffffffffffff167f8c5be1e5ebec7d5bd14f71427d1e84f3dd0314c0f7b2291e5b200ac8c7c3b9258360405161187e919061261e565b60405180910390a3505050565b600061189784846114da565b90507fffffffffffffffffffffffffffffffffffffffffffffffffffffffffffffffff81146119115781811015611903576040517f08c379a00000000000000000000000000000000000000000000000000000000081526004016118fa90612563565b60405180910390fd5b61191084848484036116c0565b5b50505050565b600073ffffffffffffffffffffffffffffffffffffffff168373ffffffffffffffffffffffffffffffffffffffff161415611987576040517f08c379a000000000000000000000000000000000000000000000000000000000815260040161197e906125a3565b60405180910390fd5b600073ffffffffffffffffffffffffffffffffffffffff168273ffffffffffffffffffffffffffffffffffffffff1614156119f7576040517f08c379a00000000000000000000000000000000000000000000000000000000081526004016119ee90612523565b60405180910390fd5b611a02838383611b98565b60008060008573ffffffffffffffffffffffffffffffffffffffff1673ffffffffffffffffffffffffffffffffffffffff16815260200190815260200160002054905081811015611a88576040517f08c379a0000000000000000000000000000000000000000000000000000000008152600401611a7f90612583565b60405180910390fd5b8181036000808673ffffffffffffffffffffffffffffffffffffffff1673ffffffffffffffffffffffffffffffffffffffff16815260200190815260200160002081905550816000808573ffffffffffffffffffffffffffffffffffffffff1673ffffffffffffffffffffffffffffffffffffffff1681526020019081526020016000206000828254611b1b91906127c7565b925050819055508273ffffffffffffffffffffffffffffffffffffffff168473ffffffffffffffffffffffffffffffffffffffff167fddf252ad1be2c89b69c2b068fc378daa952ba7f163c4a11628f55a4df523b3ef84604051611b7f919061261e565b60405180910390a3611b92848484611b9d565b50505050565b505050565b505050565b600081359050611bb181612b67565b92915050565b60008083601f840112611bc957600080fd5b8235905067ffffffffffffffff811115611be257600080fd5b602083019150836020820283011115611bfa57600080fd5b9250929050565b60008083601f840112611c1357600080fd5b8235905067ffffffffffffffff811115611c2c57600080fd5b602083019150836020820283011115611c4457600080fd5b9250929050565b60008083601f840112611c5d57600080fd5b8235905067ffffffffffffffff811115611c7657600080fd5b602083019150836020820283011115611c8e57600080fd5b9250929050565b60008083601f840112611ca757600080fd5b8235905067ffffffffffffffff811115611cc057600080fd5b602083019150836001820283011115611cd857600080fd5b9250929050565b600081359050611cee81612b7e565b92915050565b600060208284031215611d0657600080fd5b6000611d1484828501611ba2565b91505092915050565b60008060408385031215611d3057600080fd5b6000611d3e85828601611ba2565b9250506020611d4f85828601611ba2565b9150509250929050565b600080600060608486031215611d6e57600080fd5b6000611d7c86828701611ba2565b9350506020611d8d86828701611ba2565b9250506040611d9e86828701611cdf565b9150509250925092565b60008060008060008060008060a0898b031215611dc457600080fd5b6000611dd28b828c01611ba2565b985050602089013567ffffffffffffffff811115611def57600080fd5b611dfb8b828c01611bb7565b9750975050604089013567ffffffffffffffff811115611e1a57600080fd5b611e268b828c01611c4b565b95509550506060611e398b828c01611ba2565b935050608089013567ffffffffffffffff811115611e5657600080fd5b611e628b828c01611c95565b92509250509295985092959890939650565b60008060008060008060006080888a031215611e8f57600080fd5b6000611e9d8a828b01611ba2565b975050602088013567ffffffffffffffff811115611eba57600080fd5b611ec68a828b01611c4b565b9650965050604088013567ffffffffffffffff811115611ee557600080fd5b611ef18a828b01611c4b565b9450945050606088013567ffffffffffffffff811115611f1057600080fd5b611f1c8a828b01611c95565b925092505092959891949750929550565b60008060408385031215611f4057600080fd5b6000611f4e85828601611ba2565b9250506020611f5f85828601611cdf565b9150509250929050565b600060208284031215611f7b57600080fd5b6000611f8984828501611cdf565b91505092915050565b600080600060408486031215611fa757600080fd5b6000611fb586828701611cdf565b935050602084013567ffffffffffffffff811115611fd257600080fd5b611fde86828701611c01565b92509250509250925092565b6000806000806060858703121561200057600080fd5b600061200e87828801611cdf565b945050602085013567ffffffffffffffff81111561202b57600080fd5b61203787828801611c4b565b9350935050604061204a87828801611ba2565b91505092959194509250565b6000806040838503121561206957600080fd5b600061207785828601611cdf565b925050602061208885828601611cdf565b9150509250929050565b600061209e83836120c2565b60208301905092915050565b60006120b683836123ca565b60208301905092915050565b6120cb8161281d565b82525050565b6120da8161281d565b82525050565b60006120ec838561276c565b93506120f7826126fa565b8060005b858110156121305761210d82846127b0565b6121178882612092565b975061212283612745565b9250506001810190506120fb565b5085925050509392505050565b600061214882612724565b612152818561276c565b935061215d83612704565b8060005b8381101561218e5781516121758882612092565b975061218083612752565b925050600181019050612161565b5085935050505092915050565b60006121a7838561277d565b93507f07ffffffffffffffffffffffffffffffffffffffffffffffffffffffffffffff8311156121d657600080fd5b6020830292506121e7838584612881565b82840190509392505050565b60006121fe8261272f565b612208818561277d565b935061221383612714565b8060005b8381101561224457815161222b88826120aa565b97506122368361275f565b925050600181019050612217565b5085935050505092915050565b61225a8161282f565b82525050565b600061226c838561278e565b9350612279838584612881565b61228283612953565b840190509392505050565b60006122988261273a565b6122a2818561279f565b93506122b2818560208601612890565b6122bb81612953565b840191505092915050565b60006122d360238361279f565b91506122de82612964565b604082019050919050565b60006122f660228361279f565b9150612301826129b3565b604082019050919050565b6000612319601d8361279f565b915061232482612a02565b602082019050919050565b600061233c60268361279f565b915061234782612a2b565b604082019050919050565b600061235f60258361279f565b915061236a82612a7a565b604082019050919050565b600061238260248361279f565b915061238d82612ac9565b604082019050919050565b60006123a560258361279f565b91506123b082612b18565b604082019050919050565b6123c48161285b565b82525050565b6123d38161286a565b82525050565b6123e28161286a565b82525050565b6123f181612874565b82525050565b600060208201905061240c60008301846120d1565b92915050565b6000608082019050818103600083015261242d81898b6120e0565b9050818103602083015261244281878961219b565b905061245160408301866120d1565b8181036060830152612464818486612260565b905098975050505050505050565b6000602082019050818103600083015261248c818461213d565b905092915050565b600060208201905081810360008301526124ae81846121f3565b905092915050565b600060408201905081810360008301526124d081856121f3565b90506124df60208301846123d9565b9392505050565b60006020820190506124fb6000830184612251565b92915050565b6000602082019050818103600083015261251b818461228d565b905092915050565b6000602082019050818103600083015261253c816122c6565b9050919050565b6000602082019050818103600083015261255c816122e9565b9050919050565b6000602082019050818103600083015261257c8161230c565b9050919050565b6000602082019050818103600083015261259c8161232f565b9050919050565b600060208201905081810360008301526125bc81612352565b9050919050565b600060208201905081810360008301526125dc81612375565b9050919050565b600060208201905081810360008301526125fc81612398565b9050919050565b600060208201905061261860008301846123bb565b92915050565b600060208201905061263360008301846123d9565b92915050565b600060c08201905061264e60008301896123d9565b61265b60208301886120d1565b818103604083015261266d81876121f3565b905061267c60608301866123d9565b61268960808301856123d9565b61269660a08301846123d9565b979650505050505050565b60006060820190506126b660008301866123d9565b6126c360208301856123d9565b81810360408301526126d581846121f3565b9050949350505050565b60006020820190506126f460008301846123e8565b92915050565b6000819050919050565b6000819050602082019050919050565b6000819050602082019050919050565b600081519050919050565b600081519050919050565b600081519050919050565b6000602082019050919050565b6000602082019050919050565b6000602082019050919050565b600082825260208201905092915050565b600082825260208201905092915050565b600082825260208201905092915050565b600082825260208201905092915050565b60006127bf6020840184611ba2565b905092915050565b60006127d28261286a565b91506127dd8361286a565b9250827fffffffffffffffffffffffffffffffffffffffffffffffffffffffffffffffff03821115612812576128116128f5565b5b828201905092915050565b60006128288261283b565b9050919050565b60008115159050919050565b600073ffffffffffffffffffffffffffffffffffffffff82169050919050565b600062ffffff82169050919050565b6000819050919050565b600060ff82169050919050565b82818337600083830152505050565b60005b838110156128ae578082015181840152602081019050612893565b838111156128bd576000848401525b50505050565b600060028204905060018216806128db57607f821691505b602082108114156128ef576128ee612924565b5b50919050565b7f4e487b7100000000000000000000000000000000000000000000000000000000600052601160045260246000fd5b7f4e487b7100000000000000000000000000000000000000000000000000000000600052602260045260246000fd5b6000601f19601f8301169050919050565b7f45524332303a207472616e7366657220746f20746865207a65726f206164647260008201527f6573730000000000000000000000000000000000000000000000000000000000602082015250565b7f45524332303a20617070726f766520746f20746865207a65726f20616464726560008201527f7373000000000000000000000000000000000000000000000000000000000000602082015250565b7f45524332303a20696e73756666696369656e7420616c6c6f77616e6365000000600082015250565b7f45524332303a207472616e7366657220616d6f756e742065786365656473206260008201527f616c616e63650000000000000000000000000000000000000000000000000000602082015250565b7f45524332303a207472616e736665722066726f6d20746865207a65726f20616460008201527f6472657373000000000000000000000000000000000000000000000000000000602082015250565b7f45524332303a20617070726f76652066726f6d20746865207a65726f2061646460008201527f7265737300000000000000000000000000000000000000000000000000000000602082015250565b7f45524332303a2064656372656173656420616c6c6f77616e63652062656c6f7760008201527f207a65726f000000000000000000000000000000000000000000000000000000602082015250565b612b708161281d565b8114612b7b57600080fd5b50565b612b878161286a565b8114612b9257600080fd5b5056fea2646970667358221220383b2320b2a90875de5e62c0ebb26ffa6b5c5090a706e9cb0b2ee60d3c514a6b64736f6c63430008040033a26469706673582212201807e86216fda9c896f6bcee11797bb7e944ffffef2bd1f36b831dbaf0c77cbe64736f6c63430008040033",
  "linkReferences": {},
  "deployedLinkReferences": {}
}