{
  "_format": "hh-sol-artifact-1",
  "contractName": "TestProtocol",
  "sourceName": "contracts/test/TestProtocol.sol",
  "abi": [
    {
      "inputs": [
        {
          "internalType": "address",
          "name": "_longStrategy",
          "type": "address"
        },
        {
          "internalType": "address",
          "name": "_shortStrategy",
          "type": "address"
        },
        {
          "internalType": "uint24",
          "name": "_protocol",
          "type": "uint24"
        }
      ],
      "stateMutability": "nonpayable",
      "type": "constructor"
    },
    {
      "inputs": [
        {
          "internalType": "bytes",
          "name": "protData",
          "type": "bytes"
        },
        {
          "internalType": "bytes",
          "name": "stratData",
          "type": "bytes"
        },
        {
          "internalType": "bytes",
          "name": "rateData",
          "type": "bytes"
        }
      ],
      "name": "initialize",
      "outputs": [
        {
          "internalType": "bool",
          "name": "",
          "type": "bool"
        }
      ],
      "stateMutability": "nonpayable",
      "type": "function"
    },
    {
      "inputs": [],
      "name": "longStrategy",
      "outputs": [
        {
          "internalType": "address",
          "name": "",
          "type": "address"
        }
      ],
      "stateMutability": "view",
      "type": "function"
    },
    {
      "inputs": [],
      "name": "parameters",
      "outputs": [
        {
          "internalType": "bytes",
          "name": "params1",
          "type": "bytes"
        },
        {
          "internalType": "bytes",
          "name": "params2",
          "type": "bytes"
        },
        {
          "internalType": "bytes",
          "name": "params3",
          "type": "bytes"
        }
      ],
      "stateMutability": "view",
      "type": "function"
    },
    {
      "inputs": [],
      "name": "protocol",
      "outputs": [
        {
          "internalType": "uint24",
          "name": "",
          "type": "uint24"
        }
      ],
      "stateMutability": "view",
      "type": "function"
    },
    {
      "inputs": [],
      "name": "shortStrategy",
      "outputs": [
        {
          "internalType": "address",
          "name": "",
          "type": "address"
        }
      ],
      "stateMutability": "view",
      "type": "function"
    },
    {
      "inputs": [
        {
          "internalType": "address[]",
          "name": "_tokens",
          "type": "address[]"
        },
        {
          "internalType": "address",
          "name": "_cfmm",
          "type": "address"
        }
      ],
      "name": "validateCFMM",
      "outputs": [
        {
          "internalType": "address[]",
          "name": "tokens",
          "type": "address[]"
        },
        {
          "internalType": "bytes32",
          "name": "key",
          "type": "bytes32"
        }
      ],
      "stateMutability": "view",
      "type": "function"
    }
  ],
  "bytecode": "0x608060405234801561001057600080fd5b5060405161096f38038061096f83398181016040528101906100329190610104565b826000806101000a81548173ffffffffffffffffffffffffffffffffffffffff021916908373ffffffffffffffffffffffffffffffffffffffff16021790555081600160006101000a81548173ffffffffffffffffffffffffffffffffffffffff021916908373ffffffffffffffffffffffffffffffffffffffff16021790555080600160146101000a81548162ffffff021916908362ffffff1602179055505050506101c2565b6000815190506100e981610194565b92915050565b6000815190506100fe816101ab565b92915050565b60008060006060848603121561011957600080fd5b6000610127868287016100da565b9350506020610138868287016100da565b9250506040610149868287016100ef565b9150509250925092565b600061015e82610165565b9050919050565b600073ffffffffffffffffffffffffffffffffffffffff82169050919050565b600062ffffff82169050919050565b61019d81610153565b81146101a857600080fd5b50565b6101b481610185565b81146101bf57600080fd5b50565b61079e806101d16000396000f3fe608060405234801561001057600080fd5b50600436106100625760003560e01c80634932ed37146100675780635411b20914610085578063762f324f146100b557806389035730146100e657806389c4fa12146101065780638ce7442614610124575b600080fd5b61006f610142565b60405161007c919061056f565b60405180910390f35b61009f600480360381019061009a91906103a6565b610166565b6040516100ac91906105ba565b60405180910390f35b6100cf60048036038101906100ca919061034e565b610176565b6040516100dd92919061058a565b60405180910390f35b6100ee6101cd565b6040516100fd939291906105d5565b60405180910390f35b61010e61026a565b60405161011b919061056f565b60405180910390f35b61012c610290565b604051610139919061063c565b60405180910390f35b60008054906101000a900473ffffffffffffffffffffffffffffffffffffffff1681565b6000600190509695505050505050565b60606000848480806020026020016040519081016040528093929190818152602001838360200280828437600081840152601f19601f820116905080830192505050505050509150600160001b9050935093915050565b6060806060604051806020016040528060018152506040516020016101f29190610621565b6040516020818303038152906040529250604051806020016040528060028152506040516020016102239190610621565b6040516020818303038152906040529150604051806020016040528060038152506040516020016102549190610621565b6040516020818303038152906040529050909192565b600160009054906101000a900473ffffffffffffffffffffffffffffffffffffffff1681565b600160149054906101000a900462ffffff1681565b6000813590506102b481610751565b92915050565b60008083601f8401126102cc57600080fd5b8235905067ffffffffffffffff8111156102e557600080fd5b6020830191508360208202830111156102fd57600080fd5b9250929050565b60008083601f84011261031657600080fd5b8235905067ffffffffffffffff81111561032f57600080fd5b60208301915083600182028301111561034757600080fd5b9250929050565b60008060006040848603121561036357600080fd5b600084013567ffffffffffffffff81111561037d57600080fd5b610389868287016102ba565b9350935050602061039c868287016102a5565b9150509250925092565b600080600080600080606087890312156103bf57600080fd5b600087013567ffffffffffffffff8111156103d957600080fd5b6103e589828a01610304565b9650965050602087013567ffffffffffffffff81111561040457600080fd5b61041089828a01610304565b9450945050604087013567ffffffffffffffff81111561042f57600080fd5b61043b89828a01610304565b92509250509295509295509295565b60006104568383610462565b60208301905092915050565b61046b816106ac565b82525050565b61047a816106ac565b82525050565b600061048b82610667565b610495818561068a565b93506104a083610657565b8060005b838110156104d15781516104b8888261044a565b97506104c38361067d565b9250506001810190506104a4565b5085935050505092915050565b6104e7816106be565b82525050565b6104f6816106ca565b82525050565b600061050782610672565b610511818561069b565b935061052181856020860161070d565b61052a81610740565b840191505092915050565b60208201600082015161054b6000850182610560565b50505050565b61055a816106f4565b82525050565b61056981610703565b82525050565b60006020820190506105846000830184610471565b92915050565b600060408201905081810360008301526105a48185610480565b90506105b360208301846104ed565b9392505050565b60006020820190506105cf60008301846104de565b92915050565b600060608201905081810360008301526105ef81866104fc565b9050818103602083015261060381856104fc565b9050818103604083015261061781846104fc565b9050949350505050565b60006020820190506106366000830184610535565b92915050565b60006020820190506106516000830184610551565b92915050565b6000819050602082019050919050565b600081519050919050565b600081519050919050565b6000602082019050919050565b600082825260208201905092915050565b600082825260208201905092915050565b60006106b7826106d4565b9050919050565b60008115159050919050565b6000819050919050565b600073ffffffffffffffffffffffffffffffffffffffff82169050919050565b600062ffffff82169050919050565b6000819050919050565b60005b8381101561072b578082015181840152602081019050610710565b8381111561073a576000848401525b50505050565b6000601f19601f8301169050919050565b61075a816106ac565b811461076557600080fd5b5056fea2646970667358221220bfff3019ba9b15f5616614dadee4977c6bece26501678e7cef70b800bdfe6e6064736f6c63430008040033",
  "linkReferences": {},
  "deployedLinkReferences": {}
}