{
  "_format": "hh-sol-artifact-1",
  "contractName": "TestTransfers",
  "sourceName": "contracts/test/TestTransfers.sol",
  "abi": [
    {
      "inputs": [
        {
          "internalType": "address",
          "name": "_WETH",
          "type": "address"
        }
      ],
      "stateMutability": "nonpayable",
      "type": "constructor"
    },
    {
      "inputs": [],
      "name": "WETH",
      "outputs": [
        {
          "internalType": "address",
          "name": "",
          "type": "address"
        }
      ],
      "stateMutability": "view",
      "type": "function"
    },
    {
      "inputs": [
        {
          "internalType": "address",
          "name": "token",
          "type": "address"
        },
        {
          "internalType": "uint256",
          "name": "minAmt",
          "type": "uint256"
        },
        {
          "internalType": "address",
          "name": "to",
          "type": "address"
        }
      ],
      "name": "clearToken",
      "outputs": [],
      "stateMutability": "payable",
      "type": "function"
    },
    {
      "inputs": [],
      "name": "refundETH",
      "outputs": [],
      "stateMutability": "payable",
      "type": "function"
    },
    {
      "inputs": [
        {
          "internalType": "address",
          "name": "token",
          "type": "address"
        },
        {
          "internalType": "address",
          "name": "sender",
          "type": "address"
        },
        {
          "internalType": "address",
          "name": "to",
          "type": "address"
        },
        {
          "internalType": "uint256",
          "name": "amount",
          "type": "uint256"
        }
      ],
      "name": "testSend",
      "outputs": [],
      "stateMutability": "nonpayable",
      "type": "function"
    },
    {
      "inputs": [],
      "name": "testUnwrapWETH",
      "outputs": [],
      "stateMutability": "payable",
      "type": "function"
    },
    {
      "inputs": [
        {
          "internalType": "uint256",
          "name": "minAmt",
          "type": "uint256"
        },
        {
          "internalType": "address",
          "name": "to",
          "type": "address"
        }
      ],
      "name": "unwrapWETH",
      "outputs": [],
      "stateMutability": "payable",
      "type": "function"
    },
    {
      "stateMutability": "payable",
      "type": "receive"
    }
  ],
  "bytecode": "0x60a06040523480156200001157600080fd5b50604051620012e4380380620012e483398181016040528101906200003791906200008e565b808073ffffffffffffffffffffffffffffffffffffffff1660808173ffffffffffffffffffffffffffffffffffffffff1660601b81525050505062000108565b6000815190506200008881620000ee565b92915050565b600060208284031215620000a157600080fd5b6000620000b18482850162000077565b91505092915050565b6000620000c782620000ce565b9050919050565b600073ffffffffffffffffffffffffffffffffffffffff82169050919050565b620000f981620000ba565b81146200010557600080fd5b50565b60805160601c6111866200015e60003960008181606001528181610296015281816102bc0152818161037001528181610401015281816104f801528181610855015281816108b5015261093901526111866000f3fe6080604052600436106100595760003560e01c806312210e8a146100f35780632838a94f146100fd578063ad5c464814610119578063adf8529514610144578063e16d9ce51461014e578063fe68e6671461016a576100ee565b366100ee577f000000000000000000000000000000000000000000000000000000000000000073ffffffffffffffffffffffffffffffffffffffff163373ffffffffffffffffffffffffffffffffffffffff16146100ec576040517f08c379a00000000000000000000000000000000000000000000000000000000081526004016100e390610e73565b60405180910390fd5b005b600080fd5b6100fb610193565b005b61011760048036038101906101129190610be3565b6101a9565b005b34801561012557600080fd5b5061012e610294565b60405161013b9190610df8565b60405180910390f35b61014c6102b8565b005b61016860048036038101906101639190610c84565b6103fd565b005b34801561017657600080fd5b50610191600480360381019061018c9190610b80565b610591565b005b60004711156101a7576101a633476105a3565b5b565b60008373ffffffffffffffffffffffffffffffffffffffff166370a08231306040518263ffffffff1660e01b81526004016101e49190610df8565b60206040518083038186803b1580156101fc57600080fd5b505afa158015610210573d6000803e3d6000fd5b505050506040513d601f19601f820116820180604052508101906102349190610c5b565b905082811015610279576040517f08c379a000000000000000000000000000000000000000000000000000000000815260040161027090610f13565b60405180910390fd5b600081111561028e5761028d8483836106c9565b5b50505050565b7f000000000000000000000000000000000000000000000000000000000000000081565b60007f000000000000000000000000000000000000000000000000000000000000000073ffffffffffffffffffffffffffffffffffffffff166370a08231306040518263ffffffff1660e01b81526004016103139190610df8565b60206040518083038186803b15801561032b57600080fd5b505afa15801561033f573d6000803e3d6000fd5b505050506040513d601f19601f820116820180604052508101906103639190610c5b565b905060008111156103fa577f000000000000000000000000000000000000000000000000000000000000000073ffffffffffffffffffffffffffffffffffffffff16632e1a7d4d826040518263ffffffff1660e01b81526004016103c79190610f33565b600060405180830381600087803b1580156103e157600080fd5b505af11580156103f5573d6000803e3d6000fd5b505050505b50565b60007f000000000000000000000000000000000000000000000000000000000000000073ffffffffffffffffffffffffffffffffffffffff166370a08231306040518263ffffffff1660e01b81526004016104589190610df8565b60206040518083038186803b15801561047057600080fd5b505afa158015610484573d6000803e3d6000fd5b505050506040513d601f19601f820116820180604052508101906104a89190610c5b565b9050828110156104ed576040517f08c379a00000000000000000000000000000000000000000000000000000000081526004016104e490610e93565b60405180910390fd5b600081111561058c577f000000000000000000000000000000000000000000000000000000000000000073ffffffffffffffffffffffffffffffffffffffff16632e1a7d4d826040518263ffffffff1660e01b815260040161054f9190610f33565b600060405180830381600087803b15801561056957600080fd5b505af115801561057d573d6000803e3d6000fd5b5050505061058b82826105a3565b5b505050565b61059d84848484610853565b50505050565b60008273ffffffffffffffffffffffffffffffffffffffff1682600067ffffffffffffffff8111156105fe577f4e487b7100000000000000000000000000000000000000000000000000000000600052604160045260246000fd5b6040519080825280601f01601f1916602001820160405280156106305781602001600182028036833780820191505090505b5060405161063e9190610de1565b60006040518083038185875af1925050503d806000811461067b576040519150601f19603f3d011682016040523d82523d6000602084013e610680565b606091505b50509050806106c4576040517f08c379a00000000000000000000000000000000000000000000000000000000081526004016106bb90610eb3565b60405180910390fd5b505050565b6000808473ffffffffffffffffffffffffffffffffffffffff166040518060400160405280601981526020017f7472616e7366657228616464726573732c75696e743235362900000000000000815250805190602001208585604051602401610733929190610e4a565b604051602081830303815290604052907bffffffffffffffffffffffffffffffffffffffffffffffffffffffff19166020820180517bffffffffffffffffffffffffffffffffffffffffffffffffffffffff838183161783525050505060405161079d9190610de1565b6000604051808303816000865af19150503d80600081146107da576040519150601f19603f3d011682016040523d82523d6000602084013e6107df565b606091505b509150915081801561080d575060008151148061080c57508080602001905181019061080b9190610c32565b5b5b61084c576040517f08c379a000000000000000000000000000000000000000000000000000000000815260040161084390610ed3565b60405180910390fd5b5050505050565b7f000000000000000000000000000000000000000000000000000000000000000073ffffffffffffffffffffffffffffffffffffffff168473ffffffffffffffffffffffffffffffffffffffff161480156108ae5750804710155b15610964577f000000000000000000000000000000000000000000000000000000000000000073ffffffffffffffffffffffffffffffffffffffff1663d0e30db0826040518263ffffffff1660e01b81526004016000604051808303818588803b15801561091b57600080fd5b505af115801561092f573d6000803e3d6000fd5b505050505061095f7f000000000000000000000000000000000000000000000000000000000000000083836106c9565b6109b6565b3073ffffffffffffffffffffffffffffffffffffffff168373ffffffffffffffffffffffffffffffffffffffff1614156109a8576109a38483836106c9565b6109b5565b6109b4848484846109bc565b5b5b50505050565b6000808573ffffffffffffffffffffffffffffffffffffffff1660405180606001604052806025815260200161112c6025913980519060200120868686604051602401610a0b93929190610e13565b604051602081830303815290604052907bffffffffffffffffffffffffffffffffffffffffffffffffffffffff19166020820180517bffffffffffffffffffffffffffffffffffffffffffffffffffffffff8381831617835250505050604051610a759190610de1565b6000604051808303816000865af19150503d8060008114610ab2576040519150601f19603f3d011682016040523d82523d6000602084013e610ab7565b606091505b5091509150818015610ae55750600081511480610ae4575080806020019051810190610ae39190610c32565b5b5b610b24576040517f08c379a0000000000000000000000000000000000000000000000000000000008152600401610b1b90610ef3565b60405180910390fd5b505050505050565b600081359050610b3b816110e6565b92915050565b600081519050610b50816110fd565b92915050565b600081359050610b6581611114565b92915050565b600081519050610b7a81611114565b92915050565b60008060008060808587031215610b9657600080fd5b6000610ba487828801610b2c565b9450506020610bb587828801610b2c565b9350506040610bc687828801610b2c565b9250506060610bd787828801610b56565b91505092959194509250565b600080600060608486031215610bf857600080fd5b6000610c0686828701610b2c565b9350506020610c1786828701610b56565b9250506040610c2886828701610b2c565b9150509250925092565b600060208284031215610c4457600080fd5b6000610c5284828501610b41565b91505092915050565b600060208284031215610c6d57600080fd5b6000610c7b84828501610b6b565b91505092915050565b60008060408385031215610c9757600080fd5b6000610ca585828601610b56565b9250506020610cb685828601610b2c565b9150509250929050565b610cc981610f75565b82525050565b6000610cda82610f4e565b610ce48185610f59565b9350610cf4818560208601610fbd565b80840191505092915050565b6000610d0d600883610f64565b9150610d1882610ff0565b602082019050919050565b6000610d30601083610f64565b9150610d3b82611019565b602082019050919050565b6000610d53600383610f64565b9150610d5e82611042565b602082019050919050565b6000610d76600283610f64565b9150610d818261106b565b602082019050919050565b6000610d99600383610f64565b9150610da482611094565b602082019050919050565b6000610dbc601183610f64565b9150610dc7826110bd565b602082019050919050565b610ddb81610fb3565b82525050565b6000610ded8284610ccf565b915081905092915050565b6000602082019050610e0d6000830184610cc0565b92915050565b6000606082019050610e286000830186610cc0565b610e356020830185610cc0565b610e426040830184610dd2565b949350505050565b6000604082019050610e5f6000830185610cc0565b610e6c6020830184610dd2565b9392505050565b60006020820190508181036000830152610e8c81610d00565b9050919050565b60006020820190508181036000830152610eac81610d23565b9050919050565b60006020820190508181036000830152610ecc81610d46565b9050919050565b60006020820190508181036000830152610eec81610d69565b9050919050565b60006020820190508181036000830152610f0c81610d8c565b9050919050565b60006020820190508181036000830152610f2c81610daf565b9050919050565b6000602082019050610f486000830184610dd2565b92915050565b600081519050919050565b600081905092915050565b600082825260208201905092915050565b6000610f8082610f93565b9050919050565b60008115159050919050565b600073ffffffffffffffffffffffffffffffffffffffff82169050919050565b6000819050919050565b60005b83811015610fdb578082015181840152602081019050610fc0565b83811115610fea576000848401525b50505050565b7f4e4f545f57455448000000000000000000000000000000000000000000000000600082015250565b7f7765746842616c203c206d696e416d7400000000000000000000000000000000600082015250565b7f5354450000000000000000000000000000000000000000000000000000000000600082015250565b7f5354000000000000000000000000000000000000000000000000000000000000600082015250565b7f5354460000000000000000000000000000000000000000000000000000000000600082015250565b7f746f6b656e42616c203c206d696e416d74000000000000000000000000000000600082015250565b6110ef81610f75565b81146110fa57600080fd5b50565b61110681610f87565b811461111157600080fd5b50565b61111d81610fb3565b811461112857600080fd5b5056fe7472616e7366657246726f6d28616464726573732c616464726573732c75696e7432353629a264697066735822122070f4f5e47aa3c95c2762efabe41ce4ef65f8056608830213434e4529771665ae64736f6c63430008040033",
  "linkReferences": {},
  "deployedLinkReferences": {}
}