{
  "contractName": "TestPositionManager",
  "abi": [
    {
      "inputs": [
        {
          "internalType": "address",
          "name": "_uniRouter",
          "type": "address"
        }
      ],
      "stateMutability": "nonpayable",
      "type": "constructor"
    },
    {
      "anonymous": false,
      "inputs": [
        {
          "indexed": true,
          "internalType": "address",
          "name": "owner",
          "type": "address"
        },
        {
          "indexed": true,
          "internalType": "address",
          "name": "approved",
          "type": "address"
        },
        {
          "indexed": true,
          "internalType": "uint256",
          "name": "tokenId",
          "type": "uint256"
        }
      ],
      "name": "Approval",
      "type": "event"
    },
    {
      "anonymous": false,
      "inputs": [
        {
          "indexed": true,
          "internalType": "address",
          "name": "owner",
          "type": "address"
        },
        {
          "indexed": true,
          "internalType": "address",
          "name": "operator",
          "type": "address"
        },
        {
          "indexed": false,
          "internalType": "bool",
          "name": "approved",
          "type": "bool"
        }
      ],
      "name": "ApprovalForAll",
      "type": "event"
    },
    {
      "anonymous": false,
      "inputs": [
        {
          "indexed": false,
          "internalType": "uint256",
          "name": "num1",
          "type": "uint256"
        },
        {
          "indexed": false,
          "internalType": "uint256",
          "name": "num2",
          "type": "uint256"
        },
        {
          "indexed": false,
          "internalType": "uint256",
          "name": "num3",
          "type": "uint256"
        },
        {
          "indexed": false,
          "internalType": "uint256",
          "name": "num4",
          "type": "uint256"
        },
        {
          "indexed": false,
          "internalType": "uint256",
          "name": "num5",
          "type": "uint256"
        },
        {
          "indexed": false,
          "internalType": "uint256",
          "name": "num6",
          "type": "uint256"
        },
        {
          "indexed": false,
          "internalType": "uint256",
          "name": "num7",
          "type": "uint256"
        },
        {
          "indexed": false,
          "internalType": "uint256",
          "name": "num8",
          "type": "uint256"
        },
        {
          "indexed": false,
          "internalType": "uint256",
          "name": "num9",
          "type": "uint256"
        },
        {
          "indexed": false,
          "internalType": "uint256",
          "name": "num10",
          "type": "uint256"
        }
      ],
      "name": "TestInfo",
      "type": "event"
    },
    {
      "anonymous": false,
      "inputs": [
        {
          "indexed": true,
          "internalType": "address",
          "name": "from",
          "type": "address"
        },
        {
          "indexed": true,
          "internalType": "address",
          "name": "to",
          "type": "address"
        },
        {
          "indexed": true,
          "internalType": "uint256",
          "name": "tokenId",
          "type": "uint256"
        }
      ],
      "name": "Transfer",
      "type": "event"
    },
    {
      "inputs": [
        {
          "internalType": "uint256",
          "name": "",
          "type": "uint256"
        }
      ],
      "name": "allPools",
      "outputs": [
        {
          "internalType": "address",
          "name": "",
          "type": "address"
        }
      ],
      "stateMutability": "view",
      "type": "function",
      "constant": true
    },
    {
      "inputs": [],
      "name": "allPoolsLength",
      "outputs": [
        {
          "internalType": "uint256",
          "name": "_len",
          "type": "uint256"
        }
      ],
      "stateMutability": "view",
      "type": "function",
      "constant": true
    },
    {
      "inputs": [
        {
          "internalType": "address",
          "name": "to",
          "type": "address"
        },
        {
          "internalType": "uint256",
          "name": "tokenId",
          "type": "uint256"
        }
      ],
      "name": "approve",
      "outputs": [],
      "stateMutability": "nonpayable",
      "type": "function"
    },
    {
      "inputs": [
        {
          "internalType": "address",
          "name": "owner",
          "type": "address"
        }
      ],
      "name": "balanceOf",
      "outputs": [
        {
          "internalType": "uint256",
          "name": "",
          "type": "uint256"
        }
      ],
      "stateMutability": "view",
      "type": "function",
      "constant": true
    },
    {
      "inputs": [
        {
          "internalType": "uint256",
          "name": "tokenId",
          "type": "uint256"
        }
      ],
      "name": "burn",
      "outputs": [],
      "stateMutability": "nonpayable",
      "type": "function"
    },
    {
      "inputs": [
        {
          "internalType": "uint256",
          "name": "tokenId",
          "type": "uint256"
        },
        {
          "internalType": "uint256",
          "name": "amount0",
          "type": "uint256"
        },
        {
          "internalType": "uint256",
          "name": "amount1",
          "type": "uint256"
        },
        {
          "internalType": "address",
          "name": "to",
          "type": "address"
        }
      ],
      "name": "decreaseCollateral",
      "outputs": [
        {
          "internalType": "uint256",
          "name": "tokensHeld0",
          "type": "uint256"
        },
        {
          "internalType": "uint256",
          "name": "tokensHeld1",
          "type": "uint256"
        }
      ],
      "stateMutability": "nonpayable",
      "type": "function"
    },
    {
      "inputs": [
        {
          "internalType": "uint256",
          "name": "tokenId",
          "type": "uint256"
        },
        {
          "internalType": "uint256",
          "name": "liquidity",
          "type": "uint256"
        }
      ],
      "name": "decreasePosition",
      "outputs": [],
      "stateMutability": "nonpayable",
      "type": "function"
    },
    {
      "inputs": [
        {
          "internalType": "uint256",
          "name": "tokenId",
          "type": "uint256"
        }
      ],
      "name": "getApproved",
      "outputs": [
        {
          "internalType": "address",
          "name": "",
          "type": "address"
        }
      ],
      "stateMutability": "view",
      "type": "function",
      "constant": true
    },
    {
      "inputs": [],
      "name": "getOwner",
      "outputs": [
        {
          "internalType": "address",
          "name": "_owner",
          "type": "address"
        }
      ],
      "stateMutability": "view",
      "type": "function",
      "constant": true
    },
    {
      "inputs": [
        {
          "internalType": "address",
          "name": "",
          "type": "address"
        },
        {
          "internalType": "address",
          "name": "",
          "type": "address"
        }
      ],
      "name": "getPool",
      "outputs": [
        {
          "internalType": "address",
          "name": "",
          "type": "address"
        }
      ],
      "stateMutability": "view",
      "type": "function",
      "constant": true
    },
    {
      "inputs": [
        {
          "internalType": "address",
          "name": "user",
          "type": "address"
        }
      ],
      "name": "getPositionsByOwner",
      "outputs": [
        {
          "internalType": "uint256[]",
          "name": "tokenIds",
          "type": "uint256[]"
        }
      ],
      "stateMutability": "view",
      "type": "function",
      "constant": true
    },
    {
      "inputs": [
        {
          "internalType": "uint256",
          "name": "tokenId",
          "type": "uint256"
        },
        {
          "internalType": "uint256",
          "name": "amount0",
          "type": "uint256"
        },
        {
          "internalType": "uint256",
          "name": "amount1",
          "type": "uint256"
        }
      ],
      "name": "increaseCollateral",
      "outputs": [
        {
          "internalType": "uint256",
          "name": "token0Amt",
          "type": "uint256"
        },
        {
          "internalType": "uint256",
          "name": "token1Amt",
          "type": "uint256"
        }
      ],
      "stateMutability": "nonpayable",
      "type": "function"
    },
    {
      "inputs": [
        {
          "internalType": "address",
          "name": "owner",
          "type": "address"
        },
        {
          "internalType": "address",
          "name": "operator",
          "type": "address"
        }
      ],
      "name": "isApprovedForAll",
      "outputs": [
        {
          "internalType": "bool",
          "name": "",
          "type": "bool"
        }
      ],
      "stateMutability": "view",
      "type": "function",
      "constant": true
    },
    {
      "inputs": [],
      "name": "name",
      "outputs": [
        {
          "internalType": "string",
          "name": "",
          "type": "string"
        }
      ],
      "stateMutability": "view",
      "type": "function",
      "constant": true
    },
    {
      "inputs": [
        {
          "internalType": "address",
          "name": "token0",
          "type": "address"
        },
        {
          "internalType": "address",
          "name": "token1",
          "type": "address"
        },
        {
          "internalType": "uint256",
          "name": "amount0",
          "type": "uint256"
        },
        {
          "internalType": "uint256",
          "name": "amount1",
          "type": "uint256"
        },
        {
          "internalType": "uint256",
          "name": "liquidity",
          "type": "uint256"
        },
        {
          "internalType": "address",
          "name": "to",
          "type": "address"
        }
      ],
      "name": "openPosition",
      "outputs": [
        {
          "internalType": "uint256",
          "name": "tokenId",
          "type": "uint256"
        }
      ],
      "stateMutability": "nonpayable",
      "type": "function"
    },
    {
      "inputs": [],
      "name": "owner",
      "outputs": [
        {
          "internalType": "address",
          "name": "",
          "type": "address"
        }
      ],
      "stateMutability": "view",
      "type": "function",
      "constant": true
    },
    {
      "inputs": [
        {
          "internalType": "uint256",
          "name": "tokenId",
          "type": "uint256"
        }
      ],
      "name": "ownerOf",
      "outputs": [
        {
          "internalType": "address",
          "name": "",
          "type": "address"
        }
      ],
      "stateMutability": "view",
      "type": "function",
      "constant": true
    },
    {
      "inputs": [
        {
          "internalType": "address",
          "name": "",
          "type": "address"
        }
      ],
      "name": "positionCountByOwner",
      "outputs": [
        {
          "internalType": "uint256",
          "name": "",
          "type": "uint256"
        }
      ],
      "stateMutability": "view",
      "type": "function",
      "constant": true
    },
    {
      "inputs": [
        {
          "internalType": "uint256",
          "name": "tokenId",
          "type": "uint256"
        }
      ],
      "name": "positions",
      "outputs": [
        {
          "internalType": "uint96",
          "name": "nonce",
          "type": "uint96"
        },
        {
          "internalType": "address",
          "name": "operator",
          "type": "address"
        },
        {
          "internalType": "address",
          "name": "poolId",
          "type": "address"
        },
        {
          "internalType": "address",
          "name": "token0",
          "type": "address"
        },
        {
          "internalType": "address",
          "name": "token1",
          "type": "address"
        },
        {
          "internalType": "uint256",
          "name": "tokensHeld0",
          "type": "uint256"
        },
        {
          "internalType": "uint256",
          "name": "tokensHeld1",
          "type": "uint256"
        },
        {
          "internalType": "address",
          "name": "uniPair",
          "type": "address"
        },
        {
          "internalType": "uint256",
          "name": "liquidity",
          "type": "uint256"
        },
        {
          "internalType": "uint256",
          "name": "rateIndex",
          "type": "uint256"
        },
        {
          "internalType": "uint256",
          "name": "blockNum",
          "type": "uint256"
        }
      ],
      "stateMutability": "view",
      "type": "function",
      "constant": true
    },
    {
      "inputs": [
        {
          "internalType": "address",
          "name": "",
          "type": "address"
        },
        {
          "internalType": "uint256",
          "name": "",
          "type": "uint256"
        }
      ],
      "name": "positionsByOwner",
      "outputs": [
        {
          "internalType": "uint256",
          "name": "",
          "type": "uint256"
        }
      ],
      "stateMutability": "view",
      "type": "function",
      "constant": true
    },
    {
      "inputs": [
        {
          "internalType": "address",
          "name": "token0",
          "type": "address"
        },
        {
          "internalType": "address",
          "name": "token1",
          "type": "address"
        },
        {
          "internalType": "address",
          "name": "pool",
          "type": "address"
        }
      ],
      "name": "registerPool",
      "outputs": [],
      "stateMutability": "nonpayable",
      "type": "function"
    },
    {
      "inputs": [
        {
          "internalType": "address",
          "name": "from",
          "type": "address"
        },
        {
          "internalType": "address",
          "name": "to",
          "type": "address"
        },
        {
          "internalType": "uint256",
          "name": "tokenId",
          "type": "uint256"
        }
      ],
      "name": "safeTransferFrom",
      "outputs": [],
      "stateMutability": "nonpayable",
      "type": "function"
    },
    {
      "inputs": [
        {
          "internalType": "address",
          "name": "from",
          "type": "address"
        },
        {
          "internalType": "address",
          "name": "to",
          "type": "address"
        },
        {
          "internalType": "uint256",
          "name": "tokenId",
          "type": "uint256"
        },
        {
          "internalType": "bytes",
          "name": "_data",
          "type": "bytes"
        }
      ],
      "name": "safeTransferFrom",
      "outputs": [],
      "stateMutability": "nonpayable",
      "type": "function"
    },
    {
      "inputs": [
        {
          "internalType": "address",
          "name": "operator",
          "type": "address"
        },
        {
          "internalType": "bool",
          "name": "approved",
          "type": "bool"
        }
      ],
      "name": "setApprovalForAll",
      "outputs": [],
      "stateMutability": "nonpayable",
      "type": "function"
    },
    {
      "inputs": [
        {
          "internalType": "bytes4",
          "name": "interfaceId",
          "type": "bytes4"
        }
      ],
      "name": "supportsInterface",
      "outputs": [
        {
          "internalType": "bool",
          "name": "",
          "type": "bool"
        }
      ],
      "stateMutability": "view",
      "type": "function",
      "constant": true
    },
    {
      "inputs": [],
      "name": "symbol",
      "outputs": [
        {
          "internalType": "string",
          "name": "",
          "type": "string"
        }
      ],
      "stateMutability": "view",
      "type": "function",
      "constant": true
    },
    {
      "inputs": [
        {
          "internalType": "address",
          "name": "token",
          "type": "address"
        }
      ],
      "name": "tokenBalances",
      "outputs": [
        {
          "internalType": "uint256",
          "name": "balance",
          "type": "uint256"
        }
      ],
      "stateMutability": "view",
      "type": "function",
      "constant": true
    },
    {
      "inputs": [
        {
          "internalType": "uint256",
          "name": "tokenId",
          "type": "uint256"
        }
      ],
      "name": "tokenURI",
      "outputs": [
        {
          "internalType": "string",
          "name": "",
          "type": "string"
        }
      ],
      "stateMutability": "view",
      "type": "function",
      "constant": true
    },
    {
      "inputs": [
        {
          "internalType": "address",
          "name": "from",
          "type": "address"
        },
        {
          "internalType": "address",
          "name": "to",
          "type": "address"
        },
        {
          "internalType": "uint256",
          "name": "tokenId",
          "type": "uint256"
        }
      ],
      "name": "transferFrom",
      "outputs": [],
      "stateMutability": "nonpayable",
      "type": "function"
    },
    {
      "inputs": [],
      "name": "uniRouter",
      "outputs": [
        {
          "internalType": "address",
          "name": "",
          "type": "address"
        }
      ],
      "stateMutability": "view",
      "type": "function",
      "constant": true
    },
    {
      "inputs": [
        {
          "internalType": "uint256",
          "name": "tokenId",
          "type": "uint256"
        }
      ],
      "name": "forceUpdatePositionLiquidity",
      "outputs": [],
      "stateMutability": "nonpayable",
      "type": "function"
    }
  ],
  "bytecode": "0x608060405267016345785d8a00006006556001600760006101000a81548175ffffffffffffffffffffffffffffffffffffffffffff021916908375ffffffffffffffffffffffffffffffffffffffffffff1602179055506001600760166101000a81548169ffffffffffffffffffff021916908369ffffffffffffffffffff160217905550670de0b6b3a7640000600e553480156200009d57600080fd5b506040516200610c3803806200610c8339818101604052810190620000c39190620002c0565b80604051806020016040528060008152506040518060200160405280600081525081818160009080519060200190620000fe929190620001a6565b50806001908051906020019062000117929190620001a6565b50505033600d60006101000a81548173ffffffffffffffffffffffffffffffffffffffff021916908373ffffffffffffffffffffffffffffffffffffffff16021790555082600b60006101000a81548173ffffffffffffffffffffffffffffffffffffffff021916908373ffffffffffffffffffffffffffffffffffffffff1602179055505050505062000356565b828054620001b49062000321565b90600052602060002090601f016020900481019282620001d8576000855562000224565b82601f10620001f357805160ff191683800117855562000224565b8280016001018555821562000224579182015b828111156200022357825182559160200191906001019062000206565b5b50905062000233919062000237565b5090565b5b808211156200025257600081600090555060010162000238565b5090565b600080fd5b600073ffffffffffffffffffffffffffffffffffffffff82169050919050565b600062000288826200025b565b9050919050565b6200029a816200027b565b8114620002a657600080fd5b50565b600081519050620002ba816200028f565b92915050565b600060208284031215620002d957620002d862000256565b5b6000620002e984828501620002a9565b91505092915050565b7f4e487b7100000000000000000000000000000000000000000000000000000000600052602260045260246000fd5b600060028204905060018216806200033a57607f821691505b60208210810362000350576200034f620002f2565b5b50919050565b615da680620003666000396000f3fe608060405234801561001057600080fd5b50600436106101e55760003560e01c80635498e0a11161010f57806395d89b41116100a2578063b88d4fde11610071578063b88d4fde1461060c578063c87b56dd14610628578063e985e9c514610658578063efde4e6414610688576101e5565b806395d89b411461057a57806399fbab8814610598578063a0e47bf6146105d2578063a22cb465146105f0576101e5565b806370a08231116100de57806370a08231146104de578063893d20e81461050e5780638da5cb5b1461052c5780639322d5cf1461054a576101e5565b80635498e0a11461041d5780635c2d07ff1461044e5780636352211e1461047e5780636a5d8e8f146104ae576101e5565b806331bfa3591161018757806342842e0e1161015657806342842e0e1461038557806342966c68146103a1578063523fba7f146103bd578063531aa03e146103ed576101e5565b806331bfa359146102ed5780633bacfca91461031d57806341d1de971461033957806342531fa314610369576101e5565b8063095ea7b3116101c3578063095ea7b3146102685780631aed84361461028457806323b872dd146102b55780632c23003d146102d1576101e5565b806301ffc9a7146101ea57806306fdde031461021a578063081812fc14610238575b600080fd5b61020460048036038101906101ff9190613f41565b6106a6565b6040516102119190613f89565b60405180910390f35b610222610788565b60405161022f919061403d565b60405180910390f35b610252600480360381019061024d9190614095565b61081a565b60405161025f9190614103565b60405180910390f35b610282600480360381019061027d919061414a565b6108a2565b005b61029e6004803603810190610299919061418a565b6109b9565b6040516102ac929190614200565b60405180910390f35b6102cf60048036038101906102ca9190614229565b610b6c565b005b6102eb60048036038101906102e6919061427c565b610bcc565b005b610307600480360381019061030291906142cf565b610e3a565b60405161031491906142fc565b60405180910390f35b61033760048036038101906103329190614317565b610e52565b005b610353600480360381019061034e9190614095565b6111d1565b6040516103609190614103565b60405180910390f35b610383600480360381019061037e9190614095565b611210565b005b61039f600480360381019061039a9190614229565b611234565b005b6103bb60048036038101906103b69190614095565b611254565b005b6103d760048036038101906103d291906142cf565b61144a565b6040516103e491906142fc565b60405180910390f35b61040760048036038101906104029190614357565b611493565b6040516104149190614103565b60405180910390f35b61043760048036038101906104329190614397565b6114d5565b604051610445929190614200565b60405180910390f35b6104686004803603810190610463919061414a565b6115eb565b60405161047591906142fc565b60405180910390f35b61049860048036038101906104939190614095565b61161c565b6040516104a59190614103565b60405180910390f35b6104c860048036038101906104c391906142cf565b6116cd565b6040516104d591906144a8565b60405180910390f35b6104f860048036038101906104f391906142cf565b611764565b60405161050591906142fc565b60405180910390f35b61051661181b565b6040516105239190614103565b60405180910390f35b610534611845565b6040516105419190614103565b60405180910390f35b610564600480360381019061055f91906144ca565b61186b565b60405161057191906142fc565b60405180910390f35b61058261189d565b60405161058f919061403d565b60405180910390f35b6105b260048036038101906105ad9190614095565b61192f565b6040516105c99b9a9998979695949392919061457e565b60405180910390f35b6105da611c53565b6040516105e79190614103565b60405180910390f35b61060a60048036038101906106059190614655565b611c79565b005b610626600480360381019061062191906147ca565b611c8f565b005b610642600480360381019061063d9190614095565b611cf1565b60405161064f919061403d565b60405180910390f35b610672600480360381019061066d9190614357565b611d98565b60405161067f9190613f89565b60405180910390f35b610690611e2c565b60405161069d91906142fc565b60405180910390f35b60007f80ac58cd000000000000000000000000000000000000000000000000000000007bffffffffffffffffffffffffffffffffffffffffffffffffffffffff1916827bffffffffffffffffffffffffffffffffffffffffffffffffffffffff1916148061077157507f5b5e139f000000000000000000000000000000000000000000000000000000007bffffffffffffffffffffffffffffffffffffffffffffffffffffffff1916827bffffffffffffffffffffffffffffffffffffffffffffffffffffffff1916145b80610781575061078082611e39565b5b9050919050565b6060600080546107979061487c565b80601f01602080910402602001604051908101604052809291908181526020018280546107c39061487c565b80156108105780601f106107e557610100808354040283529160200191610810565b820191906000526020600020905b8154815290600101906020018083116107f357829003601f168201915b5050505050905090565b600061082582611ea3565b610864576040517f08c379a000000000000000000000000000000000000000000000000000000000815260040161085b9061491f565b60405180910390fd5b600f6000838152602001908152602001600020600001600c9054906101000a900473ffffffffffffffffffffffffffffffffffffffff169050919050565b60006108ad8261161c565b90508073ffffffffffffffffffffffffffffffffffffffff168373ffffffffffffffffffffffffffffffffffffffff160361091d576040517f08c379a0000000000000000000000000000000000000000000000000000000008152600401610914906149b1565b60405180910390fd5b8073ffffffffffffffffffffffffffffffffffffffff1661093c611f0f565b73ffffffffffffffffffffffffffffffffffffffff16148061096b575061096a81610965611f0f565b611d98565b5b6109aa576040517f08c379a00000000000000000000000000000000000000000000000000000000081526004016109a190614a43565b60405180910390fd5b6109b48383611f17565b505050565b600080856109c73382611fd3565b610a06576040517f08c379a00000000000000000000000000000000000000000000000000000000081526004016109fd90614aaf565b60405180910390fd5b6000600f60008981526020019081526020016000209050868160050154610a2d9190614afe565b8160050181905550858160060154610a459190614afe565b81600601819055506000610a58826120b1565b915050600080610a968460040160009054906101000a900473ffffffffffffffffffffffffffffffffffffffff16848660050154876006015461211b565b91509150816103e86102ee83610aac9190614b32565b610ab69190614bbb565b1015610af7576040517f08c379a0000000000000000000000000000000000000000000000000000000008152600401610aee90614c5e565b60405180910390fd5b610b268460020160009054906101000a900473ffffffffffffffffffffffffffffffffffffffff16898c612214565b610b558460030160009054906101000a900473ffffffffffffffffffffffffffffffffffffffff16898b612214565b610b5e8461239e565b505050505094509492505050565b610b7d610b77611f0f565b82611fd3565b610bbc576040517f08c379a0000000000000000000000000000000000000000000000000000000008152600401610bb390614cf0565b60405180910390fd5b610bc78383836125cf565b505050565b600d60009054906101000a900473ffffffffffffffffffffffffffffffffffffffff1673ffffffffffffffffffffffffffffffffffffffff163373ffffffffffffffffffffffffffffffffffffffff1614610c5c576040517f08c379a0000000000000000000000000000000000000000000000000000000008152600401610c5390614d5c565b60405180910390fd5b80600860008573ffffffffffffffffffffffffffffffffffffffff1673ffffffffffffffffffffffffffffffffffffffff16815260200190815260200160002060008473ffffffffffffffffffffffffffffffffffffffff1673ffffffffffffffffffffffffffffffffffffffff16815260200190815260200160002060006101000a81548173ffffffffffffffffffffffffffffffffffffffff021916908373ffffffffffffffffffffffffffffffffffffffff16021790555080600860008473ffffffffffffffffffffffffffffffffffffffff1673ffffffffffffffffffffffffffffffffffffffff16815260200190815260200160002060008573ffffffffffffffffffffffffffffffffffffffff1673ffffffffffffffffffffffffffffffffffffffff16815260200190815260200160002060006101000a81548173ffffffffffffffffffffffffffffffffffffffff021916908373ffffffffffffffffffffffffffffffffffffffff160217905550600c819080600181540180825580915050600190039060005260206000200160009091909190916101000a81548173ffffffffffffffffffffffffffffffffffffffff021916908373ffffffffffffffffffffffffffffffffffffffff160217905550505050565b600a6020528060005260406000206000915090505481565b81610e5d3382611fd3565b610e9c576040517f08c379a0000000000000000000000000000000000000000000000000000000008152600401610e9390614aaf565b60405180910390fd5b6000600f60008581526020019081526020016000209050600080610f088360020160009054906101000a900473ffffffffffffffffffffffffffffffffffffffff168460030160009054906101000a900473ffffffffffffffffffffffffffffffffffffffff16612835565b91509150818360050154610f1c9190614d7c565b8360050181905550808360060154610f349190614d7c565b83600601819055506000610f50846005015485600601546129cb565b905080861115610f95576040517f08c379a0000000000000000000000000000000000000000000000000000000008152600401610f8c90614e44565b60405180910390fd5b610f9e846129e9565b600080610fdd8660040160009054906101000a900473ffffffffffffffffffffffffffffffffffffffff1687600701548860050154896006015461211b565b9150915081811015611024576040517f08c379a000000000000000000000000000000000000000000000000000000000815260040161101b90614eb0565b60405180910390fd5b600088876007015410611037578861103d565b86600701545b90506110968760020160009054906101000a900473ffffffffffffffffffffffffffffffffffffffff168860010160009054906101000a900473ffffffffffffffffffffffffffffffffffffffff168960050154612214565b6110ed8760030160009054906101000a900473ffffffffffffffffffffffffffffffffffffffff168860010160009054906101000a900473ffffffffffffffffffffffffffffffffffffffff168960060154612214565b8660010160009054906101000a900473ffffffffffffffffffffffffffffffffffffffff1673ffffffffffffffffffffffffffffffffffffffff1663a126d601826040518263ffffffff1660e01b815260040161114a91906142fc565b60408051808303816000875af1158015611168573d6000803e3d6000fd5b505050506040513d601f19601f8201168201806040525081019061118c9190614ee5565b8860050160008a60060160008491905055839190505550508087600701546111b49190614afe565b87600701819055506111c58761239e565b50505050505050505050565b600c81815481106111e157600080fd5b906000526020600020016000915054906101000a900473ffffffffffffffffffffffffffffffffffffffff1681565b6000600f60008381526020019081526020016000209050611230816129e9565b5050565b61124f83838360405180602001604052806000815250611c8f565b505050565b8061125f3382611fd3565b61129e576040517f08c379a000000000000000000000000000000000000000000000000000000000815260040161129590614aaf565b60405180910390fd5b6000600f60008481526020019081526020016000209050600081600501541480156112cd575060008160060154145b80156112dd575060008160070154145b61131c576040517f08c379a000000000000000000000000000000000000000000000000000000000815260040161131390614f71565b60405180910390fd5b600f6000848152602001908152602001600020600080820160006101000a8154906bffffffffffffffffffffffff021916905560008201600c6101000a81549073ffffffffffffffffffffffffffffffffffffffff02191690556001820160006101000a81549073ffffffffffffffffffffffffffffffffffffffff02191690556002820160006101000a81549073ffffffffffffffffffffffffffffffffffffffff02191690556003820160006101000a81549073ffffffffffffffffffffffffffffffffffffffff02191690556004820160006101000a81549073ffffffffffffffffffffffffffffffffffffffff021916905560058201600090556006820160009055600782016000905560088201600090556009820160009055505061144583612a0d565b505050565b6000601060008373ffffffffffffffffffffffffffffffffffffffff1673ffffffffffffffffffffffffffffffffffffffff168152602001908152602001600020549050919050565b60086020528160005260406000206020528060005260406000206000915091509054906101000a900473ffffffffffffffffffffffffffffffffffffffff1681565b6000806000600f6000878152602001908152602001600020905061151f8160020160009054906101000a900473ffffffffffffffffffffffffffffffffffffffff16333088612b2a565b61154f8160030160009054906101000a900473ffffffffffffffffffffffffffffffffffffffff16333087612b2a565b6115a18160020160009054906101000a900473ffffffffffffffffffffffffffffffffffffffff168260030160009054906101000a900473ffffffffffffffffffffffffffffffffffffffff16612835565b80935081945050508281600501546115b99190614d7c565b81600501819055508181600601546115d19190614d7c565b81600601819055506115e28161239e565b50935093915050565b6009602052816000526040600020818154811061160757600080fd5b90600052602060002001600091509150505481565b6000806002600084815260200190815260200160002060009054906101000a900473ffffffffffffffffffffffffffffffffffffffff169050600073ffffffffffffffffffffffffffffffffffffffff168173ffffffffffffffffffffffffffffffffffffffff16036116c4576040517f08c379a00000000000000000000000000000000000000000000000000000000081526004016116bb90615003565b60405180910390fd5b80915050919050565b6060600960008373ffffffffffffffffffffffffffffffffffffffff1673ffffffffffffffffffffffffffffffffffffffff16815260200190815260200160002080548060200260200160405190810160405280929190818152602001828054801561175857602002820191906000526020600020905b815481526020019060010190808311611744575b50505050509050919050565b60008073ffffffffffffffffffffffffffffffffffffffff168273ffffffffffffffffffffffffffffffffffffffff16036117d4576040517f08c379a00000000000000000000000000000000000000000000000000000000081526004016117cb90615095565b60405180910390fd5b600360008373ffffffffffffffffffffffffffffffffffffffff1673ffffffffffffffffffffffffffffffffffffffff168152602001908152602001600020549050919050565b6000600d60009054906101000a900473ffffffffffffffffffffffffffffffffffffffff16905090565b600d60009054906101000a900473ffffffffffffffffffffffffffffffffffffffff1681565b600061187987333088612b2a565b61188586333087612b2a565b61189187878585612c63565b90509695505050505050565b6060600180546118ac9061487c565b80601f01602080910402602001604051908101604052809291908181526020018280546118d89061487c565b80156119255780601f106118fa57610100808354040283529160200191611925565b820191906000526020600020905b81548152906001019060200180831161190857829003601f168201915b5050505050905090565b600080600080600080600080600080600080600f60008e8152602001908152602001600020604051806101600160405290816000820160009054906101000a90046bffffffffffffffffffffffff166bffffffffffffffffffffffff166bffffffffffffffffffffffff16815260200160008201600c9054906101000a900473ffffffffffffffffffffffffffffffffffffffff1673ffffffffffffffffffffffffffffffffffffffff1673ffffffffffffffffffffffffffffffffffffffff1681526020016001820160009054906101000a900473ffffffffffffffffffffffffffffffffffffffff1673ffffffffffffffffffffffffffffffffffffffff1673ffffffffffffffffffffffffffffffffffffffff1681526020016002820160009054906101000a900473ffffffffffffffffffffffffffffffffffffffff1673ffffffffffffffffffffffffffffffffffffffff1673ffffffffffffffffffffffffffffffffffffffff1681526020016003820160009054906101000a900473ffffffffffffffffffffffffffffffffffffffff1673ffffffffffffffffffffffffffffffffffffffff1673ffffffffffffffffffffffffffffffffffffffff1681526020016004820160009054906101000a900473ffffffffffffffffffffffffffffffffffffffff1673ffffffffffffffffffffffffffffffffffffffff1673ffffffffffffffffffffffffffffffffffffffff168152602001600582015481526020016006820154815260200160078201548152602001600882015481526020016009820154815250509050600073ffffffffffffffffffffffffffffffffffffffff168160a0015173ffffffffffffffffffffffffffffffffffffffff1603611bf3576040517f08c379a0000000000000000000000000000000000000000000000000000000008152600401611bea90615127565b60405180910390fd5b806000015181602001518260400151836060015184608001518560c001518660e001518760a001518861010001518961012001518a61014001519b509b509b509b509b509b509b509b509b509b509b505091939597999b90929496989a50565b600b60009054906101000a900473ffffffffffffffffffffffffffffffffffffffff1681565b611c8b611c84611f0f565b83836132b7565b5050565b611ca0611c9a611f0f565b83611fd3565b611cdf576040517f08c379a0000000000000000000000000000000000000000000000000000000008152600401611cd690614cf0565b60405180910390fd5b611ceb84848484613423565b50505050565b6060611cfc82611ea3565b611d3b576040517f08c379a0000000000000000000000000000000000000000000000000000000008152600401611d32906151b9565b60405180910390fd5b6000611d4561347f565b90506000815111611d655760405180602001604052806000815250611d90565b80611d6f84613496565b604051602001611d80929190615215565b6040516020818303038152906040525b915050919050565b6000600560008473ffffffffffffffffffffffffffffffffffffffff1673ffffffffffffffffffffffffffffffffffffffff16815260200190815260200160002060008373ffffffffffffffffffffffffffffffffffffffff1673ffffffffffffffffffffffffffffffffffffffff16815260200190815260200160002060009054906101000a900460ff16905092915050565b6000600c80549050905090565b60007f01ffc9a7000000000000000000000000000000000000000000000000000000007bffffffffffffffffffffffffffffffffffffffffffffffffffffffff1916827bffffffffffffffffffffffffffffffffffffffffffffffffffffffff1916149050919050565b60008073ffffffffffffffffffffffffffffffffffffffff166002600084815260200190815260200160002060009054906101000a900473ffffffffffffffffffffffffffffffffffffffff1673ffffffffffffffffffffffffffffffffffffffff1614159050919050565b600033905090565b81600f6000838152602001908152602001600020600001600c6101000a81548173ffffffffffffffffffffffffffffffffffffffff021916908373ffffffffffffffffffffffffffffffffffffffff160217905550808273ffffffffffffffffffffffffffffffffffffffff16611f8d8361161c565b73ffffffffffffffffffffffffffffffffffffffff167f8c5be1e5ebec7d5bd14f71427d1e84f3dd0314c0f7b2291e5b200ac8c7c3b92560405160405180910390a45050565b6000611fde82611ea3565b61201d576040517f08c379a0000000000000000000000000000000000000000000000000000000008152600401612014906152ab565b60405180910390fd5b60006120288361161c565b90508073ffffffffffffffffffffffffffffffffffffffff168473ffffffffffffffffffffffffffffffffffffffff16148061206a57506120698185611d98565b5b806120a857508373ffffffffffffffffffffffffffffffffffffffff166120908461081a565b73ffffffffffffffffffffffffffffffffffffffff16145b91505092915050565b60008060006120e88460010160009054906101000a900473ffffffffffffffffffffffffffffffffffffffff1685600801546135f6565b8092508194505050670de0b6b3a76400008185600701546121099190614b32565b6121139190614bbb565b915050915091565b6000806000808773ffffffffffffffffffffffffffffffffffffffff16630902f1ac6040518163ffffffff1660e01b8152600401606060405180830381865afa15801561216c573d6000803e3d6000fd5b505050506040513d601f19601f82011682018060405250810190612190919061534d565b506dffffffffffffffffffffffffffff1691506dffffffffffffffffffffffffffff169150600082670de0b6b3a7640000836121cc9190614b32565b6121d69190614bbb565b90506121e2888261369a565b94508282886121f19190614b32565b6121fb9190614bbb565b866122069190614d7c565b935050505094509492505050565b6000808473ffffffffffffffffffffffffffffffffffffffff166040518060400160405280601981526020017f7472616e7366657228616464726573732c75696e74323536290000000000000081525080519060200120858560405160240161227e9291906153a0565b604051602081830303815290604052907bffffffffffffffffffffffffffffffffffffffffffffffffffffffff19166020820180517bffffffffffffffffffffffffffffffffffffffffffffffffffffffff83818316178352505050506040516122e89190615410565b6000604051808303816000865af19150503d8060008114612325576040519150601f19603f3d011682016040523d82523d6000602084013e61232a565b606091505b50915091508180156123585750600081511480612357575080806020019051810190612356919061543c565b5b5b612397576040517f08c379a000000000000000000000000000000000000000000000000000000000815260040161238e906154b5565b60405180910390fd5b5050505050565b6123f18160020160009054906101000a900473ffffffffffffffffffffffffffffffffffffffff168260030160009054906101000a900473ffffffffffffffffffffffffffffffffffffffff16306136d7565b601060008460020160009054906101000a900473ffffffffffffffffffffffffffffffffffffffff1673ffffffffffffffffffffffffffffffffffffffff1673ffffffffffffffffffffffffffffffffffffffff1681526020019081526020016000206000601060008660030160009054906101000a900473ffffffffffffffffffffffffffffffffffffffff1673ffffffffffffffffffffffffffffffffffffffff1673ffffffffffffffffffffffffffffffffffffffff16815260200190815260200160002060008491905055839190505550508060040160009054906101000a900473ffffffffffffffffffffffffffffffffffffffff1673ffffffffffffffffffffffffffffffffffffffff166370a08231306040518263ffffffff1660e01b81526004016125249190614103565b602060405180830381865afa158015612541573d6000803e3d6000fd5b505050506040513d601f19601f8201168201806040525081019061256591906154d5565b601060008360040160009054906101000a900473ffffffffffffffffffffffffffffffffffffffff1673ffffffffffffffffffffffffffffffffffffffff1673ffffffffffffffffffffffffffffffffffffffff1681526020019081526020016000208190555050565b8273ffffffffffffffffffffffffffffffffffffffff166125ef8261161c565b73ffffffffffffffffffffffffffffffffffffffff1614612645576040517f08c379a000000000000000000000000000000000000000000000000000000000815260040161263c90615574565b60405180910390fd5b600073ffffffffffffffffffffffffffffffffffffffff168273ffffffffffffffffffffffffffffffffffffffff16036126b4576040517f08c379a00000000000000000000000000000000000000000000000000000000081526004016126ab90615606565b60405180910390fd5b6126bf8383836137da565b6126ca600082611f17565b6001600360008573ffffffffffffffffffffffffffffffffffffffff1673ffffffffffffffffffffffffffffffffffffffff168152602001908152602001600020600082825461271a9190614afe565b925050819055506001600360008473ffffffffffffffffffffffffffffffffffffffff1673ffffffffffffffffffffffffffffffffffffffff16815260200190815260200160002060008282546127719190614d7c565b92505081905550816002600083815260200190815260200160002060006101000a81548173ffffffffffffffffffffffffffffffffffffffff021916908373ffffffffffffffffffffffffffffffffffffffff160217905550808273ffffffffffffffffffffffffffffffffffffffff168473ffffffffffffffffffffffffffffffffffffffff167fddf252ad1be2c89b69c2b068fc378daa952ba7f163c4a11628f55a4df523b3ef60405160405180910390a46128308383836137df565b505050565b600080601060008573ffffffffffffffffffffffffffffffffffffffff1673ffffffffffffffffffffffffffffffffffffffff168152602001908152602001600020548473ffffffffffffffffffffffffffffffffffffffff166370a08231306040518263ffffffff1660e01b81526004016128b19190614103565b602060405180830381865afa1580156128ce573d6000803e3d6000fd5b505050506040513d601f19601f820116820180604052508101906128f291906154d5565b6128fc9190614afe565b9150601060008473ffffffffffffffffffffffffffffffffffffffff1673ffffffffffffffffffffffffffffffffffffffff168152602001908152602001600020548373ffffffffffffffffffffffffffffffffffffffff166370a08231306040518263ffffffff1660e01b81526004016129779190614103565b602060405180830381865afa158015612994573d6000803e3d6000fd5b505050506040513d601f19601f820116820180604052508101906129b891906154d5565b6129c29190614afe565b90509250929050565b60006129e182846129dc9190614b32565b6137e4565b905092915050565b6129f2816120b1565b82600801600084600701600084919050558391905055505050565b6000612a188261161c565b9050612a26816000846137da565b612a31600083611f17565b6001600360008373ffffffffffffffffffffffffffffffffffffffff1673ffffffffffffffffffffffffffffffffffffffff1681526020019081526020016000206000828254612a819190614afe565b925050819055506002600083815260200190815260200160002060006101000a81549073ffffffffffffffffffffffffffffffffffffffff021916905581600073ffffffffffffffffffffffffffffffffffffffff168273ffffffffffffffffffffffffffffffffffffffff167fddf252ad1be2c89b69c2b068fc378daa952ba7f163c4a11628f55a4df523b3ef60405160405180910390a4612b26816000846137df565b5050565b6000808573ffffffffffffffffffffffffffffffffffffffff166323b872dd868686604051602401612b5e93929190615626565b6040516020818303038152906040529060e01b6020820180517bffffffffffffffffffffffffffffffffffffffffffffffffffffffff8381831617835250505050604051612bac9190615410565b6000604051808303816000865af19150503d8060008114612be9576040519150601f19603f3d011682016040523d82523d6000602084013e612bee565b606091505b5091509150818015612c1c5750600081511480612c1b575080806020019051810190612c1a919061543c565b5b5b612c5b576040517f08c379a0000000000000000000000000000000000000000000000000000000008152600401612c52906156cf565b60405180910390fd5b505050505050565b6000806000612c72878761385e565b915091506000600860008473ffffffffffffffffffffffffffffffffffffffff1673ffffffffffffffffffffffffffffffffffffffff16815260200190815260200160002060008373ffffffffffffffffffffffffffffffffffffffff1673ffffffffffffffffffffffffffffffffffffffff16815260200190815260200160002060009054906101000a900473ffffffffffffffffffffffffffffffffffffffff169050600073ffffffffffffffffffffffffffffffffffffffff168173ffffffffffffffffffffffffffffffffffffffff1603612d86576040517f08c379a0000000000000000000000000000000000000000000000000000000008152600401612d7d9061573b565b60405180910390fd5b60008173ffffffffffffffffffffffffffffffffffffffff166348c8ec726040518163ffffffff1660e01b8152600401602060405180830381865afa158015612dd3573d6000803e3d6000fd5b505050506040513d601f19601f82011682018060405250810190612df79190615770565b9050600080612e068686612835565b9150915060008473ffffffffffffffffffffffffffffffffffffffff16631d6f0ce26040518163ffffffff1660e01b81526004016020604051808303816000875af1158015612e59573d6000803e3d6000fd5b505050506040513d601f19601f82011682018060405250810190612e7d91906154d5565b90506000808673ffffffffffffffffffffffffffffffffffffffff166399ff82038d6040518263ffffffff1660e01b8152600401612ebb91906142fc565b60408051808303816000875af1158015612ed9573d6000803e3d6000fd5b505050506040513d601f19601f82011682018060405250810190612efd9190614ee5565b915091506000612f0d83836129cb565b9050612fa98c6007600081819054906101000a900475ffffffffffffffffffffffffffffffffffffffffffff1680929190612f47906157bf565b91906101000a81548175ffffffffffffffffffffffffffffffffffffffffffff021916908375ffffffffffffffffffffffffffffffffffffffffffff16021790555075ffffffffffffffffffffffffffffffffffffffffffff169c508c61398a565b60405180610160016040528060006bffffffffffffffffffffffff168152602001600073ffffffffffffffffffffffffffffffffffffffff1681526020018973ffffffffffffffffffffffffffffffffffffffff1681526020018b73ffffffffffffffffffffffffffffffffffffffff1681526020018a73ffffffffffffffffffffffffffffffffffffffff1681526020018873ffffffffffffffffffffffffffffffffffffffff16815260200187856130639190614d7c565b815260200186846130749190614d7c565b815260200182815260200185815260200143815250600f60008d815260200190815260200160002060008201518160000160006101000a8154816bffffffffffffffffffffffff02191690836bffffffffffffffffffffffff160217905550602082015181600001600c6101000a81548173ffffffffffffffffffffffffffffffffffffffff021916908373ffffffffffffffffffffffffffffffffffffffff16021790555060408201518160010160006101000a81548173ffffffffffffffffffffffffffffffffffffffff021916908373ffffffffffffffffffffffffffffffffffffffff16021790555060608201518160020160006101000a81548173ffffffffffffffffffffffffffffffffffffffff021916908373ffffffffffffffffffffffffffffffffffffffff16021790555060808201518160030160006101000a81548173ffffffffffffffffffffffffffffffffffffffff021916908373ffffffffffffffffffffffffffffffffffffffff16021790555060a08201518160040160006101000a81548173ffffffffffffffffffffffffffffffffffffffff021916908373ffffffffffffffffffffffffffffffffffffffff16021790555060c0820151816005015560e082015181600601556101008201518160070155610120820151816008015561014082015181600901559050506000600f60008d81526020019081526020016000209050613291816102ee613b63565b61329a8161239e565b6132a48d8d613c16565b5050505050505050505050949350505050565b8173ffffffffffffffffffffffffffffffffffffffff168373ffffffffffffffffffffffffffffffffffffffff1603613325576040517f08c379a000000000000000000000000000000000000000000000000000000000815260040161331c90615849565b60405180910390fd5b80600560008573ffffffffffffffffffffffffffffffffffffffff1673ffffffffffffffffffffffffffffffffffffffff16815260200190815260200160002060008473ffffffffffffffffffffffffffffffffffffffff1673ffffffffffffffffffffffffffffffffffffffff16815260200190815260200160002060006101000a81548160ff0219169083151502179055508173ffffffffffffffffffffffffffffffffffffffff168373ffffffffffffffffffffffffffffffffffffffff167f17307eab39ab6107e8899845ad3d59bd9653f200f220920489ca2b5937696c31836040516134169190613f89565b60405180910390a3505050565b61342e8484846125cf565b61343a84848484613d06565b613479576040517f08c379a0000000000000000000000000000000000000000000000000000000008152600401613470906158db565b60405180910390fd5b50505050565b606060405180602001604052806000815250905090565b6060600082036134dd576040518060400160405280600181526020017f300000000000000000000000000000000000000000000000000000000000000081525090506135f1565b600082905060005b6000821461350f5780806134f8906158fb565b915050600a826135089190614bbb565b91506134e5565b60008167ffffffffffffffff81111561352b5761352a61469f565b5b6040519080825280601f01601f19166020018201604052801561355d5781602001600182028036833780820191505090505b5090505b600085146135ea576001826135769190614afe565b9150600a856135859190615943565b60306135919190614d7c565b60f81b8183815181106135a7576135a6615974565b5b60200101907effffffffffffffffffffffffffffffffffffffffffffffffffffffffffffff1916908160001a905350600a856135e39190614bbb565b9450613561565b8093505050505b919050565b6000808373ffffffffffffffffffffffffffffffffffffffff1663412ba55f6040518163ffffffff1660e01b8152600401608060405180830381865afa158015613644573d6000803e3d6000fd5b505050506040513d601f19601f8201168201806040525081019061366891906159a3565b9091509050508092505082670de0b6b3a7640000836136879190614b32565b6136919190614bbb565b90509250929050565b60006002670de0b6b3a76400006136b084613e8d565b856136bb9190614b32565b6136c59190614bbb565b6136cf9190614b32565b905092915050565b6000808473ffffffffffffffffffffffffffffffffffffffff166370a08231846040518263ffffffff1660e01b81526004016137139190614103565b602060405180830381865afa158015613730573d6000803e3d6000fd5b505050506040513d601f19601f8201168201806040525081019061375491906154d5565b91508373ffffffffffffffffffffffffffffffffffffffff166370a08231846040518263ffffffff1660e01b815260040161378f9190614103565b602060405180830381865afa1580156137ac573d6000803e3d6000fd5b505050506040513d601f19601f820116820180604052508101906137d091906154d5565b9050935093915050565b505050565b505050565b6000600382111561384b57819050600060016002846138039190614bbb565b61380d9190614d7c565b90505b8181101561384557809150600281828561382a9190614bbb565b6138349190614d7c565b61383e9190614bbb565b9050613810565b50613859565b6000821461385857600190505b5b919050565b6000808273ffffffffffffffffffffffffffffffffffffffff168473ffffffffffffffffffffffffffffffffffffffff16036138cf576040517f08c379a00000000000000000000000000000000000000000000000000000000081526004016138c690615a7c565b60405180910390fd5b8273ffffffffffffffffffffffffffffffffffffffff168473ffffffffffffffffffffffffffffffffffffffff161061390957828461390c565b83835b8092508193505050600073ffffffffffffffffffffffffffffffffffffffff168273ffffffffffffffffffffffffffffffffffffffff1603613983576040517f08c379a000000000000000000000000000000000000000000000000000000000815260040161397a90615b0e565b60405180910390fd5b9250929050565b600073ffffffffffffffffffffffffffffffffffffffff168273ffffffffffffffffffffffffffffffffffffffff16036139f9576040517f08c379a00000000000000000000000000000000000000000000000000000000081526004016139f090615b7a565b60405180910390fd5b613a0281611ea3565b15613a42576040517f08c379a0000000000000000000000000000000000000000000000000000000008152600401613a3990615be6565b60405180910390fd5b613a4e600083836137da565b6001600360008473ffffffffffffffffffffffffffffffffffffffff1673ffffffffffffffffffffffffffffffffffffffff1681526020019081526020016000206000828254613a9e9190614d7c565b92505081905550816002600083815260200190815260200160002060006101000a81548173ffffffffffffffffffffffffffffffffffffffff021916908373ffffffffffffffffffffffffffffffffffffffff160217905550808273ffffffffffffffffffffffffffffffffffffffff16600073ffffffffffffffffffffffffffffffffffffffff167fddf252ad1be2c89b69c2b068fc378daa952ba7f163c4a11628f55a4df523b3ef60405160405180910390a4613b5f600083836137df565b5050565b6000613b6e836120b1565b915050600080613bac8560040160009054906101000a900473ffffffffffffffffffffffffffffffffffffffff16848760050154886006015461211b565b91509150816103e88561ffff1683613bc49190614b32565b613bce9190614bbb565b1015613c0f576040517f08c379a0000000000000000000000000000000000000000000000000000000008152600401613c0690615c78565b60405180910390fd5b5050505050565b600960008373ffffffffffffffffffffffffffffffffffffffff1673ffffffffffffffffffffffffffffffffffffffff168152602001908152602001600020819080600181540180825580915050600190039060005260206000200160009091909190915055600960008373ffffffffffffffffffffffffffffffffffffffff1673ffffffffffffffffffffffffffffffffffffffff16815260200190815260200160002080549050600a60008473ffffffffffffffffffffffffffffffffffffffff1673ffffffffffffffffffffffffffffffffffffffff168152602001908152602001600020819055505050565b6000613d278473ffffffffffffffffffffffffffffffffffffffff16613eb2565b15613e80578373ffffffffffffffffffffffffffffffffffffffff1663150b7a02613d50611f0f565b8786866040518563ffffffff1660e01b8152600401613d729493929190615ce2565b6020604051808303816000875af1925050508015613dae57506040513d601f19601f82011682018060405250810190613dab9190615d43565b60015b613e30573d8060008114613dde576040519150601f19603f3d011682016040523d82523d6000602084013e613de3565b606091505b506000815103613e28576040517f08c379a0000000000000000000000000000000000000000000000000000000008152600401613e1f906158db565b60405180910390fd5b805181602001fd5b63150b7a0260e01b7bffffffffffffffffffffffffffffffffffffffffffffffffffffffff1916817bffffffffffffffffffffffffffffffffffffffffffffffffffffffff191614915050613e85565b600190505b949350505050565b6000613eab670de0b6b3a764000083613ea69190614b32565b6137e4565b9050919050565b6000808273ffffffffffffffffffffffffffffffffffffffff163b119050919050565b6000604051905090565b600080fd5b600080fd5b60007fffffffff0000000000000000000000000000000000000000000000000000000082169050919050565b613f1e81613ee9565b8114613f2957600080fd5b50565b600081359050613f3b81613f15565b92915050565b600060208284031215613f5757613f56613edf565b5b6000613f6584828501613f2c565b91505092915050565b60008115159050919050565b613f8381613f6e565b82525050565b6000602082019050613f9e6000830184613f7a565b92915050565b600081519050919050565b600082825260208201905092915050565b60005b83811015613fde578082015181840152602081019050613fc3565b83811115613fed576000848401525b50505050565b6000601f19601f8301169050919050565b600061400f82613fa4565b6140198185613faf565b9350614029818560208601613fc0565b61403281613ff3565b840191505092915050565b600060208201905081810360008301526140578184614004565b905092915050565b6000819050919050565b6140728161405f565b811461407d57600080fd5b50565b60008135905061408f81614069565b92915050565b6000602082840312156140ab576140aa613edf565b5b60006140b984828501614080565b91505092915050565b600073ffffffffffffffffffffffffffffffffffffffff82169050919050565b60006140ed826140c2565b9050919050565b6140fd816140e2565b82525050565b600060208201905061411860008301846140f4565b92915050565b614127816140e2565b811461413257600080fd5b50565b6000813590506141448161411e565b92915050565b6000806040838503121561416157614160613edf565b5b600061416f85828601614135565b925050602061418085828601614080565b9150509250929050565b600080600080608085870312156141a4576141a3613edf565b5b60006141b287828801614080565b94505060206141c387828801614080565b93505060406141d487828801614080565b92505060606141e587828801614135565b91505092959194509250565b6141fa8161405f565b82525050565b600060408201905061421560008301856141f1565b61422260208301846141f1565b9392505050565b60008060006060848603121561424257614241613edf565b5b600061425086828701614135565b935050602061426186828701614135565b925050604061427286828701614080565b9150509250925092565b60008060006060848603121561429557614294613edf565b5b60006142a386828701614135565b93505060206142b486828701614135565b92505060406142c586828701614135565b9150509250925092565b6000602082840312156142e5576142e4613edf565b5b60006142f384828501614135565b91505092915050565b600060208201905061431160008301846141f1565b92915050565b6000806040838503121561432e5761432d613edf565b5b600061433c85828601614080565b925050602061434d85828601614080565b9150509250929050565b6000806040838503121561436e5761436d613edf565b5b600061437c85828601614135565b925050602061438d85828601614135565b9150509250929050565b6000806000606084860312156143b0576143af613edf565b5b60006143be86828701614080565b93505060206143cf86828701614080565b92505060406143e086828701614080565b9150509250925092565b600081519050919050565b600082825260208201905092915050565b6000819050602082019050919050565b61441f8161405f565b82525050565b60006144318383614416565b60208301905092915050565b6000602082019050919050565b6000614455826143ea565b61445f81856143f5565b935061446a83614406565b8060005b8381101561449b5781516144828882614425565b975061448d8361443d565b92505060018101905061446e565b5085935050505092915050565b600060208201905081810360008301526144c2818461444a565b905092915050565b60008060008060008060c087890312156144e7576144e6613edf565b5b60006144f589828a01614135565b965050602061450689828a01614135565b955050604061451789828a01614080565b945050606061452889828a01614080565b935050608061453989828a01614080565b92505060a061454a89828a01614135565b9150509295509295509295565b60006bffffffffffffffffffffffff82169050919050565b61457881614557565b82525050565b600061016082019050614594600083018e61456f565b6145a1602083018d6140f4565b6145ae604083018c6140f4565b6145bb606083018b6140f4565b6145c8608083018a6140f4565b6145d560a08301896141f1565b6145e260c08301886141f1565b6145ef60e08301876140f4565b6145fd6101008301866141f1565b61460b6101208301856141f1565b6146196101408301846141f1565b9c9b505050505050505050505050565b61463281613f6e565b811461463d57600080fd5b50565b60008135905061464f81614629565b92915050565b6000806040838503121561466c5761466b613edf565b5b600061467a85828601614135565b925050602061468b85828601614640565b9150509250929050565b600080fd5b600080fd5b7f4e487b7100000000000000000000000000000000000000000000000000000000600052604160045260246000fd5b6146d782613ff3565b810181811067ffffffffffffffff821117156146f6576146f561469f565b5b80604052505050565b6000614709613ed5565b905061471582826146ce565b919050565b600067ffffffffffffffff8211156147355761473461469f565b5b61473e82613ff3565b9050602081019050919050565b82818337600083830152505050565b600061476d6147688461471a565b6146ff565b9050828152602081018484840111156147895761478861469a565b5b61479484828561474b565b509392505050565b600082601f8301126147b1576147b0614695565b5b81356147c184826020860161475a565b91505092915050565b600080600080608085870312156147e4576147e3613edf565b5b60006147f287828801614135565b945050602061480387828801614135565b935050604061481487828801614080565b925050606085013567ffffffffffffffff81111561483557614834613ee4565b5b6148418782880161479c565b91505092959194509250565b7f4e487b7100000000000000000000000000000000000000000000000000000000600052602260045260246000fd5b6000600282049050600182168061489457607f821691505b6020821081036148a7576148a661484d565b5b50919050565b7f4552433732313a20617070726f76656420717565727920666f72206e6f6e657860008201527f697374656e7420746f6b656e0000000000000000000000000000000000000000602082015250565b6000614909602c83613faf565b9150614914826148ad565b604082019050919050565b60006020820190508181036000830152614938816148fc565b9050919050565b7f4552433732313a20617070726f76616c20746f2063757272656e74206f776e6560008201527f7200000000000000000000000000000000000000000000000000000000000000602082015250565b600061499b602183613faf565b91506149a68261493f565b604082019050919050565b600060208201905081810360008301526149ca8161498e565b9050919050565b7f4552433732313a20617070726f76652063616c6c6572206973206e6f74206f7760008201527f6e6572206e6f7220617070726f76656420666f7220616c6c0000000000000000602082015250565b6000614a2d603883613faf565b9150614a38826149d1565b604082019050919050565b60006020820190508181036000830152614a5c81614a20565b9050919050565b7f506f736974696f6e4d616e616765723a204e4f545f415554484f52495a454400600082015250565b6000614a99601f83613faf565b9150614aa482614a63565b602082019050919050565b60006020820190508181036000830152614ac881614a8c565b9050919050565b7f4e487b7100000000000000000000000000000000000000000000000000000000600052601160045260246000fd5b6000614b098261405f565b9150614b148361405f565b925082821015614b2757614b26614acf565b5b828203905092915050565b6000614b3d8261405f565b9150614b488361405f565b9250817fffffffffffffffffffffffffffffffffffffffffffffffffffffffffffffffff0483118215151615614b8157614b80614acf565b5b828202905092915050565b7f4e487b7100000000000000000000000000000000000000000000000000000000600052601260045260246000fd5b6000614bc68261405f565b9150614bd18361405f565b925082614be157614be0614b8c565b5b828204905092915050565b7f506f736974696f6e4d616e616765723a204558434553534956455f434f4c4c4160008201527f544552414c5f52454d4f56414c00000000000000000000000000000000000000602082015250565b6000614c48602d83613faf565b9150614c5382614bec565b604082019050919050565b60006020820190508181036000830152614c7781614c3b565b9050919050565b7f4552433732313a207472616e736665722063616c6c6572206973206e6f74206f60008201527f776e6572206e6f7220617070726f766564000000000000000000000000000000602082015250565b6000614cda603183613faf565b9150614ce582614c7e565b604082019050919050565b60006020820190508181036000830152614d0981614ccd565b9050919050565b7f506f736974696f6e4d616e616765723a20464f5242494444454e000000000000600082015250565b6000614d46601a83613faf565b9150614d5182614d10565b602082019050919050565b60006020820190508181036000830152614d7581614d39565b9050919050565b6000614d878261405f565b9150614d928361405f565b9250827fffffffffffffffffffffffffffffffffffffffffffffffffffffffffffffffff03821115614dc757614dc6614acf565b5b828201905092915050565b7f506f736974696f6e4d616e616765723a204e4f545f454e4f5547485f4c49515560008201527f49444954595f50524f5649444544000000000000000000000000000000000000602082015250565b6000614e2e602e83613faf565b9150614e3982614dd2565b604082019050919050565b60006020820190508181036000830152614e5d81614e21565b9050919050565b7f506f736974696f6e4d616e616765723a2049535f554e44455257415445520000600082015250565b6000614e9a601e83613faf565b9150614ea582614e64565b602082019050919050565b60006020820190508181036000830152614ec981614e8d565b9050919050565b600081519050614edf81614069565b92915050565b60008060408385031215614efc57614efb613edf565b5b6000614f0a85828601614ed0565b9250506020614f1b85828601614ed0565b9150509250929050565b7f506f736974696f6e4d616e616765723a204e4f545f434c454152454400000000600082015250565b6000614f5b601c83613faf565b9150614f6682614f25565b602082019050919050565b60006020820190508181036000830152614f8a81614f4e565b9050919050565b7f4552433732313a206f776e657220717565727920666f72206e6f6e657869737460008201527f656e7420746f6b656e0000000000000000000000000000000000000000000000602082015250565b6000614fed602983613faf565b9150614ff882614f91565b604082019050919050565b6000602082019050818103600083015261501c81614fe0565b9050919050565b7f4552433732313a2062616c616e636520717565727920666f7220746865207a6560008201527f726f206164647265737300000000000000000000000000000000000000000000602082015250565b600061507f602a83613faf565b915061508a82615023565b604082019050919050565b600060208201905081810360008301526150ae81615072565b9050919050565b7f506f736974696f6e4d616e616765723a20494e56414c49445f544f4b454e5f4960008201527f4400000000000000000000000000000000000000000000000000000000000000602082015250565b6000615111602183613faf565b915061511c826150b5565b604082019050919050565b6000602082019050818103600083015261514081615104565b9050919050565b7f4552433732314d657461646174613a2055524920717565727920666f72206e6f60008201527f6e6578697374656e7420746f6b656e0000000000000000000000000000000000602082015250565b60006151a3602f83613faf565b91506151ae82615147565b604082019050919050565b600060208201905081810360008301526151d281615196565b9050919050565b600081905092915050565b60006151ef82613fa4565b6151f981856151d9565b9350615209818560208601613fc0565b80840191505092915050565b600061522182856151e4565b915061522d82846151e4565b91508190509392505050565b7f4552433732313a206f70657261746f7220717565727920666f72206e6f6e657860008201527f697374656e7420746f6b656e0000000000000000000000000000000000000000602082015250565b6000615295602c83613faf565b91506152a082615239565b604082019050919050565b600060208201905081810360008301526152c481615288565b9050919050565b60006dffffffffffffffffffffffffffff82169050919050565b6152ee816152cb565b81146152f957600080fd5b50565b60008151905061530b816152e5565b92915050565b600063ffffffff82169050919050565b61532a81615311565b811461533557600080fd5b50565b60008151905061534781615321565b92915050565b60008060006060848603121561536657615365613edf565b5b6000615374868287016152fc565b9350506020615385868287016152fc565b925050604061539686828701615338565b9150509250925092565b60006040820190506153b560008301856140f4565b6153c260208301846141f1565b9392505050565b600081519050919050565b600081905092915050565b60006153ea826153c9565b6153f481856153d4565b9350615404818560208601613fc0565b80840191505092915050565b600061541c82846153df565b915081905092915050565b60008151905061543681614629565b92915050565b60006020828403121561545257615451613edf565b5b600061546084828501615427565b91505092915050565b7f4465706f736974506f6f6c3a205452414e534645525f4641494c454400000000600082015250565b600061549f601c83613faf565b91506154aa82615469565b602082019050919050565b600060208201905081810360008301526154ce81615492565b9050919050565b6000602082840312156154eb576154ea613edf565b5b60006154f984828501614ed0565b91505092915050565b7f4552433732313a207472616e736665722066726f6d20696e636f72726563742060008201527f6f776e6572000000000000000000000000000000000000000000000000000000602082015250565b600061555e602583613faf565b915061556982615502565b604082019050919050565b6000602082019050818103600083015261558d81615551565b9050919050565b7f4552433732313a207472616e7366657220746f20746865207a65726f2061646460008201527f7265737300000000000000000000000000000000000000000000000000000000602082015250565b60006155f0602483613faf565b91506155fb82615594565b604082019050919050565b6000602082019050818103600083015261561f816155e3565b9050919050565b600060608201905061563b60008301866140f4565b61564860208301856140f4565b61565560408301846141f1565b949350505050565b7f5472616e7366657248656c7065723a205452414e534645525f46524f4d5f464160008201527f494c454400000000000000000000000000000000000000000000000000000000602082015250565b60006156b9602483613faf565b91506156c48261565d565b604082019050919050565b600060208201905081810360008301526156e8816156ac565b9050919050565b7f506f736974696f6e4d616e616765723a20504f4f4c5f4e4f545f464f554e4400600082015250565b6000615725601f83613faf565b9150615730826156ef565b602082019050919050565b6000602082019050818103600083015261575481615718565b9050919050565b60008151905061576a8161411e565b92915050565b60006020828403121561578657615785613edf565b5b60006157948482850161575b565b91505092915050565b600075ffffffffffffffffffffffffffffffffffffffffffff82169050919050565b60006157ca8261579d565b915075ffffffffffffffffffffffffffffffffffffffffffff82036157f2576157f1614acf565b5b600182019050919050565b7f4552433732313a20617070726f766520746f2063616c6c657200000000000000600082015250565b6000615833601983613faf565b915061583e826157fd565b602082019050919050565b6000602082019050818103600083015261586281615826565b9050919050565b7f4552433732313a207472616e7366657220746f206e6f6e20455243373231526560008201527f63656976657220696d706c656d656e7465720000000000000000000000000000602082015250565b60006158c5603283613faf565b91506158d082615869565b604082019050919050565b600060208201905081810360008301526158f4816158b8565b9050919050565b60006159068261405f565b91507fffffffffffffffffffffffffffffffffffffffffffffffffffffffffffffffff820361593857615937614acf565b5b600182019050919050565b600061594e8261405f565b91506159598361405f565b92508261596957615968614b8c565b5b828206905092915050565b7f4e487b7100000000000000000000000000000000000000000000000000000000600052603260045260246000fd5b600080600080608085870312156159bd576159bc613edf565b5b60006159cb87828801614ed0565b94505060206159dc87828801614ed0565b93505060406159ed87828801614ed0565b92505060606159fe87828801614ed0565b91505092959194509250565b7f47616d6d6173776170506f734c6962726172793a204944454e544943414c5f4160008201527f4444524553534553000000000000000000000000000000000000000000000000602082015250565b6000615a66602883613faf565b9150615a7182615a0a565b604082019050919050565b60006020820190508181036000830152615a9581615a59565b9050919050565b7f47616d6d6173776170506f734c6962726172793a205a45524f5f41444452455360008201527f5300000000000000000000000000000000000000000000000000000000000000602082015250565b6000615af8602183613faf565b9150615b0382615a9c565b604082019050919050565b60006020820190508181036000830152615b2781615aeb565b9050919050565b7f4552433732313a206d696e7420746f20746865207a65726f2061646472657373600082015250565b6000615b64602083613faf565b9150615b6f82615b2e565b602082019050919050565b60006020820190508181036000830152615b9381615b57565b9050919050565b7f4552433732313a20746f6b656e20616c7265616479206d696e74656400000000600082015250565b6000615bd0601c83613faf565b9150615bdb82615b9a565b602082019050919050565b60006020820190508181036000830152615bff81615bc3565b9050919050565b7f47616d6d6173776170506f734c6962726172793a20494e53554646494349454e60008201527f545f434f4c4c41544552414c5f4445504f534954454400000000000000000000602082015250565b6000615c62603683613faf565b9150615c6d82615c06565b604082019050919050565b60006020820190508181036000830152615c9181615c55565b9050919050565b600082825260208201905092915050565b6000615cb4826153c9565b615cbe8185615c98565b9350615cce818560208601613fc0565b615cd781613ff3565b840191505092915050565b6000608082019050615cf760008301876140f4565b615d0460208301866140f4565b615d1160408301856141f1565b8181036060830152615d238184615ca9565b905095945050505050565b600081519050615d3d81613f15565b92915050565b600060208284031215615d5957615d58613edf565b5b6000615d6784828501615d2e565b9150509291505056fea26469706673582212206508406d5a854021a21dca9485e9dc346ad2ecee23935323ebc5c0501ff99b0a64736f6c634300080e0033",
  "immutableReferences": {},
  "source": "// SPDX-License-Identifier: GPL-2.0-or-later\npragma solidity ^0.8.0;\npragma abicoder v2;\n\nimport '../PositionManager.sol';\n\ncontract TestPositionManager is PositionManager {\n\n    event TestInfo(uint256 num1, uint256 num2, uint256 num3, uint256 num4, uint256 num5, uint256 num6, uint256 num7, uint256 num8, uint256 num9, uint256 num10);\n\n    constructor(address _uniRouter) PositionManager(_uniRouter, \"\",\"\") {\n    }\n\n    function forceUpdatePositionLiquidity(uint256 tokenId) public {\n        Position storage position = _positions[tokenId];\n        updatePositionLiquidity(position);\n    }\n\n    /*function testRefundAmountsToRecipient(uint256 tokenId, address recipient, RefundParams memory rParams) public {\n        Position storage position = _positions[tokenId];\n        refundAmountsToRecipient(position, recipient, rParams);\n    }\n\n    function testCalcPaymentsAndLiquidity(uint256 token0Amt, uint256 token1Amt, uint256 px) public view returns(uint256 payAmt0, uint256 payAmt1, uint256 payLiquidity) {\n        (payAmt0, payAmt1, payLiquidity) = calcPaymentsAndLiquidity(token0Amt, token1Amt, px);\n    }\n\n    function testCalcRefundPct(uint256 heldBalance, uint256 owedBalance, uint256 origLiquidity, uint256 payLiquidity) public view returns(uint256 refundPct) {\n        refundPct = calcRefundPct(heldBalance, owedBalance, origLiquidity, payLiquidity);\n    }\n\n    function testCalcShortfallPayments(uint256 heldBalance, uint256 owedBalance, uint256 payLiquidity, uint256 px) public view returns(uint256 payAmt0, uint256 payAmt1, uint256 shortfallLiquidity) {\n        (payAmt0, payAmt1, shortfallLiquidity) = calcShortfallPayments(heldBalance, owedBalance, payLiquidity, px);\n    }\n\n    function testUpdateCollateralAndRefund(uint256 tokenId, uint256 refundPct, uint256 refundAmt0, uint256 refundAmt1) public returns(uint256 _refundAmt0, uint256 _refundAmt1, uint256 _refundAmtUniPair) {\n        Position storage position = _positions[tokenId];\n        (_refundAmt0, _refundAmt1, _refundAmtUniPair) = updateCollateralAndRefund(position, refundPct, refundAmt0, refundAmt1);\n        position.liquidity = _refundAmt0;\n        position.rateIndex = _refundAmt1;\n        position.blockNum = _refundAmtUniPair;\n    }\n\n    function testCalculateMaxLiquidation(uint256 posLiquidity, uint256 owedBalance, uint256 heldBalance) public view returns(uint256 maxLiquidation) {\n        maxLiquidation = calculateMaxLiquidation(posLiquidity, owedBalance, heldBalance);\n    }\n\n    function testCalculatePaymentsAndRefundsForUnderwater(uint256 tokenId, uint256 owedBalance, uint256 heldBalance) public returns(RefundParams memory r) {\n        Position storage position = _positions[tokenId];\n        updatePositionLiquidity(position);\n        uint256 liquidity = position.liquidity;\n        r = calculatePaymentsAndRefundsForUnderwater(position, owedBalance, heldBalance);\n        emit TestInfo(r.payAmt0, r.payAmt1, r.shortfallLiquidity, r.refundAmt0, r.refundAmt1, r.refundAmtUniPair, liquidity, 0, 0, 0);\n    }\n\n    function testCalculateUniPaymentsAndRefunds(uint256 tokenId, uint256 owedBalance, uint256 heldBalance) public returns(RefundParams memory r) {\n        Position storage position = _positions[tokenId];\n        updatePositionLiquidity(position);\n        uint256 liquidity = position.liquidity;\n        uint256 maxLiquidation = calculateMaxLiquidation(liquidity, owedBalance, heldBalance);\n        r = calculateUniPaymentsAndRefunds(position, owedBalance, heldBalance, maxLiquidation);\n        emit TestInfo(r.payAmt0, r.payAmt1, r.payUniLiquidity, r.refundAmt0, r.refundAmt1, r.refundAmtUniPair, liquidity, r.maxLiquidation, r.payUniShares, 0);\n    }\n\n    function testCalculatePaymentsAndRefunds(uint256 tokenId, uint256 owedBalance, uint256 heldBalance) public returns(RefundParams memory r) {\n        Position storage position = _positions[tokenId];\n        updatePositionLiquidity(position);\n        uint256 liquidity = position.liquidity;\n        r = calculatePaymentsAndRefunds(position, owedBalance, heldBalance);\n        emit TestInfo(r.payAmt0, r.payAmt1, r.payLiquidity, r.refundAmt0, r.refundAmt1, r.refundAmtUniPair, liquidity, r.maxLiquidation, r.payUniShares, r.payUniLiquidity);\n    }/**/\n}\n",
  "sourcePath": "/Users/danielalcarraz/Documents/workspace/gammaswap/src/contracts/test/TestPositionManager.sol",
  "compiler": {
    "name": "solc",
    "version": "0.8.14+commit.80d49f37.Emscripten.clang"
  },
  "schemaVersion": "3.3.3",
  "updatedAt": "2022-05-22T08:46:07.702Z",
  "networkType": "ethereum",
  "devdoc": {
    "kind": "dev",
    "methods": {
      "approve(address,uint256)": {
        "details": "See {IERC721-approve}."
      },
      "balanceOf(address)": {
        "details": "See {IERC721-balanceOf}."
      },
      "isApprovedForAll(address,address)": {
        "details": "See {IERC721-isApprovedForAll}."
      },
      "name()": {
        "details": "See {IERC721Metadata-name}."
      },
      "ownerOf(uint256)": {
        "details": "See {IERC721-ownerOf}."
      },
      "safeTransferFrom(address,address,uint256)": {
        "details": "See {IERC721-safeTransferFrom}."
      },
      "safeTransferFrom(address,address,uint256,bytes)": {
        "details": "See {IERC721-safeTransferFrom}."
      },
      "setApprovalForAll(address,bool)": {
        "details": "See {IERC721-setApprovalForAll}."
      },
      "supportsInterface(bytes4)": {
        "details": "See {IERC165-supportsInterface}."
      },
      "symbol()": {
        "details": "See {IERC721Metadata-symbol}."
      },
      "tokenURI(uint256)": {
        "details": "See {IERC721Metadata-tokenURI}."
      },
      "transferFrom(address,address,uint256)": {
        "details": "See {IERC721-transferFrom}."
      }
    },
    "version": 1
  },
  "userdoc": {
    "kind": "user",
    "methods": {
      "burn(uint256)": {
        "notice": "inheritdoc IVegaswapV1Position"
      },
      "decreaseCollateral(uint256,uint256,uint256,address)": {
        "notice": "inheritdoc IVegaswapV1Position"
      },
      "decreasePosition(uint256,uint256)": {
        "notice": "inheritdoc INonfungiblePositionManager"
      },
      "getApproved(uint256)": {
        "notice": "inheritdoc IERC721"
      },
      "increaseCollateral(uint256,uint256,uint256)": {
        "notice": "inheritdoc IVegaswapV1Position"
      },
      "positions(uint256)": {
        "notice": "inheritdoc IVegaswapV1Position"
      }
    },
    "version": 1
  }
}