{
  "_format": "hh-sol-artifact-1",
  "contractName": "ERC721Mock",
  "sourceName": "contracts/test/ERC721Mock.sol",
  "abi": [
    {
      "inputs": [
        {
          "internalType": "string",
          "name": "name",
          "type": "string"
        },
        {
          "internalType": "string",
          "name": "symbol",
          "type": "string"
        }
      ],
      "stateMutability": "nonpayable",
      "type": "constructor"
    },
    {
      "anonymous": false,
      "inputs": [
        {
          "indexed": true,
          "internalType": "address",
          "name": "owner",
          "type": "address"
        },
        {
          "indexed": true,
          "internalType": "address",
          "name": "approved",
          "type": "address"
        },
        {
          "indexed": true,
          "internalType": "uint256",
          "name": "tokenId",
          "type": "uint256"
        }
      ],
      "name": "Approval",
      "type": "event"
    },
    {
      "anonymous": false,
      "inputs": [
        {
          "indexed": true,
          "internalType": "address",
          "name": "owner",
          "type": "address"
        },
        {
          "indexed": true,
          "internalType": "address",
          "name": "operator",
          "type": "address"
        },
        {
          "indexed": false,
          "internalType": "bool",
          "name": "approved",
          "type": "bool"
        }
      ],
      "name": "ApprovalForAll",
      "type": "event"
    },
    {
      "anonymous": false,
      "inputs": [
        {
          "indexed": true,
          "internalType": "address",
          "name": "from",
          "type": "address"
        },
        {
          "indexed": true,
          "internalType": "address",
          "name": "to",
          "type": "address"
        },
        {
          "indexed": true,
          "internalType": "uint256",
          "name": "tokenId",
          "type": "uint256"
        }
      ],
      "name": "Transfer",
      "type": "event"
    },
    {
      "inputs": [
        {
          "internalType": "address",
          "name": "to",
          "type": "address"
        },
        {
          "internalType": "uint256",
          "name": "tokenId",
          "type": "uint256"
        }
      ],
      "name": "approve",
      "outputs": [],
      "stateMutability": "nonpayable",
      "type": "function"
    },
    {
      "inputs": [
        {
          "internalType": "address",
          "name": "owner",
          "type": "address"
        }
      ],
      "name": "balanceOf",
      "outputs": [
        {
          "internalType": "uint256",
          "name": "",
          "type": "uint256"
        }
      ],
      "stateMutability": "view",
      "type": "function"
    },
    {
      "inputs": [],
      "name": "baseURI",
      "outputs": [
        {
          "internalType": "string",
          "name": "",
          "type": "string"
        }
      ],
      "stateMutability": "view",
      "type": "function"
    },
    {
      "inputs": [
        {
          "internalType": "uint256",
          "name": "tokenId",
          "type": "uint256"
        }
      ],
      "name": "burn",
      "outputs": [],
      "stateMutability": "nonpayable",
      "type": "function"
    },
    {
      "inputs": [
        {
          "internalType": "uint256",
          "name": "tokenId",
          "type": "uint256"
        }
      ],
      "name": "exists",
      "outputs": [
        {
          "internalType": "bool",
          "name": "",
          "type": "bool"
        }
      ],
      "stateMutability": "view",
      "type": "function"
    },
    {
      "inputs": [
        {
          "internalType": "uint256",
          "name": "tokenId",
          "type": "uint256"
        }
      ],
      "name": "getApproved",
      "outputs": [
        {
          "internalType": "address",
          "name": "",
          "type": "address"
        }
      ],
      "stateMutability": "view",
      "type": "function"
    },
    {
      "inputs": [
        {
          "internalType": "address",
          "name": "owner",
          "type": "address"
        },
        {
          "internalType": "address",
          "name": "operator",
          "type": "address"
        }
      ],
      "name": "isApprovedForAll",
      "outputs": [
        {
          "internalType": "bool",
          "name": "",
          "type": "bool"
        }
      ],
      "stateMutability": "view",
      "type": "function"
    },
    {
      "inputs": [
        {
          "internalType": "address",
          "name": "to",
          "type": "address"
        },
        {
          "internalType": "uint256",
          "name": "tokenId",
          "type": "uint256"
        }
      ],
      "name": "mint",
      "outputs": [],
      "stateMutability": "nonpayable",
      "type": "function"
    },
    {
      "inputs": [],
      "name": "name",
      "outputs": [
        {
          "internalType": "string",
          "name": "",
          "type": "string"
        }
      ],
      "stateMutability": "view",
      "type": "function"
    },
    {
      "inputs": [
        {
          "internalType": "uint256",
          "name": "tokenId",
          "type": "uint256"
        }
      ],
      "name": "ownerOf",
      "outputs": [
        {
          "internalType": "address",
          "name": "",
          "type": "address"
        }
      ],
      "stateMutability": "view",
      "type": "function"
    },
    {
      "inputs": [
        {
          "internalType": "address",
          "name": "to",
          "type": "address"
        },
        {
          "internalType": "uint256",
          "name": "tokenId",
          "type": "uint256"
        },
        {
          "internalType": "bytes",
          "name": "_data",
          "type": "bytes"
        }
      ],
      "name": "safeMint",
      "outputs": [],
      "stateMutability": "nonpayable",
      "type": "function"
    },
    {
      "inputs": [
        {
          "internalType": "address",
          "name": "to",
          "type": "address"
        },
        {
          "internalType": "uint256",
          "name": "tokenId",
          "type": "uint256"
        }
      ],
      "name": "safeMint",
      "outputs": [],
      "stateMutability": "nonpayable",
      "type": "function"
    },
    {
      "inputs": [
        {
          "internalType": "address",
          "name": "from",
          "type": "address"
        },
        {
          "internalType": "address",
          "name": "to",
          "type": "address"
        },
        {
          "internalType": "uint256",
          "name": "tokenId",
          "type": "uint256"
        }
      ],
      "name": "safeTransferFrom",
      "outputs": [],
      "stateMutability": "nonpayable",
      "type": "function"
    },
    {
      "inputs": [
        {
          "internalType": "address",
          "name": "from",
          "type": "address"
        },
        {
          "internalType": "address",
          "name": "to",
          "type": "address"
        },
        {
          "internalType": "uint256",
          "name": "tokenId",
          "type": "uint256"
        },
        {
          "internalType": "bytes",
          "name": "data",
          "type": "bytes"
        }
      ],
      "name": "safeTransferFrom",
      "outputs": [],
      "stateMutability": "nonpayable",
      "type": "function"
    },
    {
      "inputs": [
        {
          "internalType": "address",
          "name": "operator",
          "type": "address"
        },
        {
          "internalType": "bool",
          "name": "approved",
          "type": "bool"
        }
      ],
      "name": "setApprovalForAll",
      "outputs": [],
      "stateMutability": "nonpayable",
      "type": "function"
    },
    {
      "inputs": [
        {
          "internalType": "bytes4",
          "name": "interfaceId",
          "type": "bytes4"
        }
      ],
      "name": "supportsInterface",
      "outputs": [
        {
          "internalType": "bool",
          "name": "",
          "type": "bool"
        }
      ],
      "stateMutability": "view",
      "type": "function"
    },
    {
      "inputs": [],
      "name": "symbol",
      "outputs": [
        {
          "internalType": "string",
          "name": "",
          "type": "string"
        }
      ],
      "stateMutability": "view",
      "type": "function"
    },
    {
      "inputs": [
        {
          "internalType": "uint256",
          "name": "tokenId",
          "type": "uint256"
        }
      ],
      "name": "tokenURI",
      "outputs": [
        {
          "internalType": "string",
          "name": "",
          "type": "string"
        }
      ],
      "stateMutability": "view",
      "type": "function"
    },
    {
      "inputs": [
        {
          "internalType": "address",
          "name": "from",
          "type": "address"
        },
        {
          "internalType": "address",
          "name": "to",
          "type": "address"
        },
        {
          "internalType": "uint256",
          "name": "tokenId",
          "type": "uint256"
        }
      ],
      "name": "transferFrom",
      "outputs": [],
      "stateMutability": "nonpayable",
      "type": "function"
    }
  ],
  "bytecode": "0x60806040523480156200001157600080fd5b5060405162002b1138038062002b11833981810160405281019062000037919062000197565b818181600090805190602001906200005192919062000075565b5080600190805190602001906200006a92919062000075565b50505050506200037a565b82805462000083906200029f565b90600052602060002090601f016020900481019282620000a75760008555620000f3565b82601f10620000c257805160ff1916838001178555620000f3565b82800160010185558215620000f3579182015b82811115620000f2578251825591602001919060010190620000d5565b5b50905062000102919062000106565b5090565b5b808211156200012157600081600090555060010162000107565b5090565b60006200013c620001368462000233565b6200020a565b9050828152602081018484840111156200015557600080fd5b6200016284828562000269565b509392505050565b600082601f8301126200017c57600080fd5b81516200018e84826020860162000125565b91505092915050565b60008060408385031215620001ab57600080fd5b600083015167ffffffffffffffff811115620001c657600080fd5b620001d4858286016200016a565b925050602083015167ffffffffffffffff811115620001f257600080fd5b62000200858286016200016a565b9150509250929050565b60006200021662000229565b9050620002248282620002d5565b919050565b6000604051905090565b600067ffffffffffffffff8211156200025157620002506200033a565b5b6200025c8262000369565b9050602081019050919050565b60005b83811015620002895780820151818401526020810190506200026c565b8381111562000299576000848401525b50505050565b60006002820490506001821680620002b857607f821691505b60208210811415620002cf57620002ce6200030b565b5b50919050565b620002e08262000369565b810181811067ffffffffffffffff821117156200030257620003016200033a565b5b80604052505050565b7f4e487b7100000000000000000000000000000000000000000000000000000000600052602260045260246000fd5b7f4e487b7100000000000000000000000000000000000000000000000000000000600052604160045260246000fd5b6000601f19601f8301169050919050565b612787806200038a6000396000f3fe608060405234801561001057600080fd5b50600436106101215760003560e01c80636352211e116100ad578063a144819411610071578063a144819414610318578063a22cb46514610334578063b88d4fde14610350578063c87b56dd1461036c578063e985e9c51461039c57610121565b80636352211e146102605780636c0360eb1461029057806370a08231146102ae5780638832e6e3146102de57806395d89b41146102fa57610121565b806323b872dd116100f457806323b872dd146101c057806340c10f19146101dc57806342842e0e146101f857806342966c68146102145780634f558e791461023057610121565b806301ffc9a71461012657806306fdde0314610156578063081812fc14610174578063095ea7b3146101a4575b600080fd5b610140600480360381019061013b9190611b65565b6103cc565b60405161014d9190611ebc565b60405180910390f35b61015e6104ae565b60405161016b9190611ed7565b60405180910390f35b61018e60048036038101906101899190611bb7565b610540565b60405161019b9190611e55565b60405180910390f35b6101be60048036038101906101b99190611ac2565b610586565b005b6101da60048036038101906101d591906119bc565b61069e565b005b6101f660048036038101906101f19190611ac2565b6106fe565b005b610212600480360381019061020d91906119bc565b61070c565b005b61022e60048036038101906102299190611bb7565b61072c565b005b61024a60048036038101906102459190611bb7565b610738565b6040516102579190611ebc565b60405180910390f35b61027a60048036038101906102759190611bb7565b61074a565b6040516102879190611e55565b60405180910390f35b6102986107fc565b6040516102a59190611ed7565b60405180910390f35b6102c860048036038101906102c39190611957565b61080b565b6040516102d59190612059565b60405180910390f35b6102f860048036038101906102f39190611afe565b6108c3565b005b6103026108d3565b60405161030f9190611ed7565b60405180910390f35b610332600480360381019061032d9190611ac2565b610965565b005b61034e60048036038101906103499190611a86565b610973565b005b61036a60048036038101906103659190611a0b565b610989565b005b61038660048036038101906103819190611bb7565b6109eb565b6040516103939190611ed7565b60405180910390f35b6103b660048036038101906103b19190611980565b610a53565b6040516103c39190611ebc565b60405180910390f35b60007f80ac58cd000000000000000000000000000000000000000000000000000000007bffffffffffffffffffffffffffffffffffffffffffffffffffffffff1916827bffffffffffffffffffffffffffffffffffffffffffffffffffffffff1916148061049757507f5b5e139f000000000000000000000000000000000000000000000000000000007bffffffffffffffffffffffffffffffffffffffffffffffffffffffff1916827bffffffffffffffffffffffffffffffffffffffffffffffffffffffff1916145b806104a757506104a682610ae7565b5b9050919050565b6060600080546104bd9061227e565b80601f01602080910402602001604051908101604052809291908181526020018280546104e99061227e565b80156105365780601f1061050b57610100808354040283529160200191610536565b820191906000526020600020905b81548152906001019060200180831161051957829003601f168201915b5050505050905090565b600061054b82610b51565b6004600083815260200190815260200160002060009054906101000a900473ffffffffffffffffffffffffffffffffffffffff169050919050565b60006105918261074a565b90508073ffffffffffffffffffffffffffffffffffffffff168373ffffffffffffffffffffffffffffffffffffffff161415610602576040517f08c379a00000000000000000000000000000000000000000000000000000000081526004016105f990612019565b60405180910390fd5b8073ffffffffffffffffffffffffffffffffffffffff16610621610b9c565b73ffffffffffffffffffffffffffffffffffffffff161480610650575061064f8161064a610b9c565b610a53565b5b61068f576040517f08c379a000000000000000000000000000000000000000000000000000000000815260040161068690611fb9565b60405180910390fd5b6106998383610ba4565b505050565b6106af6106a9610b9c565b82610c5d565b6106ee576040517f08c379a00000000000000000000000000000000000000000000000000000000081526004016106e590612039565b60405180910390fd5b6106f9838383610cf2565b505050565b6107088282610f59565b5050565b61072783838360405180602001604052806000815250610989565b505050565b61073581611133565b50565b600061074382611250565b9050919050565b6000806002600084815260200190815260200160002060009054906101000a900473ffffffffffffffffffffffffffffffffffffffff169050600073ffffffffffffffffffffffffffffffffffffffff168173ffffffffffffffffffffffffffffffffffffffff1614156107f3576040517f08c379a00000000000000000000000000000000000000000000000000000000081526004016107ea90611ff9565b60405180910390fd5b80915050919050565b60606108066112bc565b905090565b60008073ffffffffffffffffffffffffffffffffffffffff168273ffffffffffffffffffffffffffffffffffffffff16141561087c576040517f08c379a000000000000000000000000000000000000000000000000000000000815260040161087390611f99565b60405180910390fd5b600360008373ffffffffffffffffffffffffffffffffffffffff1673ffffffffffffffffffffffffffffffffffffffff168152602001908152602001600020549050919050565b6108ce8383836112d3565b505050565b6060600180546108e29061227e565b80601f016020809104026020016040519081016040528092919081815260200182805461090e9061227e565b801561095b5780601f106109305761010080835404028352916020019161095b565b820191906000526020600020905b81548152906001019060200180831161093e57829003601f168201915b5050505050905090565b61096f828261132e565b5050565b61098561097e610b9c565b838361134c565b5050565b61099a610994610b9c565b83610c5d565b6109d9576040517f08c379a00000000000000000000000000000000000000000000000000000000081526004016109d090612039565b60405180910390fd5b6109e5848484846114b9565b50505050565b60606109f682610b51565b6000610a006112bc565b90506000815111610a205760405180602001604052806000815250610a4b565b80610a2a84611515565b604051602001610a3b929190611e31565b6040516020818303038152906040525b915050919050565b6000600560008473ffffffffffffffffffffffffffffffffffffffff1673ffffffffffffffffffffffffffffffffffffffff16815260200190815260200160002060008373ffffffffffffffffffffffffffffffffffffffff1673ffffffffffffffffffffffffffffffffffffffff16815260200190815260200160002060009054906101000a900460ff16905092915050565b60007f01ffc9a7000000000000000000000000000000000000000000000000000000007bffffffffffffffffffffffffffffffffffffffffffffffffffffffff1916827bffffffffffffffffffffffffffffffffffffffffffffffffffffffff1916149050919050565b610b5a81611250565b610b99576040517f08c379a0000000000000000000000000000000000000000000000000000000008152600401610b9090611ff9565b60405180910390fd5b50565b600033905090565b816004600083815260200190815260200160002060006101000a81548173ffffffffffffffffffffffffffffffffffffffff021916908373ffffffffffffffffffffffffffffffffffffffff160217905550808273ffffffffffffffffffffffffffffffffffffffff16610c178361074a565b73ffffffffffffffffffffffffffffffffffffffff167f8c5be1e5ebec7d5bd14f71427d1e84f3dd0314c0f7b2291e5b200ac8c7c3b92560405160405180910390a45050565b600080610c698361074a565b90508073ffffffffffffffffffffffffffffffffffffffff168473ffffffffffffffffffffffffffffffffffffffff161480610cab5750610caa8185610a53565b5b80610ce957508373ffffffffffffffffffffffffffffffffffffffff16610cd184610540565b73ffffffffffffffffffffffffffffffffffffffff16145b91505092915050565b8273ffffffffffffffffffffffffffffffffffffffff16610d128261074a565b73ffffffffffffffffffffffffffffffffffffffff1614610d68576040517f08c379a0000000000000000000000000000000000000000000000000000000008152600401610d5f90611f19565b60405180910390fd5b600073ffffffffffffffffffffffffffffffffffffffff168273ffffffffffffffffffffffffffffffffffffffff161415610dd8576040517f08c379a0000000000000000000000000000000000000000000000000000000008152600401610dcf90611f59565b60405180910390fd5b610de38383836116c2565b610dee600082610ba4565b6001600360008573ffffffffffffffffffffffffffffffffffffffff1673ffffffffffffffffffffffffffffffffffffffff1681526020019081526020016000206000828254610e3e9190612194565b925050819055506001600360008473ffffffffffffffffffffffffffffffffffffffff1673ffffffffffffffffffffffffffffffffffffffff1681526020019081526020016000206000828254610e95919061210d565b92505081905550816002600083815260200190815260200160002060006101000a81548173ffffffffffffffffffffffffffffffffffffffff021916908373ffffffffffffffffffffffffffffffffffffffff160217905550808273ffffffffffffffffffffffffffffffffffffffff168473ffffffffffffffffffffffffffffffffffffffff167fddf252ad1be2c89b69c2b068fc378daa952ba7f163c4a11628f55a4df523b3ef60405160405180910390a4610f548383836116c7565b505050565b600073ffffffffffffffffffffffffffffffffffffffff168273ffffffffffffffffffffffffffffffffffffffff161415610fc9576040517f08c379a0000000000000000000000000000000000000000000000000000000008152600401610fc090611fd9565b60405180910390fd5b610fd281611250565b15611012576040517f08c379a000000000000000000000000000000000000000000000000000000000815260040161100990611f39565b60405180910390fd5b61101e600083836116c2565b6001600360008473ffffffffffffffffffffffffffffffffffffffff1673ffffffffffffffffffffffffffffffffffffffff168152602001908152602001600020600082825461106e919061210d565b92505081905550816002600083815260200190815260200160002060006101000a81548173ffffffffffffffffffffffffffffffffffffffff021916908373ffffffffffffffffffffffffffffffffffffffff160217905550808273ffffffffffffffffffffffffffffffffffffffff16600073ffffffffffffffffffffffffffffffffffffffff167fddf252ad1be2c89b69c2b068fc378daa952ba7f163c4a11628f55a4df523b3ef60405160405180910390a461112f600083836116c7565b5050565b600061113e8261074a565b905061114c816000846116c2565b611157600083610ba4565b6001600360008373ffffffffffffffffffffffffffffffffffffffff1673ffffffffffffffffffffffffffffffffffffffff16815260200190815260200160002060008282546111a79190612194565b925050819055506002600083815260200190815260200160002060006101000a81549073ffffffffffffffffffffffffffffffffffffffff021916905581600073ffffffffffffffffffffffffffffffffffffffff168273ffffffffffffffffffffffffffffffffffffffff167fddf252ad1be2c89b69c2b068fc378daa952ba7f163c4a11628f55a4df523b3ef60405160405180910390a461124c816000846116c7565b5050565b60008073ffffffffffffffffffffffffffffffffffffffff166002600084815260200190815260200160002060009054906101000a900473ffffffffffffffffffffffffffffffffffffffff1673ffffffffffffffffffffffffffffffffffffffff1614159050919050565b606060405180602001604052806000815250905090565b6112dd8383610f59565b6112ea60008484846116cc565b611329576040517f08c379a000000000000000000000000000000000000000000000000000000000815260040161132090611ef9565b60405180910390fd5b505050565b6113488282604051806020016040528060008152506112d3565b5050565b8173ffffffffffffffffffffffffffffffffffffffff168373ffffffffffffffffffffffffffffffffffffffff1614156113bb576040517f08c379a00000000000000000000000000000000000000000000000000000000081526004016113b290611f79565b60405180910390fd5b80600560008573ffffffffffffffffffffffffffffffffffffffff1673ffffffffffffffffffffffffffffffffffffffff16815260200190815260200160002060008473ffffffffffffffffffffffffffffffffffffffff1673ffffffffffffffffffffffffffffffffffffffff16815260200190815260200160002060006101000a81548160ff0219169083151502179055508173ffffffffffffffffffffffffffffffffffffffff168373ffffffffffffffffffffffffffffffffffffffff167f17307eab39ab6107e8899845ad3d59bd9653f200f220920489ca2b5937696c31836040516114ac9190611ebc565b60405180910390a3505050565b6114c4848484610cf2565b6114d0848484846116cc565b61150f576040517f08c379a000000000000000000000000000000000000000000000000000000000815260040161150690611ef9565b60405180910390fd5b50505050565b6060600082141561155d576040518060400160405280600181526020017f300000000000000000000000000000000000000000000000000000000000000081525090506116bd565b600082905060005b6000821461158f578080611578906122e1565b915050600a826115889190612163565b9150611565565b60008167ffffffffffffffff8111156115d1577f4e487b7100000000000000000000000000000000000000000000000000000000600052604160045260246000fd5b6040519080825280601f01601f1916602001820160405280156116035781602001600182028036833780820191505090505b5090505b600085146116b65760018261161c9190612194565b9150600a8561162b919061232a565b6030611637919061210d565b60f81b818381518110611673577f4e487b7100000000000000000000000000000000000000000000000000000000600052603260045260246000fd5b60200101907effffffffffffffffffffffffffffffffffffffffffffffffffffffffffffff1916908160001a905350600a856116af9190612163565b9450611607565b8093505050505b919050565b505050565b505050565b60006116ed8473ffffffffffffffffffffffffffffffffffffffff16611863565b15611856578373ffffffffffffffffffffffffffffffffffffffff1663150b7a02611716610b9c565b8786866040518563ffffffff1660e01b81526004016117389493929190611e70565b602060405180830381600087803b15801561175257600080fd5b505af192505050801561178357506040513d601f19601f820116820180604052508101906117809190611b8e565b60015b611806573d80600081146117b3576040519150601f19603f3d011682016040523d82523d6000602084013e6117b8565b606091505b506000815114156117fe576040517f08c379a00000000000000000000000000000000000000000000000000000000081526004016117f590611ef9565b60405180910390fd5b805181602001fd5b63150b7a0260e01b7bffffffffffffffffffffffffffffffffffffffffffffffffffffffff1916817bffffffffffffffffffffffffffffffffffffffffffffffffffffffff19161491505061185b565b600190505b949350505050565b6000808273ffffffffffffffffffffffffffffffffffffffff163b119050919050565b600061189961189484612099565b612074565b9050828152602081018484840111156118b157600080fd5b6118bc84828561223c565b509392505050565b6000813590506118d3816126f5565b92915050565b6000813590506118e88161270c565b92915050565b6000813590506118fd81612723565b92915050565b60008151905061191281612723565b92915050565b600082601f83011261192957600080fd5b8135611939848260208601611886565b91505092915050565b6000813590506119518161273a565b92915050565b60006020828403121561196957600080fd5b6000611977848285016118c4565b91505092915050565b6000806040838503121561199357600080fd5b60006119a1858286016118c4565b92505060206119b2858286016118c4565b9150509250929050565b6000806000606084860312156119d157600080fd5b60006119df868287016118c4565b93505060206119f0868287016118c4565b9250506040611a0186828701611942565b9150509250925092565b60008060008060808587031215611a2157600080fd5b6000611a2f878288016118c4565b9450506020611a40878288016118c4565b9350506040611a5187828801611942565b925050606085013567ffffffffffffffff811115611a6e57600080fd5b611a7a87828801611918565b91505092959194509250565b60008060408385031215611a9957600080fd5b6000611aa7858286016118c4565b9250506020611ab8858286016118d9565b9150509250929050565b60008060408385031215611ad557600080fd5b6000611ae3858286016118c4565b9250506020611af485828601611942565b9150509250929050565b600080600060608486031215611b1357600080fd5b6000611b21868287016118c4565b9350506020611b3286828701611942565b925050604084013567ffffffffffffffff811115611b4f57600080fd5b611b5b86828701611918565b9150509250925092565b600060208284031215611b7757600080fd5b6000611b85848285016118ee565b91505092915050565b600060208284031215611ba057600080fd5b6000611bae84828501611903565b91505092915050565b600060208284031215611bc957600080fd5b6000611bd784828501611942565b91505092915050565b611be9816121c8565b82525050565b611bf8816121da565b82525050565b6000611c09826120ca565b611c1381856120e0565b9350611c2381856020860161224b565b611c2c81612417565b840191505092915050565b6000611c42826120d5565b611c4c81856120f1565b9350611c5c81856020860161224b565b611c6581612417565b840191505092915050565b6000611c7b826120d5565b611c858185612102565b9350611c9581856020860161224b565b80840191505092915050565b6000611cae6032836120f1565b9150611cb982612428565b604082019050919050565b6000611cd16025836120f1565b9150611cdc82612477565b604082019050919050565b6000611cf4601c836120f1565b9150611cff826124c6565b602082019050919050565b6000611d176024836120f1565b9150611d22826124ef565b604082019050919050565b6000611d3a6019836120f1565b9150611d458261253e565b602082019050919050565b6000611d5d6029836120f1565b9150611d6882612567565b604082019050919050565b6000611d80603e836120f1565b9150611d8b826125b6565b604082019050919050565b6000611da36020836120f1565b9150611dae82612605565b602082019050919050565b6000611dc66018836120f1565b9150611dd18261262e565b602082019050919050565b6000611de96021836120f1565b9150611df482612657565b604082019050919050565b6000611e0c602e836120f1565b9150611e17826126a6565b604082019050919050565b611e2b81612232565b82525050565b6000611e3d8285611c70565b9150611e498284611c70565b91508190509392505050565b6000602082019050611e6a6000830184611be0565b92915050565b6000608082019050611e856000830187611be0565b611e926020830186611be0565b611e9f6040830185611e22565b8181036060830152611eb18184611bfe565b905095945050505050565b6000602082019050611ed16000830184611bef565b92915050565b60006020820190508181036000830152611ef18184611c37565b905092915050565b60006020820190508181036000830152611f1281611ca1565b9050919050565b60006020820190508181036000830152611f3281611cc4565b9050919050565b60006020820190508181036000830152611f5281611ce7565b9050919050565b60006020820190508181036000830152611f7281611d0a565b9050919050565b60006020820190508181036000830152611f9281611d2d565b9050919050565b60006020820190508181036000830152611fb281611d50565b9050919050565b60006020820190508181036000830152611fd281611d73565b9050919050565b60006020820190508181036000830152611ff281611d96565b9050919050565b6000602082019050818103600083015261201281611db9565b9050919050565b6000602082019050818103600083015261203281611ddc565b9050919050565b6000602082019050818103600083015261205281611dff565b9050919050565b600060208201905061206e6000830184611e22565b92915050565b600061207e61208f565b905061208a82826122b0565b919050565b6000604051905090565b600067ffffffffffffffff8211156120b4576120b36123e8565b5b6120bd82612417565b9050602081019050919050565b600081519050919050565b600081519050919050565b600082825260208201905092915050565b600082825260208201905092915050565b600081905092915050565b600061211882612232565b915061212383612232565b9250827fffffffffffffffffffffffffffffffffffffffffffffffffffffffffffffffff038211156121585761215761235b565b5b828201905092915050565b600061216e82612232565b915061217983612232565b9250826121895761218861238a565b5b828204905092915050565b600061219f82612232565b91506121aa83612232565b9250828210156121bd576121bc61235b565b5b828203905092915050565b60006121d382612212565b9050919050565b60008115159050919050565b60007fffffffff0000000000000000000000000000000000000000000000000000000082169050919050565b600073ffffffffffffffffffffffffffffffffffffffff82169050919050565b6000819050919050565b82818337600083830152505050565b60005b8381101561226957808201518184015260208101905061224e565b83811115612278576000848401525b50505050565b6000600282049050600182168061229657607f821691505b602082108114156122aa576122a96123b9565b5b50919050565b6122b982612417565b810181811067ffffffffffffffff821117156122d8576122d76123e8565b5b80604052505050565b60006122ec82612232565b91507fffffffffffffffffffffffffffffffffffffffffffffffffffffffffffffffff82141561231f5761231e61235b565b5b600182019050919050565b600061233582612232565b915061234083612232565b9250826123505761234f61238a565b5b828206905092915050565b7f4e487b7100000000000000000000000000000000000000000000000000000000600052601160045260246000fd5b7f4e487b7100000000000000000000000000000000000000000000000000000000600052601260045260246000fd5b7f4e487b7100000000000000000000000000000000000000000000000000000000600052602260045260246000fd5b7f4e487b7100000000000000000000000000000000000000000000000000000000600052604160045260246000fd5b6000601f19601f8301169050919050565b7f4552433732313a207472616e7366657220746f206e6f6e20455243373231526560008201527f63656976657220696d706c656d656e7465720000000000000000000000000000602082015250565b7f4552433732313a207472616e736665722066726f6d20696e636f72726563742060008201527f6f776e6572000000000000000000000000000000000000000000000000000000602082015250565b7f4552433732313a20746f6b656e20616c7265616479206d696e74656400000000600082015250565b7f4552433732313a207472616e7366657220746f20746865207a65726f2061646460008201527f7265737300000000000000000000000000000000000000000000000000000000602082015250565b7f4552433732313a20617070726f766520746f2063616c6c657200000000000000600082015250565b7f4552433732313a2061646472657373207a65726f206973206e6f74206120766160008201527f6c6964206f776e65720000000000000000000000000000000000000000000000602082015250565b7f4552433732313a20617070726f76652063616c6c6572206973206e6f7420746f60008201527f6b656e206f776e6572206e6f7220617070726f76656420666f7220616c6c0000602082015250565b7f4552433732313a206d696e7420746f20746865207a65726f2061646472657373600082015250565b7f4552433732313a20696e76616c696420746f6b656e2049440000000000000000600082015250565b7f4552433732313a20617070726f76616c20746f2063757272656e74206f776e6560008201527f7200000000000000000000000000000000000000000000000000000000000000602082015250565b7f4552433732313a2063616c6c6572206973206e6f7420746f6b656e206f776e6560008201527f72206e6f7220617070726f766564000000000000000000000000000000000000602082015250565b6126fe816121c8565b811461270957600080fd5b50565b612715816121da565b811461272057600080fd5b50565b61272c816121e6565b811461273757600080fd5b50565b61274381612232565b811461274e57600080fd5b5056fea264697066735822122087959331c4fe9395333095a6deb7263980dabe82bf4626f65787042ba6e0db5264736f6c63430008040033",
  "linkReferences": {},
  "deployedLinkReferences": {}
}