{
  "_format": "hh-sol-artifact-1",
  "contractName": "TestPositionManager",
  "sourceName": "contracts/test/TestPositionManager.sol",
  "abi": [
    {
      "inputs": [
        {
          "internalType": "address",
          "name": "_factory",
          "type": "address"
        },
        {
          "internalType": "address",
          "name": "_WETH",
          "type": "address"
        },
        {
          "internalType": "bytes32",
          "name": "_initCodeHash",
          "type": "bytes32"
        }
      ],
      "stateMutability": "nonpayable",
      "type": "constructor"
    },
    {
      "anonymous": false,
      "inputs": [
        {
          "indexed": true,
          "internalType": "address",
          "name": "owner",
          "type": "address"
        },
        {
          "indexed": true,
          "internalType": "address",
          "name": "approved",
          "type": "address"
        },
        {
          "indexed": true,
          "internalType": "uint256",
          "name": "tokenId",
          "type": "uint256"
        }
      ],
      "name": "Approval",
      "type": "event"
    },
    {
      "anonymous": false,
      "inputs": [
        {
          "indexed": true,
          "internalType": "address",
          "name": "owner",
          "type": "address"
        },
        {
          "indexed": true,
          "internalType": "address",
          "name": "operator",
          "type": "address"
        },
        {
          "indexed": false,
          "internalType": "bool",
          "name": "approved",
          "type": "bool"
        }
      ],
      "name": "ApprovalForAll",
      "type": "event"
    },
    {
      "anonymous": false,
      "inputs": [
        {
          "indexed": true,
          "internalType": "address",
          "name": "pool",
          "type": "address"
        },
        {
          "indexed": false,
          "internalType": "uint256",
          "name": "tokenId",
          "type": "uint256"
        },
        {
          "indexed": false,
          "internalType": "uint256",
          "name": "amountsLen",
          "type": "uint256"
        }
      ],
      "name": "BorrowLiquidity",
      "type": "event"
    },
    {
      "anonymous": false,
      "inputs": [
        {
          "indexed": true,
          "internalType": "address",
          "name": "pool",
          "type": "address"
        },
        {
          "indexed": false,
          "internalType": "uint256",
          "name": "tokenId",
          "type": "uint256"
        }
      ],
      "name": "CreateLoan",
      "type": "event"
    },
    {
      "anonymous": false,
      "inputs": [
        {
          "indexed": true,
          "internalType": "address",
          "name": "pool",
          "type": "address"
        },
        {
          "indexed": false,
          "internalType": "uint256",
          "name": "tokenId",
          "type": "uint256"
        },
        {
          "indexed": false,
          "internalType": "uint256",
          "name": "tokensHeldLen",
          "type": "uint256"
        }
      ],
      "name": "DecreaseCollateral",
      "type": "event"
    },
    {
      "anonymous": false,
      "inputs": [
        {
          "indexed": true,
          "internalType": "address",
          "name": "pool",
          "type": "address"
        },
        {
          "indexed": false,
          "internalType": "uint256",
          "name": "shares",
          "type": "uint256"
        }
      ],
      "name": "DepositNoPull",
      "type": "event"
    },
    {
      "anonymous": false,
      "inputs": [
        {
          "indexed": true,
          "internalType": "address",
          "name": "pool",
          "type": "address"
        },
        {
          "indexed": false,
          "internalType": "uint256",
          "name": "reservesLen",
          "type": "uint256"
        },
        {
          "indexed": false,
          "internalType": "uint256",
          "name": "shares",
          "type": "uint256"
        }
      ],
      "name": "DepositReserves",
      "type": "event"
    },
    {
      "anonymous": false,
      "inputs": [
        {
          "indexed": true,
          "internalType": "address",
          "name": "pool",
          "type": "address"
        },
        {
          "indexed": false,
          "internalType": "uint256",
          "name": "tokenId",
          "type": "uint256"
        },
        {
          "indexed": false,
          "internalType": "uint256",
          "name": "tokensHeldLen",
          "type": "uint256"
        }
      ],
      "name": "IncreaseCollateral",
      "type": "event"
    },
    {
      "anonymous": false,
      "inputs": [
        {
          "indexed": true,
          "internalType": "address",
          "name": "pool",
          "type": "address"
        },
        {
          "indexed": false,
          "internalType": "uint256",
          "name": "tokenId",
          "type": "uint256"
        },
        {
          "indexed": false,
          "internalType": "uint256",
          "name": "tokensHeldLen",
          "type": "uint256"
        }
      ],
      "name": "RebalanceCollateral",
      "type": "event"
    },
    {
      "anonymous": false,
      "inputs": [
        {
          "indexed": true,
          "internalType": "address",
          "name": "pool",
          "type": "address"
        },
        {
          "indexed": false,
          "internalType": "uint256",
          "name": "tokenId",
          "type": "uint256"
        },
        {
          "indexed": false,
          "internalType": "uint256",
          "name": "tokensHeldLen",
          "type": "uint256"
        }
      ],
      "name": "RebalanceCollateralWithLiquidity",
      "type": "event"
    },
    {
      "anonymous": false,
      "inputs": [
        {
          "indexed": true,
          "internalType": "address",
          "name": "pool",
          "type": "address"
        },
        {
          "indexed": false,
          "internalType": "uint256",
          "name": "tokenId",
          "type": "uint256"
        },
        {
          "indexed": false,
          "internalType": "uint256",
          "name": "liquidityPaid",
          "type": "uint256"
        },
        {
          "indexed": false,
          "internalType": "uint256",
          "name": "lpTokensPaid",
          "type": "uint256"
        },
        {
          "indexed": false,
          "internalType": "uint256",
          "name": "amountsLen",
          "type": "uint256"
        }
      ],
      "name": "RepayLiquidity",
      "type": "event"
    },
    {
      "anonymous": false,
      "inputs": [
        {
          "indexed": true,
          "internalType": "address",
          "name": "from",
          "type": "address"
        },
        {
          "indexed": true,
          "internalType": "address",
          "name": "to",
          "type": "address"
        },
        {
          "indexed": true,
          "internalType": "uint256",
          "name": "tokenId",
          "type": "uint256"
        }
      ],
      "name": "Transfer",
      "type": "event"
    },
    {
      "anonymous": false,
      "inputs": [
        {
          "indexed": true,
          "internalType": "address",
          "name": "pool",
          "type": "address"
        },
        {
          "indexed": false,
          "internalType": "uint256",
          "name": "assets",
          "type": "uint256"
        }
      ],
      "name": "WithdrawNoPull",
      "type": "event"
    },
    {
      "anonymous": false,
      "inputs": [
        {
          "indexed": true,
          "internalType": "address",
          "name": "pool",
          "type": "address"
        },
        {
          "indexed": false,
          "internalType": "uint256",
          "name": "reservesLen",
          "type": "uint256"
        },
        {
          "indexed": false,
          "internalType": "uint256",
          "name": "assets",
          "type": "uint256"
        }
      ],
      "name": "WithdrawReserves",
      "type": "event"
    },
    {
      "inputs": [],
      "name": "WETH",
      "outputs": [
        {
          "internalType": "address",
          "name": "",
          "type": "address"
        }
      ],
      "stateMutability": "view",
      "type": "function"
    },
    {
      "inputs": [
        {
          "internalType": "address",
          "name": "to",
          "type": "address"
        },
        {
          "internalType": "uint256",
          "name": "tokenId",
          "type": "uint256"
        }
      ],
      "name": "approve",
      "outputs": [],
      "stateMutability": "nonpayable",
      "type": "function"
    },
    {
      "inputs": [
        {
          "internalType": "address",
          "name": "owner",
          "type": "address"
        }
      ],
      "name": "balanceOf",
      "outputs": [
        {
          "internalType": "uint256",
          "name": "",
          "type": "uint256"
        }
      ],
      "stateMutability": "view",
      "type": "function"
    },
    {
      "inputs": [
        {
          "components": [
            {
              "internalType": "address",
              "name": "cfmm",
              "type": "address"
            },
            {
              "internalType": "uint24",
              "name": "protocol",
              "type": "uint24"
            },
            {
              "internalType": "uint256",
              "name": "tokenId",
              "type": "uint256"
            },
            {
              "internalType": "uint256",
              "name": "lpTokens",
              "type": "uint256"
            },
            {
              "internalType": "address",
              "name": "to",
              "type": "address"
            },
            {
              "internalType": "uint256",
              "name": "deadline",
              "type": "uint256"
            }
          ],
          "internalType": "struct IPositionManager.BorrowLiquidityParams",
          "name": "params",
          "type": "tuple"
        }
      ],
      "name": "borrowLiquidity",
      "outputs": [
        {
          "internalType": "uint256[]",
          "name": "amounts",
          "type": "uint256[]"
        }
      ],
      "stateMutability": "nonpayable",
      "type": "function"
    },
    {
      "inputs": [
        {
          "internalType": "address",
          "name": "token",
          "type": "address"
        },
        {
          "internalType": "uint256",
          "name": "minAmt",
          "type": "uint256"
        },
        {
          "internalType": "address",
          "name": "to",
          "type": "address"
        }
      ],
      "name": "clearToken",
      "outputs": [],
      "stateMutability": "payable",
      "type": "function"
    },
    {
      "inputs": [
        {
          "internalType": "address",
          "name": "cfmm",
          "type": "address"
        },
        {
          "internalType": "uint24",
          "name": "protocol",
          "type": "uint24"
        },
        {
          "internalType": "address",
          "name": "to",
          "type": "address"
        },
        {
          "internalType": "uint256",
          "name": "deadline",
          "type": "uint256"
        }
      ],
      "name": "createLoan",
      "outputs": [
        {
          "internalType": "uint256",
          "name": "tokenId",
          "type": "uint256"
        }
      ],
      "stateMutability": "nonpayable",
      "type": "function"
    },
    {
      "inputs": [
        {
          "internalType": "address",
          "name": "to",
          "type": "address"
        }
      ],
      "name": "createTestLoan",
      "outputs": [
        {
          "internalType": "uint256",
          "name": "tokenId",
          "type": "uint256"
        }
      ],
      "stateMutability": "nonpayable",
      "type": "function"
    },
    {
      "inputs": [
        {
          "components": [
            {
              "internalType": "address",
              "name": "cfmm",
              "type": "address"
            },
            {
              "internalType": "uint24",
              "name": "protocol",
              "type": "uint24"
            },
            {
              "internalType": "uint256",
              "name": "tokenId",
              "type": "uint256"
            },
            {
              "internalType": "uint256[]",
              "name": "amounts",
              "type": "uint256[]"
            },
            {
              "internalType": "address",
              "name": "to",
              "type": "address"
            },
            {
              "internalType": "uint256",
              "name": "deadline",
              "type": "uint256"
            }
          ],
          "internalType": "struct IPositionManager.AddRemoveCollateralParams",
          "name": "params",
          "type": "tuple"
        }
      ],
      "name": "decreaseCollateral",
      "outputs": [
        {
          "internalType": "uint256[]",
          "name": "tokensHeld",
          "type": "uint256[]"
        }
      ],
      "stateMutability": "nonpayable",
      "type": "function"
    },
    {
      "inputs": [
        {
          "components": [
            {
              "internalType": "address",
              "name": "cfmm",
              "type": "address"
            },
            {
              "internalType": "uint24",
              "name": "protocol",
              "type": "uint24"
            },
            {
              "internalType": "uint256",
              "name": "lpTokens",
              "type": "uint256"
            },
            {
              "internalType": "address",
              "name": "to",
              "type": "address"
            },
            {
              "internalType": "uint256",
              "name": "deadline",
              "type": "uint256"
            }
          ],
          "internalType": "struct IPositionManager.DepositWithdrawParams",
          "name": "params",
          "type": "tuple"
        }
      ],
      "name": "depositNoPull",
      "outputs": [
        {
          "internalType": "uint256",
          "name": "shares",
          "type": "uint256"
        }
      ],
      "stateMutability": "nonpayable",
      "type": "function"
    },
    {
      "inputs": [
        {
          "components": [
            {
              "internalType": "address",
              "name": "cfmm",
              "type": "address"
            },
            {
              "internalType": "uint256[]",
              "name": "amountsDesired",
              "type": "uint256[]"
            },
            {
              "internalType": "uint256[]",
              "name": "amountsMin",
              "type": "uint256[]"
            },
            {
              "internalType": "address",
              "name": "to",
              "type": "address"
            },
            {
              "internalType": "uint24",
              "name": "protocol",
              "type": "uint24"
            },
            {
              "internalType": "uint256",
              "name": "deadline",
              "type": "uint256"
            }
          ],
          "internalType": "struct IPositionManager.DepositReservesParams",
          "name": "params",
          "type": "tuple"
        }
      ],
      "name": "depositReserves",
      "outputs": [
        {
          "internalType": "uint256[]",
          "name": "reserves",
          "type": "uint256[]"
        },
        {
          "internalType": "uint256",
          "name": "shares",
          "type": "uint256"
        }
      ],
      "stateMutability": "nonpayable",
      "type": "function"
    },
    {
      "inputs": [],
      "name": "factory",
      "outputs": [
        {
          "internalType": "address",
          "name": "",
          "type": "address"
        }
      ],
      "stateMutability": "view",
      "type": "function"
    },
    {
      "inputs": [
        {
          "internalType": "uint256",
          "name": "tokenId",
          "type": "uint256"
        }
      ],
      "name": "getApproved",
      "outputs": [
        {
          "internalType": "address",
          "name": "",
          "type": "address"
        }
      ],
      "stateMutability": "view",
      "type": "function"
    },
    {
      "inputs": [
        {
          "components": [
            {
              "internalType": "address",
              "name": "cfmm",
              "type": "address"
            },
            {
              "internalType": "uint24",
              "name": "protocol",
              "type": "uint24"
            },
            {
              "internalType": "uint256",
              "name": "tokenId",
              "type": "uint256"
            },
            {
              "internalType": "uint256[]",
              "name": "amounts",
              "type": "uint256[]"
            },
            {
              "internalType": "address",
              "name": "to",
              "type": "address"
            },
            {
              "internalType": "uint256",
              "name": "deadline",
              "type": "uint256"
            }
          ],
          "internalType": "struct IPositionManager.AddRemoveCollateralParams",
          "name": "params",
          "type": "tuple"
        }
      ],
      "name": "increaseCollateral",
      "outputs": [
        {
          "internalType": "uint256[]",
          "name": "tokensHeld",
          "type": "uint256[]"
        }
      ],
      "stateMutability": "nonpayable",
      "type": "function"
    },
    {
      "inputs": [],
      "name": "initCodeHash",
      "outputs": [
        {
          "internalType": "bytes32",
          "name": "",
          "type": "bytes32"
        }
      ],
      "stateMutability": "view",
      "type": "function"
    },
    {
      "inputs": [
        {
          "internalType": "address",
          "name": "owner",
          "type": "address"
        },
        {
          "internalType": "address",
          "name": "operator",
          "type": "address"
        }
      ],
      "name": "isApprovedForAll",
      "outputs": [
        {
          "internalType": "bool",
          "name": "",
          "type": "bool"
        }
      ],
      "stateMutability": "view",
      "type": "function"
    },
    {
      "inputs": [
        {
          "internalType": "address",
          "name": "cfmm",
          "type": "address"
        },
        {
          "internalType": "uint24",
          "name": "protocol",
          "type": "uint24"
        },
        {
          "internalType": "uint256",
          "name": "tokenId",
          "type": "uint256"
        }
      ],
      "name": "loan",
      "outputs": [
        {
          "internalType": "uint256",
          "name": "id",
          "type": "uint256"
        },
        {
          "internalType": "address",
          "name": "poolId",
          "type": "address"
        },
        {
          "internalType": "uint256[]",
          "name": "tokensHeld",
          "type": "uint256[]"
        },
        {
          "internalType": "uint256",
          "name": "liquidity",
          "type": "uint256"
        },
        {
          "internalType": "uint256",
          "name": "rateIndex",
          "type": "uint256"
        },
        {
          "internalType": "uint256",
          "name": "blockNum",
          "type": "uint256"
        }
      ],
      "stateMutability": "view",
      "type": "function"
    },
    {
      "inputs": [],
      "name": "name",
      "outputs": [
        {
          "internalType": "string",
          "name": "",
          "type": "string"
        }
      ],
      "stateMutability": "view",
      "type": "function"
    },
    {
      "inputs": [],
      "name": "owner",
      "outputs": [
        {
          "internalType": "address",
          "name": "",
          "type": "address"
        }
      ],
      "stateMutability": "view",
      "type": "function"
    },
    {
      "inputs": [
        {
          "internalType": "uint256",
          "name": "tokenId",
          "type": "uint256"
        }
      ],
      "name": "ownerOf",
      "outputs": [
        {
          "internalType": "address",
          "name": "",
          "type": "address"
        }
      ],
      "stateMutability": "view",
      "type": "function"
    },
    {
      "inputs": [
        {
          "components": [
            {
              "internalType": "address",
              "name": "cfmm",
              "type": "address"
            },
            {
              "internalType": "uint24",
              "name": "protocol",
              "type": "uint24"
            },
            {
              "internalType": "uint256",
              "name": "tokenId",
              "type": "uint256"
            },
            {
              "internalType": "int256[]",
              "name": "deltas",
              "type": "int256[]"
            },
            {
              "internalType": "uint256",
              "name": "liquidity",
              "type": "uint256"
            },
            {
              "internalType": "address",
              "name": "to",
              "type": "address"
            },
            {
              "internalType": "uint256",
              "name": "deadline",
              "type": "uint256"
            }
          ],
          "internalType": "struct IPositionManager.RebalanceCollateralParams",
          "name": "params",
          "type": "tuple"
        }
      ],
      "name": "rebalanceCollateral",
      "outputs": [
        {
          "internalType": "uint256[]",
          "name": "tokensHeld",
          "type": "uint256[]"
        }
      ],
      "stateMutability": "nonpayable",
      "type": "function"
    },
    {
      "inputs": [
        {
          "components": [
            {
              "internalType": "address",
              "name": "cfmm",
              "type": "address"
            },
            {
              "internalType": "uint24",
              "name": "protocol",
              "type": "uint24"
            },
            {
              "internalType": "uint256",
              "name": "tokenId",
              "type": "uint256"
            },
            {
              "internalType": "int256[]",
              "name": "deltas",
              "type": "int256[]"
            },
            {
              "internalType": "uint256",
              "name": "liquidity",
              "type": "uint256"
            },
            {
              "internalType": "address",
              "name": "to",
              "type": "address"
            },
            {
              "internalType": "uint256",
              "name": "deadline",
              "type": "uint256"
            }
          ],
          "internalType": "struct IPositionManager.RebalanceCollateralParams",
          "name": "params",
          "type": "tuple"
        }
      ],
      "name": "rebalanceCollateralWithLiquidity",
      "outputs": [
        {
          "internalType": "uint256[]",
          "name": "tokensHeld",
          "type": "uint256[]"
        }
      ],
      "stateMutability": "nonpayable",
      "type": "function"
    },
    {
      "inputs": [],
      "name": "refundETH",
      "outputs": [],
      "stateMutability": "payable",
      "type": "function"
    },
    {
      "inputs": [
        {
          "components": [
            {
              "internalType": "address",
              "name": "cfmm",
              "type": "address"
            },
            {
              "internalType": "uint24",
              "name": "protocol",
              "type": "uint24"
            },
            {
              "internalType": "uint256",
              "name": "tokenId",
              "type": "uint256"
            },
            {
              "internalType": "uint256",
              "name": "liquidity",
              "type": "uint256"
            },
            {
              "internalType": "address",
              "name": "to",
              "type": "address"
            },
            {
              "internalType": "uint256",
              "name": "deadline",
              "type": "uint256"
            }
          ],
          "internalType": "struct IPositionManager.RepayLiquidityParams",
          "name": "params",
          "type": "tuple"
        }
      ],
      "name": "repayLiquidity",
      "outputs": [
        {
          "internalType": "uint256",
          "name": "liquidityPaid",
          "type": "uint256"
        },
        {
          "internalType": "uint256",
          "name": "lpTokensPaid",
          "type": "uint256"
        },
        {
          "internalType": "uint256[]",
          "name": "amounts",
          "type": "uint256[]"
        }
      ],
      "stateMutability": "nonpayable",
      "type": "function"
    },
    {
      "inputs": [
        {
          "internalType": "address",
          "name": "from",
          "type": "address"
        },
        {
          "internalType": "address",
          "name": "to",
          "type": "address"
        },
        {
          "internalType": "uint256",
          "name": "tokenId",
          "type": "uint256"
        }
      ],
      "name": "safeTransferFrom",
      "outputs": [],
      "stateMutability": "nonpayable",
      "type": "function"
    },
    {
      "inputs": [
        {
          "internalType": "address",
          "name": "from",
          "type": "address"
        },
        {
          "internalType": "address",
          "name": "to",
          "type": "address"
        },
        {
          "internalType": "uint256",
          "name": "tokenId",
          "type": "uint256"
        },
        {
          "internalType": "bytes",
          "name": "data",
          "type": "bytes"
        }
      ],
      "name": "safeTransferFrom",
      "outputs": [],
      "stateMutability": "nonpayable",
      "type": "function"
    },
    {
      "inputs": [
        {
          "internalType": "address[]",
          "name": "tokens",
          "type": "address[]"
        },
        {
          "internalType": "uint256[]",
          "name": "amounts",
          "type": "uint256[]"
        },
        {
          "internalType": "address",
          "name": "payee",
          "type": "address"
        },
        {
          "internalType": "bytes",
          "name": "data",
          "type": "bytes"
        }
      ],
      "name": "sendTokensCallback",
      "outputs": [],
      "stateMutability": "nonpayable",
      "type": "function"
    },
    {
      "inputs": [
        {
          "internalType": "address",
          "name": "operator",
          "type": "address"
        },
        {
          "internalType": "bool",
          "name": "approved",
          "type": "bool"
        }
      ],
      "name": "setApprovalForAll",
      "outputs": [],
      "stateMutability": "nonpayable",
      "type": "function"
    },
    {
      "inputs": [
        {
          "internalType": "bytes4",
          "name": "interfaceId",
          "type": "bytes4"
        }
      ],
      "name": "supportsInterface",
      "outputs": [
        {
          "internalType": "bool",
          "name": "",
          "type": "bool"
        }
      ],
      "stateMutability": "view",
      "type": "function"
    },
    {
      "inputs": [],
      "name": "symbol",
      "outputs": [
        {
          "internalType": "string",
          "name": "",
          "type": "string"
        }
      ],
      "stateMutability": "view",
      "type": "function"
    },
    {
      "inputs": [
        {
          "internalType": "uint256",
          "name": "tokenId",
          "type": "uint256"
        }
      ],
      "name": "tokenURI",
      "outputs": [
        {
          "internalType": "string",
          "name": "",
          "type": "string"
        }
      ],
      "stateMutability": "view",
      "type": "function"
    },
    {
      "inputs": [
        {
          "internalType": "address",
          "name": "from",
          "type": "address"
        },
        {
          "internalType": "address",
          "name": "to",
          "type": "address"
        },
        {
          "internalType": "uint256",
          "name": "tokenId",
          "type": "uint256"
        }
      ],
      "name": "transferFrom",
      "outputs": [],
      "stateMutability": "nonpayable",
      "type": "function"
    },
    {
      "inputs": [
        {
          "internalType": "uint256",
          "name": "minAmt",
          "type": "uint256"
        },
        {
          "internalType": "address",
          "name": "to",
          "type": "address"
        }
      ],
      "name": "unwrapWETH",
      "outputs": [],
      "stateMutability": "payable",
      "type": "function"
    },
    {
      "inputs": [
        {
          "components": [
            {
              "internalType": "address",
              "name": "cfmm",
              "type": "address"
            },
            {
              "internalType": "uint24",
              "name": "protocol",
              "type": "uint24"
            },
            {
              "internalType": "uint256",
              "name": "lpTokens",
              "type": "uint256"
            },
            {
              "internalType": "address",
              "name": "to",
              "type": "address"
            },
            {
              "internalType": "uint256",
              "name": "deadline",
              "type": "uint256"
            }
          ],
          "internalType": "struct IPositionManager.DepositWithdrawParams",
          "name": "params",
          "type": "tuple"
        }
      ],
      "name": "withdrawNoPull",
      "outputs": [
        {
          "internalType": "uint256",
          "name": "assets",
          "type": "uint256"
        }
      ],
      "stateMutability": "nonpayable",
      "type": "function"
    },
    {
      "inputs": [
        {
          "components": [
            {
              "internalType": "address",
              "name": "cfmm",
              "type": "address"
            },
            {
              "internalType": "uint24",
              "name": "protocol",
              "type": "uint24"
            },
            {
              "internalType": "uint256",
              "name": "amount",
              "type": "uint256"
            },
            {
              "internalType": "uint256[]",
              "name": "amountsMin",
              "type": "uint256[]"
            },
            {
              "internalType": "address",
              "name": "to",
              "type": "address"
            },
            {
              "internalType": "uint256",
              "name": "deadline",
              "type": "uint256"
            }
          ],
          "internalType": "struct IPositionManager.WithdrawReservesParams",
          "name": "params",
          "type": "tuple"
        }
      ],
      "name": "withdrawReserves",
      "outputs": [
        {
          "internalType": "uint256[]",
          "name": "reserves",
          "type": "uint256[]"
        },
        {
          "internalType": "uint256",
          "name": "assets",
          "type": "uint256"
        }
      ],
      "stateMutability": "nonpayable",
      "type": "function"
    },
    {
      "stateMutability": "payable",
      "type": "receive"
    }
  ],
  "bytecode": "0x60c06040523480156200001157600080fd5b50604051620063ca380380620063ca833981810160405281019062000037919062000280565b8282826040518060400160405280600681526020017f506f734d677200000000000000000000000000000000000000000000000000008152506040518060400160405280600581526020017f504d2d56310000000000000000000000000000000000000000000000000000008152508181858073ffffffffffffffffffffffffffffffffffffffff1660808173ffffffffffffffffffffffffffffffffffffffff1660601b81525050508160009080519060200190620000f9929190620001a2565b50806001908051906020019062000112929190620001a2565b50505050508273ffffffffffffffffffffffffffffffffffffffff1660a08173ffffffffffffffffffffffffffffffffffffffff1660601b8152505033600660006101000a81548173ffffffffffffffffffffffffffffffffffffffff021916908373ffffffffffffffffffffffffffffffffffffffff16021790555080600781905550505050505050620003ad565b828054620001b09062000314565b90600052602060002090601f016020900481019282620001d4576000855562000220565b82601f10620001ef57805160ff191683800117855562000220565b8280016001018555821562000220579182015b828111156200021f57825182559160200191906001019062000202565b5b5090506200022f919062000233565b5090565b5b808211156200024e57600081600090555060010162000234565b5090565b600081519050620002638162000379565b92915050565b6000815190506200027a8162000393565b92915050565b6000806000606084860312156200029657600080fd5b6000620002a68682870162000252565b9350506020620002b98682870162000252565b9250506040620002cc8682870162000269565b9150509250925092565b6000620002e382620002f4565b9050919050565b6000819050919050565b600073ffffffffffffffffffffffffffffffffffffffff82169050919050565b600060028204905060018216806200032d57607f821691505b602082108114156200034457620003436200034a565b5b50919050565b7f4e487b7100000000000000000000000000000000000000000000000000000000600052602260045260246000fd5b6200038481620002d6565b81146200039057600080fd5b50565b6200039e81620002ea565b8114620003aa57600080fd5b50565b60805160601c60a05160601c615f6c6200045e60003960008181610c5801528181610d4501528181610ec5015281816111850152818161131a015281816115540152818161173001528181611bea01528181611ea701528181611f44015281816122a2015281816124d70152818161264e01526127e001526000818161020401528181611baf015281816120650152818161215c01528181612c8c01528181612cec0152612d700152615f6c6000f3fe6080604052600436106101fd5760003560e01c8063770b99dc1161010d578063c87b56dd116100a0578063e985e9c51161006f578063e985e9c51461082d578063eb1b69bf1461086a578063ed83bfff146108a8578063f164aa86146108e7578063f53b4cf11461092457610292565b8063c87b56dd1461076c578063c9e9def4146107a9578063db4c545e146107e6578063e16d9ce51461081157610292565b8063ad5c4648116100dc578063ad5c4648146106af578063b82019fb146106da578063b88d4fde14610718578063c45a01551461074157610292565b8063770b99dc146105f35780638da5cb5b1461063057806395d89b411461065b578063a22cb4651461068657610292565b806323b872dd116101905780634f202ceb1161015f5780634f202ceb146104d65780636352211e146105135780636464a1eb14610550578063678004791461057957806370a08231146105b657610292565b806323b872dd1461042b5780632838a94f146104545780633fce4d9e1461047057806342842e0e146104ad57610292565b806312210e8a116101cc57806312210e8a1461036557806315fa68d51461036f5780631e7481d5146103b157806321892368146103ee57610292565b806301ffc9a71461029757806306fdde03146102d4578063081812fc146102ff578063095ea7b31461033c57610292565b36610292577f000000000000000000000000000000000000000000000000000000000000000073ffffffffffffffffffffffffffffffffffffffff163373ffffffffffffffffffffffffffffffffffffffff1614610290576040517f08c379a000000000000000000000000000000000000000000000000000000000815260040161028790615104565b60405180910390fd5b005b600080fd5b3480156102a357600080fd5b506102be60048036038101906102b99190614506565b610961565b6040516102cb91906150ac565b60405180910390f35b3480156102e057600080fd5b506102e9610a43565b6040516102f691906150e2565b60405180910390f35b34801561030b57600080fd5b5061032660048036038101906103219190614729565b610ad5565b6040516103339190614f0c565b60405180910390f35b34801561034857600080fd5b50610363600480360381019061035e91906142c3565b610b1b565b005b61036d610c33565b005b34801561037b57600080fd5b5061039660048036038101906103919190614274565b610c49565b6040516103a89695949392919061539a565b60405180910390f35b3480156103bd57600080fd5b506103d860048036038101906103d39190614603565b610d2e565b6040516103e5919061537f565b60405180910390f35b3480156103fa57600080fd5b5061041560048036038101906104109190614599565b610ea0565b604051610422919061505a565b60405180910390f35b34801561043757600080fd5b50610452600480360381019061044d919061410b565b611015565b005b61046e600480360381019061046991906142ff565b611075565b005b34801561047c57600080fd5b506104976004803603810190610492919061462c565b611160565b6040516104a4919061505a565b60405180910390f35b3480156104b957600080fd5b506104d460048036038101906104cf919061410b565b6112d5565b005b3480156104e257600080fd5b506104fd60048036038101906104f89190614558565b6112f5565b60405161050a919061505a565b60405180910390f35b34801561051f57600080fd5b5061053a60048036038101906105359190614729565b61148a565b6040516105479190614f0c565b60405180910390f35b34801561055c57600080fd5b506105776004803603810190610572919061434e565b61153c565b005b34801561058557600080fd5b506105a0600480360381019061059b9190614558565b61170b565b6040516105ad919061505a565b60405180910390f35b3480156105c257600080fd5b506105dd60048036038101906105d891906140a6565b611a12565b6040516105ea919061537f565b60405180910390f35b3480156105ff57600080fd5b5061061a600480360381019061061591906140a6565b611aca565b604051610627919061537f565b60405180910390f35b34801561063c57600080fd5b50610645611adf565b6040516106529190614f0c565b60405180910390f35b34801561066757600080fd5b50610670611b05565b60405161067d91906150e2565b60405180910390f35b34801561069257600080fd5b506106ad60048036038101906106a891906141d5565b611b97565b005b3480156106bb57600080fd5b506106c4611bad565b6040516106d19190614f0c565b60405180910390f35b3480156106e657600080fd5b5061070160048036038101906106fc91906146bf565b611bd1565b60405161070f92919061507c565b60405180910390f35b34801561072457600080fd5b5061073f600480360381019061073a919061415a565b611e43565b005b34801561074d57600080fd5b50610756611ea5565b6040516107639190614f0c565b60405180910390f35b34801561077857600080fd5b50610793600480360381019061078e9190614729565b611ec9565b6040516107a091906150e2565b60405180910390f35b3480156107b557600080fd5b506107d060048036038101906107cb9190614211565b611f31565b6040516107dd919061537f565b60405180910390f35b3480156107f257600080fd5b506107fb61205b565b60405161080891906150c7565b60405180910390f35b61082b6004803603810190610826919061477b565b612061565b005b34801561083957600080fd5b50610854600480360381019061084f91906140cf565b6121f5565b60405161086191906150ac565b60405180910390f35b34801561087657600080fd5b50610891600480360381019061088c91906145c2565b612289565b60405161089f92919061507c565b60405180910390f35b3480156108b457600080fd5b506108cf60048036038101906108ca919061466d565b6124af565b6040516108de9392919061549d565b60405180910390f35b3480156108f357600080fd5b5061090e60048036038101906109099190614603565b612637565b60405161091b919061537f565b60405180910390f35b34801561093057600080fd5b5061094b6004803603810190610946919061462c565b6127bb565b604051610958919061505a565b60405180910390f35b60007f80ac58cd000000000000000000000000000000000000000000000000000000007bffffffffffffffffffffffffffffffffffffffffffffffffffffffff1916827bffffffffffffffffffffffffffffffffffffffffffffffffffffffff19161480610a2c57507f5b5e139f000000000000000000000000000000000000000000000000000000007bffffffffffffffffffffffffffffffffffffffffffffffffffffffff1916827bffffffffffffffffffffffffffffffffffffffffffffffffffffffff1916145b80610a3c5750610a3b8261293c565b5b9050919050565b606060008054610a52906158d6565b80601f0160208091040260200160405190810160405280929190818152602001828054610a7e906158d6565b8015610acb5780601f10610aa057610100808354040283529160200191610acb565b820191906000526020600020905b815481529060010190602001808311610aae57829003601f168201915b5050505050905090565b6000610ae0826129a6565b6004600083815260200190815260200160002060009054906101000a900473ffffffffffffffffffffffffffffffffffffffff169050919050565b6000610b268261148a565b90508073ffffffffffffffffffffffffffffffffffffffff168373ffffffffffffffffffffffffffffffffffffffff161415610b97576040517f08c379a0000000000000000000000000000000000000000000000000000000008152600401610b8e90615224565b60405180910390fd5b8073ffffffffffffffffffffffffffffffffffffffff16610bb66129f1565b73ffffffffffffffffffffffffffffffffffffffff161480610be55750610be481610bdf6129f1565b6121f5565b5b610c24576040517f08c379a0000000000000000000000000000000000000000000000000000000008152600401610c1b90615284565b60405180910390fd5b610c2e83836129f9565b505050565b6000471115610c4757610c463347612ab2565b5b565b60008060606000806000610c897f0000000000000000000000000000000000000000000000000000000000000000610c818b8b612bd8565b600754612c0b565b73ffffffffffffffffffffffffffffffffffffffff1663365a5306886040518263ffffffff1660e01b8152600401610cc1919061537f565b60006040518083038186803b158015610cd957600080fd5b505afa158015610ced573d6000803e3d6000fd5b505050506040513d6000823e3d601f19601f82011682018060405250810190610d1691906147b7565b95509550955095509550955093975093979195509350565b60008160800135610d3e81612c44565b6000610d9a7f0000000000000000000000000000000000000000000000000000000000000000610d92866000016020810190610d7a91906140a6565b876020016020810190610d8d9190614700565b612bd8565b600754612c0b565b9050610dac8133838760400135612c8a565b8073ffffffffffffffffffffffffffffffffffffffff1663192fdf10856060016020810190610ddb91906140a6565b6040518263ffffffff1660e01b8152600401610df79190614f0c565b602060405180830381600087803b158015610e1157600080fd5b505af1158015610e25573d6000803e3d6000fd5b505050506040513d601f19601f82011682018060405250810190610e499190614752565b92508073ffffffffffffffffffffffffffffffffffffffff167f62f6d78e7bcbb50bd3c10735875875bc356251f9cd9a543e413a0b583f25e66784604051610e91919061537f565b60405180910390a25050919050565b60608160400135610eb081612df3565b8260a00135610ebe81612c44565b6000610f1a7f0000000000000000000000000000000000000000000000000000000000000000610f12876000016020810190610efa91906140a6565b886020016020810190610f0d9190614700565b612bd8565b600754612c0b565b90508073ffffffffffffffffffffffffffffffffffffffff166328cad17f866040013587606001356040518363ffffffff1660e01b8152600401610f5f929190615474565b600060405180830381600087803b158015610f7957600080fd5b505af1158015610f8d573d6000803e3d6000fd5b505050506040513d6000823e3d601f19601f82011682018060405250810190610fb69190614448565b93508073ffffffffffffffffffffffffffffffffffffffff167f94c818c3a5e244f9dd05c568f7aa015b84e3f48514646a5097b0bf11946dec9786604001358651604051611005929190615474565b60405180910390a2505050919050565b6110266110206129f1565b82612e3f565b611065576040517f08c379a000000000000000000000000000000000000000000000000000000000815260040161105c90615284565b60405180910390fd5b611070838383612ed4565b505050565b60008373ffffffffffffffffffffffffffffffffffffffff166370a08231306040518263ffffffff1660e01b81526004016110b09190614f0c565b60206040518083038186803b1580156110c857600080fd5b505afa1580156110dc573d6000803e3d6000fd5b505050506040513d601f19601f820116820180604052508101906111009190614752565b905082811015611145576040517f08c379a000000000000000000000000000000000000000000000000000000000815260040161113c90615344565b60405180910390fd5b600081111561115a5761115984838361313b565b5b50505050565b6060816040013561117081612df3565b8260c0013561117e81612c44565b60006111da7f00000000000000000000000000000000000000000000000000000000000000006111d28760000160208101906111ba91906140a6565b8860200160208101906111cd9190614700565b612bd8565b600754612c0b565b90508073ffffffffffffffffffffffffffffffffffffffff16631931b913866040013587608001356040518363ffffffff1660e01b815260040161121f929190615474565b600060405180830381600087803b15801561123957600080fd5b505af115801561124d573d6000803e3d6000fd5b505050506040513d6000823e3d601f19601f820116820180604052508101906112769190614448565b93508073ffffffffffffffffffffffffffffffffffffffff167feb1596d05db20c76223bbd8e39b366576fbe7cfb82f7e631e4516730f87688a5866040013586516040516112c5929190615474565b60405180910390a2505050919050565b6112f083838360405180602001604052806000815250611e43565b505050565b6060816040013561130581612df3565b8260a0013561131381612c44565b600061136f7f000000000000000000000000000000000000000000000000000000000000000061136787600001602081019061134f91906140a6565b8860200160208101906113629190614700565b612bd8565b600754612c0b565b90508073ffffffffffffffffffffffffffffffffffffffff1663ea940b1d86604001358780606001906113a29190615577565b8960800160208101906113b591906140a6565b6040518563ffffffff1660e01b81526004016113d49493929190615434565b600060405180830381600087803b1580156113ee57600080fd5b505af1158015611402573d6000803e3d6000fd5b505050506040513d6000823e3d601f19601f8201168201806040525081019061142b9190614448565b93508073ffffffffffffffffffffffffffffffffffffffff167fb6d5e283ea17fb28d716209725e4af31b3e6b02a0c083e427b87e0fe7554a2b98660400135865160405161147a929190615474565b60405180910390a2505050919050565b6000806002600084815260200190815260200160002060009054906101000a900473ffffffffffffffffffffffffffffffffffffffff169050600073ffffffffffffffffffffffffffffffffffffffff168173ffffffffffffffffffffffffffffffffffffffff161415611533576040517f08c379a000000000000000000000000000000000000000000000000000000000815260040161152a90615304565b60405180910390fd5b80915050919050565b6000828281019061154d9190614696565b905061158d7f000000000000000000000000000000000000000000000000000000000000000061158583602001518460400151612bd8565b600754612c0b565b73ffffffffffffffffffffffffffffffffffffffff163373ffffffffffffffffffffffffffffffffffffffff16146115fa576040517f08c379a00000000000000000000000000000000000000000000000000000000081526004016115f190615264565b60405180910390fd5b60005b88889050811015611700576000878783818110611643577f4e487b7100000000000000000000000000000000000000000000000000000000600052603260045260246000fd5b9050602002013511156116ed576116ec89898381811061168c577f4e487b7100000000000000000000000000000000000000000000000000000000600052603260045260246000fd5b90506020020160208101906116a191906140a6565b8360000151878a8a868181106116e0577f4e487b7100000000000000000000000000000000000000000000000000000000600052603260045260246000fd5b90506020020135612c8a565b5b80806116f890615939565b9150506115fd565b505050505050505050565b6060816040013561171b81612df3565b8260a0013561172981612c44565b60006117857f000000000000000000000000000000000000000000000000000000000000000061177d87600001602081019061176591906140a6565b8860200160208101906117789190614700565b612bd8565b600754612c0b565b905060008173ffffffffffffffffffffffffffffffffffffffff16639d63848a6040518163ffffffff1660e01b815260040160006040518083038186803b1580156117cf57600080fd5b505afa1580156117e3573d6000803e3d6000fd5b505050506040513d6000823e3d601f19601f8201168201806040525081019061180c9190614407565b905060005b815181101561191d57600087806060019061182c9190615577565b83818110611863577f4e487b7100000000000000000000000000000000000000000000000000000000600052603260045260246000fd5b90506020020135111561190a576119098282815181106118ac577f4e487b7100000000000000000000000000000000000000000000000000000000600052603260045260246000fd5b602002602001015133858a80606001906118c69190615577565b868181106118fd577f4e487b7100000000000000000000000000000000000000000000000000000000600052603260045260246000fd5b90506020020135612c8a565b5b808061191590615939565b915050611811565b508173ffffffffffffffffffffffffffffffffffffffff1663b8a8383487604001356040518263ffffffff1660e01b815260040161195b919061537f565b600060405180830381600087803b15801561197557600080fd5b505af1158015611989573d6000803e3d6000fd5b505050506040513d6000823e3d601f19601f820116820180604052508101906119b29190614448565b94508173ffffffffffffffffffffffffffffffffffffffff167fc266471a74a2eb6003f7af3fa89eedcefba25d07d90cc910a21136c2fab4671887604001358751604051611a01929190615474565b60405180910390a250505050919050565b60008073ffffffffffffffffffffffffffffffffffffffff168273ffffffffffffffffffffffffffffffffffffffff161415611a83576040517f08c379a0000000000000000000000000000000000000000000000000000000008152600401611a7a90615244565b60405180910390fd5b600360008373ffffffffffffffffffffffffffffffffffffffff1673ffffffffffffffffffffffffffffffffffffffff168152602001908152602001600020549050919050565b600060019050611ada82826132c5565b919050565b600660009054906101000a900473ffffffffffffffffffffffffffffffffffffffff1681565b606060018054611b14906158d6565b80601f0160208091040260200160405190810160405280929190818152602001828054611b40906158d6565b8015611b8d5780601f10611b6257610100808354040283529160200191611b8d565b820191906000526020600020905b815481529060010190602001808311611b7057829003601f168201915b5050505050905090565b611ba9611ba26129f1565b83836132e3565b5050565b7f000000000000000000000000000000000000000000000000000000000000000081565b606060008260a00135611be381612c44565b6000611c3f7f0000000000000000000000000000000000000000000000000000000000000000611c37876000016020810190611c1f91906140a6565b886020016020810190611c329190614700565b612bd8565b600754612c0b565b9050611c518133838860400135612c8a565b8073ffffffffffffffffffffffffffffffffffffffff16630cfba8eb866080016020810190611c8091906140a6565b6040518263ffffffff1660e01b8152600401611c9c9190614f0c565b600060405180830381600087803b158015611cb657600080fd5b505af1158015611cca573d6000803e3d6000fd5b505050506040513d6000823e3d601f19601f82011682018060405250810190611cf39190614489565b809450819550505060005b8451811015611dea57858060600190611d179190615577565b82818110611d4e577f4e487b7100000000000000000000000000000000000000000000000000000000600052603260045260246000fd5b90506020020135858281518110611d8e577f4e487b7100000000000000000000000000000000000000000000000000000000600052603260045260246000fd5b60200260200101511015611dd7576040517f08c379a0000000000000000000000000000000000000000000000000000000008152600401611dce906151e4565b60405180910390fd5b8080611de290615939565b915050611cfe565b508073ffffffffffffffffffffffffffffffffffffffff167faf06b38c933b9743183cbbfe9d487f5412d3db4dd8439ee763c9b6e0de8ed16a855185604051611e34929190615474565b60405180910390a25050915091565b611e54611e4e6129f1565b83612e3f565b611e93576040517f08c379a0000000000000000000000000000000000000000000000000000000008152600401611e8a90615284565b60405180910390fd5b611e9f84848484613450565b50505050565b7f000000000000000000000000000000000000000000000000000000000000000081565b6060611ed4826129a6565b6000611ede6134ac565b90506000815111611efe5760405180602001604052806000815250611f29565b80611f08846134c3565b604051602001611f19929190614ea0565b6040516020818303038152906040525b915050919050565b600081611f3d81612c44565b6000611f757f0000000000000000000000000000000000000000000000000000000000000000611f6d8989612bd8565b600754612c0b565b90508073ffffffffffffffffffffffffffffffffffffffff166365ec1a456040518163ffffffff1660e01b8152600401602060405180830381600087803b158015611fbf57600080fd5b505af1158015611fd3573d6000803e3d6000fd5b505050506040513d601f19601f82011682018060405250810190611ff79190614752565b925061200385846132c5565b8073ffffffffffffffffffffffffffffffffffffffff167f4de94521522d62c755d4cf054fa8bdbd5519675ea0fb02cebde40abcaf44560184604051612049919061537f565b60405180910390a25050949350505050565b60075481565b60007f000000000000000000000000000000000000000000000000000000000000000073ffffffffffffffffffffffffffffffffffffffff166370a08231306040518263ffffffff1660e01b81526004016120bc9190614f0c565b60206040518083038186803b1580156120d457600080fd5b505afa1580156120e8573d6000803e3d6000fd5b505050506040513d601f19601f8201168201806040525081019061210c9190614752565b905082811015612151576040517f08c379a000000000000000000000000000000000000000000000000000000000815260040161214890615184565b60405180910390fd5b60008111156121f0577f000000000000000000000000000000000000000000000000000000000000000073ffffffffffffffffffffffffffffffffffffffff16632e1a7d4d826040518263ffffffff1660e01b81526004016121b3919061537f565b600060405180830381600087803b1580156121cd57600080fd5b505af11580156121e1573d6000803e3d6000fd5b505050506121ef8282612ab2565b5b505050565b6000600560008473ffffffffffffffffffffffffffffffffffffffff1673ffffffffffffffffffffffffffffffffffffffff16815260200190815260200160002060008373ffffffffffffffffffffffffffffffffffffffff1673ffffffffffffffffffffffffffffffffffffffff16815260200190815260200160002060009054906101000a900460ff16905092915050565b606060008260a0013561229b81612c44565b60006122f77f00000000000000000000000000000000000000000000000000000000000000006122ef8760000160208101906122d791906140a6565b8860800160208101906122ea9190614700565b612bd8565b600754612c0b565b90508073ffffffffffffffffffffffffffffffffffffffff166354fe2a9686600001602081019061232891906140a6565b8780602001906123389190615577565b8980604001906123489190615577565b60405180606001604052803373ffffffffffffffffffffffffffffffffffffffff1681526020018d600001602081019061238291906140a6565b73ffffffffffffffffffffffffffffffffffffffff1681526020018d60800160208101906123b09190614700565b62ffffff168152506040516020016123c89190615364565b6040516020818303038152906040526040518763ffffffff1660e01b81526004016123f896959493929190614faa565b600060405180830381600087803b15801561241257600080fd5b505af1158015612426573d6000803e3d6000fd5b505050506040513d6000823e3d601f19601f8201168201806040525081019061244f9190614489565b80945081955050508073ffffffffffffffffffffffffffffffffffffffff167f36432ff15f1256eb7856f69aa1c31276f952f466314ff629320db92a41fc6c968551856040516124a0929190615474565b60405180910390a25050915091565b600080606083604001356124c281612df3565b8460a001356124d081612c44565b600061252c7f000000000000000000000000000000000000000000000000000000000000000061252489600001602081019061250c91906140a6565b8a602001602081019061251f9190614700565b612bd8565b600754612c0b565b90508073ffffffffffffffffffffffffffffffffffffffff1663db02f9cb886040013589606001356040518363ffffffff1660e01b8152600401612571929190615474565b600060405180830381600087803b15801561258b57600080fd5b505af115801561259f573d6000803e3d6000fd5b505050506040513d6000823e3d601f19601f820116820180604052508101906125c89190614858565b8096508197508298505050508073ffffffffffffffffffffffffffffffffffffffff167fcda2310868a9efec32c16560b8774c821808605f0c40622ca53baa94dab11c8e88604001358888885160405161262594939291906154db565b60405180910390a25050509193909250565b6000816080013561264781612c44565b60006126a37f000000000000000000000000000000000000000000000000000000000000000061269b86600001602081019061268391906140a6565b8760200160208101906126969190614700565b612bd8565b600754612c0b565b90506126c78460000160208101906126bb91906140a6565b33838760400135612c8a565b8073ffffffffffffffffffffffffffffffffffffffff166365418ef58560600160208101906126f691906140a6565b6040518263ffffffff1660e01b81526004016127129190614f0c565b602060405180830381600087803b15801561272c57600080fd5b505af1158015612740573d6000803e3d6000fd5b505050506040513d601f19601f820116820180604052508101906127649190614752565b92508073ffffffffffffffffffffffffffffffffffffffff167fc1e9289541827020cbcec2b1510bd9aed3740c65f7082bb7b3ee6a443bcc955f846040516127ac919061537f565b60405180910390a25050919050565b606081604001356127cb81612df3565b8260c001356127d981612c44565b60006128357f000000000000000000000000000000000000000000000000000000000000000061282d87600001602081019061281591906140a6565b8860200160208101906128289190614700565b612bd8565b600754612c0b565b90508073ffffffffffffffffffffffffffffffffffffffff16632a9bc3f686604001358780606001906128689190615520565b6040518463ffffffff1660e01b815260040161288693929190615402565b600060405180830381600087803b1580156128a057600080fd5b505af11580156128b4573d6000803e3d6000fd5b505050506040513d6000823e3d601f19601f820116820180604052508101906128dd9190614448565b93508073ffffffffffffffffffffffffffffffffffffffff167feb739e96034f17cb5df06b433bcd8bc7652d10e897a9a73793cd73fed9a1c4768660400135865160405161292c929190615474565b60405180910390a2505050919050565b60007f01ffc9a7000000000000000000000000000000000000000000000000000000007bffffffffffffffffffffffffffffffffffffffffffffffffffffffff1916827bffffffffffffffffffffffffffffffffffffffffffffffffffffffff1916149050919050565b6129af81613670565b6129ee576040517f08c379a00000000000000000000000000000000000000000000000000000000081526004016129e590615304565b60405180910390fd5b50565b600033905090565b816004600083815260200190815260200160002060006101000a81548173ffffffffffffffffffffffffffffffffffffffff021916908373ffffffffffffffffffffffffffffffffffffffff160217905550808273ffffffffffffffffffffffffffffffffffffffff16612a6c8361148a565b73ffffffffffffffffffffffffffffffffffffffff167f8c5be1e5ebec7d5bd14f71427d1e84f3dd0314c0f7b2291e5b200ac8c7c3b92560405160405180910390a45050565b60008273ffffffffffffffffffffffffffffffffffffffff1682600067ffffffffffffffff811115612b0d577f4e487b7100000000000000000000000000000000000000000000000000000000600052604160045260246000fd5b6040519080825280601f01601f191660200182016040528015612b3f5781602001600182028036833780820191505090505b50604051612b4d9190614e89565b60006040518083038185875af1925050503d8060008114612b8a576040519150601f19603f3d011682016040523d82523d6000602084013e612b8f565b606091505b5050905080612bd3576040517f08c379a0000000000000000000000000000000000000000000000000000000008152600401612bca90615204565b60405180910390fd5b505050565b60008282604051602001612bed929190615008565b60405160208183030381529060405280519060200120905092915050565b6000838383604051602001612c2293929190614ec4565b6040516020818303038152906040528051906020012060001c90509392505050565b42811015612c87576040517f08c379a0000000000000000000000000000000000000000000000000000000008152600401612c7e90615324565b60405180910390fd5b50565b7f000000000000000000000000000000000000000000000000000000000000000073ffffffffffffffffffffffffffffffffffffffff168473ffffffffffffffffffffffffffffffffffffffff16148015612ce55750804710155b15612d9b577f000000000000000000000000000000000000000000000000000000000000000073ffffffffffffffffffffffffffffffffffffffff1663d0e30db0826040518263ffffffff1660e01b81526004016000604051808303818588803b158015612d5257600080fd5b505af1158015612d66573d6000803e3d6000fd5b5050505050612d967f0000000000000000000000000000000000000000000000000000000000000000838361313b565b612ded565b3073ffffffffffffffffffffffffffffffffffffffff168373ffffffffffffffffffffffffffffffffffffffff161415612ddf57612dda84838361313b565b612dec565b612deb848484846136dc565b5b5b50505050565b612dfd3382612e3f565b612e3c576040517f08c379a0000000000000000000000000000000000000000000000000000000008152600401612e3390615264565b60405180910390fd5b50565b600080612e4b8361148a565b90508073ffffffffffffffffffffffffffffffffffffffff168473ffffffffffffffffffffffffffffffffffffffff161480612e8d5750612e8c81856121f5565b5b80612ecb57508373ffffffffffffffffffffffffffffffffffffffff16612eb384610ad5565b73ffffffffffffffffffffffffffffffffffffffff16145b91505092915050565b8273ffffffffffffffffffffffffffffffffffffffff16612ef48261148a565b73ffffffffffffffffffffffffffffffffffffffff1614612f4a576040517f08c379a0000000000000000000000000000000000000000000000000000000008152600401612f4190615144565b60405180910390fd5b600073ffffffffffffffffffffffffffffffffffffffff168273ffffffffffffffffffffffffffffffffffffffff161415612fba576040517f08c379a0000000000000000000000000000000000000000000000000000000008152600401612fb1906151a4565b60405180910390fd5b612fc583838361384c565b612fd06000826129f9565b6001600360008573ffffffffffffffffffffffffffffffffffffffff1673ffffffffffffffffffffffffffffffffffffffff168152602001908152602001600020600082825461302091906157c9565b925050819055506001600360008473ffffffffffffffffffffffffffffffffffffffff1673ffffffffffffffffffffffffffffffffffffffff16815260200190815260200160002060008282546130779190615742565b92505081905550816002600083815260200190815260200160002060006101000a81548173ffffffffffffffffffffffffffffffffffffffff021916908373ffffffffffffffffffffffffffffffffffffffff160217905550808273ffffffffffffffffffffffffffffffffffffffff168473ffffffffffffffffffffffffffffffffffffffff167fddf252ad1be2c89b69c2b068fc378daa952ba7f163c4a11628f55a4df523b3ef60405160405180910390a4613136838383613851565b505050565b6000808473ffffffffffffffffffffffffffffffffffffffff166040518060400160405280601981526020017f7472616e7366657228616464726573732c75696e7432353629000000000000008152508051906020012085856040516024016131a5929190615031565b604051602081830303815290604052907bffffffffffffffffffffffffffffffffffffffffffffffffffffffff19166020820180517bffffffffffffffffffffffffffffffffffffffffffffffffffffffff838183161783525050505060405161320f9190614e89565b6000604051808303816000865af19150503d806000811461324c576040519150601f19603f3d011682016040523d82523d6000602084013e613251565b606091505b509150915081801561327f575060008151148061327e57508080602001905181019061327d91906144dd565b5b5b6132be576040517f08c379a00000000000000000000000000000000000000000000000000000000081526004016132b5906152c4565b60405180910390fd5b5050505050565b6132df828260405180602001604052806000815250613856565b5050565b8173ffffffffffffffffffffffffffffffffffffffff168373ffffffffffffffffffffffffffffffffffffffff161415613352576040517f08c379a0000000000000000000000000000000000000000000000000000000008152600401613349906151c4565b60405180910390fd5b80600560008573ffffffffffffffffffffffffffffffffffffffff1673ffffffffffffffffffffffffffffffffffffffff16815260200190815260200160002060008473ffffffffffffffffffffffffffffffffffffffff1673ffffffffffffffffffffffffffffffffffffffff16815260200190815260200160002060006101000a81548160ff0219169083151502179055508173ffffffffffffffffffffffffffffffffffffffff168373ffffffffffffffffffffffffffffffffffffffff167f17307eab39ab6107e8899845ad3d59bd9653f200f220920489ca2b5937696c318360405161344391906150ac565b60405180910390a3505050565b61345b848484612ed4565b613467848484846138b1565b6134a6576040517f08c379a000000000000000000000000000000000000000000000000000000000815260040161349d90615124565b60405180910390fd5b50505050565b606060405180602001604052806000815250905090565b6060600082141561350b576040518060400160405280600181526020017f3000000000000000000000000000000000000000000000000000000000000000815250905061366b565b600082905060005b6000821461353d57808061352690615939565b915050600a826135369190615798565b9150613513565b60008167ffffffffffffffff81111561357f577f4e487b7100000000000000000000000000000000000000000000000000000000600052604160045260246000fd5b6040519080825280601f01601f1916602001820160405280156135b15781602001600182028036833780820191505090505b5090505b60008514613664576001826135ca91906157c9565b9150600a856135d991906159b0565b60306135e59190615742565b60f81b818381518110613621577f4e487b7100000000000000000000000000000000000000000000000000000000600052603260045260246000fd5b60200101907effffffffffffffffffffffffffffffffffffffffffffffffffffffffffffff1916908160001a905350600a8561365d9190615798565b94506135b5565b8093505050505b919050565b60008073ffffffffffffffffffffffffffffffffffffffff166002600084815260200190815260200160002060009054906101000a900473ffffffffffffffffffffffffffffffffffffffff1673ffffffffffffffffffffffffffffffffffffffff1614159050919050565b6000808573ffffffffffffffffffffffffffffffffffffffff16604051806060016040528060258152602001615f12602591398051906020012086868660405160240161372b93929190614f27565b604051602081830303815290604052907bffffffffffffffffffffffffffffffffffffffffffffffffffffffff19166020820180517bffffffffffffffffffffffffffffffffffffffffffffffffffffffff83818316178352505050506040516137959190614e89565b6000604051808303816000865af19150503d80600081146137d2576040519150601f19603f3d011682016040523d82523d6000602084013e6137d7565b606091505b5091509150818015613805575060008151148061380457508080602001905181019061380391906144dd565b5b5b613844576040517f08c379a000000000000000000000000000000000000000000000000000000000815260040161383b906152e4565b60405180910390fd5b505050505050565b505050565b505050565b6138608383613a48565b61386d60008484846138b1565b6138ac576040517f08c379a00000000000000000000000000000000000000000000000000000000081526004016138a390615124565b60405180910390fd5b505050565b60006138d28473ffffffffffffffffffffffffffffffffffffffff16613c22565b15613a3b578373ffffffffffffffffffffffffffffffffffffffff1663150b7a026138fb6129f1565b8786866040518563ffffffff1660e01b815260040161391d9493929190614f5e565b602060405180830381600087803b15801561393757600080fd5b505af192505050801561396857506040513d601f19601f82011682018060405250810190613965919061452f565b60015b6139eb573d8060008114613998576040519150601f19603f3d011682016040523d82523d6000602084013e61399d565b606091505b506000815114156139e3576040517f08c379a00000000000000000000000000000000000000000000000000000000081526004016139da90615124565b60405180910390fd5b805181602001fd5b63150b7a0260e01b7bffffffffffffffffffffffffffffffffffffffffffffffffffffffff1916817bffffffffffffffffffffffffffffffffffffffffffffffffffffffff191614915050613a40565b600190505b949350505050565b600073ffffffffffffffffffffffffffffffffffffffff168273ffffffffffffffffffffffffffffffffffffffff161415613ab8576040517f08c379a0000000000000000000000000000000000000000000000000000000008152600401613aaf906152a4565b60405180910390fd5b613ac181613670565b15613b01576040517f08c379a0000000000000000000000000000000000000000000000000000000008152600401613af890615164565b60405180910390fd5b613b0d6000838361384c565b6001600360008473ffffffffffffffffffffffffffffffffffffffff1673ffffffffffffffffffffffffffffffffffffffff1681526020019081526020016000206000828254613b5d9190615742565b92505081905550816002600083815260200190815260200160002060006101000a81548173ffffffffffffffffffffffffffffffffffffffff021916908373ffffffffffffffffffffffffffffffffffffffff160217905550808273ffffffffffffffffffffffffffffffffffffffff16600073ffffffffffffffffffffffffffffffffffffffff167fddf252ad1be2c89b69c2b068fc378daa952ba7f163c4a11628f55a4df523b3ef60405160405180910390a4613c1e60008383613851565b5050565b6000808273ffffffffffffffffffffffffffffffffffffffff163b119050919050565b6000613c58613c53846155f3565b6155ce565b90508083825260208201905082856020860282011115613c7757600080fd5b60005b85811015613ca75781613c8d8882613d70565b845260208401935060208301925050600181019050613c7a565b5050509392505050565b6000613cc4613cbf8461561f565b6155ce565b90508083825260208201905082856020860282011115613ce357600080fd5b60005b85811015613d135781613cf98882614091565b845260208401935060208301925050600181019050613ce6565b5050509392505050565b6000613d30613d2b8461564b565b6155ce565b905082815260208101848484011115613d4857600080fd5b613d53848285615894565b509392505050565b600081359050613d6a81615e87565b92915050565b600081519050613d7f81615e87565b92915050565b60008083601f840112613d9757600080fd5b8235905067ffffffffffffffff811115613db057600080fd5b602083019150836020820283011115613dc857600080fd5b9250929050565b600082601f830112613de057600080fd5b8151613df0848260208601613c45565b91505092915050565b60008083601f840112613e0b57600080fd5b8235905067ffffffffffffffff811115613e2457600080fd5b602083019150836020820283011115613e3c57600080fd5b9250929050565b600082601f830112613e5457600080fd5b8151613e64848260208601613cb1565b91505092915050565b600081359050613e7c81615e9e565b92915050565b600081519050613e9181615e9e565b92915050565b600081359050613ea681615eb5565b92915050565b600081519050613ebb81615eb5565b92915050565b60008083601f840112613ed357600080fd5b8235905067ffffffffffffffff811115613eec57600080fd5b602083019150836001820283011115613f0457600080fd5b9250929050565b600082601f830112613f1c57600080fd5b8135613f2c848260208601613d1d565b91505092915050565b600081359050613f4481615ecc565b92915050565b600060c08284031215613f5c57600080fd5b81905092915050565b600060c08284031215613f7757600080fd5b81905092915050565b600060c08284031215613f9257600080fd5b81905092915050565b600060a08284031215613fad57600080fd5b81905092915050565b600060e08284031215613fc857600080fd5b81905092915050565b600060c08284031215613fe357600080fd5b81905092915050565b600060608284031215613ffe57600080fd5b61400860606155ce565b9050600061401884828501613d5b565b600083015250602061402c84828501613d5b565b602083015250604061404084828501614067565b60408301525092915050565b600060c0828403121561405e57600080fd5b81905092915050565b60008135905061407681615ee3565b92915050565b60008135905061408b81615efa565b92915050565b6000815190506140a081615efa565b92915050565b6000602082840312156140b857600080fd5b60006140c684828501613d5b565b91505092915050565b600080604083850312156140e257600080fd5b60006140f085828601613d5b565b925050602061410185828601613d5b565b9150509250929050565b60008060006060848603121561412057600080fd5b600061412e86828701613d5b565b935050602061413f86828701613d5b565b92505060406141508682870161407c565b9150509250925092565b6000806000806080858703121561417057600080fd5b600061417e87828801613d5b565b945050602061418f87828801613d5b565b93505060406141a08782880161407c565b925050606085013567ffffffffffffffff8111156141bd57600080fd5b6141c987828801613f0b565b91505092959194509250565b600080604083850312156141e857600080fd5b60006141f685828601613d5b565b925050602061420785828601613e6d565b9150509250929050565b6000806000806080858703121561422757600080fd5b600061423587828801613d5b565b945050602061424687828801614067565b935050604061425787828801613d5b565b92505060606142688782880161407c565b91505092959194509250565b60008060006060848603121561428957600080fd5b600061429786828701613d5b565b93505060206142a886828701614067565b92505060406142b98682870161407c565b9150509250925092565b600080604083850312156142d657600080fd5b60006142e485828601613d5b565b92505060206142f58582860161407c565b9150509250929050565b60008060006060848603121561431457600080fd5b600061432286828701613d5b565b93505060206143338682870161407c565b925050604061434486828701613d5b565b9150509250925092565b60008060008060008060006080888a03121561436957600080fd5b600088013567ffffffffffffffff81111561438357600080fd5b61438f8a828b01613d85565b9750975050602088013567ffffffffffffffff8111156143ae57600080fd5b6143ba8a828b01613df9565b955095505060406143cd8a828b01613d5b565b935050606088013567ffffffffffffffff8111156143ea57600080fd5b6143f68a828b01613ec1565b925092505092959891949750929550565b60006020828403121561441957600080fd5b600082015167ffffffffffffffff81111561443357600080fd5b61443f84828501613dcf565b91505092915050565b60006020828403121561445a57600080fd5b600082015167ffffffffffffffff81111561447457600080fd5b61448084828501613e43565b91505092915050565b6000806040838503121561449c57600080fd5b600083015167ffffffffffffffff8111156144b657600080fd5b6144c285828601613e43565b92505060206144d385828601614091565b9150509250929050565b6000602082840312156144ef57600080fd5b60006144fd84828501613e82565b91505092915050565b60006020828403121561451857600080fd5b600061452684828501613e97565b91505092915050565b60006020828403121561454157600080fd5b600061454f84828501613eac565b91505092915050565b60006020828403121561456a57600080fd5b600082013567ffffffffffffffff81111561458457600080fd5b61459084828501613f4a565b91505092915050565b600060c082840312156145ab57600080fd5b60006145b984828501613f65565b91505092915050565b6000602082840312156145d457600080fd5b600082013567ffffffffffffffff8111156145ee57600080fd5b6145fa84828501613f80565b91505092915050565b600060a0828403121561461557600080fd5b600061462384828501613f9b565b91505092915050565b60006020828403121561463e57600080fd5b600082013567ffffffffffffffff81111561465857600080fd5b61466484828501613fb6565b91505092915050565b600060c0828403121561467f57600080fd5b600061468d84828501613fd1565b91505092915050565b6000606082840312156146a857600080fd5b60006146b684828501613fec565b91505092915050565b6000602082840312156146d157600080fd5b600082013567ffffffffffffffff8111156146eb57600080fd5b6146f78482850161404c565b91505092915050565b60006020828403121561471257600080fd5b600061472084828501614067565b91505092915050565b60006020828403121561473b57600080fd5b60006147498482850161407c565b91505092915050565b60006020828403121561476457600080fd5b600061477284828501614091565b91505092915050565b6000806040838503121561478e57600080fd5b600061479c8582860161407c565b92505060206147ad85828601613d5b565b9150509250929050565b60008060008060008060c087890312156147d057600080fd5b60006147de89828a01614091565b96505060206147ef89828a01613d70565b955050604087015167ffffffffffffffff81111561480c57600080fd5b61481889828a01613e43565b945050606061482989828a01614091565b935050608061483a89828a01614091565b92505060a061484b89828a01614091565b9150509295509295509295565b60008060006060848603121561486d57600080fd5b600061487b86828701614091565b935050602061488c86828701614091565b925050604084015167ffffffffffffffff8111156148a957600080fd5b6148b586828701613e43565b9150509250925092565b60006148cb8383614ad6565b60208301905092915050565b60006148e38383614e6b565b60208301905092915050565b6148f8816157fd565b82525050565b614907816157fd565b82525050565b61491e614919826157fd565b615982565b82525050565b600061493083856156d1565b935061493b8261567c565b8060005b8581101561497457614951828461572b565b61495b88826148bf565b9750614966836156b7565b92505060018101905061493f565b5085925050509392505050565b600061498d83856156e2565b93507f07ffffffffffffffffffffffffffffffffffffffffffffffffffffffffffffff8311156149bc57600080fd5b6020830292506149cd838584615894565b82840190509392505050565b60006149e482615696565b6149ee81856156e2565b93506149f983615686565b8060005b83811015614a2a578151614a1188826148d7565b9750614a1c836156c4565b9250506001810190506149fd565b5085935050505092915050565b614a408161580f565b82525050565b614a4f8161581b565b82525050565b614a66614a618261581b565b615994565b82525050565b6000614a77826156a1565b614a8181856156f3565b9350614a918185602086016158a3565b614a9a81615a9d565b840191505092915050565b6000614ab0826156a1565b614aba8185615704565b9350614aca8185602086016158a3565b80840191505092915050565b614adf81615851565b82525050565b6000614af0826156ac565b614afa818561570f565b9350614b0a8185602086016158a3565b614b1381615a9d565b840191505092915050565b6000614b29826156ac565b614b338185615720565b9350614b438185602086016158a3565b80840191505092915050565b6000614b5c60088361570f565b9150614b6782615abb565b602082019050919050565b6000614b7f60328361570f565b9150614b8a82615ae4565b604082019050919050565b6000614ba260258361570f565b9150614bad82615b33565b604082019050919050565b6000614bc5601c8361570f565b9150614bd082615b82565b602082019050919050565b6000614be860108361570f565b9150614bf382615bab565b602082019050919050565b6000614c0b60248361570f565b9150614c1682615bd4565b604082019050919050565b6000614c2e60198361570f565b9150614c3982615c23565b602082019050919050565b6000614c5160058361570f565b9150614c5c82615c4c565b602082019050919050565b6000614c7460038361570f565b9150614c7f82615c75565b602082019050919050565b6000614c9760158361570f565b9150614ca282615c9e565b602082019050919050565b6000614cba60298361570f565b9150614cc582615cc7565b604082019050919050565b6000614cdd60098361570f565b9150614ce882615d16565b602082019050919050565b6000614d0060118361570f565b9150614d0b82615d3f565b602082019050919050565b6000614d2360208361570f565b9150614d2e82615d68565b602082019050919050565b6000614d46600183615720565b9150614d5182615d91565b600182019050919050565b6000614d6960028361570f565b9150614d7482615dba565b602082019050919050565b6000614d8c60038361570f565b9150614d9782615de3565b602082019050919050565b6000614daf60188361570f565b9150614dba82615e0c565b602082019050919050565b6000614dd260078361570f565b9150614ddd82615e35565b602082019050919050565b6000614df560118361570f565b9150614e0082615e5e565b602082019050919050565b606082016000820151614e2160008501826148ef565b506020820151614e3460208501826148ef565b506040820151614e476040850182614e4d565b50505050565b614e568161587b565b82525050565b614e658161587b565b82525050565b614e748161588a565b82525050565b614e838161588a565b82525050565b6000614e958284614aa5565b915081905092915050565b6000614eac8285614b1e565b9150614eb88284614b1e565b91508190509392505050565b6000614ecf82614d39565b9150614edb828661490d565b601482019150614eeb8285614a55565b602082019150614efb8284614a55565b602082019150819050949350505050565b6000602082019050614f2160008301846148fe565b92915050565b6000606082019050614f3c60008301866148fe565b614f4960208301856148fe565b614f566040830184614e7a565b949350505050565b6000608082019050614f7360008301876148fe565b614f8060208301866148fe565b614f8d6040830185614e7a565b8181036060830152614f9f8184614a6c565b905095945050505050565b6000608082019050614fbf60008301896148fe565b8181036020830152614fd2818789614981565b90508181036040830152614fe7818587614981565b90508181036060830152614ffb8184614a6c565b9050979650505050505050565b600060408201905061501d60008301856148fe565b61502a6020830184614e5c565b9392505050565b600060408201905061504660008301856148fe565b6150536020830184614e7a565b9392505050565b6000602082019050818103600083015261507481846149d9565b905092915050565b6000604082019050818103600083015261509681856149d9565b90506150a56020830184614e7a565b9392505050565b60006020820190506150c16000830184614a37565b92915050565b60006020820190506150dc6000830184614a46565b92915050565b600060208201905081810360008301526150fc8184614ae5565b905092915050565b6000602082019050818103600083015261511d81614b4f565b9050919050565b6000602082019050818103600083015261513d81614b72565b9050919050565b6000602082019050818103600083015261515d81614b95565b9050919050565b6000602082019050818103600083015261517d81614bb8565b9050919050565b6000602082019050818103600083015261519d81614bdb565b9050919050565b600060208201905081810360008301526151bd81614bfe565b9050919050565b600060208201905081810360008301526151dd81614c21565b9050919050565b600060208201905081810360008301526151fd81614c44565b9050919050565b6000602082019050818103600083015261521d81614c67565b9050919050565b6000602082019050818103600083015261523d81614c8a565b9050919050565b6000602082019050818103600083015261525d81614cad565b9050919050565b6000602082019050818103600083015261527d81614cd0565b9050919050565b6000602082019050818103600083015261529d81614cf3565b9050919050565b600060208201905081810360008301526152bd81614d16565b9050919050565b600060208201905081810360008301526152dd81614d5c565b9050919050565b600060208201905081810360008301526152fd81614d7f565b9050919050565b6000602082019050818103600083015261531d81614da2565b9050919050565b6000602082019050818103600083015261533d81614dc5565b9050919050565b6000602082019050818103600083015261535d81614de8565b9050919050565b60006060820190506153796000830184614e0b565b92915050565b60006020820190506153946000830184614e7a565b92915050565b600060c0820190506153af6000830189614e7a565b6153bc60208301886148fe565b81810360408301526153ce81876149d9565b90506153dd6060830186614e7a565b6153ea6080830185614e7a565b6153f760a0830184614e7a565b979650505050505050565b60006040820190506154176000830186614e7a565b818103602083015261542a818486614924565b9050949350505050565b60006060820190506154496000830187614e7a565b818103602083015261545c818587614981565b905061546b60408301846148fe565b95945050505050565b60006040820190506154896000830185614e7a565b6154966020830184614e7a565b9392505050565b60006060820190506154b26000830186614e7a565b6154bf6020830185614e7a565b81810360408301526154d181846149d9565b9050949350505050565b60006080820190506154f06000830187614e7a565b6154fd6020830186614e7a565b61550a6040830185614e7a565b6155176060830184614e7a565b95945050505050565b6000808335600160200384360303811261553957600080fd5b80840192508235915067ffffffffffffffff82111561555757600080fd5b60208301925060208202360383131561556f57600080fd5b509250929050565b6000808335600160200384360303811261559057600080fd5b80840192508235915067ffffffffffffffff8211156155ae57600080fd5b6020830192506020820236038313156155c657600080fd5b509250929050565b60006155d86155e9565b90506155e48282615908565b919050565b6000604051905090565b600067ffffffffffffffff82111561560e5761560d615a6e565b5b602082029050602081019050919050565b600067ffffffffffffffff82111561563a57615639615a6e565b5b602082029050602081019050919050565b600067ffffffffffffffff82111561566657615665615a6e565b5b61566f82615a9d565b9050602081019050919050565b6000819050919050565b6000819050602082019050919050565b600081519050919050565b600081519050919050565b600081519050919050565b6000602082019050919050565b6000602082019050919050565b600082825260208201905092915050565b600082825260208201905092915050565b600082825260208201905092915050565b600081905092915050565b600082825260208201905092915050565b600081905092915050565b600061573a6020840184613f35565b905092915050565b600061574d8261588a565b91506157588361588a565b9250827fffffffffffffffffffffffffffffffffffffffffffffffffffffffffffffffff0382111561578d5761578c6159e1565b5b828201905092915050565b60006157a38261588a565b91506157ae8361588a565b9250826157be576157bd615a10565b5b828204905092915050565b60006157d48261588a565b91506157df8361588a565b9250828210156157f2576157f16159e1565b5b828203905092915050565b60006158088261585b565b9050919050565b60008115159050919050565b6000819050919050565b60007fffffffff0000000000000000000000000000000000000000000000000000000082169050919050565b6000819050919050565b600073ffffffffffffffffffffffffffffffffffffffff82169050919050565b600062ffffff82169050919050565b6000819050919050565b82818337600083830152505050565b60005b838110156158c15780820151818401526020810190506158a6565b838111156158d0576000848401525b50505050565b600060028204905060018216806158ee57607f821691505b6020821081141561590257615901615a3f565b5b50919050565b61591182615a9d565b810181811067ffffffffffffffff821117156159305761592f615a6e565b5b80604052505050565b60006159448261588a565b91507fffffffffffffffffffffffffffffffffffffffffffffffffffffffffffffffff821415615977576159766159e1565b5b600182019050919050565b600061598d8261599e565b9050919050565b6000819050919050565b60006159a982615aae565b9050919050565b60006159bb8261588a565b91506159c68361588a565b9250826159d6576159d5615a10565b5b828206905092915050565b7f4e487b7100000000000000000000000000000000000000000000000000000000600052601160045260246000fd5b7f4e487b7100000000000000000000000000000000000000000000000000000000600052601260045260246000fd5b7f4e487b7100000000000000000000000000000000000000000000000000000000600052602260045260246000fd5b7f4e487b7100000000000000000000000000000000000000000000000000000000600052604160045260246000fd5b6000601f19601f8301169050919050565b60008160601b9050919050565b7f4e4f545f57455448000000000000000000000000000000000000000000000000600082015250565b7f4552433732313a207472616e7366657220746f206e6f6e20455243373231526560008201527f63656976657220696d706c656d656e7465720000000000000000000000000000602082015250565b7f4552433732313a207472616e736665722066726f6d20696e636f72726563742060008201527f6f776e6572000000000000000000000000000000000000000000000000000000602082015250565b7f4552433732313a20746f6b656e20616c7265616479206d696e74656400000000600082015250565b7f7765746842616c203c206d696e416d7400000000000000000000000000000000600082015250565b7f4552433732313a207472616e7366657220746f20746865207a65726f2061646460008201527f7265737300000000000000000000000000000000000000000000000000000000602082015250565b7f4552433732313a20617070726f766520746f2063616c6c657200000000000000600082015250565b7f3c206d696e000000000000000000000000000000000000000000000000000000600082015250565b7f5354450000000000000000000000000000000000000000000000000000000000600082015250565b7f4552433732313a20617070726f7665206f776e65720000000000000000000000600082015250565b7f4552433732313a2061646472657373207a65726f206973206e6f74206120766160008201527f6c6964206f776e65720000000000000000000000000000000000000000000000602082015250565b7f464f5242494444454e0000000000000000000000000000000000000000000000600082015250565b7f4552433732313a20464f5242494444454e000000000000000000000000000000600082015250565b7f4552433732313a206d696e7420746f20746865207a65726f2061646472657373600082015250565b7fff00000000000000000000000000000000000000000000000000000000000000600082015250565b7f5354000000000000000000000000000000000000000000000000000000000000600082015250565b7f5354460000000000000000000000000000000000000000000000000000000000600082015250565b7f4552433732313a20696e76616c696420746f6b656e2049440000000000000000600082015250565b7f4558504952454400000000000000000000000000000000000000000000000000600082015250565b7f746f6b656e42616c203c206d696e416d74000000000000000000000000000000600082015250565b615e90816157fd565b8114615e9b57600080fd5b50565b615ea78161580f565b8114615eb257600080fd5b50565b615ebe81615825565b8114615ec957600080fd5b50565b615ed581615851565b8114615ee057600080fd5b50565b615eec8161587b565b8114615ef757600080fd5b50565b615f038161588a565b8114615f0e57600080fd5b5056fe7472616e7366657246726f6d28616464726573732c616464726573732c75696e7432353629a26469706673582212205bdaa198d83374dbc1fc9d5bd67f474c6ae2420b40d7282b155b372ccaf8439164736f6c63430008040033",
  "linkReferences": {},
  "deployedLinkReferences": {}
}